ARM GAS  C:\Users\JOSEAN~1\AppData\Local\Temp\cccQLwB9.s 			page 1


   1              		.syntax unified
   2              		.cpu cortex-m3
   3              		.fpu softvfp
   4              		.eabi_attribute 20, 1
   5              		.eabi_attribute 21, 1
   6              		.eabi_attribute 23, 3
   7              		.eabi_attribute 24, 1
   8              		.eabi_attribute 25, 1
   9              		.eabi_attribute 26, 1
  10              		.eabi_attribute 30, 1
  11              		.eabi_attribute 34, 1
  12              		.eabi_attribute 18, 4
  13              		.thumb
  14              		.syntax unified
  15              		.file	"ADC_PM.c"
  16              		.text
  17              	.Ltext0:
  18              		.cfi_sections	.debug_frame
  19              		.section	.text.ADC_SaveConfig,"ax",%progbits
  20              		.align	2
  21              		.global	ADC_SaveConfig
  22              		.thumb
  23              		.thumb_func
  24              		.type	ADC_SaveConfig, %function
  25              	ADC_SaveConfig:
  26              	.LFB0:
  27              		.file 1 "Generated_Source\\PSoC5\\ADC_PM.c"
   1:Generated_Source\PSoC5/ADC_PM.c **** /*******************************************************************************
   2:Generated_Source\PSoC5/ADC_PM.c **** * File Name: ADC_PM.c
   3:Generated_Source\PSoC5/ADC_PM.c **** * Version 3.10
   4:Generated_Source\PSoC5/ADC_PM.c **** *
   5:Generated_Source\PSoC5/ADC_PM.c **** * Description:
   6:Generated_Source\PSoC5/ADC_PM.c **** *  This file provides Sleep/WakeUp APIs functionality.
   7:Generated_Source\PSoC5/ADC_PM.c **** *
   8:Generated_Source\PSoC5/ADC_PM.c **** * Note:
   9:Generated_Source\PSoC5/ADC_PM.c **** *
  10:Generated_Source\PSoC5/ADC_PM.c **** ********************************************************************************
  11:Generated_Source\PSoC5/ADC_PM.c **** * Copyright 2008-2015, Cypress Semiconductor Corporation.  All rights reserved.
  12:Generated_Source\PSoC5/ADC_PM.c **** * You may use this file only in accordance with the license, terms, conditions,
  13:Generated_Source\PSoC5/ADC_PM.c **** * disclaimers, and limitations in the end user license agreement accompanying
  14:Generated_Source\PSoC5/ADC_PM.c **** * the software package with which this file was provided.
  15:Generated_Source\PSoC5/ADC_PM.c **** *******************************************************************************/
  16:Generated_Source\PSoC5/ADC_PM.c **** 
  17:Generated_Source\PSoC5/ADC_PM.c **** #include "ADC.h"
  18:Generated_Source\PSoC5/ADC_PM.c **** 
  19:Generated_Source\PSoC5/ADC_PM.c **** 
  20:Generated_Source\PSoC5/ADC_PM.c **** /***************************************
  21:Generated_Source\PSoC5/ADC_PM.c **** * Local data allocation
  22:Generated_Source\PSoC5/ADC_PM.c **** ***************************************/
  23:Generated_Source\PSoC5/ADC_PM.c **** 
  24:Generated_Source\PSoC5/ADC_PM.c **** static ADC_BACKUP_STRUCT  ADC_backup =
  25:Generated_Source\PSoC5/ADC_PM.c **** {
  26:Generated_Source\PSoC5/ADC_PM.c ****     ADC_DISABLED
  27:Generated_Source\PSoC5/ADC_PM.c **** };
  28:Generated_Source\PSoC5/ADC_PM.c **** 
  29:Generated_Source\PSoC5/ADC_PM.c **** 
  30:Generated_Source\PSoC5/ADC_PM.c **** /*******************************************************************************
ARM GAS  C:\Users\JOSEAN~1\AppData\Local\Temp\cccQLwB9.s 			page 2


  31:Generated_Source\PSoC5/ADC_PM.c **** * Function Name: ADC_SaveConfig
  32:Generated_Source\PSoC5/ADC_PM.c **** ********************************************************************************
  33:Generated_Source\PSoC5/ADC_PM.c **** *
  34:Generated_Source\PSoC5/ADC_PM.c **** * Summary:
  35:Generated_Source\PSoC5/ADC_PM.c **** *  Saves the current user configuration.
  36:Generated_Source\PSoC5/ADC_PM.c **** *
  37:Generated_Source\PSoC5/ADC_PM.c **** * Parameters:
  38:Generated_Source\PSoC5/ADC_PM.c **** *  None.
  39:Generated_Source\PSoC5/ADC_PM.c **** *
  40:Generated_Source\PSoC5/ADC_PM.c **** * Return:
  41:Generated_Source\PSoC5/ADC_PM.c **** *  None.
  42:Generated_Source\PSoC5/ADC_PM.c **** *
  43:Generated_Source\PSoC5/ADC_PM.c **** *******************************************************************************/
  44:Generated_Source\PSoC5/ADC_PM.c **** void ADC_SaveConfig(void)
  45:Generated_Source\PSoC5/ADC_PM.c **** {
  28              		.loc 1 45 0
  29              		.cfi_startproc
  30              		@ args = 0, pretend = 0, frame = 0
  31              		@ frame_needed = 0, uses_anonymous_args = 0
  32              		@ link register save eliminated.
  33 0000 7047     		bx	lr
  34              		.cfi_endproc
  35              	.LFE0:
  36              		.size	ADC_SaveConfig, .-ADC_SaveConfig
  37 0002 00BF     		.section	.text.ADC_RestoreConfig,"ax",%progbits
  38              		.align	2
  39              		.global	ADC_RestoreConfig
  40              		.thumb
  41              		.thumb_func
  42              		.type	ADC_RestoreConfig, %function
  43              	ADC_RestoreConfig:
  44              	.LFB1:
  46:Generated_Source\PSoC5/ADC_PM.c ****     /* All configuration registers are marked as [reset_all_retention] */
  47:Generated_Source\PSoC5/ADC_PM.c **** }
  48:Generated_Source\PSoC5/ADC_PM.c **** 
  49:Generated_Source\PSoC5/ADC_PM.c **** 
  50:Generated_Source\PSoC5/ADC_PM.c **** /*******************************************************************************
  51:Generated_Source\PSoC5/ADC_PM.c **** * Function Name: ADC_RestoreConfig
  52:Generated_Source\PSoC5/ADC_PM.c **** ********************************************************************************
  53:Generated_Source\PSoC5/ADC_PM.c **** *
  54:Generated_Source\PSoC5/ADC_PM.c **** * Summary:
  55:Generated_Source\PSoC5/ADC_PM.c **** *  Restores the current user configuration.
  56:Generated_Source\PSoC5/ADC_PM.c **** *
  57:Generated_Source\PSoC5/ADC_PM.c **** * Parameters:
  58:Generated_Source\PSoC5/ADC_PM.c **** *  None.
  59:Generated_Source\PSoC5/ADC_PM.c **** *
  60:Generated_Source\PSoC5/ADC_PM.c **** * Return:
  61:Generated_Source\PSoC5/ADC_PM.c **** *  None.
  62:Generated_Source\PSoC5/ADC_PM.c **** *
  63:Generated_Source\PSoC5/ADC_PM.c **** *******************************************************************************/
  64:Generated_Source\PSoC5/ADC_PM.c **** void ADC_RestoreConfig(void)
  65:Generated_Source\PSoC5/ADC_PM.c **** {
  45              		.loc 1 65 0
  46              		.cfi_startproc
  47              		@ args = 0, pretend = 0, frame = 0
  48              		@ frame_needed = 0, uses_anonymous_args = 0
  49              		@ link register save eliminated.
ARM GAS  C:\Users\JOSEAN~1\AppData\Local\Temp\cccQLwB9.s 			page 3


  50 0000 7047     		bx	lr
  51              		.cfi_endproc
  52              	.LFE1:
  53              		.size	ADC_RestoreConfig, .-ADC_RestoreConfig
  54 0002 00BF     		.section	.text.ADC_Sleep,"ax",%progbits
  55              		.align	2
  56              		.global	ADC_Sleep
  57              		.thumb
  58              		.thumb_func
  59              		.type	ADC_Sleep, %function
  60              	ADC_Sleep:
  61              	.LFB2:
  66:Generated_Source\PSoC5/ADC_PM.c ****     /* All congiguration registers are marked as [reset_all_retention] */
  67:Generated_Source\PSoC5/ADC_PM.c **** }
  68:Generated_Source\PSoC5/ADC_PM.c **** 
  69:Generated_Source\PSoC5/ADC_PM.c **** 
  70:Generated_Source\PSoC5/ADC_PM.c **** /*******************************************************************************
  71:Generated_Source\PSoC5/ADC_PM.c **** * Function Name: ADC_Sleep
  72:Generated_Source\PSoC5/ADC_PM.c **** ********************************************************************************
  73:Generated_Source\PSoC5/ADC_PM.c **** *
  74:Generated_Source\PSoC5/ADC_PM.c **** * Summary:
  75:Generated_Source\PSoC5/ADC_PM.c **** *  This is the preferred routine to prepare the component for sleep.
  76:Generated_Source\PSoC5/ADC_PM.c **** *  The ADC_Sleep() routine saves the current component state,
  77:Generated_Source\PSoC5/ADC_PM.c **** *  then it calls the ADC_Stop() function.
  78:Generated_Source\PSoC5/ADC_PM.c **** *
  79:Generated_Source\PSoC5/ADC_PM.c **** * Parameters:
  80:Generated_Source\PSoC5/ADC_PM.c **** *  None.
  81:Generated_Source\PSoC5/ADC_PM.c **** *
  82:Generated_Source\PSoC5/ADC_PM.c **** * Return:
  83:Generated_Source\PSoC5/ADC_PM.c **** *  None.
  84:Generated_Source\PSoC5/ADC_PM.c **** *
  85:Generated_Source\PSoC5/ADC_PM.c **** * Global Variables:
  86:Generated_Source\PSoC5/ADC_PM.c **** *  ADC_backup - The structure field 'enableState' is modified
  87:Generated_Source\PSoC5/ADC_PM.c **** *  depending on the enable state of the block before entering to sleep mode.
  88:Generated_Source\PSoC5/ADC_PM.c **** *
  89:Generated_Source\PSoC5/ADC_PM.c **** *******************************************************************************/
  90:Generated_Source\PSoC5/ADC_PM.c **** void ADC_Sleep(void)
  91:Generated_Source\PSoC5/ADC_PM.c **** {
  62              		.loc 1 91 0
  63              		.cfi_startproc
  64              		@ args = 0, pretend = 0, frame = 0
  65              		@ frame_needed = 0, uses_anonymous_args = 0
  66              		.loc 1 91 0
  67 0000 08B5     		push	{r3, lr}
  68              		.cfi_def_cfa_offset 8
  69              		.cfi_offset 3, -8
  70              		.cfi_offset 14, -4
  92:Generated_Source\PSoC5/ADC_PM.c ****     if((ADC_PWRMGR_SAR_REG  & ADC_ACT_PWR_SAR_EN) != 0u)
  71              		.loc 1 92 0
  72 0002 0C4B     		ldr	r3, .L9
  73 0004 1B78     		ldrb	r3, [r3]	@ zero_extendqisi2
  74 0006 13F0020F 		tst	r3, #2
  75 000a 0ED0     		beq	.L4
  93:Generated_Source\PSoC5/ADC_PM.c ****     {
  94:Generated_Source\PSoC5/ADC_PM.c ****         if((ADC_SAR_CSR0_REG & ADC_SAR_SOF_START_CONV) != 0u)
  76              		.loc 1 94 0
  77 000c 0A4B     		ldr	r3, .L9+4
ARM GAS  C:\Users\JOSEAN~1\AppData\Local\Temp\cccQLwB9.s 			page 4


  78 000e 1B78     		ldrb	r3, [r3]	@ zero_extendqisi2
  79 0010 13F0010F 		tst	r3, #1
  80 0014 03D0     		beq	.L5
  95:Generated_Source\PSoC5/ADC_PM.c ****         {
  96:Generated_Source\PSoC5/ADC_PM.c ****             ADC_backup.enableState = ADC_ENABLED | ADC_STARTED;
  81              		.loc 1 96 0
  82 0016 0322     		movs	r2, #3
  83 0018 084B     		ldr	r3, .L9+8
  84 001a 1A70     		strb	r2, [r3]
  85 001c 02E0     		b	.L6
  86              	.L5:
  97:Generated_Source\PSoC5/ADC_PM.c ****         }
  98:Generated_Source\PSoC5/ADC_PM.c ****         else
  99:Generated_Source\PSoC5/ADC_PM.c ****         {
 100:Generated_Source\PSoC5/ADC_PM.c ****             ADC_backup.enableState = ADC_ENABLED;
  87              		.loc 1 100 0
  88 001e 0122     		movs	r2, #1
  89 0020 064B     		ldr	r3, .L9+8
  90 0022 1A70     		strb	r2, [r3]
  91              	.L6:
 101:Generated_Source\PSoC5/ADC_PM.c ****         }
 102:Generated_Source\PSoC5/ADC_PM.c ****         ADC_Stop();
  92              		.loc 1 102 0
  93 0024 FFF7FEFF 		bl	ADC_Stop
  94              	.LVL0:
  95 0028 08BD     		pop	{r3, pc}
  96              	.L4:
 103:Generated_Source\PSoC5/ADC_PM.c ****     }
 104:Generated_Source\PSoC5/ADC_PM.c ****     else
 105:Generated_Source\PSoC5/ADC_PM.c ****     {
 106:Generated_Source\PSoC5/ADC_PM.c ****         ADC_backup.enableState = ADC_DISABLED;
  97              		.loc 1 106 0
  98 002a 0022     		movs	r2, #0
  99 002c 034B     		ldr	r3, .L9+8
 100 002e 1A70     		strb	r2, [r3]
 101 0030 08BD     		pop	{r3, pc}
 102              	.L10:
 103 0032 00BF     		.align	2
 104              	.L9:
 105 0034 AB430040 		.word	1073759147
 106 0038 08590040 		.word	1073764616
 107 003c 00000000 		.word	.LANCHOR0
 108              		.cfi_endproc
 109              	.LFE2:
 110              		.size	ADC_Sleep, .-ADC_Sleep
 111              		.section	.text.ADC_Wakeup,"ax",%progbits
 112              		.align	2
 113              		.global	ADC_Wakeup
 114              		.thumb
 115              		.thumb_func
 116              		.type	ADC_Wakeup, %function
 117              	ADC_Wakeup:
 118              	.LFB3:
 107:Generated_Source\PSoC5/ADC_PM.c ****     }
 108:Generated_Source\PSoC5/ADC_PM.c **** }
 109:Generated_Source\PSoC5/ADC_PM.c **** 
 110:Generated_Source\PSoC5/ADC_PM.c **** 
ARM GAS  C:\Users\JOSEAN~1\AppData\Local\Temp\cccQLwB9.s 			page 5


 111:Generated_Source\PSoC5/ADC_PM.c **** /*******************************************************************************
 112:Generated_Source\PSoC5/ADC_PM.c **** * Function Name: ADC_Wakeup
 113:Generated_Source\PSoC5/ADC_PM.c **** ********************************************************************************
 114:Generated_Source\PSoC5/ADC_PM.c **** *
 115:Generated_Source\PSoC5/ADC_PM.c **** * Summary:
 116:Generated_Source\PSoC5/ADC_PM.c **** *  This is the preferred routine to restore the component to the state when
 117:Generated_Source\PSoC5/ADC_PM.c **** *  ADC_Sleep() was called. If the component was enabled before the
 118:Generated_Source\PSoC5/ADC_PM.c **** *  ADC_Sleep() function was called, the
 119:Generated_Source\PSoC5/ADC_PM.c **** *  ADC_Wakeup() function also re-enables the component.
 120:Generated_Source\PSoC5/ADC_PM.c **** *
 121:Generated_Source\PSoC5/ADC_PM.c **** * Parameters:
 122:Generated_Source\PSoC5/ADC_PM.c **** *  None.
 123:Generated_Source\PSoC5/ADC_PM.c **** *
 124:Generated_Source\PSoC5/ADC_PM.c **** * Return:
 125:Generated_Source\PSoC5/ADC_PM.c **** *  None.
 126:Generated_Source\PSoC5/ADC_PM.c **** *
 127:Generated_Source\PSoC5/ADC_PM.c **** * Global Variables:
 128:Generated_Source\PSoC5/ADC_PM.c **** *  ADC_backup - The structure field 'enableState' is used to
 129:Generated_Source\PSoC5/ADC_PM.c **** *  restore the enable state of block after wakeup from sleep mode.
 130:Generated_Source\PSoC5/ADC_PM.c **** *
 131:Generated_Source\PSoC5/ADC_PM.c **** *******************************************************************************/
 132:Generated_Source\PSoC5/ADC_PM.c **** void ADC_Wakeup(void)
 133:Generated_Source\PSoC5/ADC_PM.c **** {
 119              		.loc 1 133 0
 120              		.cfi_startproc
 121              		@ args = 0, pretend = 0, frame = 0
 122              		@ frame_needed = 0, uses_anonymous_args = 0
 123 0000 08B5     		push	{r3, lr}
 124              		.cfi_def_cfa_offset 8
 125              		.cfi_offset 3, -8
 126              		.cfi_offset 14, -4
 134:Generated_Source\PSoC5/ADC_PM.c ****     if(ADC_backup.enableState != ADC_DISABLED)
 127              		.loc 1 134 0
 128 0002 064B     		ldr	r3, .L14
 129 0004 1B78     		ldrb	r3, [r3]	@ zero_extendqisi2
 130 0006 43B1     		cbz	r3, .L11
 135:Generated_Source\PSoC5/ADC_PM.c ****     {
 136:Generated_Source\PSoC5/ADC_PM.c ****         ADC_Enable();
 131              		.loc 1 136 0
 132 0008 FFF7FEFF 		bl	ADC_Enable
 133              	.LVL1:
 137:Generated_Source\PSoC5/ADC_PM.c ****         #if(ADC_DEFAULT_CONV_MODE != ADC__HARDWARE_TRIGGER)
 138:Generated_Source\PSoC5/ADC_PM.c ****             if((ADC_backup.enableState & ADC_STARTED) != 0u)
 134              		.loc 1 138 0
 135 000c 034B     		ldr	r3, .L14
 136 000e 1B78     		ldrb	r3, [r3]	@ zero_extendqisi2
 137 0010 13F0020F 		tst	r3, #2
 138 0014 01D0     		beq	.L11
 139:Generated_Source\PSoC5/ADC_PM.c ****             {
 140:Generated_Source\PSoC5/ADC_PM.c ****                 ADC_StartConvert();
 139              		.loc 1 140 0
 140 0016 FFF7FEFF 		bl	ADC_StartConvert
 141              	.LVL2:
 142              	.L11:
 143 001a 08BD     		pop	{r3, pc}
 144              	.L15:
 145              		.align	2
ARM GAS  C:\Users\JOSEAN~1\AppData\Local\Temp\cccQLwB9.s 			page 6


 146              	.L14:
 147 001c 00000000 		.word	.LANCHOR0
 148              		.cfi_endproc
 149              	.LFE3:
 150              		.size	ADC_Wakeup, .-ADC_Wakeup
 151              		.bss
 152              		.align	2
 153              		.set	.LANCHOR0,. + 0
 154              		.type	ADC_backup, %object
 155              		.size	ADC_backup, 1
 156              	ADC_backup:
 157 0000 00       		.space	1
 158              		.text
 159              	.Letext0:
 160              		.file 2 "Generated_Source\\PSoC5\\cytypes.h"
 161              		.file 3 "Generated_Source\\PSoC5\\ADC.h"
