ARM GAS  C:\Users\JOSEAN~1\AppData\Local\Temp\ccyqfNNc.s 			page 1


   1              		.syntax unified
   2              		.cpu cortex-m3
   3              		.fpu softvfp
   4              		.eabi_attribute 20, 1
   5              		.eabi_attribute 21, 1
   6              		.eabi_attribute 23, 3
   7              		.eabi_attribute 24, 1
   8              		.eabi_attribute 25, 1
   9              		.eabi_attribute 26, 1
  10              		.eabi_attribute 30, 1
  11              		.eabi_attribute 34, 1
  12              		.eabi_attribute 18, 4
  13              		.thumb
  14              		.syntax unified
  15              		.file	"main.c"
  16              		.text
  17              	.Ltext0:
  18              		.cfi_sections	.debug_frame
  19              		.section	.text.isr_button_handler,"ax",%progbits
  20              		.align	2
  21              		.global	isr_button_handler
  22              		.thumb
  23              		.thumb_func
  24              		.type	isr_button_handler, %function
  25              	isr_button_handler:
  26              	.LFB64:
  27              		.file 1 "main.c"
   1:main.c        **** /* ========================================
   2:main.c        ****  *
   3:main.c        ****  * Copyright YOUR COMPANY, THE YEAR
   4:main.c        ****  * All Rights Reserved
   5:main.c        ****  * UNPUBLISHED, LICENSED SOFTWARE.
   6:main.c        ****  *
   7:main.c        ****  * CONFIDENTIAL AND PROPRIETARY INFORMATION
   8:main.c        ****  * WHICH IS THE PROPERTY OF your company.
   9:main.c        ****  *
  10:main.c        ****  * ========================================
  11:main.c        **** */
  12:main.c        **** #include "project.h"
  13:main.c        **** #include "stdio.h"
  14:main.c        **** #include "math.h"
  15:main.c        **** 
  16:main.c        **** typedef unsigned char bool;
  17:main.c        **** #define FALSE 0
  18:main.c        **** #define TRUE (!FALSE)
  19:main.c        **** 
  20:main.c        **** bool state_button = FALSE; //Empezamos en OFF
  21:main.c        **** 
  22:main.c        **** /**** Parámetros para la medida de la velocidad ****/
  23:main.c        **** #define TIMER_PERIOD (uint16)(pow(2, Timer_Speed_Resolution)) // 2^12 = 65536 bits
  24:main.c        **** 
  25:main.c        **** bool first_turn = TRUE; //Se activa para no contabilizar la primera captura en el primer giro, no c
  26:main.c        **** bool first_time = TRUE;
  27:main.c        **** uint16 periodos_count = 0; //Nº de veces que cuenta un período el timer, y no se ha dado una capt
  28:main.c        **** // este parámetro incrementará indefinidamente mientras el motor esté parado
  29:main.c        **** //llegará a valores altos a baja velocidad de rotación
  30:main.c        **** uint16 T0,T1; //Variable para almacenar el valor de la primera captura
ARM GAS  C:\Users\JOSEAN~1\AppData\Local\Temp\ccyqfNNc.s 			page 2


  31:main.c        **** float delay; //Variable para almacenar el tiempo transcurrido desde la captura actual a la anterior
  32:main.c        **** float w_real; //Velocidad del motor calculada por los sensores hall (rpm)
  33:main.c        **** float w_ref; //Velocidad de referencia, leída por el potenciómetro, ajustada por el usuario
  34:main.c        **** uint8 duty; //Duty calculado para escribir el PWM, n bits
  35:main.c        **** float duty_perc; //Porcentaje de duty, salida del PID
  36:main.c        **** #define CLK_SPEED   1.0e6   // 1 MHz
  37:main.c        **** #define P_POLOS     4       //n pares de polos
  38:main.c        **** 
  39:main.c        **** 
  40:main.c        **** CY_ISR (isr_button_handler){
  28              		.loc 1 40 0
  29              		.cfi_startproc
  30              		@ args = 0, pretend = 0, frame = 0
  31              		@ frame_needed = 0, uses_anonymous_args = 0
  32              		@ link register save eliminated.
  41:main.c        ****    // Pin_Out_Write(Pin_Out_Read()^1U);
  42:main.c        ****     state_button = !state_button;
  33              		.loc 1 42 0
  34 0000 034A     		ldr	r2, .L2
  35 0002 1378     		ldrb	r3, [r2]	@ zero_extendqisi2
  36 0004 B3FA83F3 		clz	r3, r3
  37 0008 5B09     		lsrs	r3, r3, #5
  38 000a 1370     		strb	r3, [r2]
  39 000c 7047     		bx	lr
  40              	.L3:
  41 000e 00BF     		.align	2
  42              	.L2:
  43 0010 00000000 		.word	.LANCHOR0
  44              		.cfi_endproc
  45              	.LFE64:
  46              		.size	isr_button_handler, .-isr_button_handler
  47              		.global	__aeabi_i2d
  48              		.global	__aeabi_ddiv
  49              		.global	__aeabi_d2f
  50              		.global	__aeabi_fmul
  51              		.global	__aeabi_fdiv
  52              		.section	.text.isr_speed_handler,"ax",%progbits
  53              		.align	2
  54              		.global	isr_speed_handler
  55              		.thumb
  56              		.thumb_func
  57              		.type	isr_speed_handler, %function
  58              	isr_speed_handler:
  59              	.LFB65:
  43:main.c        **** 
  44:main.c        **** }
  45:main.c        **** 
  46:main.c        **** CY_ISR (isr_speed_handler){
  60              		.loc 1 46 0
  61              		.cfi_startproc
  62              		@ args = 0, pretend = 0, frame = 0
  63              		@ frame_needed = 0, uses_anonymous_args = 0
  64 0000 70B5     		push	{r4, r5, r6, lr}
  65              		.cfi_def_cfa_offset 16
  66              		.cfi_offset 4, -16
  67              		.cfi_offset 5, -12
  68              		.cfi_offset 6, -8
ARM GAS  C:\Users\JOSEAN~1\AppData\Local\Temp\ccyqfNNc.s 			page 3


  69              		.cfi_offset 14, -4
  70              	.LVL0:
  47:main.c        ****     /* Hay que averiguar por qué se ha dado la interrupción */
  48:main.c        ****     
  49:main.c        ****     /* Problema -> si leemos el registro se borra, entonces lo vamos a almacenar        *
  50:main.c        ****      * en un avariable intermedia de 8 bits para que aunque se borre, podemos comparar  *
  51:main.c        ****      * su valor en el segundo if                                                        *
  52:main.c        ****      */
  53:main.c        ****     uint8 status_register = 0x00;
  54:main.c        ****     
  55:main.c        ****     status_register = Timer_Speed_ReadStatusRegister(); //Se borra y se limpia la interrupción
  71              		.loc 1 55 0
  72 0002 FFF7FEFF 		bl	Timer_Speed_ReadStatusRegister
  73              	.LVL1:
  56:main.c        ****     
  57:main.c        ****     /*** INTERRUPCIÓN DEBIDA A TC ***/
  58:main.c        ****     
  59:main.c        ****     //Si la interrupción es porque ha llegado al final de la cuenta, y además el motor está en m
  60:main.c        ****     // de esta forma evitamos que el timer cuente cuando esté el motor parado y la variable se des
  61:main.c        ****      if ((status_register & Timer_Speed_STATUS_TC) && state_button){
  74              		.loc 1 61 0
  75 0006 10F0800F 		tst	r0, #128
  76 000a 07D0     		beq	.L5
  77              		.loc 1 61 0 is_stmt 0 discriminator 1
  78 000c 224B     		ldr	r3, .L9+8
  79 000e 1B78     		ldrb	r3, [r3]	@ zero_extendqisi2
  80 0010 23B1     		cbz	r3, .L5
  62:main.c        ****         periodos_count++;
  81              		.loc 1 62 0 is_stmt 1
  82 0012 214A     		ldr	r2, .L9+8
  83 0014 5388     		ldrh	r3, [r2, #2]
  84 0016 0133     		adds	r3, r3, #1
  85 0018 5380     		strh	r3, [r2, #2]	@ movhi
  86 001a 70BD     		pop	{r4, r5, r6, pc}
  87              	.L5:
  63:main.c        ****       // UART_PutString("\n\nTC\n\n");
  64:main.c        ****     }
  65:main.c        ****   
  66:main.c        ****     /*** INTERRUPCIÓN DEBIDA A CAPTURA ***/
  67:main.c        ****     
  68:main.c        ****     else if ((status_register & Timer_Speed_STATUS_CAPTURE) && state_button){
  88              		.loc 1 68 0
  89 001c 10F0400F 		tst	r0, #64
  90 0020 33D0     		beq	.L4
  91              		.loc 1 68 0 is_stmt 0 discriminator 1
  92 0022 1D4B     		ldr	r3, .L9+8
  93 0024 1B78     		ldrb	r3, [r3]	@ zero_extendqisi2
  94 0026 002B     		cmp	r3, #0
  95 0028 2FD0     		beq	.L4
  69:main.c        ****       //   UART_PutString("\n\nCAPTURE\n\n");
  70:main.c        ****         
  71:main.c        ****         if (first_turn){ //Es la primera vez
  96              		.loc 1 71 0 is_stmt 1
  97 002a 1C4B     		ldr	r3, .L9+12
  98 002c 1B78     		ldrb	r3, [r3]	@ zero_extendqisi2
  99 002e 3BB1     		cbz	r3, .L7
  72:main.c        ****             first_turn = FALSE; //Cambiamos variable para mostrar que la próxima vez ya no 
ARM GAS  C:\Users\JOSEAN~1\AppData\Local\Temp\ccyqfNNc.s 			page 4


 100              		.loc 1 72 0
 101 0030 0022     		movs	r2, #0
 102 0032 1A4B     		ldr	r3, .L9+12
 103 0034 1A70     		strb	r2, [r3]
  73:main.c        ****             //será la primera
  74:main.c        ****             T0 = Timer_Speed_ReadCapture(); //guardamos la captura, está en n*bits
 104              		.loc 1 74 0
 105 0036 FFF7FEFF 		bl	Timer_Speed_ReadCapture
 106              	.LVL2:
 107 003a 194B     		ldr	r3, .L9+16
 108 003c 1880     		strh	r0, [r3]	@ movhi
 109 003e 70BD     		pop	{r4, r5, r6, pc}
 110              	.LVL3:
 111              	.L7:
  75:main.c        ****         }else if (!first_turn){
 112              		.loc 1 75 0
 113 0040 1BBB     		cbnz	r3, .L4
  76:main.c        ****             // Si se produce la segunda catura se calcula el tiempo transcurrido desde que se dió 
  77:main.c        ****             T1 = Timer_Speed_ReadCapture();
 114              		.loc 1 77 0
 115 0042 FFF7FEFF 		bl	Timer_Speed_ReadCapture
 116              	.LVL4:
 117 0046 84B2     		uxth	r4, r0
 118 0048 164B     		ldr	r3, .L9+20
 119 004a 1C80     		strh	r4, [r3]	@ movhi
  78:main.c        ****             delay = ((T0+periodos_count*TIMER_PERIOD-T1)/CLK_SPEED);
 120              		.loc 1 78 0
 121 004c 124D     		ldr	r5, .L9+8
 122 004e 6888     		ldrh	r0, [r5, #2]
 123 0050 134E     		ldr	r6, .L9+16
 124 0052 3388     		ldrh	r3, [r6]
 125 0054 03EB0020 		add	r0, r3, r0, lsl #8
 126 0058 001B     		subs	r0, r0, r4
 127 005a FFF7FEFF 		bl	__aeabi_i2d
 128              	.LVL5:
 129 005e 0CA3     		adr	r3, .L9
 130 0060 D3E90023 		ldrd	r2, [r3]
 131 0064 FFF7FEFF 		bl	__aeabi_ddiv
 132              	.LVL6:
 133 0068 FFF7FEFF 		bl	__aeabi_d2f
 134              	.LVL7:
 135 006c 0E4B     		ldr	r3, .L9+24
 136 006e 1860     		str	r0, [r3]	@ float
  79:main.c        ****             T0 = T1; //Actualizamos T0
 137              		.loc 1 79 0
 138 0070 3480     		strh	r4, [r6]	@ movhi
  80:main.c        ****             periodos_count = 0; //Limpiamos variable que cuenta los períodos almacenados
 139              		.loc 1 80 0
 140 0072 0023     		movs	r3, #0
 141 0074 6B80     		strh	r3, [r5, #2]	@ movhi
  81:main.c        ****             w_real = 60.0/(P_POLOS*delay); //Vel obtenida [rpm]        
 142              		.loc 1 81 0
 143 0076 4FF08141 		mov	r1, #1082130432
 144 007a FFF7FEFF 		bl	__aeabi_fmul
 145              	.LVL8:
 146 007e 0146     		mov	r1, r0
 147 0080 0A48     		ldr	r0, .L9+28
ARM GAS  C:\Users\JOSEAN~1\AppData\Local\Temp\ccyqfNNc.s 			page 5


 148 0082 FFF7FEFF 		bl	__aeabi_fdiv
 149              	.LVL9:
 150 0086 0A4B     		ldr	r3, .L9+32
 151 0088 1860     		str	r0, [r3]	@ float
 152              	.L4:
 153 008a 70BD     		pop	{r4, r5, r6, pc}
 154              	.L10:
 155 008c AFF30080 		.align	3
 156              	.L9:
 157 0090 00000000 		.word	0
 158 0094 80842E41 		.word	1093567616
 159 0098 00000000 		.word	.LANCHOR0
 160 009c 00000000 		.word	.LANCHOR1
 161 00a0 00000000 		.word	T0
 162 00a4 00000000 		.word	T1
 163 00a8 00000000 		.word	delay
 164 00ac 00007042 		.word	1114636288
 165 00b0 00000000 		.word	w_real
 166              		.cfi_endproc
 167              	.LFE65:
 168              		.size	isr_speed_handler, .-isr_speed_handler
 169              		.global	__aeabi_f2d
 170              		.section	.text.main,"ax",%progbits
 171              		.align	2
 172              		.global	main
 173              		.thumb
 174              		.thumb_func
 175              		.type	main, %function
 176              	main:
 177              	.LFB66:
  82:main.c        ****         }
  83:main.c        ****         
  84:main.c        ****     }
  85:main.c        **** }
  86:main.c        **** 
  87:main.c        **** int main(void)
  88:main.c        **** {
 178              		.loc 1 88 0
 179              		.cfi_startproc
 180              		@ args = 0, pretend = 0, frame = 104
 181              		@ frame_needed = 0, uses_anonymous_args = 0
 182 0000 00B5     		push	{lr}
 183              		.cfi_def_cfa_offset 4
 184              		.cfi_offset 14, -4
 185 0002 9BB0     		sub	sp, sp, #108
 186              		.cfi_def_cfa_offset 112
  89:main.c        ****     char msg[100];
  90:main.c        ****     
  91:main.c        ****     CyGlobalIntEnable; /* Enable global interrupts. */
 187              		.loc 1 91 0
 188              		.syntax unified
 189              	@ 91 "main.c" 1
 190 0004 62B6     		CPSIE   i
 191              	@ 0 "" 2
  92:main.c        **** 
  93:main.c        ****     PWM_probe_Start();
 192              		.loc 1 93 0
ARM GAS  C:\Users\JOSEAN~1\AppData\Local\Temp\ccyqfNNc.s 			page 6


 193              		.thumb
 194              		.syntax unified
 195 0006 FFF7FEFF 		bl	PWM_probe_Start
 196              	.LVL10:
  94:main.c        ****     PWM_Driver_Start();
 197              		.loc 1 94 0
 198 000a FFF7FEFF 		bl	PWM_Driver_Start
 199              	.LVL11:
  95:main.c        ****     Timer_Speed_Start();
 200              		.loc 1 95 0
 201 000e FFF7FEFF 		bl	Timer_Speed_Start
 202              	.LVL12:
  96:main.c        ****     UART_Start();
 203              		.loc 1 96 0
 204 0012 FFF7FEFF 		bl	UART_Start
 205              	.LVL13:
  97:main.c        ****     
  98:main.c        ****     isr_speed_StartEx(isr_speed_handler);
 206              		.loc 1 98 0
 207 0016 1548     		ldr	r0, .L16
 208 0018 FFF7FEFF 		bl	isr_speed_StartEx
 209              	.LVL14:
  99:main.c        ****     isr_button_StartEx(isr_button_handler);
 210              		.loc 1 99 0
 211 001c 1448     		ldr	r0, .L16+4
 212 001e FFF7FEFF 		bl	isr_button_StartEx
 213              	.LVL15:
 100:main.c        ****             
 101:main.c        ****     Control_Reg_Write(0x00);
 214              		.loc 1 101 0
 215 0022 0020     		movs	r0, #0
 216 0024 FFF7FEFF 		bl	Control_Reg_Write
 217              	.LVL16:
 218              	.L13:
 102:main.c        ****     
 103:main.c        ****     for(;;)
 104:main.c        ****     {
 105:main.c        ****         if (state_button){
 219              		.loc 1 105 0
 220 0028 124B     		ldr	r3, .L16+8
 221 002a 1B78     		ldrb	r3, [r3]	@ zero_extendqisi2
 222 002c 93B1     		cbz	r3, .L12
 106:main.c        ****             Control_Reg_Write(0x03);
 223              		.loc 1 106 0
 224 002e 0320     		movs	r0, #3
 225 0030 FFF7FEFF 		bl	Control_Reg_Write
 226              	.LVL17:
 107:main.c        ****             Pin_LED_Write(1);
 227              		.loc 1 107 0
 228 0034 0120     		movs	r0, #1
 229 0036 FFF7FEFF 		bl	Pin_LED_Write
 230              	.LVL18:
 108:main.c        ****             sprintf(msg, "Velocidad angular: %0.2f rpm\n",w_real);
 231              		.loc 1 108 0
 232 003a 0F4B     		ldr	r3, .L16+12
 233 003c 1868     		ldr	r0, [r3]	@ float
 234 003e FFF7FEFF 		bl	__aeabi_f2d
ARM GAS  C:\Users\JOSEAN~1\AppData\Local\Temp\ccyqfNNc.s 			page 7


 235              	.LVL19:
 236 0042 0246     		mov	r2, r0
 237 0044 0B46     		mov	r3, r1
 238 0046 0D49     		ldr	r1, .L16+16
 239 0048 01A8     		add	r0, sp, #4
 240 004a FFF7FEFF 		bl	sprintf
 241              	.LVL20:
 109:main.c        ****             UART_PutString(msg);  
 242              		.loc 1 109 0
 243 004e 01A8     		add	r0, sp, #4
 244 0050 FFF7FEFF 		bl	UART_PutString
 245              	.LVL21:
 246              	.L12:
 110:main.c        ****         }if (state_button == 0){
 247              		.loc 1 110 0
 248 0054 074B     		ldr	r3, .L16+8
 249 0056 1B78     		ldrb	r3, [r3]	@ zero_extendqisi2
 250 0058 002B     		cmp	r3, #0
 251 005a E5D1     		bne	.L13
 111:main.c        ****             Control_Reg_Write(0x00);
 252              		.loc 1 111 0
 253 005c 0020     		movs	r0, #0
 254 005e FFF7FEFF 		bl	Control_Reg_Write
 255              	.LVL22:
 112:main.c        ****             Pin_LED_Write(0);       
 256              		.loc 1 112 0
 257 0062 0020     		movs	r0, #0
 258 0064 FFF7FEFF 		bl	Pin_LED_Write
 259              	.LVL23:
 260 0068 DEE7     		b	.L13
 261              	.L17:
 262 006a 00BF     		.align	2
 263              	.L16:
 264 006c 00000000 		.word	isr_speed_handler
 265 0070 00000000 		.word	isr_button_handler
 266 0074 00000000 		.word	.LANCHOR0
 267 0078 00000000 		.word	w_real
 268 007c 00000000 		.word	.LC0
 269              		.cfi_endproc
 270              	.LFE66:
 271              		.size	main, .-main
 272              		.comm	duty_perc,4,4
 273              		.comm	duty,1,1
 274              		.comm	w_ref,4,4
 275              		.comm	w_real,4,4
 276              		.comm	delay,4,4
 277              		.comm	T1,2,2
 278              		.comm	T0,2,2
 279              		.global	periodos_count
 280              		.global	first_time
 281              		.global	first_turn
 282              		.global	state_button
 283              		.data
 284              		.set	.LANCHOR1,. + 0
 285              		.type	first_turn, %object
 286              		.size	first_turn, 1
 287              	first_turn:
ARM GAS  C:\Users\JOSEAN~1\AppData\Local\Temp\ccyqfNNc.s 			page 8


 288 0000 01       		.byte	1
 289              		.type	first_time, %object
 290              		.size	first_time, 1
 291              	first_time:
 292 0001 01       		.byte	1
 293              		.section	.rodata.str1.4,"aMS",%progbits,1
 294              		.align	2
 295              	.LC0:
 296 0000 56656C6F 		.ascii	"Velocidad angular: %0.2f rpm\012\000"
 296      63696461 
 296      6420616E 
 296      67756C61 
 296      723A2025 
 297              		.bss
 298              		.align	1
 299              		.set	.LANCHOR0,. + 0
 300              		.type	state_button, %object
 301              		.size	state_button, 1
 302              	state_button:
 303 0000 00       		.space	1
 304 0001 00       		.space	1
 305              		.type	periodos_count, %object
 306              		.size	periodos_count, 2
 307              	periodos_count:
 308 0002 0000     		.space	2
 309              		.text
 310              	.Letext0:
 311              		.file 2 "c:\\program files (x86)\\cypress\\psoc creator\\4.2\\psoc creator\\import\\gnu\\arm\\5.4.
 312              		.file 3 "c:\\program files (x86)\\cypress\\psoc creator\\4.2\\psoc creator\\import\\gnu\\arm\\5.4.
 313              		.file 4 "Generated_Source\\PSoC5/cytypes.h"
 314              		.file 5 "Generated_Source\\PSoC5/core_cm3.h"
 315              		.file 6 "Generated_Source\\PSoC5/Timer_Speed.h"
 316              		.file 7 "Generated_Source\\PSoC5/PWM_probe.h"
 317              		.file 8 "Generated_Source\\PSoC5/PWM_Driver.h"
 318              		.file 9 "Generated_Source\\PSoC5/UART.h"
 319              		.file 10 "Generated_Source\\PSoC5/isr_speed.h"
 320              		.file 11 "Generated_Source\\PSoC5/isr_button.h"
 321              		.file 12 "Generated_Source\\PSoC5/Control_Reg.h"
 322              		.file 13 "Generated_Source\\PSoC5/Pin_LED.h"
 323              		.file 14 "c:\\program files (x86)\\cypress\\psoc creator\\4.2\\psoc creator\\import\\gnu\\arm\\5.4
