ARM GAS  C:\Users\JOSEAN~1\AppData\Local\Temp\ccB3mGwl.s 			page 1


   1              		.syntax unified
   2              		.cpu cortex-m3
   3              		.fpu softvfp
   4              		.eabi_attribute 20, 1
   5              		.eabi_attribute 21, 1
   6              		.eabi_attribute 23, 3
   7              		.eabi_attribute 24, 1
   8              		.eabi_attribute 25, 1
   9              		.eabi_attribute 26, 1
  10              		.eabi_attribute 30, 1
  11              		.eabi_attribute 34, 1
  12              		.eabi_attribute 18, 4
  13              		.thumb
  14              		.syntax unified
  15              		.file	"main.c"
  16              		.text
  17              	.Ltext0:
  18              		.cfi_sections	.debug_frame
  19              		.global	__aeabi_f2d
  20              		.global	__aeabi_fsub
  21              		.global	__aeabi_dmul
  22              		.global	__aeabi_dsub
  23              		.global	__aeabi_d2f
  24              		.section	.text.main,"ax",%progbits
  25              		.align	2
  26              		.global	main
  27              		.thumb
  28              		.thumb_func
  29              		.type	main, %function
  30              	main:
  31              	.LFB64:
  32              		.file 1 "main.c"
   1:main.c        **** /* ========================================
   2:main.c        ****  *
   3:main.c        ****  * Copyright YOUR COMPANY, THE YEAR
   4:main.c        ****  * All Rights Reserved
   5:main.c        ****  * UNPUBLISHED, LICENSED SOFTWARE.
   6:main.c        ****  *
   7:main.c        ****  * CONFIDENTIAL AND PROPRIETARY INFORMATION
   8:main.c        ****  * WHICH IS THE PROPERTY OF your company.
   9:main.c        ****  *
  10:main.c        ****  * ========================================
  11:main.c        **** */
  12:main.c        **** #include "project.h"
  13:main.c        **** #include "stdio.h"
  14:main.c        **** #include "math.h"
  15:main.c        **** 
  16:main.c        **** int32 adc_result; //Lectura del ADC
  17:main.c        **** float v1 = 0.0e-9; //Valor de tensión 1
  18:main.c        **** float v2 = 0.0e-9; //Valor de tensión 2
  19:main.c        **** float temp; //Variable para almacenar la temperatura
  20:main.c        **** 
  21:main.c        **** char str[100]; //String para representar los datos
  22:main.c        **** 
  23:main.c        **** int main(void)
  24:main.c        **** {
  33              		.loc 1 24 0
ARM GAS  C:\Users\JOSEAN~1\AppData\Local\Temp\ccB3mGwl.s 			page 2


  34              		.cfi_startproc
  35              		@ Volatile: function does not return.
  36              		@ args = 0, pretend = 0, frame = 0
  37              		@ frame_needed = 0, uses_anonymous_args = 0
  38 0000 80B5     		push	{r7, lr}
  39              		.cfi_def_cfa_offset 8
  40              		.cfi_offset 7, -8
  41              		.cfi_offset 14, -4
  42 0002 82B0     		sub	sp, sp, #8
  43              		.cfi_def_cfa_offset 16
  25:main.c        ****     CyGlobalIntEnable; /* Enable global interrupts. */
  44              		.loc 1 25 0
  45              		.syntax unified
  46              	@ 25 "main.c" 1
  47 0004 62B6     		CPSIE   i
  48              	@ 0 "" 2
  26:main.c        **** 
  27:main.c        ****     IDAC8_Start();
  49              		.loc 1 27 0
  50              		.thumb
  51              		.syntax unified
  52 0006 FFF7FEFF 		bl	IDAC8_Start
  53              	.LVL0:
  28:main.c        ****     ADC_Start();
  54              		.loc 1 28 0
  55 000a FFF7FEFF 		bl	ADC_Start
  56              	.LVL1:
  29:main.c        ****     UART_Start();
  57              		.loc 1 29 0
  58 000e FFF7FEFF 		bl	UART_Start
  59              	.LVL2:
  60              	.L2:
  30:main.c        ****     
  31:main.c        ****     for(;;)
  32:main.c        ****     {
  33:main.c        ****         IDAC8_SetValue(10); //Ponemos la fuente de corriente a 10uA
  61              		.loc 1 33 0 discriminator 1
  62 0012 0A20     		movs	r0, #10
  63 0014 FFF7FEFF 		bl	IDAC8_SetValue
  64              	.LVL3:
  34:main.c        ****         CyDelay(600);
  65              		.loc 1 34 0 discriminator 1
  66 0018 4FF41670 		mov	r0, #600
  67 001c FFF7FEFF 		bl	CyDelay
  68              	.LVL4:
  35:main.c        ****         ADC_StartConvert(); //Leemos el valor
  69              		.loc 1 35 0 discriminator 1
  70 0020 FFF7FEFF 		bl	ADC_StartConvert
  71              	.LVL5:
  36:main.c        ****         ADC_IsEndConversion(ADC_WAIT_FOR_RESULT);
  72              		.loc 1 36 0 discriminator 1
  73 0024 0020     		movs	r0, #0
  74 0026 FFF7FEFF 		bl	ADC_IsEndConversion
  75              	.LVL6:
  37:main.c        ****         adc_result = ADC_GetResult32(); //Resultado en binario
  76              		.loc 1 37 0 discriminator 1
  77 002a FFF7FEFF 		bl	ADC_GetResult32
ARM GAS  C:\Users\JOSEAN~1\AppData\Local\Temp\ccB3mGwl.s 			page 3


  78              	.LVL7:
  79 002e 324E     		ldr	r6, .L4+16
  80 0030 3060     		str	r0, [r6]
  38:main.c        ****         v1 = ADC_CountsTo_Volts(adc_result); //Resultado en voltios
  81              		.loc 1 38 0 discriminator 1
  82 0032 FFF7FEFF 		bl	ADC_CountsTo_Volts
  83              	.LVL8:
  84 0036 314D     		ldr	r5, .L4+20
  85 0038 2860     		str	r0, [r5]	@ float
  39:main.c        ****         
  40:main.c        ****         sprintf(str, "ADC1: %ld bits, Volts1: %f\n", adc_result, v1);
  86              		.loc 1 40 0 discriminator 1
  87 003a 3768     		ldr	r7, [r6]
  88 003c 304C     		ldr	r4, .L4+24
  89 003e FFF7FEFF 		bl	__aeabi_f2d
  90              	.LVL9:
  91 0042 CDE90001 		strd	r0, [sp]
  92 0046 3A46     		mov	r2, r7
  93 0048 2E49     		ldr	r1, .L4+28
  94 004a 2046     		mov	r0, r4
  95 004c FFF7FEFF 		bl	sprintf
  96              	.LVL10:
  41:main.c        ****         UART_PutString(str);
  97              		.loc 1 41 0 discriminator 1
  98 0050 2046     		mov	r0, r4
  99 0052 FFF7FEFF 		bl	UART_PutString
 100              	.LVL11:
  42:main.c        ****         
  43:main.c        ****         IDAC8_SetValue(100); //Ponemos la fuente de corriente a 100uA  
 101              		.loc 1 43 0 discriminator 1
 102 0056 6420     		movs	r0, #100
 103 0058 FFF7FEFF 		bl	IDAC8_SetValue
 104              	.LVL12:
  44:main.c        ****         CyDelay(600);
 105              		.loc 1 44 0 discriminator 1
 106 005c 4FF41670 		mov	r0, #600
 107 0060 FFF7FEFF 		bl	CyDelay
 108              	.LVL13:
  45:main.c        ****         ADC_StartConvert(); //Leemos el valor de tensión
 109              		.loc 1 45 0 discriminator 1
 110 0064 FFF7FEFF 		bl	ADC_StartConvert
 111              	.LVL14:
  46:main.c        ****         ADC_IsEndConversion(ADC_WAIT_FOR_RESULT);
 112              		.loc 1 46 0 discriminator 1
 113 0068 0020     		movs	r0, #0
 114 006a FFF7FEFF 		bl	ADC_IsEndConversion
 115              	.LVL15:
  47:main.c        ****         adc_result = ADC_GetResult32(); //Resultado en binario
 116              		.loc 1 47 0 discriminator 1
 117 006e FFF7FEFF 		bl	ADC_GetResult32
 118              	.LVL16:
 119 0072 3060     		str	r0, [r6]
  48:main.c        ****         v2 = ADC_CountsTo_Volts(adc_result); //Resultado en voltios
 120              		.loc 1 48 0 discriminator 1
 121 0074 FFF7FEFF 		bl	ADC_CountsTo_Volts
 122              	.LVL17:
 123 0078 6860     		str	r0, [r5, #4]	@ float
ARM GAS  C:\Users\JOSEAN~1\AppData\Local\Temp\ccB3mGwl.s 			page 4


  49:main.c        ****         
  50:main.c        ****         sprintf(str, "ADC2: %ld bits, Volts2: %f\n", adc_result, v2);
 124              		.loc 1 50 0 discriminator 1
 125 007a 3668     		ldr	r6, [r6]
 126 007c FFF7FEFF 		bl	__aeabi_f2d
 127              	.LVL18:
 128 0080 CDE90001 		strd	r0, [sp]
 129 0084 3246     		mov	r2, r6
 130 0086 2049     		ldr	r1, .L4+32
 131 0088 2046     		mov	r0, r4
 132 008a FFF7FEFF 		bl	sprintf
 133              	.LVL19:
  51:main.c        ****         UART_PutString(str);
 134              		.loc 1 51 0 discriminator 1
 135 008e 2046     		mov	r0, r4
 136 0090 FFF7FEFF 		bl	UART_PutString
 137              	.LVL20:
  52:main.c        ****         
  53:main.c        ****         temp = ((v2-v1)*5039.55)-273; //Valor de la temperatura en grados celsius
 138              		.loc 1 53 0 discriminator 1
 139 0094 2968     		ldr	r1, [r5]	@ float
 140 0096 6868     		ldr	r0, [r5, #4]	@ float
 141 0098 FFF7FEFF 		bl	__aeabi_fsub
 142              	.LVL21:
 143 009c FFF7FEFF 		bl	__aeabi_f2d
 144              	.LVL22:
 145 00a0 11A3     		adr	r3, .L4
 146 00a2 D3E90023 		ldrd	r2, [r3]
 147 00a6 FFF7FEFF 		bl	__aeabi_dmul
 148              	.LVL23:
 149 00aa 11A3     		adr	r3, .L4+8
 150 00ac D3E90023 		ldrd	r2, [r3]
 151 00b0 FFF7FEFF 		bl	__aeabi_dsub
 152              	.LVL24:
 153 00b4 FFF7FEFF 		bl	__aeabi_d2f
 154              	.LVL25:
 155 00b8 144B     		ldr	r3, .L4+36
 156 00ba 1860     		str	r0, [r3]	@ float
  54:main.c        ****         
  55:main.c        ****         sprintf(str, "Temperatura: %0.2f\n", temp);
 157              		.loc 1 55 0 discriminator 1
 158 00bc FFF7FEFF 		bl	__aeabi_f2d
 159              	.LVL26:
 160 00c0 0246     		mov	r2, r0
 161 00c2 0B46     		mov	r3, r1
 162 00c4 1249     		ldr	r1, .L4+40
 163 00c6 2046     		mov	r0, r4
 164 00c8 FFF7FEFF 		bl	sprintf
 165              	.LVL27:
  56:main.c        ****         UART_PutString(str);
 166              		.loc 1 56 0 discriminator 1
 167 00cc 2046     		mov	r0, r4
 168 00ce FFF7FEFF 		bl	UART_PutString
 169              	.LVL28:
  57:main.c        ****         UART_PutString("***********************\n");
 170              		.loc 1 57 0 discriminator 1
 171 00d2 1048     		ldr	r0, .L4+44
ARM GAS  C:\Users\JOSEAN~1\AppData\Local\Temp\ccB3mGwl.s 			page 5


 172 00d4 FFF7FEFF 		bl	UART_PutString
 173              	.LVL29:
  58:main.c        ****         CyDelay(2000);
 174              		.loc 1 58 0 discriminator 1
 175 00d8 4FF4FA60 		mov	r0, #2000
 176 00dc FFF7FEFF 		bl	CyDelay
 177              	.LVL30:
 178 00e0 97E7     		b	.L2
 179              	.L5:
 180 00e2 00BFAFF3 		.align	3
 180      0080
 181              	.L4:
 182 00e8 CDCCCCCC 		.word	-858993459
 183 00ec 8CAFB340 		.word	1085517708
 184 00f0 00000000 		.word	0
 185 00f4 00107140 		.word	1081151488
 186 00f8 00000000 		.word	adc_result
 187 00fc 00000000 		.word	.LANCHOR0
 188 0100 00000000 		.word	str
 189 0104 00000000 		.word	.LC0
 190 0108 1C000000 		.word	.LC1
 191 010c 00000000 		.word	temp
 192 0110 38000000 		.word	.LC2
 193 0114 4C000000 		.word	.LC3
 194              		.cfi_endproc
 195              	.LFE64:
 196              		.size	main, .-main
 197              		.comm	str,100,4
 198              		.comm	temp,4,4
 199              		.global	v2
 200              		.global	v1
 201              		.comm	adc_result,4,4
 202              		.section	.rodata.str1.4,"aMS",%progbits,1
 203              		.align	2
 204              	.LC0:
 205 0000 41444331 		.ascii	"ADC1: %ld bits, Volts1: %f\012\000"
 205      3A20256C 
 205      64206269 
 205      74732C20 
 205      566F6C74 
 206              	.LC1:
 207 001c 41444332 		.ascii	"ADC2: %ld bits, Volts2: %f\012\000"
 207      3A20256C 
 207      64206269 
 207      74732C20 
 207      566F6C74 
 208              	.LC2:
 209 0038 54656D70 		.ascii	"Temperatura: %0.2f\012\000"
 209      65726174 
 209      7572613A 
 209      2025302E 
 209      32660A00 
 210              	.LC3:
 211 004c 2A2A2A2A 		.ascii	"***********************\012\000"
 211      2A2A2A2A 
 211      2A2A2A2A 
 211      2A2A2A2A 
ARM GAS  C:\Users\JOSEAN~1\AppData\Local\Temp\ccB3mGwl.s 			page 6


 211      2A2A2A2A 
 212              		.bss
 213              		.align	2
 214              		.set	.LANCHOR0,. + 0
 215              		.type	v1, %object
 216              		.size	v1, 4
 217              	v1:
 218 0000 00000000 		.space	4
 219              		.type	v2, %object
 220              		.size	v2, 4
 221              	v2:
 222 0004 00000000 		.space	4
 223              		.text
 224              	.Letext0:
 225              		.file 2 "c:\\program files (x86)\\cypress\\psoc creator\\4.2\\psoc creator\\import\\gnu\\arm\\5.4.
 226              		.file 3 "c:\\program files (x86)\\cypress\\psoc creator\\4.2\\psoc creator\\import\\gnu\\arm\\5.4.
 227              		.file 4 "Generated_Source\\PSoC5/cytypes.h"
 228              		.file 5 "Generated_Source\\PSoC5/core_cm3.h"
 229              		.file 6 "Generated_Source\\PSoC5/IDAC8.h"
 230              		.file 7 "Generated_Source\\PSoC5/ADC.h"
 231              		.file 8 "Generated_Source\\PSoC5/UART.h"
 232              		.file 9 "Generated_Source\\PSoC5/CyLib.h"
 233              		.file 10 "c:\\program files (x86)\\cypress\\psoc creator\\4.2\\psoc creator\\import\\gnu\\arm\\5.4
