ARM GAS  C:\Users\JOSEAN~1\AppData\Local\Temp\ccwfO0nL.s 			page 1


   1              		.syntax unified
   2              		.cpu cortex-m3
   3              		.fpu softvfp
   4              		.eabi_attribute 20, 1
   5              		.eabi_attribute 21, 1
   6              		.eabi_attribute 23, 3
   7              		.eabi_attribute 24, 1
   8              		.eabi_attribute 25, 1
   9              		.eabi_attribute 26, 1
  10              		.eabi_attribute 30, 1
  11              		.eabi_attribute 34, 1
  12              		.eabi_attribute 18, 4
  13              		.thumb
  14              		.syntax unified
  15              		.file	"UART.c"
  16              		.text
  17              	.Ltext0:
  18              		.cfi_sections	.debug_frame
  19              		.section	.text.UART_Start,"ax",%progbits
  20              		.align	2
  21              		.global	UART_Start
  22              		.thumb
  23              		.thumb_func
  24              		.type	UART_Start, %function
  25              	UART_Start:
  26              	.LFB0:
  27              		.file 1 "Generated_Source\\PSoC5\\UART.c"
   1:Generated_Source\PSoC5/UART.c **** /*******************************************************************************
   2:Generated_Source\PSoC5/UART.c **** * File Name: UART.c
   3:Generated_Source\PSoC5/UART.c **** * Version 1.50
   4:Generated_Source\PSoC5/UART.c **** *
   5:Generated_Source\PSoC5/UART.c **** * Description:
   6:Generated_Source\PSoC5/UART.c **** *  This file provides the source code to the API for the Software Transmit UART.
   7:Generated_Source\PSoC5/UART.c **** *
   8:Generated_Source\PSoC5/UART.c **** ********************************************************************************
   9:Generated_Source\PSoC5/UART.c **** * Copyright 2013-2015, Cypress Semiconductor Corporation.  All rights reserved.
  10:Generated_Source\PSoC5/UART.c **** * You may use this file only in accordance with the license, terms, conditions,
  11:Generated_Source\PSoC5/UART.c **** * disclaimers, and limitations in the end user license agreement accompanying
  12:Generated_Source\PSoC5/UART.c **** * the software package with which this file was provided.
  13:Generated_Source\PSoC5/UART.c **** *******************************************************************************/
  14:Generated_Source\PSoC5/UART.c **** 
  15:Generated_Source\PSoC5/UART.c **** #include "UART_PVT.h"
  16:Generated_Source\PSoC5/UART.c **** 
  17:Generated_Source\PSoC5/UART.c **** #if(UART_PIN_STATIC_MODE == 1u)
  18:Generated_Source\PSoC5/UART.c ****     uint32 UART_pinNumber = UART_PIN_NUMBER;
  19:Generated_Source\PSoC5/UART.c ****     uint32 UART_pinPortNumber = UART_PIN_PORT_NUMBER;
  20:Generated_Source\PSoC5/UART.c ****     #if(CY_PSOC3)
  21:Generated_Source\PSoC5/UART.c ****         uint32 pdata UART_pinDrAdress = UART_PIN_DR;
  22:Generated_Source\PSoC5/UART.c ****     #else
  23:Generated_Source\PSoC5/UART.c ****         uint32 UART_pinDrAdress = UART_PIN_DR;
  24:Generated_Source\PSoC5/UART.c ****     #endif /* (CY_PSOC3) */
  25:Generated_Source\PSoC5/UART.c **** #else
  26:Generated_Source\PSoC5/UART.c ****     uint32 UART_pinNumber;
  27:Generated_Source\PSoC5/UART.c ****     uint32 UART_pinPortNumber;
  28:Generated_Source\PSoC5/UART.c ****     #if(CY_PSOC3)
  29:Generated_Source\PSoC5/UART.c ****         uint32 pdata UART_pinDrAdress;
  30:Generated_Source\PSoC5/UART.c ****     #else
ARM GAS  C:\Users\JOSEAN~1\AppData\Local\Temp\ccwfO0nL.s 			page 2


  31:Generated_Source\PSoC5/UART.c ****         uint32 UART_pinDrAdress;
  32:Generated_Source\PSoC5/UART.c ****     #endif /* (CY_PSOC3) */
  33:Generated_Source\PSoC5/UART.c **** #endif /* (UART_PIN_STATIC_MODE == 1u) */
  34:Generated_Source\PSoC5/UART.c **** 
  35:Generated_Source\PSoC5/UART.c **** 
  36:Generated_Source\PSoC5/UART.c **** #if(UART_PIN_STATIC_MODE == 1u)
  37:Generated_Source\PSoC5/UART.c ****     /*******************************************************************************
  38:Generated_Source\PSoC5/UART.c ****     * Function Name: UART_Start
  39:Generated_Source\PSoC5/UART.c ****     ********************************************************************************
  40:Generated_Source\PSoC5/UART.c ****     *
  41:Generated_Source\PSoC5/UART.c ****     * Summary:
  42:Generated_Source\PSoC5/UART.c ****     *  Empty function. Included for consistency with other
  43:Generated_Source\PSoC5/UART.c ****     *  components. This API is not available when PinAssignmentMethod
  44:Generated_Source\PSoC5/UART.c ****     *  is set to Dynamic.
  45:Generated_Source\PSoC5/UART.c ****     *
  46:Generated_Source\PSoC5/UART.c ****     * Parameters:
  47:Generated_Source\PSoC5/UART.c ****     *  None
  48:Generated_Source\PSoC5/UART.c ****     *
  49:Generated_Source\PSoC5/UART.c ****     * Return:
  50:Generated_Source\PSoC5/UART.c ****     *  None
  51:Generated_Source\PSoC5/UART.c ****     *
  52:Generated_Source\PSoC5/UART.c ****     *******************************************************************************/
  53:Generated_Source\PSoC5/UART.c ****     void UART_Start(void) 
  54:Generated_Source\PSoC5/UART.c ****     {
  28              		.loc 1 54 0
  29              		.cfi_startproc
  30              		@ args = 0, pretend = 0, frame = 0
  31              		@ frame_needed = 0, uses_anonymous_args = 0
  32              		@ link register save eliminated.
  33 0000 7047     		bx	lr
  34              		.cfi_endproc
  35              	.LFE0:
  36              		.size	UART_Start, .-UART_Start
  37 0002 00BF     		.section	.text.UART_Stop,"ax",%progbits
  38              		.align	2
  39              		.global	UART_Stop
  40              		.thumb
  41              		.thumb_func
  42              		.type	UART_Stop, %function
  43              	UART_Stop:
  44              	.LFB1:
  55:Generated_Source\PSoC5/UART.c **** 
  56:Generated_Source\PSoC5/UART.c ****     }
  57:Generated_Source\PSoC5/UART.c **** #else
  58:Generated_Source\PSoC5/UART.c ****     /*******************************************************************************
  59:Generated_Source\PSoC5/UART.c ****     * Function Name: UART_StartEx
  60:Generated_Source\PSoC5/UART.c ****     ********************************************************************************
  61:Generated_Source\PSoC5/UART.c ****     *
  62:Generated_Source\PSoC5/UART.c ****     * Summary:
  63:Generated_Source\PSoC5/UART.c ****     *  Configures the SW Tx UART to use the pin specified
  64:Generated_Source\PSoC5/UART.c ****     *  by the parameters. This API is only available when
  65:Generated_Source\PSoC5/UART.c ****     *  PinAssignmentMethod is set to Dynamic.
  66:Generated_Source\PSoC5/UART.c ****     *
  67:Generated_Source\PSoC5/UART.c ****     * Parameters:
  68:Generated_Source\PSoC5/UART.c ****     *  port:  Port number for dynamic pin assignment
  69:Generated_Source\PSoC5/UART.c ****     *  pin:   Pin number for dynamic pin assignment
  70:Generated_Source\PSoC5/UART.c ****     *
ARM GAS  C:\Users\JOSEAN~1\AppData\Local\Temp\ccwfO0nL.s 			page 3


  71:Generated_Source\PSoC5/UART.c ****     * Return:
  72:Generated_Source\PSoC5/UART.c ****     *  None
  73:Generated_Source\PSoC5/UART.c ****     *
  74:Generated_Source\PSoC5/UART.c ****     *******************************************************************************/
  75:Generated_Source\PSoC5/UART.c ****     void UART_StartEx(uint8 port, uint8 pin) 
  76:Generated_Source\PSoC5/UART.c ****     {
  77:Generated_Source\PSoC5/UART.c ****         uint32 portConfigAddr;
  78:Generated_Source\PSoC5/UART.c **** 
  79:Generated_Source\PSoC5/UART.c ****         #if (CY_PSOC4)
  80:Generated_Source\PSoC5/UART.c ****             uint32 portDataRegAddr;
  81:Generated_Source\PSoC5/UART.c ****         #endif /* (CY_PSOC4) */
  82:Generated_Source\PSoC5/UART.c **** 
  83:Generated_Source\PSoC5/UART.c ****         if ((pin <= UART_MAX_PIN_NUMBER) && (port <= UART_MAX_PORT_NUMBER))
  84:Generated_Source\PSoC5/UART.c ****         {
  85:Generated_Source\PSoC5/UART.c ****             #if (!CY_PSOC4)
  86:Generated_Source\PSoC5/UART.c ****                 portConfigAddr = UART_PORT_CNF_BASE;
  87:Generated_Source\PSoC5/UART.c ****                 portConfigAddr += ((uint32)port * (UART_MAX_PIN_NUMBER + 1u)) + pin;
  88:Generated_Source\PSoC5/UART.c ****                 CyPins_SetPinDriveMode(portConfigAddr, CY_PINS_DM_STRONG);
  89:Generated_Source\PSoC5/UART.c ****                 CyPins_SetPin(portConfigAddr);
  90:Generated_Source\PSoC5/UART.c ****                 UART_pinDrAdress = portConfigAddr;
  91:Generated_Source\PSoC5/UART.c ****             #else
  92:Generated_Source\PSoC5/UART.c ****                 portConfigAddr = UART_PORT_CNF_BASE + (UART_PORT_CNF_SIZE * port) +
  93:Generated_Source\PSoC5/UART.c ****                                                                                 UART_PORT_CNF_MODE_
  94:Generated_Source\PSoC5/UART.c ****                 CY_SYS_PINS_SET_DRIVE_MODE(portConfigAddr, pin, CY_SYS_PINS_DM_STRONG);
  95:Generated_Source\PSoC5/UART.c ****                 portDataRegAddr = UART_PORT_CNF_BASE + (UART_PORT_CNF_SIZE * port) +
  96:Generated_Source\PSoC5/UART.c ****                                                                                 UART_PORT_CNF_DR_OF
  97:Generated_Source\PSoC5/UART.c ****                 CY_SYS_PINS_SET_PIN(portDataRegAddr, pin);
  98:Generated_Source\PSoC5/UART.c ****                 UART_pinDrAdress = portDataRegAddr;
  99:Generated_Source\PSoC5/UART.c ****             #endif /* (!CY_PSOC4) */
 100:Generated_Source\PSoC5/UART.c ****             UART_pinNumber = pin;
 101:Generated_Source\PSoC5/UART.c ****             UART_pinPortNumber = port;
 102:Generated_Source\PSoC5/UART.c ****         }
 103:Generated_Source\PSoC5/UART.c ****     }
 104:Generated_Source\PSoC5/UART.c **** #endif /* (UART_PIN_STATIC_MODE == 1u) */
 105:Generated_Source\PSoC5/UART.c **** 
 106:Generated_Source\PSoC5/UART.c **** 
 107:Generated_Source\PSoC5/UART.c **** /*******************************************************************************
 108:Generated_Source\PSoC5/UART.c **** * Function Name: UART_Stop
 109:Generated_Source\PSoC5/UART.c **** ********************************************************************************
 110:Generated_Source\PSoC5/UART.c **** *
 111:Generated_Source\PSoC5/UART.c **** * Summary:
 112:Generated_Source\PSoC5/UART.c **** *  Empty function. Included for consistency with other components.
 113:Generated_Source\PSoC5/UART.c **** *
 114:Generated_Source\PSoC5/UART.c **** * Parameters:
 115:Generated_Source\PSoC5/UART.c **** *  None
 116:Generated_Source\PSoC5/UART.c **** *
 117:Generated_Source\PSoC5/UART.c **** * Return:
 118:Generated_Source\PSoC5/UART.c **** *  None
 119:Generated_Source\PSoC5/UART.c **** *
 120:Generated_Source\PSoC5/UART.c **** *******************************************************************************/
 121:Generated_Source\PSoC5/UART.c **** void UART_Stop(void) 
 122:Generated_Source\PSoC5/UART.c **** {
  45              		.loc 1 122 0
  46              		.cfi_startproc
  47              		@ args = 0, pretend = 0, frame = 0
  48              		@ frame_needed = 0, uses_anonymous_args = 0
  49              		@ link register save eliminated.
ARM GAS  C:\Users\JOSEAN~1\AppData\Local\Temp\ccwfO0nL.s 			page 4


  50 0000 7047     		bx	lr
  51              		.cfi_endproc
  52              	.LFE1:
  53              		.size	UART_Stop, .-UART_Stop
  54 0002 00BF     		.section	.text.UART_PutString,"ax",%progbits
  55              		.align	2
  56              		.global	UART_PutString
  57              		.thumb
  58              		.thumb_func
  59              		.type	UART_PutString, %function
  60              	UART_PutString:
  61              	.LFB2:
 123:Generated_Source\PSoC5/UART.c **** 
 124:Generated_Source\PSoC5/UART.c **** }
 125:Generated_Source\PSoC5/UART.c **** 
 126:Generated_Source\PSoC5/UART.c **** 
 127:Generated_Source\PSoC5/UART.c **** /*******************************************************************************
 128:Generated_Source\PSoC5/UART.c **** * Function Name: UART_PutString
 129:Generated_Source\PSoC5/UART.c **** ********************************************************************************
 130:Generated_Source\PSoC5/UART.c **** *
 131:Generated_Source\PSoC5/UART.c **** * Summary:
 132:Generated_Source\PSoC5/UART.c **** *  Sends a NULL terminated string via the Tx pin.
 133:Generated_Source\PSoC5/UART.c **** *
 134:Generated_Source\PSoC5/UART.c **** * Parameters:
 135:Generated_Source\PSoC5/UART.c **** *  string: Pointer to the null terminated string to send
 136:Generated_Source\PSoC5/UART.c **** *
 137:Generated_Source\PSoC5/UART.c **** * Return:
 138:Generated_Source\PSoC5/UART.c **** *  None
 139:Generated_Source\PSoC5/UART.c **** *
 140:Generated_Source\PSoC5/UART.c **** *******************************************************************************/
 141:Generated_Source\PSoC5/UART.c **** void UART_PutString(const char8 string[]) 
 142:Generated_Source\PSoC5/UART.c **** {
  62              		.loc 1 142 0
  63              		.cfi_startproc
  64              		@ args = 0, pretend = 0, frame = 0
  65              		@ frame_needed = 0, uses_anonymous_args = 0
  66              	.LVL0:
  67              		.loc 1 142 0
  68 0000 38B5     		push	{r3, r4, r5, lr}
  69              		.cfi_def_cfa_offset 16
  70              		.cfi_offset 3, -16
  71              		.cfi_offset 4, -12
  72              		.cfi_offset 5, -8
  73              		.cfi_offset 14, -4
  74 0002 0546     		mov	r5, r0
  75              	.LVL1:
 143:Generated_Source\PSoC5/UART.c ****     uint8 stringIndex = 1u;
 144:Generated_Source\PSoC5/UART.c ****     char8 current = *string;
  76              		.loc 1 144 0
  77 0004 0078     		ldrb	r0, [r0]	@ zero_extendqisi2
  78              	.LVL2:
 143:Generated_Source\PSoC5/UART.c ****     uint8 stringIndex = 1u;
  79              		.loc 1 143 0
  80 0006 0124     		movs	r4, #1
 145:Generated_Source\PSoC5/UART.c **** 
 146:Generated_Source\PSoC5/UART.c ****     /* Until null is reached, print next character */
 147:Generated_Source\PSoC5/UART.c ****     while((char8) '\0' != current)
ARM GAS  C:\Users\JOSEAN~1\AppData\Local\Temp\ccwfO0nL.s 			page 5


  81              		.loc 1 147 0
  82 0008 04E0     		b	.L4
  83              	.LVL3:
  84              	.L5:
 148:Generated_Source\PSoC5/UART.c ****     {
 149:Generated_Source\PSoC5/UART.c ****         UART_PutChar((uint8)current);
  85              		.loc 1 149 0
  86 000a FFF7FEFF 		bl	UART_PutChar
  87              	.LVL4:
 150:Generated_Source\PSoC5/UART.c ****         current = string[stringIndex];
  88              		.loc 1 150 0
  89 000e 285D     		ldrb	r0, [r5, r4]	@ zero_extendqisi2
  90              	.LVL5:
 151:Generated_Source\PSoC5/UART.c ****         stringIndex++;
  91              		.loc 1 151 0
  92 0010 0134     		adds	r4, r4, #1
  93              	.LVL6:
  94 0012 E4B2     		uxtb	r4, r4
  95              	.LVL7:
  96              	.L4:
 147:Generated_Source\PSoC5/UART.c ****     {
  97              		.loc 1 147 0
  98 0014 0028     		cmp	r0, #0
  99 0016 F8D1     		bne	.L5
 152:Generated_Source\PSoC5/UART.c ****     }
 153:Generated_Source\PSoC5/UART.c **** }
 100              		.loc 1 153 0
 101 0018 38BD     		pop	{r3, r4, r5, pc}
 102              		.cfi_endproc
 103              	.LFE2:
 104              		.size	UART_PutString, .-UART_PutString
 105 001a 00BF     		.section	.text.UART_PutArray,"ax",%progbits
 106              		.align	2
 107              		.global	UART_PutArray
 108              		.thumb
 109              		.thumb_func
 110              		.type	UART_PutArray, %function
 111              	UART_PutArray:
 112              	.LFB3:
 154:Generated_Source\PSoC5/UART.c **** 
 155:Generated_Source\PSoC5/UART.c **** 
 156:Generated_Source\PSoC5/UART.c **** /*******************************************************************************
 157:Generated_Source\PSoC5/UART.c **** * Function Name: UART_PutArray
 158:Generated_Source\PSoC5/UART.c **** ********************************************************************************
 159:Generated_Source\PSoC5/UART.c **** *
 160:Generated_Source\PSoC5/UART.c **** * Summary:
 161:Generated_Source\PSoC5/UART.c **** *  Sends byteCount bytes from a memory array via the Tx pin.
 162:Generated_Source\PSoC5/UART.c **** *
 163:Generated_Source\PSoC5/UART.c **** * Parameters:
 164:Generated_Source\PSoC5/UART.c **** *  data: Pointer to the memory array
 165:Generated_Source\PSoC5/UART.c **** *  byteCount: Number of bytes to be transmitted
 166:Generated_Source\PSoC5/UART.c **** *
 167:Generated_Source\PSoC5/UART.c **** * Return:
 168:Generated_Source\PSoC5/UART.c **** *  None
 169:Generated_Source\PSoC5/UART.c **** *
 170:Generated_Source\PSoC5/UART.c **** *******************************************************************************/
 171:Generated_Source\PSoC5/UART.c **** void UART_PutArray(const uint8 array[], uint32 byteCount) 
ARM GAS  C:\Users\JOSEAN~1\AppData\Local\Temp\ccwfO0nL.s 			page 6


 172:Generated_Source\PSoC5/UART.c **** {
 113              		.loc 1 172 0
 114              		.cfi_startproc
 115              		@ args = 0, pretend = 0, frame = 0
 116              		@ frame_needed = 0, uses_anonymous_args = 0
 117              	.LVL8:
 118 0000 70B5     		push	{r4, r5, r6, lr}
 119              		.cfi_def_cfa_offset 16
 120              		.cfi_offset 4, -16
 121              		.cfi_offset 5, -12
 122              		.cfi_offset 6, -8
 123              		.cfi_offset 14, -4
 124 0002 0646     		mov	r6, r0
 125 0004 0D46     		mov	r5, r1
 126              	.LVL9:
 173:Generated_Source\PSoC5/UART.c ****     uint32 arrayIndex;
 174:Generated_Source\PSoC5/UART.c **** 
 175:Generated_Source\PSoC5/UART.c ****     for (arrayIndex = 0u; arrayIndex < byteCount; arrayIndex++)
 127              		.loc 1 175 0
 128 0006 0024     		movs	r4, #0
 129 0008 03E0     		b	.L8
 130              	.LVL10:
 131              	.L9:
 176:Generated_Source\PSoC5/UART.c ****     {
 177:Generated_Source\PSoC5/UART.c ****         UART_PutChar(array[arrayIndex]);
 132              		.loc 1 177 0 discriminator 3
 133 000a 305D     		ldrb	r0, [r6, r4]	@ zero_extendqisi2
 134 000c FFF7FEFF 		bl	UART_PutChar
 135              	.LVL11:
 175:Generated_Source\PSoC5/UART.c ****     {
 136              		.loc 1 175 0 discriminator 3
 137 0010 0134     		adds	r4, r4, #1
 138              	.LVL12:
 139              	.L8:
 175:Generated_Source\PSoC5/UART.c ****     {
 140              		.loc 1 175 0 is_stmt 0 discriminator 1
 141 0012 AC42     		cmp	r4, r5
 142 0014 F9D3     		bcc	.L9
 178:Generated_Source\PSoC5/UART.c ****     }
 179:Generated_Source\PSoC5/UART.c **** }
 143              		.loc 1 179 0 is_stmt 1
 144 0016 70BD     		pop	{r4, r5, r6, pc}
 145              		.cfi_endproc
 146              	.LFE3:
 147              		.size	UART_PutArray, .-UART_PutArray
 148              		.section	.text.UART_PutHexByte,"ax",%progbits
 149              		.align	2
 150              		.global	UART_PutHexByte
 151              		.thumb
 152              		.thumb_func
 153              		.type	UART_PutHexByte, %function
 154              	UART_PutHexByte:
 155              	.LFB4:
 180:Generated_Source\PSoC5/UART.c **** 
 181:Generated_Source\PSoC5/UART.c **** 
 182:Generated_Source\PSoC5/UART.c **** /*******************************************************************************
 183:Generated_Source\PSoC5/UART.c **** * Function Name: UART_PutHexByte
ARM GAS  C:\Users\JOSEAN~1\AppData\Local\Temp\ccwfO0nL.s 			page 7


 184:Generated_Source\PSoC5/UART.c **** ********************************************************************************
 185:Generated_Source\PSoC5/UART.c **** *
 186:Generated_Source\PSoC5/UART.c **** * Summary:
 187:Generated_Source\PSoC5/UART.c **** *  Sends a byte in Hex representation (two characters, uppercase for A-F) via
 188:Generated_Source\PSoC5/UART.c **** *  the Tx pin.
 189:Generated_Source\PSoC5/UART.c **** *
 190:Generated_Source\PSoC5/UART.c **** * Parameters:
 191:Generated_Source\PSoC5/UART.c **** *  TxHexByte: The byte to be converted to ASCII characters and
 192:Generated_Source\PSoC5/UART.c **** *             sent via the Tx pin.
 193:Generated_Source\PSoC5/UART.c **** *
 194:Generated_Source\PSoC5/UART.c **** * Return:
 195:Generated_Source\PSoC5/UART.c **** *  None
 196:Generated_Source\PSoC5/UART.c **** *
 197:Generated_Source\PSoC5/UART.c **** *******************************************************************************/
 198:Generated_Source\PSoC5/UART.c **** void UART_PutHexByte(uint8 txHexByte) 
 199:Generated_Source\PSoC5/UART.c **** {
 156              		.loc 1 199 0
 157              		.cfi_startproc
 158              		@ args = 0, pretend = 0, frame = 0
 159              		@ frame_needed = 0, uses_anonymous_args = 0
 160              	.LVL13:
 161 0000 38B5     		push	{r3, r4, r5, lr}
 162              		.cfi_def_cfa_offset 16
 163              		.cfi_offset 3, -16
 164              		.cfi_offset 4, -12
 165              		.cfi_offset 5, -8
 166              		.cfi_offset 14, -4
 167 0002 0446     		mov	r4, r0
 200:Generated_Source\PSoC5/UART.c ****     static char8 const CYCODE UART_hex[] = "0123456789ABCDEF";
 201:Generated_Source\PSoC5/UART.c **** 
 202:Generated_Source\PSoC5/UART.c ****     UART_PutChar((uint8) UART_hex[txHexByte >> UART_BYTE_UPPER_NIBBLE_SHIFT]);
 168              		.loc 1 202 0
 169 0004 0309     		lsrs	r3, r0, #4
 170 0006 054D     		ldr	r5, .L13
 171 0008 E85C     		ldrb	r0, [r5, r3]	@ zero_extendqisi2
 172              	.LVL14:
 173 000a FFF7FEFF 		bl	UART_PutChar
 174              	.LVL15:
 203:Generated_Source\PSoC5/UART.c ****     UART_PutChar((uint8) UART_hex[txHexByte & UART_BYTE_LOWER_NIBBLE_MASK]);
 175              		.loc 1 203 0
 176 000e 04F00F04 		and	r4, r4, #15
 177 0012 285D     		ldrb	r0, [r5, r4]	@ zero_extendqisi2
 178 0014 FFF7FEFF 		bl	UART_PutChar
 179              	.LVL16:
 180 0018 38BD     		pop	{r3, r4, r5, pc}
 181              	.L14:
 182 001a 00BF     		.align	2
 183              	.L13:
 184 001c 00000000 		.word	.LANCHOR0
 185              		.cfi_endproc
 186              	.LFE4:
 187              		.size	UART_PutHexByte, .-UART_PutHexByte
 188              		.section	.text.UART_PutHexInt,"ax",%progbits
 189              		.align	2
 190              		.global	UART_PutHexInt
 191              		.thumb
 192              		.thumb_func
ARM GAS  C:\Users\JOSEAN~1\AppData\Local\Temp\ccwfO0nL.s 			page 8


 193              		.type	UART_PutHexInt, %function
 194              	UART_PutHexInt:
 195              	.LFB5:
 204:Generated_Source\PSoC5/UART.c **** }
 205:Generated_Source\PSoC5/UART.c **** 
 206:Generated_Source\PSoC5/UART.c **** 
 207:Generated_Source\PSoC5/UART.c **** /*******************************************************************************
 208:Generated_Source\PSoC5/UART.c **** * Function Name: UART_PutHexInt
 209:Generated_Source\PSoC5/UART.c **** ********************************************************************************
 210:Generated_Source\PSoC5/UART.c **** *
 211:Generated_Source\PSoC5/UART.c **** * Summary:
 212:Generated_Source\PSoC5/UART.c **** *  Sends a 16-bit unsigned integer in Hex representation (four characters,
 213:Generated_Source\PSoC5/UART.c **** *  uppercase for A-F) via the Tx pin.
 214:Generated_Source\PSoC5/UART.c **** *
 215:Generated_Source\PSoC5/UART.c **** * Parameters:
 216:Generated_Source\PSoC5/UART.c **** *  TxHexInt: The uint16 to be converted to ASCII characters and sent via
 217:Generated_Source\PSoC5/UART.c **** *            the Tx pin.
 218:Generated_Source\PSoC5/UART.c **** *
 219:Generated_Source\PSoC5/UART.c **** * Return:
 220:Generated_Source\PSoC5/UART.c **** *  None
 221:Generated_Source\PSoC5/UART.c **** *
 222:Generated_Source\PSoC5/UART.c **** *******************************************************************************/
 223:Generated_Source\PSoC5/UART.c **** void UART_PutHexInt(uint16 txHexInt) 
 224:Generated_Source\PSoC5/UART.c **** {
 196              		.loc 1 224 0
 197              		.cfi_startproc
 198              		@ args = 0, pretend = 0, frame = 0
 199              		@ frame_needed = 0, uses_anonymous_args = 0
 200              	.LVL17:
 201 0000 10B5     		push	{r4, lr}
 202              		.cfi_def_cfa_offset 8
 203              		.cfi_offset 4, -8
 204              		.cfi_offset 14, -4
 205 0002 0446     		mov	r4, r0
 225:Generated_Source\PSoC5/UART.c ****     UART_PutHexByte((uint8)(txHexInt >> UART_U16_UPPER_BYTE_SHIFT));
 206              		.loc 1 225 0
 207 0004 000A     		lsrs	r0, r0, #8
 208              	.LVL18:
 209 0006 FFF7FEFF 		bl	UART_PutHexByte
 210              	.LVL19:
 226:Generated_Source\PSoC5/UART.c ****     UART_PutHexByte((uint8)(txHexInt & UART_U16_LOWER_BYTE_MASK));
 211              		.loc 1 226 0
 212 000a E0B2     		uxtb	r0, r4
 213 000c FFF7FEFF 		bl	UART_PutHexByte
 214              	.LVL20:
 215 0010 10BD     		pop	{r4, pc}
 216              		.cfi_endproc
 217              	.LFE5:
 218              		.size	UART_PutHexInt, .-UART_PutHexInt
 219 0012 00BF     		.section	.text.UART_PutCRLF,"ax",%progbits
 220              		.align	2
 221              		.global	UART_PutCRLF
 222              		.thumb
 223              		.thumb_func
 224              		.type	UART_PutCRLF, %function
 225              	UART_PutCRLF:
 226              	.LFB6:
ARM GAS  C:\Users\JOSEAN~1\AppData\Local\Temp\ccwfO0nL.s 			page 9


 227:Generated_Source\PSoC5/UART.c **** }
 228:Generated_Source\PSoC5/UART.c **** 
 229:Generated_Source\PSoC5/UART.c **** 
 230:Generated_Source\PSoC5/UART.c **** /*******************************************************************************
 231:Generated_Source\PSoC5/UART.c **** * Function Name: UART_PutCRLF
 232:Generated_Source\PSoC5/UART.c **** ********************************************************************************
 233:Generated_Source\PSoC5/UART.c **** *
 234:Generated_Source\PSoC5/UART.c **** * Summary:
 235:Generated_Source\PSoC5/UART.c **** *  Sends a carriage return (0x0D) and a line feed (0x0A) via the Tx pin.
 236:Generated_Source\PSoC5/UART.c **** *
 237:Generated_Source\PSoC5/UART.c **** * Parameters:
 238:Generated_Source\PSoC5/UART.c **** *  None
 239:Generated_Source\PSoC5/UART.c **** *
 240:Generated_Source\PSoC5/UART.c **** * Return:
 241:Generated_Source\PSoC5/UART.c **** *  None
 242:Generated_Source\PSoC5/UART.c **** *
 243:Generated_Source\PSoC5/UART.c **** *******************************************************************************/
 244:Generated_Source\PSoC5/UART.c **** void UART_PutCRLF(void) 
 245:Generated_Source\PSoC5/UART.c **** {
 227              		.loc 1 245 0
 228              		.cfi_startproc
 229              		@ args = 0, pretend = 0, frame = 0
 230              		@ frame_needed = 0, uses_anonymous_args = 0
 231 0000 08B5     		push	{r3, lr}
 232              		.cfi_def_cfa_offset 8
 233              		.cfi_offset 3, -8
 234              		.cfi_offset 14, -4
 246:Generated_Source\PSoC5/UART.c ****     UART_PutChar(0x0Du);
 235              		.loc 1 246 0
 236 0002 0D20     		movs	r0, #13
 237 0004 FFF7FEFF 		bl	UART_PutChar
 238              	.LVL21:
 247:Generated_Source\PSoC5/UART.c ****     UART_PutChar(0x0Au);
 239              		.loc 1 247 0
 240 0008 0A20     		movs	r0, #10
 241 000a FFF7FEFF 		bl	UART_PutChar
 242              	.LVL22:
 243 000e 08BD     		pop	{r3, pc}
 244              		.cfi_endproc
 245              	.LFE6:
 246              		.size	UART_PutCRLF, .-UART_PutCRLF
 247              		.global	UART_pinDrAdress
 248              		.global	UART_pinPortNumber
 249              		.global	UART_pinNumber
 250              		.section	.rodata
 251              		.align	2
 252              		.set	.LANCHOR0,. + 0
 253              		.type	UART_hex.4274, %object
 254              		.size	UART_hex.4274, 17
 255              	UART_hex.4274:
 256 0000 30313233 		.ascii	"0123456789ABCDEF\000"
 256      34353637 
 256      38394142 
 256      43444546 
 256      00
 257              		.data
 258              		.align	2
ARM GAS  C:\Users\JOSEAN~1\AppData\Local\Temp\ccwfO0nL.s 			page 10


 259              		.type	UART_pinDrAdress, %object
 260              		.size	UART_pinDrAdress, 4
 261              	UART_pinDrAdress:
 262 0000 67500040 		.word	1073762407
 263              		.type	UART_pinPortNumber, %object
 264              		.size	UART_pinPortNumber, 4
 265              	UART_pinPortNumber:
 266 0004 0C000000 		.word	12
 267              		.type	UART_pinNumber, %object
 268              		.size	UART_pinNumber, 4
 269              	UART_pinNumber:
 270 0008 07000000 		.word	7
 271              		.text
 272              	.Letext0:
 273              		.file 2 "Generated_Source\\PSoC5\\cytypes.h"
 274              		.file 3 "Generated_Source\\PSoC5\\UART.h"
