ARM GAS  C:\Users\JOSEAN~1\AppData\Local\Temp\ccI3w3Hv.s 			page 1


   1              		.syntax unified
   2              		.cpu cortex-m3
   3              		.fpu softvfp
   4              		.eabi_attribute 20, 1
   5              		.eabi_attribute 21, 1
   6              		.eabi_attribute 23, 3
   7              		.eabi_attribute 24, 1
   8              		.eabi_attribute 25, 1
   9              		.eabi_attribute 26, 1
  10              		.eabi_attribute 30, 6
  11              		.eabi_attribute 34, 1
  12              		.eabi_attribute 18, 4
  13              		.thumb
  14              		.syntax unified
  15              		.file	"cyfitter_cfg.c"
  16              		.text
  17              	.Ltext0:
  18              		.cfi_sections	.debug_frame
  19              		.section	.text.CYMEMZERO,"ax",%progbits
  20              		.align	2
  21              		.thumb
  22              		.thumb_func
  23              		.type	CYMEMZERO, %function
  24              	CYMEMZERO:
  25              	.LFB0:
  26              		.file 1 "Generated_Source\\PSoC5\\cyfitter_cfg.c"
   1:Generated_Source\PSoC5/cyfitter_cfg.c **** 
   2:Generated_Source\PSoC5/cyfitter_cfg.c **** /*******************************************************************************
   3:Generated_Source\PSoC5/cyfitter_cfg.c **** * File Name: cyfitter_cfg.c
   4:Generated_Source\PSoC5/cyfitter_cfg.c **** * 
   5:Generated_Source\PSoC5/cyfitter_cfg.c **** * PSoC Creator  4.2
   6:Generated_Source\PSoC5/cyfitter_cfg.c **** *
   7:Generated_Source\PSoC5/cyfitter_cfg.c **** * Description:
   8:Generated_Source\PSoC5/cyfitter_cfg.c **** * This file contains device initialization code.
   9:Generated_Source\PSoC5/cyfitter_cfg.c **** * Except for the user defined sections in CyClockStartupError(), this file should not be modified.
  10:Generated_Source\PSoC5/cyfitter_cfg.c **** * This file is automatically generated by PSoC Creator.
  11:Generated_Source\PSoC5/cyfitter_cfg.c **** *
  12:Generated_Source\PSoC5/cyfitter_cfg.c **** ********************************************************************************
  13:Generated_Source\PSoC5/cyfitter_cfg.c **** * Copyright (c) 2007-2018 Cypress Semiconductor.  All rights reserved.
  14:Generated_Source\PSoC5/cyfitter_cfg.c **** * You may use this file only in accordance with the license, terms, conditions, 
  15:Generated_Source\PSoC5/cyfitter_cfg.c **** * disclaimers, and limitations in the end user license agreement accompanying 
  16:Generated_Source\PSoC5/cyfitter_cfg.c **** * the software package with which this file was provided.
  17:Generated_Source\PSoC5/cyfitter_cfg.c **** ********************************************************************************/
  18:Generated_Source\PSoC5/cyfitter_cfg.c **** 
  19:Generated_Source\PSoC5/cyfitter_cfg.c **** #include <string.h>
  20:Generated_Source\PSoC5/cyfitter_cfg.c **** #include "cytypes.h"
  21:Generated_Source\PSoC5/cyfitter_cfg.c **** #include "cydevice_trm.h"
  22:Generated_Source\PSoC5/cyfitter_cfg.c **** #include "cyfitter.h"
  23:Generated_Source\PSoC5/cyfitter_cfg.c **** #include "CyLib.h"
  24:Generated_Source\PSoC5/cyfitter_cfg.c **** #include "cyfitter_cfg.h"
  25:Generated_Source\PSoC5/cyfitter_cfg.c **** 
  26:Generated_Source\PSoC5/cyfitter_cfg.c **** #define CY_NEED_CYCLOCKSTARTUPERROR 1
  27:Generated_Source\PSoC5/cyfitter_cfg.c **** 
  28:Generated_Source\PSoC5/cyfitter_cfg.c **** 
  29:Generated_Source\PSoC5/cyfitter_cfg.c **** #if defined(__GNUC__) || defined(__ARMCC_VERSION)
  30:Generated_Source\PSoC5/cyfitter_cfg.c ****     #define CYPACKED 
  31:Generated_Source\PSoC5/cyfitter_cfg.c ****     #define CYPACKED_ATTR __attribute__ ((packed))
ARM GAS  C:\Users\JOSEAN~1\AppData\Local\Temp\ccI3w3Hv.s 			page 2


  32:Generated_Source\PSoC5/cyfitter_cfg.c ****     #define CYALIGNED __attribute__ ((aligned))
  33:Generated_Source\PSoC5/cyfitter_cfg.c ****     #define CY_CFG_UNUSED __attribute__ ((unused))
  34:Generated_Source\PSoC5/cyfitter_cfg.c ****     #ifndef CY_CFG_SECTION
  35:Generated_Source\PSoC5/cyfitter_cfg.c ****         #define CY_CFG_SECTION __attribute__ ((section(".psocinit")))
  36:Generated_Source\PSoC5/cyfitter_cfg.c ****     #endif
  37:Generated_Source\PSoC5/cyfitter_cfg.c ****     
  38:Generated_Source\PSoC5/cyfitter_cfg.c ****     #if defined(__ARMCC_VERSION)
  39:Generated_Source\PSoC5/cyfitter_cfg.c ****         #define CY_CFG_MEMORY_BARRIER() __memory_changed()
  40:Generated_Source\PSoC5/cyfitter_cfg.c ****     #else
  41:Generated_Source\PSoC5/cyfitter_cfg.c ****         #define CY_CFG_MEMORY_BARRIER() __sync_synchronize()
  42:Generated_Source\PSoC5/cyfitter_cfg.c ****     #endif
  43:Generated_Source\PSoC5/cyfitter_cfg.c ****     
  44:Generated_Source\PSoC5/cyfitter_cfg.c **** #elif defined(__ICCARM__)
  45:Generated_Source\PSoC5/cyfitter_cfg.c ****     #include <intrinsics.h>
  46:Generated_Source\PSoC5/cyfitter_cfg.c **** 
  47:Generated_Source\PSoC5/cyfitter_cfg.c ****     #define CYPACKED __packed
  48:Generated_Source\PSoC5/cyfitter_cfg.c ****     #define CYPACKED_ATTR 
  49:Generated_Source\PSoC5/cyfitter_cfg.c ****     #define CYALIGNED _Pragma("data_alignment=4")
  50:Generated_Source\PSoC5/cyfitter_cfg.c ****     #define CY_CFG_UNUSED _Pragma("diag_suppress=Pe177")
  51:Generated_Source\PSoC5/cyfitter_cfg.c ****     #define CY_CFG_SECTION _Pragma("location=\".psocinit\"")
  52:Generated_Source\PSoC5/cyfitter_cfg.c ****     
  53:Generated_Source\PSoC5/cyfitter_cfg.c ****     #define CY_CFG_MEMORY_BARRIER() __DMB()
  54:Generated_Source\PSoC5/cyfitter_cfg.c ****     
  55:Generated_Source\PSoC5/cyfitter_cfg.c **** #else
  56:Generated_Source\PSoC5/cyfitter_cfg.c ****     #error Unsupported toolchain
  57:Generated_Source\PSoC5/cyfitter_cfg.c **** #endif
  58:Generated_Source\PSoC5/cyfitter_cfg.c **** 
  59:Generated_Source\PSoC5/cyfitter_cfg.c **** #ifndef CYCODE
  60:Generated_Source\PSoC5/cyfitter_cfg.c ****     #define CYCODE
  61:Generated_Source\PSoC5/cyfitter_cfg.c **** #endif
  62:Generated_Source\PSoC5/cyfitter_cfg.c **** #ifndef CYDATA
  63:Generated_Source\PSoC5/cyfitter_cfg.c ****     #define CYDATA
  64:Generated_Source\PSoC5/cyfitter_cfg.c **** #endif
  65:Generated_Source\PSoC5/cyfitter_cfg.c **** #ifndef CYFAR
  66:Generated_Source\PSoC5/cyfitter_cfg.c ****     #define CYFAR
  67:Generated_Source\PSoC5/cyfitter_cfg.c **** #endif
  68:Generated_Source\PSoC5/cyfitter_cfg.c **** #ifndef CYXDATA
  69:Generated_Source\PSoC5/cyfitter_cfg.c ****     #define CYXDATA
  70:Generated_Source\PSoC5/cyfitter_cfg.c **** #endif
  71:Generated_Source\PSoC5/cyfitter_cfg.c **** 
  72:Generated_Source\PSoC5/cyfitter_cfg.c **** 
  73:Generated_Source\PSoC5/cyfitter_cfg.c **** CY_CFG_UNUSED
  74:Generated_Source\PSoC5/cyfitter_cfg.c **** static void CYMEMZERO(void *s, size_t n);
  75:Generated_Source\PSoC5/cyfitter_cfg.c **** CY_CFG_UNUSED
  76:Generated_Source\PSoC5/cyfitter_cfg.c **** static void CYMEMZERO(void *s, size_t n)
  77:Generated_Source\PSoC5/cyfitter_cfg.c **** {
  27              		.loc 1 77 0
  28              		.cfi_startproc
  29              		@ args = 0, pretend = 0, frame = 8
  30              		@ frame_needed = 1, uses_anonymous_args = 0
  31 0000 80B5     		push	{r7, lr}
  32              		.cfi_def_cfa_offset 8
  33              		.cfi_offset 7, -8
  34              		.cfi_offset 14, -4
  35 0002 82B0     		sub	sp, sp, #8
  36              		.cfi_def_cfa_offset 16
  37 0004 00AF     		add	r7, sp, #0
ARM GAS  C:\Users\JOSEAN~1\AppData\Local\Temp\ccI3w3Hv.s 			page 3


  38              		.cfi_def_cfa_register 7
  39 0006 7860     		str	r0, [r7, #4]
  40 0008 3960     		str	r1, [r7]
  78:Generated_Source\PSoC5/cyfitter_cfg.c **** 	(void)memset(s, 0, n);
  41              		.loc 1 78 0
  42 000a 3A68     		ldr	r2, [r7]
  43 000c 0021     		movs	r1, #0
  44 000e 7868     		ldr	r0, [r7, #4]
  45 0010 FFF7FEFF 		bl	memset
  79:Generated_Source\PSoC5/cyfitter_cfg.c **** }
  46              		.loc 1 79 0
  47 0014 00BF     		nop
  48 0016 0837     		adds	r7, r7, #8
  49              		.cfi_def_cfa_offset 8
  50 0018 BD46     		mov	sp, r7
  51              		.cfi_def_cfa_register 13
  52              		@ sp needed
  53 001a 80BD     		pop	{r7, pc}
  54              		.cfi_endproc
  55              	.LFE0:
  56              		.size	CYMEMZERO, .-CYMEMZERO
  57              		.section	.text.CYCONFIGCPY,"ax",%progbits
  58              		.align	2
  59              		.thumb
  60              		.thumb_func
  61              		.type	CYCONFIGCPY, %function
  62              	CYCONFIGCPY:
  63              	.LFB1:
  80:Generated_Source\PSoC5/cyfitter_cfg.c **** CY_CFG_UNUSED
  81:Generated_Source\PSoC5/cyfitter_cfg.c **** static void CYCONFIGCPY(void *dest, const void *src, size_t n);
  82:Generated_Source\PSoC5/cyfitter_cfg.c **** CY_CFG_UNUSED
  83:Generated_Source\PSoC5/cyfitter_cfg.c **** static void CYCONFIGCPY(void *dest, const void *src, size_t n)
  84:Generated_Source\PSoC5/cyfitter_cfg.c **** {
  64              		.loc 1 84 0
  65              		.cfi_startproc
  66              		@ args = 0, pretend = 0, frame = 16
  67              		@ frame_needed = 1, uses_anonymous_args = 0
  68 0000 80B5     		push	{r7, lr}
  69              		.cfi_def_cfa_offset 8
  70              		.cfi_offset 7, -8
  71              		.cfi_offset 14, -4
  72 0002 84B0     		sub	sp, sp, #16
  73              		.cfi_def_cfa_offset 24
  74 0004 00AF     		add	r7, sp, #0
  75              		.cfi_def_cfa_register 7
  76 0006 F860     		str	r0, [r7, #12]
  77 0008 B960     		str	r1, [r7, #8]
  78 000a 7A60     		str	r2, [r7, #4]
  85:Generated_Source\PSoC5/cyfitter_cfg.c **** 	(void)memcpy(dest, src, n);
  79              		.loc 1 85 0
  80 000c 7A68     		ldr	r2, [r7, #4]
  81 000e B968     		ldr	r1, [r7, #8]
  82 0010 F868     		ldr	r0, [r7, #12]
  83 0012 FFF7FEFF 		bl	memcpy
  86:Generated_Source\PSoC5/cyfitter_cfg.c **** }
  84              		.loc 1 86 0
  85 0016 00BF     		nop
ARM GAS  C:\Users\JOSEAN~1\AppData\Local\Temp\ccI3w3Hv.s 			page 4


  86 0018 1037     		adds	r7, r7, #16
  87              		.cfi_def_cfa_offset 8
  88 001a BD46     		mov	sp, r7
  89              		.cfi_def_cfa_register 13
  90              		@ sp needed
  91 001c 80BD     		pop	{r7, pc}
  92              		.cfi_endproc
  93              	.LFE1:
  94              		.size	CYCONFIGCPY, .-CYCONFIGCPY
  95 001e 00BF     		.section	.text.CYCONFIGCPYCODE,"ax",%progbits
  96              		.align	2
  97              		.thumb
  98              		.thumb_func
  99              		.type	CYCONFIGCPYCODE, %function
 100              	CYCONFIGCPYCODE:
 101              	.LFB2:
  87:Generated_Source\PSoC5/cyfitter_cfg.c **** CY_CFG_UNUSED
  88:Generated_Source\PSoC5/cyfitter_cfg.c **** static void CYCONFIGCPYCODE(void *dest, const void *src, size_t n);
  89:Generated_Source\PSoC5/cyfitter_cfg.c **** CY_CFG_UNUSED
  90:Generated_Source\PSoC5/cyfitter_cfg.c **** static void CYCONFIGCPYCODE(void *dest, const void *src, size_t n)
  91:Generated_Source\PSoC5/cyfitter_cfg.c **** {
 102              		.loc 1 91 0
 103              		.cfi_startproc
 104              		@ args = 0, pretend = 0, frame = 16
 105              		@ frame_needed = 1, uses_anonymous_args = 0
 106 0000 80B5     		push	{r7, lr}
 107              		.cfi_def_cfa_offset 8
 108              		.cfi_offset 7, -8
 109              		.cfi_offset 14, -4
 110 0002 84B0     		sub	sp, sp, #16
 111              		.cfi_def_cfa_offset 24
 112 0004 00AF     		add	r7, sp, #0
 113              		.cfi_def_cfa_register 7
 114 0006 F860     		str	r0, [r7, #12]
 115 0008 B960     		str	r1, [r7, #8]
 116 000a 7A60     		str	r2, [r7, #4]
  92:Generated_Source\PSoC5/cyfitter_cfg.c **** 	(void)memcpy(dest, src, n);
 117              		.loc 1 92 0
 118 000c 7A68     		ldr	r2, [r7, #4]
 119 000e B968     		ldr	r1, [r7, #8]
 120 0010 F868     		ldr	r0, [r7, #12]
 121 0012 FFF7FEFF 		bl	memcpy
  93:Generated_Source\PSoC5/cyfitter_cfg.c **** }
 122              		.loc 1 93 0
 123 0016 00BF     		nop
 124 0018 1037     		adds	r7, r7, #16
 125              		.cfi_def_cfa_offset 8
 126 001a BD46     		mov	sp, r7
 127              		.cfi_def_cfa_register 13
 128              		@ sp needed
 129 001c 80BD     		pop	{r7, pc}
 130              		.cfi_endproc
 131              	.LFE2:
 132              		.size	CYCONFIGCPYCODE, .-CYCONFIGCPYCODE
 133 001e 00BF     		.section	.text.CyClockStartupError,"ax",%progbits
 134              		.align	2
 135              		.thumb
ARM GAS  C:\Users\JOSEAN~1\AppData\Local\Temp\ccI3w3Hv.s 			page 5


 136              		.thumb_func
 137              		.type	CyClockStartupError, %function
 138              	CyClockStartupError:
 139              	.LFB3:
  94:Generated_Source\PSoC5/cyfitter_cfg.c **** 
  95:Generated_Source\PSoC5/cyfitter_cfg.c **** 
  96:Generated_Source\PSoC5/cyfitter_cfg.c **** 
  97:Generated_Source\PSoC5/cyfitter_cfg.c **** 
  98:Generated_Source\PSoC5/cyfitter_cfg.c **** /* Clock startup error codes                                                   */
  99:Generated_Source\PSoC5/cyfitter_cfg.c **** #define CYCLOCKSTART_NO_ERROR    0u
 100:Generated_Source\PSoC5/cyfitter_cfg.c **** #define CYCLOCKSTART_XTAL_ERROR  1u
 101:Generated_Source\PSoC5/cyfitter_cfg.c **** #define CYCLOCKSTART_32KHZ_ERROR 2u
 102:Generated_Source\PSoC5/cyfitter_cfg.c **** #define CYCLOCKSTART_PLL_ERROR   3u
 103:Generated_Source\PSoC5/cyfitter_cfg.c **** #define CYCLOCKSTART_FLL_ERROR   4u
 104:Generated_Source\PSoC5/cyfitter_cfg.c **** #define CYCLOCKSTART_WCO_ERROR   5u
 105:Generated_Source\PSoC5/cyfitter_cfg.c **** 
 106:Generated_Source\PSoC5/cyfitter_cfg.c **** 
 107:Generated_Source\PSoC5/cyfitter_cfg.c **** #ifdef CY_NEED_CYCLOCKSTARTUPERROR
 108:Generated_Source\PSoC5/cyfitter_cfg.c **** /*******************************************************************************
 109:Generated_Source\PSoC5/cyfitter_cfg.c **** * Function Name: CyClockStartupError
 110:Generated_Source\PSoC5/cyfitter_cfg.c **** ********************************************************************************
 111:Generated_Source\PSoC5/cyfitter_cfg.c **** * Summary:
 112:Generated_Source\PSoC5/cyfitter_cfg.c **** *  If an error is encountered during clock configuration (crystal startup error,
 113:Generated_Source\PSoC5/cyfitter_cfg.c **** *  PLL lock error, etc.), the system will end up here.  Unless reimplemented by
 114:Generated_Source\PSoC5/cyfitter_cfg.c **** *  the customer, this function will stop in an infinite loop.
 115:Generated_Source\PSoC5/cyfitter_cfg.c **** *
 116:Generated_Source\PSoC5/cyfitter_cfg.c **** * Parameters:
 117:Generated_Source\PSoC5/cyfitter_cfg.c **** *   void
 118:Generated_Source\PSoC5/cyfitter_cfg.c **** *
 119:Generated_Source\PSoC5/cyfitter_cfg.c **** * Return:
 120:Generated_Source\PSoC5/cyfitter_cfg.c **** *   void
 121:Generated_Source\PSoC5/cyfitter_cfg.c **** *
 122:Generated_Source\PSoC5/cyfitter_cfg.c **** *******************************************************************************/
 123:Generated_Source\PSoC5/cyfitter_cfg.c **** CY_CFG_UNUSED
 124:Generated_Source\PSoC5/cyfitter_cfg.c **** static void CyClockStartupError(uint8 errorCode);
 125:Generated_Source\PSoC5/cyfitter_cfg.c **** CY_CFG_UNUSED
 126:Generated_Source\PSoC5/cyfitter_cfg.c **** static void CyClockStartupError(uint8 errorCode)
 127:Generated_Source\PSoC5/cyfitter_cfg.c **** {
 140              		.loc 1 127 0
 141              		.cfi_startproc
 142              		@ args = 0, pretend = 0, frame = 8
 143              		@ frame_needed = 1, uses_anonymous_args = 0
 144              		@ link register save eliminated.
 145 0000 80B4     		push	{r7}
 146              		.cfi_def_cfa_offset 4
 147              		.cfi_offset 7, -4
 148 0002 83B0     		sub	sp, sp, #12
 149              		.cfi_def_cfa_offset 16
 150 0004 00AF     		add	r7, sp, #0
 151              		.cfi_def_cfa_register 7
 152 0006 0346     		mov	r3, r0
 153 0008 FB71     		strb	r3, [r7, #7]
 154              	.L5:
 128:Generated_Source\PSoC5/cyfitter_cfg.c ****     /* To remove the compiler warning if errorCode not used.                */
 129:Generated_Source\PSoC5/cyfitter_cfg.c ****     errorCode = errorCode;
 130:Generated_Source\PSoC5/cyfitter_cfg.c **** 
 131:Generated_Source\PSoC5/cyfitter_cfg.c ****     /* If we have a clock startup error (bad MHz crystal, PLL lock, etc.),  */
ARM GAS  C:\Users\JOSEAN~1\AppData\Local\Temp\ccI3w3Hv.s 			page 6


 132:Generated_Source\PSoC5/cyfitter_cfg.c ****     /* we will end up here to allow the customer to implement something to  */
 133:Generated_Source\PSoC5/cyfitter_cfg.c ****     /* deal with the clock condition.                                       */
 134:Generated_Source\PSoC5/cyfitter_cfg.c **** 
 135:Generated_Source\PSoC5/cyfitter_cfg.c **** #ifdef CY_CFG_CLOCK_STARTUP_ERROR_CALLBACK
 136:Generated_Source\PSoC5/cyfitter_cfg.c ****     CY_CFG_Clock_Startup_ErrorCallback();
 137:Generated_Source\PSoC5/cyfitter_cfg.c **** #else
 138:Generated_Source\PSoC5/cyfitter_cfg.c ****     /*  If not using CY_CFG_CLOCK_STARTUP_ERROR_CALLBACK, place your clock startup code here. */
 139:Generated_Source\PSoC5/cyfitter_cfg.c ****     /* `#START CyClockStartupError` */
 140:Generated_Source\PSoC5/cyfitter_cfg.c **** 
 141:Generated_Source\PSoC5/cyfitter_cfg.c ****     /* If we have a clock startup error (bad MHz crystal, PLL lock, etc.),  */
 142:Generated_Source\PSoC5/cyfitter_cfg.c ****     /* we will end up here to allow the customer to implement something to  */
 143:Generated_Source\PSoC5/cyfitter_cfg.c ****     /* deal with the clock condition.                                       */
 144:Generated_Source\PSoC5/cyfitter_cfg.c **** 
 145:Generated_Source\PSoC5/cyfitter_cfg.c ****     /* `#END` */
 146:Generated_Source\PSoC5/cyfitter_cfg.c **** 
 147:Generated_Source\PSoC5/cyfitter_cfg.c ****     while(1) {}
 155              		.loc 1 147 0 discriminator 1
 156 000a FEE7     		b	.L5
 157              		.cfi_endproc
 158              	.LFE3:
 159              		.size	CyClockStartupError, .-CyClockStartupError
 160              		.section	.text.ClockSetup,"ax",%progbits
 161              		.align	2
 162              		.thumb
 163              		.thumb_func
 164              		.type	ClockSetup, %function
 165              	ClockSetup:
 166              	.LFB4:
 148:Generated_Source\PSoC5/cyfitter_cfg.c **** #endif /* CY_CFG_CLOCK_STARTUP_ERROR_CALLBACK */
 149:Generated_Source\PSoC5/cyfitter_cfg.c **** }
 150:Generated_Source\PSoC5/cyfitter_cfg.c **** #endif
 151:Generated_Source\PSoC5/cyfitter_cfg.c **** 
 152:Generated_Source\PSoC5/cyfitter_cfg.c **** /* IOPINS0_1 Address: CYREG_PRT1_DM0 Size (bytes): 8 */
 153:Generated_Source\PSoC5/cyfitter_cfg.c **** #define BS_IOPINS0_1_VAL ((const uint8 CYFAR *)0x48000000u)
 154:Generated_Source\PSoC5/cyfitter_cfg.c **** 
 155:Generated_Source\PSoC5/cyfitter_cfg.c **** /* IOPINS0_2 Address: CYREG_PRT2_DM0 Size (bytes): 8 */
 156:Generated_Source\PSoC5/cyfitter_cfg.c **** #define BS_IOPINS0_2_VAL ((const uint8 CYFAR *)0x48000008u)
 157:Generated_Source\PSoC5/cyfitter_cfg.c **** 
 158:Generated_Source\PSoC5/cyfitter_cfg.c **** 
 159:Generated_Source\PSoC5/cyfitter_cfg.c **** /*******************************************************************************
 160:Generated_Source\PSoC5/cyfitter_cfg.c **** * Function Name: ClockSetup
 161:Generated_Source\PSoC5/cyfitter_cfg.c **** ********************************************************************************
 162:Generated_Source\PSoC5/cyfitter_cfg.c **** *
 163:Generated_Source\PSoC5/cyfitter_cfg.c **** * Summary:
 164:Generated_Source\PSoC5/cyfitter_cfg.c **** *  Performs the initialization of all of the clocks in the device based on the
 165:Generated_Source\PSoC5/cyfitter_cfg.c **** *  settings in the Clock tab of the DWR.  This includes enabling the requested
 166:Generated_Source\PSoC5/cyfitter_cfg.c **** *  clocks and setting the necessary dividers to produce the desired frequency. 
 167:Generated_Source\PSoC5/cyfitter_cfg.c **** *
 168:Generated_Source\PSoC5/cyfitter_cfg.c **** * Parameters:
 169:Generated_Source\PSoC5/cyfitter_cfg.c **** *  void
 170:Generated_Source\PSoC5/cyfitter_cfg.c **** *
 171:Generated_Source\PSoC5/cyfitter_cfg.c **** * Return:
 172:Generated_Source\PSoC5/cyfitter_cfg.c **** *  void
 173:Generated_Source\PSoC5/cyfitter_cfg.c **** *
 174:Generated_Source\PSoC5/cyfitter_cfg.c **** *******************************************************************************/
 175:Generated_Source\PSoC5/cyfitter_cfg.c **** static void ClockSetup(void);
 176:Generated_Source\PSoC5/cyfitter_cfg.c **** static void ClockSetup(void)
ARM GAS  C:\Users\JOSEAN~1\AppData\Local\Temp\ccI3w3Hv.s 			page 7


 177:Generated_Source\PSoC5/cyfitter_cfg.c **** {
 167              		.loc 1 177 0
 168              		.cfi_startproc
 169              		@ args = 0, pretend = 0, frame = 8
 170              		@ frame_needed = 1, uses_anonymous_args = 0
 171 0000 80B5     		push	{r7, lr}
 172              		.cfi_def_cfa_offset 8
 173              		.cfi_offset 7, -8
 174              		.cfi_offset 14, -4
 175 0002 82B0     		sub	sp, sp, #8
 176              		.cfi_def_cfa_offset 16
 177 0004 00AF     		add	r7, sp, #0
 178              		.cfi_def_cfa_register 7
 178:Generated_Source\PSoC5/cyfitter_cfg.c **** 	uint32 timeout;
 179:Generated_Source\PSoC5/cyfitter_cfg.c **** 	uint8 pllLock;
 180:Generated_Source\PSoC5/cyfitter_cfg.c **** 
 181:Generated_Source\PSoC5/cyfitter_cfg.c **** 
 182:Generated_Source\PSoC5/cyfitter_cfg.c **** 	/* Configure ILO based on settings from Clock DWR */
 183:Generated_Source\PSoC5/cyfitter_cfg.c **** 	CY_SET_XTND_REG8((void CYFAR *)(CYREG_SLOWCLK_ILO_CR0), 0x02u);
 179              		.loc 1 183 0
 180 0006 294B     		ldr	r3, .L11
 181 0008 0222     		movs	r2, #2
 182 000a 1A70     		strb	r2, [r3]
 184:Generated_Source\PSoC5/cyfitter_cfg.c **** 	CY_SET_XTND_REG8((void CYFAR *)(CYREG_CLKDIST_CR), 0x08u);
 183              		.loc 1 184 0
 184 000c 4FF04023 		mov	r3, #1073758208
 185 0010 0822     		movs	r2, #8
 186 0012 1A70     		strb	r2, [r3]
 185:Generated_Source\PSoC5/cyfitter_cfg.c **** 
 186:Generated_Source\PSoC5/cyfitter_cfg.c **** 	/* Configure IMO based on settings from Clock DWR */
 187:Generated_Source\PSoC5/cyfitter_cfg.c **** 	CY_SET_XTND_REG8((void CYFAR *)(CYREG_FASTCLK_IMO_CR), 0x03u);
 187              		.loc 1 187 0
 188 0014 264B     		ldr	r3, .L11+4
 189 0016 0322     		movs	r2, #3
 190 0018 1A70     		strb	r2, [r3]
 188:Generated_Source\PSoC5/cyfitter_cfg.c **** 	CY_SET_XTND_REG8((void CYFAR *)(CYREG_IMO_TR1), (CY_GET_XTND_REG8((void CYFAR *)CYREG_FLSHID_CUST_
 191              		.loc 1 188 0
 192 001a 264B     		ldr	r3, .L11+8
 193 001c 264A     		ldr	r2, .L11+12
 194 001e 1278     		ldrb	r2, [r2]
 195 0020 D2B2     		uxtb	r2, r2
 196 0022 1A70     		strb	r2, [r3]
 189:Generated_Source\PSoC5/cyfitter_cfg.c **** 
 190:Generated_Source\PSoC5/cyfitter_cfg.c **** 	/* Configure PLL based on settings from Clock DWR */
 191:Generated_Source\PSoC5/cyfitter_cfg.c **** 	CY_SET_XTND_REG16((void CYFAR *)(CYREG_FASTCLK_PLL_P), 0x0008u);
 197              		.loc 1 191 0
 198 0024 254B     		ldr	r3, .L11+16
 199 0026 0822     		movs	r2, #8
 200 0028 1A80     		strh	r2, [r3]	@ movhi
 192:Generated_Source\PSoC5/cyfitter_cfg.c **** 	CY_SET_XTND_REG16((void CYFAR *)(CYREG_FASTCLK_PLL_CFG0), 0x1251u);
 201              		.loc 1 192 0
 202 002a 254B     		ldr	r3, .L11+20
 203 002c 41F25122 		movw	r2, #4689
 204 0030 1A80     		strh	r2, [r3]	@ movhi
 193:Generated_Source\PSoC5/cyfitter_cfg.c **** 	/* Wait up to 250us for the PLL to lock */
 194:Generated_Source\PSoC5/cyfitter_cfg.c **** 	pllLock = 0u;
 205              		.loc 1 194 0
ARM GAS  C:\Users\JOSEAN~1\AppData\Local\Temp\ccI3w3Hv.s 			page 8


 206 0032 0023     		movs	r3, #0
 207 0034 FB70     		strb	r3, [r7, #3]
 195:Generated_Source\PSoC5/cyfitter_cfg.c **** 	for (timeout = 250u / 10u; (timeout > 0u) && (pllLock != 0x03u); timeout--)
 208              		.loc 1 195 0
 209 0036 1923     		movs	r3, #25
 210 0038 7B60     		str	r3, [r7, #4]
 211 003a 14E0     		b	.L7
 212              	.L9:
 196:Generated_Source\PSoC5/cyfitter_cfg.c **** 	{ 
 197:Generated_Source\PSoC5/cyfitter_cfg.c **** 		pllLock = 0x03u & ((uint8)((uint8)pllLock << 1) | ((CY_GET_XTND_REG8((void CYFAR *)CYREG_FASTCLK_
 213              		.loc 1 197 0 discriminator 4
 214 003c FB78     		ldrb	r3, [r7, #3]
 215 003e 5B00     		lsls	r3, r3, #1
 216 0040 DAB2     		uxtb	r2, r3
 217 0042 204B     		ldr	r3, .L11+24
 218 0044 1B78     		ldrb	r3, [r3]
 219 0046 DBB2     		uxtb	r3, r3
 220 0048 03F00103 		and	r3, r3, #1
 221 004c DBB2     		uxtb	r3, r3
 222 004e 1343     		orrs	r3, r3, r2
 223 0050 DBB2     		uxtb	r3, r3
 224 0052 03F00303 		and	r3, r3, #3
 225 0056 FB70     		strb	r3, [r7, #3]
 198:Generated_Source\PSoC5/cyfitter_cfg.c **** 		CyDelayCycles(10u * 48u); /* Delay 10us based on 48MHz clock */
 226              		.loc 1 198 0 discriminator 4
 227 0058 4FF4F070 		mov	r0, #480
 228 005c FFF7FEFF 		bl	CyDelayCycles
 195:Generated_Source\PSoC5/cyfitter_cfg.c **** 	for (timeout = 250u / 10u; (timeout > 0u) && (pllLock != 0x03u); timeout--)
 229              		.loc 1 195 0 discriminator 4
 230 0060 7B68     		ldr	r3, [r7, #4]
 231 0062 013B     		subs	r3, r3, #1
 232 0064 7B60     		str	r3, [r7, #4]
 233              	.L7:
 195:Generated_Source\PSoC5/cyfitter_cfg.c **** 	for (timeout = 250u / 10u; (timeout > 0u) && (pllLock != 0x03u); timeout--)
 234              		.loc 1 195 0 is_stmt 0 discriminator 1
 235 0066 7B68     		ldr	r3, [r7, #4]
 236 0068 002B     		cmp	r3, #0
 237 006a 02D0     		beq	.L8
 195:Generated_Source\PSoC5/cyfitter_cfg.c **** 	for (timeout = 250u / 10u; (timeout > 0u) && (pllLock != 0x03u); timeout--)
 238              		.loc 1 195 0 discriminator 3
 239 006c FB78     		ldrb	r3, [r7, #3]	@ zero_extendqisi2
 240 006e 032B     		cmp	r3, #3
 241 0070 E4D1     		bne	.L9
 242              	.L8:
 199:Generated_Source\PSoC5/cyfitter_cfg.c **** 	}
 200:Generated_Source\PSoC5/cyfitter_cfg.c **** 	/* If we ran out of time the PLL didn't lock so go to the error function */
 201:Generated_Source\PSoC5/cyfitter_cfg.c **** 	if (timeout == 0u)
 243              		.loc 1 201 0 is_stmt 1
 244 0072 7B68     		ldr	r3, [r7, #4]
 245 0074 002B     		cmp	r3, #0
 246 0076 02D1     		bne	.L10
 202:Generated_Source\PSoC5/cyfitter_cfg.c **** 	{
 203:Generated_Source\PSoC5/cyfitter_cfg.c **** 		CyClockStartupError(CYCLOCKSTART_PLL_ERROR);
 247              		.loc 1 203 0
 248 0078 0320     		movs	r0, #3
 249 007a FFF7FEFF 		bl	CyClockStartupError
 250              	.L10:
ARM GAS  C:\Users\JOSEAN~1\AppData\Local\Temp\ccI3w3Hv.s 			page 9


 204:Generated_Source\PSoC5/cyfitter_cfg.c **** 	}
 205:Generated_Source\PSoC5/cyfitter_cfg.c **** 
 206:Generated_Source\PSoC5/cyfitter_cfg.c **** 	/* Configure Bus/Master Clock based on settings from Clock DWR */
 207:Generated_Source\PSoC5/cyfitter_cfg.c **** 	CY_SET_XTND_REG16((void CYFAR *)(CYREG_CLKDIST_MSTR0), 0x0100u);
 251              		.loc 1 207 0
 252 007e 124B     		ldr	r3, .L11+28
 253 0080 4FF48072 		mov	r2, #256
 254 0084 1A80     		strh	r2, [r3]	@ movhi
 208:Generated_Source\PSoC5/cyfitter_cfg.c **** 	CY_SET_XTND_REG8((void CYFAR *)(CYREG_CLKDIST_MSTR0), 0x07u);
 255              		.loc 1 208 0
 256 0086 104B     		ldr	r3, .L11+28
 257 0088 0722     		movs	r2, #7
 258 008a 1A70     		strb	r2, [r3]
 209:Generated_Source\PSoC5/cyfitter_cfg.c **** 	CY_SET_XTND_REG8((void CYFAR *)(CYREG_CLKDIST_BCFG0), 0x00u);
 259              		.loc 1 209 0
 260 008c 0F4B     		ldr	r3, .L11+32
 261 008e 0022     		movs	r2, #0
 262 0090 1A70     		strb	r2, [r3]
 210:Generated_Source\PSoC5/cyfitter_cfg.c **** 	CY_SET_XTND_REG8((void CYFAR *)(CYREG_CLKDIST_BCFG2), 0x48u);
 263              		.loc 1 210 0
 264 0092 0F4B     		ldr	r3, .L11+36
 265 0094 4822     		movs	r2, #72
 266 0096 1A70     		strb	r2, [r3]
 211:Generated_Source\PSoC5/cyfitter_cfg.c **** 	CY_SET_XTND_REG8((void CYFAR *)(CYREG_CLKDIST_MSTR0), 0x00u);
 267              		.loc 1 211 0
 268 0098 0B4B     		ldr	r3, .L11+28
 269 009a 0022     		movs	r2, #0
 270 009c 1A70     		strb	r2, [r3]
 212:Generated_Source\PSoC5/cyfitter_cfg.c **** 	CY_SET_XTND_REG8((void CYFAR *)(CYREG_CLKDIST_LD), 0x02u);
 271              		.loc 1 212 0
 272 009e 0D4B     		ldr	r3, .L11+40
 273 00a0 0222     		movs	r2, #2
 274 00a2 1A70     		strb	r2, [r3]
 213:Generated_Source\PSoC5/cyfitter_cfg.c **** }
 275              		.loc 1 213 0
 276 00a4 00BF     		nop
 277 00a6 0837     		adds	r7, r7, #8
 278              		.cfi_def_cfa_offset 8
 279 00a8 BD46     		mov	sp, r7
 280              		.cfi_def_cfa_register 13
 281              		@ sp needed
 282 00aa 80BD     		pop	{r7, pc}
 283              	.L12:
 284              		.align	2
 285              	.L11:
 286 00ac 00430040 		.word	1073758976
 287 00b0 00420040 		.word	1073758720
 288 00b4 A1460040 		.word	1073759905
 289 00b8 08010049 		.word	1224737032
 290 00bc 22420040 		.word	1073758754
 291 00c0 20420040 		.word	1073758752
 292 00c4 25420040 		.word	1073758757
 293 00c8 04400040 		.word	1073758212
 294 00cc 06400040 		.word	1073758214
 295 00d0 08400040 		.word	1073758216
 296 00d4 01400040 		.word	1073758209
 297              		.cfi_endproc
ARM GAS  C:\Users\JOSEAN~1\AppData\Local\Temp\ccI3w3Hv.s 			page 10


 298              	.LFE4:
 299              		.size	ClockSetup, .-ClockSetup
 300              		.section	.text.AnalogSetDefault,"ax",%progbits
 301              		.align	2
 302              		.thumb
 303              		.thumb_func
 304              		.type	AnalogSetDefault, %function
 305              	AnalogSetDefault:
 306              	.LFB5:
 214:Generated_Source\PSoC5/cyfitter_cfg.c **** 
 215:Generated_Source\PSoC5/cyfitter_cfg.c **** 
 216:Generated_Source\PSoC5/cyfitter_cfg.c **** /* Analog API Functions */
 217:Generated_Source\PSoC5/cyfitter_cfg.c **** 
 218:Generated_Source\PSoC5/cyfitter_cfg.c **** 
 219:Generated_Source\PSoC5/cyfitter_cfg.c **** /*******************************************************************************
 220:Generated_Source\PSoC5/cyfitter_cfg.c **** * Function Name: AnalogSetDefault
 221:Generated_Source\PSoC5/cyfitter_cfg.c **** ********************************************************************************
 222:Generated_Source\PSoC5/cyfitter_cfg.c **** *
 223:Generated_Source\PSoC5/cyfitter_cfg.c **** * Summary:
 224:Generated_Source\PSoC5/cyfitter_cfg.c **** *  Sets up the analog portions of the chip to default values based on chip
 225:Generated_Source\PSoC5/cyfitter_cfg.c **** *  configuration options from the project.
 226:Generated_Source\PSoC5/cyfitter_cfg.c **** *
 227:Generated_Source\PSoC5/cyfitter_cfg.c **** * Parameters:
 228:Generated_Source\PSoC5/cyfitter_cfg.c **** *  void
 229:Generated_Source\PSoC5/cyfitter_cfg.c **** *
 230:Generated_Source\PSoC5/cyfitter_cfg.c **** * Return:
 231:Generated_Source\PSoC5/cyfitter_cfg.c **** *  void
 232:Generated_Source\PSoC5/cyfitter_cfg.c **** *
 233:Generated_Source\PSoC5/cyfitter_cfg.c **** *******************************************************************************/
 234:Generated_Source\PSoC5/cyfitter_cfg.c **** static void AnalogSetDefault(void);
 235:Generated_Source\PSoC5/cyfitter_cfg.c **** static void AnalogSetDefault(void)
 236:Generated_Source\PSoC5/cyfitter_cfg.c **** {
 307              		.loc 1 236 0
 308              		.cfi_startproc
 309              		@ args = 0, pretend = 0, frame = 8
 310              		@ frame_needed = 1, uses_anonymous_args = 0
 311              		@ link register save eliminated.
 312 0000 80B4     		push	{r7}
 313              		.cfi_def_cfa_offset 4
 314              		.cfi_offset 7, -4
 315 0002 83B0     		sub	sp, sp, #12
 316              		.cfi_def_cfa_offset 16
 317 0004 00AF     		add	r7, sp, #0
 318              		.cfi_def_cfa_register 7
 237:Generated_Source\PSoC5/cyfitter_cfg.c **** 	uint8 bg_xover_inl_trim = CY_GET_XTND_REG8((void CYFAR *)(CYREG_FLSHID_MFG_CFG_BG_XOVER_INL_TRIM +
 319              		.loc 1 237 0
 320 0006 0B4B     		ldr	r3, .L14
 321 0008 1B78     		ldrb	r3, [r3]
 322 000a FB71     		strb	r3, [r7, #7]
 238:Generated_Source\PSoC5/cyfitter_cfg.c **** 	CY_SET_XTND_REG8((void CYFAR *)(CYREG_BG_DFT0), (bg_xover_inl_trim & 0x07u));
 323              		.loc 1 238 0
 324 000c 0A4A     		ldr	r2, .L14+4
 325 000e FB79     		ldrb	r3, [r7, #7]
 326 0010 03F00703 		and	r3, r3, #7
 327 0014 DBB2     		uxtb	r3, r3
 328 0016 1370     		strb	r3, [r2]
 239:Generated_Source\PSoC5/cyfitter_cfg.c **** 	CY_SET_XTND_REG8((void CYFAR *)(CYREG_BG_DFT1), ((bg_xover_inl_trim >> 4) & 0x0Fu));
ARM GAS  C:\Users\JOSEAN~1\AppData\Local\Temp\ccI3w3Hv.s 			page 11


 329              		.loc 1 239 0
 330 0018 084A     		ldr	r2, .L14+8
 331 001a FB79     		ldrb	r3, [r7, #7]	@ zero_extendqisi2
 332 001c 1B09     		lsrs	r3, r3, #4
 333 001e DBB2     		uxtb	r3, r3
 334 0020 1370     		strb	r3, [r2]
 240:Generated_Source\PSoC5/cyfitter_cfg.c **** 	CY_SET_XTND_REG8((void CYFAR *)CYREG_PUMP_CR0, 0x44u);
 335              		.loc 1 240 0
 336 0022 074B     		ldr	r3, .L14+12
 337 0024 4422     		movs	r2, #68
 338 0026 1A70     		strb	r2, [r3]
 241:Generated_Source\PSoC5/cyfitter_cfg.c **** }
 339              		.loc 1 241 0
 340 0028 00BF     		nop
 341 002a 0C37     		adds	r7, r7, #12
 342              		.cfi_def_cfa_offset 4
 343 002c BD46     		mov	sp, r7
 344              		.cfi_def_cfa_register 13
 345              		@ sp needed
 346 002e 80BC     		pop	{r7}
 347              		.cfi_restore 7
 348              		.cfi_def_cfa_offset 0
 349 0030 7047     		bx	lr
 350              	.L15:
 351 0032 00BF     		.align	2
 352              	.L14:
 353 0034 CF010049 		.word	1224737231
 354 0038 6E580040 		.word	1073764462
 355 003c 6F580040 		.word	1073764463
 356 0040 76580040 		.word	1073764470
 357              		.cfi_endproc
 358              	.LFE5:
 359              		.size	AnalogSetDefault, .-AnalogSetDefault
 360              		.section	.text.SetAnalogRoutingPumps,"ax",%progbits
 361              		.align	2
 362              		.global	SetAnalogRoutingPumps
 363              		.thumb
 364              		.thumb_func
 365              		.type	SetAnalogRoutingPumps, %function
 366              	SetAnalogRoutingPumps:
 367              	.LFB6:
 242:Generated_Source\PSoC5/cyfitter_cfg.c **** 
 243:Generated_Source\PSoC5/cyfitter_cfg.c **** 
 244:Generated_Source\PSoC5/cyfitter_cfg.c **** /*******************************************************************************
 245:Generated_Source\PSoC5/cyfitter_cfg.c **** * Function Name: SetAnalogRoutingPumps
 246:Generated_Source\PSoC5/cyfitter_cfg.c **** ********************************************************************************
 247:Generated_Source\PSoC5/cyfitter_cfg.c **** *
 248:Generated_Source\PSoC5/cyfitter_cfg.c **** * Summary:
 249:Generated_Source\PSoC5/cyfitter_cfg.c **** * Enables or disables the analog pumps feeding analog routing switches.
 250:Generated_Source\PSoC5/cyfitter_cfg.c **** * Intended to be called at startup, based on the Vdda system configuration;
 251:Generated_Source\PSoC5/cyfitter_cfg.c **** * may be called during operation when the user informs us that the Vdda voltage
 252:Generated_Source\PSoC5/cyfitter_cfg.c **** * crossed the pump threshold.
 253:Generated_Source\PSoC5/cyfitter_cfg.c **** *
 254:Generated_Source\PSoC5/cyfitter_cfg.c **** * Parameters:
 255:Generated_Source\PSoC5/cyfitter_cfg.c **** *  enabled - 1 to enable the pumps, 0 to disable the pumps
 256:Generated_Source\PSoC5/cyfitter_cfg.c **** *
 257:Generated_Source\PSoC5/cyfitter_cfg.c **** * Return:
ARM GAS  C:\Users\JOSEAN~1\AppData\Local\Temp\ccI3w3Hv.s 			page 12


 258:Generated_Source\PSoC5/cyfitter_cfg.c **** *  void
 259:Generated_Source\PSoC5/cyfitter_cfg.c **** *
 260:Generated_Source\PSoC5/cyfitter_cfg.c **** *******************************************************************************/
 261:Generated_Source\PSoC5/cyfitter_cfg.c **** void SetAnalogRoutingPumps(uint8 enabled)
 262:Generated_Source\PSoC5/cyfitter_cfg.c **** {
 368              		.loc 1 262 0
 369              		.cfi_startproc
 370              		@ args = 0, pretend = 0, frame = 16
 371              		@ frame_needed = 1, uses_anonymous_args = 0
 372              		@ link register save eliminated.
 373 0000 80B4     		push	{r7}
 374              		.cfi_def_cfa_offset 4
 375              		.cfi_offset 7, -4
 376 0002 85B0     		sub	sp, sp, #20
 377              		.cfi_def_cfa_offset 24
 378 0004 00AF     		add	r7, sp, #0
 379              		.cfi_def_cfa_register 7
 380 0006 0346     		mov	r3, r0
 381 0008 FB71     		strb	r3, [r7, #7]
 263:Generated_Source\PSoC5/cyfitter_cfg.c **** 	uint8 regValue = CY_GET_XTND_REG8((void CYFAR *)CYREG_PUMP_CR0);
 382              		.loc 1 263 0
 383 000a 064B     		ldr	r3, .L19
 384 000c 1B78     		ldrb	r3, [r3]
 385 000e FB73     		strb	r3, [r7, #15]
 264:Generated_Source\PSoC5/cyfitter_cfg.c **** 	if (enabled != 0u)
 386              		.loc 1 264 0
 387 0010 FB79     		ldrb	r3, [r7, #7]	@ zero_extendqisi2
 388 0012 002B     		cmp	r3, #0
 265:Generated_Source\PSoC5/cyfitter_cfg.c **** 	{
 266:Generated_Source\PSoC5/cyfitter_cfg.c **** 		regValue |= 0x00u;
 267:Generated_Source\PSoC5/cyfitter_cfg.c **** 	}
 268:Generated_Source\PSoC5/cyfitter_cfg.c **** 	else
 269:Generated_Source\PSoC5/cyfitter_cfg.c **** 	{
 270:Generated_Source\PSoC5/cyfitter_cfg.c **** 		regValue &= (uint8)~0x00u;
 271:Generated_Source\PSoC5/cyfitter_cfg.c **** 	}
 272:Generated_Source\PSoC5/cyfitter_cfg.c **** 	CY_SET_XTND_REG8((void CYFAR *)CYREG_PUMP_CR0, regValue);
 389              		.loc 1 272 0
 390 0014 034A     		ldr	r2, .L19
 391 0016 FB7B     		ldrb	r3, [r7, #15]
 392 0018 1370     		strb	r3, [r2]
 273:Generated_Source\PSoC5/cyfitter_cfg.c **** }
 393              		.loc 1 273 0
 394 001a 00BF     		nop
 395 001c 1437     		adds	r7, r7, #20
 396              		.cfi_def_cfa_offset 4
 397 001e BD46     		mov	sp, r7
 398              		.cfi_def_cfa_register 13
 399              		@ sp needed
 400 0020 80BC     		pop	{r7}
 401              		.cfi_restore 7
 402              		.cfi_def_cfa_offset 0
 403 0022 7047     		bx	lr
 404              	.L20:
 405              		.align	2
 406              	.L19:
 407 0024 76580040 		.word	1073764470
 408              		.cfi_endproc
ARM GAS  C:\Users\JOSEAN~1\AppData\Local\Temp\ccI3w3Hv.s 			page 13


 409              	.LFE6:
 410              		.size	SetAnalogRoutingPumps, .-SetAnalogRoutingPumps
 411              		.section	.text.cyfitter_cfg,"ax",%progbits
 412              		.align	2
 413              		.global	cyfitter_cfg
 414              		.thumb
 415              		.thumb_func
 416              		.type	cyfitter_cfg, %function
 417              	cyfitter_cfg:
 418              	.LFB7:
 274:Generated_Source\PSoC5/cyfitter_cfg.c **** 
 275:Generated_Source\PSoC5/cyfitter_cfg.c **** 
 276:Generated_Source\PSoC5/cyfitter_cfg.c **** 
 277:Generated_Source\PSoC5/cyfitter_cfg.c **** 
 278:Generated_Source\PSoC5/cyfitter_cfg.c **** /*******************************************************************************
 279:Generated_Source\PSoC5/cyfitter_cfg.c **** * Function Name: cyfitter_cfg
 280:Generated_Source\PSoC5/cyfitter_cfg.c **** ********************************************************************************
 281:Generated_Source\PSoC5/cyfitter_cfg.c **** * Summary:
 282:Generated_Source\PSoC5/cyfitter_cfg.c **** *  This function is called by the start-up code for the selected device. It
 283:Generated_Source\PSoC5/cyfitter_cfg.c **** *  performs all of the necessary device configuration based on the design
 284:Generated_Source\PSoC5/cyfitter_cfg.c **** *  settings.  This includes settings from the Design Wide Resources (DWR) such
 285:Generated_Source\PSoC5/cyfitter_cfg.c **** *  as Clocks and Pins as well as any component configuration that is necessary.
 286:Generated_Source\PSoC5/cyfitter_cfg.c **** *
 287:Generated_Source\PSoC5/cyfitter_cfg.c **** * Parameters:
 288:Generated_Source\PSoC5/cyfitter_cfg.c **** *   void
 289:Generated_Source\PSoC5/cyfitter_cfg.c **** *
 290:Generated_Source\PSoC5/cyfitter_cfg.c **** * Return:
 291:Generated_Source\PSoC5/cyfitter_cfg.c **** *   void
 292:Generated_Source\PSoC5/cyfitter_cfg.c **** *
 293:Generated_Source\PSoC5/cyfitter_cfg.c **** *******************************************************************************/
 294:Generated_Source\PSoC5/cyfitter_cfg.c **** 
 295:Generated_Source\PSoC5/cyfitter_cfg.c **** void cyfitter_cfg(void)
 296:Generated_Source\PSoC5/cyfitter_cfg.c **** {
 419              		.loc 1 296 0
 420              		.cfi_startproc
 421              		@ args = 0, pretend = 0, frame = 8
 422              		@ frame_needed = 1, uses_anonymous_args = 0
 423 0000 80B5     		push	{r7, lr}
 424              		.cfi_def_cfa_offset 8
 425              		.cfi_offset 7, -8
 426              		.cfi_offset 14, -4
 427 0002 82B0     		sub	sp, sp, #8
 428              		.cfi_def_cfa_offset 16
 429 0004 00AF     		add	r7, sp, #0
 430              		.cfi_def_cfa_register 7
 297:Generated_Source\PSoC5/cyfitter_cfg.c **** #ifdef CYGlobalIntDisable
 298:Generated_Source\PSoC5/cyfitter_cfg.c **** 	/* Disable interrupts by default. Let user enable if/when they want. */
 299:Generated_Source\PSoC5/cyfitter_cfg.c **** 	CYGlobalIntDisable
 431              		.loc 1 299 0
 432              		.syntax unified
 433              	@ 299 "Generated_Source\PSoC5\cyfitter_cfg.c" 1
 434 0006 72B6     		CPSID   i
 435              	@ 0 "" 2
 300:Generated_Source\PSoC5/cyfitter_cfg.c **** #endif
 301:Generated_Source\PSoC5/cyfitter_cfg.c **** 
 302:Generated_Source\PSoC5/cyfitter_cfg.c **** 	/* Enable/Disable Debug functionality based on settings from System DWR */
 303:Generated_Source\PSoC5/cyfitter_cfg.c **** 	CY_SET_XTND_REG8((void CYFAR *)CYREG_MLOGIC_DEBUG, (CY_GET_XTND_REG8((void CYFAR *)CYREG_MLOGIC_DE
ARM GAS  C:\Users\JOSEAN~1\AppData\Local\Temp\ccI3w3Hv.s 			page 14


 436              		.loc 1 303 0
 437              		.thumb
 438              		.syntax unified
 439 0008 2D4A     		ldr	r2, .L24
 440 000a 2D4B     		ldr	r3, .L24
 441 000c 1B78     		ldrb	r3, [r3]
 442 000e DBB2     		uxtb	r3, r3
 443 0010 43F00403 		orr	r3, r3, #4
 444 0014 DBB2     		uxtb	r3, r3
 445 0016 1370     		strb	r3, [r2]
 446              	.LBB2:
 304:Generated_Source\PSoC5/cyfitter_cfg.c **** 
 305:Generated_Source\PSoC5/cyfitter_cfg.c **** 	{
 306:Generated_Source\PSoC5/cyfitter_cfg.c **** 
 307:Generated_Source\PSoC5/cyfitter_cfg.c **** 		CYPACKED typedef struct {
 308:Generated_Source\PSoC5/cyfitter_cfg.c **** 			void CYFAR *address;
 309:Generated_Source\PSoC5/cyfitter_cfg.c **** 			uint16 size;
 310:Generated_Source\PSoC5/cyfitter_cfg.c **** 		} CYPACKED_ATTR cfg_memset_t;
 311:Generated_Source\PSoC5/cyfitter_cfg.c **** 
 312:Generated_Source\PSoC5/cyfitter_cfg.c **** 		static const cfg_memset_t CYCODE cfg_memset_list[] = {
 313:Generated_Source\PSoC5/cyfitter_cfg.c **** 			/* address, size */
 314:Generated_Source\PSoC5/cyfitter_cfg.c **** 			{(void CYFAR *)(CYREG_PRT0_DR), 16u},
 315:Generated_Source\PSoC5/cyfitter_cfg.c **** 			{(void CYFAR *)(CYREG_PRT3_DR), 64u},
 316:Generated_Source\PSoC5/cyfitter_cfg.c **** 			{(void CYFAR *)(CYREG_PRT12_DR), 16u},
 317:Generated_Source\PSoC5/cyfitter_cfg.c **** 			{(void CYFAR *)(CYREG_PRT15_DR), 16u},
 318:Generated_Source\PSoC5/cyfitter_cfg.c **** 			{(void CYFAR *)(CYDEV_UCFG_B0_P0_U0_BASE), 4096u},
 319:Generated_Source\PSoC5/cyfitter_cfg.c **** 			{(void CYFAR *)(CYDEV_UCFG_B1_P2_U0_BASE), 2048u},
 320:Generated_Source\PSoC5/cyfitter_cfg.c **** 			{(void CYFAR *)(CYDEV_UCFG_DSI0_BASE), 2560u},
 321:Generated_Source\PSoC5/cyfitter_cfg.c **** 			{(void CYFAR *)(CYDEV_UCFG_DSI12_BASE), 512u},
 322:Generated_Source\PSoC5/cyfitter_cfg.c **** 			{(void CYFAR *)(CYREG_BCTL0_MDCLK_EN), 32u},
 323:Generated_Source\PSoC5/cyfitter_cfg.c **** 		};
 324:Generated_Source\PSoC5/cyfitter_cfg.c **** 
 325:Generated_Source\PSoC5/cyfitter_cfg.c **** 		uint8 CYDATA i;
 326:Generated_Source\PSoC5/cyfitter_cfg.c **** 
 327:Generated_Source\PSoC5/cyfitter_cfg.c **** 		/* Zero out critical memory blocks before beginning configuration */
 328:Generated_Source\PSoC5/cyfitter_cfg.c **** 		for (i = 0u; i < (sizeof(cfg_memset_list)/sizeof(cfg_memset_list[0])); i++)
 447              		.loc 1 328 0
 448 0018 0023     		movs	r3, #0
 449 001a FB71     		strb	r3, [r7, #7]
 450 001c 13E0     		b	.L22
 451              	.L23:
 452              	.LBB3:
 329:Generated_Source\PSoC5/cyfitter_cfg.c **** 		{
 330:Generated_Source\PSoC5/cyfitter_cfg.c **** 			const cfg_memset_t CYCODE * CYDATA ms = &cfg_memset_list[i];
 453              		.loc 1 330 0 discriminator 3
 454 001e FA79     		ldrb	r2, [r7, #7]	@ zero_extendqisi2
 455 0020 1346     		mov	r3, r2
 456 0022 5B00     		lsls	r3, r3, #1
 457 0024 1344     		add	r3, r3, r2
 458 0026 5B00     		lsls	r3, r3, #1
 459 0028 264A     		ldr	r2, .L24+4
 460 002a 1344     		add	r3, r3, r2
 461 002c 3B60     		str	r3, [r7]
 331:Generated_Source\PSoC5/cyfitter_cfg.c **** 			CYMEMZERO(ms->address, (size_t)(uint32)(ms->size));
 462              		.loc 1 331 0 discriminator 3
 463 002e 3B68     		ldr	r3, [r7]
 464 0030 1A68     		ldr	r2, [r3]	@ unaligned
ARM GAS  C:\Users\JOSEAN~1\AppData\Local\Temp\ccI3w3Hv.s 			page 15


 465 0032 3B68     		ldr	r3, [r7]
 466 0034 9B88     		ldrh	r3, [r3, #4]	@ unaligned
 467 0036 9BB2     		uxth	r3, r3
 468 0038 1946     		mov	r1, r3
 469 003a 1046     		mov	r0, r2
 470 003c FFF7FEFF 		bl	CYMEMZERO
 471              	.LBE3:
 328:Generated_Source\PSoC5/cyfitter_cfg.c **** 		{
 472              		.loc 1 328 0 discriminator 3
 473 0040 FB79     		ldrb	r3, [r7, #7]	@ zero_extendqisi2
 474 0042 0133     		adds	r3, r3, #1
 475 0044 FB71     		strb	r3, [r7, #7]
 476              	.L22:
 328:Generated_Source\PSoC5/cyfitter_cfg.c **** 		{
 477              		.loc 1 328 0 is_stmt 0 discriminator 1
 478 0046 FB79     		ldrb	r3, [r7, #7]	@ zero_extendqisi2
 479 0048 082B     		cmp	r3, #8
 480 004a E8D9     		bls	.L23
 332:Generated_Source\PSoC5/cyfitter_cfg.c **** 		}
 333:Generated_Source\PSoC5/cyfitter_cfg.c **** 
 334:Generated_Source\PSoC5/cyfitter_cfg.c **** 		/* Enable digital routing */
 335:Generated_Source\PSoC5/cyfitter_cfg.c **** 		CY_SET_XTND_REG8((void CYFAR *)CYREG_BCTL0_BANK_CTL, CY_GET_XTND_REG8((void CYFAR *)CYREG_BCTL0_B
 481              		.loc 1 335 0 is_stmt 1
 482 004c 1E4A     		ldr	r2, .L24+8
 483 004e 1E4B     		ldr	r3, .L24+8
 484 0050 1B78     		ldrb	r3, [r3]
 485 0052 DBB2     		uxtb	r3, r3
 486 0054 43F00203 		orr	r3, r3, #2
 487 0058 DBB2     		uxtb	r3, r3
 488 005a 1370     		strb	r3, [r2]
 336:Generated_Source\PSoC5/cyfitter_cfg.c **** 		CY_SET_XTND_REG8((void CYFAR *)CYREG_BCTL1_BANK_CTL, CY_GET_XTND_REG8((void CYFAR *)CYREG_BCTL1_B
 489              		.loc 1 336 0
 490 005c 1B4A     		ldr	r2, .L24+12
 491 005e 1B4B     		ldr	r3, .L24+12
 492 0060 1B78     		ldrb	r3, [r3]
 493 0062 DBB2     		uxtb	r3, r3
 494 0064 43F00203 		orr	r3, r3, #2
 495 0068 DBB2     		uxtb	r3, r3
 496 006a 1370     		strb	r3, [r2]
 497              	.LBE2:
 337:Generated_Source\PSoC5/cyfitter_cfg.c **** 	}
 338:Generated_Source\PSoC5/cyfitter_cfg.c **** 
 339:Generated_Source\PSoC5/cyfitter_cfg.c **** 
 340:Generated_Source\PSoC5/cyfitter_cfg.c **** 	/* Perform second pass device configuration. These items must be configured in specific order afte
 341:Generated_Source\PSoC5/cyfitter_cfg.c **** 	CYCONFIGCPY((void CYFAR *)(CYREG_PRT1_DM0), (const void CYFAR *)(BS_IOPINS0_1_VAL), 8u);
 498              		.loc 1 341 0
 499 006c 0822     		movs	r2, #8
 500 006e 4FF09041 		mov	r1, #1207959552
 501 0072 1748     		ldr	r0, .L24+16
 502 0074 FFF7FEFF 		bl	CYCONFIGCPY
 342:Generated_Source\PSoC5/cyfitter_cfg.c **** 	CYCONFIGCPY((void CYFAR *)(CYREG_PRT2_DM0), (const void CYFAR *)(BS_IOPINS0_2_VAL), 8u);
 503              		.loc 1 342 0
 504 0078 0822     		movs	r2, #8
 505 007a 1649     		ldr	r1, .L24+20
 506 007c 1648     		ldr	r0, .L24+24
 507 007e FFF7FEFF 		bl	CYCONFIGCPY
 343:Generated_Source\PSoC5/cyfitter_cfg.c **** 	/* Switch Boost to the precision bandgap reference from its internal reference */
ARM GAS  C:\Users\JOSEAN~1\AppData\Local\Temp\ccI3w3Hv.s 			page 16


 344:Generated_Source\PSoC5/cyfitter_cfg.c **** 	CY_SET_REG8((void CYXDATA *)CYREG_BOOST_CR2, (CY_GET_REG8((void CYXDATA *)CYREG_BOOST_CR2) | 0x08u
 508              		.loc 1 344 0
 509 0082 164A     		ldr	r2, .L24+28
 510 0084 154B     		ldr	r3, .L24+28
 511 0086 1B78     		ldrb	r3, [r3]
 512 0088 DBB2     		uxtb	r3, r3
 513 008a 43F00803 		orr	r3, r3, #8
 514 008e DBB2     		uxtb	r3, r3
 515 0090 1370     		strb	r3, [r2]
 345:Generated_Source\PSoC5/cyfitter_cfg.c **** 
 346:Generated_Source\PSoC5/cyfitter_cfg.c **** 	/* Set Flash Cycles based on max possible frequency in case a glitch occurs during ClockSetup(). *
 347:Generated_Source\PSoC5/cyfitter_cfg.c **** 	CY_SET_XTND_REG8((void CYFAR *)(CYREG_CACHE_CC_CTL), (((CYDEV_INSTRUCT_CACHE_ENABLED) != 0) ? 0x61
 516              		.loc 1 347 0
 517 0092 134B     		ldr	r3, .L24+32
 518 0094 6122     		movs	r2, #97
 519 0096 1A70     		strb	r2, [r3]
 348:Generated_Source\PSoC5/cyfitter_cfg.c **** 	/* Setup clocks based on selections from Clock DWR */
 349:Generated_Source\PSoC5/cyfitter_cfg.c **** 	ClockSetup();
 520              		.loc 1 349 0
 521 0098 FFF7FEFF 		bl	ClockSetup
 350:Generated_Source\PSoC5/cyfitter_cfg.c **** 	/* Set Flash Cycles based on newly configured 24.00MHz Bus Clock. */
 351:Generated_Source\PSoC5/cyfitter_cfg.c **** 	CY_SET_XTND_REG8((void CYFAR *)(CYREG_CACHE_CC_CTL), (((CYDEV_INSTRUCT_CACHE_ENABLED) != 0) ? 0x81
 522              		.loc 1 351 0
 523 009c 104B     		ldr	r3, .L24+32
 524 009e 8122     		movs	r2, #129
 525 00a0 1A70     		strb	r2, [r3]
 352:Generated_Source\PSoC5/cyfitter_cfg.c **** 	CY_SET_XTND_REG8((void CYFAR *)(CYREG_PANTHER_WAITPIPE), 0x01u);
 526              		.loc 1 352 0
 527 00a2 104B     		ldr	r3, .L24+36
 528 00a4 0122     		movs	r2, #1
 529 00a6 1A70     		strb	r2, [r3]
 353:Generated_Source\PSoC5/cyfitter_cfg.c **** 
 354:Generated_Source\PSoC5/cyfitter_cfg.c **** 	/* Perform basic analog initialization to defaults */
 355:Generated_Source\PSoC5/cyfitter_cfg.c **** 	AnalogSetDefault();
 530              		.loc 1 355 0
 531 00a8 FFF7FEFF 		bl	AnalogSetDefault
 356:Generated_Source\PSoC5/cyfitter_cfg.c **** 
 357:Generated_Source\PSoC5/cyfitter_cfg.c **** 	/* Configure alternate active mode */
 358:Generated_Source\PSoC5/cyfitter_cfg.c **** 	CYCONFIGCPY((void CYFAR *)CYDEV_PM_STBY_BASE, (const void CYFAR *)CYDEV_PM_ACT_BASE, 14u);
 532              		.loc 1 358 0
 533 00ac 0E22     		movs	r2, #14
 534 00ae 0E49     		ldr	r1, .L24+40
 535 00b0 0E48     		ldr	r0, .L24+44
 536 00b2 FFF7FEFF 		bl	CYCONFIGCPY
 359:Generated_Source\PSoC5/cyfitter_cfg.c **** }
 537              		.loc 1 359 0
 538 00b6 00BF     		nop
 539 00b8 0837     		adds	r7, r7, #8
 540              		.cfi_def_cfa_offset 8
 541 00ba BD46     		mov	sp, r7
 542              		.cfi_def_cfa_register 13
 543              		@ sp needed
 544 00bc 80BD     		pop	{r7, pc}
 545              	.L25:
 546 00be 00BF     		.align	2
 547              	.L24:
 548 00c0 E8460040 		.word	1073759976
ARM GAS  C:\Users\JOSEAN~1\AppData\Local\Temp\ccI3w3Hv.s 			page 17


 549 00c4 00000000 		.word	cfg_memset_list.4977
 550 00c8 03500140 		.word	1073827843
 551 00cc 13500140 		.word	1073827859
 552 00d0 12510040 		.word	1073762578
 553 00d4 08000048 		.word	1207959560
 554 00d8 22510040 		.word	1073762594
 555 00dc 22430040 		.word	1073759010
 556 00e0 00480040 		.word	1073760256
 557 00e4 04000840 		.word	1074266116
 558 00e8 A0430040 		.word	1073759136
 559 00ec B0430040 		.word	1073759152
 560              		.cfi_endproc
 561              	.LFE7:
 562              		.size	cyfitter_cfg, .-cyfitter_cfg
 563              		.section	.rodata
 564              		.align	2
 565              		.type	cfg_memset_list.4977, %object
 566              		.size	cfg_memset_list.4977, 54
 567              	cfg_memset_list.4977:
 568 0000 00510040 		.word	1073762560
 569 0004 1000     		.short	16
 570 0006 30510040 		.4byte	1073762608
 571 000a 4000     		.short	64
 572 000c C0510040 		.word	1073762752
 573 0010 1000     		.short	16
 574 0012 F0510040 		.4byte	1073762800
 575 0016 1000     		.short	16
 576 0018 00000140 		.word	1073807360
 577 001c 0010     		.short	4096
 578 001e 00140140 		.4byte	1073812480
 579 0022 0008     		.short	2048
 580 0024 00400140 		.word	1073823744
 581 0028 000A     		.short	2560
 582 002a 004C0140 		.4byte	1073826816
 583 002e 0002     		.short	512
 584 0030 00500140 		.word	1073827840
 585 0034 2000     		.short	32
 586              		.text
 587              	.Letext0:
 588              		.file 2 "c:\\program files (x86)\\cypress\\psoc creator\\4.2\\psoc creator\\import\\gnu\\arm\\5.4.
 589              		.file 3 "Generated_Source\\PSoC5\\cytypes.h"
