Archive member included to satisfy reference by file (symbol)

.\CortexM0\ARM_GCC_541\Debug\PWM.a(PWM_Red.o)
                              .\CortexM0\ARM_GCC_541\Debug\main.o (PWM_Red_WriteCompare)
.\CortexM0\ARM_GCC_541\Debug\PWM.a(PWM_Green.o)
                              .\CortexM0\ARM_GCC_541\Debug\main.o (PWM_Green_WriteCompare)
.\CortexM0\ARM_GCC_541\Debug\PWM.a(Clock_PWM.o)
                              .\CortexM0\ARM_GCC_541\Debug\main.o (Clock_PWM_Start)
.\CortexM0\ARM_GCC_541\Debug\PWM.a(PWM_Blue.o)
                              .\CortexM0\ARM_GCC_541\Debug\main.o (PWM_Blue_WriteCompare)
.\CortexM0\ARM_GCC_541\Debug\PWM.a(CyLib.o)
                              .\CortexM0\ARM_GCC_541\Debug\cyfitter_cfg.o (CySysClkWriteImoFreq)
.\CortexM0\ARM_GCC_541\Debug\PWM.a(CyBootAsmGnu.o)
                              .\CortexM0\ARM_GCC_541\Debug\PWM.a(CyLib.o) (CyDelayCycles)
c:/program files (x86)/cypress/psoc creator/4.2/psoc creator/import/gnu/arm/5.4.1/bin/../lib/gcc/arm-none-eabi/5.4.1/armv6-m\libgcc.a(_udivsi3.o)
                              .\CortexM0\ARM_GCC_541\Debug\PWM.a(CyLib.o) (__aeabi_uidiv)
c:/program files (x86)/cypress/psoc creator/4.2/psoc creator/import/gnu/arm/5.4.1/bin/../lib/gcc/arm-none-eabi/5.4.1/armv6-m\libgcc.a(_dvmd_tls.o)
                              c:/program files (x86)/cypress/psoc creator/4.2/psoc creator/import/gnu/arm/5.4.1/bin/../lib/gcc/arm-none-eabi/5.4.1/armv6-m\libgcc.a(_udivsi3.o) (__aeabi_idiv0)
c:/program files (x86)/cypress/psoc creator/4.2/psoc creator/import/gnu/arm/5.4.1/bin/../lib/gcc/arm-none-eabi/5.4.1/../../../../arm-none-eabi/lib/armv6-m\libg_nano.a(lib_a-errno.o)
                              .\CortexM0\ARM_GCC_541\Debug\Cm0Start.o (__errno)
c:/program files (x86)/cypress/psoc creator/4.2/psoc creator/import/gnu/arm/5.4.1/bin/../lib/gcc/arm-none-eabi/5.4.1/../../../../arm-none-eabi/lib/armv6-m\libg_nano.a(lib_a-exit.o)
                              c:/program files (x86)/cypress/psoc creator/4.2/psoc creator/import/gnu/arm/5.4.1/bin/../lib/gcc/arm-none-eabi/5.4.1/../../../../arm-none-eabi/lib/armv6-m/crt0.o (exit)
c:/program files (x86)/cypress/psoc creator/4.2/psoc creator/import/gnu/arm/5.4.1/bin/../lib/gcc/arm-none-eabi/5.4.1/../../../../arm-none-eabi/lib/armv6-m\libg_nano.a(lib_a-impure.o)
                              c:/program files (x86)/cypress/psoc creator/4.2/psoc creator/import/gnu/arm/5.4.1/bin/../lib/gcc/arm-none-eabi/5.4.1/../../../../arm-none-eabi/lib/armv6-m\libg_nano.a(lib_a-exit.o) (_global_impure_ptr)
c:/program files (x86)/cypress/psoc creator/4.2/psoc creator/import/gnu/arm/5.4.1/bin/../lib/gcc/arm-none-eabi/5.4.1/../../../../arm-none-eabi/lib/armv6-m\libg_nano.a(lib_a-init.o)
                              c:/program files (x86)/cypress/psoc creator/4.2/psoc creator/import/gnu/arm/5.4.1/bin/../lib/gcc/arm-none-eabi/5.4.1/../../../../arm-none-eabi/lib/armv6-m/crt0.o (__libc_init_array)
c:/program files (x86)/cypress/psoc creator/4.2/psoc creator/import/gnu/arm/5.4.1/bin/../lib/gcc/arm-none-eabi/5.4.1/../../../../arm-none-eabi/lib/armv6-m\libg_nano.a(lib_a-memcpy-stub.o)
                              .\CortexM0\ARM_GCC_541\Debug\cyfitter_cfg.o (memcpy)
c:/program files (x86)/cypress/psoc creator/4.2/psoc creator/import/gnu/arm/5.4.1/bin/../lib/gcc/arm-none-eabi/5.4.1/../../../../arm-none-eabi/lib/armv6-m\libg_nano.a(lib_a-memset.o)
                              c:/program files (x86)/cypress/psoc creator/4.2/psoc creator/import/gnu/arm/5.4.1/bin/../lib/gcc/arm-none-eabi/5.4.1/../../../../arm-none-eabi/lib/armv6-m/crt0.o (memset)

Allocating common symbols
Common symbol       size              file

ucbCompare          0x1               .\CortexM0\ARM_GCC_541\Debug\main.o
ucARGB              0x4               .\CortexM0\ARM_GCC_541\Debug\main.o
ucgCompare          0x1               .\CortexM0\ARM_GCC_541\Debug\main.o
ucrCompare          0x1               .\CortexM0\ARM_GCC_541\Debug\main.o

Discarded input sections

 .text          0x00000000        0x0 c:/program files (x86)/cypress/psoc creator/4.2/psoc creator/import/gnu/arm/5.4.1/bin/../lib/gcc/arm-none-eabi/5.4.1/armv6-m/crti.o
 .data          0x00000000        0x0 c:/program files (x86)/cypress/psoc creator/4.2/psoc creator/import/gnu/arm/5.4.1/bin/../lib/gcc/arm-none-eabi/5.4.1/armv6-m/crti.o
 .bss           0x00000000        0x0 c:/program files (x86)/cypress/psoc creator/4.2/psoc creator/import/gnu/arm/5.4.1/bin/../lib/gcc/arm-none-eabi/5.4.1/armv6-m/crti.o
 .data          0x00000000        0x4 c:/program files (x86)/cypress/psoc creator/4.2/psoc creator/import/gnu/arm/5.4.1/bin/../lib/gcc/arm-none-eabi/5.4.1/armv6-m/crtbegin.o
 .text          0x00000000       0x78 c:/program files (x86)/cypress/psoc creator/4.2/psoc creator/import/gnu/arm/5.4.1/bin/../lib/gcc/arm-none-eabi/5.4.1/../../../../arm-none-eabi/lib/armv6-m/crt0.o
 .data          0x00000000        0x0 c:/program files (x86)/cypress/psoc creator/4.2/psoc creator/import/gnu/arm/5.4.1/bin/../lib/gcc/arm-none-eabi/5.4.1/../../../../arm-none-eabi/lib/armv6-m/crt0.o
 .bss           0x00000000        0x0 c:/program files (x86)/cypress/psoc creator/4.2/psoc creator/import/gnu/arm/5.4.1/bin/../lib/gcc/arm-none-eabi/5.4.1/../../../../arm-none-eabi/lib/armv6-m/crt0.o
 .ARM.extab     0x00000000        0x0 c:/program files (x86)/cypress/psoc creator/4.2/psoc creator/import/gnu/arm/5.4.1/bin/../lib/gcc/arm-none-eabi/5.4.1/../../../../arm-none-eabi/lib/armv6-m/crt0.o
 .ARM.exidx     0x00000000        0x8 c:/program files (x86)/cypress/psoc creator/4.2/psoc creator/import/gnu/arm/5.4.1/bin/../lib/gcc/arm-none-eabi/5.4.1/../../../../arm-none-eabi/lib/armv6-m/crt0.o
 .text          0x00000000        0x0 .\CortexM0\ARM_GCC_541\Debug\main.o
 .data          0x00000000        0x0 .\CortexM0\ARM_GCC_541\Debug\main.o
 .bss           0x00000000        0x0 .\CortexM0\ARM_GCC_541\Debug\main.o
 .text          0x00000000        0x0 .\CortexM0\ARM_GCC_541\Debug\cyfitter_cfg.o
 .data          0x00000000        0x0 .\CortexM0\ARM_GCC_541\Debug\cyfitter_cfg.o
 .bss           0x00000000        0x0 .\CortexM0\ARM_GCC_541\Debug\cyfitter_cfg.o
 .text.CYCONFIGCPY
                0x00000000       0x20 .\CortexM0\ARM_GCC_541\Debug\cyfitter_cfg.o
 .text.CYCONFIGCPYCODE
Memory Configuration

Name             Origin             Length             Attributes
rom              0x00000000         0x00008000         xr
ram              0x20000000         0x00001000         xrw
*default*        0x00000000         0xffffffff

Linker script and memory map

LOAD c:/program files (x86)/cypress/psoc creator/4.2/psoc creator/import/gnu/arm/5.4.1/bin/../lib/gcc/arm-none-eabi/5.4.1/armv6-m/crti.o
LOAD c:/program files (x86)/cypress/psoc creator/4.2/psoc creator/import/gnu/arm/5.4.1/bin/../lib/gcc/arm-none-eabi/5.4.1/armv6-m/crtbegin.o
LOAD c:/program files (x86)/cypress/psoc creator/4.2/psoc creator/import/gnu/arm/5.4.1/bin/../lib/gcc/arm-none-eabi/5.4.1/../../../../arm-none-eabi/lib/armv6-m/crt0.o
START GROUP
LOAD .\CortexM0\ARM_GCC_541\Debug\main.o
LOAD .\CortexM0\ARM_GCC_541\Debug\cyfitter_cfg.o
LOAD .\CortexM0\ARM_GCC_541\Debug\cymetadata.o
LOAD .\CortexM0\ARM_GCC_541\Debug\Cm0Start.o
LOAD .\CortexM0\ARM_GCC_541\Debug\PWM.a
END GROUP
START GROUP
LOAD c:/program files (x86)/cypress/psoc creator/4.2/psoc creator/import/gnu/arm/5.4.1/bin/../lib/gcc/arm-none-eabi/5.4.1/armv6-m\libgcc.a
LOAD c:/program files (x86)/cypress/psoc creator/4.2/psoc creator/import/gnu/arm/5.4.1/bin/../lib/gcc/arm-none-eabi/5.4.1/../../../../arm-none-eabi/lib/armv6-m\libg_nano.a
LOAD c:/program files (x86)/cypress/psoc creator/4.2/psoc creator/import/gnu/arm/5.4.1/bin/../lib/gcc/arm-none-eabi/5.4.1/../../../../arm-none-eabi/lib/armv6-m\libc_nano.a
END GROUP
START GROUP
LOAD c:/program files (x86)/cypress/psoc creator/4.2/psoc creator/import/gnu/arm/5.4.1/bin/../lib/gcc/arm-none-eabi/5.4.1/armv6-m\libgcc.a
LOAD c:/program files (x86)/cypress/psoc creator/4.2/psoc creator/import/gnu/arm/5.4.1/bin/../lib/gcc/arm-none-eabi/5.4.1/../../../../arm-none-eabi/lib/armv6-m\libc_nano.a
END GROUP
LOAD c:/program files (x86)/cypress/psoc creator/4.2/psoc creator/import/gnu/arm/5.4.1/bin/../lib/gcc/arm-none-eabi/5.4.1/armv6-m/crtend.o
LOAD c:/program files (x86)/cypress/psoc creator/4.2/psoc creator/import/gnu/arm/5.4.1/bin/../lib/gcc/arm-none-eabi/5.4.1/armv6-m/crtn.o
START GROUP
LOAD c:/program files (x86)/cypress/psoc creator/4.2/psoc creator/import/gnu/arm/5.4.1/bin/../lib/gcc/arm-none-eabi/5.4.1/armv6-m\libgcc.a
LOAD c:/program files (x86)/cypress/psoc creator/4.2/psoc creator/import/gnu/arm/5.4.1/bin/../lib/gcc/arm-none-eabi/5.4.1/../../../../arm-none-eabi/lib/armv6-m\libc.a
LOAD c:/program files (x86)/cypress/psoc creator/4.2/psoc creator/import/gnu/arm/5.4.1/bin/../lib/gcc/arm-none-eabi/5.4.1/../../../../arm-none-eabi/lib/armv6-m\libnosys.a
END GROUP
                0x00000000                CY_APPL_ORIGIN = 0x0
                0x00000080                CY_FLASH_ROW_SIZE = 0x80
                0x00000001                CY_APPL_NUM = 0x1
                0x00000001                CY_APPL_MAX = 0x1
                0x00000040                CY_METADATA_SIZE = 0x40
                0x00000000                CY_APPL_LOADABLE = 0x0
                0x00000000                CY_CHECKSUM_EXCLUDE_SIZE = ALIGN (0x0, CY_FLASH_ROW_SIZE)
                0x00000000                CY_APP_FOR_STACK_AND_COPIER = 0x0
                [!provide]                PROVIDE (__cy_heap_start, _end)
                0x00000001                PROVIDE (__cy_region_num, ((__cy_regions_end - __cy_regions) / 0x10))
                0x20001000                PROVIDE (__cy_stack, (ORIGIN (ram) + LENGTH (ram)))
                [!provide]                PROVIDE (__cy_heap_end, (__cy_stack - 0x400))

.cybootloader   0x00000000        0x0
 *(.cybootloader)
                0x00000000                appl1_start = CY_APPL_ORIGIN?CY_APPL_ORIGIN:ALIGN (CY_FLASH_ROW_SIZE)
                0x00003f80                appl2_start = (appl1_start + ALIGN ((((LENGTH (rom) - appl1_start) - (0x2 * CY_FLASH_ROW_SIZE)) / 0x2), CY_FLASH_ROW_SIZE))
                0x00000000                appl_start = (CY_APPL_NUM == 0x1)?appl1_start:appl2_start
                0x00000001                cy_project_type_bootloader = (appl_start == 0x0)?0x1:0x0
                0x00000000                cy_project_type_app_for_stack_and_copier = (CY_APP_FOR_STACK_AND_COPIER == 0x1)?0x1:0x0

.text           0x00000000      0xb94
 CREATE_OBJECT_SYMBOLS
                0x00000000                PROVIDE (__cy_interrupt_vector, RomVectors)
 *(.romvectors)
 .romvectors    0x00000000       0x10 .\CortexM0\ARM_GCC_541\Debug\Cm0Start.o
                0x00000000                RomVectors
                0x00000001                ASSERT ((. != __cy_interrupt_vector), No interrupt vector)
                0x00000001                ASSERT (CY_APPL_ORIGIN?(SIZEOF (.cybootloader) <= CY_APPL_ORIGIN):0x1, Wrong image location)
                0x00000010                PROVIDE (__cy_reset, Reset)
 *(.text.Reset)
 .text.Reset    0x00000010        0x8 .\CortexM0\ARM_GCC_541\Debug\Cm0Start.o
                0x00000010                Reset
                0x00000001                ASSERT ((. != __cy_reset), No reset code)
 *(.psocinit)
 .psocinit      0x00000018      0x1d8 .\CortexM0\ARM_GCC_541\Debug\cyfitter_cfg.o
                0x0000009c                cyfitter_cfg
                0x000001f0                . = MAX (., 0x100)
 *(.text .text.* .gnu.linkonce.t.*)
 .text          0x000001f0       0x60 c:/program files (x86)/cypress/psoc creator/4.2/psoc creator/import/gnu/arm/5.4.1/bin/../lib/gcc/arm-none-eabi/5.4.1/armv6-m/crtbegin.o
 .text.main     0x00000250       0xf4 .\CortexM0\ARM_GCC_541\Debug\main.o
                0x00000250                main
 .text.CYMEMZERO
                0x00000344       0x20 .\CortexM0\ARM_GCC_541\Debug\cyfitter_cfg.o
 .text.cfg_write_bytes32
                0x00000364       0x84 .\CortexM0\ARM_GCC_541\Debug\cyfitter_cfg.o
 .text.AnalogSetDefault
                0x000003e8        0xc .\CortexM0\ARM_GCC_541\Debug\cyfitter_cfg.o
 .text.IntDefaultHandler
                0x000003f4       0x14 .\CortexM0\ARM_GCC_541\Debug\Cm0Start.o
                0x000003f4                IntDefaultHandler
 .text.Start_c  0x00000408       0x98 .\CortexM0\ARM_GCC_541\Debug\Cm0Start.o
                0x00000408                Start_c
 .text.initialize_psoc
                0x000004a0       0x64 .\CortexM0\ARM_GCC_541\Debug\Cm0Start.o
                0x000004a0                initialize_psoc
 .text.PWM_Red_Init
                0x00000504       0x54 .\CortexM0\ARM_GCC_541\Debug\PWM.a(PWM_Red.o)
                0x00000504                PWM_Red_Init
 .text.PWM_Red_Enable
                0x00000558       0x34 .\CortexM0\ARM_GCC_541\Debug\PWM.a(PWM_Red.o)
                0x00000558                PWM_Red_Enable
 .text.PWM_Red_Start
                0x0000058c       0x24 .\CortexM0\ARM_GCC_541\Debug\PWM.a(PWM_Red.o)
                0x0000058c                PWM_Red_Start
 .text.PWM_Red_WriteCounter
                0x000005b0       0x20 .\CortexM0\ARM_GCC_541\Debug\PWM.a(PWM_Red.o)
                0x000005b0                PWM_Red_WriteCounter
 .text.PWM_Red_WritePeriod
                0x000005d0       0x20 .\CortexM0\ARM_GCC_541\Debug\PWM.a(PWM_Red.o)
                0x000005d0                PWM_Red_WritePeriod
 .text.PWM_Red_WriteCompare
                0x000005f0       0x20 .\CortexM0\ARM_GCC_541\Debug\PWM.a(PWM_Red.o)
                0x000005f0                PWM_Red_WriteCompare
 .text.PWM_Red_SetInterruptMode
                0x00000610       0x1c .\CortexM0\ARM_GCC_541\Debug\PWM.a(PWM_Red.o)
                0x00000610                PWM_Red_SetInterruptMode
 .text.PWM_Green_Init
                0x0000062c       0x54 .\CortexM0\ARM_GCC_541\Debug\PWM.a(PWM_Green.o)
                0x0000062c                PWM_Green_Init
 .text.PWM_Green_Enable
                0x00000680       0x34 .\CortexM0\ARM_GCC_541\Debug\PWM.a(PWM_Green.o)
                0x00000680                PWM_Green_Enable
 .text.PWM_Green_Start
                0x000006b4       0x24 .\CortexM0\ARM_GCC_541\Debug\PWM.a(PWM_Green.o)
                0x000006b4                PWM_Green_Start
 .text.PWM_Green_WriteCounter
                0x000006d8       0x20 .\CortexM0\ARM_GCC_541\Debug\PWM.a(PWM_Green.o)
                0x000006d8                PWM_Green_WriteCounter
 .text.PWM_Green_WritePeriod
                0x000006f8       0x20 .\CortexM0\ARM_GCC_541\Debug\PWM.a(PWM_Green.o)
                0x000006f8                PWM_Green_WritePeriod
 .text.PWM_Green_WriteCompare
                0x00000718       0x20 .\CortexM0\ARM_GCC_541\Debug\PWM.a(PWM_Green.o)
                0x00000718                PWM_Green_WriteCompare
 .text.PWM_Green_SetInterruptMode
                0x00000738       0x1c .\CortexM0\ARM_GCC_541\Debug\PWM.a(PWM_Green.o)
                0x00000738                PWM_Green_SetInterruptMode
 .text.Clock_PWM_Start
                0x00000754       0x1c .\CortexM0\ARM_GCC_541\Debug\PWM.a(Clock_PWM.o)
                0x00000754                Clock_PWM_Start
 .text.PWM_Blue_Init
                0x00000770       0x54 .\CortexM0\ARM_GCC_541\Debug\PWM.a(PWM_Blue.o)
                0x00000770                PWM_Blue_Init
 .text.PWM_Blue_Enable
                0x000007c4       0x34 .\CortexM0\ARM_GCC_541\Debug\PWM.a(PWM_Blue.o)
                0x000007c4                PWM_Blue_Enable
 .text.PWM_Blue_Start
                0x000007f8       0x24 .\CortexM0\ARM_GCC_541\Debug\PWM.a(PWM_Blue.o)
                0x000007f8                PWM_Blue_Start
 .text.PWM_Blue_WriteCounter
                0x0000081c       0x20 .\CortexM0\ARM_GCC_541\Debug\PWM.a(PWM_Blue.o)
                0x0000081c                PWM_Blue_WriteCounter
 .text.PWM_Blue_WritePeriod
                0x0000083c       0x20 .\CortexM0\ARM_GCC_541\Debug\PWM.a(PWM_Blue.o)
                0x0000083c                PWM_Blue_WritePeriod
 .text.PWM_Blue_WriteCompare
                0x0000085c       0x20 .\CortexM0\ARM_GCC_541\Debug\PWM.a(PWM_Blue.o)
                0x0000085c                PWM_Blue_WriteCompare
 .text.PWM_Blue_SetInterruptMode
                0x0000087c       0x1c .\CortexM0\ARM_GCC_541\Debug\PWM.a(PWM_Blue.o)
                0x0000087c                PWM_Blue_SetInterruptMode
 .text.CySysClkWriteImoFreq
                0x00000898      0x1e4 .\CortexM0\ARM_GCC_541\Debug\PWM.a(CyLib.o)
                0x00000898                CySysClkWriteImoFreq
 .text.CyHalt   0x00000a7c       0x18 .\CortexM0\ARM_GCC_541\Debug\PWM.a(CyLib.o)
                0x00000a7c                CyHalt
 .text.CyDelay  0x00000a94       0x4c .\CortexM0\ARM_GCC_541\Debug\PWM.a(CyLib.o)
                0x00000a94                CyDelay
 .text.CyDelayUs
                0x00000ae0       0x28 .\CortexM0\ARM_GCC_541\Debug\PWM.a(CyLib.o)
                0x00000ae0                CyDelayUs
 .text          0x00000b08       0x24 .\CortexM0\ARM_GCC_541\Debug\PWM.a(CyBootAsmGnu.o)
                0x00000b08                CyDelayCycles
                0x00000b1c                CyEnterCriticalSection
                0x00000b24                CyExitCriticalSection
 .text.__errno  0x00000b2c        0xc c:/program files (x86)/cypress/psoc creator/4.2/psoc creator/import/gnu/arm/5.4.1/bin/../lib/gcc/arm-none-eabi/5.4.1/../../../../arm-none-eabi/lib/armv6-m\libg_nano.a(lib_a-errno.o)
                0x00000b2c                __errno
 .text.__libc_init_array
                0x00000b38       0x4c c:/program files (x86)/cypress/psoc creator/4.2/psoc creator/import/gnu/arm/5.4.1/bin/../lib/gcc/arm-none-eabi/5.4.1/../../../../arm-none-eabi/lib/armv6-m\libg_nano.a(lib_a-init.o)
                0x00000b38                __libc_init_array
 .text.memset   0x00000b84       0x10 c:/program files (x86)/cypress/psoc creator/4.2/psoc creator/import/gnu/arm/5.4.1/bin/../lib/gcc/arm-none-eabi/5.4.1/../../../../arm-none-eabi/lib/armv6-m\libg_nano.a(lib_a-memset.o)
                0x00000b84                memset
 *(.plt)
 *(.gnu.warning)
 *(.glue_7t)
 .glue_7t       0x00000b94        0x0 linker stubs
 *(.glue_7)
 .glue_7        0x00000b94        0x0 linker stubs
 *(.vfp11_veneer)
 .vfp11_veneer  0x00000b94        0x0 linker stubs
 *(.bootloader)
 *(.ARM.extab* .gnu.linkonce.armextab.*)
 *(.gcc_except_table)

.v4_bx          0x00000b94        0x0
 .v4_bx         0x00000b94        0x0 linker stubs

.iplt           0x00000b94        0x0
 .iplt          0x00000b94        0x0 c:/program files (x86)/cypress/psoc creator/4.2/psoc creator/import/gnu/arm/5.4.1/bin/../lib/gcc/arm-none-eabi/5.4.1/armv6-m/crtbegin.o

.eh_frame_hdr
 *(.eh_frame_hdr)

.eh_frame       0x00000b94        0x4
 *(.eh_frame)
 .eh_frame      0x00000b94        0x0 c:/program files (x86)/cypress/psoc creator/4.2/psoc creator/import/gnu/arm/5.4.1/bin/../lib/gcc/arm-none-eabi/5.4.1/armv6-m/crtbegin.o
 .eh_frame      0x00000b94        0x4 c:/program files (x86)/cypress/psoc creator/4.2/psoc creator/import/gnu/arm/5.4.1/bin/../lib/gcc/arm-none-eabi/5.4.1/armv6-m/crtend.o
                [!provide]                PROVIDE (__exidx_start, .)

.ARM.exidx
 *(.ARM.exidx* .gnu.linkonce.armexidx.*)
                0x00000b98                __exidx_end = .

.rodata         0x00000b98       0xc8
 *(.rodata .rodata.* .gnu.linkonce.r.*)
 .rodata        0x00000b98       0x15 .\CortexM0\ARM_GCC_541\Debug\main.o
                0x00000b98                colorMap
 *fill*         0x00000bad        0x3 
 .rodata        0x00000bb0       0x48 .\CortexM0\ARM_GCC_541\Debug\cyfitter_cfg.o
 .rodata        0x00000bf8       0x2e .\CortexM0\ARM_GCC_541\Debug\PWM.a(CyLib.o)
                0x00000bf8                cyImoFreqMhz2Reg
 .rodata.str1.1
                0x00000c26        0x2 c:/program files (x86)/cypress/psoc creator/4.2/psoc creator/import/gnu/arm/5.4.1/bin/../lib/gcc/arm-none-eabi/5.4.1/../../../../arm-none-eabi/lib/armv6-m\libg_nano.a(lib_a-impure.o)
                0x00000c28                . = ALIGN (0x4)
 *(.init)
 .init          0x00000c28        0x4 c:/program files (x86)/cypress/psoc creator/4.2/psoc creator/import/gnu/arm/5.4.1/bin/../lib/gcc/arm-none-eabi/5.4.1/armv6-m/crti.o
                0x00000c28                _init
 .init          0x00000c2c        0x8 c:/program files (x86)/cypress/psoc creator/4.2/psoc creator/import/gnu/arm/5.4.1/bin/../lib/gcc/arm-none-eabi/5.4.1/armv6-m/crtn.o
                0x00000c34                . = ALIGN (0x4)
                0x00000c34                __preinit_array_start = .
 *(.preinit_array)
                0x00000c34                __preinit_array_end = .
                0x00000c34                . = ALIGN (0x4)
                0x00000c34                __init_array_start = .
 *(SORT(.init_array.*))
 *(.init_array)
 .init_array    0x00000c34        0x4 c:/program files (x86)/cypress/psoc creator/4.2/psoc creator/import/gnu/arm/5.4.1/bin/../lib/gcc/arm-none-eabi/5.4.1/armv6-m/crtbegin.o
 .init_array    0x00000c38        0x4 .\CortexM0\ARM_GCC_541\Debug\Cm0Start.o
                0x00000c3c                __init_array_end = .
                0x00000c3c                . = ALIGN (0x4)
 *(.fini)
 .fini          0x00000c3c        0x4 c:/program files (x86)/cypress/psoc creator/4.2/psoc creator/import/gnu/arm/5.4.1/bin/../lib/gcc/arm-none-eabi/5.4.1/armv6-m/crti.o
                0x00000c3c                _fini
 .fini          0x00000c40        0x8 c:/program files (x86)/cypress/psoc creator/4.2/psoc creator/import/gnu/arm/5.4.1/bin/../lib/gcc/arm-none-eabi/5.4.1/armv6-m/crtn.o
                0x00000c48                . = ALIGN (0x4)
                0x00000c48                __fini_array_start = .
 *(.fini_array)
 .fini_array    0x00000c48        0x4 c:/program files (x86)/cypress/psoc creator/4.2/psoc creator/import/gnu/arm/5.4.1/bin/../lib/gcc/arm-none-eabi/5.4.1/armv6-m/crtbegin.o
 *(SORT(.fini_array.*))
                0x00000c4c                __fini_array_end = .
                0x00000c4c                . = ALIGN (0x4)
 *crtbegin.o(.ctors)
 *(EXCLUDE_FILE(*crtend.o) .ctors)
 *(SORT(.ctors.*))
 *crtend.o(.ctors)
                0x00000c4c                . = ALIGN (0x4)
 *crtbegin.o(.dtors)
 *(EXCLUDE_FILE(*crtend.o) .dtors)
 *(SORT(.dtors.*))
 *crtend.o(.dtors)
                0x00000c4c                . = ALIGN (0x4)
                0x00000c4c                __cy_regions = .
                0x00000c4c        0x4 LONG 0xc60 __cy_region_init_ram
                0x00000c50        0x4 LONG 0x200000c8 __cy_region_start_data
                0x00000c54        0x4 LONG 0x80 __cy_region_init_size_ram
                0x00000c58        0x4 LONG 0x30 __cy_region_zero_size_ram
                0x00000c5c                __cy_regions_end = .
                0x00000c60                . = ALIGN (0x8)
 *fill*         0x00000c5c        0x4 
                0x00000c60                _etext = .

.cy_checksum_exclude
                0x00000c60        0x0
 *(.cy_checksum_exclude)

.ramvectors     0x20000000       0xc0
                0x20000000                __cy_region_start_ram = .
 *(.ramvectors)
 .ramvectors    0x20000000       0xc0 .\CortexM0\ARM_GCC_541\Debug\Cm0Start.o
                0x20000000                CyRamVectors

.noinit         0x200000c0        0x4
 *(.noinit)
 .noinit        0x200000c0        0x4 .\CortexM0\ARM_GCC_541\Debug\Cm0Start.o

.data           0x200000c8       0x80 load address 0x00000c60
                0x200000c8                __cy_region_start_data = .
 *(.jcr)
 .jcr           0x200000c8        0x0 c:/program files (x86)/cypress/psoc creator/4.2/psoc creator/import/gnu/arm/5.4.1/bin/../lib/gcc/arm-none-eabi/5.4.1/armv6-m/crtbegin.o
 .jcr           0x200000c8        0x4 c:/program files (x86)/cypress/psoc creator/4.2/psoc creator/import/gnu/arm/5.4.1/bin/../lib/gcc/arm-none-eabi/5.4.1/armv6-m/crtend.o
 *(.got.plt)
 *(.got)
 *(.shdata)
 *(.data .data.* .gnu.linkonce.d.*)
 .data          0x200000cc       0x14 .\CortexM0\ARM_GCC_541\Debug\PWM.a(CyLib.o)
                0x200000cc                cydelayFreqHz
                0x200000d0                cydelayFreqKhz
                0x200000d4                cydelayFreqMhz
                0x200000d8                cydelay32kMs
                0x200000dc                CySysClkPumpConfig
 .data.impure_data
                0x200000e0       0x60 c:/program files (x86)/cypress/psoc creator/4.2/psoc creator/import/gnu/arm/5.4.1/bin/../lib/gcc/arm-none-eabi/5.4.1/../../../../arm-none-eabi/lib/armv6-m\libg_nano.a(lib_a-impure.o)
 .data._impure_ptr
                0x20000140        0x4 c:/program files (x86)/cypress/psoc creator/4.2/psoc creator/import/gnu/arm/5.4.1/bin/../lib/gcc/arm-none-eabi/5.4.1/../../../../arm-none-eabi/lib/armv6-m\libg_nano.a(lib_a-impure.o)
                0x20000140                _impure_ptr
                0x20000148                . = ALIGN (0x8)
 *fill*         0x20000144        0x4 
 *(.ram)
                0x20000148                _edata = .

.igot.plt       0x20000148        0x0 load address 0x00000ce0
 .igot.plt      0x20000148        0x0 c:/program files (x86)/cypress/psoc creator/4.2/psoc creator/import/gnu/arm/5.4.1/bin/../lib/gcc/arm-none-eabi/5.4.1/armv6-m/crtbegin.o

.bss            0x20000148       0x30 load address 0x00000ce0
                0x20000148                PROVIDE (__bss_start__, .)
 *(.shbss)
 *(.bss .bss.* .gnu.linkonce.b.*)
 .bss           0x20000148       0x1c c:/program files (x86)/cypress/psoc creator/4.2/psoc creator/import/gnu/arm/5.4.1/bin/../lib/gcc/arm-none-eabi/5.4.1/armv6-m/crtbegin.o
 .bss           0x20000164        0x1 .\CortexM0\ARM_GCC_541\Debug\PWM.a(PWM_Red.o)
                0x20000164                PWM_Red_initVar
 .bss           0x20000165        0x1 .\CortexM0\ARM_GCC_541\Debug\PWM.a(PWM_Green.o)
                0x20000165                PWM_Green_initVar
 .bss           0x20000166        0x1 .\CortexM0\ARM_GCC_541\Debug\PWM.a(PWM_Blue.o)
                0x20000166                PWM_Blue_initVar
 *(COMMON)
 *fill*         0x20000167        0x1 
 COMMON         0x20000168        0xa .\CortexM0\ARM_GCC_541\Debug\main.o
                0x20000168                ucbCompare
                0x2000016c                ucARGB
                0x20000170                ucgCompare
                0x20000171                ucrCompare
                0x20000178                . = ALIGN (0x8)
 *fill*         0x20000172        0x6 
 *(.ram.b)
                0x20000178                _end = .
                0x20000178                __end = .
                0x20000178                PROVIDE (end, .)
                0x20000178                PROVIDE (__bss_end__, .)
                0x00000c60                __cy_region_init_ram = LOADADDR (.data)
                0x00000080                __cy_region_init_size_ram = (_edata - ADDR (.data))
                0x00000030                __cy_region_zero_size_ram = (_end - _edata)

.heap           0x20000178      0x100 load address 0x00000ce0
                0x20000178                . = _end
                0x20000278                . = (. + 0x100)
 *fill*         0x20000178      0x100 
                0x20000278                __cy_heap_limit = .

.stack          0x20000c00      0x400
                0x20000c00                __cy_stack_limit = .
                0x20001000                . = (. + 0x400)
 *fill*         0x20000c00      0x400 
                0x00000001                ASSERT ((__cy_stack_limit >= __cy_heap_limit), region RAM overflowed with stack)
                0x00000000                cy_checksum_exclude_size = (CY_APPL_LOADABLE == 0x1)?SIZEOF (.cy_checksum_exclude):0x0
                0x00000001                ASSERT ((cy_checksum_exclude_size <= CY_CHECKSUM_EXCLUDE_SIZE), CY_BOOT: Section .cy_checksum_exclude size exceedes specified limit.)
                0x00007fc0                cyloadermeta_start = (cy_project_type_bootloader || cy_project_type_app_for_stack_and_copier)?(LENGTH (rom) - CY_METADATA_SIZE):0xf0000000

.cyloadermeta
 *(.cyloadermeta)
                0x00007fc0                cyloadablemeta_start = cy_project_type_app_for_stack_and_copier?((LENGTH (rom) - CY_FLASH_ROW_SIZE) - CY_METADATA_SIZE):((LENGTH (rom) - (CY_FLASH_ROW_SIZE * (CY_APPL_NUM - 0x1))) - CY_METADATA_SIZE)

.cyloadablemeta
 *(.cyloadablemeta)

.cyflashprotect
                0x90400000       0x20
 *(.cyflashprotect)
 .cyflashprotect
                0x90400000       0x20 .\CortexM0\ARM_GCC_541\Debug\cymetadata.o
                0x90400000                cy_meta_flashprotect

.cymeta         0x90500000        0xc
 *(.cymeta)
 .cymeta        0x90500000        0xc .\CortexM0\ARM_GCC_541\Debug\cymetadata.o
                0x90500000                cy_metadata

.cychipprotect  0x90600000        0x1
 *(.cychipprotect)
 .cychipprotect
                0x90600000        0x1 .\CortexM0\ARM_GCC_541\Debug\cymetadata.o
                0x90600000                cy_meta_chipprotect

.rel.dyn        0x00000ce0        0x0 load address 0x90600004
 .rel.iplt      0x00000ce0        0x0 c:/program files (x86)/cypress/psoc creator/4.2/psoc creator/import/gnu/arm/5.4.1/bin/../lib/gcc/arm-none-eabi/5.4.1/armv6-m/crtbegin.o

.stab
 *(.stab)

.stabstr
 *(.stabstr)

.debug
 *(.debug)

.line
 *(.line)

.debug_srcinfo
 *(.debug_srcinfo)

.debug_sfnames
 *(.debug_sfnames)

.debug_aranges  0x00000000      0x6b8
 *(.debug_aranges)
 .debug_aranges
                0x00000000       0x20 .\CortexM0\ARM_GCC_541\Debug\main.o
 .debug_aranges
                0x00000020       0x50 .\CortexM0\ARM_GCC_541\Debug\cyfitter_cfg.o
 .debug_aranges
                0x00000070       0x18 .\CortexM0\ARM_GCC_541\Debug\cymetadata.o
 .debug_aranges
                0x00000088       0x48 .\CortexM0\ARM_GCC_541\Debug\Cm0Start.o
 .debug_aranges
                0x000000d0      0x158 .\CortexM0\ARM_GCC_541\Debug\PWM.a(PWM_Red.o)
 .debug_aranges
                0x00000228      0x158 .\CortexM0\ARM_GCC_541\Debug\PWM.a(PWM_Green.o)
 .debug_aranges
                0x00000380       0x40 .\CortexM0\ARM_GCC_541\Debug\PWM.a(Clock_PWM.o)
 .debug_aranges
                0x000003c0      0x158 .\CortexM0\ARM_GCC_541\Debug\PWM.a(PWM_Blue.o)
 .debug_aranges
                0x00000518      0x180 .\CortexM0\ARM_GCC_541\Debug\PWM.a(CyLib.o)
 .debug_aranges
                0x00000698       0x20 .\CortexM0\ARM_GCC_541\Debug\PWM.a(CyBootAsmGnu.o)

.debug_pubnames
 *(.debug_pubnames)

.debug_info     0x00000000     0x2867
 *(.debug_info .gnu.linkonce.wi.*)
 .debug_info    0x00000000      0x144 .\CortexM0\ARM_GCC_541\Debug\main.o
 .debug_info    0x00000144      0x35e .\CortexM0\ARM_GCC_541\Debug\cyfitter_cfg.o
 .debug_info    0x000004a2       0xf8 .\CortexM0\ARM_GCC_541\Debug\cymetadata.o
 .debug_info    0x0000059a      0x312 .\CortexM0\ARM_GCC_541\Debug\Cm0Start.o
 .debug_info    0x000008ac      0x6fb .\CortexM0\ARM_GCC_541\Debug\PWM.a(PWM_Red.o)
 .debug_info    0x00000fa7      0x6fb .\CortexM0\ARM_GCC_541\Debug\PWM.a(PWM_Green.o)
 .debug_info    0x000016a2      0x150 .\CortexM0\ARM_GCC_541\Debug\PWM.a(Clock_PWM.o)
 .debug_info    0x000017f2      0x6fb .\CortexM0\ARM_GCC_541\Debug\PWM.a(PWM_Blue.o)
 .debug_info    0x00001eed      0x8e0 .\CortexM0\ARM_GCC_541\Debug\PWM.a(CyLib.o)
 .debug_info    0x000027cd       0x9a .\CortexM0\ARM_GCC_541\Debug\PWM.a(CyBootAsmGnu.o)

.debug_abbrev   0x00000000      0x990
 *(.debug_abbrev)
 .debug_abbrev  0x00000000       0x8a .\CortexM0\ARM_GCC_541\Debug\main.o
 .debug_abbrev  0x0000008a      0x18a .\CortexM0\ARM_GCC_541\Debug\cyfitter_cfg.o
 .debug_abbrev  0x00000214       0x5d .\CortexM0\ARM_GCC_541\Debug\cymetadata.o
 .debug_abbrev  0x00000271      0x1c8 .\CortexM0\ARM_GCC_541\Debug\Cm0Start.o
 .debug_abbrev  0x00000439       0xfc .\CortexM0\ARM_GCC_541\Debug\PWM.a(PWM_Red.o)
 .debug_abbrev  0x00000535       0xfc .\CortexM0\ARM_GCC_541\Debug\PWM.a(PWM_Green.o)
 .debug_abbrev  0x00000631       0xa8 .\CortexM0\ARM_GCC_541\Debug\PWM.a(Clock_PWM.o)
 .debug_abbrev  0x000006d9       0xfc .\CortexM0\ARM_GCC_541\Debug\PWM.a(PWM_Blue.o)
 .debug_abbrev  0x000007d5      0x1a7 .\CortexM0\ARM_GCC_541\Debug\PWM.a(CyLib.o)
 .debug_abbrev  0x0000097c       0x14 .\CortexM0\ARM_GCC_541\Debug\PWM.a(CyBootAsmGnu.o)

.debug_line     0x00000000     0x1532
 *(.debug_line)
 .debug_line    0x00000000       0x9a .\CortexM0\ARM_GCC_541\Debug\main.o
 .debug_line    0x0000009a      0x195 .\CortexM0\ARM_GCC_541\Debug\cyfitter_cfg.o
 .debug_line    0x0000022f      0x141 .\CortexM0\ARM_GCC_541\Debug\cymetadata.o
 .debug_line    0x00000370      0x1cf .\CortexM0\ARM_GCC_541\Debug\Cm0Start.o
 .debug_line    0x0000053f      0x374 .\CortexM0\ARM_GCC_541\Debug\PWM.a(PWM_Red.o)
 .debug_line    0x000008b3      0x376 .\CortexM0\ARM_GCC_541\Debug\PWM.a(PWM_Green.o)
 .debug_line    0x00000c29       0xb0 .\CortexM0\ARM_GCC_541\Debug\PWM.a(Clock_PWM.o)
 .debug_line    0x00000cd9      0x375 .\CortexM0\ARM_GCC_541\Debug\PWM.a(PWM_Blue.o)
 .debug_line    0x0000104e      0x47b .\CortexM0\ARM_GCC_541\Debug\PWM.a(CyLib.o)
 .debug_line    0x000014c9       0x69 .\CortexM0\ARM_GCC_541\Debug\PWM.a(CyBootAsmGnu.o)

.debug_frame    0x00000000     0x1868
 *(.debug_frame)
 .debug_frame   0x00000000       0x30 .\CortexM0\ARM_GCC_541\Debug\main.o
 .debug_frame   0x00000030       0xe8 .\CortexM0\ARM_GCC_541\Debug\cyfitter_cfg.o
 .debug_frame   0x00000118       0xc8 .\CortexM0\ARM_GCC_541\Debug\Cm0Start.o
 .debug_frame   0x000001e0      0x52c .\CortexM0\ARM_GCC_541\Debug\PWM.a(PWM_Red.o)
 .debug_frame   0x0000070c      0x52c .\CortexM0\ARM_GCC_541\Debug\PWM.a(PWM_Green.o)
 .debug_frame   0x00000c38       0xa0 .\CortexM0\ARM_GCC_541\Debug\PWM.a(Clock_PWM.o)
 .debug_frame   0x00000cd8      0x52c .\CortexM0\ARM_GCC_541\Debug\PWM.a(PWM_Blue.o)
 .debug_frame   0x00001204      0x588 .\CortexM0\ARM_GCC_541\Debug\PWM.a(CyLib.o)
 .debug_frame   0x0000178c       0x20 c:/program files (x86)/cypress/psoc creator/4.2/psoc creator/import/gnu/arm/5.4.1/bin/../lib/gcc/arm-none-eabi/5.4.1/armv6-m\libgcc.a(_udivsi3.o)
 .debug_frame   0x000017ac       0x20 c:/program files (x86)/cypress/psoc creator/4.2/psoc creator/import/gnu/arm/5.4.1/bin/../lib/gcc/arm-none-eabi/5.4.1/../../../../arm-none-eabi/lib/armv6-m\libg_nano.a(lib_a-errno.o)
 .debug_frame   0x000017cc       0x28 c:/program files (x86)/cypress/psoc creator/4.2/psoc creator/import/gnu/arm/5.4.1/bin/../lib/gcc/arm-none-eabi/5.4.1/../../../../arm-none-eabi/lib/armv6-m\libg_nano.a(lib_a-exit.o)
 .debug_frame   0x000017f4       0x2c c:/program files (x86)/cypress/psoc creator/4.2/psoc creator/import/gnu/arm/5.4.1/bin/../lib/gcc/arm-none-eabi/5.4.1/../../../../arm-none-eabi/lib/armv6-m\libg_nano.a(lib_a-init.o)
 .debug_frame   0x00001820       0x28 c:/program files (x86)/cypress/psoc creator/4.2/psoc creator/import/gnu/arm/5.4.1/bin/../lib/gcc/arm-none-eabi/5.4.1/../../../../arm-none-eabi/lib/armv6-m\libg_nano.a(lib_a-memcpy-stub.o)
 .debug_frame   0x00001848       0x20 c:/program files (x86)/cypress/psoc creator/4.2/psoc creator/import/gnu/arm/5.4.1/bin/../lib/gcc/arm-none-eabi/5.4.1/../../../../arm-none-eabi/lib/armv6-m\libg_nano.a(lib_a-memset.o)

.debug_str      0x00000000     0x1580
 *(.debug_str)
 .debug_str     0x00000000      0x19a .\CortexM0\ARM_GCC_541\Debug\main.o
                                0x1da (size before relaxing)
 .debug_str     0x0000019a      0x115 .\CortexM0\ARM_GCC_541\Debug\cyfitter_cfg.o
                                0x2ca (size before relaxing)
 .debug_str     0x000002af       0x63 .\CortexM0\ARM_GCC_541\Debug\cymetadata.o
                                0x1d2 (size before relaxing)
 .debug_str     0x00000312      0x120 .\CortexM0\ARM_GCC_541\Debug\Cm0Start.o
                                0x2d8 (size before relaxing)
 .debug_str     0x00000432      0x444 .\CortexM0\ARM_GCC_541\Debug\PWM.a(PWM_Red.o)
                                0x5e2 (size before relaxing)
 .debug_str     0x00000876      0x3cf .\CortexM0\ARM_GCC_541\Debug\PWM.a(PWM_Green.o)
                                0x636 (size before relaxing)
 .debug_str     0x00000c45       0xd5 .\CortexM0\ARM_GCC_541\Debug\PWM.a(Clock_PWM.o)
                                0x25f (size before relaxing)
 .debug_str     0x00000d1a      0x3a5 .\CortexM0\ARM_GCC_541\Debug\PWM.a(PWM_Blue.o)
                                0x60c (size before relaxing)
 .debug_str     0x000010bf      0x4c1 .\CortexM0\ARM_GCC_541\Debug\PWM.a(CyLib.o)
                                0x685 (size before relaxing)

.debug_loc
 *(.debug_loc)

.debug_macinfo
 *(.debug_macinfo)

.debug_ranges   0x00000000      0x600
 *(.debug_ranges)
 .debug_ranges  0x00000000       0x10 .\CortexM0\ARM_GCC_541\Debug\main.o
 .debug_ranges  0x00000010       0x40 .\CortexM0\ARM_GCC_541\Debug\cyfitter_cfg.o
 .debug_ranges  0x00000050       0x38 .\CortexM0\ARM_GCC_541\Debug\Cm0Start.o
 .debug_ranges  0x00000088      0x148 .\CortexM0\ARM_GCC_541\Debug\PWM.a(PWM_Red.o)
 .debug_ranges  0x000001d0      0x148 .\CortexM0\ARM_GCC_541\Debug\PWM.a(PWM_Green.o)
 .debug_ranges  0x00000318       0x30 .\CortexM0\ARM_GCC_541\Debug\PWM.a(Clock_PWM.o)
 .debug_ranges  0x00000348      0x148 .\CortexM0\ARM_GCC_541\Debug\PWM.a(PWM_Blue.o)
 .debug_ranges  0x00000490      0x170 .\CortexM0\ARM_GCC_541\Debug\PWM.a(CyLib.o)

.comment        0x00000000       0x6e
 .comment       0x00000000       0x6e .\CortexM0\ARM_GCC_541\Debug\main.o
                                 0x6f (size before relaxing)
 .comment       0x0000006e       0x6f .\CortexM0\ARM_GCC_541\Debug\cyfitter_cfg.o
 .comment       0x0000006e       0x6f .\CortexM0\ARM_GCC_541\Debug\cymetadata.o
 .comment       0x0000006e       0x6f .\CortexM0\ARM_GCC_541\Debug\Cm0Start.o
 .comment       0x0000006e       0x6f .\CortexM0\ARM_GCC_541\Debug\PWM.a(PWM_Red.o)
 .comment       0x0000006e       0x6f .\CortexM0\ARM_GCC_541\Debug\PWM.a(PWM_Green.o)
 .comment       0x0000006e       0x6f .\CortexM0\ARM_GCC_541\Debug\PWM.a(Clock_PWM.o)
 .comment       0x0000006e       0x6f .\CortexM0\ARM_GCC_541\Debug\PWM.a(PWM_Blue.o)
 .comment       0x0000006e       0x6f .\CortexM0\ARM_GCC_541\Debug\PWM.a(CyLib.o)

.debug_weaknames
 *(.debug_weaknames)

.debug_funcnames
 *(.debug_funcnames)

.debug_typenames
 *(.debug_typenames)

.debug_varnames
 *(.debug_varnames)

.note.gnu.arm.ident
 *(.note.gnu.arm.ident)

.ARM.attributes
                0x00000000       0x28
 *(.ARM.attributes)
 .ARM.attributes
                0x00000000       0x1e c:/program files (x86)/cypress/psoc creator/4.2/psoc creator/import/gnu/arm/5.4.1/bin/../lib/gcc/arm-none-eabi/5.4.1/armv6-m/crti.o
 .ARM.attributes
                0x0000001e       0x2c c:/program files (x86)/cypress/psoc creator/4.2/psoc creator/import/gnu/arm/5.4.1/bin/../lib/gcc/arm-none-eabi/5.4.1/armv6-m/crtbegin.o
 .ARM.attributes
                0x0000004a       0x1b c:/program files (x86)/cypress/psoc creator/4.2/psoc creator/import/gnu/arm/5.4.1/bin/../lib/gcc/arm-none-eabi/5.4.1/../../../../arm-none-eabi/lib/armv6-m/crt0.o
 .ARM.attributes
                0x00000065       0x31 .\CortexM0\ARM_GCC_541\Debug\main.o
 .ARM.attributes
                0x00000096       0x31 .\CortexM0\ARM_GCC_541\Debug\cyfitter_cfg.o
 .ARM.attributes
                0x000000c7       0x31 .\CortexM0\ARM_GCC_541\Debug\cymetadata.o
 .ARM.attributes
                0x000000f8       0x31 .\CortexM0\ARM_GCC_541\Debug\Cm0Start.o
 .ARM.attributes
                0x00000129       0x31 .\CortexM0\ARM_GCC_541\Debug\PWM.a(PWM_Red.o)
 .ARM.attributes
                0x0000015a       0x31 .\CortexM0\ARM_GCC_541\Debug\PWM.a(PWM_Green.o)
 .ARM.attributes
                0x0000018b       0x31 .\CortexM0\ARM_GCC_541\Debug\PWM.a(Clock_PWM.o)
 .ARM.attributes
                0x000001bc       0x31 .\CortexM0\ARM_GCC_541\Debug\PWM.a(PWM_Blue.o)
 .ARM.attributes
                0x000001ed       0x31 .\CortexM0\ARM_GCC_541\Debug\PWM.a(CyLib.o)
 .ARM.attributes
                0x0000021e       0x21 .\CortexM0\ARM_GCC_541\Debug\PWM.a(CyBootAsmGnu.o)
 .ARM.attributes
                0x0000023f       0x1e c:/program files (x86)/cypress/psoc creator/4.2/psoc creator/import/gnu/arm/5.4.1/bin/../lib/gcc/arm-none-eabi/5.4.1/armv6-m\libgcc.a(_udivsi3.o)
 .ARM.attributes
                0x0000025d       0x1e c:/program files (x86)/cypress/psoc creator/4.2/psoc creator/import/gnu/arm/5.4.1/bin/../lib/gcc/arm-none-eabi/5.4.1/armv6-m\libgcc.a(_dvmd_tls.o)
 .ARM.attributes
                0x0000027b       0x2c c:/program files (x86)/cypress/psoc creator/4.2/psoc creator/import/gnu/arm/5.4.1/bin/../lib/gcc/arm-none-eabi/5.4.1/../../../../arm-none-eabi/lib/armv6-m\libg_nano.a(lib_a-errno.o)
 .ARM.attributes
                0x000002a7       0x2c c:/program files (x86)/cypress/psoc creator/4.2/psoc creator/import/gnu/arm/5.4.1/bin/../lib/gcc/arm-none-eabi/5.4.1/../../../../arm-none-eabi/lib/armv6-m\libg_nano.a(lib_a-exit.o)
 .ARM.attributes
                0x000002d3       0x2c c:/program files (x86)/cypress/psoc creator/4.2/psoc creator/import/gnu/arm/5.4.1/bin/../lib/gcc/arm-none-eabi/5.4.1/../../../../arm-none-eabi/lib/armv6-m\libg_nano.a(lib_a-impure.o)
 .ARM.attributes
                0x000002ff       0x2c c:/program files (x86)/cypress/psoc creator/4.2/psoc creator/import/gnu/arm/5.4.1/bin/../lib/gcc/arm-none-eabi/5.4.1/../../../../arm-none-eabi/lib/armv6-m\libg_nano.a(lib_a-init.o)
 .ARM.attributes
                0x0000032b       0x2c c:/program files (x86)/cypress/psoc creator/4.2/psoc creator/import/gnu/arm/5.4.1/bin/../lib/gcc/arm-none-eabi/5.4.1/../../../../arm-none-eabi/lib/armv6-m\libg_nano.a(lib_a-memcpy-stub.o)
 .ARM.attributes
                0x00000357       0x2c c:/program files (x86)/cypress/psoc creator/4.2/psoc creator/import/gnu/arm/5.4.1/bin/../lib/gcc/arm-none-eabi/5.4.1/../../../../arm-none-eabi/lib/armv6-m\libg_nano.a(lib_a-memset.o)
 .ARM.attributes
                0x00000383       0x2c c:/program files (x86)/cypress/psoc creator/4.2/psoc creator/import/gnu/arm/5.4.1/bin/../lib/gcc/arm-none-eabi/5.4.1/armv6-m/crtend.o
 .ARM.attributes
                0x000003af       0x1e c:/program files (x86)/cypress/psoc creator/4.2/psoc creator/import/gnu/arm/5.4.1/bin/../lib/gcc/arm-none-eabi/5.4.1/armv6-m/crtn.o

/DISCARD/
 *(.note.GNU-stack)
OUTPUT(D:\Documentos\UNIVERSIDAD\TFG\CY8CKIT-042 Code Examples\PSoC4\PWM\PWM.cydsn\CortexM0\ARM_GCC_541\Debug\PWM.elf elf32-littlearm)
