ARM GAS  C:\Users\JOSEAN~1\AppData\Local\Temp\ccll5T2D.s 			page 1


   1              		.syntax unified
   2              		.cpu cortex-m0
   3              		.fpu softvfp
   4              		.eabi_attribute 20, 1
   5              		.eabi_attribute 21, 1
   6              		.eabi_attribute 23, 3
   7              		.eabi_attribute 24, 1
   8              		.eabi_attribute 25, 1
   9              		.eabi_attribute 26, 1
  10              		.eabi_attribute 30, 6
  11              		.eabi_attribute 34, 0
  12              		.eabi_attribute 18, 4
  13              		.thumb
  14              		.syntax unified
  15              		.file	"PWM_Green.c"
  16              		.text
  17              	.Ltext0:
  18              		.cfi_sections	.debug_frame
  19              		.global	PWM_Green_initVar
  20              		.bss
  21              		.type	PWM_Green_initVar, %object
  22              		.size	PWM_Green_initVar, 1
  23              	PWM_Green_initVar:
  24 0000 00       		.space	1
  25              		.section	.text.PWM_Green_Init,"ax",%progbits
  26              		.align	2
  27              		.global	PWM_Green_Init
  28              		.code	16
  29              		.thumb_func
  30              		.type	PWM_Green_Init, %function
  31              	PWM_Green_Init:
  32              	.LFB0:
  33              		.file 1 "Generated_Source\\PSoC4\\PWM_Green.c"
   1:Generated_Source\PSoC4/PWM_Green.c **** /*******************************************************************************
   2:Generated_Source\PSoC4/PWM_Green.c **** * File Name: PWM_Green.c
   3:Generated_Source\PSoC4/PWM_Green.c **** * Version 2.10
   4:Generated_Source\PSoC4/PWM_Green.c **** *
   5:Generated_Source\PSoC4/PWM_Green.c **** * Description:
   6:Generated_Source\PSoC4/PWM_Green.c **** *  This file provides the source code to the API for the PWM_Green
   7:Generated_Source\PSoC4/PWM_Green.c **** *  component
   8:Generated_Source\PSoC4/PWM_Green.c **** *
   9:Generated_Source\PSoC4/PWM_Green.c **** * Note:
  10:Generated_Source\PSoC4/PWM_Green.c **** *  None
  11:Generated_Source\PSoC4/PWM_Green.c **** *
  12:Generated_Source\PSoC4/PWM_Green.c **** ********************************************************************************
  13:Generated_Source\PSoC4/PWM_Green.c **** * Copyright 2013-2015, Cypress Semiconductor Corporation.  All rights reserved.
  14:Generated_Source\PSoC4/PWM_Green.c **** * You may use this file only in accordance with the license, terms, conditions,
  15:Generated_Source\PSoC4/PWM_Green.c **** * disclaimers, and limitations in the end user license agreement accompanying
  16:Generated_Source\PSoC4/PWM_Green.c **** * the software package with which this file was provided.
  17:Generated_Source\PSoC4/PWM_Green.c **** *******************************************************************************/
  18:Generated_Source\PSoC4/PWM_Green.c **** 
  19:Generated_Source\PSoC4/PWM_Green.c **** #include "PWM_Green.h"
  20:Generated_Source\PSoC4/PWM_Green.c **** 
  21:Generated_Source\PSoC4/PWM_Green.c **** uint8 PWM_Green_initVar = 0u;
  22:Generated_Source\PSoC4/PWM_Green.c **** 
  23:Generated_Source\PSoC4/PWM_Green.c **** 
  24:Generated_Source\PSoC4/PWM_Green.c **** /*******************************************************************************
ARM GAS  C:\Users\JOSEAN~1\AppData\Local\Temp\ccll5T2D.s 			page 2


  25:Generated_Source\PSoC4/PWM_Green.c **** * Function Name: PWM_Green_Init
  26:Generated_Source\PSoC4/PWM_Green.c **** ********************************************************************************
  27:Generated_Source\PSoC4/PWM_Green.c **** *
  28:Generated_Source\PSoC4/PWM_Green.c **** * Summary:
  29:Generated_Source\PSoC4/PWM_Green.c **** *  Initialize/Restore default PWM_Green configuration.
  30:Generated_Source\PSoC4/PWM_Green.c **** *
  31:Generated_Source\PSoC4/PWM_Green.c **** * Parameters:
  32:Generated_Source\PSoC4/PWM_Green.c **** *  None
  33:Generated_Source\PSoC4/PWM_Green.c **** *
  34:Generated_Source\PSoC4/PWM_Green.c **** * Return:
  35:Generated_Source\PSoC4/PWM_Green.c **** *  None
  36:Generated_Source\PSoC4/PWM_Green.c **** *
  37:Generated_Source\PSoC4/PWM_Green.c **** *******************************************************************************/
  38:Generated_Source\PSoC4/PWM_Green.c **** void PWM_Green_Init(void)
  39:Generated_Source\PSoC4/PWM_Green.c **** {
  34              		.loc 1 39 0
  35              		.cfi_startproc
  36              		@ args = 0, pretend = 0, frame = 0
  37              		@ frame_needed = 1, uses_anonymous_args = 0
  38 0000 80B5     		push	{r7, lr}
  39              		.cfi_def_cfa_offset 8
  40              		.cfi_offset 7, -8
  41              		.cfi_offset 14, -4
  42 0002 00AF     		add	r7, sp, #0
  43              		.cfi_def_cfa_register 7
  40:Generated_Source\PSoC4/PWM_Green.c **** 
  41:Generated_Source\PSoC4/PWM_Green.c ****     /* Set values from customizer to CTRL */
  42:Generated_Source\PSoC4/PWM_Green.c ****     #if (PWM_Green__QUAD == PWM_Green_CONFIG)
  43:Generated_Source\PSoC4/PWM_Green.c ****         PWM_Green_CONTROL_REG = PWM_Green_CTRL_QUAD_BASE_CONFIG;
  44:Generated_Source\PSoC4/PWM_Green.c ****         
  45:Generated_Source\PSoC4/PWM_Green.c ****         /* Set values from customizer to CTRL1 */
  46:Generated_Source\PSoC4/PWM_Green.c ****         PWM_Green_TRIG_CONTROL1_REG  = PWM_Green_QUAD_SIGNALS_MODES;
  47:Generated_Source\PSoC4/PWM_Green.c **** 
  48:Generated_Source\PSoC4/PWM_Green.c ****         /* Set values from customizer to INTR */
  49:Generated_Source\PSoC4/PWM_Green.c ****         PWM_Green_SetInterruptMode(PWM_Green_QUAD_INTERRUPT_MASK);
  50:Generated_Source\PSoC4/PWM_Green.c ****         
  51:Generated_Source\PSoC4/PWM_Green.c ****          /* Set other values */
  52:Generated_Source\PSoC4/PWM_Green.c ****         PWM_Green_SetCounterMode(PWM_Green_COUNT_DOWN);
  53:Generated_Source\PSoC4/PWM_Green.c ****         PWM_Green_WritePeriod(PWM_Green_QUAD_PERIOD_INIT_VALUE);
  54:Generated_Source\PSoC4/PWM_Green.c ****         PWM_Green_WriteCounter(PWM_Green_QUAD_PERIOD_INIT_VALUE);
  55:Generated_Source\PSoC4/PWM_Green.c ****     #endif  /* (PWM_Green__QUAD == PWM_Green_CONFIG) */
  56:Generated_Source\PSoC4/PWM_Green.c **** 
  57:Generated_Source\PSoC4/PWM_Green.c ****     #if (PWM_Green__TIMER == PWM_Green_CONFIG)
  58:Generated_Source\PSoC4/PWM_Green.c ****         PWM_Green_CONTROL_REG = PWM_Green_CTRL_TIMER_BASE_CONFIG;
  59:Generated_Source\PSoC4/PWM_Green.c ****         
  60:Generated_Source\PSoC4/PWM_Green.c ****         /* Set values from customizer to CTRL1 */
  61:Generated_Source\PSoC4/PWM_Green.c ****         PWM_Green_TRIG_CONTROL1_REG  = PWM_Green_TIMER_SIGNALS_MODES;
  62:Generated_Source\PSoC4/PWM_Green.c ****     
  63:Generated_Source\PSoC4/PWM_Green.c ****         /* Set values from customizer to INTR */
  64:Generated_Source\PSoC4/PWM_Green.c ****         PWM_Green_SetInterruptMode(PWM_Green_TC_INTERRUPT_MASK);
  65:Generated_Source\PSoC4/PWM_Green.c ****         
  66:Generated_Source\PSoC4/PWM_Green.c ****         /* Set other values from customizer */
  67:Generated_Source\PSoC4/PWM_Green.c ****         PWM_Green_WritePeriod(PWM_Green_TC_PERIOD_VALUE );
  68:Generated_Source\PSoC4/PWM_Green.c **** 
  69:Generated_Source\PSoC4/PWM_Green.c ****         #if (PWM_Green__COMPARE == PWM_Green_TC_COMP_CAP_MODE)
  70:Generated_Source\PSoC4/PWM_Green.c ****             PWM_Green_WriteCompare(PWM_Green_TC_COMPARE_VALUE);
  71:Generated_Source\PSoC4/PWM_Green.c **** 
ARM GAS  C:\Users\JOSEAN~1\AppData\Local\Temp\ccll5T2D.s 			page 3


  72:Generated_Source\PSoC4/PWM_Green.c ****             #if (1u == PWM_Green_TC_COMPARE_SWAP)
  73:Generated_Source\PSoC4/PWM_Green.c ****                 PWM_Green_SetCompareSwap(1u);
  74:Generated_Source\PSoC4/PWM_Green.c ****                 PWM_Green_WriteCompareBuf(PWM_Green_TC_COMPARE_BUF_VALUE);
  75:Generated_Source\PSoC4/PWM_Green.c ****             #endif  /* (1u == PWM_Green_TC_COMPARE_SWAP) */
  76:Generated_Source\PSoC4/PWM_Green.c ****         #endif  /* (PWM_Green__COMPARE == PWM_Green_TC_COMP_CAP_MODE) */
  77:Generated_Source\PSoC4/PWM_Green.c **** 
  78:Generated_Source\PSoC4/PWM_Green.c ****         /* Initialize counter value */
  79:Generated_Source\PSoC4/PWM_Green.c ****         #if (PWM_Green_CY_TCPWM_V2 && PWM_Green_TIMER_UPDOWN_CNT_USED && !PWM_Green_CY_TCPWM_4000)
  80:Generated_Source\PSoC4/PWM_Green.c ****             PWM_Green_WriteCounter(1u);
  81:Generated_Source\PSoC4/PWM_Green.c ****         #elif(PWM_Green__COUNT_DOWN == PWM_Green_TC_COUNTER_MODE)
  82:Generated_Source\PSoC4/PWM_Green.c ****             PWM_Green_WriteCounter(PWM_Green_TC_PERIOD_VALUE);
  83:Generated_Source\PSoC4/PWM_Green.c ****         #else
  84:Generated_Source\PSoC4/PWM_Green.c ****             PWM_Green_WriteCounter(0u);
  85:Generated_Source\PSoC4/PWM_Green.c ****         #endif /* (PWM_Green_CY_TCPWM_V2 && PWM_Green_TIMER_UPDOWN_CNT_USED && !PWM_Green_CY_TCPWM_
  86:Generated_Source\PSoC4/PWM_Green.c ****     #endif  /* (PWM_Green__TIMER == PWM_Green_CONFIG) */
  87:Generated_Source\PSoC4/PWM_Green.c **** 
  88:Generated_Source\PSoC4/PWM_Green.c ****     #if (PWM_Green__PWM_SEL == PWM_Green_CONFIG)
  89:Generated_Source\PSoC4/PWM_Green.c ****         PWM_Green_CONTROL_REG = PWM_Green_CTRL_PWM_BASE_CONFIG;
  44              		.loc 1 89 0
  45 0004 104B     		ldr	r3, .L2
  46 0006 8222     		movs	r2, #130
  47 0008 D204     		lsls	r2, r2, #19
  48 000a 1A60     		str	r2, [r3]
  90:Generated_Source\PSoC4/PWM_Green.c **** 
  91:Generated_Source\PSoC4/PWM_Green.c ****         #if (PWM_Green__PWM_PR == PWM_Green_PWM_MODE)
  92:Generated_Source\PSoC4/PWM_Green.c ****             PWM_Green_CONTROL_REG |= PWM_Green_CTRL_PWM_RUN_MODE;
  93:Generated_Source\PSoC4/PWM_Green.c ****             PWM_Green_WriteCounter(PWM_Green_PWM_PR_INIT_VALUE);
  94:Generated_Source\PSoC4/PWM_Green.c ****         #else
  95:Generated_Source\PSoC4/PWM_Green.c ****             PWM_Green_CONTROL_REG |= PWM_Green_CTRL_PWM_ALIGN | PWM_Green_CTRL_PWM_KILL_EVENT;
  49              		.loc 1 95 0
  50 000c 0E4B     		ldr	r3, .L2
  51 000e 0E4A     		ldr	r2, .L2
  52 0010 1268     		ldr	r2, [r2]
  53 0012 1A60     		str	r2, [r3]
  96:Generated_Source\PSoC4/PWM_Green.c ****             
  97:Generated_Source\PSoC4/PWM_Green.c ****             /* Initialize counter value */
  98:Generated_Source\PSoC4/PWM_Green.c ****             #if (PWM_Green_CY_TCPWM_V2 && PWM_Green_PWM_UPDOWN_CNT_USED && !PWM_Green_CY_TCPWM_4000
  99:Generated_Source\PSoC4/PWM_Green.c ****                 PWM_Green_WriteCounter(1u);
 100:Generated_Source\PSoC4/PWM_Green.c ****             #elif (PWM_Green__RIGHT == PWM_Green_PWM_ALIGN)
 101:Generated_Source\PSoC4/PWM_Green.c ****                 PWM_Green_WriteCounter(PWM_Green_PWM_PERIOD_VALUE);
 102:Generated_Source\PSoC4/PWM_Green.c ****             #else 
 103:Generated_Source\PSoC4/PWM_Green.c ****                 PWM_Green_WriteCounter(0u);
  54              		.loc 1 103 0
  55 0014 0020     		movs	r0, #0
  56 0016 FFF7FEFF 		bl	PWM_Green_WriteCounter
 104:Generated_Source\PSoC4/PWM_Green.c ****             #endif  /* (PWM_Green_CY_TCPWM_V2 && PWM_Green_PWM_UPDOWN_CNT_USED && !PWM_Green_CY_TCP
 105:Generated_Source\PSoC4/PWM_Green.c ****         #endif  /* (PWM_Green__PWM_PR == PWM_Green_PWM_MODE) */
 106:Generated_Source\PSoC4/PWM_Green.c **** 
 107:Generated_Source\PSoC4/PWM_Green.c ****         #if (PWM_Green__PWM_DT == PWM_Green_PWM_MODE)
 108:Generated_Source\PSoC4/PWM_Green.c ****             PWM_Green_CONTROL_REG |= PWM_Green_CTRL_PWM_DEAD_TIME_CYCLE;
 109:Generated_Source\PSoC4/PWM_Green.c ****         #endif  /* (PWM_Green__PWM_DT == PWM_Green_PWM_MODE) */
 110:Generated_Source\PSoC4/PWM_Green.c **** 
 111:Generated_Source\PSoC4/PWM_Green.c ****         #if (PWM_Green__PWM == PWM_Green_PWM_MODE)
 112:Generated_Source\PSoC4/PWM_Green.c ****             PWM_Green_CONTROL_REG |= PWM_Green_CTRL_PWM_PRESCALER;
  57              		.loc 1 112 0
  58 001a 0B4B     		ldr	r3, .L2
  59 001c 0A4A     		ldr	r2, .L2
ARM GAS  C:\Users\JOSEAN~1\AppData\Local\Temp\ccll5T2D.s 			page 4


  60 001e 1268     		ldr	r2, [r2]
  61 0020 1A60     		str	r2, [r3]
 113:Generated_Source\PSoC4/PWM_Green.c ****         #endif  /* (PWM_Green__PWM == PWM_Green_PWM_MODE) */
 114:Generated_Source\PSoC4/PWM_Green.c **** 
 115:Generated_Source\PSoC4/PWM_Green.c ****         /* Set values from customizer to CTRL1 */
 116:Generated_Source\PSoC4/PWM_Green.c ****         PWM_Green_TRIG_CONTROL1_REG  = PWM_Green_PWM_SIGNALS_MODES;
  62              		.loc 1 116 0
  63 0022 0A4B     		ldr	r3, .L2+4
  64 0024 C322     		movs	r2, #195
  65 0026 9200     		lsls	r2, r2, #2
  66 0028 1A60     		str	r2, [r3]
 117:Generated_Source\PSoC4/PWM_Green.c ****     
 118:Generated_Source\PSoC4/PWM_Green.c ****         /* Set values from customizer to INTR */
 119:Generated_Source\PSoC4/PWM_Green.c ****         PWM_Green_SetInterruptMode(PWM_Green_PWM_INTERRUPT_MASK);
  67              		.loc 1 119 0
  68 002a 0120     		movs	r0, #1
  69 002c FFF7FEFF 		bl	PWM_Green_SetInterruptMode
 120:Generated_Source\PSoC4/PWM_Green.c **** 
 121:Generated_Source\PSoC4/PWM_Green.c ****         /* Set values from customizer to CTRL2 */
 122:Generated_Source\PSoC4/PWM_Green.c ****         #if (PWM_Green__PWM_PR == PWM_Green_PWM_MODE)
 123:Generated_Source\PSoC4/PWM_Green.c ****             PWM_Green_TRIG_CONTROL2_REG =
 124:Generated_Source\PSoC4/PWM_Green.c ****                     (PWM_Green_CC_MATCH_NO_CHANGE    |
 125:Generated_Source\PSoC4/PWM_Green.c ****                     PWM_Green_OVERLOW_NO_CHANGE      |
 126:Generated_Source\PSoC4/PWM_Green.c ****                     PWM_Green_UNDERFLOW_NO_CHANGE);
 127:Generated_Source\PSoC4/PWM_Green.c ****         #else
 128:Generated_Source\PSoC4/PWM_Green.c ****             #if (PWM_Green__LEFT == PWM_Green_PWM_ALIGN)
 129:Generated_Source\PSoC4/PWM_Green.c ****                 PWM_Green_TRIG_CONTROL2_REG = PWM_Green_PWM_MODE_LEFT;
  70              		.loc 1 129 0
  71 0030 074B     		ldr	r3, .L2+8
  72 0032 3122     		movs	r2, #49
  73 0034 1A60     		str	r2, [r3]
 130:Generated_Source\PSoC4/PWM_Green.c ****             #endif  /* ( PWM_Green_PWM_LEFT == PWM_Green_PWM_ALIGN) */
 131:Generated_Source\PSoC4/PWM_Green.c **** 
 132:Generated_Source\PSoC4/PWM_Green.c ****             #if (PWM_Green__RIGHT == PWM_Green_PWM_ALIGN)
 133:Generated_Source\PSoC4/PWM_Green.c ****                 PWM_Green_TRIG_CONTROL2_REG = PWM_Green_PWM_MODE_RIGHT;
 134:Generated_Source\PSoC4/PWM_Green.c ****             #endif  /* ( PWM_Green_PWM_RIGHT == PWM_Green_PWM_ALIGN) */
 135:Generated_Source\PSoC4/PWM_Green.c **** 
 136:Generated_Source\PSoC4/PWM_Green.c ****             #if (PWM_Green__CENTER == PWM_Green_PWM_ALIGN)
 137:Generated_Source\PSoC4/PWM_Green.c ****                 PWM_Green_TRIG_CONTROL2_REG = PWM_Green_PWM_MODE_CENTER;
 138:Generated_Source\PSoC4/PWM_Green.c ****             #endif  /* ( PWM_Green_PWM_CENTER == PWM_Green_PWM_ALIGN) */
 139:Generated_Source\PSoC4/PWM_Green.c **** 
 140:Generated_Source\PSoC4/PWM_Green.c ****             #if (PWM_Green__ASYMMETRIC == PWM_Green_PWM_ALIGN)
 141:Generated_Source\PSoC4/PWM_Green.c ****                 PWM_Green_TRIG_CONTROL2_REG = PWM_Green_PWM_MODE_ASYM;
 142:Generated_Source\PSoC4/PWM_Green.c ****             #endif  /* (PWM_Green__ASYMMETRIC == PWM_Green_PWM_ALIGN) */
 143:Generated_Source\PSoC4/PWM_Green.c ****         #endif  /* (PWM_Green__PWM_PR == PWM_Green_PWM_MODE) */
 144:Generated_Source\PSoC4/PWM_Green.c **** 
 145:Generated_Source\PSoC4/PWM_Green.c ****         /* Set other values from customizer */
 146:Generated_Source\PSoC4/PWM_Green.c ****         PWM_Green_WritePeriod(PWM_Green_PWM_PERIOD_VALUE );
  74              		.loc 1 146 0
  75 0036 FF20     		movs	r0, #255
  76 0038 FFF7FEFF 		bl	PWM_Green_WritePeriod
 147:Generated_Source\PSoC4/PWM_Green.c ****         PWM_Green_WriteCompare(PWM_Green_PWM_COMPARE_VALUE);
  77              		.loc 1 147 0
  78 003c 0020     		movs	r0, #0
  79 003e FFF7FEFF 		bl	PWM_Green_WriteCompare
 148:Generated_Source\PSoC4/PWM_Green.c **** 
 149:Generated_Source\PSoC4/PWM_Green.c ****         #if (1u == PWM_Green_PWM_COMPARE_SWAP)
ARM GAS  C:\Users\JOSEAN~1\AppData\Local\Temp\ccll5T2D.s 			page 5


 150:Generated_Source\PSoC4/PWM_Green.c ****             PWM_Green_SetCompareSwap(1u);
 151:Generated_Source\PSoC4/PWM_Green.c ****             PWM_Green_WriteCompareBuf(PWM_Green_PWM_COMPARE_BUF_VALUE);
 152:Generated_Source\PSoC4/PWM_Green.c ****         #endif  /* (1u == PWM_Green_PWM_COMPARE_SWAP) */
 153:Generated_Source\PSoC4/PWM_Green.c **** 
 154:Generated_Source\PSoC4/PWM_Green.c ****         #if (1u == PWM_Green_PWM_PERIOD_SWAP)
 155:Generated_Source\PSoC4/PWM_Green.c ****             PWM_Green_SetPeriodSwap(1u);
 156:Generated_Source\PSoC4/PWM_Green.c ****             PWM_Green_WritePeriodBuf(PWM_Green_PWM_PERIOD_BUF_VALUE);
 157:Generated_Source\PSoC4/PWM_Green.c ****         #endif  /* (1u == PWM_Green_PWM_PERIOD_SWAP) */
 158:Generated_Source\PSoC4/PWM_Green.c ****     #endif  /* (PWM_Green__PWM_SEL == PWM_Green_CONFIG) */
 159:Generated_Source\PSoC4/PWM_Green.c ****     
 160:Generated_Source\PSoC4/PWM_Green.c **** }
  80              		.loc 1 160 0
  81 0042 C046     		nop
  82 0044 BD46     		mov	sp, r7
  83              		@ sp needed
  84 0046 80BD     		pop	{r7, pc}
  85              	.L3:
  86              		.align	2
  87              	.L2:
  88 0048 00010540 		.word	1074069760
  89 004c 24010540 		.word	1074069796
  90 0050 28010540 		.word	1074069800
  91              		.cfi_endproc
  92              	.LFE0:
  93              		.size	PWM_Green_Init, .-PWM_Green_Init
  94              		.section	.text.PWM_Green_Enable,"ax",%progbits
  95              		.align	2
  96              		.global	PWM_Green_Enable
  97              		.code	16
  98              		.thumb_func
  99              		.type	PWM_Green_Enable, %function
 100              	PWM_Green_Enable:
 101              	.LFB1:
 161:Generated_Source\PSoC4/PWM_Green.c **** 
 162:Generated_Source\PSoC4/PWM_Green.c **** 
 163:Generated_Source\PSoC4/PWM_Green.c **** /*******************************************************************************
 164:Generated_Source\PSoC4/PWM_Green.c **** * Function Name: PWM_Green_Enable
 165:Generated_Source\PSoC4/PWM_Green.c **** ********************************************************************************
 166:Generated_Source\PSoC4/PWM_Green.c **** *
 167:Generated_Source\PSoC4/PWM_Green.c **** * Summary:
 168:Generated_Source\PSoC4/PWM_Green.c **** *  Enables the PWM_Green.
 169:Generated_Source\PSoC4/PWM_Green.c **** *
 170:Generated_Source\PSoC4/PWM_Green.c **** * Parameters:
 171:Generated_Source\PSoC4/PWM_Green.c **** *  None
 172:Generated_Source\PSoC4/PWM_Green.c **** *
 173:Generated_Source\PSoC4/PWM_Green.c **** * Return:
 174:Generated_Source\PSoC4/PWM_Green.c **** *  None
 175:Generated_Source\PSoC4/PWM_Green.c **** *
 176:Generated_Source\PSoC4/PWM_Green.c **** *******************************************************************************/
 177:Generated_Source\PSoC4/PWM_Green.c **** void PWM_Green_Enable(void)
 178:Generated_Source\PSoC4/PWM_Green.c **** {
 102              		.loc 1 178 0
 103              		.cfi_startproc
 104              		@ args = 0, pretend = 0, frame = 8
 105              		@ frame_needed = 1, uses_anonymous_args = 0
 106 0000 90B5     		push	{r4, r7, lr}
 107              		.cfi_def_cfa_offset 12
ARM GAS  C:\Users\JOSEAN~1\AppData\Local\Temp\ccll5T2D.s 			page 6


 108              		.cfi_offset 4, -12
 109              		.cfi_offset 7, -8
 110              		.cfi_offset 14, -4
 111 0002 83B0     		sub	sp, sp, #12
 112              		.cfi_def_cfa_offset 24
 113 0004 00AF     		add	r7, sp, #0
 114              		.cfi_def_cfa_register 7
 179:Generated_Source\PSoC4/PWM_Green.c ****     uint8 enableInterrupts;
 180:Generated_Source\PSoC4/PWM_Green.c **** 
 181:Generated_Source\PSoC4/PWM_Green.c ****     enableInterrupts = CyEnterCriticalSection();
 115              		.loc 1 181 0
 116 0006 FC1D     		adds	r4, r7, #7
 117 0008 FFF7FEFF 		bl	CyEnterCriticalSection
 118 000c 0300     		movs	r3, r0
 119 000e 2370     		strb	r3, [r4]
 182:Generated_Source\PSoC4/PWM_Green.c ****     PWM_Green_BLOCK_CONTROL_REG |= PWM_Green_MASK;
 120              		.loc 1 182 0
 121 0010 074B     		ldr	r3, .L5
 122 0012 074A     		ldr	r2, .L5
 123 0014 1268     		ldr	r2, [r2]
 124 0016 0121     		movs	r1, #1
 125 0018 0A43     		orrs	r2, r1
 126 001a 1A60     		str	r2, [r3]
 183:Generated_Source\PSoC4/PWM_Green.c ****     CyExitCriticalSection(enableInterrupts);
 127              		.loc 1 183 0
 128 001c FB1D     		adds	r3, r7, #7
 129 001e 1B78     		ldrb	r3, [r3]
 130 0020 1800     		movs	r0, r3
 131 0022 FFF7FEFF 		bl	CyExitCriticalSection
 184:Generated_Source\PSoC4/PWM_Green.c **** 
 185:Generated_Source\PSoC4/PWM_Green.c ****     /* Start Timer or PWM if start input is absent */
 186:Generated_Source\PSoC4/PWM_Green.c ****     #if (PWM_Green__PWM_SEL == PWM_Green_CONFIG)
 187:Generated_Source\PSoC4/PWM_Green.c ****         #if (0u == PWM_Green_PWM_START_SIGNAL_PRESENT)
 188:Generated_Source\PSoC4/PWM_Green.c ****             PWM_Green_TriggerCommand(PWM_Green_MASK, PWM_Green_CMD_START);
 189:Generated_Source\PSoC4/PWM_Green.c ****         #endif /* (0u == PWM_Green_PWM_START_SIGNAL_PRESENT) */
 190:Generated_Source\PSoC4/PWM_Green.c ****     #endif /* (PWM_Green__PWM_SEL == PWM_Green_CONFIG) */
 191:Generated_Source\PSoC4/PWM_Green.c **** 
 192:Generated_Source\PSoC4/PWM_Green.c ****     #if (PWM_Green__TIMER == PWM_Green_CONFIG)
 193:Generated_Source\PSoC4/PWM_Green.c ****         #if (0u == PWM_Green_TC_START_SIGNAL_PRESENT)
 194:Generated_Source\PSoC4/PWM_Green.c ****             PWM_Green_TriggerCommand(PWM_Green_MASK, PWM_Green_CMD_START);
 195:Generated_Source\PSoC4/PWM_Green.c ****         #endif /* (0u == PWM_Green_TC_START_SIGNAL_PRESENT) */
 196:Generated_Source\PSoC4/PWM_Green.c ****     #endif /* (PWM_Green__TIMER == PWM_Green_CONFIG) */
 197:Generated_Source\PSoC4/PWM_Green.c ****     
 198:Generated_Source\PSoC4/PWM_Green.c ****     #if (PWM_Green__QUAD == PWM_Green_CONFIG)
 199:Generated_Source\PSoC4/PWM_Green.c ****         #if (0u != PWM_Green_QUAD_AUTO_START)
 200:Generated_Source\PSoC4/PWM_Green.c ****             PWM_Green_TriggerCommand(PWM_Green_MASK, PWM_Green_CMD_RELOAD);
 201:Generated_Source\PSoC4/PWM_Green.c ****         #endif /* (0u != PWM_Green_QUAD_AUTO_START) */
 202:Generated_Source\PSoC4/PWM_Green.c ****     #endif  /* (PWM_Green__QUAD == PWM_Green_CONFIG) */
 203:Generated_Source\PSoC4/PWM_Green.c **** }
 132              		.loc 1 203 0
 133 0026 C046     		nop
 134 0028 BD46     		mov	sp, r7
 135 002a 03B0     		add	sp, sp, #12
 136              		@ sp needed
 137 002c 90BD     		pop	{r4, r7, pc}
 138              	.L6:
 139 002e C046     		.align	2
ARM GAS  C:\Users\JOSEAN~1\AppData\Local\Temp\ccll5T2D.s 			page 7


 140              	.L5:
 141 0030 00000540 		.word	1074069504
 142              		.cfi_endproc
 143              	.LFE1:
 144              		.size	PWM_Green_Enable, .-PWM_Green_Enable
 145              		.section	.text.PWM_Green_Start,"ax",%progbits
 146              		.align	2
 147              		.global	PWM_Green_Start
 148              		.code	16
 149              		.thumb_func
 150              		.type	PWM_Green_Start, %function
 151              	PWM_Green_Start:
 152              	.LFB2:
 204:Generated_Source\PSoC4/PWM_Green.c **** 
 205:Generated_Source\PSoC4/PWM_Green.c **** 
 206:Generated_Source\PSoC4/PWM_Green.c **** /*******************************************************************************
 207:Generated_Source\PSoC4/PWM_Green.c **** * Function Name: PWM_Green_Start
 208:Generated_Source\PSoC4/PWM_Green.c **** ********************************************************************************
 209:Generated_Source\PSoC4/PWM_Green.c **** *
 210:Generated_Source\PSoC4/PWM_Green.c **** * Summary:
 211:Generated_Source\PSoC4/PWM_Green.c **** *  Initializes the PWM_Green with default customizer
 212:Generated_Source\PSoC4/PWM_Green.c **** *  values when called the first time and enables the PWM_Green.
 213:Generated_Source\PSoC4/PWM_Green.c **** *  For subsequent calls the configuration is left unchanged and the component is
 214:Generated_Source\PSoC4/PWM_Green.c **** *  just enabled.
 215:Generated_Source\PSoC4/PWM_Green.c **** *
 216:Generated_Source\PSoC4/PWM_Green.c **** * Parameters:
 217:Generated_Source\PSoC4/PWM_Green.c **** *  None
 218:Generated_Source\PSoC4/PWM_Green.c **** *
 219:Generated_Source\PSoC4/PWM_Green.c **** * Return:
 220:Generated_Source\PSoC4/PWM_Green.c **** *  None
 221:Generated_Source\PSoC4/PWM_Green.c **** *
 222:Generated_Source\PSoC4/PWM_Green.c **** * Global variables:
 223:Generated_Source\PSoC4/PWM_Green.c **** *  PWM_Green_initVar: global variable is used to indicate initial
 224:Generated_Source\PSoC4/PWM_Green.c **** *  configuration of this component.  The variable is initialized to zero and set
 225:Generated_Source\PSoC4/PWM_Green.c **** *  to 1 the first time PWM_Green_Start() is called. This allows
 226:Generated_Source\PSoC4/PWM_Green.c **** *  enabling/disabling a component without re-initialization in all subsequent
 227:Generated_Source\PSoC4/PWM_Green.c **** *  calls to the PWM_Green_Start() routine.
 228:Generated_Source\PSoC4/PWM_Green.c **** *
 229:Generated_Source\PSoC4/PWM_Green.c **** *******************************************************************************/
 230:Generated_Source\PSoC4/PWM_Green.c **** void PWM_Green_Start(void)
 231:Generated_Source\PSoC4/PWM_Green.c **** {
 153              		.loc 1 231 0
 154              		.cfi_startproc
 155              		@ args = 0, pretend = 0, frame = 0
 156              		@ frame_needed = 1, uses_anonymous_args = 0
 157 0000 80B5     		push	{r7, lr}
 158              		.cfi_def_cfa_offset 8
 159              		.cfi_offset 7, -8
 160              		.cfi_offset 14, -4
 161 0002 00AF     		add	r7, sp, #0
 162              		.cfi_def_cfa_register 7
 232:Generated_Source\PSoC4/PWM_Green.c ****     if (0u == PWM_Green_initVar)
 163              		.loc 1 232 0
 164 0004 064B     		ldr	r3, .L9
 165 0006 1B78     		ldrb	r3, [r3]
 166 0008 002B     		cmp	r3, #0
 167 000a 04D1     		bne	.L8
ARM GAS  C:\Users\JOSEAN~1\AppData\Local\Temp\ccll5T2D.s 			page 8


 233:Generated_Source\PSoC4/PWM_Green.c ****     {
 234:Generated_Source\PSoC4/PWM_Green.c ****         PWM_Green_Init();
 168              		.loc 1 234 0
 169 000c FFF7FEFF 		bl	PWM_Green_Init
 235:Generated_Source\PSoC4/PWM_Green.c ****         PWM_Green_initVar = 1u;
 170              		.loc 1 235 0
 171 0010 034B     		ldr	r3, .L9
 172 0012 0122     		movs	r2, #1
 173 0014 1A70     		strb	r2, [r3]
 174              	.L8:
 236:Generated_Source\PSoC4/PWM_Green.c ****     }
 237:Generated_Source\PSoC4/PWM_Green.c **** 
 238:Generated_Source\PSoC4/PWM_Green.c ****     PWM_Green_Enable();
 175              		.loc 1 238 0
 176 0016 FFF7FEFF 		bl	PWM_Green_Enable
 239:Generated_Source\PSoC4/PWM_Green.c **** }
 177              		.loc 1 239 0
 178 001a C046     		nop
 179 001c BD46     		mov	sp, r7
 180              		@ sp needed
 181 001e 80BD     		pop	{r7, pc}
 182              	.L10:
 183              		.align	2
 184              	.L9:
 185 0020 00000000 		.word	PWM_Green_initVar
 186              		.cfi_endproc
 187              	.LFE2:
 188              		.size	PWM_Green_Start, .-PWM_Green_Start
 189              		.section	.text.PWM_Green_Stop,"ax",%progbits
 190              		.align	2
 191              		.global	PWM_Green_Stop
 192              		.code	16
 193              		.thumb_func
 194              		.type	PWM_Green_Stop, %function
 195              	PWM_Green_Stop:
 196              	.LFB3:
 240:Generated_Source\PSoC4/PWM_Green.c **** 
 241:Generated_Source\PSoC4/PWM_Green.c **** 
 242:Generated_Source\PSoC4/PWM_Green.c **** /*******************************************************************************
 243:Generated_Source\PSoC4/PWM_Green.c **** * Function Name: PWM_Green_Stop
 244:Generated_Source\PSoC4/PWM_Green.c **** ********************************************************************************
 245:Generated_Source\PSoC4/PWM_Green.c **** *
 246:Generated_Source\PSoC4/PWM_Green.c **** * Summary:
 247:Generated_Source\PSoC4/PWM_Green.c **** *  Disables the PWM_Green.
 248:Generated_Source\PSoC4/PWM_Green.c **** *
 249:Generated_Source\PSoC4/PWM_Green.c **** * Parameters:
 250:Generated_Source\PSoC4/PWM_Green.c **** *  None
 251:Generated_Source\PSoC4/PWM_Green.c **** *
 252:Generated_Source\PSoC4/PWM_Green.c **** * Return:
 253:Generated_Source\PSoC4/PWM_Green.c **** *  None
 254:Generated_Source\PSoC4/PWM_Green.c **** *
 255:Generated_Source\PSoC4/PWM_Green.c **** *******************************************************************************/
 256:Generated_Source\PSoC4/PWM_Green.c **** void PWM_Green_Stop(void)
 257:Generated_Source\PSoC4/PWM_Green.c **** {
 197              		.loc 1 257 0
 198              		.cfi_startproc
 199              		@ args = 0, pretend = 0, frame = 8
ARM GAS  C:\Users\JOSEAN~1\AppData\Local\Temp\ccll5T2D.s 			page 9


 200              		@ frame_needed = 1, uses_anonymous_args = 0
 201 0000 90B5     		push	{r4, r7, lr}
 202              		.cfi_def_cfa_offset 12
 203              		.cfi_offset 4, -12
 204              		.cfi_offset 7, -8
 205              		.cfi_offset 14, -4
 206 0002 83B0     		sub	sp, sp, #12
 207              		.cfi_def_cfa_offset 24
 208 0004 00AF     		add	r7, sp, #0
 209              		.cfi_def_cfa_register 7
 258:Generated_Source\PSoC4/PWM_Green.c ****     uint8 enableInterrupts;
 259:Generated_Source\PSoC4/PWM_Green.c **** 
 260:Generated_Source\PSoC4/PWM_Green.c ****     enableInterrupts = CyEnterCriticalSection();
 210              		.loc 1 260 0
 211 0006 FC1D     		adds	r4, r7, #7
 212 0008 FFF7FEFF 		bl	CyEnterCriticalSection
 213 000c 0300     		movs	r3, r0
 214 000e 2370     		strb	r3, [r4]
 261:Generated_Source\PSoC4/PWM_Green.c **** 
 262:Generated_Source\PSoC4/PWM_Green.c ****     PWM_Green_BLOCK_CONTROL_REG &= (uint32)~PWM_Green_MASK;
 215              		.loc 1 262 0
 216 0010 074B     		ldr	r3, .L12
 217 0012 074A     		ldr	r2, .L12
 218 0014 1268     		ldr	r2, [r2]
 219 0016 0121     		movs	r1, #1
 220 0018 8A43     		bics	r2, r1
 221 001a 1A60     		str	r2, [r3]
 263:Generated_Source\PSoC4/PWM_Green.c **** 
 264:Generated_Source\PSoC4/PWM_Green.c ****     CyExitCriticalSection(enableInterrupts);
 222              		.loc 1 264 0
 223 001c FB1D     		adds	r3, r7, #7
 224 001e 1B78     		ldrb	r3, [r3]
 225 0020 1800     		movs	r0, r3
 226 0022 FFF7FEFF 		bl	CyExitCriticalSection
 265:Generated_Source\PSoC4/PWM_Green.c **** }
 227              		.loc 1 265 0
 228 0026 C046     		nop
 229 0028 BD46     		mov	sp, r7
 230 002a 03B0     		add	sp, sp, #12
 231              		@ sp needed
 232 002c 90BD     		pop	{r4, r7, pc}
 233              	.L13:
 234 002e C046     		.align	2
 235              	.L12:
 236 0030 00000540 		.word	1074069504
 237              		.cfi_endproc
 238              	.LFE3:
 239              		.size	PWM_Green_Stop, .-PWM_Green_Stop
 240              		.section	.text.PWM_Green_SetMode,"ax",%progbits
 241              		.align	2
 242              		.global	PWM_Green_SetMode
 243              		.code	16
 244              		.thumb_func
 245              		.type	PWM_Green_SetMode, %function
 246              	PWM_Green_SetMode:
 247              	.LFB4:
 266:Generated_Source\PSoC4/PWM_Green.c **** 
ARM GAS  C:\Users\JOSEAN~1\AppData\Local\Temp\ccll5T2D.s 			page 10


 267:Generated_Source\PSoC4/PWM_Green.c **** 
 268:Generated_Source\PSoC4/PWM_Green.c **** /*******************************************************************************
 269:Generated_Source\PSoC4/PWM_Green.c **** * Function Name: PWM_Green_SetMode
 270:Generated_Source\PSoC4/PWM_Green.c **** ********************************************************************************
 271:Generated_Source\PSoC4/PWM_Green.c **** *
 272:Generated_Source\PSoC4/PWM_Green.c **** * Summary:
 273:Generated_Source\PSoC4/PWM_Green.c **** *  Sets the operation mode of the PWM_Green. This function is used when
 274:Generated_Source\PSoC4/PWM_Green.c **** *  configured as a generic PWM_Green and the actual mode of operation is
 275:Generated_Source\PSoC4/PWM_Green.c **** *  set at runtime. The mode must be set while the component is disabled.
 276:Generated_Source\PSoC4/PWM_Green.c **** *
 277:Generated_Source\PSoC4/PWM_Green.c **** * Parameters:
 278:Generated_Source\PSoC4/PWM_Green.c **** *  mode: Mode for the PWM_Green to operate in
 279:Generated_Source\PSoC4/PWM_Green.c **** *   Values:
 280:Generated_Source\PSoC4/PWM_Green.c **** *   - PWM_Green_MODE_TIMER_COMPARE - Timer / Counter with
 281:Generated_Source\PSoC4/PWM_Green.c **** *                                                 compare capability
 282:Generated_Source\PSoC4/PWM_Green.c **** *         - PWM_Green_MODE_TIMER_CAPTURE - Timer / Counter with
 283:Generated_Source\PSoC4/PWM_Green.c **** *                                                 capture capability
 284:Generated_Source\PSoC4/PWM_Green.c **** *         - PWM_Green_MODE_QUAD - Quadrature decoder
 285:Generated_Source\PSoC4/PWM_Green.c **** *         - PWM_Green_MODE_PWM - PWM
 286:Generated_Source\PSoC4/PWM_Green.c **** *         - PWM_Green_MODE_PWM_DT - PWM with dead time
 287:Generated_Source\PSoC4/PWM_Green.c **** *         - PWM_Green_MODE_PWM_PR - PWM with pseudo random capability
 288:Generated_Source\PSoC4/PWM_Green.c **** *
 289:Generated_Source\PSoC4/PWM_Green.c **** * Return:
 290:Generated_Source\PSoC4/PWM_Green.c **** *  None
 291:Generated_Source\PSoC4/PWM_Green.c **** *
 292:Generated_Source\PSoC4/PWM_Green.c **** *******************************************************************************/
 293:Generated_Source\PSoC4/PWM_Green.c **** void PWM_Green_SetMode(uint32 mode)
 294:Generated_Source\PSoC4/PWM_Green.c **** {
 248              		.loc 1 294 0
 249              		.cfi_startproc
 250              		@ args = 0, pretend = 0, frame = 16
 251              		@ frame_needed = 1, uses_anonymous_args = 0
 252 0000 90B5     		push	{r4, r7, lr}
 253              		.cfi_def_cfa_offset 12
 254              		.cfi_offset 4, -12
 255              		.cfi_offset 7, -8
 256              		.cfi_offset 14, -4
 257 0002 85B0     		sub	sp, sp, #20
 258              		.cfi_def_cfa_offset 32
 259 0004 00AF     		add	r7, sp, #0
 260              		.cfi_def_cfa_register 7
 261 0006 7860     		str	r0, [r7, #4]
 295:Generated_Source\PSoC4/PWM_Green.c ****     uint8 enableInterrupts;
 296:Generated_Source\PSoC4/PWM_Green.c **** 
 297:Generated_Source\PSoC4/PWM_Green.c ****     enableInterrupts = CyEnterCriticalSection();
 262              		.loc 1 297 0
 263 0008 0F23     		movs	r3, #15
 264 000a FC18     		adds	r4, r7, r3
 265 000c FFF7FEFF 		bl	CyEnterCriticalSection
 266 0010 0300     		movs	r3, r0
 267 0012 2370     		strb	r3, [r4]
 298:Generated_Source\PSoC4/PWM_Green.c **** 
 299:Generated_Source\PSoC4/PWM_Green.c ****     PWM_Green_CONTROL_REG &= (uint32)~PWM_Green_MODE_MASK;
 268              		.loc 1 299 0
 269 0014 0A4B     		ldr	r3, .L15
 270 0016 0A4A     		ldr	r2, .L15
 271 0018 1268     		ldr	r2, [r2]
ARM GAS  C:\Users\JOSEAN~1\AppData\Local\Temp\ccll5T2D.s 			page 11


 272 001a 0A49     		ldr	r1, .L15+4
 273 001c 0A40     		ands	r2, r1
 274 001e 1A60     		str	r2, [r3]
 300:Generated_Source\PSoC4/PWM_Green.c ****     PWM_Green_CONTROL_REG |= mode;
 275              		.loc 1 300 0
 276 0020 074B     		ldr	r3, .L15
 277 0022 074A     		ldr	r2, .L15
 278 0024 1168     		ldr	r1, [r2]
 279 0026 7A68     		ldr	r2, [r7, #4]
 280 0028 0A43     		orrs	r2, r1
 281 002a 1A60     		str	r2, [r3]
 301:Generated_Source\PSoC4/PWM_Green.c **** 
 302:Generated_Source\PSoC4/PWM_Green.c ****     CyExitCriticalSection(enableInterrupts);
 282              		.loc 1 302 0
 283 002c 0F23     		movs	r3, #15
 284 002e FB18     		adds	r3, r7, r3
 285 0030 1B78     		ldrb	r3, [r3]
 286 0032 1800     		movs	r0, r3
 287 0034 FFF7FEFF 		bl	CyExitCriticalSection
 303:Generated_Source\PSoC4/PWM_Green.c **** }
 288              		.loc 1 303 0
 289 0038 C046     		nop
 290 003a BD46     		mov	sp, r7
 291 003c 05B0     		add	sp, sp, #20
 292              		@ sp needed
 293 003e 90BD     		pop	{r4, r7, pc}
 294              	.L16:
 295              		.align	2
 296              	.L15:
 297 0040 00010540 		.word	1074069760
 298 0044 FFFFFFF8 		.word	-117440513
 299              		.cfi_endproc
 300              	.LFE4:
 301              		.size	PWM_Green_SetMode, .-PWM_Green_SetMode
 302              		.section	.text.PWM_Green_SetQDMode,"ax",%progbits
 303              		.align	2
 304              		.global	PWM_Green_SetQDMode
 305              		.code	16
 306              		.thumb_func
 307              		.type	PWM_Green_SetQDMode, %function
 308              	PWM_Green_SetQDMode:
 309              	.LFB5:
 304:Generated_Source\PSoC4/PWM_Green.c **** 
 305:Generated_Source\PSoC4/PWM_Green.c **** 
 306:Generated_Source\PSoC4/PWM_Green.c **** /*******************************************************************************
 307:Generated_Source\PSoC4/PWM_Green.c **** * Function Name: PWM_Green_SetQDMode
 308:Generated_Source\PSoC4/PWM_Green.c **** ********************************************************************************
 309:Generated_Source\PSoC4/PWM_Green.c **** *
 310:Generated_Source\PSoC4/PWM_Green.c **** * Summary:
 311:Generated_Source\PSoC4/PWM_Green.c **** *  Sets the the Quadrature Decoder to one of the 3 supported modes.
 312:Generated_Source\PSoC4/PWM_Green.c **** *  Its functionality is only applicable to Quadrature Decoder operation.
 313:Generated_Source\PSoC4/PWM_Green.c **** *
 314:Generated_Source\PSoC4/PWM_Green.c **** * Parameters:
 315:Generated_Source\PSoC4/PWM_Green.c **** *  qdMode: Quadrature Decoder mode
 316:Generated_Source\PSoC4/PWM_Green.c **** *   Values:
 317:Generated_Source\PSoC4/PWM_Green.c **** *         - PWM_Green_MODE_X1 - Counts on phi 1 rising
 318:Generated_Source\PSoC4/PWM_Green.c **** *         - PWM_Green_MODE_X2 - Counts on both edges of phi1 (2x faster)
ARM GAS  C:\Users\JOSEAN~1\AppData\Local\Temp\ccll5T2D.s 			page 12


 319:Generated_Source\PSoC4/PWM_Green.c **** *         - PWM_Green_MODE_X4 - Counts on both edges of phi1 and phi2
 320:Generated_Source\PSoC4/PWM_Green.c **** *                                        (4x faster)
 321:Generated_Source\PSoC4/PWM_Green.c **** *
 322:Generated_Source\PSoC4/PWM_Green.c **** * Return:
 323:Generated_Source\PSoC4/PWM_Green.c **** *  None
 324:Generated_Source\PSoC4/PWM_Green.c **** *
 325:Generated_Source\PSoC4/PWM_Green.c **** *******************************************************************************/
 326:Generated_Source\PSoC4/PWM_Green.c **** void PWM_Green_SetQDMode(uint32 qdMode)
 327:Generated_Source\PSoC4/PWM_Green.c **** {
 310              		.loc 1 327 0
 311              		.cfi_startproc
 312              		@ args = 0, pretend = 0, frame = 16
 313              		@ frame_needed = 1, uses_anonymous_args = 0
 314 0000 90B5     		push	{r4, r7, lr}
 315              		.cfi_def_cfa_offset 12
 316              		.cfi_offset 4, -12
 317              		.cfi_offset 7, -8
 318              		.cfi_offset 14, -4
 319 0002 85B0     		sub	sp, sp, #20
 320              		.cfi_def_cfa_offset 32
 321 0004 00AF     		add	r7, sp, #0
 322              		.cfi_def_cfa_register 7
 323 0006 7860     		str	r0, [r7, #4]
 328:Generated_Source\PSoC4/PWM_Green.c ****     uint8 enableInterrupts;
 329:Generated_Source\PSoC4/PWM_Green.c **** 
 330:Generated_Source\PSoC4/PWM_Green.c ****     enableInterrupts = CyEnterCriticalSection();
 324              		.loc 1 330 0
 325 0008 0F23     		movs	r3, #15
 326 000a FC18     		adds	r4, r7, r3
 327 000c FFF7FEFF 		bl	CyEnterCriticalSection
 328 0010 0300     		movs	r3, r0
 329 0012 2370     		strb	r3, [r4]
 331:Generated_Source\PSoC4/PWM_Green.c **** 
 332:Generated_Source\PSoC4/PWM_Green.c ****     PWM_Green_CONTROL_REG &= (uint32)~PWM_Green_QUAD_MODE_MASK;
 330              		.loc 1 332 0
 331 0014 0A4B     		ldr	r3, .L18
 332 0016 0A4A     		ldr	r2, .L18
 333 0018 1268     		ldr	r2, [r2]
 334 001a 0A49     		ldr	r1, .L18+4
 335 001c 0A40     		ands	r2, r1
 336 001e 1A60     		str	r2, [r3]
 333:Generated_Source\PSoC4/PWM_Green.c ****     PWM_Green_CONTROL_REG |= qdMode;
 337              		.loc 1 333 0
 338 0020 074B     		ldr	r3, .L18
 339 0022 074A     		ldr	r2, .L18
 340 0024 1168     		ldr	r1, [r2]
 341 0026 7A68     		ldr	r2, [r7, #4]
 342 0028 0A43     		orrs	r2, r1
 343 002a 1A60     		str	r2, [r3]
 334:Generated_Source\PSoC4/PWM_Green.c **** 
 335:Generated_Source\PSoC4/PWM_Green.c ****     CyExitCriticalSection(enableInterrupts);
 344              		.loc 1 335 0
 345 002c 0F23     		movs	r3, #15
 346 002e FB18     		adds	r3, r7, r3
 347 0030 1B78     		ldrb	r3, [r3]
 348 0032 1800     		movs	r0, r3
 349 0034 FFF7FEFF 		bl	CyExitCriticalSection
ARM GAS  C:\Users\JOSEAN~1\AppData\Local\Temp\ccll5T2D.s 			page 13


 336:Generated_Source\PSoC4/PWM_Green.c **** }
 350              		.loc 1 336 0
 351 0038 C046     		nop
 352 003a BD46     		mov	sp, r7
 353 003c 05B0     		add	sp, sp, #20
 354              		@ sp needed
 355 003e 90BD     		pop	{r4, r7, pc}
 356              	.L19:
 357              		.align	2
 358              	.L18:
 359 0040 00010540 		.word	1074069760
 360 0044 FFFF8FFF 		.word	-7340033
 361              		.cfi_endproc
 362              	.LFE5:
 363              		.size	PWM_Green_SetQDMode, .-PWM_Green_SetQDMode
 364              		.section	.text.PWM_Green_SetPrescaler,"ax",%progbits
 365              		.align	2
 366              		.global	PWM_Green_SetPrescaler
 367              		.code	16
 368              		.thumb_func
 369              		.type	PWM_Green_SetPrescaler, %function
 370              	PWM_Green_SetPrescaler:
 371              	.LFB6:
 337:Generated_Source\PSoC4/PWM_Green.c **** 
 338:Generated_Source\PSoC4/PWM_Green.c **** 
 339:Generated_Source\PSoC4/PWM_Green.c **** /*******************************************************************************
 340:Generated_Source\PSoC4/PWM_Green.c **** * Function Name: PWM_Green_SetPrescaler
 341:Generated_Source\PSoC4/PWM_Green.c **** ********************************************************************************
 342:Generated_Source\PSoC4/PWM_Green.c **** *
 343:Generated_Source\PSoC4/PWM_Green.c **** * Summary:
 344:Generated_Source\PSoC4/PWM_Green.c **** *  Sets the prescaler value that is applied to the clock input.  Not applicable
 345:Generated_Source\PSoC4/PWM_Green.c **** *  to a PWM with the dead time mode or Quadrature Decoder mode.
 346:Generated_Source\PSoC4/PWM_Green.c **** *
 347:Generated_Source\PSoC4/PWM_Green.c **** * Parameters:
 348:Generated_Source\PSoC4/PWM_Green.c **** *  prescaler: Prescaler divider value
 349:Generated_Source\PSoC4/PWM_Green.c **** *   Values:
 350:Generated_Source\PSoC4/PWM_Green.c **** *         - PWM_Green_PRESCALE_DIVBY1    - Divide by 1 (no prescaling)
 351:Generated_Source\PSoC4/PWM_Green.c **** *         - PWM_Green_PRESCALE_DIVBY2    - Divide by 2
 352:Generated_Source\PSoC4/PWM_Green.c **** *         - PWM_Green_PRESCALE_DIVBY4    - Divide by 4
 353:Generated_Source\PSoC4/PWM_Green.c **** *         - PWM_Green_PRESCALE_DIVBY8    - Divide by 8
 354:Generated_Source\PSoC4/PWM_Green.c **** *         - PWM_Green_PRESCALE_DIVBY16   - Divide by 16
 355:Generated_Source\PSoC4/PWM_Green.c **** *         - PWM_Green_PRESCALE_DIVBY32   - Divide by 32
 356:Generated_Source\PSoC4/PWM_Green.c **** *         - PWM_Green_PRESCALE_DIVBY64   - Divide by 64
 357:Generated_Source\PSoC4/PWM_Green.c **** *         - PWM_Green_PRESCALE_DIVBY128  - Divide by 128
 358:Generated_Source\PSoC4/PWM_Green.c **** *
 359:Generated_Source\PSoC4/PWM_Green.c **** * Return:
 360:Generated_Source\PSoC4/PWM_Green.c **** *  None
 361:Generated_Source\PSoC4/PWM_Green.c **** *
 362:Generated_Source\PSoC4/PWM_Green.c **** *******************************************************************************/
 363:Generated_Source\PSoC4/PWM_Green.c **** void PWM_Green_SetPrescaler(uint32 prescaler)
 364:Generated_Source\PSoC4/PWM_Green.c **** {
 372              		.loc 1 364 0
 373              		.cfi_startproc
 374              		@ args = 0, pretend = 0, frame = 16
 375              		@ frame_needed = 1, uses_anonymous_args = 0
 376 0000 90B5     		push	{r4, r7, lr}
 377              		.cfi_def_cfa_offset 12
ARM GAS  C:\Users\JOSEAN~1\AppData\Local\Temp\ccll5T2D.s 			page 14


 378              		.cfi_offset 4, -12
 379              		.cfi_offset 7, -8
 380              		.cfi_offset 14, -4
 381 0002 85B0     		sub	sp, sp, #20
 382              		.cfi_def_cfa_offset 32
 383 0004 00AF     		add	r7, sp, #0
 384              		.cfi_def_cfa_register 7
 385 0006 7860     		str	r0, [r7, #4]
 365:Generated_Source\PSoC4/PWM_Green.c ****     uint8 enableInterrupts;
 366:Generated_Source\PSoC4/PWM_Green.c **** 
 367:Generated_Source\PSoC4/PWM_Green.c ****     enableInterrupts = CyEnterCriticalSection();
 386              		.loc 1 367 0
 387 0008 0F23     		movs	r3, #15
 388 000a FC18     		adds	r4, r7, r3
 389 000c FFF7FEFF 		bl	CyEnterCriticalSection
 390 0010 0300     		movs	r3, r0
 391 0012 2370     		strb	r3, [r4]
 368:Generated_Source\PSoC4/PWM_Green.c **** 
 369:Generated_Source\PSoC4/PWM_Green.c ****     PWM_Green_CONTROL_REG &= (uint32)~PWM_Green_PRESCALER_MASK;
 392              		.loc 1 369 0
 393 0014 0A4B     		ldr	r3, .L21
 394 0016 0A4A     		ldr	r2, .L21
 395 0018 1268     		ldr	r2, [r2]
 396 001a 0A49     		ldr	r1, .L21+4
 397 001c 0A40     		ands	r2, r1
 398 001e 1A60     		str	r2, [r3]
 370:Generated_Source\PSoC4/PWM_Green.c ****     PWM_Green_CONTROL_REG |= prescaler;
 399              		.loc 1 370 0
 400 0020 074B     		ldr	r3, .L21
 401 0022 074A     		ldr	r2, .L21
 402 0024 1168     		ldr	r1, [r2]
 403 0026 7A68     		ldr	r2, [r7, #4]
 404 0028 0A43     		orrs	r2, r1
 405 002a 1A60     		str	r2, [r3]
 371:Generated_Source\PSoC4/PWM_Green.c **** 
 372:Generated_Source\PSoC4/PWM_Green.c ****     CyExitCriticalSection(enableInterrupts);
 406              		.loc 1 372 0
 407 002c 0F23     		movs	r3, #15
 408 002e FB18     		adds	r3, r7, r3
 409 0030 1B78     		ldrb	r3, [r3]
 410 0032 1800     		movs	r0, r3
 411 0034 FFF7FEFF 		bl	CyExitCriticalSection
 373:Generated_Source\PSoC4/PWM_Green.c **** }
 412              		.loc 1 373 0
 413 0038 C046     		nop
 414 003a BD46     		mov	sp, r7
 415 003c 05B0     		add	sp, sp, #20
 416              		@ sp needed
 417 003e 90BD     		pop	{r4, r7, pc}
 418              	.L22:
 419              		.align	2
 420              	.L21:
 421 0040 00010540 		.word	1074069760
 422 0044 FF00FFFF 		.word	-65281
 423              		.cfi_endproc
 424              	.LFE6:
 425              		.size	PWM_Green_SetPrescaler, .-PWM_Green_SetPrescaler
ARM GAS  C:\Users\JOSEAN~1\AppData\Local\Temp\ccll5T2D.s 			page 15


 426              		.section	.text.PWM_Green_SetOneShot,"ax",%progbits
 427              		.align	2
 428              		.global	PWM_Green_SetOneShot
 429              		.code	16
 430              		.thumb_func
 431              		.type	PWM_Green_SetOneShot, %function
 432              	PWM_Green_SetOneShot:
 433              	.LFB7:
 374:Generated_Source\PSoC4/PWM_Green.c **** 
 375:Generated_Source\PSoC4/PWM_Green.c **** 
 376:Generated_Source\PSoC4/PWM_Green.c **** /*******************************************************************************
 377:Generated_Source\PSoC4/PWM_Green.c **** * Function Name: PWM_Green_SetOneShot
 378:Generated_Source\PSoC4/PWM_Green.c **** ********************************************************************************
 379:Generated_Source\PSoC4/PWM_Green.c **** *
 380:Generated_Source\PSoC4/PWM_Green.c **** * Summary:
 381:Generated_Source\PSoC4/PWM_Green.c **** *  Writes the register that controls whether the PWM_Green runs
 382:Generated_Source\PSoC4/PWM_Green.c **** *  continuously or stops when terminal count is reached.  By default the
 383:Generated_Source\PSoC4/PWM_Green.c **** *  PWM_Green operates in the continuous mode.
 384:Generated_Source\PSoC4/PWM_Green.c **** *
 385:Generated_Source\PSoC4/PWM_Green.c **** * Parameters:
 386:Generated_Source\PSoC4/PWM_Green.c **** *  oneShotEnable
 387:Generated_Source\PSoC4/PWM_Green.c **** *   Values:
 388:Generated_Source\PSoC4/PWM_Green.c **** *     - 0 - Continuous
 389:Generated_Source\PSoC4/PWM_Green.c **** *     - 1 - Enable One Shot
 390:Generated_Source\PSoC4/PWM_Green.c **** *
 391:Generated_Source\PSoC4/PWM_Green.c **** * Return:
 392:Generated_Source\PSoC4/PWM_Green.c **** *  None
 393:Generated_Source\PSoC4/PWM_Green.c **** *
 394:Generated_Source\PSoC4/PWM_Green.c **** *******************************************************************************/
 395:Generated_Source\PSoC4/PWM_Green.c **** void PWM_Green_SetOneShot(uint32 oneShotEnable)
 396:Generated_Source\PSoC4/PWM_Green.c **** {
 434              		.loc 1 396 0
 435              		.cfi_startproc
 436              		@ args = 0, pretend = 0, frame = 16
 437              		@ frame_needed = 1, uses_anonymous_args = 0
 438 0000 90B5     		push	{r4, r7, lr}
 439              		.cfi_def_cfa_offset 12
 440              		.cfi_offset 4, -12
 441              		.cfi_offset 7, -8
 442              		.cfi_offset 14, -4
 443 0002 85B0     		sub	sp, sp, #20
 444              		.cfi_def_cfa_offset 32
 445 0004 00AF     		add	r7, sp, #0
 446              		.cfi_def_cfa_register 7
 447 0006 7860     		str	r0, [r7, #4]
 397:Generated_Source\PSoC4/PWM_Green.c ****     uint8 enableInterrupts;
 398:Generated_Source\PSoC4/PWM_Green.c **** 
 399:Generated_Source\PSoC4/PWM_Green.c ****     enableInterrupts = CyEnterCriticalSection();
 448              		.loc 1 399 0
 449 0008 0F23     		movs	r3, #15
 450 000a FC18     		adds	r4, r7, r3
 451 000c FFF7FEFF 		bl	CyEnterCriticalSection
 452 0010 0300     		movs	r3, r0
 453 0012 2370     		strb	r3, [r4]
 400:Generated_Source\PSoC4/PWM_Green.c **** 
 401:Generated_Source\PSoC4/PWM_Green.c ****     PWM_Green_CONTROL_REG &= (uint32)~PWM_Green_ONESHOT_MASK;
 454              		.loc 1 401 0
ARM GAS  C:\Users\JOSEAN~1\AppData\Local\Temp\ccll5T2D.s 			page 16


 455 0014 0C4B     		ldr	r3, .L24
 456 0016 0C4A     		ldr	r2, .L24
 457 0018 1268     		ldr	r2, [r2]
 458 001a 0C49     		ldr	r1, .L24+4
 459 001c 0A40     		ands	r2, r1
 460 001e 1A60     		str	r2, [r3]
 402:Generated_Source\PSoC4/PWM_Green.c ****     PWM_Green_CONTROL_REG |= ((uint32)((oneShotEnable & PWM_Green_1BIT_MASK) <<
 461              		.loc 1 402 0
 462 0020 094B     		ldr	r3, .L24
 463 0022 094A     		ldr	r2, .L24
 464 0024 1168     		ldr	r1, [r2]
 465 0026 7A68     		ldr	r2, [r7, #4]
 466 0028 9004     		lsls	r0, r2, #18
 467 002a 8022     		movs	r2, #128
 468 002c D202     		lsls	r2, r2, #11
 469 002e 0240     		ands	r2, r0
 470 0030 0A43     		orrs	r2, r1
 471 0032 1A60     		str	r2, [r3]
 403:Generated_Source\PSoC4/PWM_Green.c ****                                                                PWM_Green_ONESHOT_SHIFT));
 404:Generated_Source\PSoC4/PWM_Green.c **** 
 405:Generated_Source\PSoC4/PWM_Green.c ****     CyExitCriticalSection(enableInterrupts);
 472              		.loc 1 405 0
 473 0034 0F23     		movs	r3, #15
 474 0036 FB18     		adds	r3, r7, r3
 475 0038 1B78     		ldrb	r3, [r3]
 476 003a 1800     		movs	r0, r3
 477 003c FFF7FEFF 		bl	CyExitCriticalSection
 406:Generated_Source\PSoC4/PWM_Green.c **** }
 478              		.loc 1 406 0
 479 0040 C046     		nop
 480 0042 BD46     		mov	sp, r7
 481 0044 05B0     		add	sp, sp, #20
 482              		@ sp needed
 483 0046 90BD     		pop	{r4, r7, pc}
 484              	.L25:
 485              		.align	2
 486              	.L24:
 487 0048 00010540 		.word	1074069760
 488 004c FFFFFBFF 		.word	-262145
 489              		.cfi_endproc
 490              	.LFE7:
 491              		.size	PWM_Green_SetOneShot, .-PWM_Green_SetOneShot
 492              		.section	.text.PWM_Green_SetPWMMode,"ax",%progbits
 493              		.align	2
 494              		.global	PWM_Green_SetPWMMode
 495              		.code	16
 496              		.thumb_func
 497              		.type	PWM_Green_SetPWMMode, %function
 498              	PWM_Green_SetPWMMode:
 499              	.LFB8:
 407:Generated_Source\PSoC4/PWM_Green.c **** 
 408:Generated_Source\PSoC4/PWM_Green.c **** 
 409:Generated_Source\PSoC4/PWM_Green.c **** /*******************************************************************************
 410:Generated_Source\PSoC4/PWM_Green.c **** * Function Name: PWM_Green_SetPWMMode
 411:Generated_Source\PSoC4/PWM_Green.c **** ********************************************************************************
 412:Generated_Source\PSoC4/PWM_Green.c **** *
 413:Generated_Source\PSoC4/PWM_Green.c **** * Summary:
ARM GAS  C:\Users\JOSEAN~1\AppData\Local\Temp\ccll5T2D.s 			page 17


 414:Generated_Source\PSoC4/PWM_Green.c **** *  Writes the control register that determines what mode of operation the PWM
 415:Generated_Source\PSoC4/PWM_Green.c **** *  output lines are driven in.  There is a setting for what to do on a
 416:Generated_Source\PSoC4/PWM_Green.c **** *  comparison match (CC_MATCH), on an overflow (OVERFLOW) and on an underflow
 417:Generated_Source\PSoC4/PWM_Green.c **** *  (UNDERFLOW).  The value for each of the three must be ORed together to form
 418:Generated_Source\PSoC4/PWM_Green.c **** *  the mode.
 419:Generated_Source\PSoC4/PWM_Green.c **** *
 420:Generated_Source\PSoC4/PWM_Green.c **** * Parameters:
 421:Generated_Source\PSoC4/PWM_Green.c **** *  modeMask: A combination of three mode settings.  Mask must include a value
 422:Generated_Source\PSoC4/PWM_Green.c **** *  for each of the three or use one of the preconfigured PWM settings.
 423:Generated_Source\PSoC4/PWM_Green.c **** *   Values:
 424:Generated_Source\PSoC4/PWM_Green.c **** *     - CC_MATCH_SET        - Set on comparison match
 425:Generated_Source\PSoC4/PWM_Green.c **** *     - CC_MATCH_CLEAR      - Clear on comparison match
 426:Generated_Source\PSoC4/PWM_Green.c **** *     - CC_MATCH_INVERT     - Invert on comparison match
 427:Generated_Source\PSoC4/PWM_Green.c **** *     - CC_MATCH_NO_CHANGE  - No change on comparison match
 428:Generated_Source\PSoC4/PWM_Green.c **** *     - OVERLOW_SET         - Set on overflow
 429:Generated_Source\PSoC4/PWM_Green.c **** *     - OVERLOW_CLEAR       - Clear on  overflow
 430:Generated_Source\PSoC4/PWM_Green.c **** *     - OVERLOW_INVERT      - Invert on overflow
 431:Generated_Source\PSoC4/PWM_Green.c **** *     - OVERLOW_NO_CHANGE   - No change on overflow
 432:Generated_Source\PSoC4/PWM_Green.c **** *     - UNDERFLOW_SET       - Set on underflow
 433:Generated_Source\PSoC4/PWM_Green.c **** *     - UNDERFLOW_CLEAR     - Clear on underflow
 434:Generated_Source\PSoC4/PWM_Green.c **** *     - UNDERFLOW_INVERT    - Invert on underflow
 435:Generated_Source\PSoC4/PWM_Green.c **** *     - UNDERFLOW_NO_CHANGE - No change on underflow
 436:Generated_Source\PSoC4/PWM_Green.c **** *     - PWM_MODE_LEFT       - Setting for left aligned PWM.  Should be combined
 437:Generated_Source\PSoC4/PWM_Green.c **** *                             with up counting mode
 438:Generated_Source\PSoC4/PWM_Green.c **** *     - PWM_MODE_RIGHT      - Setting for right aligned PWM.  Should be combined
 439:Generated_Source\PSoC4/PWM_Green.c **** *                             with down counting mode
 440:Generated_Source\PSoC4/PWM_Green.c **** *     - PWM_MODE_CENTER     - Setting for center aligned PWM.  Should be
 441:Generated_Source\PSoC4/PWM_Green.c **** *                             combined with up/down 0 mode
 442:Generated_Source\PSoC4/PWM_Green.c **** *     - PWM_MODE_ASYM       - Setting for asymmetric PWM.  Should be combined
 443:Generated_Source\PSoC4/PWM_Green.c **** *                             with up/down 1 mode
 444:Generated_Source\PSoC4/PWM_Green.c **** *
 445:Generated_Source\PSoC4/PWM_Green.c **** * Return:
 446:Generated_Source\PSoC4/PWM_Green.c **** *  None
 447:Generated_Source\PSoC4/PWM_Green.c **** *
 448:Generated_Source\PSoC4/PWM_Green.c **** *******************************************************************************/
 449:Generated_Source\PSoC4/PWM_Green.c **** void PWM_Green_SetPWMMode(uint32 modeMask)
 450:Generated_Source\PSoC4/PWM_Green.c **** {
 500              		.loc 1 450 0
 501              		.cfi_startproc
 502              		@ args = 0, pretend = 0, frame = 8
 503              		@ frame_needed = 1, uses_anonymous_args = 0
 504 0000 80B5     		push	{r7, lr}
 505              		.cfi_def_cfa_offset 8
 506              		.cfi_offset 7, -8
 507              		.cfi_offset 14, -4
 508 0002 82B0     		sub	sp, sp, #8
 509              		.cfi_def_cfa_offset 16
 510 0004 00AF     		add	r7, sp, #0
 511              		.cfi_def_cfa_register 7
 512 0006 7860     		str	r0, [r7, #4]
 451:Generated_Source\PSoC4/PWM_Green.c ****     PWM_Green_TRIG_CONTROL2_REG = (modeMask & PWM_Green_6BIT_MASK);
 513              		.loc 1 451 0
 514 0008 044B     		ldr	r3, .L27
 515 000a 7A68     		ldr	r2, [r7, #4]
 516 000c 3F21     		movs	r1, #63
 517 000e 0A40     		ands	r2, r1
 518 0010 1A60     		str	r2, [r3]
ARM GAS  C:\Users\JOSEAN~1\AppData\Local\Temp\ccll5T2D.s 			page 18


 452:Generated_Source\PSoC4/PWM_Green.c **** }
 519              		.loc 1 452 0
 520 0012 C046     		nop
 521 0014 BD46     		mov	sp, r7
 522 0016 02B0     		add	sp, sp, #8
 523              		@ sp needed
 524 0018 80BD     		pop	{r7, pc}
 525              	.L28:
 526 001a C046     		.align	2
 527              	.L27:
 528 001c 28010540 		.word	1074069800
 529              		.cfi_endproc
 530              	.LFE8:
 531              		.size	PWM_Green_SetPWMMode, .-PWM_Green_SetPWMMode
 532              		.section	.text.PWM_Green_SetPWMSyncKill,"ax",%progbits
 533              		.align	2
 534              		.global	PWM_Green_SetPWMSyncKill
 535              		.code	16
 536              		.thumb_func
 537              		.type	PWM_Green_SetPWMSyncKill, %function
 538              	PWM_Green_SetPWMSyncKill:
 539              	.LFB9:
 453:Generated_Source\PSoC4/PWM_Green.c **** 
 454:Generated_Source\PSoC4/PWM_Green.c **** 
 455:Generated_Source\PSoC4/PWM_Green.c **** 
 456:Generated_Source\PSoC4/PWM_Green.c **** /*******************************************************************************
 457:Generated_Source\PSoC4/PWM_Green.c **** * Function Name: PWM_Green_SetPWMSyncKill
 458:Generated_Source\PSoC4/PWM_Green.c **** ********************************************************************************
 459:Generated_Source\PSoC4/PWM_Green.c **** *
 460:Generated_Source\PSoC4/PWM_Green.c **** * Summary:
 461:Generated_Source\PSoC4/PWM_Green.c **** *  Writes the register that controls whether the PWM kill signal (stop input)
 462:Generated_Source\PSoC4/PWM_Green.c **** *  causes asynchronous or synchronous kill operation.  By default the kill
 463:Generated_Source\PSoC4/PWM_Green.c **** *  operation is asynchronous.  This functionality is only applicable to the PWM
 464:Generated_Source\PSoC4/PWM_Green.c **** *  and PWM with dead time modes.
 465:Generated_Source\PSoC4/PWM_Green.c **** *
 466:Generated_Source\PSoC4/PWM_Green.c **** *  For Synchronous mode the kill signal disables both the line and line_n
 467:Generated_Source\PSoC4/PWM_Green.c **** *  signals until the next terminal count.
 468:Generated_Source\PSoC4/PWM_Green.c **** *
 469:Generated_Source\PSoC4/PWM_Green.c **** *  For Asynchronous mode the kill signal disables both the line and line_n
 470:Generated_Source\PSoC4/PWM_Green.c **** *  signals when the kill signal is present.  This mode should only be used
 471:Generated_Source\PSoC4/PWM_Green.c **** *  when the kill signal (stop input) is configured in the pass through mode
 472:Generated_Source\PSoC4/PWM_Green.c **** *  (Level sensitive signal).
 473:Generated_Source\PSoC4/PWM_Green.c **** 
 474:Generated_Source\PSoC4/PWM_Green.c **** *
 475:Generated_Source\PSoC4/PWM_Green.c **** * Parameters:
 476:Generated_Source\PSoC4/PWM_Green.c **** *  syncKillEnable
 477:Generated_Source\PSoC4/PWM_Green.c **** *   Values:
 478:Generated_Source\PSoC4/PWM_Green.c **** *     - 0 - Asynchronous
 479:Generated_Source\PSoC4/PWM_Green.c **** *     - 1 - Synchronous
 480:Generated_Source\PSoC4/PWM_Green.c **** *
 481:Generated_Source\PSoC4/PWM_Green.c **** * Return:
 482:Generated_Source\PSoC4/PWM_Green.c **** *  None
 483:Generated_Source\PSoC4/PWM_Green.c **** *
 484:Generated_Source\PSoC4/PWM_Green.c **** *******************************************************************************/
 485:Generated_Source\PSoC4/PWM_Green.c **** void PWM_Green_SetPWMSyncKill(uint32 syncKillEnable)
 486:Generated_Source\PSoC4/PWM_Green.c **** {
 540              		.loc 1 486 0
ARM GAS  C:\Users\JOSEAN~1\AppData\Local\Temp\ccll5T2D.s 			page 19


 541              		.cfi_startproc
 542              		@ args = 0, pretend = 0, frame = 16
 543              		@ frame_needed = 1, uses_anonymous_args = 0
 544 0000 90B5     		push	{r4, r7, lr}
 545              		.cfi_def_cfa_offset 12
 546              		.cfi_offset 4, -12
 547              		.cfi_offset 7, -8
 548              		.cfi_offset 14, -4
 549 0002 85B0     		sub	sp, sp, #20
 550              		.cfi_def_cfa_offset 32
 551 0004 00AF     		add	r7, sp, #0
 552              		.cfi_def_cfa_register 7
 553 0006 7860     		str	r0, [r7, #4]
 487:Generated_Source\PSoC4/PWM_Green.c ****     uint8 enableInterrupts;
 488:Generated_Source\PSoC4/PWM_Green.c **** 
 489:Generated_Source\PSoC4/PWM_Green.c ****     enableInterrupts = CyEnterCriticalSection();
 554              		.loc 1 489 0
 555 0008 0F23     		movs	r3, #15
 556 000a FC18     		adds	r4, r7, r3
 557 000c FFF7FEFF 		bl	CyEnterCriticalSection
 558 0010 0300     		movs	r3, r0
 559 0012 2370     		strb	r3, [r4]
 490:Generated_Source\PSoC4/PWM_Green.c **** 
 491:Generated_Source\PSoC4/PWM_Green.c ****     PWM_Green_CONTROL_REG &= (uint32)~PWM_Green_PWM_SYNC_KILL_MASK;
 560              		.loc 1 491 0
 561 0014 0C4B     		ldr	r3, .L30
 562 0016 0C4A     		ldr	r2, .L30
 563 0018 1268     		ldr	r2, [r2]
 564 001a 0421     		movs	r1, #4
 565 001c 8A43     		bics	r2, r1
 566 001e 1A60     		str	r2, [r3]
 492:Generated_Source\PSoC4/PWM_Green.c ****     PWM_Green_CONTROL_REG |= ((uint32)((syncKillEnable & PWM_Green_1BIT_MASK)  <<
 567              		.loc 1 492 0
 568 0020 094B     		ldr	r3, .L30
 569 0022 094A     		ldr	r2, .L30
 570 0024 1168     		ldr	r1, [r2]
 571 0026 7A68     		ldr	r2, [r7, #4]
 572 0028 9200     		lsls	r2, r2, #2
 573 002a 0420     		movs	r0, #4
 574 002c 0240     		ands	r2, r0
 575 002e 0A43     		orrs	r2, r1
 576 0030 1A60     		str	r2, [r3]
 493:Generated_Source\PSoC4/PWM_Green.c ****                                                PWM_Green_PWM_SYNC_KILL_SHIFT));
 494:Generated_Source\PSoC4/PWM_Green.c **** 
 495:Generated_Source\PSoC4/PWM_Green.c ****     CyExitCriticalSection(enableInterrupts);
 577              		.loc 1 495 0
 578 0032 0F23     		movs	r3, #15
 579 0034 FB18     		adds	r3, r7, r3
 580 0036 1B78     		ldrb	r3, [r3]
 581 0038 1800     		movs	r0, r3
 582 003a FFF7FEFF 		bl	CyExitCriticalSection
 496:Generated_Source\PSoC4/PWM_Green.c **** }
 583              		.loc 1 496 0
 584 003e C046     		nop
 585 0040 BD46     		mov	sp, r7
 586 0042 05B0     		add	sp, sp, #20
 587              		@ sp needed
ARM GAS  C:\Users\JOSEAN~1\AppData\Local\Temp\ccll5T2D.s 			page 20


 588 0044 90BD     		pop	{r4, r7, pc}
 589              	.L31:
 590 0046 C046     		.align	2
 591              	.L30:
 592 0048 00010540 		.word	1074069760
 593              		.cfi_endproc
 594              	.LFE9:
 595              		.size	PWM_Green_SetPWMSyncKill, .-PWM_Green_SetPWMSyncKill
 596              		.section	.text.PWM_Green_SetPWMStopOnKill,"ax",%progbits
 597              		.align	2
 598              		.global	PWM_Green_SetPWMStopOnKill
 599              		.code	16
 600              		.thumb_func
 601              		.type	PWM_Green_SetPWMStopOnKill, %function
 602              	PWM_Green_SetPWMStopOnKill:
 603              	.LFB10:
 497:Generated_Source\PSoC4/PWM_Green.c **** 
 498:Generated_Source\PSoC4/PWM_Green.c **** 
 499:Generated_Source\PSoC4/PWM_Green.c **** /*******************************************************************************
 500:Generated_Source\PSoC4/PWM_Green.c **** * Function Name: PWM_Green_SetPWMStopOnKill
 501:Generated_Source\PSoC4/PWM_Green.c **** ********************************************************************************
 502:Generated_Source\PSoC4/PWM_Green.c **** *
 503:Generated_Source\PSoC4/PWM_Green.c **** * Summary:
 504:Generated_Source\PSoC4/PWM_Green.c **** *  Writes the register that controls whether the PWM kill signal (stop input)
 505:Generated_Source\PSoC4/PWM_Green.c **** *  causes the PWM counter to stop.  By default the kill operation does not stop
 506:Generated_Source\PSoC4/PWM_Green.c **** *  the counter.  This functionality is only applicable to the three PWM modes.
 507:Generated_Source\PSoC4/PWM_Green.c **** *
 508:Generated_Source\PSoC4/PWM_Green.c **** *
 509:Generated_Source\PSoC4/PWM_Green.c **** * Parameters:
 510:Generated_Source\PSoC4/PWM_Green.c **** *  stopOnKillEnable
 511:Generated_Source\PSoC4/PWM_Green.c **** *   Values:
 512:Generated_Source\PSoC4/PWM_Green.c **** *     - 0 - Don't stop
 513:Generated_Source\PSoC4/PWM_Green.c **** *     - 1 - Stop
 514:Generated_Source\PSoC4/PWM_Green.c **** *
 515:Generated_Source\PSoC4/PWM_Green.c **** * Return:
 516:Generated_Source\PSoC4/PWM_Green.c **** *  None
 517:Generated_Source\PSoC4/PWM_Green.c **** *
 518:Generated_Source\PSoC4/PWM_Green.c **** *******************************************************************************/
 519:Generated_Source\PSoC4/PWM_Green.c **** void PWM_Green_SetPWMStopOnKill(uint32 stopOnKillEnable)
 520:Generated_Source\PSoC4/PWM_Green.c **** {
 604              		.loc 1 520 0
 605              		.cfi_startproc
 606              		@ args = 0, pretend = 0, frame = 16
 607              		@ frame_needed = 1, uses_anonymous_args = 0
 608 0000 90B5     		push	{r4, r7, lr}
 609              		.cfi_def_cfa_offset 12
 610              		.cfi_offset 4, -12
 611              		.cfi_offset 7, -8
 612              		.cfi_offset 14, -4
 613 0002 85B0     		sub	sp, sp, #20
 614              		.cfi_def_cfa_offset 32
 615 0004 00AF     		add	r7, sp, #0
 616              		.cfi_def_cfa_register 7
 617 0006 7860     		str	r0, [r7, #4]
 521:Generated_Source\PSoC4/PWM_Green.c ****     uint8 enableInterrupts;
 522:Generated_Source\PSoC4/PWM_Green.c **** 
 523:Generated_Source\PSoC4/PWM_Green.c ****     enableInterrupts = CyEnterCriticalSection();
ARM GAS  C:\Users\JOSEAN~1\AppData\Local\Temp\ccll5T2D.s 			page 21


 618              		.loc 1 523 0
 619 0008 0F23     		movs	r3, #15
 620 000a FC18     		adds	r4, r7, r3
 621 000c FFF7FEFF 		bl	CyEnterCriticalSection
 622 0010 0300     		movs	r3, r0
 623 0012 2370     		strb	r3, [r4]
 524:Generated_Source\PSoC4/PWM_Green.c **** 
 525:Generated_Source\PSoC4/PWM_Green.c ****     PWM_Green_CONTROL_REG &= (uint32)~PWM_Green_PWM_STOP_KILL_MASK;
 624              		.loc 1 525 0
 625 0014 0C4B     		ldr	r3, .L33
 626 0016 0C4A     		ldr	r2, .L33
 627 0018 1268     		ldr	r2, [r2]
 628 001a 0821     		movs	r1, #8
 629 001c 8A43     		bics	r2, r1
 630 001e 1A60     		str	r2, [r3]
 526:Generated_Source\PSoC4/PWM_Green.c ****     PWM_Green_CONTROL_REG |= ((uint32)((stopOnKillEnable & PWM_Green_1BIT_MASK)  <<
 631              		.loc 1 526 0
 632 0020 094B     		ldr	r3, .L33
 633 0022 094A     		ldr	r2, .L33
 634 0024 1168     		ldr	r1, [r2]
 635 0026 7A68     		ldr	r2, [r7, #4]
 636 0028 D200     		lsls	r2, r2, #3
 637 002a 0820     		movs	r0, #8
 638 002c 0240     		ands	r2, r0
 639 002e 0A43     		orrs	r2, r1
 640 0030 1A60     		str	r2, [r3]
 527:Generated_Source\PSoC4/PWM_Green.c ****                                                          PWM_Green_PWM_STOP_KILL_SHIFT));
 528:Generated_Source\PSoC4/PWM_Green.c **** 
 529:Generated_Source\PSoC4/PWM_Green.c ****     CyExitCriticalSection(enableInterrupts);
 641              		.loc 1 529 0
 642 0032 0F23     		movs	r3, #15
 643 0034 FB18     		adds	r3, r7, r3
 644 0036 1B78     		ldrb	r3, [r3]
 645 0038 1800     		movs	r0, r3
 646 003a FFF7FEFF 		bl	CyExitCriticalSection
 530:Generated_Source\PSoC4/PWM_Green.c **** }
 647              		.loc 1 530 0
 648 003e C046     		nop
 649 0040 BD46     		mov	sp, r7
 650 0042 05B0     		add	sp, sp, #20
 651              		@ sp needed
 652 0044 90BD     		pop	{r4, r7, pc}
 653              	.L34:
 654 0046 C046     		.align	2
 655              	.L33:
 656 0048 00010540 		.word	1074069760
 657              		.cfi_endproc
 658              	.LFE10:
 659              		.size	PWM_Green_SetPWMStopOnKill, .-PWM_Green_SetPWMStopOnKill
 660              		.section	.text.PWM_Green_SetPWMDeadTime,"ax",%progbits
 661              		.align	2
 662              		.global	PWM_Green_SetPWMDeadTime
 663              		.code	16
 664              		.thumb_func
 665              		.type	PWM_Green_SetPWMDeadTime, %function
 666              	PWM_Green_SetPWMDeadTime:
 667              	.LFB11:
ARM GAS  C:\Users\JOSEAN~1\AppData\Local\Temp\ccll5T2D.s 			page 22


 531:Generated_Source\PSoC4/PWM_Green.c **** 
 532:Generated_Source\PSoC4/PWM_Green.c **** 
 533:Generated_Source\PSoC4/PWM_Green.c **** /*******************************************************************************
 534:Generated_Source\PSoC4/PWM_Green.c **** * Function Name: PWM_Green_SetPWMDeadTime
 535:Generated_Source\PSoC4/PWM_Green.c **** ********************************************************************************
 536:Generated_Source\PSoC4/PWM_Green.c **** *
 537:Generated_Source\PSoC4/PWM_Green.c **** * Summary:
 538:Generated_Source\PSoC4/PWM_Green.c **** *  Writes the dead time control value.  This value delays the rising edge of
 539:Generated_Source\PSoC4/PWM_Green.c **** *  both the line and line_n signals the designated number of cycles resulting
 540:Generated_Source\PSoC4/PWM_Green.c **** *  in both signals being inactive for that many cycles.  This functionality is
 541:Generated_Source\PSoC4/PWM_Green.c **** *  only applicable to the PWM in the dead time mode.
 542:Generated_Source\PSoC4/PWM_Green.c **** 
 543:Generated_Source\PSoC4/PWM_Green.c **** *
 544:Generated_Source\PSoC4/PWM_Green.c **** * Parameters:
 545:Generated_Source\PSoC4/PWM_Green.c **** *  Dead time to insert
 546:Generated_Source\PSoC4/PWM_Green.c **** *   Values: 0 to 255
 547:Generated_Source\PSoC4/PWM_Green.c **** *
 548:Generated_Source\PSoC4/PWM_Green.c **** * Return:
 549:Generated_Source\PSoC4/PWM_Green.c **** *  None
 550:Generated_Source\PSoC4/PWM_Green.c **** *
 551:Generated_Source\PSoC4/PWM_Green.c **** *******************************************************************************/
 552:Generated_Source\PSoC4/PWM_Green.c **** void PWM_Green_SetPWMDeadTime(uint32 deadTime)
 553:Generated_Source\PSoC4/PWM_Green.c **** {
 668              		.loc 1 553 0
 669              		.cfi_startproc
 670              		@ args = 0, pretend = 0, frame = 16
 671              		@ frame_needed = 1, uses_anonymous_args = 0
 672 0000 90B5     		push	{r4, r7, lr}
 673              		.cfi_def_cfa_offset 12
 674              		.cfi_offset 4, -12
 675              		.cfi_offset 7, -8
 676              		.cfi_offset 14, -4
 677 0002 85B0     		sub	sp, sp, #20
 678              		.cfi_def_cfa_offset 32
 679 0004 00AF     		add	r7, sp, #0
 680              		.cfi_def_cfa_register 7
 681 0006 7860     		str	r0, [r7, #4]
 554:Generated_Source\PSoC4/PWM_Green.c ****     uint8 enableInterrupts;
 555:Generated_Source\PSoC4/PWM_Green.c **** 
 556:Generated_Source\PSoC4/PWM_Green.c ****     enableInterrupts = CyEnterCriticalSection();
 682              		.loc 1 556 0
 683 0008 0F23     		movs	r3, #15
 684 000a FC18     		adds	r4, r7, r3
 685 000c FFF7FEFF 		bl	CyEnterCriticalSection
 686 0010 0300     		movs	r3, r0
 687 0012 2370     		strb	r3, [r4]
 557:Generated_Source\PSoC4/PWM_Green.c **** 
 558:Generated_Source\PSoC4/PWM_Green.c ****     PWM_Green_CONTROL_REG &= (uint32)~PWM_Green_PRESCALER_MASK;
 688              		.loc 1 558 0
 689 0014 0C4B     		ldr	r3, .L36
 690 0016 0C4A     		ldr	r2, .L36
 691 0018 1268     		ldr	r2, [r2]
 692 001a 0C49     		ldr	r1, .L36+4
 693 001c 0A40     		ands	r2, r1
 694 001e 1A60     		str	r2, [r3]
 559:Generated_Source\PSoC4/PWM_Green.c ****     PWM_Green_CONTROL_REG |= ((uint32)((deadTime & PWM_Green_8BIT_MASK) <<
 695              		.loc 1 559 0
ARM GAS  C:\Users\JOSEAN~1\AppData\Local\Temp\ccll5T2D.s 			page 23


 696 0020 094B     		ldr	r3, .L36
 697 0022 094A     		ldr	r2, .L36
 698 0024 1168     		ldr	r1, [r2]
 699 0026 7A68     		ldr	r2, [r7, #4]
 700 0028 1202     		lsls	r2, r2, #8
 701 002a 1204     		lsls	r2, r2, #16
 702 002c 120C     		lsrs	r2, r2, #16
 703 002e 0A43     		orrs	r2, r1
 704 0030 1A60     		str	r2, [r3]
 560:Generated_Source\PSoC4/PWM_Green.c ****                                                           PWM_Green_PRESCALER_SHIFT));
 561:Generated_Source\PSoC4/PWM_Green.c **** 
 562:Generated_Source\PSoC4/PWM_Green.c ****     CyExitCriticalSection(enableInterrupts);
 705              		.loc 1 562 0
 706 0032 0F23     		movs	r3, #15
 707 0034 FB18     		adds	r3, r7, r3
 708 0036 1B78     		ldrb	r3, [r3]
 709 0038 1800     		movs	r0, r3
 710 003a FFF7FEFF 		bl	CyExitCriticalSection
 563:Generated_Source\PSoC4/PWM_Green.c **** }
 711              		.loc 1 563 0
 712 003e C046     		nop
 713 0040 BD46     		mov	sp, r7
 714 0042 05B0     		add	sp, sp, #20
 715              		@ sp needed
 716 0044 90BD     		pop	{r4, r7, pc}
 717              	.L37:
 718 0046 C046     		.align	2
 719              	.L36:
 720 0048 00010540 		.word	1074069760
 721 004c FF00FFFF 		.word	-65281
 722              		.cfi_endproc
 723              	.LFE11:
 724              		.size	PWM_Green_SetPWMDeadTime, .-PWM_Green_SetPWMDeadTime
 725              		.section	.text.PWM_Green_SetPWMInvert,"ax",%progbits
 726              		.align	2
 727              		.global	PWM_Green_SetPWMInvert
 728              		.code	16
 729              		.thumb_func
 730              		.type	PWM_Green_SetPWMInvert, %function
 731              	PWM_Green_SetPWMInvert:
 732              	.LFB12:
 564:Generated_Source\PSoC4/PWM_Green.c **** 
 565:Generated_Source\PSoC4/PWM_Green.c **** 
 566:Generated_Source\PSoC4/PWM_Green.c **** /*******************************************************************************
 567:Generated_Source\PSoC4/PWM_Green.c **** * Function Name: PWM_Green_SetPWMInvert
 568:Generated_Source\PSoC4/PWM_Green.c **** ********************************************************************************
 569:Generated_Source\PSoC4/PWM_Green.c **** *
 570:Generated_Source\PSoC4/PWM_Green.c **** * Summary:
 571:Generated_Source\PSoC4/PWM_Green.c **** *  Writes the bits that control whether the line and line_n outputs are
 572:Generated_Source\PSoC4/PWM_Green.c **** *  inverted from their normal output values.  This functionality is only
 573:Generated_Source\PSoC4/PWM_Green.c **** *  applicable to the three PWM modes.
 574:Generated_Source\PSoC4/PWM_Green.c **** *
 575:Generated_Source\PSoC4/PWM_Green.c **** * Parameters:
 576:Generated_Source\PSoC4/PWM_Green.c **** *  mask: Mask of outputs to invert.
 577:Generated_Source\PSoC4/PWM_Green.c **** *   Values:
 578:Generated_Source\PSoC4/PWM_Green.c **** *         - PWM_Green_INVERT_LINE   - Inverts the line output
 579:Generated_Source\PSoC4/PWM_Green.c **** *         - PWM_Green_INVERT_LINE_N - Inverts the line_n output
ARM GAS  C:\Users\JOSEAN~1\AppData\Local\Temp\ccll5T2D.s 			page 24


 580:Generated_Source\PSoC4/PWM_Green.c **** *
 581:Generated_Source\PSoC4/PWM_Green.c **** * Return:
 582:Generated_Source\PSoC4/PWM_Green.c **** *  None
 583:Generated_Source\PSoC4/PWM_Green.c **** *
 584:Generated_Source\PSoC4/PWM_Green.c **** *******************************************************************************/
 585:Generated_Source\PSoC4/PWM_Green.c **** void PWM_Green_SetPWMInvert(uint32 mask)
 586:Generated_Source\PSoC4/PWM_Green.c **** {
 733              		.loc 1 586 0
 734              		.cfi_startproc
 735              		@ args = 0, pretend = 0, frame = 16
 736              		@ frame_needed = 1, uses_anonymous_args = 0
 737 0000 90B5     		push	{r4, r7, lr}
 738              		.cfi_def_cfa_offset 12
 739              		.cfi_offset 4, -12
 740              		.cfi_offset 7, -8
 741              		.cfi_offset 14, -4
 742 0002 85B0     		sub	sp, sp, #20
 743              		.cfi_def_cfa_offset 32
 744 0004 00AF     		add	r7, sp, #0
 745              		.cfi_def_cfa_register 7
 746 0006 7860     		str	r0, [r7, #4]
 587:Generated_Source\PSoC4/PWM_Green.c ****     uint8 enableInterrupts;
 588:Generated_Source\PSoC4/PWM_Green.c **** 
 589:Generated_Source\PSoC4/PWM_Green.c ****     enableInterrupts = CyEnterCriticalSection();
 747              		.loc 1 589 0
 748 0008 0F23     		movs	r3, #15
 749 000a FC18     		adds	r4, r7, r3
 750 000c FFF7FEFF 		bl	CyEnterCriticalSection
 751 0010 0300     		movs	r3, r0
 752 0012 2370     		strb	r3, [r4]
 590:Generated_Source\PSoC4/PWM_Green.c **** 
 591:Generated_Source\PSoC4/PWM_Green.c ****     PWM_Green_CONTROL_REG &= (uint32)~PWM_Green_INV_OUT_MASK;
 753              		.loc 1 591 0
 754 0014 0A4B     		ldr	r3, .L39
 755 0016 0A4A     		ldr	r2, .L39
 756 0018 1268     		ldr	r2, [r2]
 757 001a 0A49     		ldr	r1, .L39+4
 758 001c 0A40     		ands	r2, r1
 759 001e 1A60     		str	r2, [r3]
 592:Generated_Source\PSoC4/PWM_Green.c ****     PWM_Green_CONTROL_REG |= mask;
 760              		.loc 1 592 0
 761 0020 074B     		ldr	r3, .L39
 762 0022 074A     		ldr	r2, .L39
 763 0024 1168     		ldr	r1, [r2]
 764 0026 7A68     		ldr	r2, [r7, #4]
 765 0028 0A43     		orrs	r2, r1
 766 002a 1A60     		str	r2, [r3]
 593:Generated_Source\PSoC4/PWM_Green.c **** 
 594:Generated_Source\PSoC4/PWM_Green.c ****     CyExitCriticalSection(enableInterrupts);
 767              		.loc 1 594 0
 768 002c 0F23     		movs	r3, #15
 769 002e FB18     		adds	r3, r7, r3
 770 0030 1B78     		ldrb	r3, [r3]
 771 0032 1800     		movs	r0, r3
 772 0034 FFF7FEFF 		bl	CyExitCriticalSection
 595:Generated_Source\PSoC4/PWM_Green.c **** }
 773              		.loc 1 595 0
ARM GAS  C:\Users\JOSEAN~1\AppData\Local\Temp\ccll5T2D.s 			page 25


 774 0038 C046     		nop
 775 003a BD46     		mov	sp, r7
 776 003c 05B0     		add	sp, sp, #20
 777              		@ sp needed
 778 003e 90BD     		pop	{r4, r7, pc}
 779              	.L40:
 780              		.align	2
 781              	.L39:
 782 0040 00010540 		.word	1074069760
 783 0044 FFFFCFFF 		.word	-3145729
 784              		.cfi_endproc
 785              	.LFE12:
 786              		.size	PWM_Green_SetPWMInvert, .-PWM_Green_SetPWMInvert
 787              		.section	.text.PWM_Green_WriteCounter,"ax",%progbits
 788              		.align	2
 789              		.global	PWM_Green_WriteCounter
 790              		.code	16
 791              		.thumb_func
 792              		.type	PWM_Green_WriteCounter, %function
 793              	PWM_Green_WriteCounter:
 794              	.LFB13:
 596:Generated_Source\PSoC4/PWM_Green.c **** 
 597:Generated_Source\PSoC4/PWM_Green.c **** 
 598:Generated_Source\PSoC4/PWM_Green.c **** 
 599:Generated_Source\PSoC4/PWM_Green.c **** /*******************************************************************************
 600:Generated_Source\PSoC4/PWM_Green.c **** * Function Name: PWM_Green_WriteCounter
 601:Generated_Source\PSoC4/PWM_Green.c **** ********************************************************************************
 602:Generated_Source\PSoC4/PWM_Green.c **** *
 603:Generated_Source\PSoC4/PWM_Green.c **** * Summary:
 604:Generated_Source\PSoC4/PWM_Green.c **** *  Writes a new 16bit counter value directly into the counter register, thus
 605:Generated_Source\PSoC4/PWM_Green.c **** *  setting the counter (not the period) to the value written. It is not
 606:Generated_Source\PSoC4/PWM_Green.c **** *  advised to write to this field when the counter is running.
 607:Generated_Source\PSoC4/PWM_Green.c **** *
 608:Generated_Source\PSoC4/PWM_Green.c **** * Parameters:
 609:Generated_Source\PSoC4/PWM_Green.c **** *  count: value to write
 610:Generated_Source\PSoC4/PWM_Green.c **** *
 611:Generated_Source\PSoC4/PWM_Green.c **** * Return:
 612:Generated_Source\PSoC4/PWM_Green.c **** *  None
 613:Generated_Source\PSoC4/PWM_Green.c **** *
 614:Generated_Source\PSoC4/PWM_Green.c **** *******************************************************************************/
 615:Generated_Source\PSoC4/PWM_Green.c **** void PWM_Green_WriteCounter(uint32 count)
 616:Generated_Source\PSoC4/PWM_Green.c **** {
 795              		.loc 1 616 0
 796              		.cfi_startproc
 797              		@ args = 0, pretend = 0, frame = 8
 798              		@ frame_needed = 1, uses_anonymous_args = 0
 799 0000 80B5     		push	{r7, lr}
 800              		.cfi_def_cfa_offset 8
 801              		.cfi_offset 7, -8
 802              		.cfi_offset 14, -4
 803 0002 82B0     		sub	sp, sp, #8
 804              		.cfi_def_cfa_offset 16
 805 0004 00AF     		add	r7, sp, #0
 806              		.cfi_def_cfa_register 7
 807 0006 7860     		str	r0, [r7, #4]
 617:Generated_Source\PSoC4/PWM_Green.c ****     PWM_Green_COUNTER_REG = (count & PWM_Green_16BIT_MASK);
 808              		.loc 1 617 0
ARM GAS  C:\Users\JOSEAN~1\AppData\Local\Temp\ccll5T2D.s 			page 26


 809 0008 044B     		ldr	r3, .L42
 810 000a 7A68     		ldr	r2, [r7, #4]
 811 000c 1204     		lsls	r2, r2, #16
 812 000e 120C     		lsrs	r2, r2, #16
 813 0010 1A60     		str	r2, [r3]
 618:Generated_Source\PSoC4/PWM_Green.c **** }
 814              		.loc 1 618 0
 815 0012 C046     		nop
 816 0014 BD46     		mov	sp, r7
 817 0016 02B0     		add	sp, sp, #8
 818              		@ sp needed
 819 0018 80BD     		pop	{r7, pc}
 820              	.L43:
 821 001a C046     		.align	2
 822              	.L42:
 823 001c 08010540 		.word	1074069768
 824              		.cfi_endproc
 825              	.LFE13:
 826              		.size	PWM_Green_WriteCounter, .-PWM_Green_WriteCounter
 827              		.section	.text.PWM_Green_ReadCounter,"ax",%progbits
 828              		.align	2
 829              		.global	PWM_Green_ReadCounter
 830              		.code	16
 831              		.thumb_func
 832              		.type	PWM_Green_ReadCounter, %function
 833              	PWM_Green_ReadCounter:
 834              	.LFB14:
 619:Generated_Source\PSoC4/PWM_Green.c **** 
 620:Generated_Source\PSoC4/PWM_Green.c **** 
 621:Generated_Source\PSoC4/PWM_Green.c **** /*******************************************************************************
 622:Generated_Source\PSoC4/PWM_Green.c **** * Function Name: PWM_Green_ReadCounter
 623:Generated_Source\PSoC4/PWM_Green.c **** ********************************************************************************
 624:Generated_Source\PSoC4/PWM_Green.c **** *
 625:Generated_Source\PSoC4/PWM_Green.c **** * Summary:
 626:Generated_Source\PSoC4/PWM_Green.c **** *  Reads the current counter value.
 627:Generated_Source\PSoC4/PWM_Green.c **** *
 628:Generated_Source\PSoC4/PWM_Green.c **** * Parameters:
 629:Generated_Source\PSoC4/PWM_Green.c **** *  None
 630:Generated_Source\PSoC4/PWM_Green.c **** *
 631:Generated_Source\PSoC4/PWM_Green.c **** * Return:
 632:Generated_Source\PSoC4/PWM_Green.c **** *  Current counter value
 633:Generated_Source\PSoC4/PWM_Green.c **** *
 634:Generated_Source\PSoC4/PWM_Green.c **** *******************************************************************************/
 635:Generated_Source\PSoC4/PWM_Green.c **** uint32 PWM_Green_ReadCounter(void)
 636:Generated_Source\PSoC4/PWM_Green.c **** {
 835              		.loc 1 636 0
 836              		.cfi_startproc
 837              		@ args = 0, pretend = 0, frame = 0
 838              		@ frame_needed = 1, uses_anonymous_args = 0
 839 0000 80B5     		push	{r7, lr}
 840              		.cfi_def_cfa_offset 8
 841              		.cfi_offset 7, -8
 842              		.cfi_offset 14, -4
 843 0002 00AF     		add	r7, sp, #0
 844              		.cfi_def_cfa_register 7
 637:Generated_Source\PSoC4/PWM_Green.c ****     return (PWM_Green_COUNTER_REG & PWM_Green_16BIT_MASK);
 845              		.loc 1 637 0
ARM GAS  C:\Users\JOSEAN~1\AppData\Local\Temp\ccll5T2D.s 			page 27


 846 0004 034B     		ldr	r3, .L46
 847 0006 1B68     		ldr	r3, [r3]
 848 0008 1B04     		lsls	r3, r3, #16
 849 000a 1B0C     		lsrs	r3, r3, #16
 638:Generated_Source\PSoC4/PWM_Green.c **** }
 850              		.loc 1 638 0
 851 000c 1800     		movs	r0, r3
 852 000e BD46     		mov	sp, r7
 853              		@ sp needed
 854 0010 80BD     		pop	{r7, pc}
 855              	.L47:
 856 0012 C046     		.align	2
 857              	.L46:
 858 0014 08010540 		.word	1074069768
 859              		.cfi_endproc
 860              	.LFE14:
 861              		.size	PWM_Green_ReadCounter, .-PWM_Green_ReadCounter
 862              		.section	.text.PWM_Green_SetCounterMode,"ax",%progbits
 863              		.align	2
 864              		.global	PWM_Green_SetCounterMode
 865              		.code	16
 866              		.thumb_func
 867              		.type	PWM_Green_SetCounterMode, %function
 868              	PWM_Green_SetCounterMode:
 869              	.LFB15:
 639:Generated_Source\PSoC4/PWM_Green.c **** 
 640:Generated_Source\PSoC4/PWM_Green.c **** 
 641:Generated_Source\PSoC4/PWM_Green.c **** /*******************************************************************************
 642:Generated_Source\PSoC4/PWM_Green.c **** * Function Name: PWM_Green_SetCounterMode
 643:Generated_Source\PSoC4/PWM_Green.c **** ********************************************************************************
 644:Generated_Source\PSoC4/PWM_Green.c **** *
 645:Generated_Source\PSoC4/PWM_Green.c **** * Summary:
 646:Generated_Source\PSoC4/PWM_Green.c **** *  Sets the counter mode.  Applicable to all modes except Quadrature Decoder
 647:Generated_Source\PSoC4/PWM_Green.c **** *  and the PWM with a pseudo random output.
 648:Generated_Source\PSoC4/PWM_Green.c **** *
 649:Generated_Source\PSoC4/PWM_Green.c **** * Parameters:
 650:Generated_Source\PSoC4/PWM_Green.c **** *  counterMode: Enumerated counter type values
 651:Generated_Source\PSoC4/PWM_Green.c **** *   Values:
 652:Generated_Source\PSoC4/PWM_Green.c **** *     - PWM_Green_COUNT_UP       - Counts up
 653:Generated_Source\PSoC4/PWM_Green.c **** *     - PWM_Green_COUNT_DOWN     - Counts down
 654:Generated_Source\PSoC4/PWM_Green.c **** *     - PWM_Green_COUNT_UPDOWN0  - Counts up and down. Terminal count
 655:Generated_Source\PSoC4/PWM_Green.c **** *                                         generated when counter reaches 0
 656:Generated_Source\PSoC4/PWM_Green.c **** *     - PWM_Green_COUNT_UPDOWN1  - Counts up and down. Terminal count
 657:Generated_Source\PSoC4/PWM_Green.c **** *                                         generated both when counter reaches 0
 658:Generated_Source\PSoC4/PWM_Green.c **** *                                         and period
 659:Generated_Source\PSoC4/PWM_Green.c **** *
 660:Generated_Source\PSoC4/PWM_Green.c **** * Return:
 661:Generated_Source\PSoC4/PWM_Green.c **** *  None
 662:Generated_Source\PSoC4/PWM_Green.c **** *
 663:Generated_Source\PSoC4/PWM_Green.c **** *******************************************************************************/
 664:Generated_Source\PSoC4/PWM_Green.c **** void PWM_Green_SetCounterMode(uint32 counterMode)
 665:Generated_Source\PSoC4/PWM_Green.c **** {
 870              		.loc 1 665 0
 871              		.cfi_startproc
 872              		@ args = 0, pretend = 0, frame = 16
 873              		@ frame_needed = 1, uses_anonymous_args = 0
 874 0000 90B5     		push	{r4, r7, lr}
ARM GAS  C:\Users\JOSEAN~1\AppData\Local\Temp\ccll5T2D.s 			page 28


 875              		.cfi_def_cfa_offset 12
 876              		.cfi_offset 4, -12
 877              		.cfi_offset 7, -8
 878              		.cfi_offset 14, -4
 879 0002 85B0     		sub	sp, sp, #20
 880              		.cfi_def_cfa_offset 32
 881 0004 00AF     		add	r7, sp, #0
 882              		.cfi_def_cfa_register 7
 883 0006 7860     		str	r0, [r7, #4]
 666:Generated_Source\PSoC4/PWM_Green.c ****     uint8 enableInterrupts;
 667:Generated_Source\PSoC4/PWM_Green.c **** 
 668:Generated_Source\PSoC4/PWM_Green.c ****     enableInterrupts = CyEnterCriticalSection();
 884              		.loc 1 668 0
 885 0008 0F23     		movs	r3, #15
 886 000a FC18     		adds	r4, r7, r3
 887 000c FFF7FEFF 		bl	CyEnterCriticalSection
 888 0010 0300     		movs	r3, r0
 889 0012 2370     		strb	r3, [r4]
 669:Generated_Source\PSoC4/PWM_Green.c **** 
 670:Generated_Source\PSoC4/PWM_Green.c ****     PWM_Green_CONTROL_REG &= (uint32)~PWM_Green_UPDOWN_MASK;
 890              		.loc 1 670 0
 891 0014 0A4B     		ldr	r3, .L49
 892 0016 0A4A     		ldr	r2, .L49
 893 0018 1268     		ldr	r2, [r2]
 894 001a 0A49     		ldr	r1, .L49+4
 895 001c 0A40     		ands	r2, r1
 896 001e 1A60     		str	r2, [r3]
 671:Generated_Source\PSoC4/PWM_Green.c ****     PWM_Green_CONTROL_REG |= counterMode;
 897              		.loc 1 671 0
 898 0020 074B     		ldr	r3, .L49
 899 0022 074A     		ldr	r2, .L49
 900 0024 1168     		ldr	r1, [r2]
 901 0026 7A68     		ldr	r2, [r7, #4]
 902 0028 0A43     		orrs	r2, r1
 903 002a 1A60     		str	r2, [r3]
 672:Generated_Source\PSoC4/PWM_Green.c **** 
 673:Generated_Source\PSoC4/PWM_Green.c ****     CyExitCriticalSection(enableInterrupts);
 904              		.loc 1 673 0
 905 002c 0F23     		movs	r3, #15
 906 002e FB18     		adds	r3, r7, r3
 907 0030 1B78     		ldrb	r3, [r3]
 908 0032 1800     		movs	r0, r3
 909 0034 FFF7FEFF 		bl	CyExitCriticalSection
 674:Generated_Source\PSoC4/PWM_Green.c **** }
 910              		.loc 1 674 0
 911 0038 C046     		nop
 912 003a BD46     		mov	sp, r7
 913 003c 05B0     		add	sp, sp, #20
 914              		@ sp needed
 915 003e 90BD     		pop	{r4, r7, pc}
 916              	.L50:
 917              		.align	2
 918              	.L49:
 919 0040 00010540 		.word	1074069760
 920 0044 FFFFFCFF 		.word	-196609
 921              		.cfi_endproc
 922              	.LFE15:
ARM GAS  C:\Users\JOSEAN~1\AppData\Local\Temp\ccll5T2D.s 			page 29


 923              		.size	PWM_Green_SetCounterMode, .-PWM_Green_SetCounterMode
 924              		.section	.text.PWM_Green_WritePeriod,"ax",%progbits
 925              		.align	2
 926              		.global	PWM_Green_WritePeriod
 927              		.code	16
 928              		.thumb_func
 929              		.type	PWM_Green_WritePeriod, %function
 930              	PWM_Green_WritePeriod:
 931              	.LFB16:
 675:Generated_Source\PSoC4/PWM_Green.c **** 
 676:Generated_Source\PSoC4/PWM_Green.c **** 
 677:Generated_Source\PSoC4/PWM_Green.c **** /*******************************************************************************
 678:Generated_Source\PSoC4/PWM_Green.c **** * Function Name: PWM_Green_WritePeriod
 679:Generated_Source\PSoC4/PWM_Green.c **** ********************************************************************************
 680:Generated_Source\PSoC4/PWM_Green.c **** *
 681:Generated_Source\PSoC4/PWM_Green.c **** * Summary:
 682:Generated_Source\PSoC4/PWM_Green.c **** *  Writes the 16 bit period register with the new period value.
 683:Generated_Source\PSoC4/PWM_Green.c **** *  To cause the counter to count for N cycles this register should be written
 684:Generated_Source\PSoC4/PWM_Green.c **** *  with N-1 (counts from 0 to period inclusive).
 685:Generated_Source\PSoC4/PWM_Green.c **** *
 686:Generated_Source\PSoC4/PWM_Green.c **** * Parameters:
 687:Generated_Source\PSoC4/PWM_Green.c **** *  period: Period value
 688:Generated_Source\PSoC4/PWM_Green.c **** *
 689:Generated_Source\PSoC4/PWM_Green.c **** * Return:
 690:Generated_Source\PSoC4/PWM_Green.c **** *  None
 691:Generated_Source\PSoC4/PWM_Green.c **** *
 692:Generated_Source\PSoC4/PWM_Green.c **** *******************************************************************************/
 693:Generated_Source\PSoC4/PWM_Green.c **** void PWM_Green_WritePeriod(uint32 period)
 694:Generated_Source\PSoC4/PWM_Green.c **** {
 932              		.loc 1 694 0
 933              		.cfi_startproc
 934              		@ args = 0, pretend = 0, frame = 8
 935              		@ frame_needed = 1, uses_anonymous_args = 0
 936 0000 80B5     		push	{r7, lr}
 937              		.cfi_def_cfa_offset 8
 938              		.cfi_offset 7, -8
 939              		.cfi_offset 14, -4
 940 0002 82B0     		sub	sp, sp, #8
 941              		.cfi_def_cfa_offset 16
 942 0004 00AF     		add	r7, sp, #0
 943              		.cfi_def_cfa_register 7
 944 0006 7860     		str	r0, [r7, #4]
 695:Generated_Source\PSoC4/PWM_Green.c ****     PWM_Green_PERIOD_REG = (period & PWM_Green_16BIT_MASK);
 945              		.loc 1 695 0
 946 0008 044B     		ldr	r3, .L52
 947 000a 7A68     		ldr	r2, [r7, #4]
 948 000c 1204     		lsls	r2, r2, #16
 949 000e 120C     		lsrs	r2, r2, #16
 950 0010 1A60     		str	r2, [r3]
 696:Generated_Source\PSoC4/PWM_Green.c **** }
 951              		.loc 1 696 0
 952 0012 C046     		nop
 953 0014 BD46     		mov	sp, r7
 954 0016 02B0     		add	sp, sp, #8
 955              		@ sp needed
 956 0018 80BD     		pop	{r7, pc}
 957              	.L53:
ARM GAS  C:\Users\JOSEAN~1\AppData\Local\Temp\ccll5T2D.s 			page 30


 958 001a C046     		.align	2
 959              	.L52:
 960 001c 14010540 		.word	1074069780
 961              		.cfi_endproc
 962              	.LFE16:
 963              		.size	PWM_Green_WritePeriod, .-PWM_Green_WritePeriod
 964              		.section	.text.PWM_Green_ReadPeriod,"ax",%progbits
 965              		.align	2
 966              		.global	PWM_Green_ReadPeriod
 967              		.code	16
 968              		.thumb_func
 969              		.type	PWM_Green_ReadPeriod, %function
 970              	PWM_Green_ReadPeriod:
 971              	.LFB17:
 697:Generated_Source\PSoC4/PWM_Green.c **** 
 698:Generated_Source\PSoC4/PWM_Green.c **** 
 699:Generated_Source\PSoC4/PWM_Green.c **** /*******************************************************************************
 700:Generated_Source\PSoC4/PWM_Green.c **** * Function Name: PWM_Green_ReadPeriod
 701:Generated_Source\PSoC4/PWM_Green.c **** ********************************************************************************
 702:Generated_Source\PSoC4/PWM_Green.c **** *
 703:Generated_Source\PSoC4/PWM_Green.c **** * Summary:
 704:Generated_Source\PSoC4/PWM_Green.c **** *  Reads the 16 bit period register.
 705:Generated_Source\PSoC4/PWM_Green.c **** *
 706:Generated_Source\PSoC4/PWM_Green.c **** * Parameters:
 707:Generated_Source\PSoC4/PWM_Green.c **** *  None
 708:Generated_Source\PSoC4/PWM_Green.c **** *
 709:Generated_Source\PSoC4/PWM_Green.c **** * Return:
 710:Generated_Source\PSoC4/PWM_Green.c **** *  Period value
 711:Generated_Source\PSoC4/PWM_Green.c **** *
 712:Generated_Source\PSoC4/PWM_Green.c **** *******************************************************************************/
 713:Generated_Source\PSoC4/PWM_Green.c **** uint32 PWM_Green_ReadPeriod(void)
 714:Generated_Source\PSoC4/PWM_Green.c **** {
 972              		.loc 1 714 0
 973              		.cfi_startproc
 974              		@ args = 0, pretend = 0, frame = 0
 975              		@ frame_needed = 1, uses_anonymous_args = 0
 976 0000 80B5     		push	{r7, lr}
 977              		.cfi_def_cfa_offset 8
 978              		.cfi_offset 7, -8
 979              		.cfi_offset 14, -4
 980 0002 00AF     		add	r7, sp, #0
 981              		.cfi_def_cfa_register 7
 715:Generated_Source\PSoC4/PWM_Green.c ****     return (PWM_Green_PERIOD_REG & PWM_Green_16BIT_MASK);
 982              		.loc 1 715 0
 983 0004 034B     		ldr	r3, .L56
 984 0006 1B68     		ldr	r3, [r3]
 985 0008 1B04     		lsls	r3, r3, #16
 986 000a 1B0C     		lsrs	r3, r3, #16
 716:Generated_Source\PSoC4/PWM_Green.c **** }
 987              		.loc 1 716 0
 988 000c 1800     		movs	r0, r3
 989 000e BD46     		mov	sp, r7
 990              		@ sp needed
 991 0010 80BD     		pop	{r7, pc}
 992              	.L57:
 993 0012 C046     		.align	2
 994              	.L56:
ARM GAS  C:\Users\JOSEAN~1\AppData\Local\Temp\ccll5T2D.s 			page 31


 995 0014 14010540 		.word	1074069780
 996              		.cfi_endproc
 997              	.LFE17:
 998              		.size	PWM_Green_ReadPeriod, .-PWM_Green_ReadPeriod
 999              		.section	.text.PWM_Green_SetCompareSwap,"ax",%progbits
 1000              		.align	2
 1001              		.global	PWM_Green_SetCompareSwap
 1002              		.code	16
 1003              		.thumb_func
 1004              		.type	PWM_Green_SetCompareSwap, %function
 1005              	PWM_Green_SetCompareSwap:
 1006              	.LFB18:
 717:Generated_Source\PSoC4/PWM_Green.c **** 
 718:Generated_Source\PSoC4/PWM_Green.c **** 
 719:Generated_Source\PSoC4/PWM_Green.c **** /*******************************************************************************
 720:Generated_Source\PSoC4/PWM_Green.c **** * Function Name: PWM_Green_SetCompareSwap
 721:Generated_Source\PSoC4/PWM_Green.c **** ********************************************************************************
 722:Generated_Source\PSoC4/PWM_Green.c **** *
 723:Generated_Source\PSoC4/PWM_Green.c **** * Summary:
 724:Generated_Source\PSoC4/PWM_Green.c **** *  Writes the register that controls whether the compare registers are
 725:Generated_Source\PSoC4/PWM_Green.c **** *  swapped. When enabled in the Timer/Counter mode(without capture) the swap
 726:Generated_Source\PSoC4/PWM_Green.c **** *  occurs at a TC event. In the PWM mode the swap occurs at the next TC event
 727:Generated_Source\PSoC4/PWM_Green.c **** *  following a hardware switch event.
 728:Generated_Source\PSoC4/PWM_Green.c **** *
 729:Generated_Source\PSoC4/PWM_Green.c **** * Parameters:
 730:Generated_Source\PSoC4/PWM_Green.c **** *  swapEnable
 731:Generated_Source\PSoC4/PWM_Green.c **** *   Values:
 732:Generated_Source\PSoC4/PWM_Green.c **** *     - 0 - Disable swap
 733:Generated_Source\PSoC4/PWM_Green.c **** *     - 1 - Enable swap
 734:Generated_Source\PSoC4/PWM_Green.c **** *
 735:Generated_Source\PSoC4/PWM_Green.c **** * Return:
 736:Generated_Source\PSoC4/PWM_Green.c **** *  None
 737:Generated_Source\PSoC4/PWM_Green.c **** *
 738:Generated_Source\PSoC4/PWM_Green.c **** *******************************************************************************/
 739:Generated_Source\PSoC4/PWM_Green.c **** void PWM_Green_SetCompareSwap(uint32 swapEnable)
 740:Generated_Source\PSoC4/PWM_Green.c **** {
 1007              		.loc 1 740 0
 1008              		.cfi_startproc
 1009              		@ args = 0, pretend = 0, frame = 16
 1010              		@ frame_needed = 1, uses_anonymous_args = 0
 1011 0000 90B5     		push	{r4, r7, lr}
 1012              		.cfi_def_cfa_offset 12
 1013              		.cfi_offset 4, -12
 1014              		.cfi_offset 7, -8
 1015              		.cfi_offset 14, -4
 1016 0002 85B0     		sub	sp, sp, #20
 1017              		.cfi_def_cfa_offset 32
 1018 0004 00AF     		add	r7, sp, #0
 1019              		.cfi_def_cfa_register 7
 1020 0006 7860     		str	r0, [r7, #4]
 741:Generated_Source\PSoC4/PWM_Green.c ****     uint8 enableInterrupts;
 742:Generated_Source\PSoC4/PWM_Green.c **** 
 743:Generated_Source\PSoC4/PWM_Green.c ****     enableInterrupts = CyEnterCriticalSection();
 1021              		.loc 1 743 0
 1022 0008 0F23     		movs	r3, #15
 1023 000a FC18     		adds	r4, r7, r3
 1024 000c FFF7FEFF 		bl	CyEnterCriticalSection
ARM GAS  C:\Users\JOSEAN~1\AppData\Local\Temp\ccll5T2D.s 			page 32


 1025 0010 0300     		movs	r3, r0
 1026 0012 2370     		strb	r3, [r4]
 744:Generated_Source\PSoC4/PWM_Green.c **** 
 745:Generated_Source\PSoC4/PWM_Green.c ****     PWM_Green_CONTROL_REG &= (uint32)~PWM_Green_RELOAD_CC_MASK;
 1027              		.loc 1 745 0
 1028 0014 0B4B     		ldr	r3, .L59
 1029 0016 0B4A     		ldr	r2, .L59
 1030 0018 1268     		ldr	r2, [r2]
 1031 001a 0121     		movs	r1, #1
 1032 001c 8A43     		bics	r2, r1
 1033 001e 1A60     		str	r2, [r3]
 746:Generated_Source\PSoC4/PWM_Green.c ****     PWM_Green_CONTROL_REG |= (swapEnable & PWM_Green_1BIT_MASK);
 1034              		.loc 1 746 0
 1035 0020 084B     		ldr	r3, .L59
 1036 0022 084A     		ldr	r2, .L59
 1037 0024 1168     		ldr	r1, [r2]
 1038 0026 7A68     		ldr	r2, [r7, #4]
 1039 0028 0120     		movs	r0, #1
 1040 002a 0240     		ands	r2, r0
 1041 002c 0A43     		orrs	r2, r1
 1042 002e 1A60     		str	r2, [r3]
 747:Generated_Source\PSoC4/PWM_Green.c **** 
 748:Generated_Source\PSoC4/PWM_Green.c ****     CyExitCriticalSection(enableInterrupts);
 1043              		.loc 1 748 0
 1044 0030 0F23     		movs	r3, #15
 1045 0032 FB18     		adds	r3, r7, r3
 1046 0034 1B78     		ldrb	r3, [r3]
 1047 0036 1800     		movs	r0, r3
 1048 0038 FFF7FEFF 		bl	CyExitCriticalSection
 749:Generated_Source\PSoC4/PWM_Green.c **** }
 1049              		.loc 1 749 0
 1050 003c C046     		nop
 1051 003e BD46     		mov	sp, r7
 1052 0040 05B0     		add	sp, sp, #20
 1053              		@ sp needed
 1054 0042 90BD     		pop	{r4, r7, pc}
 1055              	.L60:
 1056              		.align	2
 1057              	.L59:
 1058 0044 00010540 		.word	1074069760
 1059              		.cfi_endproc
 1060              	.LFE18:
 1061              		.size	PWM_Green_SetCompareSwap, .-PWM_Green_SetCompareSwap
 1062              		.section	.text.PWM_Green_WritePeriodBuf,"ax",%progbits
 1063              		.align	2
 1064              		.global	PWM_Green_WritePeriodBuf
 1065              		.code	16
 1066              		.thumb_func
 1067              		.type	PWM_Green_WritePeriodBuf, %function
 1068              	PWM_Green_WritePeriodBuf:
 1069              	.LFB19:
 750:Generated_Source\PSoC4/PWM_Green.c **** 
 751:Generated_Source\PSoC4/PWM_Green.c **** 
 752:Generated_Source\PSoC4/PWM_Green.c **** /*******************************************************************************
 753:Generated_Source\PSoC4/PWM_Green.c **** * Function Name: PWM_Green_WritePeriodBuf
 754:Generated_Source\PSoC4/PWM_Green.c **** ********************************************************************************
 755:Generated_Source\PSoC4/PWM_Green.c **** *
ARM GAS  C:\Users\JOSEAN~1\AppData\Local\Temp\ccll5T2D.s 			page 33


 756:Generated_Source\PSoC4/PWM_Green.c **** * Summary:
 757:Generated_Source\PSoC4/PWM_Green.c **** *  Writes the 16 bit period buf register with the new period value.
 758:Generated_Source\PSoC4/PWM_Green.c **** *
 759:Generated_Source\PSoC4/PWM_Green.c **** * Parameters:
 760:Generated_Source\PSoC4/PWM_Green.c **** *  periodBuf: Period value
 761:Generated_Source\PSoC4/PWM_Green.c **** *
 762:Generated_Source\PSoC4/PWM_Green.c **** * Return:
 763:Generated_Source\PSoC4/PWM_Green.c **** *  None
 764:Generated_Source\PSoC4/PWM_Green.c **** *
 765:Generated_Source\PSoC4/PWM_Green.c **** *******************************************************************************/
 766:Generated_Source\PSoC4/PWM_Green.c **** void PWM_Green_WritePeriodBuf(uint32 periodBuf)
 767:Generated_Source\PSoC4/PWM_Green.c **** {
 1070              		.loc 1 767 0
 1071              		.cfi_startproc
 1072              		@ args = 0, pretend = 0, frame = 8
 1073              		@ frame_needed = 1, uses_anonymous_args = 0
 1074 0000 80B5     		push	{r7, lr}
 1075              		.cfi_def_cfa_offset 8
 1076              		.cfi_offset 7, -8
 1077              		.cfi_offset 14, -4
 1078 0002 82B0     		sub	sp, sp, #8
 1079              		.cfi_def_cfa_offset 16
 1080 0004 00AF     		add	r7, sp, #0
 1081              		.cfi_def_cfa_register 7
 1082 0006 7860     		str	r0, [r7, #4]
 768:Generated_Source\PSoC4/PWM_Green.c ****     PWM_Green_PERIOD_BUF_REG = (periodBuf & PWM_Green_16BIT_MASK);
 1083              		.loc 1 768 0
 1084 0008 044B     		ldr	r3, .L62
 1085 000a 7A68     		ldr	r2, [r7, #4]
 1086 000c 1204     		lsls	r2, r2, #16
 1087 000e 120C     		lsrs	r2, r2, #16
 1088 0010 1A60     		str	r2, [r3]
 769:Generated_Source\PSoC4/PWM_Green.c **** }
 1089              		.loc 1 769 0
 1090 0012 C046     		nop
 1091 0014 BD46     		mov	sp, r7
 1092 0016 02B0     		add	sp, sp, #8
 1093              		@ sp needed
 1094 0018 80BD     		pop	{r7, pc}
 1095              	.L63:
 1096 001a C046     		.align	2
 1097              	.L62:
 1098 001c 18010540 		.word	1074069784
 1099              		.cfi_endproc
 1100              	.LFE19:
 1101              		.size	PWM_Green_WritePeriodBuf, .-PWM_Green_WritePeriodBuf
 1102              		.section	.text.PWM_Green_ReadPeriodBuf,"ax",%progbits
 1103              		.align	2
 1104              		.global	PWM_Green_ReadPeriodBuf
 1105              		.code	16
 1106              		.thumb_func
 1107              		.type	PWM_Green_ReadPeriodBuf, %function
 1108              	PWM_Green_ReadPeriodBuf:
 1109              	.LFB20:
 770:Generated_Source\PSoC4/PWM_Green.c **** 
 771:Generated_Source\PSoC4/PWM_Green.c **** 
 772:Generated_Source\PSoC4/PWM_Green.c **** /*******************************************************************************
ARM GAS  C:\Users\JOSEAN~1\AppData\Local\Temp\ccll5T2D.s 			page 34


 773:Generated_Source\PSoC4/PWM_Green.c **** * Function Name: PWM_Green_ReadPeriodBuf
 774:Generated_Source\PSoC4/PWM_Green.c **** ********************************************************************************
 775:Generated_Source\PSoC4/PWM_Green.c **** *
 776:Generated_Source\PSoC4/PWM_Green.c **** * Summary:
 777:Generated_Source\PSoC4/PWM_Green.c **** *  Reads the 16 bit period buf register.
 778:Generated_Source\PSoC4/PWM_Green.c **** *
 779:Generated_Source\PSoC4/PWM_Green.c **** * Parameters:
 780:Generated_Source\PSoC4/PWM_Green.c **** *  None
 781:Generated_Source\PSoC4/PWM_Green.c **** *
 782:Generated_Source\PSoC4/PWM_Green.c **** * Return:
 783:Generated_Source\PSoC4/PWM_Green.c **** *  Period value
 784:Generated_Source\PSoC4/PWM_Green.c **** *
 785:Generated_Source\PSoC4/PWM_Green.c **** *******************************************************************************/
 786:Generated_Source\PSoC4/PWM_Green.c **** uint32 PWM_Green_ReadPeriodBuf(void)
 787:Generated_Source\PSoC4/PWM_Green.c **** {
 1110              		.loc 1 787 0
 1111              		.cfi_startproc
 1112              		@ args = 0, pretend = 0, frame = 0
 1113              		@ frame_needed = 1, uses_anonymous_args = 0
 1114 0000 80B5     		push	{r7, lr}
 1115              		.cfi_def_cfa_offset 8
 1116              		.cfi_offset 7, -8
 1117              		.cfi_offset 14, -4
 1118 0002 00AF     		add	r7, sp, #0
 1119              		.cfi_def_cfa_register 7
 788:Generated_Source\PSoC4/PWM_Green.c ****     return (PWM_Green_PERIOD_BUF_REG & PWM_Green_16BIT_MASK);
 1120              		.loc 1 788 0
 1121 0004 034B     		ldr	r3, .L66
 1122 0006 1B68     		ldr	r3, [r3]
 1123 0008 1B04     		lsls	r3, r3, #16
 1124 000a 1B0C     		lsrs	r3, r3, #16
 789:Generated_Source\PSoC4/PWM_Green.c **** }
 1125              		.loc 1 789 0
 1126 000c 1800     		movs	r0, r3
 1127 000e BD46     		mov	sp, r7
 1128              		@ sp needed
 1129 0010 80BD     		pop	{r7, pc}
 1130              	.L67:
 1131 0012 C046     		.align	2
 1132              	.L66:
 1133 0014 18010540 		.word	1074069784
 1134              		.cfi_endproc
 1135              	.LFE20:
 1136              		.size	PWM_Green_ReadPeriodBuf, .-PWM_Green_ReadPeriodBuf
 1137              		.section	.text.PWM_Green_SetPeriodSwap,"ax",%progbits
 1138              		.align	2
 1139              		.global	PWM_Green_SetPeriodSwap
 1140              		.code	16
 1141              		.thumb_func
 1142              		.type	PWM_Green_SetPeriodSwap, %function
 1143              	PWM_Green_SetPeriodSwap:
 1144              	.LFB21:
 790:Generated_Source\PSoC4/PWM_Green.c **** 
 791:Generated_Source\PSoC4/PWM_Green.c **** 
 792:Generated_Source\PSoC4/PWM_Green.c **** /*******************************************************************************
 793:Generated_Source\PSoC4/PWM_Green.c **** * Function Name: PWM_Green_SetPeriodSwap
 794:Generated_Source\PSoC4/PWM_Green.c **** ********************************************************************************
ARM GAS  C:\Users\JOSEAN~1\AppData\Local\Temp\ccll5T2D.s 			page 35


 795:Generated_Source\PSoC4/PWM_Green.c **** *
 796:Generated_Source\PSoC4/PWM_Green.c **** * Summary:
 797:Generated_Source\PSoC4/PWM_Green.c **** *  Writes the register that controls whether the period registers are
 798:Generated_Source\PSoC4/PWM_Green.c **** *  swapped. When enabled in Timer/Counter mode the swap occurs at a TC event.
 799:Generated_Source\PSoC4/PWM_Green.c **** *  In the PWM mode the swap occurs at the next TC event following a hardware
 800:Generated_Source\PSoC4/PWM_Green.c **** *  switch event.
 801:Generated_Source\PSoC4/PWM_Green.c **** *
 802:Generated_Source\PSoC4/PWM_Green.c **** * Parameters:
 803:Generated_Source\PSoC4/PWM_Green.c **** *  swapEnable
 804:Generated_Source\PSoC4/PWM_Green.c **** *   Values:
 805:Generated_Source\PSoC4/PWM_Green.c **** *     - 0 - Disable swap
 806:Generated_Source\PSoC4/PWM_Green.c **** *     - 1 - Enable swap
 807:Generated_Source\PSoC4/PWM_Green.c **** *
 808:Generated_Source\PSoC4/PWM_Green.c **** * Return:
 809:Generated_Source\PSoC4/PWM_Green.c **** *  None
 810:Generated_Source\PSoC4/PWM_Green.c **** *
 811:Generated_Source\PSoC4/PWM_Green.c **** *******************************************************************************/
 812:Generated_Source\PSoC4/PWM_Green.c **** void PWM_Green_SetPeriodSwap(uint32 swapEnable)
 813:Generated_Source\PSoC4/PWM_Green.c **** {
 1145              		.loc 1 813 0
 1146              		.cfi_startproc
 1147              		@ args = 0, pretend = 0, frame = 16
 1148              		@ frame_needed = 1, uses_anonymous_args = 0
 1149 0000 90B5     		push	{r4, r7, lr}
 1150              		.cfi_def_cfa_offset 12
 1151              		.cfi_offset 4, -12
 1152              		.cfi_offset 7, -8
 1153              		.cfi_offset 14, -4
 1154 0002 85B0     		sub	sp, sp, #20
 1155              		.cfi_def_cfa_offset 32
 1156 0004 00AF     		add	r7, sp, #0
 1157              		.cfi_def_cfa_register 7
 1158 0006 7860     		str	r0, [r7, #4]
 814:Generated_Source\PSoC4/PWM_Green.c ****     uint8 enableInterrupts;
 815:Generated_Source\PSoC4/PWM_Green.c **** 
 816:Generated_Source\PSoC4/PWM_Green.c ****     enableInterrupts = CyEnterCriticalSection();
 1159              		.loc 1 816 0
 1160 0008 0F23     		movs	r3, #15
 1161 000a FC18     		adds	r4, r7, r3
 1162 000c FFF7FEFF 		bl	CyEnterCriticalSection
 1163 0010 0300     		movs	r3, r0
 1164 0012 2370     		strb	r3, [r4]
 817:Generated_Source\PSoC4/PWM_Green.c **** 
 818:Generated_Source\PSoC4/PWM_Green.c ****     PWM_Green_CONTROL_REG &= (uint32)~PWM_Green_RELOAD_PERIOD_MASK;
 1165              		.loc 1 818 0
 1166 0014 0C4B     		ldr	r3, .L69
 1167 0016 0C4A     		ldr	r2, .L69
 1168 0018 1268     		ldr	r2, [r2]
 1169 001a 0221     		movs	r1, #2
 1170 001c 8A43     		bics	r2, r1
 1171 001e 1A60     		str	r2, [r3]
 819:Generated_Source\PSoC4/PWM_Green.c ****     PWM_Green_CONTROL_REG |= ((uint32)((swapEnable & PWM_Green_1BIT_MASK) <<
 1172              		.loc 1 819 0
 1173 0020 094B     		ldr	r3, .L69
 1174 0022 094A     		ldr	r2, .L69
 1175 0024 1168     		ldr	r1, [r2]
 1176 0026 7A68     		ldr	r2, [r7, #4]
ARM GAS  C:\Users\JOSEAN~1\AppData\Local\Temp\ccll5T2D.s 			page 36


 1177 0028 5200     		lsls	r2, r2, #1
 1178 002a 0220     		movs	r0, #2
 1179 002c 0240     		ands	r2, r0
 1180 002e 0A43     		orrs	r2, r1
 1181 0030 1A60     		str	r2, [r3]
 820:Generated_Source\PSoC4/PWM_Green.c ****                                                             PWM_Green_RELOAD_PERIOD_SHIFT));
 821:Generated_Source\PSoC4/PWM_Green.c **** 
 822:Generated_Source\PSoC4/PWM_Green.c ****     CyExitCriticalSection(enableInterrupts);
 1182              		.loc 1 822 0
 1183 0032 0F23     		movs	r3, #15
 1184 0034 FB18     		adds	r3, r7, r3
 1185 0036 1B78     		ldrb	r3, [r3]
 1186 0038 1800     		movs	r0, r3
 1187 003a FFF7FEFF 		bl	CyExitCriticalSection
 823:Generated_Source\PSoC4/PWM_Green.c **** }
 1188              		.loc 1 823 0
 1189 003e C046     		nop
 1190 0040 BD46     		mov	sp, r7
 1191 0042 05B0     		add	sp, sp, #20
 1192              		@ sp needed
 1193 0044 90BD     		pop	{r4, r7, pc}
 1194              	.L70:
 1195 0046 C046     		.align	2
 1196              	.L69:
 1197 0048 00010540 		.word	1074069760
 1198              		.cfi_endproc
 1199              	.LFE21:
 1200              		.size	PWM_Green_SetPeriodSwap, .-PWM_Green_SetPeriodSwap
 1201              		.section	.text.PWM_Green_WriteCompare,"ax",%progbits
 1202              		.align	2
 1203              		.global	PWM_Green_WriteCompare
 1204              		.code	16
 1205              		.thumb_func
 1206              		.type	PWM_Green_WriteCompare, %function
 1207              	PWM_Green_WriteCompare:
 1208              	.LFB22:
 824:Generated_Source\PSoC4/PWM_Green.c **** 
 825:Generated_Source\PSoC4/PWM_Green.c **** 
 826:Generated_Source\PSoC4/PWM_Green.c **** /*******************************************************************************
 827:Generated_Source\PSoC4/PWM_Green.c **** * Function Name: PWM_Green_WriteCompare
 828:Generated_Source\PSoC4/PWM_Green.c **** ********************************************************************************
 829:Generated_Source\PSoC4/PWM_Green.c **** *
 830:Generated_Source\PSoC4/PWM_Green.c **** * Summary:
 831:Generated_Source\PSoC4/PWM_Green.c **** *  Writes the 16 bit compare register with the new compare value. Not
 832:Generated_Source\PSoC4/PWM_Green.c **** *  applicable for Timer/Counter with Capture or in Quadrature Decoder modes.
 833:Generated_Source\PSoC4/PWM_Green.c **** *
 834:Generated_Source\PSoC4/PWM_Green.c **** * Parameters:
 835:Generated_Source\PSoC4/PWM_Green.c **** *  compare: Compare value
 836:Generated_Source\PSoC4/PWM_Green.c **** *
 837:Generated_Source\PSoC4/PWM_Green.c **** * Return:
 838:Generated_Source\PSoC4/PWM_Green.c **** *  None
 839:Generated_Source\PSoC4/PWM_Green.c **** *
 840:Generated_Source\PSoC4/PWM_Green.c **** * Note:
 841:Generated_Source\PSoC4/PWM_Green.c **** *  It is not recommended to use the value equal to "0" or equal to 
 842:Generated_Source\PSoC4/PWM_Green.c **** *  "period value" in Center or Asymmetric align PWM modes on the 
 843:Generated_Source\PSoC4/PWM_Green.c **** *  PSoC 4100/PSoC 4200 devices.
 844:Generated_Source\PSoC4/PWM_Green.c **** *  PSoC 4000 devices write the 16 bit compare register with the decremented 
ARM GAS  C:\Users\JOSEAN~1\AppData\Local\Temp\ccll5T2D.s 			page 37


 845:Generated_Source\PSoC4/PWM_Green.c **** *  compare value in the Up counting mode (except 0x0u), and the incremented 
 846:Generated_Source\PSoC4/PWM_Green.c **** *  compare value in the Down counting mode (except 0xFFFFu).
 847:Generated_Source\PSoC4/PWM_Green.c **** *
 848:Generated_Source\PSoC4/PWM_Green.c **** *******************************************************************************/
 849:Generated_Source\PSoC4/PWM_Green.c **** void PWM_Green_WriteCompare(uint32 compare)
 850:Generated_Source\PSoC4/PWM_Green.c **** {
 1209              		.loc 1 850 0
 1210              		.cfi_startproc
 1211              		@ args = 0, pretend = 0, frame = 8
 1212              		@ frame_needed = 1, uses_anonymous_args = 0
 1213 0000 80B5     		push	{r7, lr}
 1214              		.cfi_def_cfa_offset 8
 1215              		.cfi_offset 7, -8
 1216              		.cfi_offset 14, -4
 1217 0002 82B0     		sub	sp, sp, #8
 1218              		.cfi_def_cfa_offset 16
 1219 0004 00AF     		add	r7, sp, #0
 1220              		.cfi_def_cfa_register 7
 1221 0006 7860     		str	r0, [r7, #4]
 851:Generated_Source\PSoC4/PWM_Green.c ****     #if (PWM_Green_CY_TCPWM_4000)
 852:Generated_Source\PSoC4/PWM_Green.c ****         uint32 currentMode;
 853:Generated_Source\PSoC4/PWM_Green.c ****     #endif /* (PWM_Green_CY_TCPWM_4000) */
 854:Generated_Source\PSoC4/PWM_Green.c **** 
 855:Generated_Source\PSoC4/PWM_Green.c ****     #if (PWM_Green_CY_TCPWM_4000)
 856:Generated_Source\PSoC4/PWM_Green.c ****         currentMode = ((PWM_Green_CONTROL_REG & PWM_Green_UPDOWN_MASK) >> PWM_Green_UPDOWN_SHIFT);
 857:Generated_Source\PSoC4/PWM_Green.c **** 
 858:Generated_Source\PSoC4/PWM_Green.c ****         if (((uint32)PWM_Green__COUNT_DOWN == currentMode) && (0xFFFFu != compare))
 859:Generated_Source\PSoC4/PWM_Green.c ****         {
 860:Generated_Source\PSoC4/PWM_Green.c ****             compare++;
 861:Generated_Source\PSoC4/PWM_Green.c ****         }
 862:Generated_Source\PSoC4/PWM_Green.c ****         else if (((uint32)PWM_Green__COUNT_UP == currentMode) && (0u != compare))
 863:Generated_Source\PSoC4/PWM_Green.c ****         {
 864:Generated_Source\PSoC4/PWM_Green.c ****             compare--;
 865:Generated_Source\PSoC4/PWM_Green.c ****         }
 866:Generated_Source\PSoC4/PWM_Green.c ****         else
 867:Generated_Source\PSoC4/PWM_Green.c ****         {
 868:Generated_Source\PSoC4/PWM_Green.c ****         }
 869:Generated_Source\PSoC4/PWM_Green.c ****         
 870:Generated_Source\PSoC4/PWM_Green.c ****     
 871:Generated_Source\PSoC4/PWM_Green.c ****     #endif /* (PWM_Green_CY_TCPWM_4000) */
 872:Generated_Source\PSoC4/PWM_Green.c ****     
 873:Generated_Source\PSoC4/PWM_Green.c ****     PWM_Green_COMP_CAP_REG = (compare & PWM_Green_16BIT_MASK);
 1222              		.loc 1 873 0
 1223 0008 044B     		ldr	r3, .L72
 1224 000a 7A68     		ldr	r2, [r7, #4]
 1225 000c 1204     		lsls	r2, r2, #16
 1226 000e 120C     		lsrs	r2, r2, #16
 1227 0010 1A60     		str	r2, [r3]
 874:Generated_Source\PSoC4/PWM_Green.c **** }
 1228              		.loc 1 874 0
 1229 0012 C046     		nop
 1230 0014 BD46     		mov	sp, r7
 1231 0016 02B0     		add	sp, sp, #8
 1232              		@ sp needed
 1233 0018 80BD     		pop	{r7, pc}
 1234              	.L73:
 1235 001a C046     		.align	2
ARM GAS  C:\Users\JOSEAN~1\AppData\Local\Temp\ccll5T2D.s 			page 38


 1236              	.L72:
 1237 001c 0C010540 		.word	1074069772
 1238              		.cfi_endproc
 1239              	.LFE22:
 1240              		.size	PWM_Green_WriteCompare, .-PWM_Green_WriteCompare
 1241              		.section	.text.PWM_Green_ReadCompare,"ax",%progbits
 1242              		.align	2
 1243              		.global	PWM_Green_ReadCompare
 1244              		.code	16
 1245              		.thumb_func
 1246              		.type	PWM_Green_ReadCompare, %function
 1247              	PWM_Green_ReadCompare:
 1248              	.LFB23:
 875:Generated_Source\PSoC4/PWM_Green.c **** 
 876:Generated_Source\PSoC4/PWM_Green.c **** 
 877:Generated_Source\PSoC4/PWM_Green.c **** /*******************************************************************************
 878:Generated_Source\PSoC4/PWM_Green.c **** * Function Name: PWM_Green_ReadCompare
 879:Generated_Source\PSoC4/PWM_Green.c **** ********************************************************************************
 880:Generated_Source\PSoC4/PWM_Green.c **** *
 881:Generated_Source\PSoC4/PWM_Green.c **** * Summary:
 882:Generated_Source\PSoC4/PWM_Green.c **** *  Reads the compare register. Not applicable for Timer/Counter with Capture
 883:Generated_Source\PSoC4/PWM_Green.c **** *  or in Quadrature Decoder modes.
 884:Generated_Source\PSoC4/PWM_Green.c **** *  PSoC 4000 devices read the incremented compare register value in the 
 885:Generated_Source\PSoC4/PWM_Green.c **** *  Up counting mode (except 0xFFFFu), and the decremented value in the 
 886:Generated_Source\PSoC4/PWM_Green.c **** *  Down counting mode (except 0x0u).
 887:Generated_Source\PSoC4/PWM_Green.c **** *
 888:Generated_Source\PSoC4/PWM_Green.c **** * Parameters:
 889:Generated_Source\PSoC4/PWM_Green.c **** *  None
 890:Generated_Source\PSoC4/PWM_Green.c **** *
 891:Generated_Source\PSoC4/PWM_Green.c **** * Return:
 892:Generated_Source\PSoC4/PWM_Green.c **** *  Compare value
 893:Generated_Source\PSoC4/PWM_Green.c **** *
 894:Generated_Source\PSoC4/PWM_Green.c **** * Note:
 895:Generated_Source\PSoC4/PWM_Green.c **** *  PSoC 4000 devices read the incremented compare register value in the 
 896:Generated_Source\PSoC4/PWM_Green.c **** *  Up counting mode (except 0xFFFFu), and the decremented value in the 
 897:Generated_Source\PSoC4/PWM_Green.c **** *  Down counting mode (except 0x0u).
 898:Generated_Source\PSoC4/PWM_Green.c **** *
 899:Generated_Source\PSoC4/PWM_Green.c **** *******************************************************************************/
 900:Generated_Source\PSoC4/PWM_Green.c **** uint32 PWM_Green_ReadCompare(void)
 901:Generated_Source\PSoC4/PWM_Green.c **** {
 1249              		.loc 1 901 0
 1250              		.cfi_startproc
 1251              		@ args = 0, pretend = 0, frame = 0
 1252              		@ frame_needed = 1, uses_anonymous_args = 0
 1253 0000 80B5     		push	{r7, lr}
 1254              		.cfi_def_cfa_offset 8
 1255              		.cfi_offset 7, -8
 1256              		.cfi_offset 14, -4
 1257 0002 00AF     		add	r7, sp, #0
 1258              		.cfi_def_cfa_register 7
 902:Generated_Source\PSoC4/PWM_Green.c ****     #if (PWM_Green_CY_TCPWM_4000)
 903:Generated_Source\PSoC4/PWM_Green.c ****         uint32 currentMode;
 904:Generated_Source\PSoC4/PWM_Green.c ****         uint32 regVal;
 905:Generated_Source\PSoC4/PWM_Green.c ****     #endif /* (PWM_Green_CY_TCPWM_4000) */
 906:Generated_Source\PSoC4/PWM_Green.c **** 
 907:Generated_Source\PSoC4/PWM_Green.c ****     #if (PWM_Green_CY_TCPWM_4000)
 908:Generated_Source\PSoC4/PWM_Green.c ****         currentMode = ((PWM_Green_CONTROL_REG & PWM_Green_UPDOWN_MASK) >> PWM_Green_UPDOWN_SHIFT);
ARM GAS  C:\Users\JOSEAN~1\AppData\Local\Temp\ccll5T2D.s 			page 39


 909:Generated_Source\PSoC4/PWM_Green.c ****         
 910:Generated_Source\PSoC4/PWM_Green.c ****         regVal = PWM_Green_COMP_CAP_REG;
 911:Generated_Source\PSoC4/PWM_Green.c ****         
 912:Generated_Source\PSoC4/PWM_Green.c ****         if (((uint32)PWM_Green__COUNT_DOWN == currentMode) && (0u != regVal))
 913:Generated_Source\PSoC4/PWM_Green.c ****         {
 914:Generated_Source\PSoC4/PWM_Green.c ****             regVal--;
 915:Generated_Source\PSoC4/PWM_Green.c ****         }
 916:Generated_Source\PSoC4/PWM_Green.c ****         else if (((uint32)PWM_Green__COUNT_UP == currentMode) && (0xFFFFu != regVal))
 917:Generated_Source\PSoC4/PWM_Green.c ****         {
 918:Generated_Source\PSoC4/PWM_Green.c ****             regVal++;
 919:Generated_Source\PSoC4/PWM_Green.c ****         }
 920:Generated_Source\PSoC4/PWM_Green.c ****         else
 921:Generated_Source\PSoC4/PWM_Green.c ****         {
 922:Generated_Source\PSoC4/PWM_Green.c ****         }
 923:Generated_Source\PSoC4/PWM_Green.c **** 
 924:Generated_Source\PSoC4/PWM_Green.c ****         return (regVal & PWM_Green_16BIT_MASK);
 925:Generated_Source\PSoC4/PWM_Green.c ****     #else
 926:Generated_Source\PSoC4/PWM_Green.c ****         return (PWM_Green_COMP_CAP_REG & PWM_Green_16BIT_MASK);
 1259              		.loc 1 926 0
 1260 0004 034B     		ldr	r3, .L76
 1261 0006 1B68     		ldr	r3, [r3]
 1262 0008 1B04     		lsls	r3, r3, #16
 1263 000a 1B0C     		lsrs	r3, r3, #16
 927:Generated_Source\PSoC4/PWM_Green.c ****     #endif /* (PWM_Green_CY_TCPWM_4000) */
 928:Generated_Source\PSoC4/PWM_Green.c **** }
 1264              		.loc 1 928 0
 1265 000c 1800     		movs	r0, r3
 1266 000e BD46     		mov	sp, r7
 1267              		@ sp needed
 1268 0010 80BD     		pop	{r7, pc}
 1269              	.L77:
 1270 0012 C046     		.align	2
 1271              	.L76:
 1272 0014 0C010540 		.word	1074069772
 1273              		.cfi_endproc
 1274              	.LFE23:
 1275              		.size	PWM_Green_ReadCompare, .-PWM_Green_ReadCompare
 1276              		.section	.text.PWM_Green_WriteCompareBuf,"ax",%progbits
 1277              		.align	2
 1278              		.global	PWM_Green_WriteCompareBuf
 1279              		.code	16
 1280              		.thumb_func
 1281              		.type	PWM_Green_WriteCompareBuf, %function
 1282              	PWM_Green_WriteCompareBuf:
 1283              	.LFB24:
 929:Generated_Source\PSoC4/PWM_Green.c **** 
 930:Generated_Source\PSoC4/PWM_Green.c **** 
 931:Generated_Source\PSoC4/PWM_Green.c **** /*******************************************************************************
 932:Generated_Source\PSoC4/PWM_Green.c **** * Function Name: PWM_Green_WriteCompareBuf
 933:Generated_Source\PSoC4/PWM_Green.c **** ********************************************************************************
 934:Generated_Source\PSoC4/PWM_Green.c **** *
 935:Generated_Source\PSoC4/PWM_Green.c **** * Summary:
 936:Generated_Source\PSoC4/PWM_Green.c **** *  Writes the 16 bit compare buffer register with the new compare value. Not
 937:Generated_Source\PSoC4/PWM_Green.c **** *  applicable for Timer/Counter with Capture or in Quadrature Decoder modes.
 938:Generated_Source\PSoC4/PWM_Green.c **** *
 939:Generated_Source\PSoC4/PWM_Green.c **** * Parameters:
 940:Generated_Source\PSoC4/PWM_Green.c **** *  compareBuf: Compare value
ARM GAS  C:\Users\JOSEAN~1\AppData\Local\Temp\ccll5T2D.s 			page 40


 941:Generated_Source\PSoC4/PWM_Green.c **** *
 942:Generated_Source\PSoC4/PWM_Green.c **** * Return:
 943:Generated_Source\PSoC4/PWM_Green.c **** *  None
 944:Generated_Source\PSoC4/PWM_Green.c **** *
 945:Generated_Source\PSoC4/PWM_Green.c **** * Note:
 946:Generated_Source\PSoC4/PWM_Green.c **** *  It is not recommended to use the value equal to "0" or equal to 
 947:Generated_Source\PSoC4/PWM_Green.c **** *  "period value" in Center or Asymmetric align PWM modes on the 
 948:Generated_Source\PSoC4/PWM_Green.c **** *  PSoC 4100/PSoC 4200 devices.
 949:Generated_Source\PSoC4/PWM_Green.c **** *  PSoC 4000 devices write the 16 bit compare register with the decremented 
 950:Generated_Source\PSoC4/PWM_Green.c **** *  compare value in the Up counting mode (except 0x0u), and the incremented 
 951:Generated_Source\PSoC4/PWM_Green.c **** *  compare value in the Down counting mode (except 0xFFFFu).
 952:Generated_Source\PSoC4/PWM_Green.c **** *
 953:Generated_Source\PSoC4/PWM_Green.c **** *******************************************************************************/
 954:Generated_Source\PSoC4/PWM_Green.c **** void PWM_Green_WriteCompareBuf(uint32 compareBuf)
 955:Generated_Source\PSoC4/PWM_Green.c **** {
 1284              		.loc 1 955 0
 1285              		.cfi_startproc
 1286              		@ args = 0, pretend = 0, frame = 8
 1287              		@ frame_needed = 1, uses_anonymous_args = 0
 1288 0000 80B5     		push	{r7, lr}
 1289              		.cfi_def_cfa_offset 8
 1290              		.cfi_offset 7, -8
 1291              		.cfi_offset 14, -4
 1292 0002 82B0     		sub	sp, sp, #8
 1293              		.cfi_def_cfa_offset 16
 1294 0004 00AF     		add	r7, sp, #0
 1295              		.cfi_def_cfa_register 7
 1296 0006 7860     		str	r0, [r7, #4]
 956:Generated_Source\PSoC4/PWM_Green.c ****     #if (PWM_Green_CY_TCPWM_4000)
 957:Generated_Source\PSoC4/PWM_Green.c ****         uint32 currentMode;
 958:Generated_Source\PSoC4/PWM_Green.c ****     #endif /* (PWM_Green_CY_TCPWM_4000) */
 959:Generated_Source\PSoC4/PWM_Green.c **** 
 960:Generated_Source\PSoC4/PWM_Green.c ****     #if (PWM_Green_CY_TCPWM_4000)
 961:Generated_Source\PSoC4/PWM_Green.c ****         currentMode = ((PWM_Green_CONTROL_REG & PWM_Green_UPDOWN_MASK) >> PWM_Green_UPDOWN_SHIFT);
 962:Generated_Source\PSoC4/PWM_Green.c **** 
 963:Generated_Source\PSoC4/PWM_Green.c ****         if (((uint32)PWM_Green__COUNT_DOWN == currentMode) && (0xFFFFu != compareBuf))
 964:Generated_Source\PSoC4/PWM_Green.c ****         {
 965:Generated_Source\PSoC4/PWM_Green.c ****             compareBuf++;
 966:Generated_Source\PSoC4/PWM_Green.c ****         }
 967:Generated_Source\PSoC4/PWM_Green.c ****         else if (((uint32)PWM_Green__COUNT_UP == currentMode) && (0u != compareBuf))
 968:Generated_Source\PSoC4/PWM_Green.c ****         {
 969:Generated_Source\PSoC4/PWM_Green.c ****             compareBuf --;
 970:Generated_Source\PSoC4/PWM_Green.c ****         }
 971:Generated_Source\PSoC4/PWM_Green.c ****         else
 972:Generated_Source\PSoC4/PWM_Green.c ****         {
 973:Generated_Source\PSoC4/PWM_Green.c ****         }
 974:Generated_Source\PSoC4/PWM_Green.c ****     #endif /* (PWM_Green_CY_TCPWM_4000) */
 975:Generated_Source\PSoC4/PWM_Green.c ****     
 976:Generated_Source\PSoC4/PWM_Green.c ****     PWM_Green_COMP_CAP_BUF_REG = (compareBuf & PWM_Green_16BIT_MASK);
 1297              		.loc 1 976 0
 1298 0008 044B     		ldr	r3, .L79
 1299 000a 7A68     		ldr	r2, [r7, #4]
 1300 000c 1204     		lsls	r2, r2, #16
 1301 000e 120C     		lsrs	r2, r2, #16
 1302 0010 1A60     		str	r2, [r3]
 977:Generated_Source\PSoC4/PWM_Green.c **** }
 1303              		.loc 1 977 0
ARM GAS  C:\Users\JOSEAN~1\AppData\Local\Temp\ccll5T2D.s 			page 41


 1304 0012 C046     		nop
 1305 0014 BD46     		mov	sp, r7
 1306 0016 02B0     		add	sp, sp, #8
 1307              		@ sp needed
 1308 0018 80BD     		pop	{r7, pc}
 1309              	.L80:
 1310 001a C046     		.align	2
 1311              	.L79:
 1312 001c 10010540 		.word	1074069776
 1313              		.cfi_endproc
 1314              	.LFE24:
 1315              		.size	PWM_Green_WriteCompareBuf, .-PWM_Green_WriteCompareBuf
 1316              		.section	.text.PWM_Green_ReadCompareBuf,"ax",%progbits
 1317              		.align	2
 1318              		.global	PWM_Green_ReadCompareBuf
 1319              		.code	16
 1320              		.thumb_func
 1321              		.type	PWM_Green_ReadCompareBuf, %function
 1322              	PWM_Green_ReadCompareBuf:
 1323              	.LFB25:
 978:Generated_Source\PSoC4/PWM_Green.c **** 
 979:Generated_Source\PSoC4/PWM_Green.c **** 
 980:Generated_Source\PSoC4/PWM_Green.c **** /*******************************************************************************
 981:Generated_Source\PSoC4/PWM_Green.c **** * Function Name: PWM_Green_ReadCompareBuf
 982:Generated_Source\PSoC4/PWM_Green.c **** ********************************************************************************
 983:Generated_Source\PSoC4/PWM_Green.c **** *
 984:Generated_Source\PSoC4/PWM_Green.c **** * Summary:
 985:Generated_Source\PSoC4/PWM_Green.c **** *  Reads the compare buffer register. Not applicable for Timer/Counter with
 986:Generated_Source\PSoC4/PWM_Green.c **** *  Capture or in Quadrature Decoder modes.
 987:Generated_Source\PSoC4/PWM_Green.c **** *
 988:Generated_Source\PSoC4/PWM_Green.c **** * Parameters:
 989:Generated_Source\PSoC4/PWM_Green.c **** *  None
 990:Generated_Source\PSoC4/PWM_Green.c **** *
 991:Generated_Source\PSoC4/PWM_Green.c **** * Return:
 992:Generated_Source\PSoC4/PWM_Green.c **** *  Compare buffer value
 993:Generated_Source\PSoC4/PWM_Green.c **** *
 994:Generated_Source\PSoC4/PWM_Green.c **** * Note:
 995:Generated_Source\PSoC4/PWM_Green.c **** *  PSoC 4000 devices read the incremented compare register value in the 
 996:Generated_Source\PSoC4/PWM_Green.c **** *  Up counting mode (except 0xFFFFu), and the decremented value in the 
 997:Generated_Source\PSoC4/PWM_Green.c **** *  Down counting mode (except 0x0u).
 998:Generated_Source\PSoC4/PWM_Green.c **** *
 999:Generated_Source\PSoC4/PWM_Green.c **** *******************************************************************************/
1000:Generated_Source\PSoC4/PWM_Green.c **** uint32 PWM_Green_ReadCompareBuf(void)
1001:Generated_Source\PSoC4/PWM_Green.c **** {
 1324              		.loc 1 1001 0
 1325              		.cfi_startproc
 1326              		@ args = 0, pretend = 0, frame = 0
 1327              		@ frame_needed = 1, uses_anonymous_args = 0
 1328 0000 80B5     		push	{r7, lr}
 1329              		.cfi_def_cfa_offset 8
 1330              		.cfi_offset 7, -8
 1331              		.cfi_offset 14, -4
 1332 0002 00AF     		add	r7, sp, #0
 1333              		.cfi_def_cfa_register 7
1002:Generated_Source\PSoC4/PWM_Green.c ****     #if (PWM_Green_CY_TCPWM_4000)
1003:Generated_Source\PSoC4/PWM_Green.c ****         uint32 currentMode;
1004:Generated_Source\PSoC4/PWM_Green.c ****         uint32 regVal;
ARM GAS  C:\Users\JOSEAN~1\AppData\Local\Temp\ccll5T2D.s 			page 42


1005:Generated_Source\PSoC4/PWM_Green.c ****     #endif /* (PWM_Green_CY_TCPWM_4000) */
1006:Generated_Source\PSoC4/PWM_Green.c **** 
1007:Generated_Source\PSoC4/PWM_Green.c ****     #if (PWM_Green_CY_TCPWM_4000)
1008:Generated_Source\PSoC4/PWM_Green.c ****         currentMode = ((PWM_Green_CONTROL_REG & PWM_Green_UPDOWN_MASK) >> PWM_Green_UPDOWN_SHIFT);
1009:Generated_Source\PSoC4/PWM_Green.c **** 
1010:Generated_Source\PSoC4/PWM_Green.c ****         regVal = PWM_Green_COMP_CAP_BUF_REG;
1011:Generated_Source\PSoC4/PWM_Green.c ****         
1012:Generated_Source\PSoC4/PWM_Green.c ****         if (((uint32)PWM_Green__COUNT_DOWN == currentMode) && (0u != regVal))
1013:Generated_Source\PSoC4/PWM_Green.c ****         {
1014:Generated_Source\PSoC4/PWM_Green.c ****             regVal--;
1015:Generated_Source\PSoC4/PWM_Green.c ****         }
1016:Generated_Source\PSoC4/PWM_Green.c ****         else if (((uint32)PWM_Green__COUNT_UP == currentMode) && (0xFFFFu != regVal))
1017:Generated_Source\PSoC4/PWM_Green.c ****         {
1018:Generated_Source\PSoC4/PWM_Green.c ****             regVal++;
1019:Generated_Source\PSoC4/PWM_Green.c ****         }
1020:Generated_Source\PSoC4/PWM_Green.c ****         else
1021:Generated_Source\PSoC4/PWM_Green.c ****         {
1022:Generated_Source\PSoC4/PWM_Green.c ****         }
1023:Generated_Source\PSoC4/PWM_Green.c **** 
1024:Generated_Source\PSoC4/PWM_Green.c ****         return (regVal & PWM_Green_16BIT_MASK);
1025:Generated_Source\PSoC4/PWM_Green.c ****     #else
1026:Generated_Source\PSoC4/PWM_Green.c ****         return (PWM_Green_COMP_CAP_BUF_REG & PWM_Green_16BIT_MASK);
 1334              		.loc 1 1026 0
 1335 0004 034B     		ldr	r3, .L83
 1336 0006 1B68     		ldr	r3, [r3]
 1337 0008 1B04     		lsls	r3, r3, #16
 1338 000a 1B0C     		lsrs	r3, r3, #16
1027:Generated_Source\PSoC4/PWM_Green.c ****     #endif /* (PWM_Green_CY_TCPWM_4000) */
1028:Generated_Source\PSoC4/PWM_Green.c **** }
 1339              		.loc 1 1028 0
 1340 000c 1800     		movs	r0, r3
 1341 000e BD46     		mov	sp, r7
 1342              		@ sp needed
 1343 0010 80BD     		pop	{r7, pc}
 1344              	.L84:
 1345 0012 C046     		.align	2
 1346              	.L83:
 1347 0014 10010540 		.word	1074069776
 1348              		.cfi_endproc
 1349              	.LFE25:
 1350              		.size	PWM_Green_ReadCompareBuf, .-PWM_Green_ReadCompareBuf
 1351              		.section	.text.PWM_Green_ReadCapture,"ax",%progbits
 1352              		.align	2
 1353              		.global	PWM_Green_ReadCapture
 1354              		.code	16
 1355              		.thumb_func
 1356              		.type	PWM_Green_ReadCapture, %function
 1357              	PWM_Green_ReadCapture:
 1358              	.LFB26:
1029:Generated_Source\PSoC4/PWM_Green.c **** 
1030:Generated_Source\PSoC4/PWM_Green.c **** 
1031:Generated_Source\PSoC4/PWM_Green.c **** /*******************************************************************************
1032:Generated_Source\PSoC4/PWM_Green.c **** * Function Name: PWM_Green_ReadCapture
1033:Generated_Source\PSoC4/PWM_Green.c **** ********************************************************************************
1034:Generated_Source\PSoC4/PWM_Green.c **** *
1035:Generated_Source\PSoC4/PWM_Green.c **** * Summary:
1036:Generated_Source\PSoC4/PWM_Green.c **** *  Reads the captured counter value. This API is applicable only for
ARM GAS  C:\Users\JOSEAN~1\AppData\Local\Temp\ccll5T2D.s 			page 43


1037:Generated_Source\PSoC4/PWM_Green.c **** *  Timer/Counter with the capture mode and Quadrature Decoder modes.
1038:Generated_Source\PSoC4/PWM_Green.c **** *
1039:Generated_Source\PSoC4/PWM_Green.c **** * Parameters:
1040:Generated_Source\PSoC4/PWM_Green.c **** *  None
1041:Generated_Source\PSoC4/PWM_Green.c **** *
1042:Generated_Source\PSoC4/PWM_Green.c **** * Return:
1043:Generated_Source\PSoC4/PWM_Green.c **** *  Capture value
1044:Generated_Source\PSoC4/PWM_Green.c **** *
1045:Generated_Source\PSoC4/PWM_Green.c **** *******************************************************************************/
1046:Generated_Source\PSoC4/PWM_Green.c **** uint32 PWM_Green_ReadCapture(void)
1047:Generated_Source\PSoC4/PWM_Green.c **** {
 1359              		.loc 1 1047 0
 1360              		.cfi_startproc
 1361              		@ args = 0, pretend = 0, frame = 0
 1362              		@ frame_needed = 1, uses_anonymous_args = 0
 1363 0000 80B5     		push	{r7, lr}
 1364              		.cfi_def_cfa_offset 8
 1365              		.cfi_offset 7, -8
 1366              		.cfi_offset 14, -4
 1367 0002 00AF     		add	r7, sp, #0
 1368              		.cfi_def_cfa_register 7
1048:Generated_Source\PSoC4/PWM_Green.c ****     return (PWM_Green_COMP_CAP_REG & PWM_Green_16BIT_MASK);
 1369              		.loc 1 1048 0
 1370 0004 034B     		ldr	r3, .L87
 1371 0006 1B68     		ldr	r3, [r3]
 1372 0008 1B04     		lsls	r3, r3, #16
 1373 000a 1B0C     		lsrs	r3, r3, #16
1049:Generated_Source\PSoC4/PWM_Green.c **** }
 1374              		.loc 1 1049 0
 1375 000c 1800     		movs	r0, r3
 1376 000e BD46     		mov	sp, r7
 1377              		@ sp needed
 1378 0010 80BD     		pop	{r7, pc}
 1379              	.L88:
 1380 0012 C046     		.align	2
 1381              	.L87:
 1382 0014 0C010540 		.word	1074069772
 1383              		.cfi_endproc
 1384              	.LFE26:
 1385              		.size	PWM_Green_ReadCapture, .-PWM_Green_ReadCapture
 1386              		.section	.text.PWM_Green_ReadCaptureBuf,"ax",%progbits
 1387              		.align	2
 1388              		.global	PWM_Green_ReadCaptureBuf
 1389              		.code	16
 1390              		.thumb_func
 1391              		.type	PWM_Green_ReadCaptureBuf, %function
 1392              	PWM_Green_ReadCaptureBuf:
 1393              	.LFB27:
1050:Generated_Source\PSoC4/PWM_Green.c **** 
1051:Generated_Source\PSoC4/PWM_Green.c **** 
1052:Generated_Source\PSoC4/PWM_Green.c **** /*******************************************************************************
1053:Generated_Source\PSoC4/PWM_Green.c **** * Function Name: PWM_Green_ReadCaptureBuf
1054:Generated_Source\PSoC4/PWM_Green.c **** ********************************************************************************
1055:Generated_Source\PSoC4/PWM_Green.c **** *
1056:Generated_Source\PSoC4/PWM_Green.c **** * Summary:
1057:Generated_Source\PSoC4/PWM_Green.c **** *  Reads the capture buffer register. This API is applicable only for
1058:Generated_Source\PSoC4/PWM_Green.c **** *  Timer/Counter with the capture mode and Quadrature Decoder modes.
ARM GAS  C:\Users\JOSEAN~1\AppData\Local\Temp\ccll5T2D.s 			page 44


1059:Generated_Source\PSoC4/PWM_Green.c **** *
1060:Generated_Source\PSoC4/PWM_Green.c **** * Parameters:
1061:Generated_Source\PSoC4/PWM_Green.c **** *  None
1062:Generated_Source\PSoC4/PWM_Green.c **** *
1063:Generated_Source\PSoC4/PWM_Green.c **** * Return:
1064:Generated_Source\PSoC4/PWM_Green.c **** *  Capture buffer value
1065:Generated_Source\PSoC4/PWM_Green.c **** *
1066:Generated_Source\PSoC4/PWM_Green.c **** *******************************************************************************/
1067:Generated_Source\PSoC4/PWM_Green.c **** uint32 PWM_Green_ReadCaptureBuf(void)
1068:Generated_Source\PSoC4/PWM_Green.c **** {
 1394              		.loc 1 1068 0
 1395              		.cfi_startproc
 1396              		@ args = 0, pretend = 0, frame = 0
 1397              		@ frame_needed = 1, uses_anonymous_args = 0
 1398 0000 80B5     		push	{r7, lr}
 1399              		.cfi_def_cfa_offset 8
 1400              		.cfi_offset 7, -8
 1401              		.cfi_offset 14, -4
 1402 0002 00AF     		add	r7, sp, #0
 1403              		.cfi_def_cfa_register 7
1069:Generated_Source\PSoC4/PWM_Green.c ****     return (PWM_Green_COMP_CAP_BUF_REG & PWM_Green_16BIT_MASK);
 1404              		.loc 1 1069 0
 1405 0004 034B     		ldr	r3, .L91
 1406 0006 1B68     		ldr	r3, [r3]
 1407 0008 1B04     		lsls	r3, r3, #16
 1408 000a 1B0C     		lsrs	r3, r3, #16
1070:Generated_Source\PSoC4/PWM_Green.c **** }
 1409              		.loc 1 1070 0
 1410 000c 1800     		movs	r0, r3
 1411 000e BD46     		mov	sp, r7
 1412              		@ sp needed
 1413 0010 80BD     		pop	{r7, pc}
 1414              	.L92:
 1415 0012 C046     		.align	2
 1416              	.L91:
 1417 0014 10010540 		.word	1074069776
 1418              		.cfi_endproc
 1419              	.LFE27:
 1420              		.size	PWM_Green_ReadCaptureBuf, .-PWM_Green_ReadCaptureBuf
 1421              		.section	.text.PWM_Green_SetCaptureMode,"ax",%progbits
 1422              		.align	2
 1423              		.global	PWM_Green_SetCaptureMode
 1424              		.code	16
 1425              		.thumb_func
 1426              		.type	PWM_Green_SetCaptureMode, %function
 1427              	PWM_Green_SetCaptureMode:
 1428              	.LFB28:
1071:Generated_Source\PSoC4/PWM_Green.c **** 
1072:Generated_Source\PSoC4/PWM_Green.c **** 
1073:Generated_Source\PSoC4/PWM_Green.c **** /*******************************************************************************
1074:Generated_Source\PSoC4/PWM_Green.c **** * Function Name: PWM_Green_SetCaptureMode
1075:Generated_Source\PSoC4/PWM_Green.c **** ********************************************************************************
1076:Generated_Source\PSoC4/PWM_Green.c **** *
1077:Generated_Source\PSoC4/PWM_Green.c **** * Summary:
1078:Generated_Source\PSoC4/PWM_Green.c **** *  Sets the capture trigger mode. For PWM mode this is the switch input.
1079:Generated_Source\PSoC4/PWM_Green.c **** *  This input is not applicable to the Timer/Counter without Capture and
1080:Generated_Source\PSoC4/PWM_Green.c **** *  Quadrature Decoder modes.
ARM GAS  C:\Users\JOSEAN~1\AppData\Local\Temp\ccll5T2D.s 			page 45


1081:Generated_Source\PSoC4/PWM_Green.c **** *
1082:Generated_Source\PSoC4/PWM_Green.c **** * Parameters:
1083:Generated_Source\PSoC4/PWM_Green.c **** *  triggerMode: Enumerated trigger mode value
1084:Generated_Source\PSoC4/PWM_Green.c **** *   Values:
1085:Generated_Source\PSoC4/PWM_Green.c **** *     - PWM_Green_TRIG_LEVEL     - Level
1086:Generated_Source\PSoC4/PWM_Green.c **** *     - PWM_Green_TRIG_RISING    - Rising edge
1087:Generated_Source\PSoC4/PWM_Green.c **** *     - PWM_Green_TRIG_FALLING   - Falling edge
1088:Generated_Source\PSoC4/PWM_Green.c **** *     - PWM_Green_TRIG_BOTH      - Both rising and falling edge
1089:Generated_Source\PSoC4/PWM_Green.c **** *
1090:Generated_Source\PSoC4/PWM_Green.c **** * Return:
1091:Generated_Source\PSoC4/PWM_Green.c **** *  None
1092:Generated_Source\PSoC4/PWM_Green.c **** *
1093:Generated_Source\PSoC4/PWM_Green.c **** *******************************************************************************/
1094:Generated_Source\PSoC4/PWM_Green.c **** void PWM_Green_SetCaptureMode(uint32 triggerMode)
1095:Generated_Source\PSoC4/PWM_Green.c **** {
 1429              		.loc 1 1095 0
 1430              		.cfi_startproc
 1431              		@ args = 0, pretend = 0, frame = 16
 1432              		@ frame_needed = 1, uses_anonymous_args = 0
 1433 0000 90B5     		push	{r4, r7, lr}
 1434              		.cfi_def_cfa_offset 12
 1435              		.cfi_offset 4, -12
 1436              		.cfi_offset 7, -8
 1437              		.cfi_offset 14, -4
 1438 0002 85B0     		sub	sp, sp, #20
 1439              		.cfi_def_cfa_offset 32
 1440 0004 00AF     		add	r7, sp, #0
 1441              		.cfi_def_cfa_register 7
 1442 0006 7860     		str	r0, [r7, #4]
1096:Generated_Source\PSoC4/PWM_Green.c ****     uint8 enableInterrupts;
1097:Generated_Source\PSoC4/PWM_Green.c **** 
1098:Generated_Source\PSoC4/PWM_Green.c ****     enableInterrupts = CyEnterCriticalSection();
 1443              		.loc 1 1098 0
 1444 0008 0F23     		movs	r3, #15
 1445 000a FC18     		adds	r4, r7, r3
 1446 000c FFF7FEFF 		bl	CyEnterCriticalSection
 1447 0010 0300     		movs	r3, r0
 1448 0012 2370     		strb	r3, [r4]
1099:Generated_Source\PSoC4/PWM_Green.c **** 
1100:Generated_Source\PSoC4/PWM_Green.c ****     PWM_Green_TRIG_CONTROL1_REG &= (uint32)~PWM_Green_CAPTURE_MASK;
 1449              		.loc 1 1100 0
 1450 0014 0A4B     		ldr	r3, .L94
 1451 0016 0A4A     		ldr	r2, .L94
 1452 0018 1268     		ldr	r2, [r2]
 1453 001a 0321     		movs	r1, #3
 1454 001c 8A43     		bics	r2, r1
 1455 001e 1A60     		str	r2, [r3]
1101:Generated_Source\PSoC4/PWM_Green.c ****     PWM_Green_TRIG_CONTROL1_REG |= triggerMode;
 1456              		.loc 1 1101 0
 1457 0020 074B     		ldr	r3, .L94
 1458 0022 074A     		ldr	r2, .L94
 1459 0024 1168     		ldr	r1, [r2]
 1460 0026 7A68     		ldr	r2, [r7, #4]
 1461 0028 0A43     		orrs	r2, r1
 1462 002a 1A60     		str	r2, [r3]
1102:Generated_Source\PSoC4/PWM_Green.c **** 
1103:Generated_Source\PSoC4/PWM_Green.c ****     CyExitCriticalSection(enableInterrupts);
ARM GAS  C:\Users\JOSEAN~1\AppData\Local\Temp\ccll5T2D.s 			page 46


 1463              		.loc 1 1103 0
 1464 002c 0F23     		movs	r3, #15
 1465 002e FB18     		adds	r3, r7, r3
 1466 0030 1B78     		ldrb	r3, [r3]
 1467 0032 1800     		movs	r0, r3
 1468 0034 FFF7FEFF 		bl	CyExitCriticalSection
1104:Generated_Source\PSoC4/PWM_Green.c **** }
 1469              		.loc 1 1104 0
 1470 0038 C046     		nop
 1471 003a BD46     		mov	sp, r7
 1472 003c 05B0     		add	sp, sp, #20
 1473              		@ sp needed
 1474 003e 90BD     		pop	{r4, r7, pc}
 1475              	.L95:
 1476              		.align	2
 1477              	.L94:
 1478 0040 24010540 		.word	1074069796
 1479              		.cfi_endproc
 1480              	.LFE28:
 1481              		.size	PWM_Green_SetCaptureMode, .-PWM_Green_SetCaptureMode
 1482              		.section	.text.PWM_Green_SetReloadMode,"ax",%progbits
 1483              		.align	2
 1484              		.global	PWM_Green_SetReloadMode
 1485              		.code	16
 1486              		.thumb_func
 1487              		.type	PWM_Green_SetReloadMode, %function
 1488              	PWM_Green_SetReloadMode:
 1489              	.LFB29:
1105:Generated_Source\PSoC4/PWM_Green.c **** 
1106:Generated_Source\PSoC4/PWM_Green.c **** 
1107:Generated_Source\PSoC4/PWM_Green.c **** /*******************************************************************************
1108:Generated_Source\PSoC4/PWM_Green.c **** * Function Name: PWM_Green_SetReloadMode
1109:Generated_Source\PSoC4/PWM_Green.c **** ********************************************************************************
1110:Generated_Source\PSoC4/PWM_Green.c **** *
1111:Generated_Source\PSoC4/PWM_Green.c **** * Summary:
1112:Generated_Source\PSoC4/PWM_Green.c **** *  Sets the reload trigger mode. For Quadrature Decoder mode this is the index
1113:Generated_Source\PSoC4/PWM_Green.c **** *  input.
1114:Generated_Source\PSoC4/PWM_Green.c **** *
1115:Generated_Source\PSoC4/PWM_Green.c **** * Parameters:
1116:Generated_Source\PSoC4/PWM_Green.c **** *  triggerMode: Enumerated trigger mode value
1117:Generated_Source\PSoC4/PWM_Green.c **** *   Values:
1118:Generated_Source\PSoC4/PWM_Green.c **** *     - PWM_Green_TRIG_LEVEL     - Level
1119:Generated_Source\PSoC4/PWM_Green.c **** *     - PWM_Green_TRIG_RISING    - Rising edge
1120:Generated_Source\PSoC4/PWM_Green.c **** *     - PWM_Green_TRIG_FALLING   - Falling edge
1121:Generated_Source\PSoC4/PWM_Green.c **** *     - PWM_Green_TRIG_BOTH      - Both rising and falling edge
1122:Generated_Source\PSoC4/PWM_Green.c **** *
1123:Generated_Source\PSoC4/PWM_Green.c **** * Return:
1124:Generated_Source\PSoC4/PWM_Green.c **** *  None
1125:Generated_Source\PSoC4/PWM_Green.c **** *
1126:Generated_Source\PSoC4/PWM_Green.c **** *******************************************************************************/
1127:Generated_Source\PSoC4/PWM_Green.c **** void PWM_Green_SetReloadMode(uint32 triggerMode)
1128:Generated_Source\PSoC4/PWM_Green.c **** {
 1490              		.loc 1 1128 0
 1491              		.cfi_startproc
 1492              		@ args = 0, pretend = 0, frame = 16
 1493              		@ frame_needed = 1, uses_anonymous_args = 0
 1494 0000 90B5     		push	{r4, r7, lr}
ARM GAS  C:\Users\JOSEAN~1\AppData\Local\Temp\ccll5T2D.s 			page 47


 1495              		.cfi_def_cfa_offset 12
 1496              		.cfi_offset 4, -12
 1497              		.cfi_offset 7, -8
 1498              		.cfi_offset 14, -4
 1499 0002 85B0     		sub	sp, sp, #20
 1500              		.cfi_def_cfa_offset 32
 1501 0004 00AF     		add	r7, sp, #0
 1502              		.cfi_def_cfa_register 7
 1503 0006 7860     		str	r0, [r7, #4]
1129:Generated_Source\PSoC4/PWM_Green.c ****     uint8 enableInterrupts;
1130:Generated_Source\PSoC4/PWM_Green.c **** 
1131:Generated_Source\PSoC4/PWM_Green.c ****     enableInterrupts = CyEnterCriticalSection();
 1504              		.loc 1 1131 0
 1505 0008 0F23     		movs	r3, #15
 1506 000a FC18     		adds	r4, r7, r3
 1507 000c FFF7FEFF 		bl	CyEnterCriticalSection
 1508 0010 0300     		movs	r3, r0
 1509 0012 2370     		strb	r3, [r4]
1132:Generated_Source\PSoC4/PWM_Green.c **** 
1133:Generated_Source\PSoC4/PWM_Green.c ****     PWM_Green_TRIG_CONTROL1_REG &= (uint32)~PWM_Green_RELOAD_MASK;
 1510              		.loc 1 1133 0
 1511 0014 0B4B     		ldr	r3, .L97
 1512 0016 0B4A     		ldr	r2, .L97
 1513 0018 1268     		ldr	r2, [r2]
 1514 001a 3021     		movs	r1, #48
 1515 001c 8A43     		bics	r2, r1
 1516 001e 1A60     		str	r2, [r3]
1134:Generated_Source\PSoC4/PWM_Green.c ****     PWM_Green_TRIG_CONTROL1_REG |= ((uint32)(triggerMode << PWM_Green_RELOAD_SHIFT));
 1517              		.loc 1 1134 0
 1518 0020 084B     		ldr	r3, .L97
 1519 0022 084A     		ldr	r2, .L97
 1520 0024 1168     		ldr	r1, [r2]
 1521 0026 7A68     		ldr	r2, [r7, #4]
 1522 0028 1201     		lsls	r2, r2, #4
 1523 002a 0A43     		orrs	r2, r1
 1524 002c 1A60     		str	r2, [r3]
1135:Generated_Source\PSoC4/PWM_Green.c **** 
1136:Generated_Source\PSoC4/PWM_Green.c ****     CyExitCriticalSection(enableInterrupts);
 1525              		.loc 1 1136 0
 1526 002e 0F23     		movs	r3, #15
 1527 0030 FB18     		adds	r3, r7, r3
 1528 0032 1B78     		ldrb	r3, [r3]
 1529 0034 1800     		movs	r0, r3
 1530 0036 FFF7FEFF 		bl	CyExitCriticalSection
1137:Generated_Source\PSoC4/PWM_Green.c **** }
 1531              		.loc 1 1137 0
 1532 003a C046     		nop
 1533 003c BD46     		mov	sp, r7
 1534 003e 05B0     		add	sp, sp, #20
 1535              		@ sp needed
 1536 0040 90BD     		pop	{r4, r7, pc}
 1537              	.L98:
 1538 0042 C046     		.align	2
 1539              	.L97:
 1540 0044 24010540 		.word	1074069796
 1541              		.cfi_endproc
 1542              	.LFE29:
ARM GAS  C:\Users\JOSEAN~1\AppData\Local\Temp\ccll5T2D.s 			page 48


 1543              		.size	PWM_Green_SetReloadMode, .-PWM_Green_SetReloadMode
 1544              		.section	.text.PWM_Green_SetStartMode,"ax",%progbits
 1545              		.align	2
 1546              		.global	PWM_Green_SetStartMode
 1547              		.code	16
 1548              		.thumb_func
 1549              		.type	PWM_Green_SetStartMode, %function
 1550              	PWM_Green_SetStartMode:
 1551              	.LFB30:
1138:Generated_Source\PSoC4/PWM_Green.c **** 
1139:Generated_Source\PSoC4/PWM_Green.c **** 
1140:Generated_Source\PSoC4/PWM_Green.c **** /*******************************************************************************
1141:Generated_Source\PSoC4/PWM_Green.c **** * Function Name: PWM_Green_SetStartMode
1142:Generated_Source\PSoC4/PWM_Green.c **** ********************************************************************************
1143:Generated_Source\PSoC4/PWM_Green.c **** *
1144:Generated_Source\PSoC4/PWM_Green.c **** * Summary:
1145:Generated_Source\PSoC4/PWM_Green.c **** *  Sets the start trigger mode. For Quadrature Decoder mode this is the
1146:Generated_Source\PSoC4/PWM_Green.c **** *  phiB input.
1147:Generated_Source\PSoC4/PWM_Green.c **** *
1148:Generated_Source\PSoC4/PWM_Green.c **** * Parameters:
1149:Generated_Source\PSoC4/PWM_Green.c **** *  triggerMode: Enumerated trigger mode value
1150:Generated_Source\PSoC4/PWM_Green.c **** *   Values:
1151:Generated_Source\PSoC4/PWM_Green.c **** *     - PWM_Green_TRIG_LEVEL     - Level
1152:Generated_Source\PSoC4/PWM_Green.c **** *     - PWM_Green_TRIG_RISING    - Rising edge
1153:Generated_Source\PSoC4/PWM_Green.c **** *     - PWM_Green_TRIG_FALLING   - Falling edge
1154:Generated_Source\PSoC4/PWM_Green.c **** *     - PWM_Green_TRIG_BOTH      - Both rising and falling edge
1155:Generated_Source\PSoC4/PWM_Green.c **** *
1156:Generated_Source\PSoC4/PWM_Green.c **** * Return:
1157:Generated_Source\PSoC4/PWM_Green.c **** *  None
1158:Generated_Source\PSoC4/PWM_Green.c **** *
1159:Generated_Source\PSoC4/PWM_Green.c **** *******************************************************************************/
1160:Generated_Source\PSoC4/PWM_Green.c **** void PWM_Green_SetStartMode(uint32 triggerMode)
1161:Generated_Source\PSoC4/PWM_Green.c **** {
 1552              		.loc 1 1161 0
 1553              		.cfi_startproc
 1554              		@ args = 0, pretend = 0, frame = 16
 1555              		@ frame_needed = 1, uses_anonymous_args = 0
 1556 0000 90B5     		push	{r4, r7, lr}
 1557              		.cfi_def_cfa_offset 12
 1558              		.cfi_offset 4, -12
 1559              		.cfi_offset 7, -8
 1560              		.cfi_offset 14, -4
 1561 0002 85B0     		sub	sp, sp, #20
 1562              		.cfi_def_cfa_offset 32
 1563 0004 00AF     		add	r7, sp, #0
 1564              		.cfi_def_cfa_register 7
 1565 0006 7860     		str	r0, [r7, #4]
1162:Generated_Source\PSoC4/PWM_Green.c ****     uint8 enableInterrupts;
1163:Generated_Source\PSoC4/PWM_Green.c **** 
1164:Generated_Source\PSoC4/PWM_Green.c ****     enableInterrupts = CyEnterCriticalSection();
 1566              		.loc 1 1164 0
 1567 0008 0F23     		movs	r3, #15
 1568 000a FC18     		adds	r4, r7, r3
 1569 000c FFF7FEFF 		bl	CyEnterCriticalSection
 1570 0010 0300     		movs	r3, r0
 1571 0012 2370     		strb	r3, [r4]
1165:Generated_Source\PSoC4/PWM_Green.c **** 
ARM GAS  C:\Users\JOSEAN~1\AppData\Local\Temp\ccll5T2D.s 			page 49


1166:Generated_Source\PSoC4/PWM_Green.c ****     PWM_Green_TRIG_CONTROL1_REG &= (uint32)~PWM_Green_START_MASK;
 1572              		.loc 1 1166 0
 1573 0014 0B4B     		ldr	r3, .L100
 1574 0016 0B4A     		ldr	r2, .L100
 1575 0018 1268     		ldr	r2, [r2]
 1576 001a 0B49     		ldr	r1, .L100+4
 1577 001c 0A40     		ands	r2, r1
 1578 001e 1A60     		str	r2, [r3]
1167:Generated_Source\PSoC4/PWM_Green.c ****     PWM_Green_TRIG_CONTROL1_REG |= ((uint32)(triggerMode << PWM_Green_START_SHIFT));
 1579              		.loc 1 1167 0
 1580 0020 084B     		ldr	r3, .L100
 1581 0022 084A     		ldr	r2, .L100
 1582 0024 1168     		ldr	r1, [r2]
 1583 0026 7A68     		ldr	r2, [r7, #4]
 1584 0028 1202     		lsls	r2, r2, #8
 1585 002a 0A43     		orrs	r2, r1
 1586 002c 1A60     		str	r2, [r3]
1168:Generated_Source\PSoC4/PWM_Green.c **** 
1169:Generated_Source\PSoC4/PWM_Green.c ****     CyExitCriticalSection(enableInterrupts);
 1587              		.loc 1 1169 0
 1588 002e 0F23     		movs	r3, #15
 1589 0030 FB18     		adds	r3, r7, r3
 1590 0032 1B78     		ldrb	r3, [r3]
 1591 0034 1800     		movs	r0, r3
 1592 0036 FFF7FEFF 		bl	CyExitCriticalSection
1170:Generated_Source\PSoC4/PWM_Green.c **** }
 1593              		.loc 1 1170 0
 1594 003a C046     		nop
 1595 003c BD46     		mov	sp, r7
 1596 003e 05B0     		add	sp, sp, #20
 1597              		@ sp needed
 1598 0040 90BD     		pop	{r4, r7, pc}
 1599              	.L101:
 1600 0042 C046     		.align	2
 1601              	.L100:
 1602 0044 24010540 		.word	1074069796
 1603 0048 FFFCFFFF 		.word	-769
 1604              		.cfi_endproc
 1605              	.LFE30:
 1606              		.size	PWM_Green_SetStartMode, .-PWM_Green_SetStartMode
 1607              		.section	.text.PWM_Green_SetStopMode,"ax",%progbits
 1608              		.align	2
 1609              		.global	PWM_Green_SetStopMode
 1610              		.code	16
 1611              		.thumb_func
 1612              		.type	PWM_Green_SetStopMode, %function
 1613              	PWM_Green_SetStopMode:
 1614              	.LFB31:
1171:Generated_Source\PSoC4/PWM_Green.c **** 
1172:Generated_Source\PSoC4/PWM_Green.c **** 
1173:Generated_Source\PSoC4/PWM_Green.c **** /*******************************************************************************
1174:Generated_Source\PSoC4/PWM_Green.c **** * Function Name: PWM_Green_SetStopMode
1175:Generated_Source\PSoC4/PWM_Green.c **** ********************************************************************************
1176:Generated_Source\PSoC4/PWM_Green.c **** *
1177:Generated_Source\PSoC4/PWM_Green.c **** * Summary:
1178:Generated_Source\PSoC4/PWM_Green.c **** *  Sets the stop trigger mode. For PWM mode this is the kill input.
1179:Generated_Source\PSoC4/PWM_Green.c **** *
ARM GAS  C:\Users\JOSEAN~1\AppData\Local\Temp\ccll5T2D.s 			page 50


1180:Generated_Source\PSoC4/PWM_Green.c **** * Parameters:
1181:Generated_Source\PSoC4/PWM_Green.c **** *  triggerMode: Enumerated trigger mode value
1182:Generated_Source\PSoC4/PWM_Green.c **** *   Values:
1183:Generated_Source\PSoC4/PWM_Green.c **** *     - PWM_Green_TRIG_LEVEL     - Level
1184:Generated_Source\PSoC4/PWM_Green.c **** *     - PWM_Green_TRIG_RISING    - Rising edge
1185:Generated_Source\PSoC4/PWM_Green.c **** *     - PWM_Green_TRIG_FALLING   - Falling edge
1186:Generated_Source\PSoC4/PWM_Green.c **** *     - PWM_Green_TRIG_BOTH      - Both rising and falling edge
1187:Generated_Source\PSoC4/PWM_Green.c **** *
1188:Generated_Source\PSoC4/PWM_Green.c **** * Return:
1189:Generated_Source\PSoC4/PWM_Green.c **** *  None
1190:Generated_Source\PSoC4/PWM_Green.c **** *
1191:Generated_Source\PSoC4/PWM_Green.c **** *******************************************************************************/
1192:Generated_Source\PSoC4/PWM_Green.c **** void PWM_Green_SetStopMode(uint32 triggerMode)
1193:Generated_Source\PSoC4/PWM_Green.c **** {
 1615              		.loc 1 1193 0
 1616              		.cfi_startproc
 1617              		@ args = 0, pretend = 0, frame = 16
 1618              		@ frame_needed = 1, uses_anonymous_args = 0
 1619 0000 90B5     		push	{r4, r7, lr}
 1620              		.cfi_def_cfa_offset 12
 1621              		.cfi_offset 4, -12
 1622              		.cfi_offset 7, -8
 1623              		.cfi_offset 14, -4
 1624 0002 85B0     		sub	sp, sp, #20
 1625              		.cfi_def_cfa_offset 32
 1626 0004 00AF     		add	r7, sp, #0
 1627              		.cfi_def_cfa_register 7
 1628 0006 7860     		str	r0, [r7, #4]
1194:Generated_Source\PSoC4/PWM_Green.c ****     uint8 enableInterrupts;
1195:Generated_Source\PSoC4/PWM_Green.c **** 
1196:Generated_Source\PSoC4/PWM_Green.c ****     enableInterrupts = CyEnterCriticalSection();
 1629              		.loc 1 1196 0
 1630 0008 0F23     		movs	r3, #15
 1631 000a FC18     		adds	r4, r7, r3
 1632 000c FFF7FEFF 		bl	CyEnterCriticalSection
 1633 0010 0300     		movs	r3, r0
 1634 0012 2370     		strb	r3, [r4]
1197:Generated_Source\PSoC4/PWM_Green.c **** 
1198:Generated_Source\PSoC4/PWM_Green.c ****     PWM_Green_TRIG_CONTROL1_REG &= (uint32)~PWM_Green_STOP_MASK;
 1635              		.loc 1 1198 0
 1636 0014 0B4B     		ldr	r3, .L103
 1637 0016 0B4A     		ldr	r2, .L103
 1638 0018 1268     		ldr	r2, [r2]
 1639 001a C021     		movs	r1, #192
 1640 001c 8A43     		bics	r2, r1
 1641 001e 1A60     		str	r2, [r3]
1199:Generated_Source\PSoC4/PWM_Green.c ****     PWM_Green_TRIG_CONTROL1_REG |= ((uint32)(triggerMode << PWM_Green_STOP_SHIFT));
 1642              		.loc 1 1199 0
 1643 0020 084B     		ldr	r3, .L103
 1644 0022 084A     		ldr	r2, .L103
 1645 0024 1168     		ldr	r1, [r2]
 1646 0026 7A68     		ldr	r2, [r7, #4]
 1647 0028 9201     		lsls	r2, r2, #6
 1648 002a 0A43     		orrs	r2, r1
 1649 002c 1A60     		str	r2, [r3]
1200:Generated_Source\PSoC4/PWM_Green.c **** 
1201:Generated_Source\PSoC4/PWM_Green.c ****     CyExitCriticalSection(enableInterrupts);
ARM GAS  C:\Users\JOSEAN~1\AppData\Local\Temp\ccll5T2D.s 			page 51


 1650              		.loc 1 1201 0
 1651 002e 0F23     		movs	r3, #15
 1652 0030 FB18     		adds	r3, r7, r3
 1653 0032 1B78     		ldrb	r3, [r3]
 1654 0034 1800     		movs	r0, r3
 1655 0036 FFF7FEFF 		bl	CyExitCriticalSection
1202:Generated_Source\PSoC4/PWM_Green.c **** }
 1656              		.loc 1 1202 0
 1657 003a C046     		nop
 1658 003c BD46     		mov	sp, r7
 1659 003e 05B0     		add	sp, sp, #20
 1660              		@ sp needed
 1661 0040 90BD     		pop	{r4, r7, pc}
 1662              	.L104:
 1663 0042 C046     		.align	2
 1664              	.L103:
 1665 0044 24010540 		.word	1074069796
 1666              		.cfi_endproc
 1667              	.LFE31:
 1668              		.size	PWM_Green_SetStopMode, .-PWM_Green_SetStopMode
 1669              		.section	.text.PWM_Green_SetCountMode,"ax",%progbits
 1670              		.align	2
 1671              		.global	PWM_Green_SetCountMode
 1672              		.code	16
 1673              		.thumb_func
 1674              		.type	PWM_Green_SetCountMode, %function
 1675              	PWM_Green_SetCountMode:
 1676              	.LFB32:
1203:Generated_Source\PSoC4/PWM_Green.c **** 
1204:Generated_Source\PSoC4/PWM_Green.c **** 
1205:Generated_Source\PSoC4/PWM_Green.c **** /*******************************************************************************
1206:Generated_Source\PSoC4/PWM_Green.c **** * Function Name: PWM_Green_SetCountMode
1207:Generated_Source\PSoC4/PWM_Green.c **** ********************************************************************************
1208:Generated_Source\PSoC4/PWM_Green.c **** *
1209:Generated_Source\PSoC4/PWM_Green.c **** * Summary:
1210:Generated_Source\PSoC4/PWM_Green.c **** *  Sets the count trigger mode. For Quadrature Decoder mode this is the phiA
1211:Generated_Source\PSoC4/PWM_Green.c **** *  input.
1212:Generated_Source\PSoC4/PWM_Green.c **** *
1213:Generated_Source\PSoC4/PWM_Green.c **** * Parameters:
1214:Generated_Source\PSoC4/PWM_Green.c **** *  triggerMode: Enumerated trigger mode value
1215:Generated_Source\PSoC4/PWM_Green.c **** *   Values:
1216:Generated_Source\PSoC4/PWM_Green.c **** *     - PWM_Green_TRIG_LEVEL     - Level
1217:Generated_Source\PSoC4/PWM_Green.c **** *     - PWM_Green_TRIG_RISING    - Rising edge
1218:Generated_Source\PSoC4/PWM_Green.c **** *     - PWM_Green_TRIG_FALLING   - Falling edge
1219:Generated_Source\PSoC4/PWM_Green.c **** *     - PWM_Green_TRIG_BOTH      - Both rising and falling edge
1220:Generated_Source\PSoC4/PWM_Green.c **** *
1221:Generated_Source\PSoC4/PWM_Green.c **** * Return:
1222:Generated_Source\PSoC4/PWM_Green.c **** *  None
1223:Generated_Source\PSoC4/PWM_Green.c **** *
1224:Generated_Source\PSoC4/PWM_Green.c **** *******************************************************************************/
1225:Generated_Source\PSoC4/PWM_Green.c **** void PWM_Green_SetCountMode(uint32 triggerMode)
1226:Generated_Source\PSoC4/PWM_Green.c **** {
 1677              		.loc 1 1226 0
 1678              		.cfi_startproc
 1679              		@ args = 0, pretend = 0, frame = 16
 1680              		@ frame_needed = 1, uses_anonymous_args = 0
 1681 0000 90B5     		push	{r4, r7, lr}
ARM GAS  C:\Users\JOSEAN~1\AppData\Local\Temp\ccll5T2D.s 			page 52


 1682              		.cfi_def_cfa_offset 12
 1683              		.cfi_offset 4, -12
 1684              		.cfi_offset 7, -8
 1685              		.cfi_offset 14, -4
 1686 0002 85B0     		sub	sp, sp, #20
 1687              		.cfi_def_cfa_offset 32
 1688 0004 00AF     		add	r7, sp, #0
 1689              		.cfi_def_cfa_register 7
 1690 0006 7860     		str	r0, [r7, #4]
1227:Generated_Source\PSoC4/PWM_Green.c ****     uint8 enableInterrupts;
1228:Generated_Source\PSoC4/PWM_Green.c **** 
1229:Generated_Source\PSoC4/PWM_Green.c ****     enableInterrupts = CyEnterCriticalSection();
 1691              		.loc 1 1229 0
 1692 0008 0F23     		movs	r3, #15
 1693 000a FC18     		adds	r4, r7, r3
 1694 000c FFF7FEFF 		bl	CyEnterCriticalSection
 1695 0010 0300     		movs	r3, r0
 1696 0012 2370     		strb	r3, [r4]
1230:Generated_Source\PSoC4/PWM_Green.c **** 
1231:Generated_Source\PSoC4/PWM_Green.c ****     PWM_Green_TRIG_CONTROL1_REG &= (uint32)~PWM_Green_COUNT_MASK;
 1697              		.loc 1 1231 0
 1698 0014 0B4B     		ldr	r3, .L106
 1699 0016 0B4A     		ldr	r2, .L106
 1700 0018 1268     		ldr	r2, [r2]
 1701 001a 0C21     		movs	r1, #12
 1702 001c 8A43     		bics	r2, r1
 1703 001e 1A60     		str	r2, [r3]
1232:Generated_Source\PSoC4/PWM_Green.c ****     PWM_Green_TRIG_CONTROL1_REG |= ((uint32)(triggerMode << PWM_Green_COUNT_SHIFT));
 1704              		.loc 1 1232 0
 1705 0020 084B     		ldr	r3, .L106
 1706 0022 084A     		ldr	r2, .L106
 1707 0024 1168     		ldr	r1, [r2]
 1708 0026 7A68     		ldr	r2, [r7, #4]
 1709 0028 9200     		lsls	r2, r2, #2
 1710 002a 0A43     		orrs	r2, r1
 1711 002c 1A60     		str	r2, [r3]
1233:Generated_Source\PSoC4/PWM_Green.c **** 
1234:Generated_Source\PSoC4/PWM_Green.c ****     CyExitCriticalSection(enableInterrupts);
 1712              		.loc 1 1234 0
 1713 002e 0F23     		movs	r3, #15
 1714 0030 FB18     		adds	r3, r7, r3
 1715 0032 1B78     		ldrb	r3, [r3]
 1716 0034 1800     		movs	r0, r3
 1717 0036 FFF7FEFF 		bl	CyExitCriticalSection
1235:Generated_Source\PSoC4/PWM_Green.c **** }
 1718              		.loc 1 1235 0
 1719 003a C046     		nop
 1720 003c BD46     		mov	sp, r7
 1721 003e 05B0     		add	sp, sp, #20
 1722              		@ sp needed
 1723 0040 90BD     		pop	{r4, r7, pc}
 1724              	.L107:
 1725 0042 C046     		.align	2
 1726              	.L106:
 1727 0044 24010540 		.word	1074069796
 1728              		.cfi_endproc
 1729              	.LFE32:
ARM GAS  C:\Users\JOSEAN~1\AppData\Local\Temp\ccll5T2D.s 			page 53


 1730              		.size	PWM_Green_SetCountMode, .-PWM_Green_SetCountMode
 1731              		.section	.text.PWM_Green_TriggerCommand,"ax",%progbits
 1732              		.align	2
 1733              		.global	PWM_Green_TriggerCommand
 1734              		.code	16
 1735              		.thumb_func
 1736              		.type	PWM_Green_TriggerCommand, %function
 1737              	PWM_Green_TriggerCommand:
 1738              	.LFB33:
1236:Generated_Source\PSoC4/PWM_Green.c **** 
1237:Generated_Source\PSoC4/PWM_Green.c **** 
1238:Generated_Source\PSoC4/PWM_Green.c **** /*******************************************************************************
1239:Generated_Source\PSoC4/PWM_Green.c **** * Function Name: PWM_Green_TriggerCommand
1240:Generated_Source\PSoC4/PWM_Green.c **** ********************************************************************************
1241:Generated_Source\PSoC4/PWM_Green.c **** *
1242:Generated_Source\PSoC4/PWM_Green.c **** * Summary:
1243:Generated_Source\PSoC4/PWM_Green.c **** *  Triggers the designated command to occur on the designated TCPWM instances.
1244:Generated_Source\PSoC4/PWM_Green.c **** *  The mask can be used to apply this command simultaneously to more than one
1245:Generated_Source\PSoC4/PWM_Green.c **** *  instance.  This allows multiple TCPWM instances to be synchronized.
1246:Generated_Source\PSoC4/PWM_Green.c **** *
1247:Generated_Source\PSoC4/PWM_Green.c **** * Parameters:
1248:Generated_Source\PSoC4/PWM_Green.c **** *  mask: A combination of mask bits for each instance of the TCPWM that the
1249:Generated_Source\PSoC4/PWM_Green.c **** *        command should apply to.  This function from one instance can be used
1250:Generated_Source\PSoC4/PWM_Green.c **** *        to apply the command to any of the instances in the design.
1251:Generated_Source\PSoC4/PWM_Green.c **** *        The mask value for a specific instance is available with the MASK
1252:Generated_Source\PSoC4/PWM_Green.c **** *        define.
1253:Generated_Source\PSoC4/PWM_Green.c **** *  command: Enumerated command values. Capture command only applicable for
1254:Generated_Source\PSoC4/PWM_Green.c **** *           Timer/Counter with Capture and PWM modes.
1255:Generated_Source\PSoC4/PWM_Green.c **** *   Values:
1256:Generated_Source\PSoC4/PWM_Green.c **** *     - PWM_Green_CMD_CAPTURE    - Trigger Capture/Switch command
1257:Generated_Source\PSoC4/PWM_Green.c **** *     - PWM_Green_CMD_RELOAD     - Trigger Reload/Index command
1258:Generated_Source\PSoC4/PWM_Green.c **** *     - PWM_Green_CMD_STOP       - Trigger Stop/Kill command
1259:Generated_Source\PSoC4/PWM_Green.c **** *     - PWM_Green_CMD_START      - Trigger Start/phiB command
1260:Generated_Source\PSoC4/PWM_Green.c **** *
1261:Generated_Source\PSoC4/PWM_Green.c **** * Return:
1262:Generated_Source\PSoC4/PWM_Green.c **** *  None
1263:Generated_Source\PSoC4/PWM_Green.c **** *
1264:Generated_Source\PSoC4/PWM_Green.c **** *******************************************************************************/
1265:Generated_Source\PSoC4/PWM_Green.c **** void PWM_Green_TriggerCommand(uint32 mask, uint32 command)
1266:Generated_Source\PSoC4/PWM_Green.c **** {
 1739              		.loc 1 1266 0
 1740              		.cfi_startproc
 1741              		@ args = 0, pretend = 0, frame = 16
 1742              		@ frame_needed = 1, uses_anonymous_args = 0
 1743 0000 90B5     		push	{r4, r7, lr}
 1744              		.cfi_def_cfa_offset 12
 1745              		.cfi_offset 4, -12
 1746              		.cfi_offset 7, -8
 1747              		.cfi_offset 14, -4
 1748 0002 85B0     		sub	sp, sp, #20
 1749              		.cfi_def_cfa_offset 32
 1750 0004 00AF     		add	r7, sp, #0
 1751              		.cfi_def_cfa_register 7
 1752 0006 7860     		str	r0, [r7, #4]
 1753 0008 3960     		str	r1, [r7]
1267:Generated_Source\PSoC4/PWM_Green.c ****     uint8 enableInterrupts;
1268:Generated_Source\PSoC4/PWM_Green.c **** 
ARM GAS  C:\Users\JOSEAN~1\AppData\Local\Temp\ccll5T2D.s 			page 54


1269:Generated_Source\PSoC4/PWM_Green.c ****     enableInterrupts = CyEnterCriticalSection();
 1754              		.loc 1 1269 0
 1755 000a 0F23     		movs	r3, #15
 1756 000c FC18     		adds	r4, r7, r3
 1757 000e FFF7FEFF 		bl	CyEnterCriticalSection
 1758 0012 0300     		movs	r3, r0
 1759 0014 2370     		strb	r3, [r4]
1270:Generated_Source\PSoC4/PWM_Green.c **** 
1271:Generated_Source\PSoC4/PWM_Green.c ****     PWM_Green_COMMAND_REG = ((uint32)(mask << command));
 1760              		.loc 1 1271 0
 1761 0016 084B     		ldr	r3, .L109
 1762 0018 7968     		ldr	r1, [r7, #4]
 1763 001a 3A68     		ldr	r2, [r7]
 1764 001c 9140     		lsls	r1, r1, r2
 1765 001e 0A00     		movs	r2, r1
 1766 0020 1A60     		str	r2, [r3]
1272:Generated_Source\PSoC4/PWM_Green.c **** 
1273:Generated_Source\PSoC4/PWM_Green.c ****     CyExitCriticalSection(enableInterrupts);
 1767              		.loc 1 1273 0
 1768 0022 0F23     		movs	r3, #15
 1769 0024 FB18     		adds	r3, r7, r3
 1770 0026 1B78     		ldrb	r3, [r3]
 1771 0028 1800     		movs	r0, r3
 1772 002a FFF7FEFF 		bl	CyExitCriticalSection
1274:Generated_Source\PSoC4/PWM_Green.c **** }
 1773              		.loc 1 1274 0
 1774 002e C046     		nop
 1775 0030 BD46     		mov	sp, r7
 1776 0032 05B0     		add	sp, sp, #20
 1777              		@ sp needed
 1778 0034 90BD     		pop	{r4, r7, pc}
 1779              	.L110:
 1780 0036 C046     		.align	2
 1781              	.L109:
 1782 0038 08000540 		.word	1074069512
 1783              		.cfi_endproc
 1784              	.LFE33:
 1785              		.size	PWM_Green_TriggerCommand, .-PWM_Green_TriggerCommand
 1786              		.section	.text.PWM_Green_ReadStatus,"ax",%progbits
 1787              		.align	2
 1788              		.global	PWM_Green_ReadStatus
 1789              		.code	16
 1790              		.thumb_func
 1791              		.type	PWM_Green_ReadStatus, %function
 1792              	PWM_Green_ReadStatus:
 1793              	.LFB34:
1275:Generated_Source\PSoC4/PWM_Green.c **** 
1276:Generated_Source\PSoC4/PWM_Green.c **** 
1277:Generated_Source\PSoC4/PWM_Green.c **** /*******************************************************************************
1278:Generated_Source\PSoC4/PWM_Green.c **** * Function Name: PWM_Green_ReadStatus
1279:Generated_Source\PSoC4/PWM_Green.c **** ********************************************************************************
1280:Generated_Source\PSoC4/PWM_Green.c **** *
1281:Generated_Source\PSoC4/PWM_Green.c **** * Summary:
1282:Generated_Source\PSoC4/PWM_Green.c **** *  Reads the status of the PWM_Green.
1283:Generated_Source\PSoC4/PWM_Green.c **** *
1284:Generated_Source\PSoC4/PWM_Green.c **** * Parameters:
1285:Generated_Source\PSoC4/PWM_Green.c **** *  None
ARM GAS  C:\Users\JOSEAN~1\AppData\Local\Temp\ccll5T2D.s 			page 55


1286:Generated_Source\PSoC4/PWM_Green.c **** *
1287:Generated_Source\PSoC4/PWM_Green.c **** * Return:
1288:Generated_Source\PSoC4/PWM_Green.c **** *  Status
1289:Generated_Source\PSoC4/PWM_Green.c **** *   Values:
1290:Generated_Source\PSoC4/PWM_Green.c **** *     - PWM_Green_STATUS_DOWN    - Set if counting down
1291:Generated_Source\PSoC4/PWM_Green.c **** *     - PWM_Green_STATUS_RUNNING - Set if counter is running
1292:Generated_Source\PSoC4/PWM_Green.c **** *
1293:Generated_Source\PSoC4/PWM_Green.c **** *******************************************************************************/
1294:Generated_Source\PSoC4/PWM_Green.c **** uint32 PWM_Green_ReadStatus(void)
1295:Generated_Source\PSoC4/PWM_Green.c **** {
 1794              		.loc 1 1295 0
 1795              		.cfi_startproc
 1796              		@ args = 0, pretend = 0, frame = 0
 1797              		@ frame_needed = 1, uses_anonymous_args = 0
 1798 0000 80B5     		push	{r7, lr}
 1799              		.cfi_def_cfa_offset 8
 1800              		.cfi_offset 7, -8
 1801              		.cfi_offset 14, -4
 1802 0002 00AF     		add	r7, sp, #0
 1803              		.cfi_def_cfa_register 7
1296:Generated_Source\PSoC4/PWM_Green.c ****     return ((PWM_Green_STATUS_REG >> PWM_Green_RUNNING_STATUS_SHIFT) |
 1804              		.loc 1 1296 0
 1805 0004 054B     		ldr	r3, .L113
 1806 0006 1B68     		ldr	r3, [r3]
 1807 0008 9A0F     		lsrs	r2, r3, #30
1297:Generated_Source\PSoC4/PWM_Green.c ****             (PWM_Green_STATUS_REG & PWM_Green_STATUS_DOWN));
 1808              		.loc 1 1297 0
 1809 000a 044B     		ldr	r3, .L113
 1810 000c 1B68     		ldr	r3, [r3]
 1811 000e 0121     		movs	r1, #1
 1812 0010 0B40     		ands	r3, r1
1296:Generated_Source\PSoC4/PWM_Green.c ****     return ((PWM_Green_STATUS_REG >> PWM_Green_RUNNING_STATUS_SHIFT) |
 1813              		.loc 1 1296 0
 1814 0012 1343     		orrs	r3, r2
1298:Generated_Source\PSoC4/PWM_Green.c **** }
 1815              		.loc 1 1298 0
 1816 0014 1800     		movs	r0, r3
 1817 0016 BD46     		mov	sp, r7
 1818              		@ sp needed
 1819 0018 80BD     		pop	{r7, pc}
 1820              	.L114:
 1821 001a C046     		.align	2
 1822              	.L113:
 1823 001c 04010540 		.word	1074069764
 1824              		.cfi_endproc
 1825              	.LFE34:
 1826              		.size	PWM_Green_ReadStatus, .-PWM_Green_ReadStatus
 1827              		.section	.text.PWM_Green_SetInterruptMode,"ax",%progbits
 1828              		.align	2
 1829              		.global	PWM_Green_SetInterruptMode
 1830              		.code	16
 1831              		.thumb_func
 1832              		.type	PWM_Green_SetInterruptMode, %function
 1833              	PWM_Green_SetInterruptMode:
 1834              	.LFB35:
1299:Generated_Source\PSoC4/PWM_Green.c **** 
1300:Generated_Source\PSoC4/PWM_Green.c **** 
ARM GAS  C:\Users\JOSEAN~1\AppData\Local\Temp\ccll5T2D.s 			page 56


1301:Generated_Source\PSoC4/PWM_Green.c **** /*******************************************************************************
1302:Generated_Source\PSoC4/PWM_Green.c **** * Function Name: PWM_Green_SetInterruptMode
1303:Generated_Source\PSoC4/PWM_Green.c **** ********************************************************************************
1304:Generated_Source\PSoC4/PWM_Green.c **** *
1305:Generated_Source\PSoC4/PWM_Green.c **** * Summary:
1306:Generated_Source\PSoC4/PWM_Green.c **** *  Sets the interrupt mask to control which interrupt
1307:Generated_Source\PSoC4/PWM_Green.c **** *  requests generate the interrupt signal.
1308:Generated_Source\PSoC4/PWM_Green.c **** *
1309:Generated_Source\PSoC4/PWM_Green.c **** * Parameters:
1310:Generated_Source\PSoC4/PWM_Green.c **** *   interruptMask: Mask of bits to be enabled
1311:Generated_Source\PSoC4/PWM_Green.c **** *   Values:
1312:Generated_Source\PSoC4/PWM_Green.c **** *     - PWM_Green_INTR_MASK_TC       - Terminal count mask
1313:Generated_Source\PSoC4/PWM_Green.c **** *     - PWM_Green_INTR_MASK_CC_MATCH - Compare count / capture mask
1314:Generated_Source\PSoC4/PWM_Green.c **** *
1315:Generated_Source\PSoC4/PWM_Green.c **** * Return:
1316:Generated_Source\PSoC4/PWM_Green.c **** *  None
1317:Generated_Source\PSoC4/PWM_Green.c **** *
1318:Generated_Source\PSoC4/PWM_Green.c **** *******************************************************************************/
1319:Generated_Source\PSoC4/PWM_Green.c **** void PWM_Green_SetInterruptMode(uint32 interruptMask)
1320:Generated_Source\PSoC4/PWM_Green.c **** {
 1835              		.loc 1 1320 0
 1836              		.cfi_startproc
 1837              		@ args = 0, pretend = 0, frame = 8
 1838              		@ frame_needed = 1, uses_anonymous_args = 0
 1839 0000 80B5     		push	{r7, lr}
 1840              		.cfi_def_cfa_offset 8
 1841              		.cfi_offset 7, -8
 1842              		.cfi_offset 14, -4
 1843 0002 82B0     		sub	sp, sp, #8
 1844              		.cfi_def_cfa_offset 16
 1845 0004 00AF     		add	r7, sp, #0
 1846              		.cfi_def_cfa_register 7
 1847 0006 7860     		str	r0, [r7, #4]
1321:Generated_Source\PSoC4/PWM_Green.c ****     PWM_Green_INTERRUPT_MASK_REG =  interruptMask;
 1848              		.loc 1 1321 0
 1849 0008 034B     		ldr	r3, .L116
 1850 000a 7A68     		ldr	r2, [r7, #4]
 1851 000c 1A60     		str	r2, [r3]
1322:Generated_Source\PSoC4/PWM_Green.c **** }
 1852              		.loc 1 1322 0
 1853 000e C046     		nop
 1854 0010 BD46     		mov	sp, r7
 1855 0012 02B0     		add	sp, sp, #8
 1856              		@ sp needed
 1857 0014 80BD     		pop	{r7, pc}
 1858              	.L117:
 1859 0016 C046     		.align	2
 1860              	.L116:
 1861 0018 38010540 		.word	1074069816
 1862              		.cfi_endproc
 1863              	.LFE35:
 1864              		.size	PWM_Green_SetInterruptMode, .-PWM_Green_SetInterruptMode
 1865              		.section	.text.PWM_Green_GetInterruptSourceMasked,"ax",%progbits
 1866              		.align	2
 1867              		.global	PWM_Green_GetInterruptSourceMasked
 1868              		.code	16
 1869              		.thumb_func
ARM GAS  C:\Users\JOSEAN~1\AppData\Local\Temp\ccll5T2D.s 			page 57


 1870              		.type	PWM_Green_GetInterruptSourceMasked, %function
 1871              	PWM_Green_GetInterruptSourceMasked:
 1872              	.LFB36:
1323:Generated_Source\PSoC4/PWM_Green.c **** 
1324:Generated_Source\PSoC4/PWM_Green.c **** 
1325:Generated_Source\PSoC4/PWM_Green.c **** /*******************************************************************************
1326:Generated_Source\PSoC4/PWM_Green.c **** * Function Name: PWM_Green_GetInterruptSourceMasked
1327:Generated_Source\PSoC4/PWM_Green.c **** ********************************************************************************
1328:Generated_Source\PSoC4/PWM_Green.c **** *
1329:Generated_Source\PSoC4/PWM_Green.c **** * Summary:
1330:Generated_Source\PSoC4/PWM_Green.c **** *  Gets the interrupt requests masked by the interrupt mask.
1331:Generated_Source\PSoC4/PWM_Green.c **** *
1332:Generated_Source\PSoC4/PWM_Green.c **** * Parameters:
1333:Generated_Source\PSoC4/PWM_Green.c **** *   None
1334:Generated_Source\PSoC4/PWM_Green.c **** *
1335:Generated_Source\PSoC4/PWM_Green.c **** * Return:
1336:Generated_Source\PSoC4/PWM_Green.c **** *  Masked interrupt source
1337:Generated_Source\PSoC4/PWM_Green.c **** *   Values:
1338:Generated_Source\PSoC4/PWM_Green.c **** *     - PWM_Green_INTR_MASK_TC       - Terminal count mask
1339:Generated_Source\PSoC4/PWM_Green.c **** *     - PWM_Green_INTR_MASK_CC_MATCH - Compare count / capture mask
1340:Generated_Source\PSoC4/PWM_Green.c **** *
1341:Generated_Source\PSoC4/PWM_Green.c **** *******************************************************************************/
1342:Generated_Source\PSoC4/PWM_Green.c **** uint32 PWM_Green_GetInterruptSourceMasked(void)
1343:Generated_Source\PSoC4/PWM_Green.c **** {
 1873              		.loc 1 1343 0
 1874              		.cfi_startproc
 1875              		@ args = 0, pretend = 0, frame = 0
 1876              		@ frame_needed = 1, uses_anonymous_args = 0
 1877 0000 80B5     		push	{r7, lr}
 1878              		.cfi_def_cfa_offset 8
 1879              		.cfi_offset 7, -8
 1880              		.cfi_offset 14, -4
 1881 0002 00AF     		add	r7, sp, #0
 1882              		.cfi_def_cfa_register 7
1344:Generated_Source\PSoC4/PWM_Green.c ****     return (PWM_Green_INTERRUPT_MASKED_REG);
 1883              		.loc 1 1344 0
 1884 0004 024B     		ldr	r3, .L120
 1885 0006 1B68     		ldr	r3, [r3]
1345:Generated_Source\PSoC4/PWM_Green.c **** }
 1886              		.loc 1 1345 0
 1887 0008 1800     		movs	r0, r3
 1888 000a BD46     		mov	sp, r7
 1889              		@ sp needed
 1890 000c 80BD     		pop	{r7, pc}
 1891              	.L121:
 1892 000e C046     		.align	2
 1893              	.L120:
 1894 0010 3C010540 		.word	1074069820
 1895              		.cfi_endproc
 1896              	.LFE36:
 1897              		.size	PWM_Green_GetInterruptSourceMasked, .-PWM_Green_GetInterruptSourceMasked
 1898              		.section	.text.PWM_Green_GetInterruptSource,"ax",%progbits
 1899              		.align	2
 1900              		.global	PWM_Green_GetInterruptSource
 1901              		.code	16
 1902              		.thumb_func
 1903              		.type	PWM_Green_GetInterruptSource, %function
ARM GAS  C:\Users\JOSEAN~1\AppData\Local\Temp\ccll5T2D.s 			page 58


 1904              	PWM_Green_GetInterruptSource:
 1905              	.LFB37:
1346:Generated_Source\PSoC4/PWM_Green.c **** 
1347:Generated_Source\PSoC4/PWM_Green.c **** 
1348:Generated_Source\PSoC4/PWM_Green.c **** /*******************************************************************************
1349:Generated_Source\PSoC4/PWM_Green.c **** * Function Name: PWM_Green_GetInterruptSource
1350:Generated_Source\PSoC4/PWM_Green.c **** ********************************************************************************
1351:Generated_Source\PSoC4/PWM_Green.c **** *
1352:Generated_Source\PSoC4/PWM_Green.c **** * Summary:
1353:Generated_Source\PSoC4/PWM_Green.c **** *  Gets the interrupt requests (without masking).
1354:Generated_Source\PSoC4/PWM_Green.c **** *
1355:Generated_Source\PSoC4/PWM_Green.c **** * Parameters:
1356:Generated_Source\PSoC4/PWM_Green.c **** *  None
1357:Generated_Source\PSoC4/PWM_Green.c **** *
1358:Generated_Source\PSoC4/PWM_Green.c **** * Return:
1359:Generated_Source\PSoC4/PWM_Green.c **** *  Interrupt request value
1360:Generated_Source\PSoC4/PWM_Green.c **** *   Values:
1361:Generated_Source\PSoC4/PWM_Green.c **** *     - PWM_Green_INTR_MASK_TC       - Terminal count mask
1362:Generated_Source\PSoC4/PWM_Green.c **** *     - PWM_Green_INTR_MASK_CC_MATCH - Compare count / capture mask
1363:Generated_Source\PSoC4/PWM_Green.c **** *
1364:Generated_Source\PSoC4/PWM_Green.c **** *******************************************************************************/
1365:Generated_Source\PSoC4/PWM_Green.c **** uint32 PWM_Green_GetInterruptSource(void)
1366:Generated_Source\PSoC4/PWM_Green.c **** {
 1906              		.loc 1 1366 0
 1907              		.cfi_startproc
 1908              		@ args = 0, pretend = 0, frame = 0
 1909              		@ frame_needed = 1, uses_anonymous_args = 0
 1910 0000 80B5     		push	{r7, lr}
 1911              		.cfi_def_cfa_offset 8
 1912              		.cfi_offset 7, -8
 1913              		.cfi_offset 14, -4
 1914 0002 00AF     		add	r7, sp, #0
 1915              		.cfi_def_cfa_register 7
1367:Generated_Source\PSoC4/PWM_Green.c ****     return (PWM_Green_INTERRUPT_REQ_REG);
 1916              		.loc 1 1367 0
 1917 0004 024B     		ldr	r3, .L124
 1918 0006 1B68     		ldr	r3, [r3]
1368:Generated_Source\PSoC4/PWM_Green.c **** }
 1919              		.loc 1 1368 0
 1920 0008 1800     		movs	r0, r3
 1921 000a BD46     		mov	sp, r7
 1922              		@ sp needed
 1923 000c 80BD     		pop	{r7, pc}
 1924              	.L125:
 1925 000e C046     		.align	2
 1926              	.L124:
 1927 0010 30010540 		.word	1074069808
 1928              		.cfi_endproc
 1929              	.LFE37:
 1930              		.size	PWM_Green_GetInterruptSource, .-PWM_Green_GetInterruptSource
 1931              		.section	.text.PWM_Green_ClearInterrupt,"ax",%progbits
 1932              		.align	2
 1933              		.global	PWM_Green_ClearInterrupt
 1934              		.code	16
 1935              		.thumb_func
 1936              		.type	PWM_Green_ClearInterrupt, %function
 1937              	PWM_Green_ClearInterrupt:
ARM GAS  C:\Users\JOSEAN~1\AppData\Local\Temp\ccll5T2D.s 			page 59


 1938              	.LFB38:
1369:Generated_Source\PSoC4/PWM_Green.c **** 
1370:Generated_Source\PSoC4/PWM_Green.c **** 
1371:Generated_Source\PSoC4/PWM_Green.c **** /*******************************************************************************
1372:Generated_Source\PSoC4/PWM_Green.c **** * Function Name: PWM_Green_ClearInterrupt
1373:Generated_Source\PSoC4/PWM_Green.c **** ********************************************************************************
1374:Generated_Source\PSoC4/PWM_Green.c **** *
1375:Generated_Source\PSoC4/PWM_Green.c **** * Summary:
1376:Generated_Source\PSoC4/PWM_Green.c **** *  Clears the interrupt request.
1377:Generated_Source\PSoC4/PWM_Green.c **** *
1378:Generated_Source\PSoC4/PWM_Green.c **** * Parameters:
1379:Generated_Source\PSoC4/PWM_Green.c **** *   interruptMask: Mask of interrupts to clear
1380:Generated_Source\PSoC4/PWM_Green.c **** *   Values:
1381:Generated_Source\PSoC4/PWM_Green.c **** *     - PWM_Green_INTR_MASK_TC       - Terminal count mask
1382:Generated_Source\PSoC4/PWM_Green.c **** *     - PWM_Green_INTR_MASK_CC_MATCH - Compare count / capture mask
1383:Generated_Source\PSoC4/PWM_Green.c **** *
1384:Generated_Source\PSoC4/PWM_Green.c **** * Return:
1385:Generated_Source\PSoC4/PWM_Green.c **** *  None
1386:Generated_Source\PSoC4/PWM_Green.c **** *
1387:Generated_Source\PSoC4/PWM_Green.c **** *******************************************************************************/
1388:Generated_Source\PSoC4/PWM_Green.c **** void PWM_Green_ClearInterrupt(uint32 interruptMask)
1389:Generated_Source\PSoC4/PWM_Green.c **** {
 1939              		.loc 1 1389 0
 1940              		.cfi_startproc
 1941              		@ args = 0, pretend = 0, frame = 8
 1942              		@ frame_needed = 1, uses_anonymous_args = 0
 1943 0000 80B5     		push	{r7, lr}
 1944              		.cfi_def_cfa_offset 8
 1945              		.cfi_offset 7, -8
 1946              		.cfi_offset 14, -4
 1947 0002 82B0     		sub	sp, sp, #8
 1948              		.cfi_def_cfa_offset 16
 1949 0004 00AF     		add	r7, sp, #0
 1950              		.cfi_def_cfa_register 7
 1951 0006 7860     		str	r0, [r7, #4]
1390:Generated_Source\PSoC4/PWM_Green.c ****     PWM_Green_INTERRUPT_REQ_REG = interruptMask;
 1952              		.loc 1 1390 0
 1953 0008 034B     		ldr	r3, .L127
 1954 000a 7A68     		ldr	r2, [r7, #4]
 1955 000c 1A60     		str	r2, [r3]
1391:Generated_Source\PSoC4/PWM_Green.c **** }
 1956              		.loc 1 1391 0
 1957 000e C046     		nop
 1958 0010 BD46     		mov	sp, r7
 1959 0012 02B0     		add	sp, sp, #8
 1960              		@ sp needed
 1961 0014 80BD     		pop	{r7, pc}
 1962              	.L128:
 1963 0016 C046     		.align	2
 1964              	.L127:
 1965 0018 30010540 		.word	1074069808
 1966              		.cfi_endproc
 1967              	.LFE38:
 1968              		.size	PWM_Green_ClearInterrupt, .-PWM_Green_ClearInterrupt
 1969              		.section	.text.PWM_Green_SetInterrupt,"ax",%progbits
 1970              		.align	2
 1971              		.global	PWM_Green_SetInterrupt
ARM GAS  C:\Users\JOSEAN~1\AppData\Local\Temp\ccll5T2D.s 			page 60


 1972              		.code	16
 1973              		.thumb_func
 1974              		.type	PWM_Green_SetInterrupt, %function
 1975              	PWM_Green_SetInterrupt:
 1976              	.LFB39:
1392:Generated_Source\PSoC4/PWM_Green.c **** 
1393:Generated_Source\PSoC4/PWM_Green.c **** 
1394:Generated_Source\PSoC4/PWM_Green.c **** /*******************************************************************************
1395:Generated_Source\PSoC4/PWM_Green.c **** * Function Name: PWM_Green_SetInterrupt
1396:Generated_Source\PSoC4/PWM_Green.c **** ********************************************************************************
1397:Generated_Source\PSoC4/PWM_Green.c **** *
1398:Generated_Source\PSoC4/PWM_Green.c **** * Summary:
1399:Generated_Source\PSoC4/PWM_Green.c **** *  Sets a software interrupt request.
1400:Generated_Source\PSoC4/PWM_Green.c **** *
1401:Generated_Source\PSoC4/PWM_Green.c **** * Parameters:
1402:Generated_Source\PSoC4/PWM_Green.c **** *   interruptMask: Mask of interrupts to set
1403:Generated_Source\PSoC4/PWM_Green.c **** *   Values:
1404:Generated_Source\PSoC4/PWM_Green.c **** *     - PWM_Green_INTR_MASK_TC       - Terminal count mask
1405:Generated_Source\PSoC4/PWM_Green.c **** *     - PWM_Green_INTR_MASK_CC_MATCH - Compare count / capture mask
1406:Generated_Source\PSoC4/PWM_Green.c **** *
1407:Generated_Source\PSoC4/PWM_Green.c **** * Return:
1408:Generated_Source\PSoC4/PWM_Green.c **** *  None
1409:Generated_Source\PSoC4/PWM_Green.c **** *
1410:Generated_Source\PSoC4/PWM_Green.c **** *******************************************************************************/
1411:Generated_Source\PSoC4/PWM_Green.c **** void PWM_Green_SetInterrupt(uint32 interruptMask)
1412:Generated_Source\PSoC4/PWM_Green.c **** {
 1977              		.loc 1 1412 0
 1978              		.cfi_startproc
 1979              		@ args = 0, pretend = 0, frame = 8
 1980              		@ frame_needed = 1, uses_anonymous_args = 0
 1981 0000 80B5     		push	{r7, lr}
 1982              		.cfi_def_cfa_offset 8
 1983              		.cfi_offset 7, -8
 1984              		.cfi_offset 14, -4
 1985 0002 82B0     		sub	sp, sp, #8
 1986              		.cfi_def_cfa_offset 16
 1987 0004 00AF     		add	r7, sp, #0
 1988              		.cfi_def_cfa_register 7
 1989 0006 7860     		str	r0, [r7, #4]
1413:Generated_Source\PSoC4/PWM_Green.c ****     PWM_Green_INTERRUPT_SET_REG = interruptMask;
 1990              		.loc 1 1413 0
 1991 0008 034B     		ldr	r3, .L130
 1992 000a 7A68     		ldr	r2, [r7, #4]
 1993 000c 1A60     		str	r2, [r3]
1414:Generated_Source\PSoC4/PWM_Green.c **** }
 1994              		.loc 1 1414 0
 1995 000e C046     		nop
 1996 0010 BD46     		mov	sp, r7
 1997 0012 02B0     		add	sp, sp, #8
 1998              		@ sp needed
 1999 0014 80BD     		pop	{r7, pc}
 2000              	.L131:
 2001 0016 C046     		.align	2
 2002              	.L130:
 2003 0018 34010540 		.word	1074069812
 2004              		.cfi_endproc
 2005              	.LFE39:
ARM GAS  C:\Users\JOSEAN~1\AppData\Local\Temp\ccll5T2D.s 			page 61


 2006              		.size	PWM_Green_SetInterrupt, .-PWM_Green_SetInterrupt
 2007              		.text
 2008              	.Letext0:
 2009              		.file 2 "Generated_Source\\PSoC4\\cytypes.h"
