Archive member included to satisfy reference by file (symbol)

.\CortexM0\ARM_GCC_541\Debug\TrafficLight2.a(Clock.o)
                              .\CortexM0\ARM_GCC_541\Debug\main.o (Clock_Start)
.\CortexM0\ARM_GCC_541\Debug\TrafficLight2.a(PWM_Red.o)
                              .\CortexM0\ARM_GCC_541\Debug\main.o (PWM_Red_WriteCompare)
.\CortexM0\ARM_GCC_541\Debug\TrafficLight2.a(PWM_Green.o)
                              .\CortexM0\ARM_GCC_541\Debug\main.o (PWM_Green_WriteCompare)
.\CortexM0\ARM_GCC_541\Debug\TrafficLight2.a(PWM_Blue.o)
                              .\CortexM0\ARM_GCC_541\Debug\main.o (PWM_Blue_WriteCompare)
.\CortexM0\ARM_GCC_541\Debug\TrafficLight2.a(CyLib.o)
                              .\CortexM0\ARM_GCC_541\Debug\cyfitter_cfg.o (CyIntEnable)
.\CortexM0\ARM_GCC_541\Debug\TrafficLight2.a(CyLFClk.o)
                              .\CortexM0\ARM_GCC_541\Debug\cyfitter_cfg.o (CySysWdtIsr)
.\CortexM0\ARM_GCC_541\Debug\TrafficLight2.a(Clock_PWM.o)
                              .\CortexM0\ARM_GCC_541\Debug\main.o (Clock_PWM_Start)
.\CortexM0\ARM_GCC_541\Debug\TrafficLight2.a(Timer.o)
                              .\CortexM0\ARM_GCC_541\Debug\main.o (Timer_WritePeriod)
.\CortexM0\ARM_GCC_541\Debug\TrafficLight2.a(isr_timer.o)
                              .\CortexM0\ARM_GCC_541\Debug\main.o (isr_timer_StartEx)
.\CortexM0\ARM_GCC_541\Debug\TrafficLight2.a(isr_button.o)
                              .\CortexM0\ARM_GCC_541\Debug\main.o (isr_button_StartEx)
.\CortexM0\ARM_GCC_541\Debug\TrafficLight2.a(CyBootAsmGnu.o)
                              .\CortexM0\ARM_GCC_541\Debug\TrafficLight2.a(CyLib.o) (CyDelayCycles)
c:/program files (x86)/cypress/psoc creator/4.2/psoc creator/import/gnu/arm/5.4.1/bin/../lib/gcc/arm-none-eabi/5.4.1/armv6-m\libgcc.a(_udivsi3.o)
                              .\CortexM0\ARM_GCC_541\Debug\TrafficLight2.a(CyLib.o) (__aeabi_uidiv)
c:/program files (x86)/cypress/psoc creator/4.2/psoc creator/import/gnu/arm/5.4.1/bin/../lib/gcc/arm-none-eabi/5.4.1/armv6-m\libgcc.a(_dvmd_tls.o)
                              c:/program files (x86)/cypress/psoc creator/4.2/psoc creator/import/gnu/arm/5.4.1/bin/../lib/gcc/arm-none-eabi/5.4.1/armv6-m\libgcc.a(_udivsi3.o) (__aeabi_idiv0)
c:/program files (x86)/cypress/psoc creator/4.2/psoc creator/import/gnu/arm/5.4.1/bin/../lib/gcc/arm-none-eabi/5.4.1/../../../../arm-none-eabi/lib/armv6-m\libg_nano.a(lib_a-errno.o)
                              .\CortexM0\ARM_GCC_541\Debug\Cm0Start.o (__errno)
c:/program files (x86)/cypress/psoc creator/4.2/psoc creator/import/gnu/arm/5.4.1/bin/../lib/gcc/arm-none-eabi/5.4.1/../../../../arm-none-eabi/lib/armv6-m\libg_nano.a(lib_a-exit.o)
                              c:/program files (x86)/cypress/psoc creator/4.2/psoc creator/import/gnu/arm/5.4.1/bin/../lib/gcc/arm-none-eabi/5.4.1/../../../../arm-none-eabi/lib/armv6-m/crt0.o (exit)
c:/program files (x86)/cypress/psoc creator/4.2/psoc creator/import/gnu/arm/5.4.1/bin/../lib/gcc/arm-none-eabi/5.4.1/../../../../arm-none-eabi/lib/armv6-m\libg_nano.a(lib_a-impure.o)
                              c:/program files (x86)/cypress/psoc creator/4.2/psoc creator/import/gnu/arm/5.4.1/bin/../lib/gcc/arm-none-eabi/5.4.1/../../../../arm-none-eabi/lib/armv6-m\libg_nano.a(lib_a-exit.o) (_global_impure_ptr)
c:/program files (x86)/cypress/psoc creator/4.2/psoc creator/import/gnu/arm/5.4.1/bin/../lib/gcc/arm-none-eabi/5.4.1/../../../../arm-none-eabi/lib/armv6-m\libg_nano.a(lib_a-init.o)
                              c:/program files (x86)/cypress/psoc creator/4.2/psoc creator/import/gnu/arm/5.4.1/bin/../lib/gcc/arm-none-eabi/5.4.1/../../../../arm-none-eabi/lib/armv6-m/crt0.o (__libc_init_array)
c:/program files (x86)/cypress/psoc creator/4.2/psoc creator/import/gnu/arm/5.4.1/bin/../lib/gcc/arm-none-eabi/5.4.1/../../../../arm-none-eabi/lib/armv6-m\libg_nano.a(lib_a-memset.o)
                              c:/program files (x86)/cypress/psoc creator/4.2/psoc creator/import/gnu/arm/5.4.1/bin/../lib/gcc/arm-none-eabi/5.4.1/../../../../arm-none-eabi/lib/armv6-m/crt0.o (memset)

Discarded input sections

 .text          0x00000000        0x0 c:/program files (x86)/cypress/psoc creator/4.2/psoc creator/import/gnu/arm/5.4.1/bin/../lib/gcc/arm-none-eabi/5.4.1/armv6-m/crti.o
 .data          0x00000000        0x0 c:/program files (x86)/cypress/psoc creator/4.2/psoc creator/import/gnu/arm/5.4.1/bin/../lib/gcc/arm-none-eabi/5.4.1/armv6-m/crti.o
 .bss           0x00000000        0x0 c:/program files (x86)/cypress/psoc creator/4.2/psoc creator/import/gnu/arm/5.4.1/bin/../lib/gcc/arm-none-eabi/5.4.1/armv6-m/crti.o
 .data          0x00000000        0x4 c:/program files (x86)/cypress/psoc creator/4.2/psoc creator/import/gnu/arm/5.4.1/bin/../lib/gcc/arm-none-eabi/5.4.1/armv6-m/crtbegin.o
 .text          0x00000000       0x78 c:/program files (x86)/cypress/psoc creator/4.2/psoc creator/import/gnu/arm/5.4.1/bin/../lib/gcc/arm-none-eabi/5.4.1/../../../../arm-none-eabi/lib/armv6-m/crt0.o
 .data          0x00000000        0x0 c:/program files (x86)/cypress/psoc creator/4.2/psoc creator/import/gnu/arm/5.4.1/bin/../lib/gcc/arm-none-eabi/5.4.1/../../../../arm-none-eabi/lib/armv6-m/crt0.o
 .bss           0x00000000        0x0 c:/program files (x86)/cypress/psoc creator/4.2/psoc creator/import/gnu/arm/5.4.1/bin/../lib/gcc/arm-none-eabi/5.4.1/../../../../arm-none-eabi/lib/armv6-m/crt0.o
 .ARM.extab     0x00000000        0x0 c:/program files (x86)/cypress/psoc creator/4.2/psoc creator/import/gnu/arm/5.4.1/bin/../lib/gcc/arm-none-eabi/5.4.1/../../../../arm-none-eabi/lib/armv6-m/crt0.o
 .ARM.exidx     0x00000000        0x8 c:/program files (x86)/cypress/psoc creator/4.2/psoc creator/import/gnu/arm/5.4.1/bin/../lib/gcc/arm-none-eabi/5.4.1/../../../../arm-none-eabi/lib/armv6-m/crt0.o
 .text          0x00000000        0x0 .\CortexM0\ARM_GCC_541\Debug\main.o
 .data          0x00000000        0x0 .\CortexM0\ARM_GCC_541\Debug\main.o
 .text          0x00000000        0x0 .\CortexM0\ARM_GCC_541\Debug\cyfitter_cfg.o
 .data          0x00000000        0x0 .\CortexM0\ARM_GCC_541\Debug\cyfitter_cfg.o
 .bss           0x00000000        0x0 .\CortexM0\ARM_GCC_541\Debug\cyfitter_cfg.o
 .text          0x00000000        0x0 .\CortexM0\ARM_GCC_541\Debug\cymetadata.o
 .data          0x00000000        0x0 .\CortexM0\ARM_GCC_541\Debug\cymetadata.o
 .bss           0x00000000        0x0 .\CortexM0\ARM_GCC_541\Debug\cymetadata.o
 .text          0x00000000        0x0 .\CortexM0\ARM_GCC_541\Debug\Cm0Start.o
Memory Configuration

Name             Origin             Length             Attributes
rom              0x00000000         0x00008000         xr
ram              0x20000000         0x00001000         xrw
*default*        0x00000000         0xffffffff

Linker script and memory map

LOAD c:/program files (x86)/cypress/psoc creator/4.2/psoc creator/import/gnu/arm/5.4.1/bin/../lib/gcc/arm-none-eabi/5.4.1/armv6-m/crti.o
LOAD c:/program files (x86)/cypress/psoc creator/4.2/psoc creator/import/gnu/arm/5.4.1/bin/../lib/gcc/arm-none-eabi/5.4.1/armv6-m/crtbegin.o
LOAD c:/program files (x86)/cypress/psoc creator/4.2/psoc creator/import/gnu/arm/5.4.1/bin/../lib/gcc/arm-none-eabi/5.4.1/../../../../arm-none-eabi/lib/armv6-m/crt0.o
START GROUP
LOAD .\CortexM0\ARM_GCC_541\Debug\main.o
LOAD .\CortexM0\ARM_GCC_541\Debug\cyfitter_cfg.o
LOAD .\CortexM0\ARM_GCC_541\Debug\cymetadata.o
LOAD .\CortexM0\ARM_GCC_541\Debug\Cm0Start.o
LOAD .\CortexM0\ARM_GCC_541\Debug\TrafficLight2.a
END GROUP
START GROUP
LOAD c:/program files (x86)/cypress/psoc creator/4.2/psoc creator/import/gnu/arm/5.4.1/bin/../lib/gcc/arm-none-eabi/5.4.1/armv6-m\libgcc.a
LOAD c:/program files (x86)/cypress/psoc creator/4.2/psoc creator/import/gnu/arm/5.4.1/bin/../lib/gcc/arm-none-eabi/5.4.1/../../../../arm-none-eabi/lib/armv6-m\libg_nano.a
LOAD c:/program files (x86)/cypress/psoc creator/4.2/psoc creator/import/gnu/arm/5.4.1/bin/../lib/gcc/arm-none-eabi/5.4.1/../../../../arm-none-eabi/lib/armv6-m\libc_nano.a
END GROUP
START GROUP
LOAD c:/program files (x86)/cypress/psoc creator/4.2/psoc creator/import/gnu/arm/5.4.1/bin/../lib/gcc/arm-none-eabi/5.4.1/armv6-m\libgcc.a
LOAD c:/program files (x86)/cypress/psoc creator/4.2/psoc creator/import/gnu/arm/5.4.1/bin/../lib/gcc/arm-none-eabi/5.4.1/../../../../arm-none-eabi/lib/armv6-m\libc_nano.a
END GROUP
LOAD c:/program files (x86)/cypress/psoc creator/4.2/psoc creator/import/gnu/arm/5.4.1/bin/../lib/gcc/arm-none-eabi/5.4.1/armv6-m/crtend.o
LOAD c:/program files (x86)/cypress/psoc creator/4.2/psoc creator/import/gnu/arm/5.4.1/bin/../lib/gcc/arm-none-eabi/5.4.1/armv6-m/crtn.o
START GROUP
LOAD c:/program files (x86)/cypress/psoc creator/4.2/psoc creator/import/gnu/arm/5.4.1/bin/../lib/gcc/arm-none-eabi/5.4.1/armv6-m\libgcc.a
LOAD c:/program files (x86)/cypress/psoc creator/4.2/psoc creator/import/gnu/arm/5.4.1/bin/../lib/gcc/arm-none-eabi/5.4.1/../../../../arm-none-eabi/lib/armv6-m\libc.a
LOAD c:/program files (x86)/cypress/psoc creator/4.2/psoc creator/import/gnu/arm/5.4.1/bin/../lib/gcc/arm-none-eabi/5.4.1/../../../../arm-none-eabi/lib/armv6-m\libnosys.a
END GROUP
                0x00000000                CY_APPL_ORIGIN = 0x0
                0x00000080                CY_FLASH_ROW_SIZE = 0x80
                0x00000001                CY_APPL_NUM = 0x1
                0x00000001                CY_APPL_MAX = 0x1
                0x00000040                CY_METADATA_SIZE = 0x40
                0x00000000                CY_APPL_LOADABLE = 0x0
                0x00000000                CY_CHECKSUM_EXCLUDE_SIZE = ALIGN (0x0, CY_FLASH_ROW_SIZE)
                0x00000000                CY_APP_FOR_STACK_AND_COPIER = 0x0
                [!provide]                PROVIDE (__cy_heap_start, _end)
                0x00000001                PROVIDE (__cy_region_num, ((__cy_regions_end - __cy_regions) / 0x10))
                0x20001000                PROVIDE (__cy_stack, (ORIGIN (ram) + LENGTH (ram)))
                [!provide]                PROVIDE (__cy_heap_end, (__cy_stack - 0x400))

.cybootloader   0x00000000        0x0
 *(.cybootloader)
                0x00000000                appl1_start = CY_APPL_ORIGIN?CY_APPL_ORIGIN:ALIGN (CY_FLASH_ROW_SIZE)
                0x00003f80                appl2_start = (appl1_start + ALIGN ((((LENGTH (rom) - appl1_start) - (0x2 * CY_FLASH_ROW_SIZE)) / 0x2), CY_FLASH_ROW_SIZE))
                0x00000000                appl_start = (CY_APPL_NUM == 0x1)?appl1_start:appl2_start
                0x00000001                cy_project_type_bootloader = (appl_start == 0x0)?0x1:0x0
                0x00000000                cy_project_type_app_for_stack_and_copier = (CY_APP_FOR_STACK_AND_COPIER == 0x1)?0x1:0x0

.text           0x00000000      0xbf4
 CREATE_OBJECT_SYMBOLS
                0x00000000                PROVIDE (__cy_interrupt_vector, RomVectors)
 *(.romvectors)
 .romvectors    0x00000000       0x10 .\CortexM0\ARM_GCC_541\Debug\Cm0Start.o
                0x00000000                RomVectors
                0x00000001                ASSERT ((. != __cy_interrupt_vector), No interrupt vector)
                0x00000001                ASSERT (CY_APPL_ORIGIN?(SIZEOF (.cybootloader) <= CY_APPL_ORIGIN):0x1, Wrong image location)
                0x00000010                PROVIDE (__cy_reset, Reset)
 *(.text.Reset)
 .text.Reset    0x00000010        0x8 .\CortexM0\ARM_GCC_541\Debug\Cm0Start.o
                0x00000010                Reset
                0x00000001                ASSERT ((. != __cy_reset), No reset code)
 *(.psocinit)
 .psocinit      0x00000018      0x1bc .\CortexM0\ARM_GCC_541\Debug\cyfitter_cfg.o
                0x000000b8                cyfitter_cfg
                0x000001d4                . = MAX (., 0x100)
 *(.text .text.* .gnu.linkonce.t.*)
 .text          0x000001d4       0x60 c:/program files (x86)/cypress/psoc creator/4.2/psoc creator/import/gnu/arm/5.4.1/bin/../lib/gcc/arm-none-eabi/5.4.1/armv6-m/crtbegin.o
 .text.isr_timer_Handle
                0x00000234       0x7c .\CortexM0\ARM_GCC_541\Debug\main.o
                0x00000234                isr_timer_Handle
 .text.isr_button_Handle
                0x000002b0       0x1c .\CortexM0\ARM_GCC_541\Debug\main.o
                0x000002b0                isr_button_Handle
 .text.main     0x000002cc       0x78 .\CortexM0\ARM_GCC_541\Debug\main.o
                0x000002cc                main
 .text.cfg_write_bytes32
                0x00000344       0x34 .\CortexM0\ARM_GCC_541\Debug\cyfitter_cfg.o
 .text.CYMEMZERO
                0x00000378        0xc .\CortexM0\ARM_GCC_541\Debug\cyfitter_cfg.o
 .text.IntDefaultHandler
                0x00000384       0x10 .\CortexM0\ARM_GCC_541\Debug\Cm0Start.o
                0x00000384                IntDefaultHandler
 .text.Start_c  0x00000394       0x48 .\CortexM0\ARM_GCC_541\Debug\Cm0Start.o
                0x00000394                Start_c
 .text.initialize_psoc
                0x000003dc       0x40 .\CortexM0\ARM_GCC_541\Debug\Cm0Start.o
                0x000003dc                initialize_psoc
 .text.Clock_Start
                0x0000041c       0x14 .\CortexM0\ARM_GCC_541\Debug\TrafficLight2.a(Clock.o)
                0x0000041c                Clock_Start
 .text.PWM_Red_WriteCounter
                0x00000430       0x10 .\CortexM0\ARM_GCC_541\Debug\TrafficLight2.a(PWM_Red.o)
                0x00000430                PWM_Red_WriteCounter
 .text.PWM_Red_WritePeriod
                0x00000440       0x10 .\CortexM0\ARM_GCC_541\Debug\TrafficLight2.a(PWM_Red.o)
                0x00000440                PWM_Red_WritePeriod
 .text.PWM_Red_WriteCompare
                0x00000450       0x10 .\CortexM0\ARM_GCC_541\Debug\TrafficLight2.a(PWM_Red.o)
                0x00000450                PWM_Red_WriteCompare
 .text.PWM_Red_TriggerCommand
                0x00000460       0x1c .\CortexM0\ARM_GCC_541\Debug\TrafficLight2.a(PWM_Red.o)
                0x00000460                PWM_Red_TriggerCommand
 .text.PWM_Red_Enable
                0x0000047c       0x24 .\CortexM0\ARM_GCC_541\Debug\TrafficLight2.a(PWM_Red.o)
                0x0000047c                PWM_Red_Enable
 .text.PWM_Red_SetInterruptMode
                0x000004a0        0xc .\CortexM0\ARM_GCC_541\Debug\TrafficLight2.a(PWM_Red.o)
                0x000004a0                PWM_Red_SetInterruptMode
 .text.PWM_Red_Init
                0x000004ac       0x44 .\CortexM0\ARM_GCC_541\Debug\TrafficLight2.a(PWM_Red.o)
                0x000004ac                PWM_Red_Init
 .text.PWM_Red_Start
                0x000004f0       0x20 .\CortexM0\ARM_GCC_541\Debug\TrafficLight2.a(PWM_Red.o)
                0x000004f0                PWM_Red_Start
 .text.PWM_Green_WriteCounter
                0x00000510       0x10 .\CortexM0\ARM_GCC_541\Debug\TrafficLight2.a(PWM_Green.o)
                0x00000510                PWM_Green_WriteCounter
 .text.PWM_Green_WritePeriod
                0x00000520       0x10 .\CortexM0\ARM_GCC_541\Debug\TrafficLight2.a(PWM_Green.o)
                0x00000520                PWM_Green_WritePeriod
 .text.PWM_Green_WriteCompare
                0x00000530       0x10 .\CortexM0\ARM_GCC_541\Debug\TrafficLight2.a(PWM_Green.o)
                0x00000530                PWM_Green_WriteCompare
 .text.PWM_Green_TriggerCommand
                0x00000540       0x1c .\CortexM0\ARM_GCC_541\Debug\TrafficLight2.a(PWM_Green.o)
                0x00000540                PWM_Green_TriggerCommand
 .text.PWM_Green_Enable
                0x0000055c       0x24 .\CortexM0\ARM_GCC_541\Debug\TrafficLight2.a(PWM_Green.o)
                0x0000055c                PWM_Green_Enable
 .text.PWM_Green_SetInterruptMode
                0x00000580        0xc .\CortexM0\ARM_GCC_541\Debug\TrafficLight2.a(PWM_Green.o)
                0x00000580                PWM_Green_SetInterruptMode
 .text.PWM_Green_Init
                0x0000058c       0x44 .\CortexM0\ARM_GCC_541\Debug\TrafficLight2.a(PWM_Green.o)
                0x0000058c                PWM_Green_Init
 .text.PWM_Green_Start
                0x000005d0       0x20 .\CortexM0\ARM_GCC_541\Debug\TrafficLight2.a(PWM_Green.o)
                0x000005d0                PWM_Green_Start
 .text.PWM_Blue_WriteCounter
                0x000005f0       0x10 .\CortexM0\ARM_GCC_541\Debug\TrafficLight2.a(PWM_Blue.o)
                0x000005f0                PWM_Blue_WriteCounter
 .text.PWM_Blue_WritePeriod
                0x00000600       0x10 .\CortexM0\ARM_GCC_541\Debug\TrafficLight2.a(PWM_Blue.o)
                0x00000600                PWM_Blue_WritePeriod
 .text.PWM_Blue_WriteCompare
                0x00000610       0x10 .\CortexM0\ARM_GCC_541\Debug\TrafficLight2.a(PWM_Blue.o)
                0x00000610                PWM_Blue_WriteCompare
 .text.PWM_Blue_TriggerCommand
                0x00000620       0x1c .\CortexM0\ARM_GCC_541\Debug\TrafficLight2.a(PWM_Blue.o)
                0x00000620                PWM_Blue_TriggerCommand
 .text.PWM_Blue_Enable
                0x0000063c       0x24 .\CortexM0\ARM_GCC_541\Debug\TrafficLight2.a(PWM_Blue.o)
                0x0000063c                PWM_Blue_Enable
 .text.PWM_Blue_SetInterruptMode
                0x00000660        0xc .\CortexM0\ARM_GCC_541\Debug\TrafficLight2.a(PWM_Blue.o)
                0x00000660                PWM_Blue_SetInterruptMode
 .text.PWM_Blue_Init
                0x0000066c       0x44 .\CortexM0\ARM_GCC_541\Debug\TrafficLight2.a(PWM_Blue.o)
                0x0000066c                PWM_Blue_Init
 .text.PWM_Blue_Start
                0x000006b0       0x20 .\CortexM0\ARM_GCC_541\Debug\TrafficLight2.a(PWM_Blue.o)
                0x000006b0                PWM_Blue_Start
 .text.CyIntEnable
                0x000006d0       0x14 .\CortexM0\ARM_GCC_541\Debug\TrafficLight2.a(CyLib.o)
                0x000006d0                CyIntEnable
 .text.CyHalt   0x000006e4        0x4 .\CortexM0\ARM_GCC_541\Debug\TrafficLight2.a(CyLib.o)
                0x000006e4                CyHalt
 .text.CyIntSetVector
                0x000006e8       0x24 .\CortexM0\ARM_GCC_541\Debug\TrafficLight2.a(CyLib.o)
                0x000006e8                CyIntSetVector
 .text.CyDelayUs
                0x0000070c       0x14 .\CortexM0\ARM_GCC_541\Debug\TrafficLight2.a(CyLib.o)
                0x0000070c                CyDelayUs
 .text.CySysClkWriteImoFreq
                0x00000720      0x164 .\CortexM0\ARM_GCC_541\Debug\TrafficLight2.a(CyLib.o)
                0x00000720                CySysClkWriteImoFreq
 .text.CySysWdtLocked
                0x00000884       0x14 .\CortexM0\ARM_GCC_541\Debug\TrafficLight2.a(CyLFClk.o)
 .text.CySysWdtLock
                0x00000898       0x1c .\CortexM0\ARM_GCC_541\Debug\TrafficLight2.a(CyLFClk.o)
                0x00000898                CySysWdtLock
 .text.CySysWdtUnlock
                0x000008b4       0x30 .\CortexM0\ARM_GCC_541\Debug\TrafficLight2.a(CyLFClk.o)
                0x000008b4                CySysWdtUnlock
 .text.CySysWdtClearInterrupt
                0x000008e4       0x4c .\CortexM0\ARM_GCC_541\Debug\TrafficLight2.a(CyLFClk.o)
                0x000008e4                CySysWdtClearInterrupt
 .text.CySysWdtIsr
                0x00000930       0xa4 .\CortexM0\ARM_GCC_541\Debug\TrafficLight2.a(CyLFClk.o)
                0x00000930                CySysWdtIsr
 .text.Clock_PWM_Start
                0x000009d4       0x14 .\CortexM0\ARM_GCC_541\Debug\TrafficLight2.a(Clock_PWM.o)
                0x000009d4                Clock_PWM_Start
 .text.Timer_Enable
                0x000009e8       0x14 .\CortexM0\ARM_GCC_541\Debug\TrafficLight2.a(Timer.o)
                0x000009e8                Timer_Enable
 .text.Timer_SetInterruptMode
                0x000009fc        0xc .\CortexM0\ARM_GCC_541\Debug\TrafficLight2.a(Timer.o)
                0x000009fc                Timer_SetInterruptMode
 .text.Timer_ReadStatusRegister
                0x00000a08        0xc .\CortexM0\ARM_GCC_541\Debug\TrafficLight2.a(Timer.o)
                0x00000a08                Timer_ReadStatusRegister
 .text.Timer_WritePeriod
                0x00000a14        0xc .\CortexM0\ARM_GCC_541\Debug\TrafficLight2.a(Timer.o)
                0x00000a14                Timer_WritePeriod
 .text.Timer_ReadCapture
                0x00000a20        0xc .\CortexM0\ARM_GCC_541\Debug\TrafficLight2.a(Timer.o)
                0x00000a20                Timer_ReadCapture
 .text.Timer_WriteCounter
                0x00000a2c        0xc .\CortexM0\ARM_GCC_541\Debug\TrafficLight2.a(Timer.o)
                0x00000a2c                Timer_WriteCounter
 .text.Timer_ClearFIFO
                0x00000a38       0x14 .\CortexM0\ARM_GCC_541\Debug\TrafficLight2.a(Timer.o)
                0x00000a38                Timer_ClearFIFO
 .text.Timer_Init
                0x00000a4c       0x38 .\CortexM0\ARM_GCC_541\Debug\TrafficLight2.a(Timer.o)
                0x00000a4c                Timer_Init
 .text.Timer_Start
                0x00000a84       0x20 .\CortexM0\ARM_GCC_541\Debug\TrafficLight2.a(Timer.o)
                0x00000a84                Timer_Start
 .text.isr_timer_SetVector
                0x00000aa4        0xc .\CortexM0\ARM_GCC_541\Debug\TrafficLight2.a(isr_timer.o)
                0x00000aa4                isr_timer_SetVector
 .text.isr_timer_SetPriority
                0x00000ab0       0x24 .\CortexM0\ARM_GCC_541\Debug\TrafficLight2.a(isr_timer.o)
                0x00000ab0                isr_timer_SetPriority
 .text.isr_timer_Enable
                0x00000ad4        0xc .\CortexM0\ARM_GCC_541\Debug\TrafficLight2.a(isr_timer.o)
                0x00000ad4                isr_timer_Enable
 .text.isr_timer_Disable
                0x00000ae0        0xc .\CortexM0\ARM_GCC_541\Debug\TrafficLight2.a(isr_timer.o)
                0x00000ae0                isr_timer_Disable
 .text.isr_timer_StartEx
                0x00000aec       0x1c .\CortexM0\ARM_GCC_541\Debug\TrafficLight2.a(isr_timer.o)
                0x00000aec                isr_timer_StartEx
 .text.isr_button_SetVector
                0x00000b08        0xc .\CortexM0\ARM_GCC_541\Debug\TrafficLight2.a(isr_button.o)
                0x00000b08                isr_button_SetVector
 .text.isr_button_SetPriority
                0x00000b14       0x20 .\CortexM0\ARM_GCC_541\Debug\TrafficLight2.a(isr_button.o)
                0x00000b14                isr_button_SetPriority
 .text.isr_button_Enable
                0x00000b34        0xc .\CortexM0\ARM_GCC_541\Debug\TrafficLight2.a(isr_button.o)
                0x00000b34                isr_button_Enable
 .text.isr_button_Disable
                0x00000b40        0xc .\CortexM0\ARM_GCC_541\Debug\TrafficLight2.a(isr_button.o)
                0x00000b40                isr_button_Disable
 .text.isr_button_StartEx
                0x00000b4c       0x1c .\CortexM0\ARM_GCC_541\Debug\TrafficLight2.a(isr_button.o)
                0x00000b4c                isr_button_StartEx
 .text          0x00000b68       0x24 .\CortexM0\ARM_GCC_541\Debug\TrafficLight2.a(CyBootAsmGnu.o)
                0x00000b68                CyDelayCycles
                0x00000b7c                CyEnterCriticalSection
                0x00000b84                CyExitCriticalSection
 .text.__errno  0x00000b8c        0xc c:/program files (x86)/cypress/psoc creator/4.2/psoc creator/import/gnu/arm/5.4.1/bin/../lib/gcc/arm-none-eabi/5.4.1/../../../../arm-none-eabi/lib/armv6-m\libg_nano.a(lib_a-errno.o)
                0x00000b8c                __errno
 .text.__libc_init_array
                0x00000b98       0x4c c:/program files (x86)/cypress/psoc creator/4.2/psoc creator/import/gnu/arm/5.4.1/bin/../lib/gcc/arm-none-eabi/5.4.1/../../../../arm-none-eabi/lib/armv6-m\libg_nano.a(lib_a-init.o)
                0x00000b98                __libc_init_array
 .text.memset   0x00000be4       0x10 c:/program files (x86)/cypress/psoc creator/4.2/psoc creator/import/gnu/arm/5.4.1/bin/../lib/gcc/arm-none-eabi/5.4.1/../../../../arm-none-eabi/lib/armv6-m\libg_nano.a(lib_a-memset.o)
                0x00000be4                memset
 *(.plt)
 *(.gnu.warning)
 *(.glue_7t)
 .glue_7t       0x00000bf4        0x0 linker stubs
 *(.glue_7)
 .glue_7        0x00000bf4        0x0 linker stubs
 *(.vfp11_veneer)
 .vfp11_veneer  0x00000bf4        0x0 linker stubs
 *(.bootloader)
 *(.ARM.extab* .gnu.linkonce.armextab.*)
 *(.gcc_except_table)

.v4_bx          0x00000bf4        0x0
 .v4_bx         0x00000bf4        0x0 linker stubs

.iplt           0x00000bf4        0x0
 .iplt          0x00000bf4        0x0 c:/program files (x86)/cypress/psoc creator/4.2/psoc creator/import/gnu/arm/5.4.1/bin/../lib/gcc/arm-none-eabi/5.4.1/armv6-m/crtbegin.o

.eh_frame_hdr
 *(.eh_frame_hdr)

.eh_frame       0x00000bf4        0x4
 *(.eh_frame)
 .eh_frame      0x00000bf4        0x0 c:/program files (x86)/cypress/psoc creator/4.2/psoc creator/import/gnu/arm/5.4.1/bin/../lib/gcc/arm-none-eabi/5.4.1/armv6-m/crtbegin.o
 .eh_frame      0x00000bf4        0x4 c:/program files (x86)/cypress/psoc creator/4.2/psoc creator/import/gnu/arm/5.4.1/bin/../lib/gcc/arm-none-eabi/5.4.1/armv6-m/crtend.o
                [!provide]                PROVIDE (__exidx_start, .)

.ARM.exidx
 *(.ARM.exidx* .gnu.linkonce.armexidx.*)
                0x00000bf8                __exidx_end = .

.rodata         0x00000bf8      0x158
 *(.rodata .rodata.* .gnu.linkonce.r.*)
 .rodata        0x00000bf8       0xf4 .\CortexM0\ARM_GCC_541\Debug\cyfitter_cfg.o
 .rodata        0x00000cec       0x2e .\CortexM0\ARM_GCC_541\Debug\TrafficLight2.a(CyLib.o)
                0x00000cec                cyImoFreqMhz2Reg
 .rodata.str1.1
                0x00000d1a        0x2 c:/program files (x86)/cypress/psoc creator/4.2/psoc creator/import/gnu/arm/5.4.1/bin/../lib/gcc/arm-none-eabi/5.4.1/../../../../arm-none-eabi/lib/armv6-m\libg_nano.a(lib_a-impure.o)
                0x00000d1c                . = ALIGN (0x4)
 *(.init)
 .init          0x00000d1c        0x4 c:/program files (x86)/cypress/psoc creator/4.2/psoc creator/import/gnu/arm/5.4.1/bin/../lib/gcc/arm-none-eabi/5.4.1/armv6-m/crti.o
                0x00000d1c                _init
 .init          0x00000d20        0x8 c:/program files (x86)/cypress/psoc creator/4.2/psoc creator/import/gnu/arm/5.4.1/bin/../lib/gcc/arm-none-eabi/5.4.1/armv6-m/crtn.o
                0x00000d28                . = ALIGN (0x4)
                0x00000d28                __preinit_array_start = .
 *(.preinit_array)
                0x00000d28                __preinit_array_end = .
                0x00000d28                . = ALIGN (0x4)
                0x00000d28                __init_array_start = .
 *(SORT(.init_array.*))
 *(.init_array)
 .init_array    0x00000d28        0x4 c:/program files (x86)/cypress/psoc creator/4.2/psoc creator/import/gnu/arm/5.4.1/bin/../lib/gcc/arm-none-eabi/5.4.1/armv6-m/crtbegin.o
 .init_array    0x00000d2c        0x4 .\CortexM0\ARM_GCC_541\Debug\Cm0Start.o
                0x00000d30                __init_array_end = .
                0x00000d30                . = ALIGN (0x4)
 *(.fini)
 .fini          0x00000d30        0x4 c:/program files (x86)/cypress/psoc creator/4.2/psoc creator/import/gnu/arm/5.4.1/bin/../lib/gcc/arm-none-eabi/5.4.1/armv6-m/crti.o
                0x00000d30                _fini
 .fini          0x00000d34        0x8 c:/program files (x86)/cypress/psoc creator/4.2/psoc creator/import/gnu/arm/5.4.1/bin/../lib/gcc/arm-none-eabi/5.4.1/armv6-m/crtn.o
                0x00000d3c                . = ALIGN (0x4)
                0x00000d3c                __fini_array_start = .
 *(.fini_array)
 .fini_array    0x00000d3c        0x4 c:/program files (x86)/cypress/psoc creator/4.2/psoc creator/import/gnu/arm/5.4.1/bin/../lib/gcc/arm-none-eabi/5.4.1/armv6-m/crtbegin.o
 *(SORT(.fini_array.*))
                0x00000d40                __fini_array_end = .
                0x00000d40                . = ALIGN (0x4)
 *crtbegin.o(.ctors)
 *(EXCLUDE_FILE(*crtend.o) .ctors)
 *(SORT(.ctors.*))
 *crtend.o(.ctors)
                0x00000d40                . = ALIGN (0x4)
 *crtbegin.o(.dtors)
 *(EXCLUDE_FILE(*crtend.o) .dtors)
 *(SORT(.dtors.*))
 *crtend.o(.dtors)
                0x00000d40                . = ALIGN (0x4)
                0x00000d40                __cy_regions = .
                0x00000d40        0x4 LONG 0xd50 __cy_region_init_ram
                0x00000d44        0x4 LONG 0x200000c0 __cy_region_start_data
                0x00000d48        0x4 LONG 0x80 __cy_region_init_size_ram
                0x00000d4c        0x4 LONG 0x48 __cy_region_zero_size_ram
                0x00000d50                __cy_regions_end = .
                0x00000d50                . = ALIGN (0x8)
                0x00000d50                _etext = .

.cy_checksum_exclude
                0x00000d50        0x0
 *(.cy_checksum_exclude)

.ramvectors     0x20000000       0xc0
                0x20000000                __cy_region_start_ram = .
 *(.ramvectors)
 .ramvectors    0x20000000       0xc0 .\CortexM0\ARM_GCC_541\Debug\Cm0Start.o
                0x20000000                CyRamVectors

.noinit
 *(.noinit)

.data           0x200000c0       0x80 load address 0x00000d50
                0x200000c0                __cy_region_start_data = .
 *(.jcr)
 .jcr           0x200000c0        0x0 c:/program files (x86)/cypress/psoc creator/4.2/psoc creator/import/gnu/arm/5.4.1/bin/../lib/gcc/arm-none-eabi/5.4.1/armv6-m/crtbegin.o
 .jcr           0x200000c0        0x4 c:/program files (x86)/cypress/psoc creator/4.2/psoc creator/import/gnu/arm/5.4.1/bin/../lib/gcc/arm-none-eabi/5.4.1/armv6-m/crtend.o
 *(.got.plt)
 *(.got)
 *(.shdata)
 *(.data .data.* .gnu.linkonce.d.*)
 .data          0x200000c4       0x14 .\CortexM0\ARM_GCC_541\Debug\TrafficLight2.a(CyLib.o)
                0x200000c4                CySysClkPumpConfig
                0x200000c8                cydelay32kMs
                0x200000cc                cydelayFreqKhz
                0x200000d0                cydelayFreqMhz
                0x200000d4                cydelayFreqHz
 .data          0x200000d8        0x4 .\CortexM0\ARM_GCC_541\Debug\TrafficLight2.a(CyLFClk.o)
 .data.impure_data
                0x200000dc       0x60 c:/program files (x86)/cypress/psoc creator/4.2/psoc creator/import/gnu/arm/5.4.1/bin/../lib/gcc/arm-none-eabi/5.4.1/../../../../arm-none-eabi/lib/armv6-m\libg_nano.a(lib_a-impure.o)
 .data._impure_ptr
                0x2000013c        0x4 c:/program files (x86)/cypress/psoc creator/4.2/psoc creator/import/gnu/arm/5.4.1/bin/../lib/gcc/arm-none-eabi/5.4.1/../../../../arm-none-eabi/lib/armv6-m\libg_nano.a(lib_a-impure.o)
                0x2000013c                _impure_ptr
                0x20000140                . = ALIGN (0x8)
 *(.ram)
                0x20000140                _edata = .

.igot.plt       0x20000140        0x0 load address 0x00000dd0
 .igot.plt      0x20000140        0x0 c:/program files (x86)/cypress/psoc creator/4.2/psoc creator/import/gnu/arm/5.4.1/bin/../lib/gcc/arm-none-eabi/5.4.1/armv6-m/crtbegin.o

.bss            0x20000140       0x48 load address 0x00000dd0
                0x20000140                PROVIDE (__bss_start__, .)
 *(.shbss)
 *(.bss .bss.* .gnu.linkonce.b.*)
 .bss           0x20000140       0x1c c:/program files (x86)/cypress/psoc creator/4.2/psoc creator/import/gnu/arm/5.4.1/bin/../lib/gcc/arm-none-eabi/5.4.1/armv6-m/crtbegin.o
 .bss           0x2000015c        0x2 .\CortexM0\ARM_GCC_541\Debug\main.o
                0x2000015c                index_color
                0x2000015d                emergency
 .bss           0x2000015e        0x1 .\CortexM0\ARM_GCC_541\Debug\TrafficLight2.a(PWM_Red.o)
                0x2000015e                PWM_Red_initVar
 .bss           0x2000015f        0x1 .\CortexM0\ARM_GCC_541\Debug\TrafficLight2.a(PWM_Green.o)
                0x2000015f                PWM_Green_initVar
 .bss           0x20000160        0x1 .\CortexM0\ARM_GCC_541\Debug\TrafficLight2.a(PWM_Blue.o)
                0x20000160                PWM_Blue_initVar
 *fill*         0x20000161        0x3 
 .bss           0x20000164       0x20 .\CortexM0\ARM_GCC_541\Debug\TrafficLight2.a(CyLFClk.o)
 .bss           0x20000184        0x1 .\CortexM0\ARM_GCC_541\Debug\TrafficLight2.a(Timer.o)
                0x20000184                Timer_initVar
 *(COMMON)
                0x20000188                . = ALIGN (0x8)
 *fill*         0x20000185        0x3 
 *(.ram.b)
                0x20000188                _end = .
                0x20000188                __end = .
                0x20000188                PROVIDE (end, .)
                0x20000188                PROVIDE (__bss_end__, .)
                0x00000d50                __cy_region_init_ram = LOADADDR (.data)
                0x00000080                __cy_region_init_size_ram = (_edata - ADDR (.data))
                0x00000048                __cy_region_zero_size_ram = (_end - _edata)

.heap           0x20000188       0x80 load address 0x00000dd0
                0x20000188                . = _end
                0x20000208                . = (. + 0x80)
 *fill*         0x20000188       0x80 
                0x20000208                __cy_heap_limit = .

.stack          0x20000c00      0x400
                0x20000c00                __cy_stack_limit = .
                0x20001000                . = (. + 0x400)
 *fill*         0x20000c00      0x400 
                0x00000001                ASSERT ((__cy_stack_limit >= __cy_heap_limit), region RAM overflowed with stack)
                0x00000000                cy_checksum_exclude_size = (CY_APPL_LOADABLE == 0x1)?SIZEOF (.cy_checksum_exclude):0x0
                0x00000001                ASSERT ((cy_checksum_exclude_size <= CY_CHECKSUM_EXCLUDE_SIZE), CY_BOOT: Section .cy_checksum_exclude size exceedes specified limit.)
                0x00007fc0                cyloadermeta_start = (cy_project_type_bootloader || cy_project_type_app_for_stack_and_copier)?(LENGTH (rom) - CY_METADATA_SIZE):0xf0000000

.cyloadermeta
 *(.cyloadermeta)
                0x00007fc0                cyloadablemeta_start = cy_project_type_app_for_stack_and_copier?((LENGTH (rom) - CY_FLASH_ROW_SIZE) - CY_METADATA_SIZE):((LENGTH (rom) - (CY_FLASH_ROW_SIZE * (CY_APPL_NUM - 0x1))) - CY_METADATA_SIZE)

.cyloadablemeta
 *(.cyloadablemeta)

.cyflashprotect
                0x90400000       0x20
 *(.cyflashprotect)
 .cyflashprotect
                0x90400000       0x20 .\CortexM0\ARM_GCC_541\Debug\cymetadata.o
                0x90400000                cy_meta_flashprotect

.cymeta         0x90500000        0xc
 *(.cymeta)
 .cymeta        0x90500000        0xc .\CortexM0\ARM_GCC_541\Debug\cymetadata.o
                0x90500000                cy_metadata

.cychipprotect  0x90600000        0x1
 *(.cychipprotect)
 .cychipprotect
                0x90600000        0x1 .\CortexM0\ARM_GCC_541\Debug\cymetadata.o
                0x90600000                cy_meta_chipprotect

.rel.dyn        0x00000dd0        0x0 load address 0x90600004
 .rel.iplt      0x00000dd0        0x0 c:/program files (x86)/cypress/psoc creator/4.2/psoc creator/import/gnu/arm/5.4.1/bin/../lib/gcc/arm-none-eabi/5.4.1/armv6-m/crtbegin.o

.stab
 *(.stab)

.stabstr
 *(.stabstr)

.debug
 *(.debug)

.line
 *(.line)

.debug_srcinfo
 *(.debug_srcinfo)

.debug_sfnames
 *(.debug_sfnames)

.debug_aranges  0x00000000      0x9b8
 *(.debug_aranges)
 .debug_aranges
                0x00000000       0x30 .\CortexM0\ARM_GCC_541\Debug\main.o
 .debug_aranges
                0x00000030       0x38 .\CortexM0\ARM_GCC_541\Debug\cyfitter_cfg.o
 .debug_aranges
                0x00000068       0x18 .\CortexM0\ARM_GCC_541\Debug\cymetadata.o
 .debug_aranges
                0x00000080       0x48 .\CortexM0\ARM_GCC_541\Debug\Cm0Start.o
 .debug_aranges
                0x000000c8       0x40 .\CortexM0\ARM_GCC_541\Debug\TrafficLight2.a(Clock.o)
 .debug_aranges
                0x00000108      0x158 .\CortexM0\ARM_GCC_541\Debug\TrafficLight2.a(PWM_Red.o)
 .debug_aranges
                0x00000260      0x158 .\CortexM0\ARM_GCC_541\Debug\TrafficLight2.a(PWM_Green.o)
 .debug_aranges
                0x000003b8      0x158 .\CortexM0\ARM_GCC_541\Debug\TrafficLight2.a(PWM_Blue.o)
 .debug_aranges
                0x00000510      0x180 .\CortexM0\ARM_GCC_541\Debug\TrafficLight2.a(CyLib.o)
 .debug_aranges
                0x00000690      0x138 .\CortexM0\ARM_GCC_541\Debug\TrafficLight2.a(CyLFClk.o)
 .debug_aranges
                0x000007c8       0x40 .\CortexM0\ARM_GCC_541\Debug\TrafficLight2.a(Clock_PWM.o)
 .debug_aranges
                0x00000808       0x90 .\CortexM0\ARM_GCC_541\Debug\TrafficLight2.a(Timer.o)
 .debug_aranges
                0x00000898       0x80 .\CortexM0\ARM_GCC_541\Debug\TrafficLight2.a(isr_timer.o)
 .debug_aranges
                0x00000918       0x80 .\CortexM0\ARM_GCC_541\Debug\TrafficLight2.a(isr_button.o)
 .debug_aranges
                0x00000998       0x20 .\CortexM0\ARM_GCC_541\Debug\TrafficLight2.a(CyBootAsmGnu.o)

.debug_pubnames
 *(.debug_pubnames)

.debug_info     0x00000000     0x4a0d
 *(.debug_info .gnu.linkonce.wi.*)
 .debug_info    0x00000000      0x298 .\CortexM0\ARM_GCC_541\Debug\main.o
 .debug_info    0x00000298      0x3a0 .\CortexM0\ARM_GCC_541\Debug\cyfitter_cfg.o
 .debug_info    0x00000638       0xf8 .\CortexM0\ARM_GCC_541\Debug\cymetadata.o
 .debug_info    0x00000730      0x3a2 .\CortexM0\ARM_GCC_541\Debug\Cm0Start.o
 .debug_info    0x00000ad2      0x14e .\CortexM0\ARM_GCC_541\Debug\TrafficLight2.a(Clock.o)
 .debug_info    0x00000c20      0x909 .\CortexM0\ARM_GCC_541\Debug\TrafficLight2.a(PWM_Red.o)
 .debug_info    0x00001529      0x908 .\CortexM0\ARM_GCC_541\Debug\TrafficLight2.a(PWM_Green.o)
 .debug_info    0x00001e31      0x908 .\CortexM0\ARM_GCC_541\Debug\TrafficLight2.a(PWM_Blue.o)
 .debug_info    0x00002739      0xaec .\CortexM0\ARM_GCC_541\Debug\TrafficLight2.a(CyLib.o)
 .debug_info    0x00003225      0xcfe .\CortexM0\ARM_GCC_541\Debug\TrafficLight2.a(CyLFClk.o)
 .debug_info    0x00003f23      0x14e .\CortexM0\ARM_GCC_541\Debug\TrafficLight2.a(Clock_PWM.o)
 .debug_info    0x00004071      0x2ee .\CortexM0\ARM_GCC_541\Debug\TrafficLight2.a(Timer.o)
 .debug_info    0x0000435f      0x305 .\CortexM0\ARM_GCC_541\Debug\TrafficLight2.a(isr_timer.o)
 .debug_info    0x00004664      0x305 .\CortexM0\ARM_GCC_541\Debug\TrafficLight2.a(isr_button.o)
 .debug_info    0x00004969       0xa4 .\CortexM0\ARM_GCC_541\Debug\TrafficLight2.a(CyBootAsmGnu.o)

.debug_abbrev   0x00000000     0x11f0
 *(.debug_abbrev)
 .debug_abbrev  0x00000000      0x107 .\CortexM0\ARM_GCC_541\Debug\main.o
 .debug_abbrev  0x00000107      0x199 .\CortexM0\ARM_GCC_541\Debug\cyfitter_cfg.o
 .debug_abbrev  0x000002a0       0x5d .\CortexM0\ARM_GCC_541\Debug\cymetadata.o
 .debug_abbrev  0x000002fd      0x1d7 .\CortexM0\ARM_GCC_541\Debug\Cm0Start.o
 .debug_abbrev  0x000004d4       0xb7 .\CortexM0\ARM_GCC_541\Debug\TrafficLight2.a(Clock.o)
 .debug_abbrev  0x0000058b      0x119 .\CortexM0\ARM_GCC_541\Debug\TrafficLight2.a(PWM_Red.o)
 .debug_abbrev  0x000006a4      0x119 .\CortexM0\ARM_GCC_541\Debug\TrafficLight2.a(PWM_Green.o)
 .debug_abbrev  0x000007bd      0x119 .\CortexM0\ARM_GCC_541\Debug\TrafficLight2.a(PWM_Blue.o)
 .debug_abbrev  0x000008d6      0x1e0 .\CortexM0\ARM_GCC_541\Debug\TrafficLight2.a(CyLib.o)
 .debug_abbrev  0x00000ab6      0x210 .\CortexM0\ARM_GCC_541\Debug\TrafficLight2.a(CyLFClk.o)
 .debug_abbrev  0x00000cc6       0xb7 .\CortexM0\ARM_GCC_541\Debug\TrafficLight2.a(Clock_PWM.o)
 .debug_abbrev  0x00000d7d      0x12b .\CortexM0\ARM_GCC_541\Debug\TrafficLight2.a(Timer.o)
 .debug_abbrev  0x00000ea8      0x19a .\CortexM0\ARM_GCC_541\Debug\TrafficLight2.a(isr_timer.o)
 .debug_abbrev  0x00001042      0x19a .\CortexM0\ARM_GCC_541\Debug\TrafficLight2.a(isr_button.o)
 .debug_abbrev  0x000011dc       0x14 .\CortexM0\ARM_GCC_541\Debug\TrafficLight2.a(CyBootAsmGnu.o)

.debug_line     0x00000000     0x1f1c
 *(.debug_line)
 .debug_line    0x00000000      0x110 .\CortexM0\ARM_GCC_541\Debug\main.o
 .debug_line    0x00000110      0x16a .\CortexM0\ARM_GCC_541\Debug\cyfitter_cfg.o
 .debug_line    0x0000027a      0x141 .\CortexM0\ARM_GCC_541\Debug\cymetadata.o
 .debug_line    0x000003bb      0x235 .\CortexM0\ARM_GCC_541\Debug\Cm0Start.o
 .debug_line    0x000005f0       0xab .\CortexM0\ARM_GCC_541\Debug\TrafficLight2.a(Clock.o)
 .debug_line    0x0000069b      0x380 .\CortexM0\ARM_GCC_541\Debug\TrafficLight2.a(PWM_Red.o)
 .debug_line    0x00000a1b      0x382 .\CortexM0\ARM_GCC_541\Debug\TrafficLight2.a(PWM_Green.o)
 .debug_line    0x00000d9d      0x381 .\CortexM0\ARM_GCC_541\Debug\TrafficLight2.a(PWM_Blue.o)
 .debug_line    0x0000111e      0x460 .\CortexM0\ARM_GCC_541\Debug\TrafficLight2.a(CyLib.o)
 .debug_line    0x0000157e      0x466 .\CortexM0\ARM_GCC_541\Debug\TrafficLight2.a(CyLFClk.o)
 .debug_line    0x000019e4       0xaf .\CortexM0\ARM_GCC_541\Debug\TrafficLight2.a(Clock_PWM.o)
 .debug_line    0x00001a93      0x179 .\CortexM0\ARM_GCC_541\Debug\TrafficLight2.a(Timer.o)
 .debug_line    0x00001c0c      0x155 .\CortexM0\ARM_GCC_541\Debug\TrafficLight2.a(isr_timer.o)
 .debug_line    0x00001d61      0x152 .\CortexM0\ARM_GCC_541\Debug\TrafficLight2.a(isr_button.o)
 .debug_line    0x00001eb3       0x69 .\CortexM0\ARM_GCC_541\Debug\TrafficLight2.a(CyBootAsmGnu.o)

.debug_frame    0x00000000     0x18cc
 *(.debug_frame)
 .debug_frame   0x00000000       0x64 .\CortexM0\ARM_GCC_541\Debug\main.o
 .debug_frame   0x00000064       0x8c .\CortexM0\ARM_GCC_541\Debug\cyfitter_cfg.o
 .debug_frame   0x000000f0       0xbc .\CortexM0\ARM_GCC_541\Debug\Cm0Start.o
 .debug_frame   0x000001ac       0x60 .\CortexM0\ARM_GCC_541\Debug\TrafficLight2.a(Clock.o)
 .debug_frame   0x0000020c      0x3a0 .\CortexM0\ARM_GCC_541\Debug\TrafficLight2.a(PWM_Red.o)
 .debug_frame   0x000005ac      0x3a0 .\CortexM0\ARM_GCC_541\Debug\TrafficLight2.a(PWM_Green.o)
 .debug_frame   0x0000094c      0x3a0 .\CortexM0\ARM_GCC_541\Debug\TrafficLight2.a(PWM_Blue.o)
 .debug_frame   0x00000cec      0x3e0 .\CortexM0\ARM_GCC_541\Debug\TrafficLight2.a(CyLib.o)
 .debug_frame   0x000010cc      0x3a8 .\CortexM0\ARM_GCC_541\Debug\TrafficLight2.a(CyLFClk.o)
 .debug_frame   0x00001474       0x60 .\CortexM0\ARM_GCC_541\Debug\TrafficLight2.a(Clock_PWM.o)
 .debug_frame   0x000014d4      0x124 .\CortexM0\ARM_GCC_541\Debug\TrafficLight2.a(Timer.o)
 .debug_frame   0x000015f8      0x110 .\CortexM0\ARM_GCC_541\Debug\TrafficLight2.a(isr_timer.o)
 .debug_frame   0x00001708      0x110 .\CortexM0\ARM_GCC_541\Debug\TrafficLight2.a(isr_button.o)
 .debug_frame   0x00001818       0x20 c:/program files (x86)/cypress/psoc creator/4.2/psoc creator/import/gnu/arm/5.4.1/bin/../lib/gcc/arm-none-eabi/5.4.1/armv6-m\libgcc.a(_udivsi3.o)
 .debug_frame   0x00001838       0x20 c:/program files (x86)/cypress/psoc creator/4.2/psoc creator/import/gnu/arm/5.4.1/bin/../lib/gcc/arm-none-eabi/5.4.1/../../../../arm-none-eabi/lib/armv6-m\libg_nano.a(lib_a-errno.o)
 .debug_frame   0x00001858       0x28 c:/program files (x86)/cypress/psoc creator/4.2/psoc creator/import/gnu/arm/5.4.1/bin/../lib/gcc/arm-none-eabi/5.4.1/../../../../arm-none-eabi/lib/armv6-m\libg_nano.a(lib_a-exit.o)
 .debug_frame   0x00001880       0x2c c:/program files (x86)/cypress/psoc creator/4.2/psoc creator/import/gnu/arm/5.4.1/bin/../lib/gcc/arm-none-eabi/5.4.1/../../../../arm-none-eabi/lib/armv6-m\libg_nano.a(lib_a-init.o)
 .debug_frame   0x000018ac       0x20 c:/program files (x86)/cypress/psoc creator/4.2/psoc creator/import/gnu/arm/5.4.1/bin/../lib/gcc/arm-none-eabi/5.4.1/../../../../arm-none-eabi/lib/armv6-m\libg_nano.a(lib_a-memset.o)

.debug_str      0x00000000     0x1f37
 *(.debug_str)
 .debug_str     0x00000000      0x278 .\CortexM0\ARM_GCC_541\Debug\main.o
                                0x2b8 (size before relaxing)
 .debug_str     0x00000278      0x11a .\CortexM0\ARM_GCC_541\Debug\cyfitter_cfg.o
                                0x2d9 (size before relaxing)
 .debug_str     0x00000392       0x63 .\CortexM0\ARM_GCC_541\Debug\cymetadata.o
                                0x1dc (size before relaxing)
 .debug_str     0x000003f5      0x13a .\CortexM0\ARM_GCC_541\Debug\Cm0Start.o
                                0x315 (size before relaxing)
 .debug_str     0x0000052f       0xb1 .\CortexM0\ARM_GCC_541\Debug\TrafficLight2.a(Clock.o)
                                0x251 (size before relaxing)
 .debug_str     0x000005e0      0x44e .\CortexM0\ARM_GCC_541\Debug\TrafficLight2.a(PWM_Red.o)
                                0x619 (size before relaxing)
 .debug_str     0x00000a2e      0x3a8 .\CortexM0\ARM_GCC_541\Debug\TrafficLight2.a(PWM_Green.o)
                                0x66d (size before relaxing)
 .debug_str     0x00000dd6      0x380 .\CortexM0\ARM_GCC_541\Debug\TrafficLight2.a(PWM_Blue.o)
                                0x643 (size before relaxing)
 .debug_str     0x00001156      0x489 .\CortexM0\ARM_GCC_541\Debug\TrafficLight2.a(CyLib.o)
                                0x6ca (size before relaxing)
 .debug_str     0x000015df      0x52b .\CortexM0\ARM_GCC_541\Debug\TrafficLight2.a(CyLFClk.o)
                                0x751 (size before relaxing)
 .debug_str     0x00001b0a       0x9d .\CortexM0\ARM_GCC_541\Debug\TrafficLight2.a(Clock_PWM.o)
                                0x269 (size before relaxing)
 .debug_str     0x00001ba7      0x15c .\CortexM0\ARM_GCC_541\Debug\TrafficLight2.a(Timer.o)
                                0x34f (size before relaxing)
 .debug_str     0x00001d03      0x11b .\CortexM0\ARM_GCC_541\Debug\TrafficLight2.a(isr_timer.o)
                                0x336 (size before relaxing)
 .debug_str     0x00001e1e      0x119 .\CortexM0\ARM_GCC_541\Debug\TrafficLight2.a(isr_button.o)
                                0x344 (size before relaxing)

.debug_loc      0x00000000     0x22c7
 *(.debug_loc)
 .debug_loc     0x00000000      0x118 .\CortexM0\ARM_GCC_541\Debug\cyfitter_cfg.o
 .debug_loc     0x00000118      0x14f .\CortexM0\ARM_GCC_541\Debug\Cm0Start.o
 .debug_loc     0x00000267       0x13 .\CortexM0\ARM_GCC_541\Debug\TrafficLight2.a(Clock.o)
 .debug_loc     0x0000027a      0x547 .\CortexM0\ARM_GCC_541\Debug\TrafficLight2.a(PWM_Red.o)
 .debug_loc     0x000007c1      0x547 .\CortexM0\ARM_GCC_541\Debug\TrafficLight2.a(PWM_Green.o)
 .debug_loc     0x00000d08      0x547 .\CortexM0\ARM_GCC_541\Debug\TrafficLight2.a(PWM_Blue.o)
 .debug_loc     0x0000124f      0x599 .\CortexM0\ARM_GCC_541\Debug\TrafficLight2.a(CyLib.o)
 .debug_loc     0x000017e8      0x9b5 .\CortexM0\ARM_GCC_541\Debug\TrafficLight2.a(CyLFClk.o)
 .debug_loc     0x0000219d       0x13 .\CortexM0\ARM_GCC_541\Debug\TrafficLight2.a(Clock_PWM.o)
 .debug_loc     0x000021b0       0x13 .\CortexM0\ARM_GCC_541\Debug\TrafficLight2.a(Timer.o)
 .debug_loc     0x000021c3       0x82 .\CortexM0\ARM_GCC_541\Debug\TrafficLight2.a(isr_timer.o)
 .debug_loc     0x00002245       0x82 .\CortexM0\ARM_GCC_541\Debug\TrafficLight2.a(isr_button.o)

.debug_macinfo
 *(.debug_macinfo)

.debug_ranges   0x00000000      0x8b0
 *(.debug_ranges)
 .debug_ranges  0x00000000       0x20 .\CortexM0\ARM_GCC_541\Debug\main.o
 .debug_ranges  0x00000020       0x28 .\CortexM0\ARM_GCC_541\Debug\cyfitter_cfg.o
 .debug_ranges  0x00000048       0x38 .\CortexM0\ARM_GCC_541\Debug\Cm0Start.o
 .debug_ranges  0x00000080       0x30 .\CortexM0\ARM_GCC_541\Debug\TrafficLight2.a(Clock.o)
 .debug_ranges  0x000000b0      0x148 .\CortexM0\ARM_GCC_541\Debug\TrafficLight2.a(PWM_Red.o)
 .debug_ranges  0x000001f8      0x148 .\CortexM0\ARM_GCC_541\Debug\TrafficLight2.a(PWM_Green.o)
 .debug_ranges  0x00000340      0x148 .\CortexM0\ARM_GCC_541\Debug\TrafficLight2.a(PWM_Blue.o)
 .debug_ranges  0x00000488      0x170 .\CortexM0\ARM_GCC_541\Debug\TrafficLight2.a(CyLib.o)
 .debug_ranges  0x000005f8      0x128 .\CortexM0\ARM_GCC_541\Debug\TrafficLight2.a(CyLFClk.o)
 .debug_ranges  0x00000720       0x30 .\CortexM0\ARM_GCC_541\Debug\TrafficLight2.a(Clock_PWM.o)
 .debug_ranges  0x00000750       0x80 .\CortexM0\ARM_GCC_541\Debug\TrafficLight2.a(Timer.o)
 .debug_ranges  0x000007d0       0x70 .\CortexM0\ARM_GCC_541\Debug\TrafficLight2.a(isr_timer.o)
 .debug_ranges  0x00000840       0x70 .\CortexM0\ARM_GCC_541\Debug\TrafficLight2.a(isr_button.o)

.comment        0x00000000       0x6e
 .comment       0x00000000       0x6e .\CortexM0\ARM_GCC_541\Debug\main.o
                                 0x6f (size before relaxing)
 .comment       0x0000006e       0x6f .\CortexM0\ARM_GCC_541\Debug\cyfitter_cfg.o
 .comment       0x0000006e       0x6f .\CortexM0\ARM_GCC_541\Debug\cymetadata.o
 .comment       0x0000006e       0x6f .\CortexM0\ARM_GCC_541\Debug\Cm0Start.o
 .comment       0x0000006e       0x6f .\CortexM0\ARM_GCC_541\Debug\TrafficLight2.a(Clock.o)
 .comment       0x0000006e       0x6f .\CortexM0\ARM_GCC_541\Debug\TrafficLight2.a(PWM_Red.o)
 .comment       0x0000006e       0x6f .\CortexM0\ARM_GCC_541\Debug\TrafficLight2.a(PWM_Green.o)
 .comment       0x0000006e       0x6f .\CortexM0\ARM_GCC_541\Debug\TrafficLight2.a(PWM_Blue.o)
 .comment       0x0000006e       0x6f .\CortexM0\ARM_GCC_541\Debug\TrafficLight2.a(CyLib.o)
 .comment       0x0000006e       0x6f .\CortexM0\ARM_GCC_541\Debug\TrafficLight2.a(CyLFClk.o)
 .comment       0x0000006e       0x6f .\CortexM0\ARM_GCC_541\Debug\TrafficLight2.a(Clock_PWM.o)
 .comment       0x0000006e       0x6f .\CortexM0\ARM_GCC_541\Debug\TrafficLight2.a(Timer.o)
 .comment       0x0000006e       0x6f .\CortexM0\ARM_GCC_541\Debug\TrafficLight2.a(isr_timer.o)
 .comment       0x0000006e       0x6f .\CortexM0\ARM_GCC_541\Debug\TrafficLight2.a(isr_button.o)

.debug_weaknames
 *(.debug_weaknames)

.debug_funcnames
 *(.debug_funcnames)

.debug_typenames
 *(.debug_typenames)

.debug_varnames
 *(.debug_varnames)

.note.gnu.arm.ident
 *(.note.gnu.arm.ident)

.ARM.attributes
                0x00000000       0x28
 *(.ARM.attributes)
 .ARM.attributes
                0x00000000       0x1e c:/program files (x86)/cypress/psoc creator/4.2/psoc creator/import/gnu/arm/5.4.1/bin/../lib/gcc/arm-none-eabi/5.4.1/armv6-m/crti.o
 .ARM.attributes
                0x0000001e       0x2c c:/program files (x86)/cypress/psoc creator/4.2/psoc creator/import/gnu/arm/5.4.1/bin/../lib/gcc/arm-none-eabi/5.4.1/armv6-m/crtbegin.o
 .ARM.attributes
                0x0000004a       0x1b c:/program files (x86)/cypress/psoc creator/4.2/psoc creator/import/gnu/arm/5.4.1/bin/../lib/gcc/arm-none-eabi/5.4.1/../../../../arm-none-eabi/lib/armv6-m/crt0.o
 .ARM.attributes
                0x00000065       0x31 .\CortexM0\ARM_GCC_541\Debug\main.o
 .ARM.attributes
                0x00000096       0x31 .\CortexM0\ARM_GCC_541\Debug\cyfitter_cfg.o
 .ARM.attributes
                0x000000c7       0x31 .\CortexM0\ARM_GCC_541\Debug\cymetadata.o
 .ARM.attributes
                0x000000f8       0x31 .\CortexM0\ARM_GCC_541\Debug\Cm0Start.o
 .ARM.attributes
                0x00000129       0x31 .\CortexM0\ARM_GCC_541\Debug\TrafficLight2.a(Clock.o)
 .ARM.attributes
                0x0000015a       0x31 .\CortexM0\ARM_GCC_541\Debug\TrafficLight2.a(PWM_Red.o)
 .ARM.attributes
                0x0000018b       0x31 .\CortexM0\ARM_GCC_541\Debug\TrafficLight2.a(PWM_Green.o)
 .ARM.attributes
                0x000001bc       0x31 .\CortexM0\ARM_GCC_541\Debug\TrafficLight2.a(PWM_Blue.o)
 .ARM.attributes
                0x000001ed       0x31 .\CortexM0\ARM_GCC_541\Debug\TrafficLight2.a(CyLib.o)
 .ARM.attributes
                0x0000021e       0x31 .\CortexM0\ARM_GCC_541\Debug\TrafficLight2.a(CyLFClk.o)
 .ARM.attributes
                0x0000024f       0x31 .\CortexM0\ARM_GCC_541\Debug\TrafficLight2.a(Clock_PWM.o)
 .ARM.attributes
                0x00000280       0x31 .\CortexM0\ARM_GCC_541\Debug\TrafficLight2.a(Timer.o)
 .ARM.attributes
                0x000002b1       0x31 .\CortexM0\ARM_GCC_541\Debug\TrafficLight2.a(isr_timer.o)
 .ARM.attributes
                0x000002e2       0x31 .\CortexM0\ARM_GCC_541\Debug\TrafficLight2.a(isr_button.o)
 .ARM.attributes
                0x00000313       0x21 .\CortexM0\ARM_GCC_541\Debug\TrafficLight2.a(CyBootAsmGnu.o)
 .ARM.attributes
                0x00000334       0x1e c:/program files (x86)/cypress/psoc creator/4.2/psoc creator/import/gnu/arm/5.4.1/bin/../lib/gcc/arm-none-eabi/5.4.1/armv6-m\libgcc.a(_udivsi3.o)
 .ARM.attributes
                0x00000352       0x1e c:/program files (x86)/cypress/psoc creator/4.2/psoc creator/import/gnu/arm/5.4.1/bin/../lib/gcc/arm-none-eabi/5.4.1/armv6-m\libgcc.a(_dvmd_tls.o)
 .ARM.attributes
                0x00000370       0x2c c:/program files (x86)/cypress/psoc creator/4.2/psoc creator/import/gnu/arm/5.4.1/bin/../lib/gcc/arm-none-eabi/5.4.1/../../../../arm-none-eabi/lib/armv6-m\libg_nano.a(lib_a-errno.o)
 .ARM.attributes
                0x0000039c       0x2c c:/program files (x86)/cypress/psoc creator/4.2/psoc creator/import/gnu/arm/5.4.1/bin/../lib/gcc/arm-none-eabi/5.4.1/../../../../arm-none-eabi/lib/armv6-m\libg_nano.a(lib_a-exit.o)
 .ARM.attributes
                0x000003c8       0x2c c:/program files (x86)/cypress/psoc creator/4.2/psoc creator/import/gnu/arm/5.4.1/bin/../lib/gcc/arm-none-eabi/5.4.1/../../../../arm-none-eabi/lib/armv6-m\libg_nano.a(lib_a-impure.o)
 .ARM.attributes
                0x000003f4       0x2c c:/program files (x86)/cypress/psoc creator/4.2/psoc creator/import/gnu/arm/5.4.1/bin/../lib/gcc/arm-none-eabi/5.4.1/../../../../arm-none-eabi/lib/armv6-m\libg_nano.a(lib_a-init.o)
 .ARM.attributes
                0x00000420       0x2c c:/program files (x86)/cypress/psoc creator/4.2/psoc creator/import/gnu/arm/5.4.1/bin/../lib/gcc/arm-none-eabi/5.4.1/../../../../arm-none-eabi/lib/armv6-m\libg_nano.a(lib_a-memset.o)
 .ARM.attributes
                0x0000044c       0x2c c:/program files (x86)/cypress/psoc creator/4.2/psoc creator/import/gnu/arm/5.4.1/bin/../lib/gcc/arm-none-eabi/5.4.1/armv6-m/crtend.o
 .ARM.attributes
                0x00000478       0x1e c:/program files (x86)/cypress/psoc creator/4.2/psoc creator/import/gnu/arm/5.4.1/bin/../lib/gcc/arm-none-eabi/5.4.1/armv6-m/crtn.o

/DISCARD/
 *(.note.GNU-stack)
OUTPUT(D:\Documentos\UNIVERSIDAD\TFG\CY8CKIT-042 Code Examples\PSoC4\PWM\TrafficLight2.cydsn\CortexM0\ARM_GCC_541\Debug\TrafficLight2.elf elf32-littlearm)
