:400000000080002011000000550500005505000008B5044B1A6803F53F5302331A6000F0B9FA00BFFA46004010B5054C237833B9044B13B10448AFF300800123237010BD10
:400040008081FF1F000000005C300000084B10B51BB108490848AFF300800848036803B910BD074B002BFBD0BDE81040184700BF000000008481FF1F5C300000C880FF1F7A
:4000800000000000034B1A78D2431A7000225A70704700BF9C81FF1F704700BF0000000070B5002450E0204600F014FF0022324B00F076FF26A3D3E9002300F0BFFD01F083
:4000C00081F985B2284600F005FF23A3D3E9002300F066FF22A3D3E9002300F0AFFD22A3D3E9002300F05CFF00F052FD01F06AF9C6B2A80000F0EEFE0022204B01F07AF845
:4001000001F080F91E4B586000F0F6FE00221D4B00F046FF02460B4600201B4901F06AF813A3D3E9002300F03BFF00F031FD01F049F980B2154B1880154B23F8246003EBFA
:40014000840358800134E4B2142CACD9002070BDABAAAAAAAAAA504091FDDF390B54243FD5678B50C803B33F0000000000E06F400000000080842E4100003E4000004E406C
:400180009C81FF1F000018400000F03F0882FF1FB881FF1F08B5084A13780133DBB21370062B02D90122044B1A70044B1B7A0BB100F0D0FC002008BDCC80FF1F9C81FF1FB2
:4001C00038B5FFF76DFF134B187800F0F7FA124B187800F04DFA4FF47A7000F0A3FA012411E0FFF7D7FF0B4B187800F0E7FA0A4D15F8240000F03CFA05EB8405688800F063
:40020000A7FA0134E4B2142CEBD90122034B5A70002038BDCC80FF1FB881FF1F9C81FF1F08B562B6002000F0C9FA00F06BFA00F081FB00F0C9FB00F033FC064800F0FAFB93
:40024000054800F01FFC054B1B780BB1FFF7B8FFFEE700BF85000000990000009C81FF1FFEE700BFF0B40022174611E050F82760F3B226F0FF0608E001EB420511F8124020
:400280006D78A5550132013BDBB2002BF4D101371D2FEBD9F0BC704708B50A46002101F038F908BDF8B51A4B1B78DBB2194E3478E4B2194F3D78EDB203F00701174A11703F
:4002C0001B090132137044F00303337045F003033B70F022124B1A708023124A1370402211490A7002310A700E21104A11700121043211705C32137020220D4B1A700A20C1
:4003000000F026FA3D70347044220A4B1A70F8BDCF010049F8460040F94600406E5800401D5100403D51004009590040C85A00402B5B00407658004008B501F0DFF808BDA8
:4003400038B507222F4B1A8018232F4A13704FF49C71023211800232137004222B492C48FFF7EAFF02222B4B1A7008224FF040231A70032103F500731970274B1B78DBB23F
:4003800026490B70264B1A8041F25122023B1A80002419250CE0234B1B7803F0010343EA440404F003044FF4F07000F0E1FB013D0DB1032CEFD115B90320FFF751FF1A4B1F
:4003C0004FF480721A8007221A70002217490A704820023108701A700222033B1A7004220A331A70124A137843F003031370013A137843F001031370013A137843F080036A
:40040000137038BD80400040824000405C060048004100400043004008010049A146004022420040254200400440004006400040A243004038B572B6324A137843F004034B
:40044000137000240CE0304D630019194A0011462A44084691882858FFF71EFF0134E4B2072CF0D929494FF09040FFF7FBFE40F20312274B1A80274A137843F0020313708D
:400480001032137843F002031370234C237843F040032370A2F58632513A137843F01003137008221D491E48FFF746FF0A221D491D48FFF741FF08221C491D48FFF73CFFF0
:4004C00008221C491C48FFF737FF08221B491C48FFF732FF1B4A137843F0080313701A4D61232B70FFF72CFF81232B700122174B1A70FFF7D7FE0E2221461548FFF71CFF4E
:4005000038BD00BFE846004060300000780000484A58004003500140A0430040300600480251004038060048C051004044060048125100404C0600482251004054060048A4
:4005400032510040224300400048004004000840B043004008B500F0A5FF03680C2B00D1FEE7FEE708B5094B1A681044084BC31AB3F5006F02DC054B186005E000F092FF44
:400580000C2303604FF0FF32104608BDD080FF1F2082FF1F08B5104E104D16E029686B68AC68002204E051F8040B43F8040B0432A242F8D1E868002203E0002143F8041BAF
:4005C00004328242F9D11035013E002EE6D100F06FFFFFF725FEFEE701000000E431000008B5104A104B1A60104A136843F40073136000230AE0032B03D80D4A52F8231094
:4006000000E00C490C4A42F8231001332F2BF2D90A4B1A780A4B1A70074A0A4B1A60FFF709FF08BD0004FA050CED00E014ED00E000000000550500000080FF1FBC76004099
:40064000C080FF1F08ED00E0024A137843F080031370704775650040014B1870704700BF06640040014B1870704700BF46640040014B1870704700BF26640040014B187056
:40068000704700BF86640040014B1878704700BF66640040014B1878704700BF5664004008B501E0FFF7F6FFFFF7EEFF10F0100FF8D108BD10B5114A137803F0C00343F045
:4006C0000B0313700E4C237843F001032370FF20FFF7C2FFFF20FFF7C5FF0920FFF7C8FF0020FFF7CBFF00F04BFA237843F01003237000F049FAFFF7D3FF10BD75650040AA
:400700009664004008B5054B1B7823B9FFF7D2FF0122024B1A70FFF797FF08BDA581FF1F01BE704710B5044605E0084B186800F01FFAA4F50044B4F5004FF6D8034B5868B6
:4007400000FB04F000F014FA10BD00BFD480FF1F08B5034B1B7A00FB03F000F009FA08BDD480FF1F70B504460E46074B1D681F2802D90020FFF7D4FF04F01F04103455F889
:40078000240045F8246070BD08ED00E038B504460D46072902D90020FFF7C2FF1F2C02D90020FFF7BDFF04F01F0000F1604000F564406D01EDB2057038BD00BF014B1870A7
:4007C000704700BF7865004008B50A280FD00C2802D0082806D102E04FF4805209E04FF4807206E00020FFF79BFF002201E04FF480620021094B198042F2107303FB02F300
:4008000003F6C413064A82FB0302DB17C3EBE223044A1360044B198008BD00BF1282FF1FAD8BDB680C82FF1F1082FF1F10B500F0A7F904461E4A137843F00203137010322C
:40084000137843F0020313701A3A137843F0010313701032137843F00103137002F5AA521A32137843F0030313701822114B1A70013B1A7842F040021A701A7802F0FC021E
:400880001A70C822053B1A700222A3F59753123B1A70094A137843F0080313700A20FFF757FF0122054B1A60204600F06DF910BDAB4300400E5900402F5B004080E200E011
:4008C00010B504460A280DD00C2802D0082804D101E0C22207E0422205E00020FFF720FFC22200E08222034B1A702046FFF76CFF10BD00BF0A59004008B5102000F02AF870
:4009000007210020FFF742FF07490020FFF72AFF064A137843F0060313700820FFF7D0FF0022034B1A8008BD51090000095900401482FF1F08B5054B1B7823B9FFF7DCFF56
:400940000122024B1A70FFF771FF08BDA681FF1F704700BF034B1A7800F0F80010431870704700BF024100407222084B1A70202201331A700622A3F263131A704722103321
:400980001A70002203F24D131A7070478965004010B500F0F5F804460A4A137843F0200313700132137843F010031370063A137843F01003137000F015F8204600F0E4F8D9
:4009C00010BD00BF9965004008B5054B1B7823B9FFF7CAFF0122024B1A70FFF7D9FF08BDA781FF1F054A137843F0020313701032137843F002031370704700BFA243004067
:400A0000014B1B685864704708ED00E04001C0B2014B1870704700BF01E400E00222014B1A60704700E100E00222014B1A60704780E100E010B50446FFF7F6FF2046FFF743
:400A4000DFFF0720FFF7E2FFFFF7E8FF10BD00BF014B1B689864704708ED00E04001C0B2014B1870704700BF02E400E00422014B1A60704700E100E00422014B1A60704710
:400A800080E100E010B50446FFF7F6FF2046FFF7DFFF0720FFF7E2FFFFF7E8FF10BD00BF084A137843F0010313701032137843F00103137002F64D32137843F00103137080
:400AC000704700BFA3430040014B1870704700BF034F0040014B1880704700BF044F0040014B1880704700BF064F004008B5164A137803F0010313700232137803F0FC03CF
:400B00001370124B1A7802F0CF021A701A7842F030021A701A7802F0F0021A701A7842F00F021A700A4A137843F0010313704FF6FF70FFF7CFFF4FF6FF70FFF7D1FF00206C
:400B4000FFF7C2FF08BD00BF004F00400B4F0040014F004008B5054B1B7823B9FFF7C6FF0122024B1A70FFF79BFF08BDA981FF1F0230800803D000BF01380046FCD1704764
:400B8000EFF3108072B6704780F31088704700BFF8B5C1F30A56A6F2FF35132D0A460B460446864611DC002D2EDB0F461F4929410A4225D04FF400232B413B4423EA0103F2
:400BC0000026194634462046F8BD332D05DDB5F5806F1FD011462046F8BDA6F213464FF0FF3121FA06F63042F4D00122C5F1330502FA05F52D1828BF9B1825EA0606E0E72A
:400C00000028D7D11146E6E7013501F0004307D00026D6E702460B4600F010F80446D2E743F07F5343F440130026CAE7FFFF0F0081F0004102E000BF83F0004330B54FEA6E
:400C400041044FEA430594EA050F08BF90EA020F1FBF54EA000C55EA020C7FEA645C7FEA655C00F0E2804FEA5454D4EB5555B8BF6D420CDD2C4480EA020281EA030382EA9C
:400C8000000083EA010180EA020281EA0303362D88BF30BD11F0004F4FEA01314FF4801C4CEA113102D0404261EB410113F0004F4FEA03334CEA133302D0524263EB430324
:400CC00094EA050F00F0A780A4F10104D5F1200E0DDB02FA0EFC22FA05F2801841F1000103FA0EF2801843FA05F359410EE0A5F120050EF1200E012A03FA0EFC28BF4CF062
:400D0000020C43FA05F3C01851EBE37101F0004507D54FF0000EDCF1000C7EEB00006EEB0101B1F5801F1BD3B1F5001F0CD349085FEA30004FEA3C0C04F101044FEA445221
:400D400012F5800F80F09A80BCF1004F08BF5FEA500C50F1000041EB045141EA050130BD5FEA4C0C404141EB010111F4801FA4F10104E9D191F0000F04BF01460020B1FA5E
:400D800081F308BF2033A3F10B03B3F120020CDA0C3208DD02F1140CC2F10C0201FA0CF021FA02F10CE002F11402D8BFC2F1200C01FA02F120FA0CFCDCBF41EA0C0190403D
:400DC000E41AA2BF01EB0451294330BD6FEA04041F3C1CDA0C340EDC04F11404C4F1200220FA04F001FA02F340EA030021FA04F345EA030130BDC4F10C04C4F1200220FA27
:400E000002F001FA04F340EA0300294630BD21FA04F0294630BD94F0000F83F4801306BF81F480110134013D4EE77FEA645C18BF7FEA655C29D094EA050F08BF90EA020FC3
:400E400005D054EA000C04BF1946104630BD91EA030F1EBF0021002030BD5FEA545C05D14000494128BF41F0004130BD14F580043CBF01F5801130BD01F0004545F0FE41D1
:400E800041F470014FF0000030BD7FEA645C1ABF194610467FEA655C1CBF0B46024650EA013406BF52EA033591EA030F41F4002130BD00BF90F0000F04BF0021704730B5C5
:400EC0004FF4806404F132044FF000054FF0000150E700BF90F0000F04BF0021704730B54FF4806404F1320410F0004548BF40424FF000013EE700BF42004FEAE2014FEA3C
:400F000031014FEA02701FBF12F07F4393F07F4F81F06051704792F0000F14BF93F07F4F704730B54FF4607401F0004521F0004120E700BF50EA010208BF704730B54FF073
:400F400000050AE050EA010208BF704730B511F0004502D5404261EB41014FF4806404F132045FEA915C3FF4DCAE4FF003025FEADC0C18BF03325FEADC0C18BF033202EBC5
:400F8000DC02C2F1200300FA03FC20FA02F001FA03FE40EA0E0021FA02F11444C1E600BF70B54FF0FF0C4CF4E06C1CEA11541DBF1CEA135594EA0C0F95EA0C0F00F0DEF8CF
:400FC0002C4481EA030621EA4C5123EA4C5350EA013518BF52EA033541F4801143F4801338D0A0FB02CE4FF00005E1FB02E506F00042E0FB03E54FF00006E1FB03569CF0F3
:40100000000F18BF4EF0010EA4F1FF04B6F5007F64F5407404D25FEA4E0E6D4146EB060642EAC62141EA55514FEAC52040EA5E504FEACE2EB4F1FD0C88BFBCF5E06F1ED84E
:40104000BEF1004F08BF5FEA500E50F1000041EB045170BD06F0004646EA010140EA020081EA0301B4EB5C04C2BFD4EB0C0541EA045170BD41F480114FF0000E013C00F3CC
:40108000AB8014F1360FDEBF002001F0004170BDC4F10004203C35DA0C341BDC04F11404C4F1200500FA05F320FA04F001FA05F240EA020001F0004221F0004110EBD3707C
:4010C00021FA04F642EB06015EEA430E08BF20EAD37070BDC4F10C04C4F1200500FA04F320FA05F001FA04F240EA020001F0004110EBD37041F100015EEA430E08BF20EA04
:40110000D37070BDC4F1200500FA05F24EEA020E20FA04F301FA05F243EA020321FA04F001F0004121FA04F220EA020000EBD3705EEA430E08BF20EAD37070BD94F0000FFE
:401140000FD101F00046400041EB010111F4801F08BF013CF7D041EA060195F0000F18BF704703F00046520043EB030313F4801F08BF013DF7D043EA0603704794EA0C0F70
:401180000CEA135518BF95EA0C0F0CD050EA410618BF52EA4306D1D181EA030101F000414FF0000070BD50EA410606BF1046194652EA430619D094EA0C0F02D150EA0136B2
:4011C00013D195EA0C0F05D152EA03361CBF104619460AD181EA030101F0004141F0FE4141F470014FF0000070BD41F0FE4141F4780170BD70B54FF0FF0C4CF4E06C1CEA4C
:4012000011541DBF1CEA135594EA0C0F95EA0C0F00F0A7F8A4EB050481EA030E52EA03354FEA013100F088804FEA03334FF0805545EA131343EA12634FEA022245EA111526
:4012400045EA10654FEA00260EF000419D4208BF964244F1FD0404F5407402D25B084FEA3202B61A65EB03055B084FEA32024FF480104FF4002CB6EB020E75EB030E22BFEA
:40128000B61A754640EA0C005B084FEA3202B6EB020E75EB030E22BFB61A754640EA5C005B084FEA3202B6EB020E75EB030E22BFB61A754640EA9C005B084FEA3202B6EBF4
:4012C000020E75EB030E22BFB61A754640EADC0055EA060E18D04FEA051545EA16754FEA06164FEAC30343EA52734FEAC2025FEA1C1CC0D111F4801F0BD141EA00014FF073
:4013000000004FF0004CB6E711F4801F04BF01430020B4F1FD0C88BFBCF5E06F3FF6AFAEB5EB030C04BFB6EB020C5FEA500C50F1000041EB045170BD0EF0004E4EEA1131B8
:4013400014EB5C04C2BFD4EB0C0541EA045170BD41F480114FF0000E013C90E645EA060E8DE60CEA135594EA0C0F08BF95EA0C0F3FF43BAF94EA0C0F0AD150EA01347FF4C9
:4013800034AF95EA0C0F7FF425AF104619462CE795EA0C0F06D152EA03353FF4FDAE1046194622E750EA410618BF52EA43067FF4C5AE50EA41047FF40DAF52EA43057FF4B8
:4013C000EBAE12E74A0011D212F5001211D20DD56FF47873B3EB62520ED44FEAC12343F0004343EA505323FA02F070474FF00000704750EA013002D14FF0FF3070474FF00D
:40140000000070474FEA4102B2F1E04324BFB3F5001CDCF1FE5C0DD901F0004C4FEAC0024CEA5070B2F1004F40EB830008BF20F00100704711F0804F21D113F13872BCBFB7
:4014400001F00040704741F480114FEA5252C2F11802C2F1200C10FA0CF320FA02F018BF40F001004FEAC1234FEAD32303FA0CFC40EA0C0023FA02F34FEA4303CCE77FEAE4
:40148000625307D150EA01331EBF4FF0FE4040F44000704701F0004040F0FE4040F40000704700BF014B1868704700BF4481FF1F0E4B70B51E460E4C0025E41AA410A54244
:4014C00004D056F8253098470135F8E701F078FE084B094C1E46E41AA4100025A54204D056F8253098470135F8E770BDCC310000CC310000CC310000D431000010B5431E96
:401500000A44914204D011F8014B03F8014FF8E710BD03460244934202D003F8011BFAE770472DE9F04788B0149F002B1E461299B8BF03F1004327F02007B6BF1E4600232B
:401540002D23462F1446109DDDF84CA00B7003D0452F03D1013501E0032300E0022307AA049206AA03928DE828042246334600F0B7FB472F804602D1119BDB0728D5462F47
:4015800008EB050911D198F80030302B0AD1002200232046314601F0F1FC18B9C5F10105CAF80050DAF800309944002200232046314601F0E3FC08B9302202E0CDF81C907C
:4015C00006E0079B994503D9591C07911A70F8E74046079B159AC8EB0303136008B0BDE8F087034673B50029B8BF494203F8022BB4BF2D222B22092942701ADD0DF10702A7
:4016000016460A2591FBF5F405FB1411092C01F1300102F8011D2146F4DC3031541E02F8011CB4421A460AD214F8012B03F8012BF7E71A463024214402F8024B5970101A32
:4016400002B070BD2DE9F04F91B00C46DDF8688016461F46054601F0DBF803681846099300F0AAFA00230E93D8F800300A90073323F0070303F1080294F81890D4F800B0BA
:40168000C8F80020D3E90023C4E91223D4F84CA0D4F848802AF000430B934FF0FF32A74B40460B9901F09CFCA0B94FF0FF32A34B40460B9901F076FC60B900220023404605
:4016C000514601F065FC10B12D2384F843309C4B9C4A0AE0424653464046514601F080FC002800F09281984B984AB9F1470F8CBF90469846032323612BF0040323604FF022
:40170000000A3DE0B9F1670F00F08A81B9F1470F00F0868123600193636800210DF13302059002920093424653460691CDF81090CDF80CE02846FFF7F4FE09F0DF03472B0D
:40174000804600F08481B9F1650F0D9900F28D8101394A4604F150000D91FFF742FF0E9A82468318012A236100F37C812268D10700F178819DF8333013B12D2384F8433015
:40178000009733460FAA2146284600F09FF9013002D14FF0FF3096E123685A0501D4236965E0B9F1650F40F2D580D4E912010022002301F0E3FB78B30123654A314628461E
:4017C000B8470130E5D00E9B0D9A9A420BDB2368D80708D423689B0740F111814FF0000804F1190906E10A9B099A31462846B8470130CED04FF0000804F11A090E9B013B38
:401800009845E7DA01234A4631462846B8470130BFD008F10108F1E70D9B002B29DC01234B4A31462846B8470130B2D00D9B23B90E9B13B92368D907CCD50A9B099A3146EC
:401840002846B8470130A4D04FF0000904F11A0A0D9B5B42994509DA0123524631462846B847013095D009F10109F1E70E9B4246A7E00E9AA36D9A42A8BF1A46002A9146C9
:4018800006DC4FF0000A29EAE97904F11A0B11E01346314642462846B8470130F1D178E701235A4631462846B84701303FF471AF0AF1010AA36DC9EB03029245F0DB08EBD6
:4018C00003090D9A0E9B9A420FDB2368DA070CD40E9B0D9A9844C9EB08089B1A9845A8BF9846B8F1000F08DC0FE00A9B099A31462846B8470130EBD14BE743464A4631464D
:401900002846B84701303FF444AF4FF0000928EAE87804F11A0A09E00123524631462846B84701303FF435AF09F101090D9A0E9B9B1AC8EB03039945EEDB4BE7FFFFEF7F38
:4019400092300000963000009A3000009E300000A23000000E9A012A01DCDB0738D50123424631462846B84701303FF412AF0A9B099A31462846B84701303FF40AAFD4E91B
:4019800012010022002301F0F9FA20B14FF0000804F11A090EE00E9B08F10102013B19E001234A4631462846B84701303FF4F1AE08F101080E9B013B9845F1DB534604F13A
:4019C000500231462846B84701307FF403AFE0E64246012331462846B8470130EED1D8E601234A4631462846B84701303FF4D1AE08F10108E3680F9A9B1A9845F0DBE06841
:401A00000F9B9842B8BF18465DE062680EA8531C0DF1340E4BF480637FF474AE062201E012B90122626075E6002106910DF133018DE80C00236005904246CDF81090CDF8E1
:401A40000CE0029153462846FFF76BFD80460D9BD81C02DB626893421DDDA9F102095FFA89F970E60133236184E6B9F1660F14D10029636807DD216113B92268D2071DD533
:401A800001330B4419E013B92268D00701D5023313E0012311E04FF067090D9B0E9A934205DB22682361D10708D5013305E0002BD4BFC3F102030123134423610D9B4FF07D
:401AC000000AA36556E611B0BDE8F08F2DE9F04791461F460A698B6806469342B8BF1346C9F8003091F843200C46DDF8208012B10133C9F800302368990642BFD9F800301B
:401B00000233C9F80030256815F0060510D104F1190A07E00123524639463046C04701301AD00135E368D9F800209B1A9D42F1DB94F843302268003318BF012392060FD52A
:401B4000E118302081F843005A1C94F845102244023382F8431003E04FF0FF30BDE8F08704F1430239463046C0470130F4D02268D9F80050E36802F00602042A08BF5D1BAC
:401B80002269A3680CBF25EAE57500259342C4BF9B1AED184FF000091A344D4509D00123224639463046C0470130D5D009F10109F3E70020BDE8F087034613F8012B002A01
:401BC000FBD1181A013870472DE9F74F03690C6980469C427FDC013C01F114074FEA840E00F1140606EB0E0357F82450019356F824300135B3FBF5F507EB0E09C5B34FF012
:401C0000000A3846B446D34650F8043B9AB205FB02A21B0C4FEA124A05FB03A392B2C2EB0B0BBCF800204FEA134A5A441FFA83FBDCF800308145CBEB134303EB224392B21D
:401C400042EA03424FEA234B4CF8042BDCD256F80E306BB9019B043B9E421A4602D3C8F8104005E01268043B002AF8D1013CF3E7404600F0E6FF00282BDB304601354FF05F
:401C8000000E57F8042B036891B2C1EB0E0E120C99B27144C2EB134303EB214389B24FEA234EB94541EA034340F8043BE9D256F8242006EB840362B9043B9E421A4602D3B0
:401CC000C8F8104005E01268043B002AF8D1013CF3E7284600E0002003B0BDE8F08F00002DE9F04F456A95B08246219CCDE9022345B9102000F090FDCAF824004560856023
:401D00000560C560DAF82430196859B15A68012393404A608B60504600F0BBFDDAF8243000221A60039BA04A002BBDBF01232360039B0023BCBF23F000430393DDF80C80BB
:401D4000A8BF236028F000431B0D1B0593421DD142F20F73209A1360029B43B9934A944BC8F31300002814BF1846104600E09048229B002B00F04685C37813B100F1080308
:401D800000E0C31C229A136000F03CBDDDE90245002200232046294601F0F0F8074658B1209A01231360229B002B00F01E8581481860013800F026BD12AB019313AB00933B
:401DC00022462B46504600F0B7FFC8F30A56049056B1C5F3130343F07F51204641F44011A6F2FF3611971DE0139B129E1E4406F23243202B0ADD029A06F21240C3F14003AD
:401E000022FA00F008FA03F3184304E0C3F12000029B03FA00F0FFF74DF80123A1F1F871013E11930022644BFEF706FF58A3D3E90023FFF7B5F858A3D3E90023FEF7FEFEB1
:401E4000044630460D46FFF745F855A3D3E90023FFF7A6F802460B4620462946FEF7EEFE04460D4601F0D2F80022834600232046294601F08DF858B15846FFF72BF80246A9
:401E80000B462046294601F079F808B90BF1FF3BBBF1160F0DD8DDE90223484901EBCB01D1E9000101F092F830B10BF1FF3B002300E00123109300E01090129B9E1B731E2B
:401EC000079343BFC3F10008002307934FF00008BBF1000F06DB079BCDF82CB05B440793002705E00023CBEB0808CBF100070B931E9B092B28D8052BC4BF043B1E931E9BCF
:401F0000C8BF0025A3F10203D8BF0125032B20D8DFE803F0060E0204012302E0012308E000230A931F9B002B1DDD9946059321E000230A931F9B0BEB030909F10103012BD6
:401F40000593B8BF012315E0012500231E930A9501E001230A934FF0FF390022CDF8149012231F9206E04FF001094B46CDF81490CDF87C90DAF8244000226260042101F1EB
:401F800014029A421CD86268490001326260F6E761436F63A787D23FB3C8608B288AC63FFB799F501344D33F0000F07FA4300000AD300000A33000000000F83FC03000009E
:401FC0006168504600F030FCDAF8243020601B680693059B0E2B00F25B81002D00F05881DDE90234BBF1000FCDE90E3430DD9F4A0BF00F034FEA2B1502EBC303E80618CB58
:40200000CDE908340CD5DDE90E01994B05F00F05D3E90823FFF7EEF80324CDE9020100E00224934E6DB1E90708D5DDE90801D6E90023FEF7B5FFCDE9080101346D1008368D
:40204000F0E7DDE90823DDE90201FFF7D3F820E0CBF1000505B3DDE90E01844B05F00F0203EBC203D3E90023FEF79AFFCDE902017F4E2D110023022455B1EA0705D5D6E92E
:402080000023FEF78DFF013401236D100836F3E71BB1CDE9020100E00224109BE3B1DDE902560022734B2846314600F071FF98B1059B8BB1B9F1000F40F3E6800BF1FF33DC
:4020C0000893314600226C4B2846FEF769FF0134CDE902014E4602E0059ECDF820B02046FEF7F8FEDDE90223FEF75AFF634B0022FEF7A4FDA1F1507304460C931D46D6B96E
:40210000DDE9020100225E4BFEF796FD22460C9BCDE9020100F05AFF002840F03F820C99224601F10043DDE9020100F031FF002840F02B82A8E00A9A4C4B711E002A49D094
:4021400003EBC103D3E9002300204E49FFF752F822462B46FEF770FDCDE90C01069CDDE9020100F053FF0546FEF7B4FE02460B46DDE90201FEF760FDDDE90C23303504F830
:40218000015BCDE9020100F003FF002840F01D83DDE9022300203749FEF74EFDDDE90C2300F0F6FE002840F0D180069BE31AB3426ADADDE90C0100222F4BFEF7F1FE002287
:4021C000CDE90C01DDE902012B4BFEF7E9FECDE90201C4E703EBC1012246D1E900012B46FEF7DEFE069BCDE90C011D469C19DDE9020100F00BFF0646FEF76CFE02460B4605
:40220000DDE90201FEF718FD303605F8016BAC42CDE902014FF0000222D11A4BDDE90C01FEF70CFD02460B46DDE9020100F0CEFE002840F08B80DDE90C2300201149FEF706
:40224000FBFC02460B46DDE9020100F0A1FED8B114F8013C621E302B40F0B7821446F7E7054BFEF79DFECDE90201C0E7C0300000983100000000F03F0000244000001C4040
:40228000000014400000E03FDDE90E34CDE90234139B002B7CDBBBF10E0F79DCAB4B03EBCB03D3E900671F9B002B14DA059B002B11DC40F06C810022A54B30463946FEF7F0
:4022C0006FFEDDE9022300F077FE059D2E46002840F05F8165E1069CDDE9028932463B4640464946FEF786FF00F090FE0546FEF7F1FD32463B46FEF753FE0B4602464946FF
:402300004046FEF799FC05F1300E069B04F801EBC3EB040E059B73452DD102460B46FEF78DFC8046894602460B463046394600F02FFE78B942464B463046394600F01EFE18
:40234000002800F04482EB0704D440E2DDF820B000E01C4614F8012C631E392A07D1069A9A42F6D1069930220BF1010B0A701A7801321A702BE20022764BFEF711FE00229C
:4023800000238046894600F0F9FD0028A6D01EE20A9A002A2BD01E9A012A0ADC119A12B103F2334302E0129BC3F136033D46444613E0059B5D1EAF42BFBF0B9BEA1B9B1812
:4023C0000B93059BB6BF2F467D1B0025002BA7BF4446059BC3EB08040023079A01211A4450469844079200F0F3FA064602E03D4644460A9E5CB1079B002B08DDA342A8BF69
:402400002346079AC3EB0808E41AD31A0793002F1DDD0A9BABB18DB131462A46504600F071FB049A01460646504600F0DAFA04990890504600F02DFA089B04937A1B06D0FC
:4024400000E03A460499504600F05CFB04900121504600F0BDFA0B9B05465BB31A460146504600F04FFB1E9B0546012B18DC029B83B9039BC3F3130373B9039B23F000478E
:402480003F0D3F054FB1079B08F1010801330793012702E0002700E0029F0B9B73B100E000272B6905EB8303186900F044FAC0F1200004E01E9B012BD9DD0B9F0120079B21
:4024C000184410F01F0008D0C0F12003042B02DDC0F11C0002E006D018461C30079B8044034404440793B8F1000F05DD42460499504600F055FB0490079B002B05DD2946A2
:402500001A46504600F04CFB0546109B23B32946049800F096FB00281EDA00230A220499504600F0CDF90A9B0BF1FF3B0490002B00F05F81314600230A22504600F0C0F94F
:40254000B9F1000F06463FDC3BE000BFC03000000000144000002440059B002B2BDC1E9B022B28DDDDF81490B9F1000F11D129464B460522504600F0A3F901460546049871
:4025800000F05FFB00280CDC03E0354600E000252E461F9B069C6FEA030B09E03546DDF820B0069B069A5C1C312313700BF1010B05960026F7E00A9BDDF8149023B9069C52
:4025C000B2E01E9B022BCFDC002C05DD31462246504600F0E5FA06469FB17168504600F023F90446326906F10C01023292000C30FEF784FF01222146504600F0D1FA05907C
:4026000000E00596029B069F03F00103079329460498FFF7D9FA3146044600F13008049800F00FFB059A02902946504600F025FBC36802463BB901460A90049800F001FBE2
:402640000A9A034600E00123114650460A9300F020F90A9B53B91E9A42B9079A32B9B8F1390F2AD0029B002B1CDC1DE0029A002A04DB1BD11E9ACAB9079ABAB9002B13DD43
:4026800001220499504600F08BFA2946049000F0D8FA002803DC07D118F0010F04D0B8F1390F0AD004F131087C1C0CE0002B07F101040BDDB8F1390F03D139233B7001372E
:4026C00056E008F1010887F800806CE0069B2746E31A4B4504F8018C3BD000230A220499504600F0EDF8059B04909E424FF00A024FF000033146504604D100F0E1F8064639
:40270000059084E700F0DCF8002306460A220599504600F0D5F8059079E700230A220499504600F0CDF8049029460498FFF74CFA069B00F1300804F8018BE31A4B45ECDB9C
:40274000069B0596B9F1010FACBF4B4401331F46002601220499504600F022FA2946049000F06FFA002803DC15D118F0010F12D03C4614F8013C621E392B09D1069B934206
:4027800004D10BF1010B3123069A02E01446F0E70133137007E03C4614F8013C621E302B01D11446F8E72946504600F072F8059B6BB12EB19E4203D03146504600F069F8DB
:4027C0000599504600F065F801E0DDF820B00499504600F05EF80023209A23700BF101031360229B1BB11C6001E008480AE0069808E0B9F1000F3FF7E2AE1E9B022B7FF7F5
:40280000DEAEB1E615B0BDE8F08F00BFA2300000004870474881FF1F024B0146186800F0E7BA00BF4481FF1F70B5456A04460E463DB91020FFF7F0FF6062456085600560A0
:40284000C560656AEB6843B1636ADB6853F8260078B1026843F8262017E021220421204600F0B8FA636AE860DB68002BECD1002070BD012101FA06F56A1D9200204600F00D
:40288000A9FA0028F3D04660856000230361C36070BD70B5446A06460D463CB91020FFF7BBFF7062446084600460C4603DB1736A6A68DB6853F82210296043F8225070BD3F
:4028C0002DE9F04106460C460D691F4601F1140E0023DEF80000013381B202FB0171000C0F0C02FB007089B201EB00419D424FEA10474EF8041BECDCD7B1A3689D4212DB3E
:40290000616830460131FFF78FFF8046226904F10C01023292000C30FEF7F0FD21463046FFF7B7FF444604EB850301355F6125612046BDE8F081030C1B0413B900041023B8
:4029400000E0002310F07F4F04BF0002083310F0704F04BF0001043310F0404F04BF80000233002803DB420003D5581C70471846704720207047036813F007020BD0D9073C
:4029800022D49A074BBF5B089B08036003604CBF01200220704799B209B91B0C102213F0FF0F04BF1B0A0832190704BF1B090432990704BF9B080232D90702D45B0805D0A7
:4029C0000132036010467047002070472020704710B50C460121FFF727FF01224461026110BD2DE9F74F14460A69236988469A42BEBF0B46A0461C46D8F81070D4F81090E8
:402A0000D8F80830D8F8041007EB09069E42C8BF0131FFF709FF00F114052B4605EB860C0022634502D243F8042BFAE704F1140208F1140102EB890301EB87070093009BF2
:402A40000192934257D9B2F800B0BBF1000F23D08946AE464FF0000859F8044BBEF800A0A3B20BFB03A34FEA144ADEF8004043444FEA14480BFB0A84F24604EB13449BB28D
:402A800043EA04434F454FEA14484AF8043B01D9D646E1E7CEF80480019B0432B3F802A0BAF1000F21D02C4689462B684FF00008B9F800E0B4F802B09BB20AFB0EBEA34615
:402AC000F04443EA08434BF8043B59F8043BB4F804E01B0C0AFB03E34F4503EB18434FEA134801D95C46E3E763600435A7E75CF8043D13B9013E002EF9DC066103B0BDE8D3
:402B0000F08F00002DE9F843154612F0030206460F4607D0214C013A002354F82220FFF7CFFE0746AD1036D0746A3CB91020FFF773FE7062446084600460C460D6F8248001
:402B4000D8F808404CB940F271213046FFF740FF04460023C8F8080003604FF00008EB070AD5394622463046FFF73BFF814639463046FFF78EFE4F466D100CD0206808B11F
:402B80000446ECE7224621463046FFF72AFF2060C0F80080F4E73846BDE8F883883100002DE9F0470C460746914626694FEA621A56444968A368751CAB4202DA01315B0066
:402BC000FAE73846FFF730FE002380461A4600F11401534503DA41F823200133F9E72AEAEA73206901EB830319F01F0904F1140101EB800E14D0C9F1200C002208689A46A1
:402C000000FA09F0024343F8042B51F8042B8E4522FA0CF2F2D8CAF8042042B1B51C06E0043B51F8042B8E4543F8042FF9D8013D3846C8F810502146FFF72BFE4046BDE8DD
:402C4000F08703690A6910B59B1A11D192001430143183180A4453F8044D52F8041D8C4202D007D3012010BD9842F4D3002010BD184610BD4FF0FF3010BD2DE9F8430C4698
:402C80000746114620461546FFF7DBFF061E08D131463846FFF7C8FD012303614661BDE8F883BCBF23462C4638466168BABF1D4601260026FFF7B8FD2B69C660266905F133
:402CC000140904F1140101EB860709EB830800F114054FF0000C51F8042B59F8044B93B29C44A3B2240CC3EB0C03C4EB124202EB23429BB24FEA224CC84543EA02428E4646
:402D000045F8042BE7D8BE450ED25EF8041B8AB26244131403EB114392B242EA03424FEA234C45F8042BEEE755F8043D0BB9013EFAE70661BDE8F8832DE9F3411C46012160
:402D40009046089E099DFFF76FFDC4F31302C4F30A5407460CB142F480120192B8F1000F19D002A840F8088DFFF705FE009B48B1019AC0F1200102FA01F10B43C2407B615D
:402D8000019200E07B61019B002B14BF02210121BB61396107E001A8FFF7EDFD019B01217B613961203034B1A4F2334404443460C0F1350009E0A0F2324007EB8103306094
:402DC0001869FFF7B8FDC0EB41102860384602B0BDE8F08138B502FB01F4214600F008F8054618B122460021FEF793FB284638BD70B5CD1C25F0030508350C2D38BF0C255B
:402E0000002D064601DBA94202D90C23336046E000F05CF8234B1C681A462146A1B10B685B1B0ED40B2B03D90B60CC18CD501EE08C420BBF63684B681360636018BF0C4684
:402E400015E00C464968E9E7174C23681BB9304600F02CF820602946304600F027F8431C18D0C41C24F00304A0420DD12560304600F02DF804F10B00231D20F00700C31A84
:402E80000ED05A42E25070BD211A304600F00EF80130EBD10C233360304600F018F8002070BD00BFB081FF1FAC81FF1F38B5064C0023054608462360FDF754FB431C02D1D4
:402EC000236803B12B6038BD1882FF1F704770474FF0FF3C06E000BF4FF0010C02E000BF4FF0010C4DF804CD4FEA410C7FEA6C5C4FEA430C18BF7FEA6C5C1BD001B050EA62
:402F0000410C0CBF52EA430C91EA030F02BF90EA020F0020704710F1000F91EA030F58BF994208BF90422CBFD8176FEAE37040F0010070474FEA410C7FEA6C5C02D150EAE4
:402F4000013C07D14FEA430C7FEA6C5CD6D152EA033CD3D05DF8040B704700BF8446104662468C461946634600E000BF01B5FFF7B7FF002848BF10F1000F01BD4DF808ED0A
:402F8000FFF7F4FF0CBF012000205DF808FB00BF4DF808EDFFF7EAFF34BF012000205DF808FB00BF4DF808EDFFF7E0FF94BF012000205DF808FB00BF4DF808EDFFF7CEFFEA
:402FC00094BF012000205DF808FB00BF4DF808EDFFF7C4FF34BF012000205DF808FB00BF4FEA410C7FEA6C5C02D150EA013C0AD14FEA430C7FEA6C5C02D152EA033C02D132
:403000004FF0000070474FF0010070474FEA410212F5001215D211D56FF47873B3EB625212D94FEAC12343F0004343EA505311F0004F23FA02F018BF404270474FF00000A5
:40304000704750EA013005D111F0004008BF6FF0004070474FF00000704700BF00000000004F00400C00405100403000F0510040100000000140001000140140000800402A
:403080000140000A004C014000020050014020004300494E4600696E66004E414E006E616E003000496E66696E697479004E614E00504F534958002E0000000000000000D6
:4030C000000000000000F03F000000000000244000000000000059400000000000408F40000000000088C34000000000006AF8400000000080842E4100000000D01263416F
:403100000000000084D797410000000065CDCD41000000205FA00242000000E876483742000000A2941A6D42000040E59C30A2420000901EC4BCD64200003426F56B0C4377
:403140000080E03779C3414300A0D8855734764300C84E676DC1AB43003D9160E458E143408CB5781DAF154450EFE2D6E41A4B4492D54D06CFF08044F64AE1C7022DB544A1
:40318000B49DD9794378EA4405000000190000007D000000000000000080E03779C34143176E05B5B5B89346F5F93FE9034F384D321D30F94877825A3CBF737FDD4F157569
:4031C000F8B500BFF8BC08BC9E4670474D000000E1050000F8B500BFF8BC08BC9E46704729000000F8310000C880FF1FB8000000A00000000000000000000000010000008D
:403200002082FF1F0000E02EC05D00001800000000366E01000000000000000000000000000000000000000000000000000000000000000090300000000000000000000026
:4032400000000000000000000000000000000000000000000000000000000000000000000000000000000000000000000000000000000000E480FF1FB7300000B8300000FD
:40328000B8300000B8300000B8300000B8300000B8300000B8300000B8300000B8300000FFFFFFFFFFFFFFFFFFFFFFFFFFFF000000000000000000000000000000000000DC
:4032C00000000000000000000000000000000000000000000000000000000000000000000000000000000000000000000000000000000000000000000000000000000000CE
:40330000000000000000000000000000000000000000000000000000000000000000000000000000000000000000000000000000000000000000000000000000000000008D
:40334000000000000000000000000000000000000000000000000000000000000000000000000000000000000000000000000000000000000000000000000000000000004D
:40338000000000000000000000000000000000000000000000000000000000000000000000000000000000000000000000000000000000000000000000000000000000000D
:020000040003F7
:0200000480007A
:40000000024F004008520040015A0040016400400365004002050140650601403507014001090140010B0140591401404F150140171701404518014034190140531A014008
:40004000501B0140034001400641014008420140034301400445014002460140044701400A480140104901400A4C01400B4D0140055001400151014001800A3600010101CD
:40008000086009201831191361806440CF04860D840F89728A388201EA0301040401050408100A080B200C030D03100811011210130214031C101E0822042324250A27116A
:4000C0002C182D092F1230013103320233183418352036043704382039023E103F114010410645D046204710483A49FF4AFF4BFF4DA04F0450185405580459045A045B04DD
:400100005F01604062C06440654066C068C06AC06CC06EC08C358E0A900C91019203A013A22CA301A42AA615A80FAC30AD01B030B20CB403B701B802B980BE01BF40C002F7
:40014000C704C9FFCA07CBFFCC40CD20CEF0CF05D008D804D904DA04DD01DF01E040E1A8E240E3200302050406090A400C420D081061118013221401168019011A181C4077
:400180001D241F40224025402601272828412C222E0A2F42330237023D883F22400446024D014F2051105204550C560157115C405D015F088A048D20A601C0E1C2B8C49F8D
:4001C000CAD9CC81CEF0D014D220D6D0E640E080EA03041105140606080C0A130B200D090E0C0F1013031411156C160E171119701B0C2210255C2613270229102A08301005
:40020000311F320F356039203A083E013F1040324106450B46EC480D49FF4AFF4BFF4EF04F44500C5401580459045A045B045C115D115F0166C06A406B028011820E8603EA
:40024000872089808B1590039328940C95439734982999439A069B1CA034A103A209A304A92AAB54B030B1C0B203B338B40CB50FB820B902BB28BE10D280D804D904DB046A
:40028000DC10DF01022203080501072009040C200D080E4010841214144019041A801B081C201E401F202004220124802504262A2704280429042B042C802F083229362A04
:4002C000388039303A103B043D103F08411043044A084B045080531059085A805B127680850887128C808F30912094049642984099019A049B209E80A020A108A410AC10E2
:40030000B148C037C274C41ECAA6CCE7CE6ED006D204D60FE240E402E609E808EA20EC10EE088101821083028460860191209210940496409A049B209C409E80A140A42025
:40034000A702A901B640E001E206E402E608EA1000070501060108010A060C060E0118061A011C04240228063007330138203A023E103F04580459045B045C015F018001BC
:40038000811085188623883389088A0C8C1F8D1F8E20903F911C93019402951C9702983C9A039B039C039D04A008A320A404A704A80CA907AB18AF20B010B40FB51FB62C53
:4003C000B720BA20BB20BE01BF40D602D713D804D904DB04DC11DD10DF01004001200390044005200640071009280A480B4A0C800D2010801328172819A11C481F022120CA
:400400002280260429A62A803204339238283A423B403E08590169446B046D086E206F0170947202732881048340861887018D108F01C0FFC2CFC46ECA0FCC0FCE4FD6011E
:40044000E001001401020203031404320506060C08280A020B010E301030140E150417121A301F012030240E25062A302B08303032013306340E350137183F50406241053D
:400480004204440145C046E0480A49FF4AFF4BFF4C624DA04EF04F41500C5418580459045A045B045C115D115F016640670269106A306B106D106E106F1285018D019202B6
:4004C00093029402950198029902A401AB02AD02B102B202B301B401B808B902BA02BE14D804D904DC11DF0100640202038008080A400B080D100E200F801106120814101F
:40050000180419151E401F282021210823042608275029182E402F04310833403408352836023704380239043B203D4440014280431049A2531059815A40628063048204C2
:400540008308841087208C018D218F80904091649308964099209A809B049D169F10A294A340A508A780B004B110C00FC27EC42ECA36CCEACE57D00DD20CD601D80CE404C5
:40058000E808EA20EC30EE0833213720CC7050045D809F21A720D420D620800494089D80A720AB20AF01E680EAC08D809D80A72003041304C002C408AB04AF043C01890250
:4005C000CE01E001251065209A01A201A720AA01B601C820D880EA2056015B405E02660283408E029A01A201AF20B120B510D480D6A0D880E680EE101F805B045E016502E6
:40060000830494019902C601D603D8011280700180018E80AE01AF80B401C408DC01E202EC0800030A0310031A031C02003F000000030300030000008000408080008000FE
:4006400000000000000B0B0000E0F000040000000000000000333300330080001300180100000000000000000000000000000000000000000000000000000000000000004B
:40068000000000000000000000000000000000000000000000000000000000000000000000000000000000000000000000000000000000000000000000000000000000003A
:4006C00000000000000000000000000000000000000000000000000000000000000000000000000000000000000000000000000000000000000000000000000000000000FA
:4007000000000000000000000000000000000000000000000000000000000000000000000000000000000000000000000000000000000000000000000000000000000000B9
:400740000000000000000000000000000000000000000000000000000000000000000000000000000000000000000000000000000000000000000000000000000000000079
:0200000490006A
:0400000000004005B7
:0200000490105A
:04000000BC90ACAF55
:0200000490303A
:0200000065C5D4
:0200000490402A
:4000000000000000000000000000000000000000000000000000000000000000000000000000000000000000000000000000000000000000000000000000000000000000C0
:400040000000000000000000000000000000000000000000000000000000000000000000000000000000000000000000000000000000000000000000000000000000000080
:400080000000000000000000000000000000000000000000000000000000000000000000000000000000000000000000000000000000000000000000000000000000000040
:4000C0000000000000000000000000000000000000000000000000000000000000000000000000000000000000000000000000000000000000000000000000000000000000
:0200000490501A
:0C00000000012E16106900012E2B762E38
:00000001FF