ARM GAS  C:\Users\JOSEAN~1\AppData\Local\Temp\cc3Po8rn.s 			page 1


   1              		.syntax unified
   2              		.cpu cortex-m3
   3              		.fpu softvfp
   4              		.eabi_attribute 20, 1
   5              		.eabi_attribute 21, 1
   6              		.eabi_attribute 23, 3
   7              		.eabi_attribute 24, 1
   8              		.eabi_attribute 25, 1
   9              		.eabi_attribute 26, 1
  10              		.eabi_attribute 30, 6
  11              		.eabi_attribute 34, 1
  12              		.eabi_attribute 18, 4
  13              		.thumb
  14              		.file	"Counter.c"
  15              		.text
  16              	.Ltext0:
  17              		.cfi_sections	.debug_frame
  18              		.global	Counter_initVar
  19              		.bss
  20              		.type	Counter_initVar, %object
  21              		.size	Counter_initVar, 1
  22              	Counter_initVar:
  23 0000 00       		.space	1
  24              		.section	.text.Counter_Init,"ax",%progbits
  25              		.align	2
  26              		.global	Counter_Init
  27              		.thumb
  28              		.thumb_func
  29              		.type	Counter_Init, %function
  30              	Counter_Init:
  31              	.LFB0:
  32              		.file 1 ".\\Generated_Source\\PSoC5\\Counter.c"
   1:.\Generated_Source\PSoC5/Counter.c **** /*******************************************************************************
   2:.\Generated_Source\PSoC5/Counter.c **** * File Name: Counter.c  
   3:.\Generated_Source\PSoC5/Counter.c **** * Version 3.0
   4:.\Generated_Source\PSoC5/Counter.c **** *
   5:.\Generated_Source\PSoC5/Counter.c **** *  Description:
   6:.\Generated_Source\PSoC5/Counter.c **** *     The Counter component consists of a 8, 16, 24 or 32-bit counter with
   7:.\Generated_Source\PSoC5/Counter.c **** *     a selectable period between 2 and 2^Width - 1.  
   8:.\Generated_Source\PSoC5/Counter.c **** *
   9:.\Generated_Source\PSoC5/Counter.c **** *   Note:
  10:.\Generated_Source\PSoC5/Counter.c **** *     None
  11:.\Generated_Source\PSoC5/Counter.c **** *
  12:.\Generated_Source\PSoC5/Counter.c **** ********************************************************************************
  13:.\Generated_Source\PSoC5/Counter.c **** * Copyright 2008-2012, Cypress Semiconductor Corporation.  All rights reserved.
  14:.\Generated_Source\PSoC5/Counter.c **** * You may use this file only in accordance with the license, terms, conditions, 
  15:.\Generated_Source\PSoC5/Counter.c **** * disclaimers, and limitations in the end user license agreement accompanying 
  16:.\Generated_Source\PSoC5/Counter.c **** * the software package with which this file was provided.
  17:.\Generated_Source\PSoC5/Counter.c **** *******************************************************************************/
  18:.\Generated_Source\PSoC5/Counter.c **** 
  19:.\Generated_Source\PSoC5/Counter.c **** #include "Counter.h"
  20:.\Generated_Source\PSoC5/Counter.c **** 
  21:.\Generated_Source\PSoC5/Counter.c **** uint8 Counter_initVar = 0u;
  22:.\Generated_Source\PSoC5/Counter.c **** 
  23:.\Generated_Source\PSoC5/Counter.c **** 
  24:.\Generated_Source\PSoC5/Counter.c **** /*******************************************************************************
  25:.\Generated_Source\PSoC5/Counter.c **** * Function Name: Counter_Init
ARM GAS  C:\Users\JOSEAN~1\AppData\Local\Temp\cc3Po8rn.s 			page 2


  26:.\Generated_Source\PSoC5/Counter.c **** ********************************************************************************
  27:.\Generated_Source\PSoC5/Counter.c **** * Summary:
  28:.\Generated_Source\PSoC5/Counter.c **** *     Initialize to the schematic state
  29:.\Generated_Source\PSoC5/Counter.c **** * 
  30:.\Generated_Source\PSoC5/Counter.c **** * Parameters:  
  31:.\Generated_Source\PSoC5/Counter.c **** *  void  
  32:.\Generated_Source\PSoC5/Counter.c **** *
  33:.\Generated_Source\PSoC5/Counter.c **** * Return: 
  34:.\Generated_Source\PSoC5/Counter.c **** *  void
  35:.\Generated_Source\PSoC5/Counter.c **** *
  36:.\Generated_Source\PSoC5/Counter.c **** *******************************************************************************/
  37:.\Generated_Source\PSoC5/Counter.c **** void Counter_Init(void) 
  38:.\Generated_Source\PSoC5/Counter.c **** {
  33              		.loc 1 38 0
  34              		.cfi_startproc
  35              		@ args = 0, pretend = 0, frame = 8
  36              		@ frame_needed = 1, uses_anonymous_args = 0
  37 0000 80B5     		push	{r7, lr}
  38              		.cfi_def_cfa_offset 8
  39              		.cfi_offset 7, -8
  40              		.cfi_offset 14, -4
  41 0002 82B0     		sub	sp, sp, #8
  42              		.cfi_def_cfa_offset 16
  43 0004 00AF     		add	r7, sp, #0
  44              		.cfi_def_cfa_register 7
  39:.\Generated_Source\PSoC5/Counter.c ****         #if (!Counter_UsingFixedFunction && !Counter_ControlRegRemoved)
  40:.\Generated_Source\PSoC5/Counter.c ****             uint8 ctrl;
  41:.\Generated_Source\PSoC5/Counter.c ****         #endif /* (!Counter_UsingFixedFunction && !Counter_ControlRegRemoved) */
  42:.\Generated_Source\PSoC5/Counter.c ****         
  43:.\Generated_Source\PSoC5/Counter.c ****         #if(!Counter_UsingFixedFunction) 
  44:.\Generated_Source\PSoC5/Counter.c ****             /* Interrupt State Backup for Critical Region*/
  45:.\Generated_Source\PSoC5/Counter.c ****             uint8 Counter_interruptState;
  46:.\Generated_Source\PSoC5/Counter.c ****         #endif /* (!Counter_UsingFixedFunction) */
  47:.\Generated_Source\PSoC5/Counter.c ****         
  48:.\Generated_Source\PSoC5/Counter.c ****         #if (Counter_UsingFixedFunction)
  49:.\Generated_Source\PSoC5/Counter.c ****             /* Clear all bits but the enable bit (if it's already set for Timer operation */
  50:.\Generated_Source\PSoC5/Counter.c ****             Counter_CONTROL &= Counter_CTRL_ENABLE;
  51:.\Generated_Source\PSoC5/Counter.c ****             
  52:.\Generated_Source\PSoC5/Counter.c ****             /* Clear the mode bits for continuous run mode */
  53:.\Generated_Source\PSoC5/Counter.c ****             #if (CY_PSOC5A)
  54:.\Generated_Source\PSoC5/Counter.c ****                 Counter_CONTROL2 &= ((uint8)(~Counter_CTRL_MODE_MASK));
  55:.\Generated_Source\PSoC5/Counter.c ****             #endif /* (CY_PSOC5A) */
  56:.\Generated_Source\PSoC5/Counter.c ****             #if (CY_PSOC3 || CY_PSOC5LP)
  57:.\Generated_Source\PSoC5/Counter.c ****                 Counter_CONTROL3 &= ((uint8)(~Counter_CTRL_MODE_MASK));                
  58:.\Generated_Source\PSoC5/Counter.c ****             #endif /* (CY_PSOC3 || CY_PSOC5LP) */
  59:.\Generated_Source\PSoC5/Counter.c ****             /* Check if One Shot mode is enabled i.e. RunMode !=0*/
  60:.\Generated_Source\PSoC5/Counter.c ****             #if (Counter_RunModeUsed != 0x0u)
  61:.\Generated_Source\PSoC5/Counter.c ****                 /* Set 3rd bit of Control register to enable one shot mode */
  62:.\Generated_Source\PSoC5/Counter.c ****                 Counter_CONTROL |= Counter_ONESHOT;
  63:.\Generated_Source\PSoC5/Counter.c ****             #endif /* (Counter_RunModeUsed != 0x0u) */
  64:.\Generated_Source\PSoC5/Counter.c ****             
  65:.\Generated_Source\PSoC5/Counter.c ****             /* Set the IRQ to use the status register interrupts */
  66:.\Generated_Source\PSoC5/Counter.c ****             Counter_CONTROL2 |= Counter_CTRL2_IRQ_SEL;
  67:.\Generated_Source\PSoC5/Counter.c ****             
  68:.\Generated_Source\PSoC5/Counter.c ****             /* Clear and Set SYNCTC and SYNCCMP bits of RT1 register */
  69:.\Generated_Source\PSoC5/Counter.c ****             Counter_RT1 &= ((uint8)(~Counter_RT1_MASK));
  70:.\Generated_Source\PSoC5/Counter.c ****             Counter_RT1 |= Counter_SYNC;     
ARM GAS  C:\Users\JOSEAN~1\AppData\Local\Temp\cc3Po8rn.s 			page 3


  71:.\Generated_Source\PSoC5/Counter.c ****                     
  72:.\Generated_Source\PSoC5/Counter.c ****             /*Enable DSI Sync all all inputs of the Timer*/
  73:.\Generated_Source\PSoC5/Counter.c ****             Counter_RT1 &= ((uint8)(~Counter_SYNCDSI_MASK));
  74:.\Generated_Source\PSoC5/Counter.c ****             Counter_RT1 |= Counter_SYNCDSI_EN;
  75:.\Generated_Source\PSoC5/Counter.c **** 
  76:.\Generated_Source\PSoC5/Counter.c ****         #else
  77:.\Generated_Source\PSoC5/Counter.c ****             #if(!Counter_ControlRegRemoved)
  78:.\Generated_Source\PSoC5/Counter.c ****             /* Set the default compare mode defined in the parameter */
  79:.\Generated_Source\PSoC5/Counter.c ****             ctrl = Counter_CONTROL & ((uint8)(~Counter_CTRL_CMPMODE_MASK));
  45              		.loc 1 79 0
  46 0006 1C4B     		ldr	r3, .L2
  47 0008 1B78     		ldrb	r3, [r3]
  48 000a DBB2     		uxtb	r3, r3
  49 000c 23F00703 		bic	r3, r3, #7
  50 0010 FB71     		strb	r3, [r7, #7]
  80:.\Generated_Source\PSoC5/Counter.c ****             Counter_CONTROL = ctrl | Counter_DEFAULT_COMPARE_MODE;
  51              		.loc 1 80 0
  52 0012 194B     		ldr	r3, .L2
  53 0014 FA79     		ldrb	r2, [r7, #7]
  54 0016 42F00102 		orr	r2, r2, #1
  55 001a D2B2     		uxtb	r2, r2
  56 001c 1A70     		strb	r2, [r3]
  81:.\Generated_Source\PSoC5/Counter.c ****             
  82:.\Generated_Source\PSoC5/Counter.c ****             /* Set the default capture mode defined in the parameter */
  83:.\Generated_Source\PSoC5/Counter.c ****             ctrl = Counter_CONTROL & ((uint8)(~Counter_CTRL_CAPMODE_MASK));
  57              		.loc 1 83 0
  58 001e 164B     		ldr	r3, .L2
  59 0020 1B78     		ldrb	r3, [r3]
  60 0022 DBB2     		uxtb	r3, r3
  61 0024 23F00303 		bic	r3, r3, #3
  62 0028 FB71     		strb	r3, [r7, #7]
  84:.\Generated_Source\PSoC5/Counter.c ****             
  85:.\Generated_Source\PSoC5/Counter.c ****             #if( 0 != Counter_CAPTURE_MODE_CONF)
  86:.\Generated_Source\PSoC5/Counter.c ****                 Counter_CONTROL = ctrl | Counter_DEFAULT_CAPTURE_MODE;
  87:.\Generated_Source\PSoC5/Counter.c ****             #else
  88:.\Generated_Source\PSoC5/Counter.c ****                 Counter_CONTROL = ctrl;
  63              		.loc 1 88 0
  64 002a 134B     		ldr	r3, .L2
  65 002c FA79     		ldrb	r2, [r7, #7]
  66 002e 1A70     		strb	r2, [r3]
  89:.\Generated_Source\PSoC5/Counter.c ****             #endif /* 0 != Counter_CAPTURE_MODE */ 
  90:.\Generated_Source\PSoC5/Counter.c ****             
  91:.\Generated_Source\PSoC5/Counter.c ****             #endif /* (!Counter_ControlRegRemoved) */
  92:.\Generated_Source\PSoC5/Counter.c ****         #endif /* (Counter_UsingFixedFunction) */
  93:.\Generated_Source\PSoC5/Counter.c ****         
  94:.\Generated_Source\PSoC5/Counter.c ****         /* Clear all data in the FIFO's */
  95:.\Generated_Source\PSoC5/Counter.c ****         #if (!Counter_UsingFixedFunction)
  96:.\Generated_Source\PSoC5/Counter.c ****             Counter_ClearFIFO();
  67              		.loc 1 96 0
  68 0030 FFF7FEFF 		bl	Counter_ClearFIFO
  97:.\Generated_Source\PSoC5/Counter.c ****         #endif /* (!Counter_UsingFixedFunction) */
  98:.\Generated_Source\PSoC5/Counter.c ****         
  99:.\Generated_Source\PSoC5/Counter.c ****         /* Set Initial values from Configuration */
 100:.\Generated_Source\PSoC5/Counter.c ****         Counter_WritePeriod(Counter_INIT_PERIOD_VALUE);
  69              		.loc 1 100 0
  70 0034 0420     		movs	r0, #4
  71 0036 FFF7FEFF 		bl	Counter_WritePeriod
ARM GAS  C:\Users\JOSEAN~1\AppData\Local\Temp\cc3Po8rn.s 			page 4


 101:.\Generated_Source\PSoC5/Counter.c ****         #if (!(Counter_UsingFixedFunction && (CY_PSOC5A)))
 102:.\Generated_Source\PSoC5/Counter.c ****             Counter_WriteCounter(Counter_INIT_COUNTER_VALUE);
  72              		.loc 1 102 0
  73 003a 0020     		movs	r0, #0
  74 003c FFF7FEFF 		bl	Counter_WriteCounter
 103:.\Generated_Source\PSoC5/Counter.c ****         #endif /* (!(Counter_UsingFixedFunction && (CY_PSOC5A))) */
 104:.\Generated_Source\PSoC5/Counter.c ****         Counter_SetInterruptMode(Counter_INIT_INTERRUPTS_MASK);
  75              		.loc 1 104 0
  76 0040 0020     		movs	r0, #0
  77 0042 FFF7FEFF 		bl	Counter_SetInterruptMode
 105:.\Generated_Source\PSoC5/Counter.c ****         
 106:.\Generated_Source\PSoC5/Counter.c ****         #if (!Counter_UsingFixedFunction)
 107:.\Generated_Source\PSoC5/Counter.c ****             /* Read the status register to clear the unwanted interrupts */
 108:.\Generated_Source\PSoC5/Counter.c ****             (void)Counter_ReadStatusRegister();
  78              		.loc 1 108 0
  79 0046 FFF7FEFF 		bl	Counter_ReadStatusRegister
 109:.\Generated_Source\PSoC5/Counter.c ****             /* Set the compare value (only available to non-fixed function implementation */
 110:.\Generated_Source\PSoC5/Counter.c ****             Counter_WriteCompare(Counter_INIT_COMPARE_VALUE);
  80              		.loc 1 110 0
  81 004a 0320     		movs	r0, #3
  82 004c FFF7FEFF 		bl	Counter_WriteCompare
 111:.\Generated_Source\PSoC5/Counter.c ****             /* Use the interrupt output of the status register for IRQ output */
 112:.\Generated_Source\PSoC5/Counter.c ****             
 113:.\Generated_Source\PSoC5/Counter.c ****             /* CyEnterCriticalRegion and CyExitCriticalRegion are used to mark following region cri
 114:.\Generated_Source\PSoC5/Counter.c ****             /* Enter Critical Region*/
 115:.\Generated_Source\PSoC5/Counter.c ****             Counter_interruptState = CyEnterCriticalSection();
  83              		.loc 1 115 0
  84 0050 FFF7FEFF 		bl	CyEnterCriticalSection
  85 0054 0346     		mov	r3, r0
  86 0056 BB71     		strb	r3, [r7, #6]
 116:.\Generated_Source\PSoC5/Counter.c ****             
 117:.\Generated_Source\PSoC5/Counter.c ****             Counter_STATUS_AUX_CTRL |= Counter_STATUS_ACTL_INT_EN_MASK;
  87              		.loc 1 117 0
  88 0058 084B     		ldr	r3, .L2+4
  89 005a 084A     		ldr	r2, .L2+4
  90 005c 1278     		ldrb	r2, [r2]
  91 005e D2B2     		uxtb	r2, r2
  92 0060 42F01002 		orr	r2, r2, #16
  93 0064 D2B2     		uxtb	r2, r2
  94 0066 1A70     		strb	r2, [r3]
 118:.\Generated_Source\PSoC5/Counter.c ****             
 119:.\Generated_Source\PSoC5/Counter.c ****             /* Exit Critical Region*/
 120:.\Generated_Source\PSoC5/Counter.c ****             CyExitCriticalSection(Counter_interruptState);
  95              		.loc 1 120 0
  96 0068 BB79     		ldrb	r3, [r7, #6]	@ zero_extendqisi2
  97 006a 1846     		mov	r0, r3
  98 006c FFF7FEFF 		bl	CyExitCriticalSection
 121:.\Generated_Source\PSoC5/Counter.c ****             
 122:.\Generated_Source\PSoC5/Counter.c ****         #endif /* (!Counter_UsingFixedFunction) */
 123:.\Generated_Source\PSoC5/Counter.c **** }
  99              		.loc 1 123 0
 100 0070 0837     		adds	r7, r7, #8
 101 0072 BD46     		mov	sp, r7
 102              		@ sp needed
 103 0074 80BD     		pop	{r7, pc}
 104              	.L3:
 105 0076 00BF     		.align	2
ARM GAS  C:\Users\JOSEAN~1\AppData\Local\Temp\cc3Po8rn.s 			page 5


 106              	.L2:
 107 0078 7E640040 		.word	1073767550
 108 007c 9E640040 		.word	1073767582
 109              		.cfi_endproc
 110              	.LFE0:
 111              		.size	Counter_Init, .-Counter_Init
 112              		.section	.text.Counter_Enable,"ax",%progbits
 113              		.align	2
 114              		.global	Counter_Enable
 115              		.thumb
 116              		.thumb_func
 117              		.type	Counter_Enable, %function
 118              	Counter_Enable:
 119              	.LFB1:
 124:.\Generated_Source\PSoC5/Counter.c **** 
 125:.\Generated_Source\PSoC5/Counter.c **** 
 126:.\Generated_Source\PSoC5/Counter.c **** /*******************************************************************************
 127:.\Generated_Source\PSoC5/Counter.c **** * Function Name: Counter_Enable
 128:.\Generated_Source\PSoC5/Counter.c **** ********************************************************************************
 129:.\Generated_Source\PSoC5/Counter.c **** * Summary:
 130:.\Generated_Source\PSoC5/Counter.c **** *     Enable the Counter
 131:.\Generated_Source\PSoC5/Counter.c **** * 
 132:.\Generated_Source\PSoC5/Counter.c **** * Parameters:  
 133:.\Generated_Source\PSoC5/Counter.c **** *  void  
 134:.\Generated_Source\PSoC5/Counter.c **** *
 135:.\Generated_Source\PSoC5/Counter.c **** * Return: 
 136:.\Generated_Source\PSoC5/Counter.c **** *  void
 137:.\Generated_Source\PSoC5/Counter.c **** *
 138:.\Generated_Source\PSoC5/Counter.c **** * Side Effects: 
 139:.\Generated_Source\PSoC5/Counter.c **** *   If the Enable mode is set to Hardware only then this function has no effect 
 140:.\Generated_Source\PSoC5/Counter.c **** *   on the operation of the counter.
 141:.\Generated_Source\PSoC5/Counter.c **** *
 142:.\Generated_Source\PSoC5/Counter.c **** *******************************************************************************/
 143:.\Generated_Source\PSoC5/Counter.c **** void Counter_Enable(void) 
 144:.\Generated_Source\PSoC5/Counter.c **** {
 120              		.loc 1 144 0
 121              		.cfi_startproc
 122              		@ args = 0, pretend = 0, frame = 0
 123              		@ frame_needed = 1, uses_anonymous_args = 0
 124              		@ link register save eliminated.
 125 0000 80B4     		push	{r7}
 126              		.cfi_def_cfa_offset 4
 127              		.cfi_offset 7, -4
 128 0002 00AF     		add	r7, sp, #0
 129              		.cfi_def_cfa_register 7
 145:.\Generated_Source\PSoC5/Counter.c ****     /* Globally Enable the Fixed Function Block chosen */
 146:.\Generated_Source\PSoC5/Counter.c ****     #if (Counter_UsingFixedFunction)
 147:.\Generated_Source\PSoC5/Counter.c ****         Counter_GLOBAL_ENABLE |= Counter_BLOCK_EN_MASK;
 148:.\Generated_Source\PSoC5/Counter.c ****         Counter_GLOBAL_STBY_ENABLE |= Counter_BLOCK_STBY_EN_MASK;
 149:.\Generated_Source\PSoC5/Counter.c ****     #endif /* (Counter_UsingFixedFunction) */  
 150:.\Generated_Source\PSoC5/Counter.c ****         
 151:.\Generated_Source\PSoC5/Counter.c ****     /* Enable the counter from the control register  */
 152:.\Generated_Source\PSoC5/Counter.c ****     /* If Fixed Function then make sure Mode is set correctly */
 153:.\Generated_Source\PSoC5/Counter.c ****     /* else make sure reset is clear */
 154:.\Generated_Source\PSoC5/Counter.c ****     #if(!Counter_ControlRegRemoved || Counter_UsingFixedFunction)
 155:.\Generated_Source\PSoC5/Counter.c ****         Counter_CONTROL |= Counter_CTRL_ENABLE;                
 130              		.loc 1 155 0
ARM GAS  C:\Users\JOSEAN~1\AppData\Local\Temp\cc3Po8rn.s 			page 6


 131 0004 054B     		ldr	r3, .L5
 132 0006 054A     		ldr	r2, .L5
 133 0008 1278     		ldrb	r2, [r2]
 134 000a D2B2     		uxtb	r2, r2
 135 000c 62F07F02 		orn	r2, r2, #127
 136 0010 D2B2     		uxtb	r2, r2
 137 0012 1A70     		strb	r2, [r3]
 156:.\Generated_Source\PSoC5/Counter.c ****     #endif /* (!Counter_ControlRegRemoved || Counter_UsingFixedFunction) */
 157:.\Generated_Source\PSoC5/Counter.c ****     
 158:.\Generated_Source\PSoC5/Counter.c **** }
 138              		.loc 1 158 0
 139 0014 BD46     		mov	sp, r7
 140              		@ sp needed
 141 0016 5DF8047B 		ldr	r7, [sp], #4
 142 001a 7047     		bx	lr
 143              	.L6:
 144              		.align	2
 145              	.L5:
 146 001c 7E640040 		.word	1073767550
 147              		.cfi_endproc
 148              	.LFE1:
 149              		.size	Counter_Enable, .-Counter_Enable
 150              		.section	.text.Counter_Start,"ax",%progbits
 151              		.align	2
 152              		.global	Counter_Start
 153              		.thumb
 154              		.thumb_func
 155              		.type	Counter_Start, %function
 156              	Counter_Start:
 157              	.LFB2:
 159:.\Generated_Source\PSoC5/Counter.c **** 
 160:.\Generated_Source\PSoC5/Counter.c **** 
 161:.\Generated_Source\PSoC5/Counter.c **** /*******************************************************************************
 162:.\Generated_Source\PSoC5/Counter.c **** * Function Name: Counter_Start
 163:.\Generated_Source\PSoC5/Counter.c **** ********************************************************************************
 164:.\Generated_Source\PSoC5/Counter.c **** * Summary:
 165:.\Generated_Source\PSoC5/Counter.c **** *  Enables the counter for operation 
 166:.\Generated_Source\PSoC5/Counter.c **** *
 167:.\Generated_Source\PSoC5/Counter.c **** * Parameters:  
 168:.\Generated_Source\PSoC5/Counter.c **** *  void  
 169:.\Generated_Source\PSoC5/Counter.c **** *
 170:.\Generated_Source\PSoC5/Counter.c **** * Return: 
 171:.\Generated_Source\PSoC5/Counter.c **** *  void
 172:.\Generated_Source\PSoC5/Counter.c **** *
 173:.\Generated_Source\PSoC5/Counter.c **** * Global variables:
 174:.\Generated_Source\PSoC5/Counter.c **** *  Counter_initVar: Is modified when this function is called for the  
 175:.\Generated_Source\PSoC5/Counter.c **** *   first time. Is used to ensure that initialization happens only once.
 176:.\Generated_Source\PSoC5/Counter.c **** *
 177:.\Generated_Source\PSoC5/Counter.c **** *******************************************************************************/
 178:.\Generated_Source\PSoC5/Counter.c **** void Counter_Start(void) 
 179:.\Generated_Source\PSoC5/Counter.c **** {
 158              		.loc 1 179 0
 159              		.cfi_startproc
 160              		@ args = 0, pretend = 0, frame = 0
 161              		@ frame_needed = 1, uses_anonymous_args = 0
 162 0000 80B5     		push	{r7, lr}
 163              		.cfi_def_cfa_offset 8
ARM GAS  C:\Users\JOSEAN~1\AppData\Local\Temp\cc3Po8rn.s 			page 7


 164              		.cfi_offset 7, -8
 165              		.cfi_offset 14, -4
 166 0002 00AF     		add	r7, sp, #0
 167              		.cfi_def_cfa_register 7
 180:.\Generated_Source\PSoC5/Counter.c ****     if(Counter_initVar == 0u)
 168              		.loc 1 180 0
 169 0004 054B     		ldr	r3, .L9
 170 0006 1B78     		ldrb	r3, [r3]	@ zero_extendqisi2
 171 0008 002B     		cmp	r3, #0
 172 000a 04D1     		bne	.L8
 181:.\Generated_Source\PSoC5/Counter.c ****     {
 182:.\Generated_Source\PSoC5/Counter.c ****         Counter_Init();
 173              		.loc 1 182 0
 174 000c FFF7FEFF 		bl	Counter_Init
 183:.\Generated_Source\PSoC5/Counter.c ****         
 184:.\Generated_Source\PSoC5/Counter.c ****         Counter_initVar = 1u; /* Clear this bit for Initialization */        
 175              		.loc 1 184 0
 176 0010 024B     		ldr	r3, .L9
 177 0012 0122     		movs	r2, #1
 178 0014 1A70     		strb	r2, [r3]
 179              	.L8:
 185:.\Generated_Source\PSoC5/Counter.c ****     }
 186:.\Generated_Source\PSoC5/Counter.c ****     
 187:.\Generated_Source\PSoC5/Counter.c ****     /* Enable the Counter */
 188:.\Generated_Source\PSoC5/Counter.c ****     Counter_Enable();        
 180              		.loc 1 188 0
 181 0016 FFF7FEFF 		bl	Counter_Enable
 189:.\Generated_Source\PSoC5/Counter.c **** }
 182              		.loc 1 189 0
 183 001a 80BD     		pop	{r7, pc}
 184              	.L10:
 185              		.align	2
 186              	.L9:
 187 001c 00000000 		.word	Counter_initVar
 188              		.cfi_endproc
 189              	.LFE2:
 190              		.size	Counter_Start, .-Counter_Start
 191              		.section	.text.Counter_Stop,"ax",%progbits
 192              		.align	2
 193              		.global	Counter_Stop
 194              		.thumb
 195              		.thumb_func
 196              		.type	Counter_Stop, %function
 197              	Counter_Stop:
 198              	.LFB3:
 190:.\Generated_Source\PSoC5/Counter.c **** 
 191:.\Generated_Source\PSoC5/Counter.c **** 
 192:.\Generated_Source\PSoC5/Counter.c **** /*******************************************************************************
 193:.\Generated_Source\PSoC5/Counter.c **** * Function Name: Counter_Stop
 194:.\Generated_Source\PSoC5/Counter.c **** ********************************************************************************
 195:.\Generated_Source\PSoC5/Counter.c **** * Summary:
 196:.\Generated_Source\PSoC5/Counter.c **** * Halts the counter, but does not change any modes or disable interrupts.
 197:.\Generated_Source\PSoC5/Counter.c **** *
 198:.\Generated_Source\PSoC5/Counter.c **** * Parameters:  
 199:.\Generated_Source\PSoC5/Counter.c **** *  void  
 200:.\Generated_Source\PSoC5/Counter.c **** *
 201:.\Generated_Source\PSoC5/Counter.c **** * Return: 
ARM GAS  C:\Users\JOSEAN~1\AppData\Local\Temp\cc3Po8rn.s 			page 8


 202:.\Generated_Source\PSoC5/Counter.c **** *  void
 203:.\Generated_Source\PSoC5/Counter.c **** *
 204:.\Generated_Source\PSoC5/Counter.c **** * Side Effects: If the Enable mode is set to Hardware only then this function
 205:.\Generated_Source\PSoC5/Counter.c **** *               has no effect on the operation of the counter.
 206:.\Generated_Source\PSoC5/Counter.c **** *
 207:.\Generated_Source\PSoC5/Counter.c **** *******************************************************************************/
 208:.\Generated_Source\PSoC5/Counter.c **** void Counter_Stop(void) 
 209:.\Generated_Source\PSoC5/Counter.c **** {
 199              		.loc 1 209 0
 200              		.cfi_startproc
 201              		@ args = 0, pretend = 0, frame = 0
 202              		@ frame_needed = 1, uses_anonymous_args = 0
 203              		@ link register save eliminated.
 204 0000 80B4     		push	{r7}
 205              		.cfi_def_cfa_offset 4
 206              		.cfi_offset 7, -4
 207 0002 00AF     		add	r7, sp, #0
 208              		.cfi_def_cfa_register 7
 210:.\Generated_Source\PSoC5/Counter.c ****     /* Disable Counter */
 211:.\Generated_Source\PSoC5/Counter.c ****     #if(!Counter_ControlRegRemoved || Counter_UsingFixedFunction)
 212:.\Generated_Source\PSoC5/Counter.c ****         Counter_CONTROL &= ((uint8)(~Counter_CTRL_ENABLE));        
 209              		.loc 1 212 0
 210 0004 054B     		ldr	r3, .L12
 211 0006 054A     		ldr	r2, .L12
 212 0008 1278     		ldrb	r2, [r2]
 213 000a D2B2     		uxtb	r2, r2
 214 000c 02F07F02 		and	r2, r2, #127
 215 0010 D2B2     		uxtb	r2, r2
 216 0012 1A70     		strb	r2, [r3]
 213:.\Generated_Source\PSoC5/Counter.c ****     #endif /* (!Counter_ControlRegRemoved || Counter_UsingFixedFunction) */
 214:.\Generated_Source\PSoC5/Counter.c ****     
 215:.\Generated_Source\PSoC5/Counter.c ****     /* Globally disable the Fixed Function Block chosen */
 216:.\Generated_Source\PSoC5/Counter.c ****     #if (Counter_UsingFixedFunction)
 217:.\Generated_Source\PSoC5/Counter.c ****         Counter_GLOBAL_ENABLE &= ((uint8)(~Counter_BLOCK_EN_MASK));
 218:.\Generated_Source\PSoC5/Counter.c ****         Counter_GLOBAL_STBY_ENABLE &= ((uint8)(~Counter_BLOCK_STBY_EN_MASK));
 219:.\Generated_Source\PSoC5/Counter.c ****     #endif /* (Counter_UsingFixedFunction) */
 220:.\Generated_Source\PSoC5/Counter.c **** }
 217              		.loc 1 220 0
 218 0014 BD46     		mov	sp, r7
 219              		@ sp needed
 220 0016 5DF8047B 		ldr	r7, [sp], #4
 221 001a 7047     		bx	lr
 222              	.L13:
 223              		.align	2
 224              	.L12:
 225 001c 7E640040 		.word	1073767550
 226              		.cfi_endproc
 227              	.LFE3:
 228              		.size	Counter_Stop, .-Counter_Stop
 229              		.section	.text.Counter_SetInterruptMode,"ax",%progbits
 230              		.align	2
 231              		.global	Counter_SetInterruptMode
 232              		.thumb
 233              		.thumb_func
 234              		.type	Counter_SetInterruptMode, %function
 235              	Counter_SetInterruptMode:
 236              	.LFB4:
ARM GAS  C:\Users\JOSEAN~1\AppData\Local\Temp\cc3Po8rn.s 			page 9


 221:.\Generated_Source\PSoC5/Counter.c **** 
 222:.\Generated_Source\PSoC5/Counter.c **** 
 223:.\Generated_Source\PSoC5/Counter.c **** /*******************************************************************************
 224:.\Generated_Source\PSoC5/Counter.c **** * Function Name: Counter_SetInterruptMode
 225:.\Generated_Source\PSoC5/Counter.c **** ********************************************************************************
 226:.\Generated_Source\PSoC5/Counter.c **** * Summary:
 227:.\Generated_Source\PSoC5/Counter.c **** * Configures which interrupt sources are enabled to generate the final interrupt
 228:.\Generated_Source\PSoC5/Counter.c **** *
 229:.\Generated_Source\PSoC5/Counter.c **** * Parameters:  
 230:.\Generated_Source\PSoC5/Counter.c **** *  InterruptsMask: This parameter is an or'd collection of the status bits
 231:.\Generated_Source\PSoC5/Counter.c **** *                   which will be allowed to generate the counters interrupt.   
 232:.\Generated_Source\PSoC5/Counter.c **** *
 233:.\Generated_Source\PSoC5/Counter.c **** * Return: 
 234:.\Generated_Source\PSoC5/Counter.c **** *  void
 235:.\Generated_Source\PSoC5/Counter.c **** *
 236:.\Generated_Source\PSoC5/Counter.c **** *******************************************************************************/
 237:.\Generated_Source\PSoC5/Counter.c **** void Counter_SetInterruptMode(uint8 interruptsMask) 
 238:.\Generated_Source\PSoC5/Counter.c **** {
 237              		.loc 1 238 0
 238              		.cfi_startproc
 239              		@ args = 0, pretend = 0, frame = 8
 240              		@ frame_needed = 1, uses_anonymous_args = 0
 241              		@ link register save eliminated.
 242 0000 80B4     		push	{r7}
 243              		.cfi_def_cfa_offset 4
 244              		.cfi_offset 7, -4
 245 0002 83B0     		sub	sp, sp, #12
 246              		.cfi_def_cfa_offset 16
 247 0004 00AF     		add	r7, sp, #0
 248              		.cfi_def_cfa_register 7
 249 0006 0346     		mov	r3, r0
 250 0008 FB71     		strb	r3, [r7, #7]
 239:.\Generated_Source\PSoC5/Counter.c ****     Counter_STATUS_MASK = interruptsMask;
 251              		.loc 1 239 0
 252 000a 044B     		ldr	r3, .L15
 253 000c FA79     		ldrb	r2, [r7, #7]
 254 000e 1A70     		strb	r2, [r3]
 240:.\Generated_Source\PSoC5/Counter.c **** }
 255              		.loc 1 240 0
 256 0010 0C37     		adds	r7, r7, #12
 257 0012 BD46     		mov	sp, r7
 258              		@ sp needed
 259 0014 5DF8047B 		ldr	r7, [sp], #4
 260 0018 7047     		bx	lr
 261              	.L16:
 262 001a 00BF     		.align	2
 263              	.L15:
 264 001c 8E640040 		.word	1073767566
 265              		.cfi_endproc
 266              	.LFE4:
 267              		.size	Counter_SetInterruptMode, .-Counter_SetInterruptMode
 268              		.section	.text.Counter_ReadStatusRegister,"ax",%progbits
 269              		.align	2
 270              		.global	Counter_ReadStatusRegister
 271              		.thumb
 272              		.thumb_func
 273              		.type	Counter_ReadStatusRegister, %function
ARM GAS  C:\Users\JOSEAN~1\AppData\Local\Temp\cc3Po8rn.s 			page 10


 274              	Counter_ReadStatusRegister:
 275              	.LFB5:
 241:.\Generated_Source\PSoC5/Counter.c **** 
 242:.\Generated_Source\PSoC5/Counter.c **** 
 243:.\Generated_Source\PSoC5/Counter.c **** /*******************************************************************************
 244:.\Generated_Source\PSoC5/Counter.c **** * Function Name: Counter_ReadStatusRegister
 245:.\Generated_Source\PSoC5/Counter.c **** ********************************************************************************
 246:.\Generated_Source\PSoC5/Counter.c **** * Summary:
 247:.\Generated_Source\PSoC5/Counter.c **** *   Reads the status register and returns it's state. This function should use
 248:.\Generated_Source\PSoC5/Counter.c **** *       defined types for the bit-field information as the bits in this
 249:.\Generated_Source\PSoC5/Counter.c **** *       register may be permuteable.
 250:.\Generated_Source\PSoC5/Counter.c **** *
 251:.\Generated_Source\PSoC5/Counter.c **** * Parameters:  
 252:.\Generated_Source\PSoC5/Counter.c **** *  void
 253:.\Generated_Source\PSoC5/Counter.c **** *
 254:.\Generated_Source\PSoC5/Counter.c **** * Return: 
 255:.\Generated_Source\PSoC5/Counter.c **** *  (uint8) The contents of the status register
 256:.\Generated_Source\PSoC5/Counter.c **** *
 257:.\Generated_Source\PSoC5/Counter.c **** * Side Effects:
 258:.\Generated_Source\PSoC5/Counter.c **** *   Status register bits may be clear on read. 
 259:.\Generated_Source\PSoC5/Counter.c **** *
 260:.\Generated_Source\PSoC5/Counter.c **** *******************************************************************************/
 261:.\Generated_Source\PSoC5/Counter.c **** uint8   Counter_ReadStatusRegister(void) 
 262:.\Generated_Source\PSoC5/Counter.c **** {
 276              		.loc 1 262 0
 277              		.cfi_startproc
 278              		@ args = 0, pretend = 0, frame = 0
 279              		@ frame_needed = 1, uses_anonymous_args = 0
 280              		@ link register save eliminated.
 281 0000 80B4     		push	{r7}
 282              		.cfi_def_cfa_offset 4
 283              		.cfi_offset 7, -4
 284 0002 00AF     		add	r7, sp, #0
 285              		.cfi_def_cfa_register 7
 263:.\Generated_Source\PSoC5/Counter.c ****     return Counter_STATUS;
 286              		.loc 1 263 0
 287 0004 034B     		ldr	r3, .L19
 288 0006 1B78     		ldrb	r3, [r3]
 289 0008 DBB2     		uxtb	r3, r3
 264:.\Generated_Source\PSoC5/Counter.c **** }
 290              		.loc 1 264 0
 291 000a 1846     		mov	r0, r3
 292 000c BD46     		mov	sp, r7
 293              		@ sp needed
 294 000e 5DF8047B 		ldr	r7, [sp], #4
 295 0012 7047     		bx	lr
 296              	.L20:
 297              		.align	2
 298              	.L19:
 299 0014 6E640040 		.word	1073767534
 300              		.cfi_endproc
 301              	.LFE5:
 302              		.size	Counter_ReadStatusRegister, .-Counter_ReadStatusRegister
 303              		.section	.text.Counter_ReadControlRegister,"ax",%progbits
 304              		.align	2
 305              		.global	Counter_ReadControlRegister
 306              		.thumb
ARM GAS  C:\Users\JOSEAN~1\AppData\Local\Temp\cc3Po8rn.s 			page 11


 307              		.thumb_func
 308              		.type	Counter_ReadControlRegister, %function
 309              	Counter_ReadControlRegister:
 310              	.LFB6:
 265:.\Generated_Source\PSoC5/Counter.c **** 
 266:.\Generated_Source\PSoC5/Counter.c **** 
 267:.\Generated_Source\PSoC5/Counter.c **** #if(!Counter_ControlRegRemoved)
 268:.\Generated_Source\PSoC5/Counter.c **** /*******************************************************************************
 269:.\Generated_Source\PSoC5/Counter.c **** * Function Name: Counter_ReadControlRegister
 270:.\Generated_Source\PSoC5/Counter.c **** ********************************************************************************
 271:.\Generated_Source\PSoC5/Counter.c **** * Summary:
 272:.\Generated_Source\PSoC5/Counter.c **** *   Reads the control register and returns it's state. This function should use
 273:.\Generated_Source\PSoC5/Counter.c **** *       defined types for the bit-field information as the bits in this
 274:.\Generated_Source\PSoC5/Counter.c **** *       register may be permuteable.
 275:.\Generated_Source\PSoC5/Counter.c **** *
 276:.\Generated_Source\PSoC5/Counter.c **** * Parameters:  
 277:.\Generated_Source\PSoC5/Counter.c **** *  void
 278:.\Generated_Source\PSoC5/Counter.c **** *
 279:.\Generated_Source\PSoC5/Counter.c **** * Return: 
 280:.\Generated_Source\PSoC5/Counter.c **** *  (uint8) The contents of the control register
 281:.\Generated_Source\PSoC5/Counter.c **** *
 282:.\Generated_Source\PSoC5/Counter.c **** *******************************************************************************/
 283:.\Generated_Source\PSoC5/Counter.c **** uint8   Counter_ReadControlRegister(void) 
 284:.\Generated_Source\PSoC5/Counter.c **** {
 311              		.loc 1 284 0
 312              		.cfi_startproc
 313              		@ args = 0, pretend = 0, frame = 0
 314              		@ frame_needed = 1, uses_anonymous_args = 0
 315              		@ link register save eliminated.
 316 0000 80B4     		push	{r7}
 317              		.cfi_def_cfa_offset 4
 318              		.cfi_offset 7, -4
 319 0002 00AF     		add	r7, sp, #0
 320              		.cfi_def_cfa_register 7
 285:.\Generated_Source\PSoC5/Counter.c ****     return Counter_CONTROL;
 321              		.loc 1 285 0
 322 0004 034B     		ldr	r3, .L23
 323 0006 1B78     		ldrb	r3, [r3]
 324 0008 DBB2     		uxtb	r3, r3
 286:.\Generated_Source\PSoC5/Counter.c **** }
 325              		.loc 1 286 0
 326 000a 1846     		mov	r0, r3
 327 000c BD46     		mov	sp, r7
 328              		@ sp needed
 329 000e 5DF8047B 		ldr	r7, [sp], #4
 330 0012 7047     		bx	lr
 331              	.L24:
 332              		.align	2
 333              	.L23:
 334 0014 7E640040 		.word	1073767550
 335              		.cfi_endproc
 336              	.LFE6:
 337              		.size	Counter_ReadControlRegister, .-Counter_ReadControlRegister
 338              		.section	.text.Counter_WriteControlRegister,"ax",%progbits
 339              		.align	2
 340              		.global	Counter_WriteControlRegister
 341              		.thumb
ARM GAS  C:\Users\JOSEAN~1\AppData\Local\Temp\cc3Po8rn.s 			page 12


 342              		.thumb_func
 343              		.type	Counter_WriteControlRegister, %function
 344              	Counter_WriteControlRegister:
 345              	.LFB7:
 287:.\Generated_Source\PSoC5/Counter.c **** 
 288:.\Generated_Source\PSoC5/Counter.c **** 
 289:.\Generated_Source\PSoC5/Counter.c **** /*******************************************************************************
 290:.\Generated_Source\PSoC5/Counter.c **** * Function Name: Counter_WriteControlRegister
 291:.\Generated_Source\PSoC5/Counter.c **** ********************************************************************************
 292:.\Generated_Source\PSoC5/Counter.c **** * Summary:
 293:.\Generated_Source\PSoC5/Counter.c **** *   Sets the bit-field of the control register.  This function should use
 294:.\Generated_Source\PSoC5/Counter.c **** *       defined types for the bit-field information as the bits in this
 295:.\Generated_Source\PSoC5/Counter.c **** *       register may be permuteable.
 296:.\Generated_Source\PSoC5/Counter.c **** *
 297:.\Generated_Source\PSoC5/Counter.c **** * Parameters:  
 298:.\Generated_Source\PSoC5/Counter.c **** *  void
 299:.\Generated_Source\PSoC5/Counter.c **** *
 300:.\Generated_Source\PSoC5/Counter.c **** * Return: 
 301:.\Generated_Source\PSoC5/Counter.c **** *  (uint8) The contents of the control register
 302:.\Generated_Source\PSoC5/Counter.c **** *
 303:.\Generated_Source\PSoC5/Counter.c **** *******************************************************************************/
 304:.\Generated_Source\PSoC5/Counter.c **** void    Counter_WriteControlRegister(uint8 control) 
 305:.\Generated_Source\PSoC5/Counter.c **** {
 346              		.loc 1 305 0
 347              		.cfi_startproc
 348              		@ args = 0, pretend = 0, frame = 8
 349              		@ frame_needed = 1, uses_anonymous_args = 0
 350              		@ link register save eliminated.
 351 0000 80B4     		push	{r7}
 352              		.cfi_def_cfa_offset 4
 353              		.cfi_offset 7, -4
 354 0002 83B0     		sub	sp, sp, #12
 355              		.cfi_def_cfa_offset 16
 356 0004 00AF     		add	r7, sp, #0
 357              		.cfi_def_cfa_register 7
 358 0006 0346     		mov	r3, r0
 359 0008 FB71     		strb	r3, [r7, #7]
 306:.\Generated_Source\PSoC5/Counter.c ****     Counter_CONTROL = control;
 360              		.loc 1 306 0
 361 000a 044B     		ldr	r3, .L26
 362 000c FA79     		ldrb	r2, [r7, #7]
 363 000e 1A70     		strb	r2, [r3]
 307:.\Generated_Source\PSoC5/Counter.c **** }
 364              		.loc 1 307 0
 365 0010 0C37     		adds	r7, r7, #12
 366 0012 BD46     		mov	sp, r7
 367              		@ sp needed
 368 0014 5DF8047B 		ldr	r7, [sp], #4
 369 0018 7047     		bx	lr
 370              	.L27:
 371 001a 00BF     		.align	2
 372              	.L26:
 373 001c 7E640040 		.word	1073767550
 374              		.cfi_endproc
 375              	.LFE7:
 376              		.size	Counter_WriteControlRegister, .-Counter_WriteControlRegister
 377              		.section	.text.Counter_WriteCounter,"ax",%progbits
ARM GAS  C:\Users\JOSEAN~1\AppData\Local\Temp\cc3Po8rn.s 			page 13


 378              		.align	2
 379              		.global	Counter_WriteCounter
 380              		.thumb
 381              		.thumb_func
 382              		.type	Counter_WriteCounter, %function
 383              	Counter_WriteCounter:
 384              	.LFB8:
 308:.\Generated_Source\PSoC5/Counter.c **** 
 309:.\Generated_Source\PSoC5/Counter.c **** #endif  /* (!Counter_ControlRegRemoved) */
 310:.\Generated_Source\PSoC5/Counter.c **** 
 311:.\Generated_Source\PSoC5/Counter.c **** 
 312:.\Generated_Source\PSoC5/Counter.c **** #if (!(Counter_UsingFixedFunction && (CY_PSOC5A)))
 313:.\Generated_Source\PSoC5/Counter.c **** /*******************************************************************************
 314:.\Generated_Source\PSoC5/Counter.c **** * Function Name: Counter_WriteCounter
 315:.\Generated_Source\PSoC5/Counter.c **** ********************************************************************************
 316:.\Generated_Source\PSoC5/Counter.c **** * Summary:
 317:.\Generated_Source\PSoC5/Counter.c **** *   This funtion is used to set the counter to a specific value
 318:.\Generated_Source\PSoC5/Counter.c **** *
 319:.\Generated_Source\PSoC5/Counter.c **** * Parameters:  
 320:.\Generated_Source\PSoC5/Counter.c **** *  counter:  New counter value. 
 321:.\Generated_Source\PSoC5/Counter.c **** *
 322:.\Generated_Source\PSoC5/Counter.c **** * Return: 
 323:.\Generated_Source\PSoC5/Counter.c **** *  void 
 324:.\Generated_Source\PSoC5/Counter.c **** *
 325:.\Generated_Source\PSoC5/Counter.c **** *******************************************************************************/
 326:.\Generated_Source\PSoC5/Counter.c **** void Counter_WriteCounter(uint8 counter) \
 327:.\Generated_Source\PSoC5/Counter.c ****                                    
 328:.\Generated_Source\PSoC5/Counter.c **** {
 385              		.loc 1 328 0
 386              		.cfi_startproc
 387              		@ args = 0, pretend = 0, frame = 8
 388              		@ frame_needed = 1, uses_anonymous_args = 0
 389              		@ link register save eliminated.
 390 0000 80B4     		push	{r7}
 391              		.cfi_def_cfa_offset 4
 392              		.cfi_offset 7, -4
 393 0002 83B0     		sub	sp, sp, #12
 394              		.cfi_def_cfa_offset 16
 395 0004 00AF     		add	r7, sp, #0
 396              		.cfi_def_cfa_register 7
 397 0006 0346     		mov	r3, r0
 398 0008 FB71     		strb	r3, [r7, #7]
 329:.\Generated_Source\PSoC5/Counter.c ****     #if(Counter_UsingFixedFunction)
 330:.\Generated_Source\PSoC5/Counter.c ****         /* assert if block is already enabled */
 331:.\Generated_Source\PSoC5/Counter.c ****         CYASSERT (0u == (Counter_GLOBAL_ENABLE & Counter_BLOCK_EN_MASK));
 332:.\Generated_Source\PSoC5/Counter.c ****         /* If block is disabled, enable it and then write the counter */
 333:.\Generated_Source\PSoC5/Counter.c ****         Counter_GLOBAL_ENABLE |= Counter_BLOCK_EN_MASK;
 334:.\Generated_Source\PSoC5/Counter.c ****         CY_SET_REG16(Counter_COUNTER_LSB_PTR, (uint16)counter);
 335:.\Generated_Source\PSoC5/Counter.c ****         Counter_GLOBAL_ENABLE &= ((uint8)(~Counter_BLOCK_EN_MASK));
 336:.\Generated_Source\PSoC5/Counter.c ****     #else
 337:.\Generated_Source\PSoC5/Counter.c ****         CY_SET_REG8(Counter_COUNTER_LSB_PTR, counter);
 399              		.loc 1 337 0
 400 000a 044B     		ldr	r3, .L29
 401 000c FA79     		ldrb	r2, [r7, #7]
 402 000e 1A70     		strb	r2, [r3]
 338:.\Generated_Source\PSoC5/Counter.c ****     #endif /* (Counter_UsingFixedFunction) */
 339:.\Generated_Source\PSoC5/Counter.c **** }
ARM GAS  C:\Users\JOSEAN~1\AppData\Local\Temp\cc3Po8rn.s 			page 14


 403              		.loc 1 339 0
 404 0010 0C37     		adds	r7, r7, #12
 405 0012 BD46     		mov	sp, r7
 406              		@ sp needed
 407 0014 5DF8047B 		ldr	r7, [sp], #4
 408 0018 7047     		bx	lr
 409              	.L30:
 410 001a 00BF     		.align	2
 411              	.L29:
 412 001c 0E640040 		.word	1073767438
 413              		.cfi_endproc
 414              	.LFE8:
 415              		.size	Counter_WriteCounter, .-Counter_WriteCounter
 416              		.section	.text.Counter_ReadCounter,"ax",%progbits
 417              		.align	2
 418              		.global	Counter_ReadCounter
 419              		.thumb
 420              		.thumb_func
 421              		.type	Counter_ReadCounter, %function
 422              	Counter_ReadCounter:
 423              	.LFB9:
 340:.\Generated_Source\PSoC5/Counter.c **** #endif /* (!(Counter_UsingFixedFunction && (CY_PSOC5A))) */
 341:.\Generated_Source\PSoC5/Counter.c **** 
 342:.\Generated_Source\PSoC5/Counter.c **** 
 343:.\Generated_Source\PSoC5/Counter.c **** /*******************************************************************************
 344:.\Generated_Source\PSoC5/Counter.c **** * Function Name: Counter_ReadCounter
 345:.\Generated_Source\PSoC5/Counter.c **** ********************************************************************************
 346:.\Generated_Source\PSoC5/Counter.c **** * Summary:
 347:.\Generated_Source\PSoC5/Counter.c **** * Returns the current value of the counter.  It doesn't matter
 348:.\Generated_Source\PSoC5/Counter.c **** * if the counter is enabled or running.
 349:.\Generated_Source\PSoC5/Counter.c **** *
 350:.\Generated_Source\PSoC5/Counter.c **** * Parameters:  
 351:.\Generated_Source\PSoC5/Counter.c **** *  void:  
 352:.\Generated_Source\PSoC5/Counter.c **** *
 353:.\Generated_Source\PSoC5/Counter.c **** * Return: 
 354:.\Generated_Source\PSoC5/Counter.c **** *  (uint8) The present value of the counter.
 355:.\Generated_Source\PSoC5/Counter.c **** *
 356:.\Generated_Source\PSoC5/Counter.c **** *******************************************************************************/
 357:.\Generated_Source\PSoC5/Counter.c **** uint8 Counter_ReadCounter(void) 
 358:.\Generated_Source\PSoC5/Counter.c **** {
 424              		.loc 1 358 0
 425              		.cfi_startproc
 426              		@ args = 0, pretend = 0, frame = 0
 427              		@ frame_needed = 1, uses_anonymous_args = 0
 428              		@ link register save eliminated.
 429 0000 80B4     		push	{r7}
 430              		.cfi_def_cfa_offset 4
 431              		.cfi_offset 7, -4
 432 0002 00AF     		add	r7, sp, #0
 433              		.cfi_def_cfa_register 7
 359:.\Generated_Source\PSoC5/Counter.c ****     /* Force capture by reading Accumulator */
 360:.\Generated_Source\PSoC5/Counter.c ****     /* Must first do a software capture to be able to read the counter */
 361:.\Generated_Source\PSoC5/Counter.c ****     /* It is up to the user code to make sure there isn't already captured data in the FIFO */
 362:.\Generated_Source\PSoC5/Counter.c ****     #if(Counter_UsingFixedFunction)
 363:.\Generated_Source\PSoC5/Counter.c **** 		(void)CY_GET_REG16(Counter_COUNTER_LSB_PTR);
 364:.\Generated_Source\PSoC5/Counter.c **** 	#else
 365:.\Generated_Source\PSoC5/Counter.c **** 		(void)CY_GET_REG8(Counter_COUNTER_LSB_PTR_8BIT);
ARM GAS  C:\Users\JOSEAN~1\AppData\Local\Temp\cc3Po8rn.s 			page 15


 434              		.loc 1 365 0
 435 0004 044B     		ldr	r3, .L33
 436 0006 1B78     		ldrb	r3, [r3]
 366:.\Generated_Source\PSoC5/Counter.c **** 	#endif/* (Counter_UsingFixedFunction) */
 367:.\Generated_Source\PSoC5/Counter.c ****     
 368:.\Generated_Source\PSoC5/Counter.c ****     /* Read the data from the FIFO (or capture register for Fixed Function)*/
 369:.\Generated_Source\PSoC5/Counter.c ****     #if(Counter_UsingFixedFunction)
 370:.\Generated_Source\PSoC5/Counter.c ****         return ((uint8)CY_GET_REG16(Counter_STATICCOUNT_LSB_PTR));
 371:.\Generated_Source\PSoC5/Counter.c ****     #else
 372:.\Generated_Source\PSoC5/Counter.c ****         return (CY_GET_REG8(Counter_STATICCOUNT_LSB_PTR));
 437              		.loc 1 372 0
 438 0008 044B     		ldr	r3, .L33+4
 439 000a 1B78     		ldrb	r3, [r3]
 440 000c DBB2     		uxtb	r3, r3
 373:.\Generated_Source\PSoC5/Counter.c ****     #endif /* (Counter_UsingFixedFunction) */
 374:.\Generated_Source\PSoC5/Counter.c **** }
 441              		.loc 1 374 0
 442 000e 1846     		mov	r0, r3
 443 0010 BD46     		mov	sp, r7
 444              		@ sp needed
 445 0012 5DF8047B 		ldr	r7, [sp], #4
 446 0016 7047     		bx	lr
 447              	.L34:
 448              		.align	2
 449              	.L33:
 450 0018 0E640040 		.word	1073767438
 451 001c 4E640040 		.word	1073767502
 452              		.cfi_endproc
 453              	.LFE9:
 454              		.size	Counter_ReadCounter, .-Counter_ReadCounter
 455              		.section	.text.Counter_ReadCapture,"ax",%progbits
 456              		.align	2
 457              		.global	Counter_ReadCapture
 458              		.thumb
 459              		.thumb_func
 460              		.type	Counter_ReadCapture, %function
 461              	Counter_ReadCapture:
 462              	.LFB10:
 375:.\Generated_Source\PSoC5/Counter.c **** 
 376:.\Generated_Source\PSoC5/Counter.c **** 
 377:.\Generated_Source\PSoC5/Counter.c **** /*******************************************************************************
 378:.\Generated_Source\PSoC5/Counter.c **** * Function Name: Counter_ReadCapture
 379:.\Generated_Source\PSoC5/Counter.c **** ********************************************************************************
 380:.\Generated_Source\PSoC5/Counter.c **** * Summary:
 381:.\Generated_Source\PSoC5/Counter.c **** *   This function returns the last value captured.
 382:.\Generated_Source\PSoC5/Counter.c **** *
 383:.\Generated_Source\PSoC5/Counter.c **** * Parameters:  
 384:.\Generated_Source\PSoC5/Counter.c **** *  void
 385:.\Generated_Source\PSoC5/Counter.c **** *
 386:.\Generated_Source\PSoC5/Counter.c **** * Return: 
 387:.\Generated_Source\PSoC5/Counter.c **** *  (uint8) Present Capture value.
 388:.\Generated_Source\PSoC5/Counter.c **** *
 389:.\Generated_Source\PSoC5/Counter.c **** *******************************************************************************/
 390:.\Generated_Source\PSoC5/Counter.c **** uint8 Counter_ReadCapture(void) 
 391:.\Generated_Source\PSoC5/Counter.c **** {
 463              		.loc 1 391 0
 464              		.cfi_startproc
ARM GAS  C:\Users\JOSEAN~1\AppData\Local\Temp\cc3Po8rn.s 			page 16


 465              		@ args = 0, pretend = 0, frame = 0
 466              		@ frame_needed = 1, uses_anonymous_args = 0
 467              		@ link register save eliminated.
 468 0000 80B4     		push	{r7}
 469              		.cfi_def_cfa_offset 4
 470              		.cfi_offset 7, -4
 471 0002 00AF     		add	r7, sp, #0
 472              		.cfi_def_cfa_register 7
 392:.\Generated_Source\PSoC5/Counter.c ****     #if(Counter_UsingFixedFunction)
 393:.\Generated_Source\PSoC5/Counter.c ****         return ((uint8)CY_GET_REG16(Counter_STATICCOUNT_LSB_PTR));
 394:.\Generated_Source\PSoC5/Counter.c ****     #else
 395:.\Generated_Source\PSoC5/Counter.c ****         return (CY_GET_REG8(Counter_STATICCOUNT_LSB_PTR));
 473              		.loc 1 395 0
 474 0004 034B     		ldr	r3, .L37
 475 0006 1B78     		ldrb	r3, [r3]
 476 0008 DBB2     		uxtb	r3, r3
 396:.\Generated_Source\PSoC5/Counter.c ****     #endif /* (Counter_UsingFixedFunction) */
 397:.\Generated_Source\PSoC5/Counter.c **** }
 477              		.loc 1 397 0
 478 000a 1846     		mov	r0, r3
 479 000c BD46     		mov	sp, r7
 480              		@ sp needed
 481 000e 5DF8047B 		ldr	r7, [sp], #4
 482 0012 7047     		bx	lr
 483              	.L38:
 484              		.align	2
 485              	.L37:
 486 0014 4E640040 		.word	1073767502
 487              		.cfi_endproc
 488              	.LFE10:
 489              		.size	Counter_ReadCapture, .-Counter_ReadCapture
 490              		.section	.text.Counter_WritePeriod,"ax",%progbits
 491              		.align	2
 492              		.global	Counter_WritePeriod
 493              		.thumb
 494              		.thumb_func
 495              		.type	Counter_WritePeriod, %function
 496              	Counter_WritePeriod:
 497              	.LFB11:
 398:.\Generated_Source\PSoC5/Counter.c **** 
 399:.\Generated_Source\PSoC5/Counter.c **** 
 400:.\Generated_Source\PSoC5/Counter.c **** /*******************************************************************************
 401:.\Generated_Source\PSoC5/Counter.c **** * Function Name: Counter_WritePeriod
 402:.\Generated_Source\PSoC5/Counter.c **** ********************************************************************************
 403:.\Generated_Source\PSoC5/Counter.c **** * Summary:
 404:.\Generated_Source\PSoC5/Counter.c **** * Changes the period of the counter.  The new period 
 405:.\Generated_Source\PSoC5/Counter.c **** * will be loaded the next time terminal count is detected.
 406:.\Generated_Source\PSoC5/Counter.c **** *
 407:.\Generated_Source\PSoC5/Counter.c **** * Parameters:  
 408:.\Generated_Source\PSoC5/Counter.c **** *  period: (uint8) A value of 0 will result in
 409:.\Generated_Source\PSoC5/Counter.c **** *         the counter remaining at zero.  
 410:.\Generated_Source\PSoC5/Counter.c **** *
 411:.\Generated_Source\PSoC5/Counter.c **** * Return: 
 412:.\Generated_Source\PSoC5/Counter.c **** *  void
 413:.\Generated_Source\PSoC5/Counter.c **** *
 414:.\Generated_Source\PSoC5/Counter.c **** *******************************************************************************/
 415:.\Generated_Source\PSoC5/Counter.c **** void Counter_WritePeriod(uint8 period) 
ARM GAS  C:\Users\JOSEAN~1\AppData\Local\Temp\cc3Po8rn.s 			page 17


 416:.\Generated_Source\PSoC5/Counter.c **** {
 498              		.loc 1 416 0
 499              		.cfi_startproc
 500              		@ args = 0, pretend = 0, frame = 8
 501              		@ frame_needed = 1, uses_anonymous_args = 0
 502              		@ link register save eliminated.
 503 0000 80B4     		push	{r7}
 504              		.cfi_def_cfa_offset 4
 505              		.cfi_offset 7, -4
 506 0002 83B0     		sub	sp, sp, #12
 507              		.cfi_def_cfa_offset 16
 508 0004 00AF     		add	r7, sp, #0
 509              		.cfi_def_cfa_register 7
 510 0006 0346     		mov	r3, r0
 511 0008 FB71     		strb	r3, [r7, #7]
 417:.\Generated_Source\PSoC5/Counter.c ****     #if(Counter_UsingFixedFunction)
 418:.\Generated_Source\PSoC5/Counter.c ****         CY_SET_REG16(Counter_PERIOD_LSB_PTR,(uint16)period);
 419:.\Generated_Source\PSoC5/Counter.c ****     #else
 420:.\Generated_Source\PSoC5/Counter.c ****         CY_SET_REG8(Counter_PERIOD_LSB_PTR, period);
 512              		.loc 1 420 0
 513 000a 044B     		ldr	r3, .L40
 514 000c FA79     		ldrb	r2, [r7, #7]
 515 000e 1A70     		strb	r2, [r3]
 421:.\Generated_Source\PSoC5/Counter.c ****     #endif /* (Counter_UsingFixedFunction) */
 422:.\Generated_Source\PSoC5/Counter.c **** }
 516              		.loc 1 422 0
 517 0010 0C37     		adds	r7, r7, #12
 518 0012 BD46     		mov	sp, r7
 519              		@ sp needed
 520 0014 5DF8047B 		ldr	r7, [sp], #4
 521 0018 7047     		bx	lr
 522              	.L41:
 523 001a 00BF     		.align	2
 524              	.L40:
 525 001c 2E640040 		.word	1073767470
 526              		.cfi_endproc
 527              	.LFE11:
 528              		.size	Counter_WritePeriod, .-Counter_WritePeriod
 529              		.section	.text.Counter_ReadPeriod,"ax",%progbits
 530              		.align	2
 531              		.global	Counter_ReadPeriod
 532              		.thumb
 533              		.thumb_func
 534              		.type	Counter_ReadPeriod, %function
 535              	Counter_ReadPeriod:
 536              	.LFB12:
 423:.\Generated_Source\PSoC5/Counter.c **** 
 424:.\Generated_Source\PSoC5/Counter.c **** 
 425:.\Generated_Source\PSoC5/Counter.c **** /*******************************************************************************
 426:.\Generated_Source\PSoC5/Counter.c **** * Function Name: Counter_ReadPeriod
 427:.\Generated_Source\PSoC5/Counter.c **** ********************************************************************************
 428:.\Generated_Source\PSoC5/Counter.c **** * Summary:
 429:.\Generated_Source\PSoC5/Counter.c **** * Reads the current period value without affecting counter operation.
 430:.\Generated_Source\PSoC5/Counter.c **** *
 431:.\Generated_Source\PSoC5/Counter.c **** * Parameters:  
 432:.\Generated_Source\PSoC5/Counter.c **** *  void:  
 433:.\Generated_Source\PSoC5/Counter.c **** *
ARM GAS  C:\Users\JOSEAN~1\AppData\Local\Temp\cc3Po8rn.s 			page 18


 434:.\Generated_Source\PSoC5/Counter.c **** * Return: 
 435:.\Generated_Source\PSoC5/Counter.c **** *  (uint8) Present period value.
 436:.\Generated_Source\PSoC5/Counter.c **** *
 437:.\Generated_Source\PSoC5/Counter.c **** *******************************************************************************/
 438:.\Generated_Source\PSoC5/Counter.c **** uint8 Counter_ReadPeriod(void) 
 439:.\Generated_Source\PSoC5/Counter.c **** {
 537              		.loc 1 439 0
 538              		.cfi_startproc
 539              		@ args = 0, pretend = 0, frame = 0
 540              		@ frame_needed = 1, uses_anonymous_args = 0
 541              		@ link register save eliminated.
 542 0000 80B4     		push	{r7}
 543              		.cfi_def_cfa_offset 4
 544              		.cfi_offset 7, -4
 545 0002 00AF     		add	r7, sp, #0
 546              		.cfi_def_cfa_register 7
 440:.\Generated_Source\PSoC5/Counter.c ****     #if(Counter_UsingFixedFunction)
 441:.\Generated_Source\PSoC5/Counter.c ****         return ((uint8)CY_GET_REG16(Counter_PERIOD_LSB_PTR));
 442:.\Generated_Source\PSoC5/Counter.c ****     #else
 443:.\Generated_Source\PSoC5/Counter.c ****         return (CY_GET_REG8(Counter_PERIOD_LSB_PTR));
 547              		.loc 1 443 0
 548 0004 034B     		ldr	r3, .L44
 549 0006 1B78     		ldrb	r3, [r3]
 550 0008 DBB2     		uxtb	r3, r3
 444:.\Generated_Source\PSoC5/Counter.c ****     #endif /* (Counter_UsingFixedFunction) */
 445:.\Generated_Source\PSoC5/Counter.c **** }
 551              		.loc 1 445 0
 552 000a 1846     		mov	r0, r3
 553 000c BD46     		mov	sp, r7
 554              		@ sp needed
 555 000e 5DF8047B 		ldr	r7, [sp], #4
 556 0012 7047     		bx	lr
 557              	.L45:
 558              		.align	2
 559              	.L44:
 560 0014 2E640040 		.word	1073767470
 561              		.cfi_endproc
 562              	.LFE12:
 563              		.size	Counter_ReadPeriod, .-Counter_ReadPeriod
 564              		.section	.text.Counter_WriteCompare,"ax",%progbits
 565              		.align	2
 566              		.global	Counter_WriteCompare
 567              		.thumb
 568              		.thumb_func
 569              		.type	Counter_WriteCompare, %function
 570              	Counter_WriteCompare:
 571              	.LFB13:
 446:.\Generated_Source\PSoC5/Counter.c **** 
 447:.\Generated_Source\PSoC5/Counter.c **** 
 448:.\Generated_Source\PSoC5/Counter.c **** #if (!Counter_UsingFixedFunction)
 449:.\Generated_Source\PSoC5/Counter.c **** /*******************************************************************************
 450:.\Generated_Source\PSoC5/Counter.c **** * Function Name: Counter_WriteCompare
 451:.\Generated_Source\PSoC5/Counter.c **** ********************************************************************************
 452:.\Generated_Source\PSoC5/Counter.c **** * Summary:
 453:.\Generated_Source\PSoC5/Counter.c **** * Changes the compare value.  The compare output will 
 454:.\Generated_Source\PSoC5/Counter.c **** * reflect the new value on the next UDB clock.  The compare output will be 
 455:.\Generated_Source\PSoC5/Counter.c **** * driven high when the present counter value compares true based on the 
ARM GAS  C:\Users\JOSEAN~1\AppData\Local\Temp\cc3Po8rn.s 			page 19


 456:.\Generated_Source\PSoC5/Counter.c **** * configured compare mode setting. 
 457:.\Generated_Source\PSoC5/Counter.c **** *
 458:.\Generated_Source\PSoC5/Counter.c **** * Parameters:  
 459:.\Generated_Source\PSoC5/Counter.c **** *  Compare:  New compare value. 
 460:.\Generated_Source\PSoC5/Counter.c **** *
 461:.\Generated_Source\PSoC5/Counter.c **** * Return: 
 462:.\Generated_Source\PSoC5/Counter.c **** *  void
 463:.\Generated_Source\PSoC5/Counter.c **** *
 464:.\Generated_Source\PSoC5/Counter.c **** *******************************************************************************/
 465:.\Generated_Source\PSoC5/Counter.c **** void Counter_WriteCompare(uint8 compare) \
 466:.\Generated_Source\PSoC5/Counter.c ****                                    
 467:.\Generated_Source\PSoC5/Counter.c **** {
 572              		.loc 1 467 0
 573              		.cfi_startproc
 574              		@ args = 0, pretend = 0, frame = 8
 575              		@ frame_needed = 1, uses_anonymous_args = 0
 576              		@ link register save eliminated.
 577 0000 80B4     		push	{r7}
 578              		.cfi_def_cfa_offset 4
 579              		.cfi_offset 7, -4
 580 0002 83B0     		sub	sp, sp, #12
 581              		.cfi_def_cfa_offset 16
 582 0004 00AF     		add	r7, sp, #0
 583              		.cfi_def_cfa_register 7
 584 0006 0346     		mov	r3, r0
 585 0008 FB71     		strb	r3, [r7, #7]
 468:.\Generated_Source\PSoC5/Counter.c ****     #if(Counter_UsingFixedFunction)
 469:.\Generated_Source\PSoC5/Counter.c ****         CY_SET_REG16(Counter_COMPARE_LSB_PTR, (uint16)compare);
 470:.\Generated_Source\PSoC5/Counter.c ****     #else
 471:.\Generated_Source\PSoC5/Counter.c ****         CY_SET_REG8(Counter_COMPARE_LSB_PTR, compare);
 586              		.loc 1 471 0
 587 000a 044B     		ldr	r3, .L47
 588 000c FA79     		ldrb	r2, [r7, #7]
 589 000e 1A70     		strb	r2, [r3]
 472:.\Generated_Source\PSoC5/Counter.c ****     #endif /* (Counter_UsingFixedFunction) */
 473:.\Generated_Source\PSoC5/Counter.c **** }
 590              		.loc 1 473 0
 591 0010 0C37     		adds	r7, r7, #12
 592 0012 BD46     		mov	sp, r7
 593              		@ sp needed
 594 0014 5DF8047B 		ldr	r7, [sp], #4
 595 0018 7047     		bx	lr
 596              	.L48:
 597 001a 00BF     		.align	2
 598              	.L47:
 599 001c 3E640040 		.word	1073767486
 600              		.cfi_endproc
 601              	.LFE13:
 602              		.size	Counter_WriteCompare, .-Counter_WriteCompare
 603              		.section	.text.Counter_ReadCompare,"ax",%progbits
 604              		.align	2
 605              		.global	Counter_ReadCompare
 606              		.thumb
 607              		.thumb_func
 608              		.type	Counter_ReadCompare, %function
 609              	Counter_ReadCompare:
 610              	.LFB14:
ARM GAS  C:\Users\JOSEAN~1\AppData\Local\Temp\cc3Po8rn.s 			page 20


 474:.\Generated_Source\PSoC5/Counter.c **** 
 475:.\Generated_Source\PSoC5/Counter.c **** 
 476:.\Generated_Source\PSoC5/Counter.c **** /*******************************************************************************
 477:.\Generated_Source\PSoC5/Counter.c **** * Function Name: Counter_ReadCompare
 478:.\Generated_Source\PSoC5/Counter.c **** ********************************************************************************
 479:.\Generated_Source\PSoC5/Counter.c **** * Summary:
 480:.\Generated_Source\PSoC5/Counter.c **** * Returns the compare value.
 481:.\Generated_Source\PSoC5/Counter.c **** *
 482:.\Generated_Source\PSoC5/Counter.c **** * Parameters:  
 483:.\Generated_Source\PSoC5/Counter.c **** *  void:
 484:.\Generated_Source\PSoC5/Counter.c **** *
 485:.\Generated_Source\PSoC5/Counter.c **** * Return: 
 486:.\Generated_Source\PSoC5/Counter.c **** *  (uint8) Present compare value.
 487:.\Generated_Source\PSoC5/Counter.c **** *
 488:.\Generated_Source\PSoC5/Counter.c **** *******************************************************************************/
 489:.\Generated_Source\PSoC5/Counter.c **** uint8 Counter_ReadCompare(void) 
 490:.\Generated_Source\PSoC5/Counter.c **** {
 611              		.loc 1 490 0
 612              		.cfi_startproc
 613              		@ args = 0, pretend = 0, frame = 0
 614              		@ frame_needed = 1, uses_anonymous_args = 0
 615              		@ link register save eliminated.
 616 0000 80B4     		push	{r7}
 617              		.cfi_def_cfa_offset 4
 618              		.cfi_offset 7, -4
 619 0002 00AF     		add	r7, sp, #0
 620              		.cfi_def_cfa_register 7
 491:.\Generated_Source\PSoC5/Counter.c ****     return (CY_GET_REG8(Counter_COMPARE_LSB_PTR));
 621              		.loc 1 491 0
 622 0004 034B     		ldr	r3, .L51
 623 0006 1B78     		ldrb	r3, [r3]
 624 0008 DBB2     		uxtb	r3, r3
 492:.\Generated_Source\PSoC5/Counter.c **** }
 625              		.loc 1 492 0
 626 000a 1846     		mov	r0, r3
 627 000c BD46     		mov	sp, r7
 628              		@ sp needed
 629 000e 5DF8047B 		ldr	r7, [sp], #4
 630 0012 7047     		bx	lr
 631              	.L52:
 632              		.align	2
 633              	.L51:
 634 0014 3E640040 		.word	1073767486
 635              		.cfi_endproc
 636              	.LFE14:
 637              		.size	Counter_ReadCompare, .-Counter_ReadCompare
 638              		.section	.text.Counter_ClearFIFO,"ax",%progbits
 639              		.align	2
 640              		.global	Counter_ClearFIFO
 641              		.thumb
 642              		.thumb_func
 643              		.type	Counter_ClearFIFO, %function
 644              	Counter_ClearFIFO:
 645              	.LFB15:
 493:.\Generated_Source\PSoC5/Counter.c **** 
 494:.\Generated_Source\PSoC5/Counter.c **** 
 495:.\Generated_Source\PSoC5/Counter.c **** #if (Counter_COMPARE_MODE_SOFTWARE)
ARM GAS  C:\Users\JOSEAN~1\AppData\Local\Temp\cc3Po8rn.s 			page 21


 496:.\Generated_Source\PSoC5/Counter.c **** /*******************************************************************************
 497:.\Generated_Source\PSoC5/Counter.c **** * Function Name: Counter_SetCompareMode
 498:.\Generated_Source\PSoC5/Counter.c **** ********************************************************************************
 499:.\Generated_Source\PSoC5/Counter.c **** * Summary:
 500:.\Generated_Source\PSoC5/Counter.c **** *  Sets the software controlled Compare Mode.
 501:.\Generated_Source\PSoC5/Counter.c **** *
 502:.\Generated_Source\PSoC5/Counter.c **** * Parameters:
 503:.\Generated_Source\PSoC5/Counter.c **** *  compareMode:  Compare Mode Enumerated Type.
 504:.\Generated_Source\PSoC5/Counter.c **** *
 505:.\Generated_Source\PSoC5/Counter.c **** * Return:
 506:.\Generated_Source\PSoC5/Counter.c **** *  void
 507:.\Generated_Source\PSoC5/Counter.c **** *
 508:.\Generated_Source\PSoC5/Counter.c **** *******************************************************************************/
 509:.\Generated_Source\PSoC5/Counter.c **** void Counter_SetCompareMode(uint8 compareMode) 
 510:.\Generated_Source\PSoC5/Counter.c **** {
 511:.\Generated_Source\PSoC5/Counter.c ****     /* Clear the compare mode bits in the control register */
 512:.\Generated_Source\PSoC5/Counter.c ****     Counter_CONTROL &= ((uint8)(~Counter_CTRL_CMPMODE_MASK));
 513:.\Generated_Source\PSoC5/Counter.c ****     
 514:.\Generated_Source\PSoC5/Counter.c ****     /* Write the new setting */
 515:.\Generated_Source\PSoC5/Counter.c ****     Counter_CONTROL |= compareMode;
 516:.\Generated_Source\PSoC5/Counter.c **** }
 517:.\Generated_Source\PSoC5/Counter.c **** #endif  /* (Counter_COMPARE_MODE_SOFTWARE) */
 518:.\Generated_Source\PSoC5/Counter.c **** 
 519:.\Generated_Source\PSoC5/Counter.c **** 
 520:.\Generated_Source\PSoC5/Counter.c **** #if (Counter_CAPTURE_MODE_SOFTWARE)
 521:.\Generated_Source\PSoC5/Counter.c **** /*******************************************************************************
 522:.\Generated_Source\PSoC5/Counter.c **** * Function Name: Counter_SetCaptureMode
 523:.\Generated_Source\PSoC5/Counter.c **** ********************************************************************************
 524:.\Generated_Source\PSoC5/Counter.c **** * Summary:
 525:.\Generated_Source\PSoC5/Counter.c **** *  Sets the software controlled Capture Mode.
 526:.\Generated_Source\PSoC5/Counter.c **** *
 527:.\Generated_Source\PSoC5/Counter.c **** * Parameters:
 528:.\Generated_Source\PSoC5/Counter.c **** *  captureMode:  Capture Mode Enumerated Type.
 529:.\Generated_Source\PSoC5/Counter.c **** *
 530:.\Generated_Source\PSoC5/Counter.c **** * Return:
 531:.\Generated_Source\PSoC5/Counter.c **** *  void
 532:.\Generated_Source\PSoC5/Counter.c **** *
 533:.\Generated_Source\PSoC5/Counter.c **** *******************************************************************************/
 534:.\Generated_Source\PSoC5/Counter.c **** void Counter_SetCaptureMode(uint8 captureMode) 
 535:.\Generated_Source\PSoC5/Counter.c **** {
 536:.\Generated_Source\PSoC5/Counter.c ****     /* Clear the capture mode bits in the control register */
 537:.\Generated_Source\PSoC5/Counter.c ****     Counter_CONTROL &= ((uint8)(~Counter_CTRL_CAPMODE_MASK));
 538:.\Generated_Source\PSoC5/Counter.c ****     
 539:.\Generated_Source\PSoC5/Counter.c ****     /* Write the new setting */
 540:.\Generated_Source\PSoC5/Counter.c ****     Counter_CONTROL |= ((uint8)((uint8)captureMode << Counter_CTRL_CAPMODE0_SHIFT));
 541:.\Generated_Source\PSoC5/Counter.c **** }
 542:.\Generated_Source\PSoC5/Counter.c **** #endif  /* (Counter_CAPTURE_MODE_SOFTWARE) */
 543:.\Generated_Source\PSoC5/Counter.c **** 
 544:.\Generated_Source\PSoC5/Counter.c **** 
 545:.\Generated_Source\PSoC5/Counter.c **** /*******************************************************************************
 546:.\Generated_Source\PSoC5/Counter.c **** * Function Name: Counter_ClearFIFO
 547:.\Generated_Source\PSoC5/Counter.c **** ********************************************************************************
 548:.\Generated_Source\PSoC5/Counter.c **** * Summary:
 549:.\Generated_Source\PSoC5/Counter.c **** *   This function clears all capture data from the capture FIFO
 550:.\Generated_Source\PSoC5/Counter.c **** *
 551:.\Generated_Source\PSoC5/Counter.c **** * Parameters:  
 552:.\Generated_Source\PSoC5/Counter.c **** *  void:
ARM GAS  C:\Users\JOSEAN~1\AppData\Local\Temp\cc3Po8rn.s 			page 22


 553:.\Generated_Source\PSoC5/Counter.c **** *
 554:.\Generated_Source\PSoC5/Counter.c **** * Return: 
 555:.\Generated_Source\PSoC5/Counter.c **** *  None
 556:.\Generated_Source\PSoC5/Counter.c **** *
 557:.\Generated_Source\PSoC5/Counter.c **** *******************************************************************************/
 558:.\Generated_Source\PSoC5/Counter.c **** void Counter_ClearFIFO(void) 
 559:.\Generated_Source\PSoC5/Counter.c **** {
 646              		.loc 1 559 0
 647              		.cfi_startproc
 648              		@ args = 0, pretend = 0, frame = 0
 649              		@ frame_needed = 1, uses_anonymous_args = 0
 650 0000 80B5     		push	{r7, lr}
 651              		.cfi_def_cfa_offset 8
 652              		.cfi_offset 7, -8
 653              		.cfi_offset 14, -4
 654 0002 00AF     		add	r7, sp, #0
 655              		.cfi_def_cfa_register 7
 560:.\Generated_Source\PSoC5/Counter.c **** 
 561:.\Generated_Source\PSoC5/Counter.c ****     while(0u != (Counter_ReadStatusRegister() & Counter_STATUS_FIFONEMP))
 656              		.loc 1 561 0
 657 0004 01E0     		b	.L54
 658              	.L55:
 562:.\Generated_Source\PSoC5/Counter.c ****     {
 563:.\Generated_Source\PSoC5/Counter.c ****         (void)Counter_ReadCapture();
 659              		.loc 1 563 0
 660 0006 FFF7FEFF 		bl	Counter_ReadCapture
 661              	.L54:
 561:.\Generated_Source\PSoC5/Counter.c ****     while(0u != (Counter_ReadStatusRegister() & Counter_STATUS_FIFONEMP))
 662              		.loc 1 561 0 discriminator 1
 663 000a FFF7FEFF 		bl	Counter_ReadStatusRegister
 664 000e 0346     		mov	r3, r0
 665 0010 03F04003 		and	r3, r3, #64
 666 0014 002B     		cmp	r3, #0
 667 0016 F6D1     		bne	.L55
 564:.\Generated_Source\PSoC5/Counter.c ****     }
 565:.\Generated_Source\PSoC5/Counter.c **** 
 566:.\Generated_Source\PSoC5/Counter.c **** }
 668              		.loc 1 566 0
 669 0018 80BD     		pop	{r7, pc}
 670              		.cfi_endproc
 671              	.LFE15:
 672              		.size	Counter_ClearFIFO, .-Counter_ClearFIFO
 673 001a 00BF     		.text
 674              	.Letext0:
 675              		.file 2 ".\\Generated_Source\\PSoC5\\cytypes.h"
