ARM GAS  C:\Users\JOSEAN~1\AppData\Local\Temp\ccIzeLPC.s 			page 1


   1              		.syntax unified
   2              		.cpu cortex-m3
   3              		.fpu softvfp
   4              		.eabi_attribute 20, 1
   5              		.eabi_attribute 21, 1
   6              		.eabi_attribute 23, 3
   7              		.eabi_attribute 24, 1
   8              		.eabi_attribute 25, 1
   9              		.eabi_attribute 26, 1
  10              		.eabi_attribute 30, 6
  11              		.eabi_attribute 34, 1
  12              		.eabi_attribute 18, 4
  13              		.thumb
  14              		.file	"main.c"
  15              		.text
  16              	.Ltext0:
  17              		.cfi_sections	.debug_frame
  18              		.section	.text.InterruptC,"ax",%progbits
  19              		.align	2
  20              		.global	InterruptC
  21              		.thumb
  22              		.thumb_func
  23              		.type	InterruptC, %function
  24              	InterruptC:
  25              	.LFB56:
  26              		.file 1 ".\\main.c"
   1:.\main.c      **** /* ========================================
   2:.\main.c      **** *Manejo de INTERRUPCIONES
   3:.\main.c      **** * Al pulsar 4 veces un botón queremos que se active una interrupción
   4:.\main.c      **** * que activará el Timer y mantendrá encendido un LED durante un tiempo
   5:.\main.c      ****  * ========================================
   6:.\main.c      **** */
   7:.\main.c      **** #include <project.h>
   8:.\main.c      **** 
   9:.\main.c      **** CY_ISR(InterruptC){ //Cuando se ha pulsado el botón 4 veces se activa esta interrupción
  27              		.loc 1 9 0
  28              		.cfi_startproc
  29              		@ args = 0, pretend = 0, frame = 0
  30              		@ frame_needed = 1, uses_anonymous_args = 0
  31 0000 80B5     		push	{r7, lr}
  32              		.cfi_def_cfa_offset 8
  33              		.cfi_offset 7, -8
  34              		.cfi_offset 14, -4
  35 0002 00AF     		add	r7, sp, #0
  36              		.cfi_def_cfa_register 7
  10:.\main.c      ****     LED_Write(1); //Encendemos LED
  37              		.loc 1 10 0
  38 0004 0120     		movs	r0, #1
  39 0006 FFF7FEFF 		bl	LED_Write
  11:.\main.c      ****     Timer_Start(); //Activamos el Timer
  40              		.loc 1 11 0
  41 000a FFF7FEFF 		bl	Timer_Start
  12:.\main.c      **** }
  42              		.loc 1 12 0
  43 000e 80BD     		pop	{r7, pc}
  44              		.cfi_endproc
  45              	.LFE56:
ARM GAS  C:\Users\JOSEAN~1\AppData\Local\Temp\ccIzeLPC.s 			page 2


  46              		.size	InterruptC, .-InterruptC
  47              		.section	.text.InterruptT,"ax",%progbits
  48              		.align	2
  49              		.global	InterruptT
  50              		.thumb
  51              		.thumb_func
  52              		.type	InterruptT, %function
  53              	InterruptT:
  54              	.LFB57:
  13:.\main.c      **** 
  14:.\main.c      **** CY_ISR(InterruptT){ //Cuando acaba el Timer
  55              		.loc 1 14 0
  56              		.cfi_startproc
  57              		@ args = 0, pretend = 0, frame = 0
  58              		@ frame_needed = 1, uses_anonymous_args = 0
  59 0000 80B5     		push	{r7, lr}
  60              		.cfi_def_cfa_offset 8
  61              		.cfi_offset 7, -8
  62              		.cfi_offset 14, -4
  63 0002 00AF     		add	r7, sp, #0
  64              		.cfi_def_cfa_register 7
  15:.\main.c      ****     LED_Write(0); //Apagamos el LED
  65              		.loc 1 15 0
  66 0004 0020     		movs	r0, #0
  67 0006 FFF7FEFF 		bl	LED_Write
  16:.\main.c      ****     Counter_Stop(); //Paramos contador
  68              		.loc 1 16 0
  69 000a FFF7FEFF 		bl	Counter_Stop
  17:.\main.c      ****     Timer_Stop(); //Apagamos Timer
  70              		.loc 1 17 0
  71 000e FFF7FEFF 		bl	Timer_Stop
  18:.\main.c      ****     
  19:.\main.c      ****    // Counter_WritePeriod(4);//Escribimos el periodo del contador
  20:.\main.c      ****    // Timer_WritePeriod(48000000);//Escribimos el período del Timer
  21:.\main.c      ****     
  22:.\main.c      ****      Counter_Start(); //Volvemos a encender el contador, que es el que inicializa el programa
  72              		.loc 1 22 0
  73 0012 FFF7FEFF 		bl	Counter_Start
  23:.\main.c      **** }
  74              		.loc 1 23 0
  75 0016 80BD     		pop	{r7, pc}
  76              		.cfi_endproc
  77              	.LFE57:
  78              		.size	InterruptT, .-InterruptT
  79              		.section	.text.main,"ax",%progbits
  80              		.align	2
  81              		.global	main
  82              		.thumb
  83              		.thumb_func
  84              		.type	main, %function
  85              	main:
  86              	.LFB58:
  24:.\main.c      **** 
  25:.\main.c      **** int main()
  26:.\main.c      **** {
  87              		.loc 1 26 0
  88              		.cfi_startproc
ARM GAS  C:\Users\JOSEAN~1\AppData\Local\Temp\ccIzeLPC.s 			page 3


  89              		@ args = 0, pretend = 0, frame = 0
  90              		@ frame_needed = 1, uses_anonymous_args = 0
  91 0000 80B5     		push	{r7, lr}
  92              		.cfi_def_cfa_offset 8
  93              		.cfi_offset 7, -8
  94              		.cfi_offset 14, -4
  95 0002 00AF     		add	r7, sp, #0
  96              		.cfi_def_cfa_register 7
  27:.\main.c      ****     /* Place your initialization/startup code here (e.g. MyInst_Start()) */
  28:.\main.c      **** 
  29:.\main.c      ****     CyGlobalIntEnable; /* Uncomment this line to enable global interrupts. */
  97              		.loc 1 29 0
  98              	@ 29 ".\main.c" 1
  99 0004 62B6     		CPSIE   i
 100              	@ 0 "" 2
  30:.\main.c      ****     
  31:.\main.c      ****    // Clock1_Start(); //Iniciamos relojes
  32:.\main.c      ****     //BUS_CLK_Start();
  33:.\main.c      ****     
  34:.\main.c      ****     Counter_Start(); //Encendemos contador
 101              		.loc 1 34 0
 102              		.thumb
 103 0006 FFF7FEFF 		bl	Counter_Start
  35:.\main.c      ****     isrC_StartEx(InterruptC);
 104              		.loc 1 35 0
 105 000a 0348     		ldr	r0, .L5
 106 000c FFF7FEFF 		bl	isrC_StartEx
  36:.\main.c      ****     isrT_StartEx(InterruptT);
 107              		.loc 1 36 0
 108 0010 0248     		ldr	r0, .L5+4
 109 0012 FFF7FEFF 		bl	isrT_StartEx
 110              	.L4:
  37:.\main.c      ****     
  38:.\main.c      ****     for(;;)
  39:.\main.c      ****     {
  40:.\main.c      ****         /* Place your application code here. */
  41:.\main.c      ****     }
 111              		.loc 1 41 0 discriminator 1
 112 0016 FEE7     		b	.L4
 113              	.L6:
 114              		.align	2
 115              	.L5:
 116 0018 00000000 		.word	InterruptC
 117 001c 00000000 		.word	InterruptT
 118              		.cfi_endproc
 119              	.LFE58:
 120              		.size	main, .-main
 121              		.text
 122              	.Letext0:
 123              		.file 2 "c:\\program files (x86)\\cypress\\psoc creator\\3.1\\psoc creator\\import\\gnu_cs\\arm\\4
 124              		.file 3 "c:\\program files (x86)\\cypress\\psoc creator\\3.1\\psoc creator\\import\\gnu_cs\\arm\\4
 125              		.file 4 ".\\Generated_Source\\PSoC5/core_cm3.h"
