ARM GAS  C:\Users\JOSEAN~1\AppData\Local\Temp\ccL29UpK.s 			page 1


   1              		.syntax unified
   2              		.cpu cortex-m3
   3              		.fpu softvfp
   4              		.eabi_attribute 20, 1
   5              		.eabi_attribute 21, 1
   6              		.eabi_attribute 23, 3
   7              		.eabi_attribute 24, 1
   8              		.eabi_attribute 25, 1
   9              		.eabi_attribute 26, 1
  10              		.eabi_attribute 30, 6
  11              		.eabi_attribute 34, 1
  12              		.eabi_attribute 18, 4
  13              		.thumb
  14              		.syntax unified
  15              		.file	"WaveDAC8_1.c"
  16              		.text
  17              	.Ltext0:
  18              		.cfi_sections	.debug_frame
  19              		.global	WaveDAC8_1_initVar
  20              		.bss
  21              		.type	WaveDAC8_1_initVar, %object
  22              		.size	WaveDAC8_1_initVar, 1
  23              	WaveDAC8_1_initVar:
  24 0000 00       		.space	1
  25              		.global	WaveDAC8_1_wave1
  26              		.section	.rodata
  27              		.align	2
  28              		.type	WaveDAC8_1_wave1, %object
  29              		.size	WaveDAC8_1_wave1, 100
  30              	WaveDAC8_1_wave1:
  31 0000 80       		.byte	-128
  32 0001 87       		.byte	-121
  33 0002 8F       		.byte	-113
  34 0003 97       		.byte	-105
  35 0004 9F       		.byte	-97
  36 0005 A6       		.byte	-90
  37 0006 AE       		.byte	-82
  38 0007 B5       		.byte	-75
  39 0008 BC       		.byte	-68
  40 0009 C2       		.byte	-62
  41 000a C9       		.byte	-55
  42 000b CF       		.byte	-49
  43 000c D5       		.byte	-43
  44 000d DB       		.byte	-37
  45 000e E0       		.byte	-32
  46 000f E5       		.byte	-27
  47 0010 E9       		.byte	-23
  48 0011 ED       		.byte	-19
  49 0012 F1       		.byte	-15
  50 0013 F4       		.byte	-12
  51 0014 F6       		.byte	-10
  52 0015 F9       		.byte	-7
  53 0016 FA       		.byte	-6
  54 0017 FC       		.byte	-4
  55 0018 FC       		.byte	-4
  56 0019 FC       		.byte	-4
  57 001a FC       		.byte	-4
ARM GAS  C:\Users\JOSEAN~1\AppData\Local\Temp\ccL29UpK.s 			page 2


  58 001b FC       		.byte	-4
  59 001c FA       		.byte	-6
  60 001d F9       		.byte	-7
  61 001e F6       		.byte	-10
  62 001f F4       		.byte	-12
  63 0020 F1       		.byte	-15
  64 0021 ED       		.byte	-19
  65 0022 E9       		.byte	-23
  66 0023 E5       		.byte	-27
  67 0024 E0       		.byte	-32
  68 0025 DB       		.byte	-37
  69 0026 D5       		.byte	-43
  70 0027 CF       		.byte	-49
  71 0028 C9       		.byte	-55
  72 0029 C2       		.byte	-62
  73 002a BC       		.byte	-68
  74 002b B5       		.byte	-75
  75 002c AE       		.byte	-82
  76 002d A6       		.byte	-90
  77 002e 9F       		.byte	-97
  78 002f 97       		.byte	-105
  79 0030 8F       		.byte	-113
  80 0031 87       		.byte	-121
  81 0032 80       		.byte	-128
  82 0033 78       		.byte	120
  83 0034 70       		.byte	112
  84 0035 68       		.byte	104
  85 0036 60       		.byte	96
  86 0037 59       		.byte	89
  87 0038 51       		.byte	81
  88 0039 4A       		.byte	74
  89 003a 43       		.byte	67
  90 003b 3D       		.byte	61
  91 003c 36       		.byte	54
  92 003d 30       		.byte	48
  93 003e 2A       		.byte	42
  94 003f 24       		.byte	36
  95 0040 1F       		.byte	31
  96 0041 1A       		.byte	26
  97 0042 16       		.byte	22
  98 0043 12       		.byte	18
  99 0044 0E       		.byte	14
 100 0045 0B       		.byte	11
 101 0046 09       		.byte	9
 102 0047 06       		.byte	6
 103 0048 05       		.byte	5
 104 0049 03       		.byte	3
 105 004a 03       		.byte	3
 106 004b 03       		.byte	3
 107 004c 03       		.byte	3
 108 004d 03       		.byte	3
 109 004e 05       		.byte	5
 110 004f 06       		.byte	6
 111 0050 09       		.byte	9
 112 0051 0B       		.byte	11
 113 0052 0E       		.byte	14
 114 0053 12       		.byte	18
ARM GAS  C:\Users\JOSEAN~1\AppData\Local\Temp\ccL29UpK.s 			page 3


 115 0054 16       		.byte	22
 116 0055 1A       		.byte	26
 117 0056 1F       		.byte	31
 118 0057 24       		.byte	36
 119 0058 2A       		.byte	42
 120 0059 30       		.byte	48
 121 005a 36       		.byte	54
 122 005b 3D       		.byte	61
 123 005c 43       		.byte	67
 124 005d 4A       		.byte	74
 125 005e 51       		.byte	81
 126 005f 59       		.byte	89
 127 0060 60       		.byte	96
 128 0061 68       		.byte	104
 129 0062 70       		.byte	112
 130 0063 78       		.byte	120
 131              		.global	WaveDAC8_1_wave2
 132              		.align	2
 133              		.type	WaveDAC8_1_wave2, %object
 134              		.size	WaveDAC8_1_wave2, 50
 135              	WaveDAC8_1_wave2:
 136 0064 80       		.byte	-128
 137 0065 90       		.byte	-112
 138 0066 9F       		.byte	-97
 139 0067 AE       		.byte	-82
 140 0068 BC       		.byte	-68
 141 0069 C9       		.byte	-55
 142 006a D6       		.byte	-42
 143 006b E0       		.byte	-32
 144 006c EA       		.byte	-22
 145 006d F1       		.byte	-15
 146 006e F7       		.byte	-9
 147 006f FB       		.byte	-5
 148 0070 FD       		.byte	-3
 149 0071 FD       		.byte	-3
 150 0072 FB       		.byte	-5
 151 0073 F7       		.byte	-9
 152 0074 F1       		.byte	-15
 153 0075 EA       		.byte	-22
 154 0076 E0       		.byte	-32
 155 0077 D6       		.byte	-42
 156 0078 C9       		.byte	-55
 157 0079 BC       		.byte	-68
 158 007a AE       		.byte	-82
 159 007b 9F       		.byte	-97
 160 007c 90       		.byte	-112
 161 007d 80       		.byte	-128
 162 007e 70       		.byte	112
 163 007f 61       		.byte	97
 164 0080 52       		.byte	82
 165 0081 44       		.byte	68
 166 0082 37       		.byte	55
 167 0083 2A       		.byte	42
 168 0084 20       		.byte	32
 169 0085 16       		.byte	22
 170 0086 0F       		.byte	15
 171 0087 09       		.byte	9
ARM GAS  C:\Users\JOSEAN~1\AppData\Local\Temp\ccL29UpK.s 			page 4


 172 0088 05       		.byte	5
 173 0089 03       		.byte	3
 174 008a 03       		.byte	3
 175 008b 05       		.byte	5
 176 008c 09       		.byte	9
 177 008d 0F       		.byte	15
 178 008e 16       		.byte	22
 179 008f 20       		.byte	32
 180 0090 2A       		.byte	42
 181 0091 37       		.byte	55
 182 0092 44       		.byte	68
 183 0093 52       		.byte	82
 184 0094 61       		.byte	97
 185 0095 70       		.byte	112
 186              		.bss
 187              	WaveDAC8_1_Wave1Chan:
 188 0001 00       		.space	1
 189              	WaveDAC8_1_Wave2Chan:
 190 0002 00       		.space	1
 191              	WaveDAC8_1_Wave1TD:
 192 0003 00       		.space	1
 193              	WaveDAC8_1_Wave2TD:
 194 0004 00       		.space	1
 195              		.section	.text.WaveDAC8_1_Init,"ax",%progbits
 196              		.align	2
 197              		.global	WaveDAC8_1_Init
 198              		.thumb
 199              		.thumb_func
 200              		.type	WaveDAC8_1_Init, %function
 201              	WaveDAC8_1_Init:
 202              	.LFB0:
 203              		.file 1 "Generated_Source\\PSoC5\\WaveDAC8_1.c"
   1:Generated_Source\PSoC5/WaveDAC8_1.c **** /*******************************************************************************
   2:Generated_Source\PSoC5/WaveDAC8_1.c **** * File Name: WaveDAC8_1.c
   3:Generated_Source\PSoC5/WaveDAC8_1.c **** * Version 2.10
   4:Generated_Source\PSoC5/WaveDAC8_1.c **** *
   5:Generated_Source\PSoC5/WaveDAC8_1.c **** * Description:
   6:Generated_Source\PSoC5/WaveDAC8_1.c **** *  This file provides the source code for the 8-bit Waveform DAC 
   7:Generated_Source\PSoC5/WaveDAC8_1.c **** *  (WaveDAC8) Component.
   8:Generated_Source\PSoC5/WaveDAC8_1.c **** *
   9:Generated_Source\PSoC5/WaveDAC8_1.c **** ********************************************************************************
  10:Generated_Source\PSoC5/WaveDAC8_1.c **** * Copyright 2013, Cypress Semiconductor Corporation.  All rights reserved.
  11:Generated_Source\PSoC5/WaveDAC8_1.c **** * You may use this file only in accordance with the license, terms, conditions,
  12:Generated_Source\PSoC5/WaveDAC8_1.c **** * disclaimers, and limitations in the end user license agreement accompanying
  13:Generated_Source\PSoC5/WaveDAC8_1.c **** * the software package with which this file was provided.
  14:Generated_Source\PSoC5/WaveDAC8_1.c **** *******************************************************************************/
  15:Generated_Source\PSoC5/WaveDAC8_1.c **** 
  16:Generated_Source\PSoC5/WaveDAC8_1.c **** #include "WaveDAC8_1.h"
  17:Generated_Source\PSoC5/WaveDAC8_1.c **** 
  18:Generated_Source\PSoC5/WaveDAC8_1.c **** uint8  WaveDAC8_1_initVar = 0u;
  19:Generated_Source\PSoC5/WaveDAC8_1.c **** 
  20:Generated_Source\PSoC5/WaveDAC8_1.c **** const uint8 CYCODE WaveDAC8_1_wave1[WaveDAC8_1_WAVE1_LENGTH] = { 128u,135u,143u,151u,159u,166u,174u
  21:Generated_Source\PSoC5/WaveDAC8_1.c **** const uint8 CYCODE WaveDAC8_1_wave2[WaveDAC8_1_WAVE2_LENGTH] = {  128,144,159,174,188,201,214,224,2
  22:Generated_Source\PSoC5/WaveDAC8_1.c **** 
  23:Generated_Source\PSoC5/WaveDAC8_1.c **** static uint8  WaveDAC8_1_Wave1Chan;
  24:Generated_Source\PSoC5/WaveDAC8_1.c **** static uint8  WaveDAC8_1_Wave2Chan;
  25:Generated_Source\PSoC5/WaveDAC8_1.c **** static uint8  WaveDAC8_1_Wave1TD;
ARM GAS  C:\Users\JOSEAN~1\AppData\Local\Temp\ccL29UpK.s 			page 5


  26:Generated_Source\PSoC5/WaveDAC8_1.c **** static uint8  WaveDAC8_1_Wave2TD;
  27:Generated_Source\PSoC5/WaveDAC8_1.c **** 
  28:Generated_Source\PSoC5/WaveDAC8_1.c **** 
  29:Generated_Source\PSoC5/WaveDAC8_1.c **** /*******************************************************************************
  30:Generated_Source\PSoC5/WaveDAC8_1.c **** * Function Name: WaveDAC8_1_Init
  31:Generated_Source\PSoC5/WaveDAC8_1.c **** ********************************************************************************
  32:Generated_Source\PSoC5/WaveDAC8_1.c **** *
  33:Generated_Source\PSoC5/WaveDAC8_1.c **** * Summary:
  34:Generated_Source\PSoC5/WaveDAC8_1.c **** *  Initializes component with parameters set in the customizer.
  35:Generated_Source\PSoC5/WaveDAC8_1.c **** *
  36:Generated_Source\PSoC5/WaveDAC8_1.c **** * Parameters:  
  37:Generated_Source\PSoC5/WaveDAC8_1.c **** *  None
  38:Generated_Source\PSoC5/WaveDAC8_1.c **** *
  39:Generated_Source\PSoC5/WaveDAC8_1.c **** * Return: 
  40:Generated_Source\PSoC5/WaveDAC8_1.c **** *  None
  41:Generated_Source\PSoC5/WaveDAC8_1.c **** *
  42:Generated_Source\PSoC5/WaveDAC8_1.c **** *******************************************************************************/
  43:Generated_Source\PSoC5/WaveDAC8_1.c **** void WaveDAC8_1_Init(void) 
  44:Generated_Source\PSoC5/WaveDAC8_1.c **** {
 204              		.loc 1 44 0
 205              		.cfi_startproc
 206              		@ args = 0, pretend = 0, frame = 0
 207              		@ frame_needed = 1, uses_anonymous_args = 0
 208 0000 80B5     		push	{r7, lr}
 209              		.cfi_def_cfa_offset 8
 210              		.cfi_offset 7, -8
 211              		.cfi_offset 14, -4
 212 0002 00AF     		add	r7, sp, #0
 213              		.cfi_def_cfa_register 7
  45:Generated_Source\PSoC5/WaveDAC8_1.c **** 	WaveDAC8_1_VDAC8_Init();
 214              		.loc 1 45 0
 215 0004 FFF7FEFF 		bl	WaveDAC8_1_VDAC8_Init
  46:Generated_Source\PSoC5/WaveDAC8_1.c **** 	WaveDAC8_1_VDAC8_SetSpeed(WaveDAC8_1_HIGHSPEED);
 216              		.loc 1 46 0
 217 0008 0220     		movs	r0, #2
 218 000a FFF7FEFF 		bl	WaveDAC8_1_VDAC8_SetSpeed
  47:Generated_Source\PSoC5/WaveDAC8_1.c **** 	WaveDAC8_1_VDAC8_SetRange(WaveDAC8_1_DAC_RANGE);
 219              		.loc 1 47 0
 220 000e 0020     		movs	r0, #0
 221 0010 FFF7FEFF 		bl	WaveDAC8_1_VDAC8_SetRange
  48:Generated_Source\PSoC5/WaveDAC8_1.c **** 
  49:Generated_Source\PSoC5/WaveDAC8_1.c **** 	#if(WaveDAC8_1_DAC_MODE == WaveDAC8_1_CURRENT_MODE)
  50:Generated_Source\PSoC5/WaveDAC8_1.c **** 		WaveDAC8_1_IDAC8_SetPolarity(WaveDAC8_1_DAC_POL);
  51:Generated_Source\PSoC5/WaveDAC8_1.c **** 	#endif /* WaveDAC8_1_DAC_MODE == WaveDAC8_1_CURRENT_MODE */
  52:Generated_Source\PSoC5/WaveDAC8_1.c **** 
  53:Generated_Source\PSoC5/WaveDAC8_1.c **** 	#if(WaveDAC8_1_OUT_MODE == WaveDAC8_1_BUFFER_MODE)
  54:Generated_Source\PSoC5/WaveDAC8_1.c **** 	   WaveDAC8_1_BuffAmp_Init();
 222              		.loc 1 54 0
 223 0014 FFF7FEFF 		bl	WaveDAC8_1_BuffAmp_Init
  55:Generated_Source\PSoC5/WaveDAC8_1.c **** 	#endif /* WaveDAC8_1_OUT_MODE == WaveDAC8_1_BUFFER_MODE */
  56:Generated_Source\PSoC5/WaveDAC8_1.c **** 
  57:Generated_Source\PSoC5/WaveDAC8_1.c **** 	/* Get the TD Number for the DMA channel 1 and 2   */
  58:Generated_Source\PSoC5/WaveDAC8_1.c **** 	WaveDAC8_1_Wave1TD = CyDmaTdAllocate();
 224              		.loc 1 58 0
 225 0018 FFF7FEFF 		bl	CyDmaTdAllocate
 226 001c 0346     		mov	r3, r0
 227 001e 1A46     		mov	r2, r3
ARM GAS  C:\Users\JOSEAN~1\AppData\Local\Temp\ccL29UpK.s 			page 6


 228 0020 084B     		ldr	r3, .L2
 229 0022 1A70     		strb	r2, [r3]
  59:Generated_Source\PSoC5/WaveDAC8_1.c **** 	WaveDAC8_1_Wave2TD = CyDmaTdAllocate();
 230              		.loc 1 59 0
 231 0024 FFF7FEFF 		bl	CyDmaTdAllocate
 232 0028 0346     		mov	r3, r0
 233 002a 1A46     		mov	r2, r3
 234 002c 064B     		ldr	r3, .L2+4
 235 002e 1A70     		strb	r2, [r3]
  60:Generated_Source\PSoC5/WaveDAC8_1.c **** 	
  61:Generated_Source\PSoC5/WaveDAC8_1.c **** 	/* Initialize waveform pointers  */
  62:Generated_Source\PSoC5/WaveDAC8_1.c **** 	WaveDAC8_1_Wave1Setup(WaveDAC8_1_wave1, WaveDAC8_1_WAVE1_LENGTH) ;
 236              		.loc 1 62 0
 237 0030 6421     		movs	r1, #100
 238 0032 0648     		ldr	r0, .L2+8
 239 0034 FFF7FEFF 		bl	WaveDAC8_1_Wave1Setup
  63:Generated_Source\PSoC5/WaveDAC8_1.c **** 	WaveDAC8_1_Wave2Setup(WaveDAC8_1_wave2, WaveDAC8_1_WAVE2_LENGTH) ;
 240              		.loc 1 63 0
 241 0038 3221     		movs	r1, #50
 242 003a 0548     		ldr	r0, .L2+12
 243 003c FFF7FEFF 		bl	WaveDAC8_1_Wave2Setup
  64:Generated_Source\PSoC5/WaveDAC8_1.c **** 	
  65:Generated_Source\PSoC5/WaveDAC8_1.c **** 	/* Initialize the internal clock if one present  */
  66:Generated_Source\PSoC5/WaveDAC8_1.c **** 	#if defined(WaveDAC8_1_DacClk_PHASE)
  67:Generated_Source\PSoC5/WaveDAC8_1.c **** 	   WaveDAC8_1_DacClk_SetPhase(WaveDAC8_1_CLK_PHASE_0nS);
  68:Generated_Source\PSoC5/WaveDAC8_1.c **** 	#endif /* defined(WaveDAC8_1_DacClk_PHASE) */
  69:Generated_Source\PSoC5/WaveDAC8_1.c **** }
 244              		.loc 1 69 0
 245 0040 00BF     		nop
 246 0042 80BD     		pop	{r7, pc}
 247              	.L3:
 248              		.align	2
 249              	.L2:
 250 0044 03000000 		.word	WaveDAC8_1_Wave1TD
 251 0048 04000000 		.word	WaveDAC8_1_Wave2TD
 252 004c 00000000 		.word	WaveDAC8_1_wave1
 253 0050 00000000 		.word	WaveDAC8_1_wave2
 254              		.cfi_endproc
 255              	.LFE0:
 256              		.size	WaveDAC8_1_Init, .-WaveDAC8_1_Init
 257              		.section	.text.WaveDAC8_1_Enable,"ax",%progbits
 258              		.align	2
 259              		.global	WaveDAC8_1_Enable
 260              		.thumb
 261              		.thumb_func
 262              		.type	WaveDAC8_1_Enable, %function
 263              	WaveDAC8_1_Enable:
 264              	.LFB1:
  70:Generated_Source\PSoC5/WaveDAC8_1.c **** 
  71:Generated_Source\PSoC5/WaveDAC8_1.c **** 
  72:Generated_Source\PSoC5/WaveDAC8_1.c **** /*******************************************************************************
  73:Generated_Source\PSoC5/WaveDAC8_1.c **** * Function Name: WaveDAC8_1_Enable
  74:Generated_Source\PSoC5/WaveDAC8_1.c **** ********************************************************************************
  75:Generated_Source\PSoC5/WaveDAC8_1.c **** *  
  76:Generated_Source\PSoC5/WaveDAC8_1.c **** * Summary: 
  77:Generated_Source\PSoC5/WaveDAC8_1.c **** *  Enables the DAC block and DMA operation.
  78:Generated_Source\PSoC5/WaveDAC8_1.c **** *
ARM GAS  C:\Users\JOSEAN~1\AppData\Local\Temp\ccL29UpK.s 			page 7


  79:Generated_Source\PSoC5/WaveDAC8_1.c **** * Parameters:  
  80:Generated_Source\PSoC5/WaveDAC8_1.c **** *  None
  81:Generated_Source\PSoC5/WaveDAC8_1.c **** *
  82:Generated_Source\PSoC5/WaveDAC8_1.c **** * Return: 
  83:Generated_Source\PSoC5/WaveDAC8_1.c **** *  None
  84:Generated_Source\PSoC5/WaveDAC8_1.c **** *
  85:Generated_Source\PSoC5/WaveDAC8_1.c **** *******************************************************************************/
  86:Generated_Source\PSoC5/WaveDAC8_1.c **** void WaveDAC8_1_Enable(void) 
  87:Generated_Source\PSoC5/WaveDAC8_1.c **** {
 265              		.loc 1 87 0
 266              		.cfi_startproc
 267              		@ args = 0, pretend = 0, frame = 0
 268              		@ frame_needed = 1, uses_anonymous_args = 0
 269 0000 80B5     		push	{r7, lr}
 270              		.cfi_def_cfa_offset 8
 271              		.cfi_offset 7, -8
 272              		.cfi_offset 14, -4
 273 0002 00AF     		add	r7, sp, #0
 274              		.cfi_def_cfa_register 7
  88:Generated_Source\PSoC5/WaveDAC8_1.c **** 	WaveDAC8_1_VDAC8_Enable();
 275              		.loc 1 88 0
 276 0004 FFF7FEFF 		bl	WaveDAC8_1_VDAC8_Enable
  89:Generated_Source\PSoC5/WaveDAC8_1.c **** 
  90:Generated_Source\PSoC5/WaveDAC8_1.c **** 	#if(WaveDAC8_1_OUT_MODE == WaveDAC8_1_BUFFER_MODE)
  91:Generated_Source\PSoC5/WaveDAC8_1.c **** 	   WaveDAC8_1_BuffAmp_Enable();
 277              		.loc 1 91 0
 278 0008 FFF7FEFF 		bl	WaveDAC8_1_BuffAmp_Enable
  92:Generated_Source\PSoC5/WaveDAC8_1.c **** 	#endif /* WaveDAC8_1_OUT_MODE == WaveDAC8_1_BUFFER_MODE */
  93:Generated_Source\PSoC5/WaveDAC8_1.c **** 
  94:Generated_Source\PSoC5/WaveDAC8_1.c **** 	/* 
  95:Generated_Source\PSoC5/WaveDAC8_1.c **** 	* Enable the channel. It is configured to remember the TD value so that
  96:Generated_Source\PSoC5/WaveDAC8_1.c **** 	* it can be restored from the place where it has been stopped.
  97:Generated_Source\PSoC5/WaveDAC8_1.c **** 	*/
  98:Generated_Source\PSoC5/WaveDAC8_1.c **** 	(void)CyDmaChEnable(WaveDAC8_1_Wave1Chan, 1u);
 279              		.loc 1 98 0
 280 000c 094B     		ldr	r3, .L5
 281 000e 1B78     		ldrb	r3, [r3]	@ zero_extendqisi2
 282 0010 0121     		movs	r1, #1
 283 0012 1846     		mov	r0, r3
 284 0014 FFF7FEFF 		bl	CyDmaChEnable
  99:Generated_Source\PSoC5/WaveDAC8_1.c **** 	(void)CyDmaChEnable(WaveDAC8_1_Wave2Chan, 1u);
 285              		.loc 1 99 0
 286 0018 074B     		ldr	r3, .L5+4
 287 001a 1B78     		ldrb	r3, [r3]	@ zero_extendqisi2
 288 001c 0121     		movs	r1, #1
 289 001e 1846     		mov	r0, r3
 290 0020 FFF7FEFF 		bl	CyDmaChEnable
 100:Generated_Source\PSoC5/WaveDAC8_1.c **** 	
 101:Generated_Source\PSoC5/WaveDAC8_1.c **** 	/* set the initial value */
 102:Generated_Source\PSoC5/WaveDAC8_1.c **** 	WaveDAC8_1_SetValue(0u);
 291              		.loc 1 102 0
 292 0024 0020     		movs	r0, #0
 293 0026 FFF7FEFF 		bl	WaveDAC8_1_VDAC8_SetValue
 103:Generated_Source\PSoC5/WaveDAC8_1.c **** 	
 104:Generated_Source\PSoC5/WaveDAC8_1.c **** 	#if(WaveDAC8_1_CLOCK_SRC == WaveDAC8_1_CLOCK_INT)  	
 105:Generated_Source\PSoC5/WaveDAC8_1.c **** 	   WaveDAC8_1_DacClk_Start();
 294              		.loc 1 105 0
ARM GAS  C:\Users\JOSEAN~1\AppData\Local\Temp\ccL29UpK.s 			page 8


 295 002a FFF7FEFF 		bl	WaveDAC8_1_DacClk_Start
 106:Generated_Source\PSoC5/WaveDAC8_1.c **** 	#endif /* WaveDAC8_1_CLOCK_SRC == WaveDAC8_1_CLOCK_INT */
 107:Generated_Source\PSoC5/WaveDAC8_1.c **** }
 296              		.loc 1 107 0
 297 002e 00BF     		nop
 298 0030 80BD     		pop	{r7, pc}
 299              	.L6:
 300 0032 00BF     		.align	2
 301              	.L5:
 302 0034 01000000 		.word	WaveDAC8_1_Wave1Chan
 303 0038 02000000 		.word	WaveDAC8_1_Wave2Chan
 304              		.cfi_endproc
 305              	.LFE1:
 306              		.size	WaveDAC8_1_Enable, .-WaveDAC8_1_Enable
 307              		.section	.text.WaveDAC8_1_Start,"ax",%progbits
 308              		.align	2
 309              		.global	WaveDAC8_1_Start
 310              		.thumb
 311              		.thumb_func
 312              		.type	WaveDAC8_1_Start, %function
 313              	WaveDAC8_1_Start:
 314              	.LFB2:
 108:Generated_Source\PSoC5/WaveDAC8_1.c **** 
 109:Generated_Source\PSoC5/WaveDAC8_1.c **** 
 110:Generated_Source\PSoC5/WaveDAC8_1.c **** /*******************************************************************************
 111:Generated_Source\PSoC5/WaveDAC8_1.c **** * Function Name: WaveDAC8_1_Start
 112:Generated_Source\PSoC5/WaveDAC8_1.c **** ********************************************************************************
 113:Generated_Source\PSoC5/WaveDAC8_1.c **** *
 114:Generated_Source\PSoC5/WaveDAC8_1.c **** * Summary:
 115:Generated_Source\PSoC5/WaveDAC8_1.c **** *  The start function initializes the voltage DAC with the default values, 
 116:Generated_Source\PSoC5/WaveDAC8_1.c **** *  and sets the power to the given level.  A power level of 0, is the same as 
 117:Generated_Source\PSoC5/WaveDAC8_1.c **** *  executing the stop function.
 118:Generated_Source\PSoC5/WaveDAC8_1.c **** *
 119:Generated_Source\PSoC5/WaveDAC8_1.c **** * Parameters:  
 120:Generated_Source\PSoC5/WaveDAC8_1.c **** *  None
 121:Generated_Source\PSoC5/WaveDAC8_1.c **** *
 122:Generated_Source\PSoC5/WaveDAC8_1.c **** * Return: 
 123:Generated_Source\PSoC5/WaveDAC8_1.c **** *  None
 124:Generated_Source\PSoC5/WaveDAC8_1.c **** *
 125:Generated_Source\PSoC5/WaveDAC8_1.c **** * Reentrant:
 126:Generated_Source\PSoC5/WaveDAC8_1.c **** *  No
 127:Generated_Source\PSoC5/WaveDAC8_1.c **** *
 128:Generated_Source\PSoC5/WaveDAC8_1.c **** *******************************************************************************/
 129:Generated_Source\PSoC5/WaveDAC8_1.c **** void WaveDAC8_1_Start(void) 
 130:Generated_Source\PSoC5/WaveDAC8_1.c **** {
 315              		.loc 1 130 0
 316              		.cfi_startproc
 317              		@ args = 0, pretend = 0, frame = 0
 318              		@ frame_needed = 1, uses_anonymous_args = 0
 319 0000 80B5     		push	{r7, lr}
 320              		.cfi_def_cfa_offset 8
 321              		.cfi_offset 7, -8
 322              		.cfi_offset 14, -4
 323 0002 00AF     		add	r7, sp, #0
 324              		.cfi_def_cfa_register 7
 131:Generated_Source\PSoC5/WaveDAC8_1.c **** 	/* If not Initialized then initialize all required hardware and software */
 132:Generated_Source\PSoC5/WaveDAC8_1.c **** 	if(WaveDAC8_1_initVar == 0u)
ARM GAS  C:\Users\JOSEAN~1\AppData\Local\Temp\ccL29UpK.s 			page 9


 325              		.loc 1 132 0
 326 0004 064B     		ldr	r3, .L9
 327 0006 1B78     		ldrb	r3, [r3]	@ zero_extendqisi2
 328 0008 002B     		cmp	r3, #0
 329 000a 04D1     		bne	.L8
 133:Generated_Source\PSoC5/WaveDAC8_1.c **** 	{
 134:Generated_Source\PSoC5/WaveDAC8_1.c **** 		WaveDAC8_1_Init();
 330              		.loc 1 134 0
 331 000c FFF7FEFF 		bl	WaveDAC8_1_Init
 135:Generated_Source\PSoC5/WaveDAC8_1.c **** 		WaveDAC8_1_initVar = 1u;
 332              		.loc 1 135 0
 333 0010 034B     		ldr	r3, .L9
 334 0012 0122     		movs	r2, #1
 335 0014 1A70     		strb	r2, [r3]
 336              	.L8:
 136:Generated_Source\PSoC5/WaveDAC8_1.c **** 	}
 137:Generated_Source\PSoC5/WaveDAC8_1.c **** 	
 138:Generated_Source\PSoC5/WaveDAC8_1.c **** 	WaveDAC8_1_Enable();
 337              		.loc 1 138 0
 338 0016 FFF7FEFF 		bl	WaveDAC8_1_Enable
 139:Generated_Source\PSoC5/WaveDAC8_1.c **** }
 339              		.loc 1 139 0
 340 001a 00BF     		nop
 341 001c 80BD     		pop	{r7, pc}
 342              	.L10:
 343 001e 00BF     		.align	2
 344              	.L9:
 345 0020 00000000 		.word	WaveDAC8_1_initVar
 346              		.cfi_endproc
 347              	.LFE2:
 348              		.size	WaveDAC8_1_Start, .-WaveDAC8_1_Start
 349              		.section	.text.WaveDAC8_1_StartEx,"ax",%progbits
 350              		.align	2
 351              		.global	WaveDAC8_1_StartEx
 352              		.thumb
 353              		.thumb_func
 354              		.type	WaveDAC8_1_StartEx, %function
 355              	WaveDAC8_1_StartEx:
 356              	.LFB3:
 140:Generated_Source\PSoC5/WaveDAC8_1.c **** 
 141:Generated_Source\PSoC5/WaveDAC8_1.c **** 
 142:Generated_Source\PSoC5/WaveDAC8_1.c **** /*******************************************************************************
 143:Generated_Source\PSoC5/WaveDAC8_1.c **** * Function Name: WaveDAC8_1_StartEx
 144:Generated_Source\PSoC5/WaveDAC8_1.c **** ********************************************************************************
 145:Generated_Source\PSoC5/WaveDAC8_1.c **** *
 146:Generated_Source\PSoC5/WaveDAC8_1.c **** * Summary:
 147:Generated_Source\PSoC5/WaveDAC8_1.c **** *  The StartEx function sets pointers and sizes for both waveforms
 148:Generated_Source\PSoC5/WaveDAC8_1.c **** *  and then starts the component.
 149:Generated_Source\PSoC5/WaveDAC8_1.c **** *
 150:Generated_Source\PSoC5/WaveDAC8_1.c **** * Parameters:  
 151:Generated_Source\PSoC5/WaveDAC8_1.c **** *   uint8 * wavePtr1:     Pointer to the waveform 1 array.
 152:Generated_Source\PSoC5/WaveDAC8_1.c **** *   uint16  sampleSize1:  The amount of samples in the waveform 1.
 153:Generated_Source\PSoC5/WaveDAC8_1.c **** *   uint8 * wavePtr2:     Pointer to the waveform 2 array.
 154:Generated_Source\PSoC5/WaveDAC8_1.c **** *   uint16  sampleSize2:  The amount of samples in the waveform 2.
 155:Generated_Source\PSoC5/WaveDAC8_1.c **** *
 156:Generated_Source\PSoC5/WaveDAC8_1.c **** * Return: 
 157:Generated_Source\PSoC5/WaveDAC8_1.c **** *  None
ARM GAS  C:\Users\JOSEAN~1\AppData\Local\Temp\ccL29UpK.s 			page 10


 158:Generated_Source\PSoC5/WaveDAC8_1.c **** *
 159:Generated_Source\PSoC5/WaveDAC8_1.c **** * Reentrant:
 160:Generated_Source\PSoC5/WaveDAC8_1.c **** *  No
 161:Generated_Source\PSoC5/WaveDAC8_1.c **** *
 162:Generated_Source\PSoC5/WaveDAC8_1.c **** *******************************************************************************/
 163:Generated_Source\PSoC5/WaveDAC8_1.c **** void WaveDAC8_1_StartEx(const uint8 * wavePtr1, uint16 sampleSize1, const uint8 * wavePtr2, uint16 
 164:Generated_Source\PSoC5/WaveDAC8_1.c **** 
 165:Generated_Source\PSoC5/WaveDAC8_1.c **** {
 357              		.loc 1 165 0
 358              		.cfi_startproc
 359              		@ args = 0, pretend = 0, frame = 16
 360              		@ frame_needed = 1, uses_anonymous_args = 0
 361 0000 80B5     		push	{r7, lr}
 362              		.cfi_def_cfa_offset 8
 363              		.cfi_offset 7, -8
 364              		.cfi_offset 14, -4
 365 0002 84B0     		sub	sp, sp, #16
 366              		.cfi_def_cfa_offset 24
 367 0004 00AF     		add	r7, sp, #0
 368              		.cfi_def_cfa_register 7
 369 0006 F860     		str	r0, [r7, #12]
 370 0008 7A60     		str	r2, [r7, #4]
 371 000a 1A46     		mov	r2, r3
 372 000c 0B46     		mov	r3, r1	@ movhi
 373 000e 7B81     		strh	r3, [r7, #10]	@ movhi
 374 0010 1346     		mov	r3, r2	@ movhi
 375 0012 3B81     		strh	r3, [r7, #8]	@ movhi
 166:Generated_Source\PSoC5/WaveDAC8_1.c **** 	WaveDAC8_1_Wave1Setup(wavePtr1, sampleSize1);
 376              		.loc 1 166 0
 377 0014 7B89     		ldrh	r3, [r7, #10]
 378 0016 1946     		mov	r1, r3
 379 0018 F868     		ldr	r0, [r7, #12]
 380 001a FFF7FEFF 		bl	WaveDAC8_1_Wave1Setup
 167:Generated_Source\PSoC5/WaveDAC8_1.c **** 	WaveDAC8_1_Wave2Setup(wavePtr2, sampleSize2);
 381              		.loc 1 167 0
 382 001e 3B89     		ldrh	r3, [r7, #8]
 383 0020 1946     		mov	r1, r3
 384 0022 7868     		ldr	r0, [r7, #4]
 385 0024 FFF7FEFF 		bl	WaveDAC8_1_Wave2Setup
 168:Generated_Source\PSoC5/WaveDAC8_1.c **** 	WaveDAC8_1_Start();
 386              		.loc 1 168 0
 387 0028 FFF7FEFF 		bl	WaveDAC8_1_Start
 169:Generated_Source\PSoC5/WaveDAC8_1.c **** }
 388              		.loc 1 169 0
 389 002c 00BF     		nop
 390 002e 1037     		adds	r7, r7, #16
 391              		.cfi_def_cfa_offset 8
 392 0030 BD46     		mov	sp, r7
 393              		.cfi_def_cfa_register 13
 394              		@ sp needed
 395 0032 80BD     		pop	{r7, pc}
 396              		.cfi_endproc
 397              	.LFE3:
 398              		.size	WaveDAC8_1_StartEx, .-WaveDAC8_1_StartEx
 399              		.section	.text.WaveDAC8_1_Stop,"ax",%progbits
 400              		.align	2
 401              		.global	WaveDAC8_1_Stop
ARM GAS  C:\Users\JOSEAN~1\AppData\Local\Temp\ccL29UpK.s 			page 11


 402              		.thumb
 403              		.thumb_func
 404              		.type	WaveDAC8_1_Stop, %function
 405              	WaveDAC8_1_Stop:
 406              	.LFB4:
 170:Generated_Source\PSoC5/WaveDAC8_1.c **** 
 171:Generated_Source\PSoC5/WaveDAC8_1.c **** 
 172:Generated_Source\PSoC5/WaveDAC8_1.c **** /*******************************************************************************
 173:Generated_Source\PSoC5/WaveDAC8_1.c **** * Function Name: WaveDAC8_1_Stop
 174:Generated_Source\PSoC5/WaveDAC8_1.c **** ********************************************************************************
 175:Generated_Source\PSoC5/WaveDAC8_1.c **** *
 176:Generated_Source\PSoC5/WaveDAC8_1.c **** * Summary:
 177:Generated_Source\PSoC5/WaveDAC8_1.c **** *  Stops the clock (if internal), disables the DMA channels
 178:Generated_Source\PSoC5/WaveDAC8_1.c **** *  and powers down the DAC.
 179:Generated_Source\PSoC5/WaveDAC8_1.c **** *
 180:Generated_Source\PSoC5/WaveDAC8_1.c **** * Parameters:  
 181:Generated_Source\PSoC5/WaveDAC8_1.c **** *  None  
 182:Generated_Source\PSoC5/WaveDAC8_1.c **** *
 183:Generated_Source\PSoC5/WaveDAC8_1.c **** * Return: 
 184:Generated_Source\PSoC5/WaveDAC8_1.c **** *  None
 185:Generated_Source\PSoC5/WaveDAC8_1.c **** *
 186:Generated_Source\PSoC5/WaveDAC8_1.c **** *******************************************************************************/
 187:Generated_Source\PSoC5/WaveDAC8_1.c **** void WaveDAC8_1_Stop(void) 
 188:Generated_Source\PSoC5/WaveDAC8_1.c **** {
 407              		.loc 1 188 0
 408              		.cfi_startproc
 409              		@ args = 0, pretend = 0, frame = 0
 410              		@ frame_needed = 1, uses_anonymous_args = 0
 411 0000 80B5     		push	{r7, lr}
 412              		.cfi_def_cfa_offset 8
 413              		.cfi_offset 7, -8
 414              		.cfi_offset 14, -4
 415 0002 00AF     		add	r7, sp, #0
 416              		.cfi_def_cfa_register 7
 189:Generated_Source\PSoC5/WaveDAC8_1.c **** 	/* Turn off internal clock, if one present */
 190:Generated_Source\PSoC5/WaveDAC8_1.c **** 	#if(WaveDAC8_1_CLOCK_SRC == WaveDAC8_1_CLOCK_INT)  	
 191:Generated_Source\PSoC5/WaveDAC8_1.c **** 	   WaveDAC8_1_DacClk_Stop();
 417              		.loc 1 191 0
 418 0004 FFF7FEFF 		bl	WaveDAC8_1_DacClk_Stop
 192:Generated_Source\PSoC5/WaveDAC8_1.c **** 	#endif /* WaveDAC8_1_CLOCK_SRC == WaveDAC8_1_CLOCK_INT */
 193:Generated_Source\PSoC5/WaveDAC8_1.c **** 	
 194:Generated_Source\PSoC5/WaveDAC8_1.c **** 	/* Disble DMA channels */
 195:Generated_Source\PSoC5/WaveDAC8_1.c **** 	(void)CyDmaChDisable(WaveDAC8_1_Wave1Chan);
 419              		.loc 1 195 0
 420 0008 064B     		ldr	r3, .L13
 421 000a 1B78     		ldrb	r3, [r3]	@ zero_extendqisi2
 422 000c 1846     		mov	r0, r3
 423 000e FFF7FEFF 		bl	CyDmaChDisable
 196:Generated_Source\PSoC5/WaveDAC8_1.c **** 	(void)CyDmaChDisable(WaveDAC8_1_Wave2Chan);
 424              		.loc 1 196 0
 425 0012 054B     		ldr	r3, .L13+4
 426 0014 1B78     		ldrb	r3, [r3]	@ zero_extendqisi2
 427 0016 1846     		mov	r0, r3
 428 0018 FFF7FEFF 		bl	CyDmaChDisable
 197:Generated_Source\PSoC5/WaveDAC8_1.c **** 
 198:Generated_Source\PSoC5/WaveDAC8_1.c **** 	/* Disable power to DAC */
 199:Generated_Source\PSoC5/WaveDAC8_1.c **** 	WaveDAC8_1_VDAC8_Stop();
ARM GAS  C:\Users\JOSEAN~1\AppData\Local\Temp\ccL29UpK.s 			page 12


 429              		.loc 1 199 0
 430 001c FFF7FEFF 		bl	WaveDAC8_1_VDAC8_Stop
 200:Generated_Source\PSoC5/WaveDAC8_1.c **** }
 431              		.loc 1 200 0
 432 0020 00BF     		nop
 433 0022 80BD     		pop	{r7, pc}
 434              	.L14:
 435              		.align	2
 436              	.L13:
 437 0024 01000000 		.word	WaveDAC8_1_Wave1Chan
 438 0028 02000000 		.word	WaveDAC8_1_Wave2Chan
 439              		.cfi_endproc
 440              	.LFE4:
 441              		.size	WaveDAC8_1_Stop, .-WaveDAC8_1_Stop
 442              		.section	.text.WaveDAC8_1_Wave1Setup,"ax",%progbits
 443              		.align	2
 444              		.global	WaveDAC8_1_Wave1Setup
 445              		.thumb
 446              		.thumb_func
 447              		.type	WaveDAC8_1_Wave1Setup, %function
 448              	WaveDAC8_1_Wave1Setup:
 449              	.LFB5:
 201:Generated_Source\PSoC5/WaveDAC8_1.c **** 
 202:Generated_Source\PSoC5/WaveDAC8_1.c **** 
 203:Generated_Source\PSoC5/WaveDAC8_1.c **** /*******************************************************************************
 204:Generated_Source\PSoC5/WaveDAC8_1.c **** * Function Name: WaveDAC8_1_Wave1Setup
 205:Generated_Source\PSoC5/WaveDAC8_1.c **** ********************************************************************************
 206:Generated_Source\PSoC5/WaveDAC8_1.c **** *
 207:Generated_Source\PSoC5/WaveDAC8_1.c **** * Summary:
 208:Generated_Source\PSoC5/WaveDAC8_1.c **** *  Sets pointer and size for waveform 1.                                    
 209:Generated_Source\PSoC5/WaveDAC8_1.c **** *
 210:Generated_Source\PSoC5/WaveDAC8_1.c **** * Parameters:  
 211:Generated_Source\PSoC5/WaveDAC8_1.c **** *  uint8 * WavePtr:     Pointer to the waveform array.
 212:Generated_Source\PSoC5/WaveDAC8_1.c **** *  uint16  SampleSize:  The amount of samples in the waveform.
 213:Generated_Source\PSoC5/WaveDAC8_1.c **** *
 214:Generated_Source\PSoC5/WaveDAC8_1.c **** * Return: 
 215:Generated_Source\PSoC5/WaveDAC8_1.c **** *  None 
 216:Generated_Source\PSoC5/WaveDAC8_1.c **** *
 217:Generated_Source\PSoC5/WaveDAC8_1.c **** *******************************************************************************/
 218:Generated_Source\PSoC5/WaveDAC8_1.c **** void WaveDAC8_1_Wave1Setup(const uint8 * wavePtr, uint16 sampleSize)
 219:Generated_Source\PSoC5/WaveDAC8_1.c **** 
 220:Generated_Source\PSoC5/WaveDAC8_1.c **** {
 450              		.loc 1 220 0
 451              		.cfi_startproc
 452              		@ args = 0, pretend = 0, frame = 8
 453              		@ frame_needed = 1, uses_anonymous_args = 0
 454 0000 80B5     		push	{r7, lr}
 455              		.cfi_def_cfa_offset 8
 456              		.cfi_offset 7, -8
 457              		.cfi_offset 14, -4
 458 0002 82B0     		sub	sp, sp, #8
 459              		.cfi_def_cfa_offset 16
 460 0004 00AF     		add	r7, sp, #0
 461              		.cfi_def_cfa_register 7
 462 0006 7860     		str	r0, [r7, #4]
 463 0008 0B46     		mov	r3, r1
 464 000a 7B80     		strh	r3, [r7, #2]	@ movhi
ARM GAS  C:\Users\JOSEAN~1\AppData\Local\Temp\ccL29UpK.s 			page 13


 221:Generated_Source\PSoC5/WaveDAC8_1.c **** 	#if (CY_PSOC3)
 222:Generated_Source\PSoC5/WaveDAC8_1.c **** 		uint16 memoryType; /* determining the source memory type */
 223:Generated_Source\PSoC5/WaveDAC8_1.c **** 		memoryType = (WaveDAC8_1_HI16FLASHPTR == HI16(wavePtr)) ? HI16(CYDEV_FLS_BASE) : HI16(CYDEV_SRAM_
 224:Generated_Source\PSoC5/WaveDAC8_1.c **** 		
 225:Generated_Source\PSoC5/WaveDAC8_1.c **** 		WaveDAC8_1_Wave1Chan = WaveDAC8_1_Wave1_DMA_DmaInitialize(
 226:Generated_Source\PSoC5/WaveDAC8_1.c **** 		WaveDAC8_1_Wave1_DMA_BYTES_PER_BURST, WaveDAC8_1_Wave1_DMA_REQUEST_PER_BURST,
 227:Generated_Source\PSoC5/WaveDAC8_1.c **** 		memoryType, HI16(CYDEV_PERIPH_BASE));
 228:Generated_Source\PSoC5/WaveDAC8_1.c **** 	#else /* PSoC 5 */
 229:Generated_Source\PSoC5/WaveDAC8_1.c **** 		WaveDAC8_1_Wave1Chan = WaveDAC8_1_Wave1_DMA_DmaInitialize(
 230:Generated_Source\PSoC5/WaveDAC8_1.c **** 		WaveDAC8_1_Wave1_DMA_BYTES_PER_BURST, WaveDAC8_1_Wave1_DMA_REQUEST_PER_BURST,
 231:Generated_Source\PSoC5/WaveDAC8_1.c **** 		HI16(wavePtr), HI16(WaveDAC8_1_DAC8__D));
 465              		.loc 1 231 0
 466 000c 7B68     		ldr	r3, [r7, #4]
 467 000e 1B0C     		lsrs	r3, r3, #16
 229:Generated_Source\PSoC5/WaveDAC8_1.c **** 		WaveDAC8_1_Wave1_DMA_BYTES_PER_BURST, WaveDAC8_1_Wave1_DMA_REQUEST_PER_BURST,
 468              		.loc 1 229 0
 469 0010 9AB2     		uxth	r2, r3
 470 0012 4FF48043 		mov	r3, #16384
 471 0016 0121     		movs	r1, #1
 472 0018 0120     		movs	r0, #1
 473 001a FFF7FEFF 		bl	WaveDAC8_1_Wave1_DMA_DmaInitialize
 474 001e 0346     		mov	r3, r0
 475 0020 1A46     		mov	r2, r3
 476 0022 0F4B     		ldr	r3, .L16
 477 0024 1A70     		strb	r2, [r3]
 232:Generated_Source\PSoC5/WaveDAC8_1.c **** 	#endif /* CY_PSOC3 */
 233:Generated_Source\PSoC5/WaveDAC8_1.c **** 	
 234:Generated_Source\PSoC5/WaveDAC8_1.c **** 	/*
 235:Generated_Source\PSoC5/WaveDAC8_1.c **** 	* TD is looping on itself. 
 236:Generated_Source\PSoC5/WaveDAC8_1.c ****     * Increment the source address, but not the destination address. 
 237:Generated_Source\PSoC5/WaveDAC8_1.c **** 	*/
 238:Generated_Source\PSoC5/WaveDAC8_1.c **** 	(void)CyDmaTdSetConfiguration(WaveDAC8_1_Wave1TD, sampleSize, WaveDAC8_1_Wave1TD, 
 478              		.loc 1 238 0
 479 0026 0F4B     		ldr	r3, .L16+4
 480 0028 1878     		ldrb	r0, [r3]	@ zero_extendqisi2
 481 002a 0E4B     		ldr	r3, .L16+4
 482 002c 1A78     		ldrb	r2, [r3]	@ zero_extendqisi2
 483 002e 7988     		ldrh	r1, [r7, #2]
 484 0030 0123     		movs	r3, #1
 485 0032 FFF7FEFF 		bl	CyDmaTdSetConfiguration
 239:Generated_Source\PSoC5/WaveDAC8_1.c ****                                     (uint8)CY_DMA_TD_INC_SRC_ADR | (uint8)WaveDAC8_1_Wave1_DMA__TD_
 240:Generated_Source\PSoC5/WaveDAC8_1.c **** 	
 241:Generated_Source\PSoC5/WaveDAC8_1.c **** 	/* Set the TD source and destination address */
 242:Generated_Source\PSoC5/WaveDAC8_1.c **** 	(void)CyDmaTdSetAddress(WaveDAC8_1_Wave1TD, LO16((uint32)wavePtr), LO16(WaveDAC8_1_DAC8__D));
 486              		.loc 1 242 0
 487 0036 0B4B     		ldr	r3, .L16+4
 488 0038 1B78     		ldrb	r3, [r3]	@ zero_extendqisi2
 489 003a 7A68     		ldr	r2, [r7, #4]
 490 003c 91B2     		uxth	r1, r2
 491 003e 45F68232 		movw	r2, #23426
 492 0042 1846     		mov	r0, r3
 493 0044 FFF7FEFF 		bl	CyDmaTdSetAddress
 243:Generated_Source\PSoC5/WaveDAC8_1.c **** 	
 244:Generated_Source\PSoC5/WaveDAC8_1.c **** 	/* Associate the TD with the channel */
 245:Generated_Source\PSoC5/WaveDAC8_1.c **** 	(void)CyDmaChSetInitialTd(WaveDAC8_1_Wave1Chan, WaveDAC8_1_Wave1TD);
 494              		.loc 1 245 0
 495 0048 054B     		ldr	r3, .L16
ARM GAS  C:\Users\JOSEAN~1\AppData\Local\Temp\ccL29UpK.s 			page 14


 496 004a 1A78     		ldrb	r2, [r3]	@ zero_extendqisi2
 497 004c 054B     		ldr	r3, .L16+4
 498 004e 1B78     		ldrb	r3, [r3]	@ zero_extendqisi2
 499 0050 1946     		mov	r1, r3
 500 0052 1046     		mov	r0, r2
 501 0054 FFF7FEFF 		bl	CyDmaChSetInitialTd
 246:Generated_Source\PSoC5/WaveDAC8_1.c **** }
 502              		.loc 1 246 0
 503 0058 00BF     		nop
 504 005a 0837     		adds	r7, r7, #8
 505              		.cfi_def_cfa_offset 8
 506 005c BD46     		mov	sp, r7
 507              		.cfi_def_cfa_register 13
 508              		@ sp needed
 509 005e 80BD     		pop	{r7, pc}
 510              	.L17:
 511              		.align	2
 512              	.L16:
 513 0060 01000000 		.word	WaveDAC8_1_Wave1Chan
 514 0064 03000000 		.word	WaveDAC8_1_Wave1TD
 515              		.cfi_endproc
 516              	.LFE5:
 517              		.size	WaveDAC8_1_Wave1Setup, .-WaveDAC8_1_Wave1Setup
 518              		.section	.text.WaveDAC8_1_Wave2Setup,"ax",%progbits
 519              		.align	2
 520              		.global	WaveDAC8_1_Wave2Setup
 521              		.thumb
 522              		.thumb_func
 523              		.type	WaveDAC8_1_Wave2Setup, %function
 524              	WaveDAC8_1_Wave2Setup:
 525              	.LFB6:
 247:Generated_Source\PSoC5/WaveDAC8_1.c **** 
 248:Generated_Source\PSoC5/WaveDAC8_1.c **** 
 249:Generated_Source\PSoC5/WaveDAC8_1.c **** /*******************************************************************************
 250:Generated_Source\PSoC5/WaveDAC8_1.c **** * Function Name: WaveDAC8_1_Wave2Setup
 251:Generated_Source\PSoC5/WaveDAC8_1.c **** ********************************************************************************
 252:Generated_Source\PSoC5/WaveDAC8_1.c **** *
 253:Generated_Source\PSoC5/WaveDAC8_1.c **** * Summary:
 254:Generated_Source\PSoC5/WaveDAC8_1.c **** *  Sets pointer and size for waveform 2.                                    
 255:Generated_Source\PSoC5/WaveDAC8_1.c **** *
 256:Generated_Source\PSoC5/WaveDAC8_1.c **** * Parameters:  
 257:Generated_Source\PSoC5/WaveDAC8_1.c **** *  uint8 * WavePtr:     Pointer to the waveform array.
 258:Generated_Source\PSoC5/WaveDAC8_1.c **** *  uint16  SampleSize:  The amount of samples in the waveform.
 259:Generated_Source\PSoC5/WaveDAC8_1.c **** *
 260:Generated_Source\PSoC5/WaveDAC8_1.c **** * Return: 
 261:Generated_Source\PSoC5/WaveDAC8_1.c **** *  None
 262:Generated_Source\PSoC5/WaveDAC8_1.c **** *
 263:Generated_Source\PSoC5/WaveDAC8_1.c **** *******************************************************************************/
 264:Generated_Source\PSoC5/WaveDAC8_1.c **** void WaveDAC8_1_Wave2Setup(const uint8 * wavePtr, uint16 sampleSize)
 265:Generated_Source\PSoC5/WaveDAC8_1.c ****  
 266:Generated_Source\PSoC5/WaveDAC8_1.c **** {
 526              		.loc 1 266 0
 527              		.cfi_startproc
 528              		@ args = 0, pretend = 0, frame = 8
 529              		@ frame_needed = 1, uses_anonymous_args = 0
 530 0000 80B5     		push	{r7, lr}
 531              		.cfi_def_cfa_offset 8
ARM GAS  C:\Users\JOSEAN~1\AppData\Local\Temp\ccL29UpK.s 			page 15


 532              		.cfi_offset 7, -8
 533              		.cfi_offset 14, -4
 534 0002 82B0     		sub	sp, sp, #8
 535              		.cfi_def_cfa_offset 16
 536 0004 00AF     		add	r7, sp, #0
 537              		.cfi_def_cfa_register 7
 538 0006 7860     		str	r0, [r7, #4]
 539 0008 0B46     		mov	r3, r1
 540 000a 7B80     		strh	r3, [r7, #2]	@ movhi
 267:Generated_Source\PSoC5/WaveDAC8_1.c **** 	#if (CY_PSOC3)
 268:Generated_Source\PSoC5/WaveDAC8_1.c **** 		uint16 memoryType; /* determining the source memory type */
 269:Generated_Source\PSoC5/WaveDAC8_1.c **** 		memoryType = (WaveDAC8_1_HI16FLASHPTR == HI16(wavePtr)) ? HI16(CYDEV_FLS_BASE) : HI16(CYDEV_SRAM_
 270:Generated_Source\PSoC5/WaveDAC8_1.c **** 			
 271:Generated_Source\PSoC5/WaveDAC8_1.c **** 		WaveDAC8_1_Wave2Chan = WaveDAC8_1_Wave2_DMA_DmaInitialize(
 272:Generated_Source\PSoC5/WaveDAC8_1.c **** 		WaveDAC8_1_Wave2_DMA_BYTES_PER_BURST, WaveDAC8_1_Wave2_DMA_REQUEST_PER_BURST,
 273:Generated_Source\PSoC5/WaveDAC8_1.c **** 		memoryType, HI16(CYDEV_PERIPH_BASE));
 274:Generated_Source\PSoC5/WaveDAC8_1.c **** 	#else /* PSoC 5 */
 275:Generated_Source\PSoC5/WaveDAC8_1.c **** 		WaveDAC8_1_Wave2Chan = WaveDAC8_1_Wave2_DMA_DmaInitialize(
 276:Generated_Source\PSoC5/WaveDAC8_1.c **** 		WaveDAC8_1_Wave2_DMA_BYTES_PER_BURST, WaveDAC8_1_Wave2_DMA_REQUEST_PER_BURST,
 277:Generated_Source\PSoC5/WaveDAC8_1.c **** 		HI16(wavePtr), HI16(WaveDAC8_1_DAC8__D));
 541              		.loc 1 277 0
 542 000c 7B68     		ldr	r3, [r7, #4]
 543 000e 1B0C     		lsrs	r3, r3, #16
 275:Generated_Source\PSoC5/WaveDAC8_1.c **** 		WaveDAC8_1_Wave2_DMA_BYTES_PER_BURST, WaveDAC8_1_Wave2_DMA_REQUEST_PER_BURST,
 544              		.loc 1 275 0
 545 0010 9AB2     		uxth	r2, r3
 546 0012 4FF48043 		mov	r3, #16384
 547 0016 0121     		movs	r1, #1
 548 0018 0120     		movs	r0, #1
 549 001a FFF7FEFF 		bl	WaveDAC8_1_Wave2_DMA_DmaInitialize
 550 001e 0346     		mov	r3, r0
 551 0020 1A46     		mov	r2, r3
 552 0022 0F4B     		ldr	r3, .L19
 553 0024 1A70     		strb	r2, [r3]
 278:Generated_Source\PSoC5/WaveDAC8_1.c **** 	#endif /* CY_PSOC3 */
 279:Generated_Source\PSoC5/WaveDAC8_1.c **** 	
 280:Generated_Source\PSoC5/WaveDAC8_1.c **** 	/*
 281:Generated_Source\PSoC5/WaveDAC8_1.c **** 	* TD is looping on itself. 
 282:Generated_Source\PSoC5/WaveDAC8_1.c **** 	* Increment the source address, but not the destination address. 
 283:Generated_Source\PSoC5/WaveDAC8_1.c **** 	*/
 284:Generated_Source\PSoC5/WaveDAC8_1.c **** 	(void)CyDmaTdSetConfiguration(WaveDAC8_1_Wave2TD, sampleSize, WaveDAC8_1_Wave2TD, 
 554              		.loc 1 284 0
 555 0026 0F4B     		ldr	r3, .L19+4
 556 0028 1878     		ldrb	r0, [r3]	@ zero_extendqisi2
 557 002a 0E4B     		ldr	r3, .L19+4
 558 002c 1A78     		ldrb	r2, [r3]	@ zero_extendqisi2
 559 002e 7988     		ldrh	r1, [r7, #2]
 560 0030 0123     		movs	r3, #1
 561 0032 FFF7FEFF 		bl	CyDmaTdSetConfiguration
 285:Generated_Source\PSoC5/WaveDAC8_1.c ****                                     (uint8)CY_DMA_TD_INC_SRC_ADR | (uint8)WaveDAC8_1_Wave2_DMA__TD_
 286:Generated_Source\PSoC5/WaveDAC8_1.c **** 	
 287:Generated_Source\PSoC5/WaveDAC8_1.c **** 	/* Set the TD source and destination address */
 288:Generated_Source\PSoC5/WaveDAC8_1.c **** 	(void)CyDmaTdSetAddress(WaveDAC8_1_Wave2TD, LO16((uint32)wavePtr), LO16(WaveDAC8_1_DAC8__D));
 562              		.loc 1 288 0
 563 0036 0B4B     		ldr	r3, .L19+4
 564 0038 1B78     		ldrb	r3, [r3]	@ zero_extendqisi2
 565 003a 7A68     		ldr	r2, [r7, #4]
ARM GAS  C:\Users\JOSEAN~1\AppData\Local\Temp\ccL29UpK.s 			page 16


 566 003c 91B2     		uxth	r1, r2
 567 003e 45F68232 		movw	r2, #23426
 568 0042 1846     		mov	r0, r3
 569 0044 FFF7FEFF 		bl	CyDmaTdSetAddress
 289:Generated_Source\PSoC5/WaveDAC8_1.c **** 	
 290:Generated_Source\PSoC5/WaveDAC8_1.c **** 	/* Associate the TD with the channel */
 291:Generated_Source\PSoC5/WaveDAC8_1.c **** 	(void)CyDmaChSetInitialTd(WaveDAC8_1_Wave2Chan, WaveDAC8_1_Wave2TD);
 570              		.loc 1 291 0
 571 0048 054B     		ldr	r3, .L19
 572 004a 1A78     		ldrb	r2, [r3]	@ zero_extendqisi2
 573 004c 054B     		ldr	r3, .L19+4
 574 004e 1B78     		ldrb	r3, [r3]	@ zero_extendqisi2
 575 0050 1946     		mov	r1, r3
 576 0052 1046     		mov	r0, r2
 577 0054 FFF7FEFF 		bl	CyDmaChSetInitialTd
 292:Generated_Source\PSoC5/WaveDAC8_1.c **** }
 578              		.loc 1 292 0
 579 0058 00BF     		nop
 580 005a 0837     		adds	r7, r7, #8
 581              		.cfi_def_cfa_offset 8
 582 005c BD46     		mov	sp, r7
 583              		.cfi_def_cfa_register 13
 584              		@ sp needed
 585 005e 80BD     		pop	{r7, pc}
 586              	.L20:
 587              		.align	2
 588              	.L19:
 589 0060 02000000 		.word	WaveDAC8_1_Wave2Chan
 590 0064 04000000 		.word	WaveDAC8_1_Wave2TD
 591              		.cfi_endproc
 592              	.LFE6:
 593              		.size	WaveDAC8_1_Wave2Setup, .-WaveDAC8_1_Wave2Setup
 594              		.text
 595              	.Letext0:
 596              		.file 2 "Generated_Source\\PSoC5\\cytypes.h"
