ARM GAS  C:\Users\JOSEAN~1\AppData\Local\Temp\ccgojhjw.s 			page 1


   1              		.syntax unified
   2              		.cpu cortex-m3
   3              		.fpu softvfp
   4              		.eabi_attribute 20, 1
   5              		.eabi_attribute 21, 1
   6              		.eabi_attribute 23, 3
   7              		.eabi_attribute 24, 1
   8              		.eabi_attribute 25, 1
   9              		.eabi_attribute 26, 1
  10              		.eabi_attribute 30, 1
  11              		.eabi_attribute 34, 1
  12              		.eabi_attribute 18, 4
  13              		.thumb
  14              		.syntax unified
  15              		.file	"WaveDAC8_1.c"
  16              		.text
  17              	.Ltext0:
  18              		.cfi_sections	.debug_frame
  19              		.section	.text.WaveDAC8_1_Enable,"ax",%progbits
  20              		.align	2
  21              		.global	WaveDAC8_1_Enable
  22              		.thumb
  23              		.thumb_func
  24              		.type	WaveDAC8_1_Enable, %function
  25              	WaveDAC8_1_Enable:
  26              	.LFB1:
  27              		.file 1 "Generated_Source\\PSoC5\\WaveDAC8_1.c"
   1:Generated_Source\PSoC5/WaveDAC8_1.c **** /*******************************************************************************
   2:Generated_Source\PSoC5/WaveDAC8_1.c **** * File Name: WaveDAC8_1.c
   3:Generated_Source\PSoC5/WaveDAC8_1.c **** * Version 2.10
   4:Generated_Source\PSoC5/WaveDAC8_1.c **** *
   5:Generated_Source\PSoC5/WaveDAC8_1.c **** * Description:
   6:Generated_Source\PSoC5/WaveDAC8_1.c **** *  This file provides the source code for the 8-bit Waveform DAC 
   7:Generated_Source\PSoC5/WaveDAC8_1.c **** *  (WaveDAC8) Component.
   8:Generated_Source\PSoC5/WaveDAC8_1.c **** *
   9:Generated_Source\PSoC5/WaveDAC8_1.c **** ********************************************************************************
  10:Generated_Source\PSoC5/WaveDAC8_1.c **** * Copyright 2013, Cypress Semiconductor Corporation.  All rights reserved.
  11:Generated_Source\PSoC5/WaveDAC8_1.c **** * You may use this file only in accordance with the license, terms, conditions,
  12:Generated_Source\PSoC5/WaveDAC8_1.c **** * disclaimers, and limitations in the end user license agreement accompanying
  13:Generated_Source\PSoC5/WaveDAC8_1.c **** * the software package with which this file was provided.
  14:Generated_Source\PSoC5/WaveDAC8_1.c **** *******************************************************************************/
  15:Generated_Source\PSoC5/WaveDAC8_1.c **** 
  16:Generated_Source\PSoC5/WaveDAC8_1.c **** #include "WaveDAC8_1.h"
  17:Generated_Source\PSoC5/WaveDAC8_1.c **** 
  18:Generated_Source\PSoC5/WaveDAC8_1.c **** uint8  WaveDAC8_1_initVar = 0u;
  19:Generated_Source\PSoC5/WaveDAC8_1.c **** 
  20:Generated_Source\PSoC5/WaveDAC8_1.c **** const uint8 CYCODE WaveDAC8_1_wave1[WaveDAC8_1_WAVE1_LENGTH] = { 132u,133u,133u,133u,133u,133u,134u
  21:Generated_Source\PSoC5/WaveDAC8_1.c **** const uint8 CYCODE WaveDAC8_1_wave2[WaveDAC8_1_WAVE2_LENGTH] = { 128u,132u,138u,143u,148u,152u,158u
  22:Generated_Source\PSoC5/WaveDAC8_1.c **** 
  23:Generated_Source\PSoC5/WaveDAC8_1.c **** static uint8  WaveDAC8_1_Wave1Chan;
  24:Generated_Source\PSoC5/WaveDAC8_1.c **** static uint8  WaveDAC8_1_Wave2Chan;
  25:Generated_Source\PSoC5/WaveDAC8_1.c **** static uint8  WaveDAC8_1_Wave1TD;
  26:Generated_Source\PSoC5/WaveDAC8_1.c **** static uint8  WaveDAC8_1_Wave2TD;
  27:Generated_Source\PSoC5/WaveDAC8_1.c **** 
  28:Generated_Source\PSoC5/WaveDAC8_1.c **** 
  29:Generated_Source\PSoC5/WaveDAC8_1.c **** /*******************************************************************************
  30:Generated_Source\PSoC5/WaveDAC8_1.c **** * Function Name: WaveDAC8_1_Init
ARM GAS  C:\Users\JOSEAN~1\AppData\Local\Temp\ccgojhjw.s 			page 2


  31:Generated_Source\PSoC5/WaveDAC8_1.c **** ********************************************************************************
  32:Generated_Source\PSoC5/WaveDAC8_1.c **** *
  33:Generated_Source\PSoC5/WaveDAC8_1.c **** * Summary:
  34:Generated_Source\PSoC5/WaveDAC8_1.c **** *  Initializes component with parameters set in the customizer.
  35:Generated_Source\PSoC5/WaveDAC8_1.c **** *
  36:Generated_Source\PSoC5/WaveDAC8_1.c **** * Parameters:  
  37:Generated_Source\PSoC5/WaveDAC8_1.c **** *  None
  38:Generated_Source\PSoC5/WaveDAC8_1.c **** *
  39:Generated_Source\PSoC5/WaveDAC8_1.c **** * Return: 
  40:Generated_Source\PSoC5/WaveDAC8_1.c **** *  None
  41:Generated_Source\PSoC5/WaveDAC8_1.c **** *
  42:Generated_Source\PSoC5/WaveDAC8_1.c **** *******************************************************************************/
  43:Generated_Source\PSoC5/WaveDAC8_1.c **** void WaveDAC8_1_Init(void) 
  44:Generated_Source\PSoC5/WaveDAC8_1.c **** {
  45:Generated_Source\PSoC5/WaveDAC8_1.c **** 	WaveDAC8_1_VDAC8_Init();
  46:Generated_Source\PSoC5/WaveDAC8_1.c **** 	WaveDAC8_1_VDAC8_SetSpeed(WaveDAC8_1_HIGHSPEED);
  47:Generated_Source\PSoC5/WaveDAC8_1.c **** 	WaveDAC8_1_VDAC8_SetRange(WaveDAC8_1_DAC_RANGE);
  48:Generated_Source\PSoC5/WaveDAC8_1.c **** 
  49:Generated_Source\PSoC5/WaveDAC8_1.c **** 	#if(WaveDAC8_1_DAC_MODE == WaveDAC8_1_CURRENT_MODE)
  50:Generated_Source\PSoC5/WaveDAC8_1.c **** 		WaveDAC8_1_IDAC8_SetPolarity(WaveDAC8_1_DAC_POL);
  51:Generated_Source\PSoC5/WaveDAC8_1.c **** 	#endif /* WaveDAC8_1_DAC_MODE == WaveDAC8_1_CURRENT_MODE */
  52:Generated_Source\PSoC5/WaveDAC8_1.c **** 
  53:Generated_Source\PSoC5/WaveDAC8_1.c **** 	#if(WaveDAC8_1_OUT_MODE == WaveDAC8_1_BUFFER_MODE)
  54:Generated_Source\PSoC5/WaveDAC8_1.c **** 	   WaveDAC8_1_BuffAmp_Init();
  55:Generated_Source\PSoC5/WaveDAC8_1.c **** 	#endif /* WaveDAC8_1_OUT_MODE == WaveDAC8_1_BUFFER_MODE */
  56:Generated_Source\PSoC5/WaveDAC8_1.c **** 
  57:Generated_Source\PSoC5/WaveDAC8_1.c **** 	/* Get the TD Number for the DMA channel 1 and 2   */
  58:Generated_Source\PSoC5/WaveDAC8_1.c **** 	WaveDAC8_1_Wave1TD = CyDmaTdAllocate();
  59:Generated_Source\PSoC5/WaveDAC8_1.c **** 	WaveDAC8_1_Wave2TD = CyDmaTdAllocate();
  60:Generated_Source\PSoC5/WaveDAC8_1.c **** 	
  61:Generated_Source\PSoC5/WaveDAC8_1.c **** 	/* Initialize waveform pointers  */
  62:Generated_Source\PSoC5/WaveDAC8_1.c **** 	WaveDAC8_1_Wave1Setup(WaveDAC8_1_wave1, WaveDAC8_1_WAVE1_LENGTH) ;
  63:Generated_Source\PSoC5/WaveDAC8_1.c **** 	WaveDAC8_1_Wave2Setup(WaveDAC8_1_wave2, WaveDAC8_1_WAVE2_LENGTH) ;
  64:Generated_Source\PSoC5/WaveDAC8_1.c **** 	
  65:Generated_Source\PSoC5/WaveDAC8_1.c **** 	/* Initialize the internal clock if one present  */
  66:Generated_Source\PSoC5/WaveDAC8_1.c **** 	#if defined(WaveDAC8_1_DacClk_PHASE)
  67:Generated_Source\PSoC5/WaveDAC8_1.c **** 	   WaveDAC8_1_DacClk_SetPhase(WaveDAC8_1_CLK_PHASE_0nS);
  68:Generated_Source\PSoC5/WaveDAC8_1.c **** 	#endif /* defined(WaveDAC8_1_DacClk_PHASE) */
  69:Generated_Source\PSoC5/WaveDAC8_1.c **** }
  70:Generated_Source\PSoC5/WaveDAC8_1.c **** 
  71:Generated_Source\PSoC5/WaveDAC8_1.c **** 
  72:Generated_Source\PSoC5/WaveDAC8_1.c **** /*******************************************************************************
  73:Generated_Source\PSoC5/WaveDAC8_1.c **** * Function Name: WaveDAC8_1_Enable
  74:Generated_Source\PSoC5/WaveDAC8_1.c **** ********************************************************************************
  75:Generated_Source\PSoC5/WaveDAC8_1.c **** *  
  76:Generated_Source\PSoC5/WaveDAC8_1.c **** * Summary: 
  77:Generated_Source\PSoC5/WaveDAC8_1.c **** *  Enables the DAC block and DMA operation.
  78:Generated_Source\PSoC5/WaveDAC8_1.c **** *
  79:Generated_Source\PSoC5/WaveDAC8_1.c **** * Parameters:  
  80:Generated_Source\PSoC5/WaveDAC8_1.c **** *  None
  81:Generated_Source\PSoC5/WaveDAC8_1.c **** *
  82:Generated_Source\PSoC5/WaveDAC8_1.c **** * Return: 
  83:Generated_Source\PSoC5/WaveDAC8_1.c **** *  None
  84:Generated_Source\PSoC5/WaveDAC8_1.c **** *
  85:Generated_Source\PSoC5/WaveDAC8_1.c **** *******************************************************************************/
  86:Generated_Source\PSoC5/WaveDAC8_1.c **** void WaveDAC8_1_Enable(void) 
  87:Generated_Source\PSoC5/WaveDAC8_1.c **** {
ARM GAS  C:\Users\JOSEAN~1\AppData\Local\Temp\ccgojhjw.s 			page 3


  28              		.loc 1 87 0
  29              		.cfi_startproc
  30              		@ args = 0, pretend = 0, frame = 0
  31              		@ frame_needed = 0, uses_anonymous_args = 0
  32 0000 10B5     		push	{r4, lr}
  33              		.cfi_def_cfa_offset 8
  34              		.cfi_offset 4, -8
  35              		.cfi_offset 14, -4
  88:Generated_Source\PSoC5/WaveDAC8_1.c **** 	WaveDAC8_1_VDAC8_Enable();
  36              		.loc 1 88 0
  37 0002 FFF7FEFF 		bl	WaveDAC8_1_VDAC8_Enable
  38              	.LVL0:
  89:Generated_Source\PSoC5/WaveDAC8_1.c **** 
  90:Generated_Source\PSoC5/WaveDAC8_1.c **** 	#if(WaveDAC8_1_OUT_MODE == WaveDAC8_1_BUFFER_MODE)
  91:Generated_Source\PSoC5/WaveDAC8_1.c **** 	   WaveDAC8_1_BuffAmp_Enable();
  39              		.loc 1 91 0
  40 0006 FFF7FEFF 		bl	WaveDAC8_1_BuffAmp_Enable
  41              	.LVL1:
  92:Generated_Source\PSoC5/WaveDAC8_1.c **** 	#endif /* WaveDAC8_1_OUT_MODE == WaveDAC8_1_BUFFER_MODE */
  93:Generated_Source\PSoC5/WaveDAC8_1.c **** 
  94:Generated_Source\PSoC5/WaveDAC8_1.c **** 	/* 
  95:Generated_Source\PSoC5/WaveDAC8_1.c **** 	* Enable the channel. It is configured to remember the TD value so that
  96:Generated_Source\PSoC5/WaveDAC8_1.c **** 	* it can be restored from the place where it has been stopped.
  97:Generated_Source\PSoC5/WaveDAC8_1.c **** 	*/
  98:Generated_Source\PSoC5/WaveDAC8_1.c **** 	(void)CyDmaChEnable(WaveDAC8_1_Wave1Chan, 1u);
  42              		.loc 1 98 0
  43 000a 074C     		ldr	r4, .L3
  44 000c 0121     		movs	r1, #1
  45 000e 2078     		ldrb	r0, [r4]	@ zero_extendqisi2
  46 0010 FFF7FEFF 		bl	CyDmaChEnable
  47              	.LVL2:
  99:Generated_Source\PSoC5/WaveDAC8_1.c **** 	(void)CyDmaChEnable(WaveDAC8_1_Wave2Chan, 1u);
  48              		.loc 1 99 0
  49 0014 0121     		movs	r1, #1
  50 0016 6078     		ldrb	r0, [r4, #1]	@ zero_extendqisi2
  51 0018 FFF7FEFF 		bl	CyDmaChEnable
  52              	.LVL3:
 100:Generated_Source\PSoC5/WaveDAC8_1.c **** 	
 101:Generated_Source\PSoC5/WaveDAC8_1.c **** 	/* set the initial value */
 102:Generated_Source\PSoC5/WaveDAC8_1.c **** 	WaveDAC8_1_SetValue(0u);
  53              		.loc 1 102 0
  54 001c 0020     		movs	r0, #0
  55 001e FFF7FEFF 		bl	WaveDAC8_1_VDAC8_SetValue
  56              	.LVL4:
 103:Generated_Source\PSoC5/WaveDAC8_1.c **** 	
 104:Generated_Source\PSoC5/WaveDAC8_1.c **** 	#if(WaveDAC8_1_CLOCK_SRC == WaveDAC8_1_CLOCK_INT)  	
 105:Generated_Source\PSoC5/WaveDAC8_1.c **** 	   WaveDAC8_1_DacClk_Start();
  57              		.loc 1 105 0
  58 0022 FFF7FEFF 		bl	WaveDAC8_1_DacClk_Start
  59              	.LVL5:
  60 0026 10BD     		pop	{r4, pc}
  61              	.L4:
  62              		.align	2
  63              	.L3:
  64 0028 00000000 		.word	.LANCHOR0
  65              		.cfi_endproc
  66              	.LFE1:
ARM GAS  C:\Users\JOSEAN~1\AppData\Local\Temp\ccgojhjw.s 			page 4


  67              		.size	WaveDAC8_1_Enable, .-WaveDAC8_1_Enable
  68              		.section	.text.WaveDAC8_1_Stop,"ax",%progbits
  69              		.align	2
  70              		.global	WaveDAC8_1_Stop
  71              		.thumb
  72              		.thumb_func
  73              		.type	WaveDAC8_1_Stop, %function
  74              	WaveDAC8_1_Stop:
  75              	.LFB4:
 106:Generated_Source\PSoC5/WaveDAC8_1.c **** 	#endif /* WaveDAC8_1_CLOCK_SRC == WaveDAC8_1_CLOCK_INT */
 107:Generated_Source\PSoC5/WaveDAC8_1.c **** }
 108:Generated_Source\PSoC5/WaveDAC8_1.c **** 
 109:Generated_Source\PSoC5/WaveDAC8_1.c **** 
 110:Generated_Source\PSoC5/WaveDAC8_1.c **** /*******************************************************************************
 111:Generated_Source\PSoC5/WaveDAC8_1.c **** * Function Name: WaveDAC8_1_Start
 112:Generated_Source\PSoC5/WaveDAC8_1.c **** ********************************************************************************
 113:Generated_Source\PSoC5/WaveDAC8_1.c **** *
 114:Generated_Source\PSoC5/WaveDAC8_1.c **** * Summary:
 115:Generated_Source\PSoC5/WaveDAC8_1.c **** *  The start function initializes the voltage DAC with the default values, 
 116:Generated_Source\PSoC5/WaveDAC8_1.c **** *  and sets the power to the given level.  A power level of 0, is the same as 
 117:Generated_Source\PSoC5/WaveDAC8_1.c **** *  executing the stop function.
 118:Generated_Source\PSoC5/WaveDAC8_1.c **** *
 119:Generated_Source\PSoC5/WaveDAC8_1.c **** * Parameters:  
 120:Generated_Source\PSoC5/WaveDAC8_1.c **** *  None
 121:Generated_Source\PSoC5/WaveDAC8_1.c **** *
 122:Generated_Source\PSoC5/WaveDAC8_1.c **** * Return: 
 123:Generated_Source\PSoC5/WaveDAC8_1.c **** *  None
 124:Generated_Source\PSoC5/WaveDAC8_1.c **** *
 125:Generated_Source\PSoC5/WaveDAC8_1.c **** * Reentrant:
 126:Generated_Source\PSoC5/WaveDAC8_1.c **** *  No
 127:Generated_Source\PSoC5/WaveDAC8_1.c **** *
 128:Generated_Source\PSoC5/WaveDAC8_1.c **** *******************************************************************************/
 129:Generated_Source\PSoC5/WaveDAC8_1.c **** void WaveDAC8_1_Start(void) 
 130:Generated_Source\PSoC5/WaveDAC8_1.c **** {
 131:Generated_Source\PSoC5/WaveDAC8_1.c **** 	/* If not Initialized then initialize all required hardware and software */
 132:Generated_Source\PSoC5/WaveDAC8_1.c **** 	if(WaveDAC8_1_initVar == 0u)
 133:Generated_Source\PSoC5/WaveDAC8_1.c **** 	{
 134:Generated_Source\PSoC5/WaveDAC8_1.c **** 		WaveDAC8_1_Init();
 135:Generated_Source\PSoC5/WaveDAC8_1.c **** 		WaveDAC8_1_initVar = 1u;
 136:Generated_Source\PSoC5/WaveDAC8_1.c **** 	}
 137:Generated_Source\PSoC5/WaveDAC8_1.c **** 	
 138:Generated_Source\PSoC5/WaveDAC8_1.c **** 	WaveDAC8_1_Enable();
 139:Generated_Source\PSoC5/WaveDAC8_1.c **** }
 140:Generated_Source\PSoC5/WaveDAC8_1.c **** 
 141:Generated_Source\PSoC5/WaveDAC8_1.c **** 
 142:Generated_Source\PSoC5/WaveDAC8_1.c **** /*******************************************************************************
 143:Generated_Source\PSoC5/WaveDAC8_1.c **** * Function Name: WaveDAC8_1_StartEx
 144:Generated_Source\PSoC5/WaveDAC8_1.c **** ********************************************************************************
 145:Generated_Source\PSoC5/WaveDAC8_1.c **** *
 146:Generated_Source\PSoC5/WaveDAC8_1.c **** * Summary:
 147:Generated_Source\PSoC5/WaveDAC8_1.c **** *  The StartEx function sets pointers and sizes for both waveforms
 148:Generated_Source\PSoC5/WaveDAC8_1.c **** *  and then starts the component.
 149:Generated_Source\PSoC5/WaveDAC8_1.c **** *
 150:Generated_Source\PSoC5/WaveDAC8_1.c **** * Parameters:  
 151:Generated_Source\PSoC5/WaveDAC8_1.c **** *   uint8 * wavePtr1:     Pointer to the waveform 1 array.
 152:Generated_Source\PSoC5/WaveDAC8_1.c **** *   uint16  sampleSize1:  The amount of samples in the waveform 1.
 153:Generated_Source\PSoC5/WaveDAC8_1.c **** *   uint8 * wavePtr2:     Pointer to the waveform 2 array.
ARM GAS  C:\Users\JOSEAN~1\AppData\Local\Temp\ccgojhjw.s 			page 5


 154:Generated_Source\PSoC5/WaveDAC8_1.c **** *   uint16  sampleSize2:  The amount of samples in the waveform 2.
 155:Generated_Source\PSoC5/WaveDAC8_1.c **** *
 156:Generated_Source\PSoC5/WaveDAC8_1.c **** * Return: 
 157:Generated_Source\PSoC5/WaveDAC8_1.c **** *  None
 158:Generated_Source\PSoC5/WaveDAC8_1.c **** *
 159:Generated_Source\PSoC5/WaveDAC8_1.c **** * Reentrant:
 160:Generated_Source\PSoC5/WaveDAC8_1.c **** *  No
 161:Generated_Source\PSoC5/WaveDAC8_1.c **** *
 162:Generated_Source\PSoC5/WaveDAC8_1.c **** *******************************************************************************/
 163:Generated_Source\PSoC5/WaveDAC8_1.c **** void WaveDAC8_1_StartEx(const uint8 * wavePtr1, uint16 sampleSize1, const uint8 * wavePtr2, uint16 
 164:Generated_Source\PSoC5/WaveDAC8_1.c **** 
 165:Generated_Source\PSoC5/WaveDAC8_1.c **** {
 166:Generated_Source\PSoC5/WaveDAC8_1.c **** 	WaveDAC8_1_Wave1Setup(wavePtr1, sampleSize1);
 167:Generated_Source\PSoC5/WaveDAC8_1.c **** 	WaveDAC8_1_Wave2Setup(wavePtr2, sampleSize2);
 168:Generated_Source\PSoC5/WaveDAC8_1.c **** 	WaveDAC8_1_Start();
 169:Generated_Source\PSoC5/WaveDAC8_1.c **** }
 170:Generated_Source\PSoC5/WaveDAC8_1.c **** 
 171:Generated_Source\PSoC5/WaveDAC8_1.c **** 
 172:Generated_Source\PSoC5/WaveDAC8_1.c **** /*******************************************************************************
 173:Generated_Source\PSoC5/WaveDAC8_1.c **** * Function Name: WaveDAC8_1_Stop
 174:Generated_Source\PSoC5/WaveDAC8_1.c **** ********************************************************************************
 175:Generated_Source\PSoC5/WaveDAC8_1.c **** *
 176:Generated_Source\PSoC5/WaveDAC8_1.c **** * Summary:
 177:Generated_Source\PSoC5/WaveDAC8_1.c **** *  Stops the clock (if internal), disables the DMA channels
 178:Generated_Source\PSoC5/WaveDAC8_1.c **** *  and powers down the DAC.
 179:Generated_Source\PSoC5/WaveDAC8_1.c **** *
 180:Generated_Source\PSoC5/WaveDAC8_1.c **** * Parameters:  
 181:Generated_Source\PSoC5/WaveDAC8_1.c **** *  None  
 182:Generated_Source\PSoC5/WaveDAC8_1.c **** *
 183:Generated_Source\PSoC5/WaveDAC8_1.c **** * Return: 
 184:Generated_Source\PSoC5/WaveDAC8_1.c **** *  None
 185:Generated_Source\PSoC5/WaveDAC8_1.c **** *
 186:Generated_Source\PSoC5/WaveDAC8_1.c **** *******************************************************************************/
 187:Generated_Source\PSoC5/WaveDAC8_1.c **** void WaveDAC8_1_Stop(void) 
 188:Generated_Source\PSoC5/WaveDAC8_1.c **** {
  76              		.loc 1 188 0
  77              		.cfi_startproc
  78              		@ args = 0, pretend = 0, frame = 0
  79              		@ frame_needed = 0, uses_anonymous_args = 0
  80 0000 10B5     		push	{r4, lr}
  81              		.cfi_def_cfa_offset 8
  82              		.cfi_offset 4, -8
  83              		.cfi_offset 14, -4
 189:Generated_Source\PSoC5/WaveDAC8_1.c **** 	/* Turn off internal clock, if one present */
 190:Generated_Source\PSoC5/WaveDAC8_1.c **** 	#if(WaveDAC8_1_CLOCK_SRC == WaveDAC8_1_CLOCK_INT)  	
 191:Generated_Source\PSoC5/WaveDAC8_1.c **** 	   WaveDAC8_1_DacClk_Stop();
  84              		.loc 1 191 0
  85 0002 FFF7FEFF 		bl	WaveDAC8_1_DacClk_Stop
  86              	.LVL6:
 192:Generated_Source\PSoC5/WaveDAC8_1.c **** 	#endif /* WaveDAC8_1_CLOCK_SRC == WaveDAC8_1_CLOCK_INT */
 193:Generated_Source\PSoC5/WaveDAC8_1.c **** 	
 194:Generated_Source\PSoC5/WaveDAC8_1.c **** 	/* Disble DMA channels */
 195:Generated_Source\PSoC5/WaveDAC8_1.c **** 	(void)CyDmaChDisable(WaveDAC8_1_Wave1Chan);
  87              		.loc 1 195 0
  88 0006 054C     		ldr	r4, .L7
  89 0008 2078     		ldrb	r0, [r4]	@ zero_extendqisi2
  90 000a FFF7FEFF 		bl	CyDmaChDisable
ARM GAS  C:\Users\JOSEAN~1\AppData\Local\Temp\ccgojhjw.s 			page 6


  91              	.LVL7:
 196:Generated_Source\PSoC5/WaveDAC8_1.c **** 	(void)CyDmaChDisable(WaveDAC8_1_Wave2Chan);
  92              		.loc 1 196 0
  93 000e 6078     		ldrb	r0, [r4, #1]	@ zero_extendqisi2
  94 0010 FFF7FEFF 		bl	CyDmaChDisable
  95              	.LVL8:
 197:Generated_Source\PSoC5/WaveDAC8_1.c **** 
 198:Generated_Source\PSoC5/WaveDAC8_1.c **** 	/* Disable power to DAC */
 199:Generated_Source\PSoC5/WaveDAC8_1.c **** 	WaveDAC8_1_VDAC8_Stop();
  96              		.loc 1 199 0
  97 0014 FFF7FEFF 		bl	WaveDAC8_1_VDAC8_Stop
  98              	.LVL9:
  99 0018 10BD     		pop	{r4, pc}
 100              	.L8:
 101 001a 00BF     		.align	2
 102              	.L7:
 103 001c 00000000 		.word	.LANCHOR0
 104              		.cfi_endproc
 105              	.LFE4:
 106              		.size	WaveDAC8_1_Stop, .-WaveDAC8_1_Stop
 107              		.section	.text.WaveDAC8_1_Wave1Setup,"ax",%progbits
 108              		.align	2
 109              		.global	WaveDAC8_1_Wave1Setup
 110              		.thumb
 111              		.thumb_func
 112              		.type	WaveDAC8_1_Wave1Setup, %function
 113              	WaveDAC8_1_Wave1Setup:
 114              	.LFB5:
 200:Generated_Source\PSoC5/WaveDAC8_1.c **** }
 201:Generated_Source\PSoC5/WaveDAC8_1.c **** 
 202:Generated_Source\PSoC5/WaveDAC8_1.c **** 
 203:Generated_Source\PSoC5/WaveDAC8_1.c **** /*******************************************************************************
 204:Generated_Source\PSoC5/WaveDAC8_1.c **** * Function Name: WaveDAC8_1_Wave1Setup
 205:Generated_Source\PSoC5/WaveDAC8_1.c **** ********************************************************************************
 206:Generated_Source\PSoC5/WaveDAC8_1.c **** *
 207:Generated_Source\PSoC5/WaveDAC8_1.c **** * Summary:
 208:Generated_Source\PSoC5/WaveDAC8_1.c **** *  Sets pointer and size for waveform 1.                                    
 209:Generated_Source\PSoC5/WaveDAC8_1.c **** *
 210:Generated_Source\PSoC5/WaveDAC8_1.c **** * Parameters:  
 211:Generated_Source\PSoC5/WaveDAC8_1.c **** *  uint8 * WavePtr:     Pointer to the waveform array.
 212:Generated_Source\PSoC5/WaveDAC8_1.c **** *  uint16  SampleSize:  The amount of samples in the waveform.
 213:Generated_Source\PSoC5/WaveDAC8_1.c **** *
 214:Generated_Source\PSoC5/WaveDAC8_1.c **** * Return: 
 215:Generated_Source\PSoC5/WaveDAC8_1.c **** *  None 
 216:Generated_Source\PSoC5/WaveDAC8_1.c **** *
 217:Generated_Source\PSoC5/WaveDAC8_1.c **** *******************************************************************************/
 218:Generated_Source\PSoC5/WaveDAC8_1.c **** void WaveDAC8_1_Wave1Setup(const uint8 * wavePtr, uint16 sampleSize)
 219:Generated_Source\PSoC5/WaveDAC8_1.c **** 
 220:Generated_Source\PSoC5/WaveDAC8_1.c **** {
 115              		.loc 1 220 0
 116              		.cfi_startproc
 117              		@ args = 0, pretend = 0, frame = 0
 118              		@ frame_needed = 0, uses_anonymous_args = 0
 119              	.LVL10:
 120 0000 70B5     		push	{r4, r5, r6, lr}
 121              		.cfi_def_cfa_offset 16
 122              		.cfi_offset 4, -16
ARM GAS  C:\Users\JOSEAN~1\AppData\Local\Temp\ccgojhjw.s 			page 7


 123              		.cfi_offset 5, -12
 124              		.cfi_offset 6, -8
 125              		.cfi_offset 14, -4
 126 0002 0546     		mov	r5, r0
 127 0004 0E46     		mov	r6, r1
 221:Generated_Source\PSoC5/WaveDAC8_1.c **** 	#if (CY_PSOC3)
 222:Generated_Source\PSoC5/WaveDAC8_1.c **** 		uint16 memoryType; /* determining the source memory type */
 223:Generated_Source\PSoC5/WaveDAC8_1.c **** 		memoryType = (WaveDAC8_1_HI16FLASHPTR == HI16(wavePtr)) ? HI16(CYDEV_FLS_BASE) : HI16(CYDEV_SRAM_
 224:Generated_Source\PSoC5/WaveDAC8_1.c **** 		
 225:Generated_Source\PSoC5/WaveDAC8_1.c **** 		WaveDAC8_1_Wave1Chan = WaveDAC8_1_Wave1_DMA_DmaInitialize(
 226:Generated_Source\PSoC5/WaveDAC8_1.c **** 		WaveDAC8_1_Wave1_DMA_BYTES_PER_BURST, WaveDAC8_1_Wave1_DMA_REQUEST_PER_BURST,
 227:Generated_Source\PSoC5/WaveDAC8_1.c **** 		memoryType, HI16(CYDEV_PERIPH_BASE));
 228:Generated_Source\PSoC5/WaveDAC8_1.c **** 	#else /* PSoC 5 */
 229:Generated_Source\PSoC5/WaveDAC8_1.c **** 		WaveDAC8_1_Wave1Chan = WaveDAC8_1_Wave1_DMA_DmaInitialize(
 128              		.loc 1 229 0
 129 0006 4FF48043 		mov	r3, #16384
 130 000a 020C     		lsrs	r2, r0, #16
 131 000c 0121     		movs	r1, #1
 132              	.LVL11:
 133 000e 0846     		mov	r0, r1
 134              	.LVL12:
 135 0010 FFF7FEFF 		bl	WaveDAC8_1_Wave1_DMA_DmaInitialize
 136              	.LVL13:
 137 0014 094C     		ldr	r4, .L11
 138 0016 2070     		strb	r0, [r4]
 230:Generated_Source\PSoC5/WaveDAC8_1.c **** 		WaveDAC8_1_Wave1_DMA_BYTES_PER_BURST, WaveDAC8_1_Wave1_DMA_REQUEST_PER_BURST,
 231:Generated_Source\PSoC5/WaveDAC8_1.c **** 		HI16(wavePtr), HI16(WaveDAC8_1_DAC8__D));
 232:Generated_Source\PSoC5/WaveDAC8_1.c **** 	#endif /* CY_PSOC3 */
 233:Generated_Source\PSoC5/WaveDAC8_1.c **** 	
 234:Generated_Source\PSoC5/WaveDAC8_1.c **** 	/*
 235:Generated_Source\PSoC5/WaveDAC8_1.c **** 	* TD is looping on itself. 
 236:Generated_Source\PSoC5/WaveDAC8_1.c ****     * Increment the source address, but not the destination address. 
 237:Generated_Source\PSoC5/WaveDAC8_1.c **** 	*/
 238:Generated_Source\PSoC5/WaveDAC8_1.c **** 	(void)CyDmaTdSetConfiguration(WaveDAC8_1_Wave1TD, sampleSize, WaveDAC8_1_Wave1TD, 
 139              		.loc 1 238 0
 140 0018 A078     		ldrb	r0, [r4, #2]	@ zero_extendqisi2
 141 001a 0123     		movs	r3, #1
 142 001c 0246     		mov	r2, r0
 143 001e 3146     		mov	r1, r6
 144 0020 FFF7FEFF 		bl	CyDmaTdSetConfiguration
 145              	.LVL14:
 239:Generated_Source\PSoC5/WaveDAC8_1.c ****                                     (uint8)CY_DMA_TD_INC_SRC_ADR | (uint8)WaveDAC8_1_Wave1_DMA__TD_
 240:Generated_Source\PSoC5/WaveDAC8_1.c **** 	
 241:Generated_Source\PSoC5/WaveDAC8_1.c **** 	/* Set the TD source and destination address */
 242:Generated_Source\PSoC5/WaveDAC8_1.c **** 	(void)CyDmaTdSetAddress(WaveDAC8_1_Wave1TD, LO16((uint32)wavePtr), LO16(WaveDAC8_1_DAC8__D));
 146              		.loc 1 242 0
 147 0024 45F68232 		movw	r2, #23426
 148 0028 A9B2     		uxth	r1, r5
 149 002a A078     		ldrb	r0, [r4, #2]	@ zero_extendqisi2
 150 002c FFF7FEFF 		bl	CyDmaTdSetAddress
 151              	.LVL15:
 243:Generated_Source\PSoC5/WaveDAC8_1.c **** 	
 244:Generated_Source\PSoC5/WaveDAC8_1.c **** 	/* Associate the TD with the channel */
 245:Generated_Source\PSoC5/WaveDAC8_1.c **** 	(void)CyDmaChSetInitialTd(WaveDAC8_1_Wave1Chan, WaveDAC8_1_Wave1TD);
 152              		.loc 1 245 0
 153 0030 A178     		ldrb	r1, [r4, #2]	@ zero_extendqisi2
 154 0032 2078     		ldrb	r0, [r4]	@ zero_extendqisi2
ARM GAS  C:\Users\JOSEAN~1\AppData\Local\Temp\ccgojhjw.s 			page 8


 155 0034 FFF7FEFF 		bl	CyDmaChSetInitialTd
 156              	.LVL16:
 157 0038 70BD     		pop	{r4, r5, r6, pc}
 158              	.LVL17:
 159              	.L12:
 160 003a 00BF     		.align	2
 161              	.L11:
 162 003c 00000000 		.word	.LANCHOR0
 163              		.cfi_endproc
 164              	.LFE5:
 165              		.size	WaveDAC8_1_Wave1Setup, .-WaveDAC8_1_Wave1Setup
 166              		.section	.text.WaveDAC8_1_Wave2Setup,"ax",%progbits
 167              		.align	2
 168              		.global	WaveDAC8_1_Wave2Setup
 169              		.thumb
 170              		.thumb_func
 171              		.type	WaveDAC8_1_Wave2Setup, %function
 172              	WaveDAC8_1_Wave2Setup:
 173              	.LFB6:
 246:Generated_Source\PSoC5/WaveDAC8_1.c **** }
 247:Generated_Source\PSoC5/WaveDAC8_1.c **** 
 248:Generated_Source\PSoC5/WaveDAC8_1.c **** 
 249:Generated_Source\PSoC5/WaveDAC8_1.c **** /*******************************************************************************
 250:Generated_Source\PSoC5/WaveDAC8_1.c **** * Function Name: WaveDAC8_1_Wave2Setup
 251:Generated_Source\PSoC5/WaveDAC8_1.c **** ********************************************************************************
 252:Generated_Source\PSoC5/WaveDAC8_1.c **** *
 253:Generated_Source\PSoC5/WaveDAC8_1.c **** * Summary:
 254:Generated_Source\PSoC5/WaveDAC8_1.c **** *  Sets pointer and size for waveform 2.                                    
 255:Generated_Source\PSoC5/WaveDAC8_1.c **** *
 256:Generated_Source\PSoC5/WaveDAC8_1.c **** * Parameters:  
 257:Generated_Source\PSoC5/WaveDAC8_1.c **** *  uint8 * WavePtr:     Pointer to the waveform array.
 258:Generated_Source\PSoC5/WaveDAC8_1.c **** *  uint16  SampleSize:  The amount of samples in the waveform.
 259:Generated_Source\PSoC5/WaveDAC8_1.c **** *
 260:Generated_Source\PSoC5/WaveDAC8_1.c **** * Return: 
 261:Generated_Source\PSoC5/WaveDAC8_1.c **** *  None
 262:Generated_Source\PSoC5/WaveDAC8_1.c **** *
 263:Generated_Source\PSoC5/WaveDAC8_1.c **** *******************************************************************************/
 264:Generated_Source\PSoC5/WaveDAC8_1.c **** void WaveDAC8_1_Wave2Setup(const uint8 * wavePtr, uint16 sampleSize)
 265:Generated_Source\PSoC5/WaveDAC8_1.c ****  
 266:Generated_Source\PSoC5/WaveDAC8_1.c **** {
 174              		.loc 1 266 0
 175              		.cfi_startproc
 176              		@ args = 0, pretend = 0, frame = 0
 177              		@ frame_needed = 0, uses_anonymous_args = 0
 178              	.LVL18:
 179 0000 70B5     		push	{r4, r5, r6, lr}
 180              		.cfi_def_cfa_offset 16
 181              		.cfi_offset 4, -16
 182              		.cfi_offset 5, -12
 183              		.cfi_offset 6, -8
 184              		.cfi_offset 14, -4
 185 0002 0546     		mov	r5, r0
 186 0004 0E46     		mov	r6, r1
 267:Generated_Source\PSoC5/WaveDAC8_1.c **** 	#if (CY_PSOC3)
 268:Generated_Source\PSoC5/WaveDAC8_1.c **** 		uint16 memoryType; /* determining the source memory type */
 269:Generated_Source\PSoC5/WaveDAC8_1.c **** 		memoryType = (WaveDAC8_1_HI16FLASHPTR == HI16(wavePtr)) ? HI16(CYDEV_FLS_BASE) : HI16(CYDEV_SRAM_
 270:Generated_Source\PSoC5/WaveDAC8_1.c **** 			
ARM GAS  C:\Users\JOSEAN~1\AppData\Local\Temp\ccgojhjw.s 			page 9


 271:Generated_Source\PSoC5/WaveDAC8_1.c **** 		WaveDAC8_1_Wave2Chan = WaveDAC8_1_Wave2_DMA_DmaInitialize(
 272:Generated_Source\PSoC5/WaveDAC8_1.c **** 		WaveDAC8_1_Wave2_DMA_BYTES_PER_BURST, WaveDAC8_1_Wave2_DMA_REQUEST_PER_BURST,
 273:Generated_Source\PSoC5/WaveDAC8_1.c **** 		memoryType, HI16(CYDEV_PERIPH_BASE));
 274:Generated_Source\PSoC5/WaveDAC8_1.c **** 	#else /* PSoC 5 */
 275:Generated_Source\PSoC5/WaveDAC8_1.c **** 		WaveDAC8_1_Wave2Chan = WaveDAC8_1_Wave2_DMA_DmaInitialize(
 187              		.loc 1 275 0
 188 0006 4FF48043 		mov	r3, #16384
 189 000a 020C     		lsrs	r2, r0, #16
 190 000c 0121     		movs	r1, #1
 191              	.LVL19:
 192 000e 0846     		mov	r0, r1
 193              	.LVL20:
 194 0010 FFF7FEFF 		bl	WaveDAC8_1_Wave2_DMA_DmaInitialize
 195              	.LVL21:
 196 0014 094C     		ldr	r4, .L15
 197 0016 6070     		strb	r0, [r4, #1]
 276:Generated_Source\PSoC5/WaveDAC8_1.c **** 		WaveDAC8_1_Wave2_DMA_BYTES_PER_BURST, WaveDAC8_1_Wave2_DMA_REQUEST_PER_BURST,
 277:Generated_Source\PSoC5/WaveDAC8_1.c **** 		HI16(wavePtr), HI16(WaveDAC8_1_DAC8__D));
 278:Generated_Source\PSoC5/WaveDAC8_1.c **** 	#endif /* CY_PSOC3 */
 279:Generated_Source\PSoC5/WaveDAC8_1.c **** 	
 280:Generated_Source\PSoC5/WaveDAC8_1.c **** 	/*
 281:Generated_Source\PSoC5/WaveDAC8_1.c **** 	* TD is looping on itself. 
 282:Generated_Source\PSoC5/WaveDAC8_1.c **** 	* Increment the source address, but not the destination address. 
 283:Generated_Source\PSoC5/WaveDAC8_1.c **** 	*/
 284:Generated_Source\PSoC5/WaveDAC8_1.c **** 	(void)CyDmaTdSetConfiguration(WaveDAC8_1_Wave2TD, sampleSize, WaveDAC8_1_Wave2TD, 
 198              		.loc 1 284 0
 199 0018 E078     		ldrb	r0, [r4, #3]	@ zero_extendqisi2
 200 001a 0123     		movs	r3, #1
 201 001c 0246     		mov	r2, r0
 202 001e 3146     		mov	r1, r6
 203 0020 FFF7FEFF 		bl	CyDmaTdSetConfiguration
 204              	.LVL22:
 285:Generated_Source\PSoC5/WaveDAC8_1.c ****                                     (uint8)CY_DMA_TD_INC_SRC_ADR | (uint8)WaveDAC8_1_Wave2_DMA__TD_
 286:Generated_Source\PSoC5/WaveDAC8_1.c **** 	
 287:Generated_Source\PSoC5/WaveDAC8_1.c **** 	/* Set the TD source and destination address */
 288:Generated_Source\PSoC5/WaveDAC8_1.c **** 	(void)CyDmaTdSetAddress(WaveDAC8_1_Wave2TD, LO16((uint32)wavePtr), LO16(WaveDAC8_1_DAC8__D));
 205              		.loc 1 288 0
 206 0024 45F68232 		movw	r2, #23426
 207 0028 A9B2     		uxth	r1, r5
 208 002a E078     		ldrb	r0, [r4, #3]	@ zero_extendqisi2
 209 002c FFF7FEFF 		bl	CyDmaTdSetAddress
 210              	.LVL23:
 289:Generated_Source\PSoC5/WaveDAC8_1.c **** 	
 290:Generated_Source\PSoC5/WaveDAC8_1.c **** 	/* Associate the TD with the channel */
 291:Generated_Source\PSoC5/WaveDAC8_1.c **** 	(void)CyDmaChSetInitialTd(WaveDAC8_1_Wave2Chan, WaveDAC8_1_Wave2TD);
 211              		.loc 1 291 0
 212 0030 E178     		ldrb	r1, [r4, #3]	@ zero_extendqisi2
 213 0032 6078     		ldrb	r0, [r4, #1]	@ zero_extendqisi2
 214 0034 FFF7FEFF 		bl	CyDmaChSetInitialTd
 215              	.LVL24:
 216 0038 70BD     		pop	{r4, r5, r6, pc}
 217              	.LVL25:
 218              	.L16:
 219 003a 00BF     		.align	2
 220              	.L15:
 221 003c 00000000 		.word	.LANCHOR0
 222              		.cfi_endproc
ARM GAS  C:\Users\JOSEAN~1\AppData\Local\Temp\ccgojhjw.s 			page 10


 223              	.LFE6:
 224              		.size	WaveDAC8_1_Wave2Setup, .-WaveDAC8_1_Wave2Setup
 225              		.section	.text.WaveDAC8_1_Init,"ax",%progbits
 226              		.align	2
 227              		.global	WaveDAC8_1_Init
 228              		.thumb
 229              		.thumb_func
 230              		.type	WaveDAC8_1_Init, %function
 231              	WaveDAC8_1_Init:
 232              	.LFB0:
  44:Generated_Source\PSoC5/WaveDAC8_1.c **** 	WaveDAC8_1_VDAC8_Init();
 233              		.loc 1 44 0
 234              		.cfi_startproc
 235              		@ args = 0, pretend = 0, frame = 0
 236              		@ frame_needed = 0, uses_anonymous_args = 0
 237 0000 10B5     		push	{r4, lr}
 238              		.cfi_def_cfa_offset 8
 239              		.cfi_offset 4, -8
 240              		.cfi_offset 14, -4
  45:Generated_Source\PSoC5/WaveDAC8_1.c **** 	WaveDAC8_1_VDAC8_SetSpeed(WaveDAC8_1_HIGHSPEED);
 241              		.loc 1 45 0
 242 0002 FFF7FEFF 		bl	WaveDAC8_1_VDAC8_Init
 243              	.LVL26:
  46:Generated_Source\PSoC5/WaveDAC8_1.c **** 	WaveDAC8_1_VDAC8_SetRange(WaveDAC8_1_DAC_RANGE);
 244              		.loc 1 46 0
 245 0006 0220     		movs	r0, #2
 246 0008 FFF7FEFF 		bl	WaveDAC8_1_VDAC8_SetSpeed
 247              	.LVL27:
  47:Generated_Source\PSoC5/WaveDAC8_1.c **** 
 248              		.loc 1 47 0
 249 000c 0020     		movs	r0, #0
 250 000e FFF7FEFF 		bl	WaveDAC8_1_VDAC8_SetRange
 251              	.LVL28:
  54:Generated_Source\PSoC5/WaveDAC8_1.c **** 	#endif /* WaveDAC8_1_OUT_MODE == WaveDAC8_1_BUFFER_MODE */
 252              		.loc 1 54 0
 253 0012 FFF7FEFF 		bl	WaveDAC8_1_BuffAmp_Init
 254              	.LVL29:
  58:Generated_Source\PSoC5/WaveDAC8_1.c **** 	WaveDAC8_1_Wave2TD = CyDmaTdAllocate();
 255              		.loc 1 58 0
 256 0016 FFF7FEFF 		bl	CyDmaTdAllocate
 257              	.LVL30:
 258 001a 084C     		ldr	r4, .L19
 259 001c A070     		strb	r0, [r4, #2]
  59:Generated_Source\PSoC5/WaveDAC8_1.c **** 	
 260              		.loc 1 59 0
 261 001e FFF7FEFF 		bl	CyDmaTdAllocate
 262              	.LVL31:
 263 0022 E070     		strb	r0, [r4, #3]
  62:Generated_Source\PSoC5/WaveDAC8_1.c **** 	WaveDAC8_1_Wave2Setup(WaveDAC8_1_wave2, WaveDAC8_1_WAVE2_LENGTH) ;
 264              		.loc 1 62 0
 265 0024 064C     		ldr	r4, .L19+4
 266 0026 4FF47A61 		mov	r1, #4000
 267 002a 2046     		mov	r0, r4
 268 002c FFF7FEFF 		bl	WaveDAC8_1_Wave1Setup
 269              	.LVL32:
  63:Generated_Source\PSoC5/WaveDAC8_1.c **** 	
 270              		.loc 1 63 0
ARM GAS  C:\Users\JOSEAN~1\AppData\Local\Temp\ccgojhjw.s 			page 11


 271 0030 6421     		movs	r1, #100
 272 0032 04F57A60 		add	r0, r4, #4000
 273 0036 FFF7FEFF 		bl	WaveDAC8_1_Wave2Setup
 274              	.LVL33:
 275 003a 10BD     		pop	{r4, pc}
 276              	.L20:
 277              		.align	2
 278              	.L19:
 279 003c 00000000 		.word	.LANCHOR0
 280 0040 00000000 		.word	.LANCHOR1
 281              		.cfi_endproc
 282              	.LFE0:
 283              		.size	WaveDAC8_1_Init, .-WaveDAC8_1_Init
 284              		.section	.text.WaveDAC8_1_Start,"ax",%progbits
 285              		.align	2
 286              		.global	WaveDAC8_1_Start
 287              		.thumb
 288              		.thumb_func
 289              		.type	WaveDAC8_1_Start, %function
 290              	WaveDAC8_1_Start:
 291              	.LFB2:
 130:Generated_Source\PSoC5/WaveDAC8_1.c **** 	/* If not Initialized then initialize all required hardware and software */
 292              		.loc 1 130 0
 293              		.cfi_startproc
 294              		@ args = 0, pretend = 0, frame = 0
 295              		@ frame_needed = 0, uses_anonymous_args = 0
 296 0000 08B5     		push	{r3, lr}
 297              		.cfi_def_cfa_offset 8
 298              		.cfi_offset 3, -8
 299              		.cfi_offset 14, -4
 132:Generated_Source\PSoC5/WaveDAC8_1.c **** 	{
 300              		.loc 1 132 0
 301 0002 054B     		ldr	r3, .L24
 302 0004 1B79     		ldrb	r3, [r3, #4]	@ zero_extendqisi2
 303 0006 23B9     		cbnz	r3, .L22
 134:Generated_Source\PSoC5/WaveDAC8_1.c **** 		WaveDAC8_1_initVar = 1u;
 304              		.loc 1 134 0
 305 0008 FFF7FEFF 		bl	WaveDAC8_1_Init
 306              	.LVL34:
 135:Generated_Source\PSoC5/WaveDAC8_1.c **** 	}
 307              		.loc 1 135 0
 308 000c 0122     		movs	r2, #1
 309 000e 024B     		ldr	r3, .L24
 310 0010 1A71     		strb	r2, [r3, #4]
 311              	.L22:
 138:Generated_Source\PSoC5/WaveDAC8_1.c **** }
 312              		.loc 1 138 0
 313 0012 FFF7FEFF 		bl	WaveDAC8_1_Enable
 314              	.LVL35:
 315 0016 08BD     		pop	{r3, pc}
 316              	.L25:
 317              		.align	2
 318              	.L24:
 319 0018 00000000 		.word	.LANCHOR0
 320              		.cfi_endproc
 321              	.LFE2:
 322              		.size	WaveDAC8_1_Start, .-WaveDAC8_1_Start
ARM GAS  C:\Users\JOSEAN~1\AppData\Local\Temp\ccgojhjw.s 			page 12


 323              		.section	.text.WaveDAC8_1_StartEx,"ax",%progbits
 324              		.align	2
 325              		.global	WaveDAC8_1_StartEx
 326              		.thumb
 327              		.thumb_func
 328              		.type	WaveDAC8_1_StartEx, %function
 329              	WaveDAC8_1_StartEx:
 330              	.LFB3:
 165:Generated_Source\PSoC5/WaveDAC8_1.c **** 	WaveDAC8_1_Wave1Setup(wavePtr1, sampleSize1);
 331              		.loc 1 165 0
 332              		.cfi_startproc
 333              		@ args = 0, pretend = 0, frame = 0
 334              		@ frame_needed = 0, uses_anonymous_args = 0
 335              	.LVL36:
 336 0000 38B5     		push	{r3, r4, r5, lr}
 337              		.cfi_def_cfa_offset 16
 338              		.cfi_offset 3, -16
 339              		.cfi_offset 4, -12
 340              		.cfi_offset 5, -8
 341              		.cfi_offset 14, -4
 342 0002 1446     		mov	r4, r2
 343 0004 1D46     		mov	r5, r3
 166:Generated_Source\PSoC5/WaveDAC8_1.c **** 	WaveDAC8_1_Wave2Setup(wavePtr2, sampleSize2);
 344              		.loc 1 166 0
 345 0006 FFF7FEFF 		bl	WaveDAC8_1_Wave1Setup
 346              	.LVL37:
 167:Generated_Source\PSoC5/WaveDAC8_1.c **** 	WaveDAC8_1_Start();
 347              		.loc 1 167 0
 348 000a 2946     		mov	r1, r5
 349 000c 2046     		mov	r0, r4
 350 000e FFF7FEFF 		bl	WaveDAC8_1_Wave2Setup
 351              	.LVL38:
 168:Generated_Source\PSoC5/WaveDAC8_1.c **** }
 352              		.loc 1 168 0
 353 0012 FFF7FEFF 		bl	WaveDAC8_1_Start
 354              	.LVL39:
 355 0016 38BD     		pop	{r3, r4, r5, pc}
 356              		.cfi_endproc
 357              	.LFE3:
 358              		.size	WaveDAC8_1_StartEx, .-WaveDAC8_1_StartEx
 359              		.global	WaveDAC8_1_wave2
 360              		.global	WaveDAC8_1_wave1
 361              		.global	WaveDAC8_1_initVar
 362              		.section	.rodata
 363              		.align	2
 364              		.set	.LANCHOR1,. + 0
 365              		.type	WaveDAC8_1_wave1, %object
 366              		.size	WaveDAC8_1_wave1, 4000
 367              	WaveDAC8_1_wave1:
 368 0000 84       		.byte	-124
 369 0001 85       		.byte	-123
 370 0002 85       		.byte	-123
 371 0003 85       		.byte	-123
 372 0004 85       		.byte	-123
 373 0005 85       		.byte	-123
 374 0006 86       		.byte	-122
 375 0007 86       		.byte	-122
ARM GAS  C:\Users\JOSEAN~1\AppData\Local\Temp\ccgojhjw.s 			page 13


 376 0008 86       		.byte	-122
 377 0009 86       		.byte	-122
 378 000a 86       		.byte	-122
 379 000b 86       		.byte	-122
 380 000c 87       		.byte	-121
 381 000d 87       		.byte	-121
 382 000e 87       		.byte	-121
 383 000f 87       		.byte	-121
 384 0010 87       		.byte	-121
 385 0011 87       		.byte	-121
 386 0012 88       		.byte	-120
 387 0013 88       		.byte	-120
 388 0014 88       		.byte	-120
 389 0015 88       		.byte	-120
 390 0016 88       		.byte	-120
 391 0017 89       		.byte	-119
 392 0018 89       		.byte	-119
 393 0019 89       		.byte	-119
 394 001a 89       		.byte	-119
 395 001b 89       		.byte	-119
 396 001c 89       		.byte	-119
 397 001d 8A       		.byte	-118
 398 001e 8A       		.byte	-118
 399 001f 8A       		.byte	-118
 400 0020 8A       		.byte	-118
 401 0021 8A       		.byte	-118
 402 0022 8A       		.byte	-118
 403 0023 8B       		.byte	-117
 404 0024 8B       		.byte	-117
 405 0025 8B       		.byte	-117
 406 0026 8B       		.byte	-117
 407 0027 8B       		.byte	-117
 408 0028 8C       		.byte	-116
 409 0029 8C       		.byte	-116
 410 002a 8C       		.byte	-116
 411 002b 8C       		.byte	-116
 412 002c 8C       		.byte	-116
 413 002d 8C       		.byte	-116
 414 002e 8D       		.byte	-115
 415 002f 8D       		.byte	-115
 416 0030 8D       		.byte	-115
 417 0031 8D       		.byte	-115
 418 0032 8D       		.byte	-115
 419 0033 8D       		.byte	-115
 420 0034 8E       		.byte	-114
 421 0035 8E       		.byte	-114
 422 0036 8E       		.byte	-114
 423 0037 8E       		.byte	-114
 424 0038 8E       		.byte	-114
 425 0039 8E       		.byte	-114
 426 003a 8F       		.byte	-113
 427 003b 8F       		.byte	-113
 428 003c 8F       		.byte	-113
 429 003d 8F       		.byte	-113
 430 003e 8F       		.byte	-113
 431 003f 90       		.byte	-112
 432 0040 90       		.byte	-112
ARM GAS  C:\Users\JOSEAN~1\AppData\Local\Temp\ccgojhjw.s 			page 14


 433 0041 90       		.byte	-112
 434 0042 90       		.byte	-112
 435 0043 90       		.byte	-112
 436 0044 90       		.byte	-112
 437 0045 91       		.byte	-111
 438 0046 91       		.byte	-111
 439 0047 91       		.byte	-111
 440 0048 91       		.byte	-111
 441 0049 91       		.byte	-111
 442 004a 91       		.byte	-111
 443 004b 92       		.byte	-110
 444 004c 92       		.byte	-110
 445 004d 92       		.byte	-110
 446 004e 92       		.byte	-110
 447 004f 92       		.byte	-110
 448 0050 92       		.byte	-110
 449 0051 93       		.byte	-109
 450 0052 93       		.byte	-109
 451 0053 93       		.byte	-109
 452 0054 93       		.byte	-109
 453 0055 93       		.byte	-109
 454 0056 94       		.byte	-108
 455 0057 94       		.byte	-108
 456 0058 94       		.byte	-108
 457 0059 94       		.byte	-108
 458 005a 94       		.byte	-108
 459 005b 94       		.byte	-108
 460 005c 95       		.byte	-107
 461 005d 95       		.byte	-107
 462 005e 95       		.byte	-107
 463 005f 95       		.byte	-107
 464 0060 95       		.byte	-107
 465 0061 95       		.byte	-107
 466 0062 96       		.byte	-106
 467 0063 96       		.byte	-106
 468 0064 96       		.byte	-106
 469 0065 96       		.byte	-106
 470 0066 96       		.byte	-106
 471 0067 96       		.byte	-106
 472 0068 97       		.byte	-105
 473 0069 97       		.byte	-105
 474 006a 97       		.byte	-105
 475 006b 97       		.byte	-105
 476 006c 97       		.byte	-105
 477 006d 97       		.byte	-105
 478 006e 98       		.byte	-104
 479 006f 98       		.byte	-104
 480 0070 98       		.byte	-104
 481 0071 98       		.byte	-104
 482 0072 98       		.byte	-104
 483 0073 99       		.byte	-103
 484 0074 99       		.byte	-103
 485 0075 99       		.byte	-103
 486 0076 99       		.byte	-103
 487 0077 99       		.byte	-103
 488 0078 99       		.byte	-103
 489 0079 9A       		.byte	-102
ARM GAS  C:\Users\JOSEAN~1\AppData\Local\Temp\ccgojhjw.s 			page 15


 490 007a 9A       		.byte	-102
 491 007b 9A       		.byte	-102
 492 007c 9A       		.byte	-102
 493 007d 9A       		.byte	-102
 494 007e 9A       		.byte	-102
 495 007f 9B       		.byte	-101
 496 0080 9B       		.byte	-101
 497 0081 9B       		.byte	-101
 498 0082 9B       		.byte	-101
 499 0083 9B       		.byte	-101
 500 0084 9B       		.byte	-101
 501 0085 9C       		.byte	-100
 502 0086 9C       		.byte	-100
 503 0087 9C       		.byte	-100
 504 0088 9C       		.byte	-100
 505 0089 9C       		.byte	-100
 506 008a 9C       		.byte	-100
 507 008b 9D       		.byte	-99
 508 008c 9D       		.byte	-99
 509 008d 9D       		.byte	-99
 510 008e 9D       		.byte	-99
 511 008f 9D       		.byte	-99
 512 0090 9E       		.byte	-98
 513 0091 9E       		.byte	-98
 514 0092 9E       		.byte	-98
 515 0093 9E       		.byte	-98
 516 0094 9E       		.byte	-98
 517 0095 9E       		.byte	-98
 518 0096 9F       		.byte	-97
 519 0097 9F       		.byte	-97
 520 0098 9F       		.byte	-97
 521 0099 9F       		.byte	-97
 522 009a 9F       		.byte	-97
 523 009b 9F       		.byte	-97
 524 009c A0       		.byte	-96
 525 009d A0       		.byte	-96
 526 009e A0       		.byte	-96
 527 009f A0       		.byte	-96
 528 00a0 A0       		.byte	-96
 529 00a1 A0       		.byte	-96
 530 00a2 A1       		.byte	-95
 531 00a3 A1       		.byte	-95
 532 00a4 A1       		.byte	-95
 533 00a5 A1       		.byte	-95
 534 00a6 A1       		.byte	-95
 535 00a7 A1       		.byte	-95
 536 00a8 A2       		.byte	-94
 537 00a9 A2       		.byte	-94
 538 00aa A2       		.byte	-94
 539 00ab A2       		.byte	-94
 540 00ac A2       		.byte	-94
 541 00ad A2       		.byte	-94
 542 00ae A3       		.byte	-93
 543 00af A3       		.byte	-93
 544 00b0 A3       		.byte	-93
 545 00b1 A3       		.byte	-93
 546 00b2 A3       		.byte	-93
ARM GAS  C:\Users\JOSEAN~1\AppData\Local\Temp\ccgojhjw.s 			page 16


 547 00b3 A3       		.byte	-93
 548 00b4 A4       		.byte	-92
 549 00b5 A4       		.byte	-92
 550 00b6 A4       		.byte	-92
 551 00b7 A4       		.byte	-92
 552 00b8 A4       		.byte	-92
 553 00b9 A4       		.byte	-92
 554 00ba A5       		.byte	-91
 555 00bb A5       		.byte	-91
 556 00bc A5       		.byte	-91
 557 00bd A5       		.byte	-91
 558 00be A5       		.byte	-91
 559 00bf A5       		.byte	-91
 560 00c0 A6       		.byte	-90
 561 00c1 A6       		.byte	-90
 562 00c2 A6       		.byte	-90
 563 00c3 A6       		.byte	-90
 564 00c4 A6       		.byte	-90
 565 00c5 A6       		.byte	-90
 566 00c6 A7       		.byte	-89
 567 00c7 A7       		.byte	-89
 568 00c8 A7       		.byte	-89
 569 00c9 A7       		.byte	-89
 570 00ca A7       		.byte	-89
 571 00cb A7       		.byte	-89
 572 00cc A8       		.byte	-88
 573 00cd A8       		.byte	-88
 574 00ce A8       		.byte	-88
 575 00cf A8       		.byte	-88
 576 00d0 A8       		.byte	-88
 577 00d1 A8       		.byte	-88
 578 00d2 A9       		.byte	-87
 579 00d3 A9       		.byte	-87
 580 00d4 A9       		.byte	-87
 581 00d5 A9       		.byte	-87
 582 00d6 A9       		.byte	-87
 583 00d7 A9       		.byte	-87
 584 00d8 AA       		.byte	-86
 585 00d9 AA       		.byte	-86
 586 00da AA       		.byte	-86
 587 00db AA       		.byte	-86
 588 00dc AA       		.byte	-86
 589 00dd AA       		.byte	-86
 590 00de AB       		.byte	-85
 591 00df AB       		.byte	-85
 592 00e0 AB       		.byte	-85
 593 00e1 AB       		.byte	-85
 594 00e2 AB       		.byte	-85
 595 00e3 AB       		.byte	-85
 596 00e4 AC       		.byte	-84
 597 00e5 AC       		.byte	-84
 598 00e6 AC       		.byte	-84
 599 00e7 AC       		.byte	-84
 600 00e8 AC       		.byte	-84
 601 00e9 AC       		.byte	-84
 602 00ea AD       		.byte	-83
 603 00eb AD       		.byte	-83
ARM GAS  C:\Users\JOSEAN~1\AppData\Local\Temp\ccgojhjw.s 			page 17


 604 00ec AD       		.byte	-83
 605 00ed AD       		.byte	-83
 606 00ee AD       		.byte	-83
 607 00ef AD       		.byte	-83
 608 00f0 AE       		.byte	-82
 609 00f1 AE       		.byte	-82
 610 00f2 AE       		.byte	-82
 611 00f3 AE       		.byte	-82
 612 00f4 AE       		.byte	-82
 613 00f5 AE       		.byte	-82
 614 00f6 AF       		.byte	-81
 615 00f7 AF       		.byte	-81
 616 00f8 AF       		.byte	-81
 617 00f9 AF       		.byte	-81
 618 00fa AF       		.byte	-81
 619 00fb AF       		.byte	-81
 620 00fc AF       		.byte	-81
 621 00fd B0       		.byte	-80
 622 00fe B0       		.byte	-80
 623 00ff B0       		.byte	-80
 624 0100 B0       		.byte	-80
 625 0101 B0       		.byte	-80
 626 0102 B0       		.byte	-80
 627 0103 B1       		.byte	-79
 628 0104 B1       		.byte	-79
 629 0105 B1       		.byte	-79
 630 0106 B1       		.byte	-79
 631 0107 B1       		.byte	-79
 632 0108 B1       		.byte	-79
 633 0109 B2       		.byte	-78
 634 010a B2       		.byte	-78
 635 010b B2       		.byte	-78
 636 010c B2       		.byte	-78
 637 010d B2       		.byte	-78
 638 010e B2       		.byte	-78
 639 010f B3       		.byte	-77
 640 0110 B3       		.byte	-77
 641 0111 B3       		.byte	-77
 642 0112 B3       		.byte	-77
 643 0113 B3       		.byte	-77
 644 0114 B3       		.byte	-77
 645 0115 B3       		.byte	-77
 646 0116 B4       		.byte	-76
 647 0117 B4       		.byte	-76
 648 0118 B4       		.byte	-76
 649 0119 B4       		.byte	-76
 650 011a B4       		.byte	-76
 651 011b B4       		.byte	-76
 652 011c B5       		.byte	-75
 653 011d B5       		.byte	-75
 654 011e B5       		.byte	-75
 655 011f B5       		.byte	-75
 656 0120 B5       		.byte	-75
 657 0121 B5       		.byte	-75
 658 0122 B6       		.byte	-74
 659 0123 B6       		.byte	-74
 660 0124 B6       		.byte	-74
ARM GAS  C:\Users\JOSEAN~1\AppData\Local\Temp\ccgojhjw.s 			page 18


 661 0125 B6       		.byte	-74
 662 0126 B6       		.byte	-74
 663 0127 B6       		.byte	-74
 664 0128 B6       		.byte	-74
 665 0129 B7       		.byte	-73
 666 012a B7       		.byte	-73
 667 012b B7       		.byte	-73
 668 012c B7       		.byte	-73
 669 012d B7       		.byte	-73
 670 012e B7       		.byte	-73
 671 012f B8       		.byte	-72
 672 0130 B8       		.byte	-72
 673 0131 B8       		.byte	-72
 674 0132 B8       		.byte	-72
 675 0133 B8       		.byte	-72
 676 0134 B8       		.byte	-72
 677 0135 B9       		.byte	-71
 678 0136 B9       		.byte	-71
 679 0137 B9       		.byte	-71
 680 0138 B9       		.byte	-71
 681 0139 B9       		.byte	-71
 682 013a B9       		.byte	-71
 683 013b B9       		.byte	-71
 684 013c BA       		.byte	-70
 685 013d BA       		.byte	-70
 686 013e BA       		.byte	-70
 687 013f BA       		.byte	-70
 688 0140 BA       		.byte	-70
 689 0141 BA       		.byte	-70
 690 0142 BB       		.byte	-69
 691 0143 BB       		.byte	-69
 692 0144 BB       		.byte	-69
 693 0145 BB       		.byte	-69
 694 0146 BB       		.byte	-69
 695 0147 BB       		.byte	-69
 696 0148 BB       		.byte	-69
 697 0149 BC       		.byte	-68
 698 014a BC       		.byte	-68
 699 014b BC       		.byte	-68
 700 014c BC       		.byte	-68
 701 014d BC       		.byte	-68
 702 014e BC       		.byte	-68
 703 014f BD       		.byte	-67
 704 0150 BD       		.byte	-67
 705 0151 BD       		.byte	-67
 706 0152 BD       		.byte	-67
 707 0153 BD       		.byte	-67
 708 0154 BD       		.byte	-67
 709 0155 BD       		.byte	-67
 710 0156 BE       		.byte	-66
 711 0157 BE       		.byte	-66
 712 0158 BE       		.byte	-66
 713 0159 BE       		.byte	-66
 714 015a BE       		.byte	-66
 715 015b BE       		.byte	-66
 716 015c BE       		.byte	-66
 717 015d BF       		.byte	-65
ARM GAS  C:\Users\JOSEAN~1\AppData\Local\Temp\ccgojhjw.s 			page 19


 718 015e BF       		.byte	-65
 719 015f BF       		.byte	-65
 720 0160 BF       		.byte	-65
 721 0161 BF       		.byte	-65
 722 0162 BF       		.byte	-65
 723 0163 C0       		.byte	-64
 724 0164 C0       		.byte	-64
 725 0165 C0       		.byte	-64
 726 0166 C0       		.byte	-64
 727 0167 C0       		.byte	-64
 728 0168 C0       		.byte	-64
 729 0169 C0       		.byte	-64
 730 016a C1       		.byte	-63
 731 016b C1       		.byte	-63
 732 016c C1       		.byte	-63
 733 016d C1       		.byte	-63
 734 016e C1       		.byte	-63
 735 016f C1       		.byte	-63
 736 0170 C1       		.byte	-63
 737 0171 C2       		.byte	-62
 738 0172 C2       		.byte	-62
 739 0173 C2       		.byte	-62
 740 0174 C2       		.byte	-62
 741 0175 C2       		.byte	-62
 742 0176 C2       		.byte	-62
 743 0177 C2       		.byte	-62
 744 0178 C3       		.byte	-61
 745 0179 C3       		.byte	-61
 746 017a C3       		.byte	-61
 747 017b C3       		.byte	-61
 748 017c C3       		.byte	-61
 749 017d C3       		.byte	-61
 750 017e C3       		.byte	-61
 751 017f C4       		.byte	-60
 752 0180 C4       		.byte	-60
 753 0181 C4       		.byte	-60
 754 0182 C4       		.byte	-60
 755 0183 C4       		.byte	-60
 756 0184 C4       		.byte	-60
 757 0185 C4       		.byte	-60
 758 0186 C5       		.byte	-59
 759 0187 C5       		.byte	-59
 760 0188 C5       		.byte	-59
 761 0189 C5       		.byte	-59
 762 018a C5       		.byte	-59
 763 018b C5       		.byte	-59
 764 018c C5       		.byte	-59
 765 018d C6       		.byte	-58
 766 018e C6       		.byte	-58
 767 018f C6       		.byte	-58
 768 0190 C6       		.byte	-58
 769 0191 C6       		.byte	-58
 770 0192 C6       		.byte	-58
 771 0193 C6       		.byte	-58
 772 0194 C7       		.byte	-57
 773 0195 C7       		.byte	-57
 774 0196 C7       		.byte	-57
ARM GAS  C:\Users\JOSEAN~1\AppData\Local\Temp\ccgojhjw.s 			page 20


 775 0197 C7       		.byte	-57
 776 0198 C7       		.byte	-57
 777 0199 C7       		.byte	-57
 778 019a C7       		.byte	-57
 779 019b C8       		.byte	-56
 780 019c C8       		.byte	-56
 781 019d C8       		.byte	-56
 782 019e C8       		.byte	-56
 783 019f C8       		.byte	-56
 784 01a0 C8       		.byte	-56
 785 01a1 C8       		.byte	-56
 786 01a2 C9       		.byte	-55
 787 01a3 C9       		.byte	-55
 788 01a4 C9       		.byte	-55
 789 01a5 C9       		.byte	-55
 790 01a6 C9       		.byte	-55
 791 01a7 C9       		.byte	-55
 792 01a8 C9       		.byte	-55
 793 01a9 CA       		.byte	-54
 794 01aa CA       		.byte	-54
 795 01ab CA       		.byte	-54
 796 01ac CA       		.byte	-54
 797 01ad CA       		.byte	-54
 798 01ae CA       		.byte	-54
 799 01af CA       		.byte	-54
 800 01b0 CA       		.byte	-54
 801 01b1 CB       		.byte	-53
 802 01b2 CB       		.byte	-53
 803 01b3 CB       		.byte	-53
 804 01b4 CB       		.byte	-53
 805 01b5 CB       		.byte	-53
 806 01b6 CB       		.byte	-53
 807 01b7 CB       		.byte	-53
 808 01b8 CC       		.byte	-52
 809 01b9 CC       		.byte	-52
 810 01ba CC       		.byte	-52
 811 01bb CC       		.byte	-52
 812 01bc CC       		.byte	-52
 813 01bd CC       		.byte	-52
 814 01be CC       		.byte	-52
 815 01bf CD       		.byte	-51
 816 01c0 CD       		.byte	-51
 817 01c1 CD       		.byte	-51
 818 01c2 CD       		.byte	-51
 819 01c3 CD       		.byte	-51
 820 01c4 CD       		.byte	-51
 821 01c5 CD       		.byte	-51
 822 01c6 CD       		.byte	-51
 823 01c7 CE       		.byte	-50
 824 01c8 CE       		.byte	-50
 825 01c9 CE       		.byte	-50
 826 01ca CE       		.byte	-50
 827 01cb CE       		.byte	-50
 828 01cc CE       		.byte	-50
 829 01cd CE       		.byte	-50
 830 01ce CE       		.byte	-50
 831 01cf CF       		.byte	-49
ARM GAS  C:\Users\JOSEAN~1\AppData\Local\Temp\ccgojhjw.s 			page 21


 832 01d0 CF       		.byte	-49
 833 01d1 CF       		.byte	-49
 834 01d2 CF       		.byte	-49
 835 01d3 CF       		.byte	-49
 836 01d4 CF       		.byte	-49
 837 01d5 CF       		.byte	-49
 838 01d6 D0       		.byte	-48
 839 01d7 D0       		.byte	-48
 840 01d8 D0       		.byte	-48
 841 01d9 D0       		.byte	-48
 842 01da D0       		.byte	-48
 843 01db D0       		.byte	-48
 844 01dc D0       		.byte	-48
 845 01dd D0       		.byte	-48
 846 01de D1       		.byte	-47
 847 01df D1       		.byte	-47
 848 01e0 D1       		.byte	-47
 849 01e1 D1       		.byte	-47
 850 01e2 D1       		.byte	-47
 851 01e3 D1       		.byte	-47
 852 01e4 D1       		.byte	-47
 853 01e5 D1       		.byte	-47
 854 01e6 D2       		.byte	-46
 855 01e7 D2       		.byte	-46
 856 01e8 D2       		.byte	-46
 857 01e9 D2       		.byte	-46
 858 01ea D2       		.byte	-46
 859 01eb D2       		.byte	-46
 860 01ec D2       		.byte	-46
 861 01ed D2       		.byte	-46
 862 01ee D3       		.byte	-45
 863 01ef D3       		.byte	-45
 864 01f0 D3       		.byte	-45
 865 01f1 D3       		.byte	-45
 866 01f2 D3       		.byte	-45
 867 01f3 D3       		.byte	-45
 868 01f4 D3       		.byte	-45
 869 01f5 D3       		.byte	-45
 870 01f6 D4       		.byte	-44
 871 01f7 D4       		.byte	-44
 872 01f8 D4       		.byte	-44
 873 01f9 D4       		.byte	-44
 874 01fa D4       		.byte	-44
 875 01fb D4       		.byte	-44
 876 01fc D4       		.byte	-44
 877 01fd D4       		.byte	-44
 878 01fe D5       		.byte	-43
 879 01ff D5       		.byte	-43
 880 0200 D5       		.byte	-43
 881 0201 D5       		.byte	-43
 882 0202 D5       		.byte	-43
 883 0203 D5       		.byte	-43
 884 0204 D5       		.byte	-43
 885 0205 D5       		.byte	-43
 886 0206 D6       		.byte	-42
 887 0207 D6       		.byte	-42
 888 0208 D6       		.byte	-42
ARM GAS  C:\Users\JOSEAN~1\AppData\Local\Temp\ccgojhjw.s 			page 22


 889 0209 D6       		.byte	-42
 890 020a D6       		.byte	-42
 891 020b D6       		.byte	-42
 892 020c D6       		.byte	-42
 893 020d D6       		.byte	-42
 894 020e D6       		.byte	-42
 895 020f D7       		.byte	-41
 896 0210 D7       		.byte	-41
 897 0211 D7       		.byte	-41
 898 0212 D7       		.byte	-41
 899 0213 D7       		.byte	-41
 900 0214 D7       		.byte	-41
 901 0215 D7       		.byte	-41
 902 0216 D7       		.byte	-41
 903 0217 D8       		.byte	-40
 904 0218 D8       		.byte	-40
 905 0219 D8       		.byte	-40
 906 021a D8       		.byte	-40
 907 021b D8       		.byte	-40
 908 021c D8       		.byte	-40
 909 021d D8       		.byte	-40
 910 021e D8       		.byte	-40
 911 021f D8       		.byte	-40
 912 0220 D9       		.byte	-39
 913 0221 D9       		.byte	-39
 914 0222 D9       		.byte	-39
 915 0223 D9       		.byte	-39
 916 0224 D9       		.byte	-39
 917 0225 D9       		.byte	-39
 918 0226 D9       		.byte	-39
 919 0227 D9       		.byte	-39
 920 0228 DA       		.byte	-38
 921 0229 DA       		.byte	-38
 922 022a DA       		.byte	-38
 923 022b DA       		.byte	-38
 924 022c DA       		.byte	-38
 925 022d DA       		.byte	-38
 926 022e DA       		.byte	-38
 927 022f DA       		.byte	-38
 928 0230 DA       		.byte	-38
 929 0231 DB       		.byte	-37
 930 0232 DB       		.byte	-37
 931 0233 DB       		.byte	-37
 932 0234 DB       		.byte	-37
 933 0235 DB       		.byte	-37
 934 0236 DB       		.byte	-37
 935 0237 DB       		.byte	-37
 936 0238 DB       		.byte	-37
 937 0239 DB       		.byte	-37
 938 023a DC       		.byte	-36
 939 023b DC       		.byte	-36
 940 023c DC       		.byte	-36
 941 023d DC       		.byte	-36
 942 023e DC       		.byte	-36
 943 023f DC       		.byte	-36
 944 0240 DC       		.byte	-36
 945 0241 DC       		.byte	-36
ARM GAS  C:\Users\JOSEAN~1\AppData\Local\Temp\ccgojhjw.s 			page 23


 946 0242 DC       		.byte	-36
 947 0243 DC       		.byte	-36
 948 0244 DD       		.byte	-35
 949 0245 DD       		.byte	-35
 950 0246 DD       		.byte	-35
 951 0247 DD       		.byte	-35
 952 0248 DD       		.byte	-35
 953 0249 DD       		.byte	-35
 954 024a DD       		.byte	-35
 955 024b DD       		.byte	-35
 956 024c DD       		.byte	-35
 957 024d DE       		.byte	-34
 958 024e DE       		.byte	-34
 959 024f DE       		.byte	-34
 960 0250 DE       		.byte	-34
 961 0251 DE       		.byte	-34
 962 0252 DE       		.byte	-34
 963 0253 DE       		.byte	-34
 964 0254 DE       		.byte	-34
 965 0255 DE       		.byte	-34
 966 0256 DE       		.byte	-34
 967 0257 DF       		.byte	-33
 968 0258 DF       		.byte	-33
 969 0259 DF       		.byte	-33
 970 025a DF       		.byte	-33
 971 025b DF       		.byte	-33
 972 025c DF       		.byte	-33
 973 025d DF       		.byte	-33
 974 025e DF       		.byte	-33
 975 025f DF       		.byte	-33
 976 0260 E0       		.byte	-32
 977 0261 E0       		.byte	-32
 978 0262 E0       		.byte	-32
 979 0263 E0       		.byte	-32
 980 0264 E0       		.byte	-32
 981 0265 E0       		.byte	-32
 982 0266 E0       		.byte	-32
 983 0267 E0       		.byte	-32
 984 0268 E0       		.byte	-32
 985 0269 E0       		.byte	-32
 986 026a E1       		.byte	-31
 987 026b E1       		.byte	-31
 988 026c E1       		.byte	-31
 989 026d E1       		.byte	-31
 990 026e E1       		.byte	-31
 991 026f E1       		.byte	-31
 992 0270 E1       		.byte	-31
 993 0271 E1       		.byte	-31
 994 0272 E1       		.byte	-31
 995 0273 E1       		.byte	-31
 996 0274 E1       		.byte	-31
 997 0275 E2       		.byte	-30
 998 0276 E2       		.byte	-30
 999 0277 E2       		.byte	-30
 1000 0278 E2       		.byte	-30
 1001 0279 E2       		.byte	-30
 1002 027a E2       		.byte	-30
ARM GAS  C:\Users\JOSEAN~1\AppData\Local\Temp\ccgojhjw.s 			page 24


 1003 027b E2       		.byte	-30
 1004 027c E2       		.byte	-30
 1005 027d E2       		.byte	-30
 1006 027e E2       		.byte	-30
 1007 027f E3       		.byte	-29
 1008 0280 E3       		.byte	-29
 1009 0281 E3       		.byte	-29
 1010 0282 E3       		.byte	-29
 1011 0283 E3       		.byte	-29
 1012 0284 E3       		.byte	-29
 1013 0285 E3       		.byte	-29
 1014 0286 E3       		.byte	-29
 1015 0287 E3       		.byte	-29
 1016 0288 E3       		.byte	-29
 1017 0289 E3       		.byte	-29
 1018 028a E4       		.byte	-28
 1019 028b E4       		.byte	-28
 1020 028c E4       		.byte	-28
 1021 028d E4       		.byte	-28
 1022 028e E4       		.byte	-28
 1023 028f E4       		.byte	-28
 1024 0290 E4       		.byte	-28
 1025 0291 E4       		.byte	-28
 1026 0292 E4       		.byte	-28
 1027 0293 E4       		.byte	-28
 1028 0294 E4       		.byte	-28
 1029 0295 E5       		.byte	-27
 1030 0296 E5       		.byte	-27
 1031 0297 E5       		.byte	-27
 1032 0298 E5       		.byte	-27
 1033 0299 E5       		.byte	-27
 1034 029a E5       		.byte	-27
 1035 029b E5       		.byte	-27
 1036 029c E5       		.byte	-27
 1037 029d E5       		.byte	-27
 1038 029e E5       		.byte	-27
 1039 029f E5       		.byte	-27
 1040 02a0 E6       		.byte	-26
 1041 02a1 E6       		.byte	-26
 1042 02a2 E6       		.byte	-26
 1043 02a3 E6       		.byte	-26
 1044 02a4 E6       		.byte	-26
 1045 02a5 E6       		.byte	-26
 1046 02a6 E6       		.byte	-26
 1047 02a7 E6       		.byte	-26
 1048 02a8 E6       		.byte	-26
 1049 02a9 E6       		.byte	-26
 1050 02aa E6       		.byte	-26
 1051 02ab E6       		.byte	-26
 1052 02ac E7       		.byte	-25
 1053 02ad E7       		.byte	-25
 1054 02ae E7       		.byte	-25
 1055 02af E7       		.byte	-25
 1056 02b0 E7       		.byte	-25
 1057 02b1 E7       		.byte	-25
 1058 02b2 E7       		.byte	-25
 1059 02b3 E7       		.byte	-25
ARM GAS  C:\Users\JOSEAN~1\AppData\Local\Temp\ccgojhjw.s 			page 25


 1060 02b4 E7       		.byte	-25
 1061 02b5 E7       		.byte	-25
 1062 02b6 E7       		.byte	-25
 1063 02b7 E7       		.byte	-25
 1064 02b8 E8       		.byte	-24
 1065 02b9 E8       		.byte	-24
 1066 02ba E8       		.byte	-24
 1067 02bb E8       		.byte	-24
 1068 02bc E8       		.byte	-24
 1069 02bd E8       		.byte	-24
 1070 02be E8       		.byte	-24
 1071 02bf E8       		.byte	-24
 1072 02c0 E8       		.byte	-24
 1073 02c1 E8       		.byte	-24
 1074 02c2 E8       		.byte	-24
 1075 02c3 E8       		.byte	-24
 1076 02c4 E8       		.byte	-24
 1077 02c5 E9       		.byte	-23
 1078 02c6 E9       		.byte	-23
 1079 02c7 E9       		.byte	-23
 1080 02c8 E9       		.byte	-23
 1081 02c9 E9       		.byte	-23
 1082 02ca E9       		.byte	-23
 1083 02cb E9       		.byte	-23
 1084 02cc E9       		.byte	-23
 1085 02cd E9       		.byte	-23
 1086 02ce E9       		.byte	-23
 1087 02cf E9       		.byte	-23
 1088 02d0 E9       		.byte	-23
 1089 02d1 E9       		.byte	-23
 1090 02d2 EA       		.byte	-22
 1091 02d3 EA       		.byte	-22
 1092 02d4 EA       		.byte	-22
 1093 02d5 EA       		.byte	-22
 1094 02d6 EA       		.byte	-22
 1095 02d7 EA       		.byte	-22
 1096 02d8 EA       		.byte	-22
 1097 02d9 EA       		.byte	-22
 1098 02da EA       		.byte	-22
 1099 02db EA       		.byte	-22
 1100 02dc EA       		.byte	-22
 1101 02dd EA       		.byte	-22
 1102 02de EA       		.byte	-22
 1103 02df EA       		.byte	-22
 1104 02e0 EB       		.byte	-21
 1105 02e1 EB       		.byte	-21
 1106 02e2 EB       		.byte	-21
 1107 02e3 EB       		.byte	-21
 1108 02e4 EB       		.byte	-21
 1109 02e5 EB       		.byte	-21
 1110 02e6 EB       		.byte	-21
 1111 02e7 EB       		.byte	-21
 1112 02e8 EB       		.byte	-21
 1113 02e9 EB       		.byte	-21
 1114 02ea EB       		.byte	-21
 1115 02eb EB       		.byte	-21
 1116 02ec EB       		.byte	-21
ARM GAS  C:\Users\JOSEAN~1\AppData\Local\Temp\ccgojhjw.s 			page 26


 1117 02ed EB       		.byte	-21
 1118 02ee EC       		.byte	-20
 1119 02ef EC       		.byte	-20
 1120 02f0 EC       		.byte	-20
 1121 02f1 EC       		.byte	-20
 1122 02f2 EC       		.byte	-20
 1123 02f3 EC       		.byte	-20
 1124 02f4 EC       		.byte	-20
 1125 02f5 EC       		.byte	-20
 1126 02f6 EC       		.byte	-20
 1127 02f7 EC       		.byte	-20
 1128 02f8 EC       		.byte	-20
 1129 02f9 EC       		.byte	-20
 1130 02fa EC       		.byte	-20
 1131 02fb EC       		.byte	-20
 1132 02fc EC       		.byte	-20
 1133 02fd EC       		.byte	-20
 1134 02fe ED       		.byte	-19
 1135 02ff ED       		.byte	-19
 1136 0300 ED       		.byte	-19
 1137 0301 ED       		.byte	-19
 1138 0302 ED       		.byte	-19
 1139 0303 ED       		.byte	-19
 1140 0304 ED       		.byte	-19
 1141 0305 ED       		.byte	-19
 1142 0306 ED       		.byte	-19
 1143 0307 ED       		.byte	-19
 1144 0308 ED       		.byte	-19
 1145 0309 ED       		.byte	-19
 1146 030a ED       		.byte	-19
 1147 030b ED       		.byte	-19
 1148 030c ED       		.byte	-19
 1149 030d ED       		.byte	-19
 1150 030e EE       		.byte	-18
 1151 030f EE       		.byte	-18
 1152 0310 EE       		.byte	-18
 1153 0311 EE       		.byte	-18
 1154 0312 EE       		.byte	-18
 1155 0313 EE       		.byte	-18
 1156 0314 EE       		.byte	-18
 1157 0315 EE       		.byte	-18
 1158 0316 EE       		.byte	-18
 1159 0317 EE       		.byte	-18
 1160 0318 EE       		.byte	-18
 1161 0319 EE       		.byte	-18
 1162 031a EE       		.byte	-18
 1163 031b EE       		.byte	-18
 1164 031c EE       		.byte	-18
 1165 031d EE       		.byte	-18
 1166 031e EE       		.byte	-18
 1167 031f EE       		.byte	-18
 1168 0320 EF       		.byte	-17
 1169 0321 EF       		.byte	-17
 1170 0322 EF       		.byte	-17
 1171 0323 EF       		.byte	-17
 1172 0324 EF       		.byte	-17
 1173 0325 EF       		.byte	-17
ARM GAS  C:\Users\JOSEAN~1\AppData\Local\Temp\ccgojhjw.s 			page 27


 1174 0326 EF       		.byte	-17
 1175 0327 EF       		.byte	-17
 1176 0328 EF       		.byte	-17
 1177 0329 EF       		.byte	-17
 1178 032a EF       		.byte	-17
 1179 032b EF       		.byte	-17
 1180 032c EF       		.byte	-17
 1181 032d EF       		.byte	-17
 1182 032e EF       		.byte	-17
 1183 032f EF       		.byte	-17
 1184 0330 EF       		.byte	-17
 1185 0331 EF       		.byte	-17
 1186 0332 EF       		.byte	-17
 1187 0333 F0       		.byte	-16
 1188 0334 F0       		.byte	-16
 1189 0335 F0       		.byte	-16
 1190 0336 F0       		.byte	-16
 1191 0337 F0       		.byte	-16
 1192 0338 F0       		.byte	-16
 1193 0339 F0       		.byte	-16
 1194 033a F0       		.byte	-16
 1195 033b F0       		.byte	-16
 1196 033c F0       		.byte	-16
 1197 033d F0       		.byte	-16
 1198 033e F0       		.byte	-16
 1199 033f F0       		.byte	-16
 1200 0340 F0       		.byte	-16
 1201 0341 F0       		.byte	-16
 1202 0342 F0       		.byte	-16
 1203 0343 F0       		.byte	-16
 1204 0344 F0       		.byte	-16
 1205 0345 F0       		.byte	-16
 1206 0346 F0       		.byte	-16
 1207 0347 F0       		.byte	-16
 1208 0348 F0       		.byte	-16
 1209 0349 F1       		.byte	-15
 1210 034a F1       		.byte	-15
 1211 034b F1       		.byte	-15
 1212 034c F1       		.byte	-15
 1213 034d F1       		.byte	-15
 1214 034e F1       		.byte	-15
 1215 034f F1       		.byte	-15
 1216 0350 F1       		.byte	-15
 1217 0351 F1       		.byte	-15
 1218 0352 F1       		.byte	-15
 1219 0353 F1       		.byte	-15
 1220 0354 F1       		.byte	-15
 1221 0355 F1       		.byte	-15
 1222 0356 F1       		.byte	-15
 1223 0357 F1       		.byte	-15
 1224 0358 F1       		.byte	-15
 1225 0359 F1       		.byte	-15
 1226 035a F1       		.byte	-15
 1227 035b F1       		.byte	-15
 1228 035c F1       		.byte	-15
 1229 035d F1       		.byte	-15
 1230 035e F1       		.byte	-15
ARM GAS  C:\Users\JOSEAN~1\AppData\Local\Temp\ccgojhjw.s 			page 28


 1231 035f F1       		.byte	-15
 1232 0360 F1       		.byte	-15
 1233 0361 F2       		.byte	-14
 1234 0362 F2       		.byte	-14
 1235 0363 F2       		.byte	-14
 1236 0364 F2       		.byte	-14
 1237 0365 F2       		.byte	-14
 1238 0366 F2       		.byte	-14
 1239 0367 F2       		.byte	-14
 1240 0368 F2       		.byte	-14
 1241 0369 F2       		.byte	-14
 1242 036a F2       		.byte	-14
 1243 036b F2       		.byte	-14
 1244 036c F2       		.byte	-14
 1245 036d F2       		.byte	-14
 1246 036e F2       		.byte	-14
 1247 036f F2       		.byte	-14
 1248 0370 F2       		.byte	-14
 1249 0371 F2       		.byte	-14
 1250 0372 F2       		.byte	-14
 1251 0373 F2       		.byte	-14
 1252 0374 F2       		.byte	-14
 1253 0375 F2       		.byte	-14
 1254 0376 F2       		.byte	-14
 1255 0377 F2       		.byte	-14
 1256 0378 F2       		.byte	-14
 1257 0379 F2       		.byte	-14
 1258 037a F2       		.byte	-14
 1259 037b F2       		.byte	-14
 1260 037c F2       		.byte	-14
 1261 037d F2       		.byte	-14
 1262 037e F2       		.byte	-14
 1263 037f F2       		.byte	-14
 1264 0380 F3       		.byte	-13
 1265 0381 F3       		.byte	-13
 1266 0382 F3       		.byte	-13
 1267 0383 F3       		.byte	-13
 1268 0384 F3       		.byte	-13
 1269 0385 F3       		.byte	-13
 1270 0386 F3       		.byte	-13
 1271 0387 F3       		.byte	-13
 1272 0388 F3       		.byte	-13
 1273 0389 F3       		.byte	-13
 1274 038a F3       		.byte	-13
 1275 038b F3       		.byte	-13
 1276 038c F3       		.byte	-13
 1277 038d F3       		.byte	-13
 1278 038e F3       		.byte	-13
 1279 038f F3       		.byte	-13
 1280 0390 F3       		.byte	-13
 1281 0391 F3       		.byte	-13
 1282 0392 F3       		.byte	-13
 1283 0393 F3       		.byte	-13
 1284 0394 F3       		.byte	-13
 1285 0395 F3       		.byte	-13
 1286 0396 F3       		.byte	-13
 1287 0397 F3       		.byte	-13
ARM GAS  C:\Users\JOSEAN~1\AppData\Local\Temp\ccgojhjw.s 			page 29


 1288 0398 F3       		.byte	-13
 1289 0399 F3       		.byte	-13
 1290 039a F3       		.byte	-13
 1291 039b F3       		.byte	-13
 1292 039c F3       		.byte	-13
 1293 039d F3       		.byte	-13
 1294 039e F3       		.byte	-13
 1295 039f F3       		.byte	-13
 1296 03a0 F3       		.byte	-13
 1297 03a1 F3       		.byte	-13
 1298 03a2 F3       		.byte	-13
 1299 03a3 F3       		.byte	-13
 1300 03a4 F3       		.byte	-13
 1301 03a5 F3       		.byte	-13
 1302 03a6 F3       		.byte	-13
 1303 03a7 F3       		.byte	-13
 1304 03a8 F3       		.byte	-13
 1305 03a9 F3       		.byte	-13
 1306 03aa F3       		.byte	-13
 1307 03ab F3       		.byte	-13
 1308 03ac F4       		.byte	-12
 1309 03ad F4       		.byte	-12
 1310 03ae F4       		.byte	-12
 1311 03af F4       		.byte	-12
 1312 03b0 F4       		.byte	-12
 1313 03b1 F4       		.byte	-12
 1314 03b2 F4       		.byte	-12
 1315 03b3 F4       		.byte	-12
 1316 03b4 F4       		.byte	-12
 1317 03b5 F4       		.byte	-12
 1318 03b6 F4       		.byte	-12
 1319 03b7 F4       		.byte	-12
 1320 03b8 F4       		.byte	-12
 1321 03b9 F4       		.byte	-12
 1322 03ba F4       		.byte	-12
 1323 03bb F4       		.byte	-12
 1324 03bc F4       		.byte	-12
 1325 03bd F4       		.byte	-12
 1326 03be F4       		.byte	-12
 1327 03bf F4       		.byte	-12
 1328 03c0 F4       		.byte	-12
 1329 03c1 F4       		.byte	-12
 1330 03c2 F4       		.byte	-12
 1331 03c3 F4       		.byte	-12
 1332 03c4 F4       		.byte	-12
 1333 03c5 F4       		.byte	-12
 1334 03c6 F4       		.byte	-12
 1335 03c7 F4       		.byte	-12
 1336 03c8 F4       		.byte	-12
 1337 03c9 F4       		.byte	-12
 1338 03ca F4       		.byte	-12
 1339 03cb F4       		.byte	-12
 1340 03cc F4       		.byte	-12
 1341 03cd F4       		.byte	-12
 1342 03ce F4       		.byte	-12
 1343 03cf F4       		.byte	-12
 1344 03d0 F4       		.byte	-12
ARM GAS  C:\Users\JOSEAN~1\AppData\Local\Temp\ccgojhjw.s 			page 30


 1345 03d1 F4       		.byte	-12
 1346 03d2 F4       		.byte	-12
 1347 03d3 F4       		.byte	-12
 1348 03d4 F4       		.byte	-12
 1349 03d5 F4       		.byte	-12
 1350 03d6 F4       		.byte	-12
 1351 03d7 F4       		.byte	-12
 1352 03d8 F4       		.byte	-12
 1353 03d9 F4       		.byte	-12
 1354 03da F4       		.byte	-12
 1355 03db F4       		.byte	-12
 1356 03dc F4       		.byte	-12
 1357 03dd F4       		.byte	-12
 1358 03de F4       		.byte	-12
 1359 03df F4       		.byte	-12
 1360 03e0 F4       		.byte	-12
 1361 03e1 F4       		.byte	-12
 1362 03e2 F4       		.byte	-12
 1363 03e3 F4       		.byte	-12
 1364 03e4 F4       		.byte	-12
 1365 03e5 F4       		.byte	-12
 1366 03e6 F4       		.byte	-12
 1367 03e7 F4       		.byte	-12
 1368 03e8 F4       		.byte	-12
 1369 03e9 F4       		.byte	-12
 1370 03ea F4       		.byte	-12
 1371 03eb F4       		.byte	-12
 1372 03ec F4       		.byte	-12
 1373 03ed F4       		.byte	-12
 1374 03ee F4       		.byte	-12
 1375 03ef F4       		.byte	-12
 1376 03f0 F4       		.byte	-12
 1377 03f1 F4       		.byte	-12
 1378 03f2 F4       		.byte	-12
 1379 03f3 F4       		.byte	-12
 1380 03f4 F4       		.byte	-12
 1381 03f5 F4       		.byte	-12
 1382 03f6 F4       		.byte	-12
 1383 03f7 F4       		.byte	-12
 1384 03f8 F4       		.byte	-12
 1385 03f9 F4       		.byte	-12
 1386 03fa F4       		.byte	-12
 1387 03fb F4       		.byte	-12
 1388 03fc F4       		.byte	-12
 1389 03fd F4       		.byte	-12
 1390 03fe F4       		.byte	-12
 1391 03ff F4       		.byte	-12
 1392 0400 F4       		.byte	-12
 1393 0401 F4       		.byte	-12
 1394 0402 F4       		.byte	-12
 1395 0403 F4       		.byte	-12
 1396 0404 F4       		.byte	-12
 1397 0405 F4       		.byte	-12
 1398 0406 F4       		.byte	-12
 1399 0407 F4       		.byte	-12
 1400 0408 F4       		.byte	-12
 1401 0409 F4       		.byte	-12
ARM GAS  C:\Users\JOSEAN~1\AppData\Local\Temp\ccgojhjw.s 			page 31


 1402 040a F4       		.byte	-12
 1403 040b F4       		.byte	-12
 1404 040c F4       		.byte	-12
 1405 040d F4       		.byte	-12
 1406 040e F4       		.byte	-12
 1407 040f F4       		.byte	-12
 1408 0410 F4       		.byte	-12
 1409 0411 F4       		.byte	-12
 1410 0412 F4       		.byte	-12
 1411 0413 F4       		.byte	-12
 1412 0414 F4       		.byte	-12
 1413 0415 F4       		.byte	-12
 1414 0416 F4       		.byte	-12
 1415 0417 F4       		.byte	-12
 1416 0418 F4       		.byte	-12
 1417 0419 F4       		.byte	-12
 1418 041a F4       		.byte	-12
 1419 041b F4       		.byte	-12
 1420 041c F4       		.byte	-12
 1421 041d F4       		.byte	-12
 1422 041e F4       		.byte	-12
 1423 041f F4       		.byte	-12
 1424 0420 F4       		.byte	-12
 1425 0421 F4       		.byte	-12
 1426 0422 F4       		.byte	-12
 1427 0423 F4       		.byte	-12
 1428 0424 F4       		.byte	-12
 1429 0425 F3       		.byte	-13
 1430 0426 F3       		.byte	-13
 1431 0427 F3       		.byte	-13
 1432 0428 F3       		.byte	-13
 1433 0429 F3       		.byte	-13
 1434 042a F3       		.byte	-13
 1435 042b F3       		.byte	-13
 1436 042c F3       		.byte	-13
 1437 042d F3       		.byte	-13
 1438 042e F3       		.byte	-13
 1439 042f F3       		.byte	-13
 1440 0430 F3       		.byte	-13
 1441 0431 F3       		.byte	-13
 1442 0432 F3       		.byte	-13
 1443 0433 F3       		.byte	-13
 1444 0434 F3       		.byte	-13
 1445 0435 F3       		.byte	-13
 1446 0436 F3       		.byte	-13
 1447 0437 F3       		.byte	-13
 1448 0438 F3       		.byte	-13
 1449 0439 F3       		.byte	-13
 1450 043a F3       		.byte	-13
 1451 043b F3       		.byte	-13
 1452 043c F3       		.byte	-13
 1453 043d F3       		.byte	-13
 1454 043e F3       		.byte	-13
 1455 043f F3       		.byte	-13
 1456 0440 F3       		.byte	-13
 1457 0441 F3       		.byte	-13
 1458 0442 F3       		.byte	-13
ARM GAS  C:\Users\JOSEAN~1\AppData\Local\Temp\ccgojhjw.s 			page 32


 1459 0443 F3       		.byte	-13
 1460 0444 F3       		.byte	-13
 1461 0445 F3       		.byte	-13
 1462 0446 F3       		.byte	-13
 1463 0447 F3       		.byte	-13
 1464 0448 F3       		.byte	-13
 1465 0449 F3       		.byte	-13
 1466 044a F3       		.byte	-13
 1467 044b F3       		.byte	-13
 1468 044c F3       		.byte	-13
 1469 044d F3       		.byte	-13
 1470 044e F3       		.byte	-13
 1471 044f F3       		.byte	-13
 1472 0450 F3       		.byte	-13
 1473 0451 F2       		.byte	-14
 1474 0452 F2       		.byte	-14
 1475 0453 F2       		.byte	-14
 1476 0454 F2       		.byte	-14
 1477 0455 F2       		.byte	-14
 1478 0456 F2       		.byte	-14
 1479 0457 F2       		.byte	-14
 1480 0458 F2       		.byte	-14
 1481 0459 F2       		.byte	-14
 1482 045a F2       		.byte	-14
 1483 045b F2       		.byte	-14
 1484 045c F2       		.byte	-14
 1485 045d F2       		.byte	-14
 1486 045e F2       		.byte	-14
 1487 045f F2       		.byte	-14
 1488 0460 F2       		.byte	-14
 1489 0461 F2       		.byte	-14
 1490 0462 F2       		.byte	-14
 1491 0463 F2       		.byte	-14
 1492 0464 F2       		.byte	-14
 1493 0465 F2       		.byte	-14
 1494 0466 F2       		.byte	-14
 1495 0467 F2       		.byte	-14
 1496 0468 F2       		.byte	-14
 1497 0469 F2       		.byte	-14
 1498 046a F2       		.byte	-14
 1499 046b F2       		.byte	-14
 1500 046c F2       		.byte	-14
 1501 046d F2       		.byte	-14
 1502 046e F2       		.byte	-14
 1503 046f F2       		.byte	-14
 1504 0470 F1       		.byte	-15
 1505 0471 F1       		.byte	-15
 1506 0472 F1       		.byte	-15
 1507 0473 F1       		.byte	-15
 1508 0474 F1       		.byte	-15
 1509 0475 F1       		.byte	-15
 1510 0476 F1       		.byte	-15
 1511 0477 F1       		.byte	-15
 1512 0478 F1       		.byte	-15
 1513 0479 F1       		.byte	-15
 1514 047a F1       		.byte	-15
 1515 047b F1       		.byte	-15
ARM GAS  C:\Users\JOSEAN~1\AppData\Local\Temp\ccgojhjw.s 			page 33


 1516 047c F1       		.byte	-15
 1517 047d F1       		.byte	-15
 1518 047e F1       		.byte	-15
 1519 047f F1       		.byte	-15
 1520 0480 F1       		.byte	-15
 1521 0481 F1       		.byte	-15
 1522 0482 F1       		.byte	-15
 1523 0483 F1       		.byte	-15
 1524 0484 F1       		.byte	-15
 1525 0485 F1       		.byte	-15
 1526 0486 F1       		.byte	-15
 1527 0487 F1       		.byte	-15
 1528 0488 F0       		.byte	-16
 1529 0489 F0       		.byte	-16
 1530 048a F0       		.byte	-16
 1531 048b F0       		.byte	-16
 1532 048c F0       		.byte	-16
 1533 048d F0       		.byte	-16
 1534 048e F0       		.byte	-16
 1535 048f F0       		.byte	-16
 1536 0490 F0       		.byte	-16
 1537 0491 F0       		.byte	-16
 1538 0492 F0       		.byte	-16
 1539 0493 F0       		.byte	-16
 1540 0494 F0       		.byte	-16
 1541 0495 F0       		.byte	-16
 1542 0496 F0       		.byte	-16
 1543 0497 F0       		.byte	-16
 1544 0498 F0       		.byte	-16
 1545 0499 F0       		.byte	-16
 1546 049a F0       		.byte	-16
 1547 049b F0       		.byte	-16
 1548 049c F0       		.byte	-16
 1549 049d F0       		.byte	-16
 1550 049e EF       		.byte	-17
 1551 049f EF       		.byte	-17
 1552 04a0 EF       		.byte	-17
 1553 04a1 EF       		.byte	-17
 1554 04a2 EF       		.byte	-17
 1555 04a3 EF       		.byte	-17
 1556 04a4 EF       		.byte	-17
 1557 04a5 EF       		.byte	-17
 1558 04a6 EF       		.byte	-17
 1559 04a7 EF       		.byte	-17
 1560 04a8 EF       		.byte	-17
 1561 04a9 EF       		.byte	-17
 1562 04aa EF       		.byte	-17
 1563 04ab EF       		.byte	-17
 1564 04ac EF       		.byte	-17
 1565 04ad EF       		.byte	-17
 1566 04ae EF       		.byte	-17
 1567 04af EF       		.byte	-17
 1568 04b0 EF       		.byte	-17
 1569 04b1 EE       		.byte	-18
 1570 04b2 EE       		.byte	-18
 1571 04b3 EE       		.byte	-18
 1572 04b4 EE       		.byte	-18
ARM GAS  C:\Users\JOSEAN~1\AppData\Local\Temp\ccgojhjw.s 			page 34


 1573 04b5 EE       		.byte	-18
 1574 04b6 EE       		.byte	-18
 1575 04b7 EE       		.byte	-18
 1576 04b8 EE       		.byte	-18
 1577 04b9 EE       		.byte	-18
 1578 04ba EE       		.byte	-18
 1579 04bb EE       		.byte	-18
 1580 04bc EE       		.byte	-18
 1581 04bd EE       		.byte	-18
 1582 04be EE       		.byte	-18
 1583 04bf EE       		.byte	-18
 1584 04c0 EE       		.byte	-18
 1585 04c1 EE       		.byte	-18
 1586 04c2 EE       		.byte	-18
 1587 04c3 ED       		.byte	-19
 1588 04c4 ED       		.byte	-19
 1589 04c5 ED       		.byte	-19
 1590 04c6 ED       		.byte	-19
 1591 04c7 ED       		.byte	-19
 1592 04c8 ED       		.byte	-19
 1593 04c9 ED       		.byte	-19
 1594 04ca ED       		.byte	-19
 1595 04cb ED       		.byte	-19
 1596 04cc ED       		.byte	-19
 1597 04cd ED       		.byte	-19
 1598 04ce ED       		.byte	-19
 1599 04cf ED       		.byte	-19
 1600 04d0 ED       		.byte	-19
 1601 04d1 ED       		.byte	-19
 1602 04d2 ED       		.byte	-19
 1603 04d3 EC       		.byte	-20
 1604 04d4 EC       		.byte	-20
 1605 04d5 EC       		.byte	-20
 1606 04d6 EC       		.byte	-20
 1607 04d7 EC       		.byte	-20
 1608 04d8 EC       		.byte	-20
 1609 04d9 EC       		.byte	-20
 1610 04da EC       		.byte	-20
 1611 04db EC       		.byte	-20
 1612 04dc EC       		.byte	-20
 1613 04dd EC       		.byte	-20
 1614 04de EC       		.byte	-20
 1615 04df EC       		.byte	-20
 1616 04e0 EC       		.byte	-20
 1617 04e1 EC       		.byte	-20
 1618 04e2 EC       		.byte	-20
 1619 04e3 EB       		.byte	-21
 1620 04e4 EB       		.byte	-21
 1621 04e5 EB       		.byte	-21
 1622 04e6 EB       		.byte	-21
 1623 04e7 EB       		.byte	-21
 1624 04e8 EB       		.byte	-21
 1625 04e9 EB       		.byte	-21
 1626 04ea EB       		.byte	-21
 1627 04eb EB       		.byte	-21
 1628 04ec EB       		.byte	-21
 1629 04ed EB       		.byte	-21
ARM GAS  C:\Users\JOSEAN~1\AppData\Local\Temp\ccgojhjw.s 			page 35


 1630 04ee EB       		.byte	-21
 1631 04ef EB       		.byte	-21
 1632 04f0 EB       		.byte	-21
 1633 04f1 EA       		.byte	-22
 1634 04f2 EA       		.byte	-22
 1635 04f3 EA       		.byte	-22
 1636 04f4 EA       		.byte	-22
 1637 04f5 EA       		.byte	-22
 1638 04f6 EA       		.byte	-22
 1639 04f7 EA       		.byte	-22
 1640 04f8 EA       		.byte	-22
 1641 04f9 EA       		.byte	-22
 1642 04fa EA       		.byte	-22
 1643 04fb EA       		.byte	-22
 1644 04fc EA       		.byte	-22
 1645 04fd EA       		.byte	-22
 1646 04fe EA       		.byte	-22
 1647 04ff E9       		.byte	-23
 1648 0500 E9       		.byte	-23
 1649 0501 E9       		.byte	-23
 1650 0502 E9       		.byte	-23
 1651 0503 E9       		.byte	-23
 1652 0504 E9       		.byte	-23
 1653 0505 E9       		.byte	-23
 1654 0506 E9       		.byte	-23
 1655 0507 E9       		.byte	-23
 1656 0508 E9       		.byte	-23
 1657 0509 E9       		.byte	-23
 1658 050a E9       		.byte	-23
 1659 050b E9       		.byte	-23
 1660 050c E8       		.byte	-24
 1661 050d E8       		.byte	-24
 1662 050e E8       		.byte	-24
 1663 050f E8       		.byte	-24
 1664 0510 E8       		.byte	-24
 1665 0511 E8       		.byte	-24
 1666 0512 E8       		.byte	-24
 1667 0513 E8       		.byte	-24
 1668 0514 E8       		.byte	-24
 1669 0515 E8       		.byte	-24
 1670 0516 E8       		.byte	-24
 1671 0517 E8       		.byte	-24
 1672 0518 E8       		.byte	-24
 1673 0519 E7       		.byte	-25
 1674 051a E7       		.byte	-25
 1675 051b E7       		.byte	-25
 1676 051c E7       		.byte	-25
 1677 051d E7       		.byte	-25
 1678 051e E7       		.byte	-25
 1679 051f E7       		.byte	-25
 1680 0520 E7       		.byte	-25
 1681 0521 E7       		.byte	-25
 1682 0522 E7       		.byte	-25
 1683 0523 E7       		.byte	-25
 1684 0524 E7       		.byte	-25
 1685 0525 E6       		.byte	-26
 1686 0526 E6       		.byte	-26
ARM GAS  C:\Users\JOSEAN~1\AppData\Local\Temp\ccgojhjw.s 			page 36


 1687 0527 E6       		.byte	-26
 1688 0528 E6       		.byte	-26
 1689 0529 E6       		.byte	-26
 1690 052a E6       		.byte	-26
 1691 052b E6       		.byte	-26
 1692 052c E6       		.byte	-26
 1693 052d E6       		.byte	-26
 1694 052e E6       		.byte	-26
 1695 052f E6       		.byte	-26
 1696 0530 E6       		.byte	-26
 1697 0531 E5       		.byte	-27
 1698 0532 E5       		.byte	-27
 1699 0533 E5       		.byte	-27
 1700 0534 E5       		.byte	-27
 1701 0535 E5       		.byte	-27
 1702 0536 E5       		.byte	-27
 1703 0537 E5       		.byte	-27
 1704 0538 E5       		.byte	-27
 1705 0539 E5       		.byte	-27
 1706 053a E5       		.byte	-27
 1707 053b E5       		.byte	-27
 1708 053c E4       		.byte	-28
 1709 053d E4       		.byte	-28
 1710 053e E4       		.byte	-28
 1711 053f E4       		.byte	-28
 1712 0540 E4       		.byte	-28
 1713 0541 E4       		.byte	-28
 1714 0542 E4       		.byte	-28
 1715 0543 E4       		.byte	-28
 1716 0544 E4       		.byte	-28
 1717 0545 E4       		.byte	-28
 1718 0546 E4       		.byte	-28
 1719 0547 E3       		.byte	-29
 1720 0548 E3       		.byte	-29
 1721 0549 E3       		.byte	-29
 1722 054a E3       		.byte	-29
 1723 054b E3       		.byte	-29
 1724 054c E3       		.byte	-29
 1725 054d E3       		.byte	-29
 1726 054e E3       		.byte	-29
 1727 054f E3       		.byte	-29
 1728 0550 E3       		.byte	-29
 1729 0551 E3       		.byte	-29
 1730 0552 E2       		.byte	-30
 1731 0553 E2       		.byte	-30
 1732 0554 E2       		.byte	-30
 1733 0555 E2       		.byte	-30
 1734 0556 E2       		.byte	-30
 1735 0557 E2       		.byte	-30
 1736 0558 E2       		.byte	-30
 1737 0559 E2       		.byte	-30
 1738 055a E2       		.byte	-30
 1739 055b E2       		.byte	-30
 1740 055c E1       		.byte	-31
 1741 055d E1       		.byte	-31
 1742 055e E1       		.byte	-31
 1743 055f E1       		.byte	-31
ARM GAS  C:\Users\JOSEAN~1\AppData\Local\Temp\ccgojhjw.s 			page 37


 1744 0560 E1       		.byte	-31
 1745 0561 E1       		.byte	-31
 1746 0562 E1       		.byte	-31
 1747 0563 E1       		.byte	-31
 1748 0564 E1       		.byte	-31
 1749 0565 E1       		.byte	-31
 1750 0566 E1       		.byte	-31
 1751 0567 E0       		.byte	-32
 1752 0568 E0       		.byte	-32
 1753 0569 E0       		.byte	-32
 1754 056a E0       		.byte	-32
 1755 056b E0       		.byte	-32
 1756 056c E0       		.byte	-32
 1757 056d E0       		.byte	-32
 1758 056e E0       		.byte	-32
 1759 056f E0       		.byte	-32
 1760 0570 E0       		.byte	-32
 1761 0571 DF       		.byte	-33
 1762 0572 DF       		.byte	-33
 1763 0573 DF       		.byte	-33
 1764 0574 DF       		.byte	-33
 1765 0575 DF       		.byte	-33
 1766 0576 DF       		.byte	-33
 1767 0577 DF       		.byte	-33
 1768 0578 DF       		.byte	-33
 1769 0579 DF       		.byte	-33
 1770 057a DE       		.byte	-34
 1771 057b DE       		.byte	-34
 1772 057c DE       		.byte	-34
 1773 057d DE       		.byte	-34
 1774 057e DE       		.byte	-34
 1775 057f DE       		.byte	-34
 1776 0580 DE       		.byte	-34
 1777 0581 DE       		.byte	-34
 1778 0582 DE       		.byte	-34
 1779 0583 DE       		.byte	-34
 1780 0584 DD       		.byte	-35
 1781 0585 DD       		.byte	-35
 1782 0586 DD       		.byte	-35
 1783 0587 DD       		.byte	-35
 1784 0588 DD       		.byte	-35
 1785 0589 DD       		.byte	-35
 1786 058a DD       		.byte	-35
 1787 058b DD       		.byte	-35
 1788 058c DD       		.byte	-35
 1789 058d DC       		.byte	-36
 1790 058e DC       		.byte	-36
 1791 058f DC       		.byte	-36
 1792 0590 DC       		.byte	-36
 1793 0591 DC       		.byte	-36
 1794 0592 DC       		.byte	-36
 1795 0593 DC       		.byte	-36
 1796 0594 DC       		.byte	-36
 1797 0595 DC       		.byte	-36
 1798 0596 DC       		.byte	-36
 1799 0597 DB       		.byte	-37
 1800 0598 DB       		.byte	-37
ARM GAS  C:\Users\JOSEAN~1\AppData\Local\Temp\ccgojhjw.s 			page 38


 1801 0599 DB       		.byte	-37
 1802 059a DB       		.byte	-37
 1803 059b DB       		.byte	-37
 1804 059c DB       		.byte	-37
 1805 059d DB       		.byte	-37
 1806 059e DB       		.byte	-37
 1807 059f DB       		.byte	-37
 1808 05a0 DA       		.byte	-38
 1809 05a1 DA       		.byte	-38
 1810 05a2 DA       		.byte	-38
 1811 05a3 DA       		.byte	-38
 1812 05a4 DA       		.byte	-38
 1813 05a5 DA       		.byte	-38
 1814 05a6 DA       		.byte	-38
 1815 05a7 DA       		.byte	-38
 1816 05a8 DA       		.byte	-38
 1817 05a9 D9       		.byte	-39
 1818 05aa D9       		.byte	-39
 1819 05ab D9       		.byte	-39
 1820 05ac D9       		.byte	-39
 1821 05ad D9       		.byte	-39
 1822 05ae D9       		.byte	-39
 1823 05af D9       		.byte	-39
 1824 05b0 D9       		.byte	-39
 1825 05b1 D8       		.byte	-40
 1826 05b2 D8       		.byte	-40
 1827 05b3 D8       		.byte	-40
 1828 05b4 D8       		.byte	-40
 1829 05b5 D8       		.byte	-40
 1830 05b6 D8       		.byte	-40
 1831 05b7 D8       		.byte	-40
 1832 05b8 D8       		.byte	-40
 1833 05b9 D8       		.byte	-40
 1834 05ba D7       		.byte	-41
 1835 05bb D7       		.byte	-41
 1836 05bc D7       		.byte	-41
 1837 05bd D7       		.byte	-41
 1838 05be D7       		.byte	-41
 1839 05bf D7       		.byte	-41
 1840 05c0 D7       		.byte	-41
 1841 05c1 D7       		.byte	-41
 1842 05c2 D6       		.byte	-42
 1843 05c3 D6       		.byte	-42
 1844 05c4 D6       		.byte	-42
 1845 05c5 D6       		.byte	-42
 1846 05c6 D6       		.byte	-42
 1847 05c7 D6       		.byte	-42
 1848 05c8 D6       		.byte	-42
 1849 05c9 D6       		.byte	-42
 1850 05ca D6       		.byte	-42
 1851 05cb D5       		.byte	-43
 1852 05cc D5       		.byte	-43
 1853 05cd D5       		.byte	-43
 1854 05ce D5       		.byte	-43
 1855 05cf D5       		.byte	-43
 1856 05d0 D5       		.byte	-43
 1857 05d1 D5       		.byte	-43
ARM GAS  C:\Users\JOSEAN~1\AppData\Local\Temp\ccgojhjw.s 			page 39


 1858 05d2 D5       		.byte	-43
 1859 05d3 D4       		.byte	-44
 1860 05d4 D4       		.byte	-44
 1861 05d5 D4       		.byte	-44
 1862 05d6 D4       		.byte	-44
 1863 05d7 D4       		.byte	-44
 1864 05d8 D4       		.byte	-44
 1865 05d9 D4       		.byte	-44
 1866 05da D4       		.byte	-44
 1867 05db D3       		.byte	-45
 1868 05dc D3       		.byte	-45
 1869 05dd D3       		.byte	-45
 1870 05de D3       		.byte	-45
 1871 05df D3       		.byte	-45
 1872 05e0 D3       		.byte	-45
 1873 05e1 D3       		.byte	-45
 1874 05e2 D3       		.byte	-45
 1875 05e3 D2       		.byte	-46
 1876 05e4 D2       		.byte	-46
 1877 05e5 D2       		.byte	-46
 1878 05e6 D2       		.byte	-46
 1879 05e7 D2       		.byte	-46
 1880 05e8 D2       		.byte	-46
 1881 05e9 D2       		.byte	-46
 1882 05ea D2       		.byte	-46
 1883 05eb D1       		.byte	-47
 1884 05ec D1       		.byte	-47
 1885 05ed D1       		.byte	-47
 1886 05ee D1       		.byte	-47
 1887 05ef D1       		.byte	-47
 1888 05f0 D1       		.byte	-47
 1889 05f1 D1       		.byte	-47
 1890 05f2 D1       		.byte	-47
 1891 05f3 D0       		.byte	-48
 1892 05f4 D0       		.byte	-48
 1893 05f5 D0       		.byte	-48
 1894 05f6 D0       		.byte	-48
 1895 05f7 D0       		.byte	-48
 1896 05f8 D0       		.byte	-48
 1897 05f9 D0       		.byte	-48
 1898 05fa D0       		.byte	-48
 1899 05fb CF       		.byte	-49
 1900 05fc CF       		.byte	-49
 1901 05fd CF       		.byte	-49
 1902 05fe CF       		.byte	-49
 1903 05ff CF       		.byte	-49
 1904 0600 CF       		.byte	-49
 1905 0601 CF       		.byte	-49
 1906 0602 CE       		.byte	-50
 1907 0603 CE       		.byte	-50
 1908 0604 CE       		.byte	-50
 1909 0605 CE       		.byte	-50
 1910 0606 CE       		.byte	-50
 1911 0607 CE       		.byte	-50
 1912 0608 CE       		.byte	-50
 1913 0609 CE       		.byte	-50
 1914 060a CD       		.byte	-51
ARM GAS  C:\Users\JOSEAN~1\AppData\Local\Temp\ccgojhjw.s 			page 40


 1915 060b CD       		.byte	-51
 1916 060c CD       		.byte	-51
 1917 060d CD       		.byte	-51
 1918 060e CD       		.byte	-51
 1919 060f CD       		.byte	-51
 1920 0610 CD       		.byte	-51
 1921 0611 CD       		.byte	-51
 1922 0612 CC       		.byte	-52
 1923 0613 CC       		.byte	-52
 1924 0614 CC       		.byte	-52
 1925 0615 CC       		.byte	-52
 1926 0616 CC       		.byte	-52
 1927 0617 CC       		.byte	-52
 1928 0618 CC       		.byte	-52
 1929 0619 CB       		.byte	-53
 1930 061a CB       		.byte	-53
 1931 061b CB       		.byte	-53
 1932 061c CB       		.byte	-53
 1933 061d CB       		.byte	-53
 1934 061e CB       		.byte	-53
 1935 061f CB       		.byte	-53
 1936 0620 CA       		.byte	-54
 1937 0621 CA       		.byte	-54
 1938 0622 CA       		.byte	-54
 1939 0623 CA       		.byte	-54
 1940 0624 CA       		.byte	-54
 1941 0625 CA       		.byte	-54
 1942 0626 CA       		.byte	-54
 1943 0627 CA       		.byte	-54
 1944 0628 C9       		.byte	-55
 1945 0629 C9       		.byte	-55
 1946 062a C9       		.byte	-55
 1947 062b C9       		.byte	-55
 1948 062c C9       		.byte	-55
 1949 062d C9       		.byte	-55
 1950 062e C9       		.byte	-55
 1951 062f C8       		.byte	-56
 1952 0630 C8       		.byte	-56
 1953 0631 C8       		.byte	-56
 1954 0632 C8       		.byte	-56
 1955 0633 C8       		.byte	-56
 1956 0634 C8       		.byte	-56
 1957 0635 C8       		.byte	-56
 1958 0636 C7       		.byte	-57
 1959 0637 C7       		.byte	-57
 1960 0638 C7       		.byte	-57
 1961 0639 C7       		.byte	-57
 1962 063a C7       		.byte	-57
 1963 063b C7       		.byte	-57
 1964 063c C7       		.byte	-57
 1965 063d C6       		.byte	-58
 1966 063e C6       		.byte	-58
 1967 063f C6       		.byte	-58
 1968 0640 C6       		.byte	-58
 1969 0641 C6       		.byte	-58
 1970 0642 C6       		.byte	-58
 1971 0643 C6       		.byte	-58
ARM GAS  C:\Users\JOSEAN~1\AppData\Local\Temp\ccgojhjw.s 			page 41


 1972 0644 C5       		.byte	-59
 1973 0645 C5       		.byte	-59
 1974 0646 C5       		.byte	-59
 1975 0647 C5       		.byte	-59
 1976 0648 C5       		.byte	-59
 1977 0649 C5       		.byte	-59
 1978 064a C5       		.byte	-59
 1979 064b C4       		.byte	-60
 1980 064c C4       		.byte	-60
 1981 064d C4       		.byte	-60
 1982 064e C4       		.byte	-60
 1983 064f C4       		.byte	-60
 1984 0650 C4       		.byte	-60
 1985 0651 C4       		.byte	-60
 1986 0652 C3       		.byte	-61
 1987 0653 C3       		.byte	-61
 1988 0654 C3       		.byte	-61
 1989 0655 C3       		.byte	-61
 1990 0656 C3       		.byte	-61
 1991 0657 C3       		.byte	-61
 1992 0658 C3       		.byte	-61
 1993 0659 C2       		.byte	-62
 1994 065a C2       		.byte	-62
 1995 065b C2       		.byte	-62
 1996 065c C2       		.byte	-62
 1997 065d C2       		.byte	-62
 1998 065e C2       		.byte	-62
 1999 065f C2       		.byte	-62
 2000 0660 C1       		.byte	-63
 2001 0661 C1       		.byte	-63
 2002 0662 C1       		.byte	-63
 2003 0663 C1       		.byte	-63
 2004 0664 C1       		.byte	-63
 2005 0665 C1       		.byte	-63
 2006 0666 C1       		.byte	-63
 2007 0667 C0       		.byte	-64
 2008 0668 C0       		.byte	-64
 2009 0669 C0       		.byte	-64
 2010 066a C0       		.byte	-64
 2011 066b C0       		.byte	-64
 2012 066c C0       		.byte	-64
 2013 066d C0       		.byte	-64
 2014 066e BF       		.byte	-65
 2015 066f BF       		.byte	-65
 2016 0670 BF       		.byte	-65
 2017 0671 BF       		.byte	-65
 2018 0672 BF       		.byte	-65
 2019 0673 BF       		.byte	-65
 2020 0674 BE       		.byte	-66
 2021 0675 BE       		.byte	-66
 2022 0676 BE       		.byte	-66
 2023 0677 BE       		.byte	-66
 2024 0678 BE       		.byte	-66
 2025 0679 BE       		.byte	-66
 2026 067a BE       		.byte	-66
 2027 067b BD       		.byte	-67
 2028 067c BD       		.byte	-67
ARM GAS  C:\Users\JOSEAN~1\AppData\Local\Temp\ccgojhjw.s 			page 42


 2029 067d BD       		.byte	-67
 2030 067e BD       		.byte	-67
 2031 067f BD       		.byte	-67
 2032 0680 BD       		.byte	-67
 2033 0681 BD       		.byte	-67
 2034 0682 BC       		.byte	-68
 2035 0683 BC       		.byte	-68
 2036 0684 BC       		.byte	-68
 2037 0685 BC       		.byte	-68
 2038 0686 BC       		.byte	-68
 2039 0687 BC       		.byte	-68
 2040 0688 BB       		.byte	-69
 2041 0689 BB       		.byte	-69
 2042 068a BB       		.byte	-69
 2043 068b BB       		.byte	-69
 2044 068c BB       		.byte	-69
 2045 068d BB       		.byte	-69
 2046 068e BB       		.byte	-69
 2047 068f BA       		.byte	-70
 2048 0690 BA       		.byte	-70
 2049 0691 BA       		.byte	-70
 2050 0692 BA       		.byte	-70
 2051 0693 BA       		.byte	-70
 2052 0694 BA       		.byte	-70
 2053 0695 B9       		.byte	-71
 2054 0696 B9       		.byte	-71
 2055 0697 B9       		.byte	-71
 2056 0698 B9       		.byte	-71
 2057 0699 B9       		.byte	-71
 2058 069a B9       		.byte	-71
 2059 069b B9       		.byte	-71
 2060 069c B8       		.byte	-72
 2061 069d B8       		.byte	-72
 2062 069e B8       		.byte	-72
 2063 069f B8       		.byte	-72
 2064 06a0 B8       		.byte	-72
 2065 06a1 B8       		.byte	-72
 2066 06a2 B7       		.byte	-73
 2067 06a3 B7       		.byte	-73
 2068 06a4 B7       		.byte	-73
 2069 06a5 B7       		.byte	-73
 2070 06a6 B7       		.byte	-73
 2071 06a7 B7       		.byte	-73
 2072 06a8 B6       		.byte	-74
 2073 06a9 B6       		.byte	-74
 2074 06aa B6       		.byte	-74
 2075 06ab B6       		.byte	-74
 2076 06ac B6       		.byte	-74
 2077 06ad B6       		.byte	-74
 2078 06ae B6       		.byte	-74
 2079 06af B5       		.byte	-75
 2080 06b0 B5       		.byte	-75
 2081 06b1 B5       		.byte	-75
 2082 06b2 B5       		.byte	-75
 2083 06b3 B5       		.byte	-75
 2084 06b4 B5       		.byte	-75
 2085 06b5 B4       		.byte	-76
ARM GAS  C:\Users\JOSEAN~1\AppData\Local\Temp\ccgojhjw.s 			page 43


 2086 06b6 B4       		.byte	-76
 2087 06b7 B4       		.byte	-76
 2088 06b8 B4       		.byte	-76
 2089 06b9 B4       		.byte	-76
 2090 06ba B4       		.byte	-76
 2091 06bb B3       		.byte	-77
 2092 06bc B3       		.byte	-77
 2093 06bd B3       		.byte	-77
 2094 06be B3       		.byte	-77
 2095 06bf B3       		.byte	-77
 2096 06c0 B3       		.byte	-77
 2097 06c1 B3       		.byte	-77
 2098 06c2 B2       		.byte	-78
 2099 06c3 B2       		.byte	-78
 2100 06c4 B2       		.byte	-78
 2101 06c5 B2       		.byte	-78
 2102 06c6 B2       		.byte	-78
 2103 06c7 B2       		.byte	-78
 2104 06c8 B1       		.byte	-79
 2105 06c9 B1       		.byte	-79
 2106 06ca B1       		.byte	-79
 2107 06cb B1       		.byte	-79
 2108 06cc B1       		.byte	-79
 2109 06cd B1       		.byte	-79
 2110 06ce B0       		.byte	-80
 2111 06cf B0       		.byte	-80
 2112 06d0 B0       		.byte	-80
 2113 06d1 B0       		.byte	-80
 2114 06d2 B0       		.byte	-80
 2115 06d3 B0       		.byte	-80
 2116 06d4 AF       		.byte	-81
 2117 06d5 AF       		.byte	-81
 2118 06d6 AF       		.byte	-81
 2119 06d7 AF       		.byte	-81
 2120 06d8 AF       		.byte	-81
 2121 06d9 AF       		.byte	-81
 2122 06da AF       		.byte	-81
 2123 06db AE       		.byte	-82
 2124 06dc AE       		.byte	-82
 2125 06dd AE       		.byte	-82
 2126 06de AE       		.byte	-82
 2127 06df AE       		.byte	-82
 2128 06e0 AE       		.byte	-82
 2129 06e1 AD       		.byte	-83
 2130 06e2 AD       		.byte	-83
 2131 06e3 AD       		.byte	-83
 2132 06e4 AD       		.byte	-83
 2133 06e5 AD       		.byte	-83
 2134 06e6 AD       		.byte	-83
 2135 06e7 AC       		.byte	-84
 2136 06e8 AC       		.byte	-84
 2137 06e9 AC       		.byte	-84
 2138 06ea AC       		.byte	-84
 2139 06eb AC       		.byte	-84
 2140 06ec AC       		.byte	-84
 2141 06ed AB       		.byte	-85
 2142 06ee AB       		.byte	-85
ARM GAS  C:\Users\JOSEAN~1\AppData\Local\Temp\ccgojhjw.s 			page 44


 2143 06ef AB       		.byte	-85
 2144 06f0 AB       		.byte	-85
 2145 06f1 AB       		.byte	-85
 2146 06f2 AB       		.byte	-85
 2147 06f3 AA       		.byte	-86
 2148 06f4 AA       		.byte	-86
 2149 06f5 AA       		.byte	-86
 2150 06f6 AA       		.byte	-86
 2151 06f7 AA       		.byte	-86
 2152 06f8 AA       		.byte	-86
 2153 06f9 A9       		.byte	-87
 2154 06fa A9       		.byte	-87
 2155 06fb A9       		.byte	-87
 2156 06fc A9       		.byte	-87
 2157 06fd A9       		.byte	-87
 2158 06fe A9       		.byte	-87
 2159 06ff A8       		.byte	-88
 2160 0700 A8       		.byte	-88
 2161 0701 A8       		.byte	-88
 2162 0702 A8       		.byte	-88
 2163 0703 A8       		.byte	-88
 2164 0704 A8       		.byte	-88
 2165 0705 A7       		.byte	-89
 2166 0706 A7       		.byte	-89
 2167 0707 A7       		.byte	-89
 2168 0708 A7       		.byte	-89
 2169 0709 A7       		.byte	-89
 2170 070a A7       		.byte	-89
 2171 070b A6       		.byte	-90
 2172 070c A6       		.byte	-90
 2173 070d A6       		.byte	-90
 2174 070e A6       		.byte	-90
 2175 070f A6       		.byte	-90
 2176 0710 A6       		.byte	-90
 2177 0711 A5       		.byte	-91
 2178 0712 A5       		.byte	-91
 2179 0713 A5       		.byte	-91
 2180 0714 A5       		.byte	-91
 2181 0715 A5       		.byte	-91
 2182 0716 A5       		.byte	-91
 2183 0717 A4       		.byte	-92
 2184 0718 A4       		.byte	-92
 2185 0719 A4       		.byte	-92
 2186 071a A4       		.byte	-92
 2187 071b A4       		.byte	-92
 2188 071c A4       		.byte	-92
 2189 071d A3       		.byte	-93
 2190 071e A3       		.byte	-93
 2191 071f A3       		.byte	-93
 2192 0720 A3       		.byte	-93
 2193 0721 A3       		.byte	-93
 2194 0722 A3       		.byte	-93
 2195 0723 A2       		.byte	-94
 2196 0724 A2       		.byte	-94
 2197 0725 A2       		.byte	-94
 2198 0726 A2       		.byte	-94
 2199 0727 A2       		.byte	-94
ARM GAS  C:\Users\JOSEAN~1\AppData\Local\Temp\ccgojhjw.s 			page 45


 2200 0728 A2       		.byte	-94
 2201 0729 A1       		.byte	-95
 2202 072a A1       		.byte	-95
 2203 072b A1       		.byte	-95
 2204 072c A1       		.byte	-95
 2205 072d A1       		.byte	-95
 2206 072e A1       		.byte	-95
 2207 072f A0       		.byte	-96
 2208 0730 A0       		.byte	-96
 2209 0731 A0       		.byte	-96
 2210 0732 A0       		.byte	-96
 2211 0733 A0       		.byte	-96
 2212 0734 A0       		.byte	-96
 2213 0735 9F       		.byte	-97
 2214 0736 9F       		.byte	-97
 2215 0737 9F       		.byte	-97
 2216 0738 9F       		.byte	-97
 2217 0739 9F       		.byte	-97
 2218 073a 9F       		.byte	-97
 2219 073b 9E       		.byte	-98
 2220 073c 9E       		.byte	-98
 2221 073d 9E       		.byte	-98
 2222 073e 9E       		.byte	-98
 2223 073f 9E       		.byte	-98
 2224 0740 9E       		.byte	-98
 2225 0741 9D       		.byte	-99
 2226 0742 9D       		.byte	-99
 2227 0743 9D       		.byte	-99
 2228 0744 9D       		.byte	-99
 2229 0745 9D       		.byte	-99
 2230 0746 9C       		.byte	-100
 2231 0747 9C       		.byte	-100
 2232 0748 9C       		.byte	-100
 2233 0749 9C       		.byte	-100
 2234 074a 9C       		.byte	-100
 2235 074b 9C       		.byte	-100
 2236 074c 9B       		.byte	-101
 2237 074d 9B       		.byte	-101
 2238 074e 9B       		.byte	-101
 2239 074f 9B       		.byte	-101
 2240 0750 9B       		.byte	-101
 2241 0751 9B       		.byte	-101
 2242 0752 9A       		.byte	-102
 2243 0753 9A       		.byte	-102
 2244 0754 9A       		.byte	-102
 2245 0755 9A       		.byte	-102
 2246 0756 9A       		.byte	-102
 2247 0757 9A       		.byte	-102
 2248 0758 99       		.byte	-103
 2249 0759 99       		.byte	-103
 2250 075a 99       		.byte	-103
 2251 075b 99       		.byte	-103
 2252 075c 99       		.byte	-103
 2253 075d 99       		.byte	-103
 2254 075e 98       		.byte	-104
 2255 075f 98       		.byte	-104
 2256 0760 98       		.byte	-104
ARM GAS  C:\Users\JOSEAN~1\AppData\Local\Temp\ccgojhjw.s 			page 46


 2257 0761 98       		.byte	-104
 2258 0762 98       		.byte	-104
 2259 0763 97       		.byte	-105
 2260 0764 97       		.byte	-105
 2261 0765 97       		.byte	-105
 2262 0766 97       		.byte	-105
 2263 0767 97       		.byte	-105
 2264 0768 97       		.byte	-105
 2265 0769 96       		.byte	-106
 2266 076a 96       		.byte	-106
 2267 076b 96       		.byte	-106
 2268 076c 96       		.byte	-106
 2269 076d 96       		.byte	-106
 2270 076e 96       		.byte	-106
 2271 076f 95       		.byte	-107
 2272 0770 95       		.byte	-107
 2273 0771 95       		.byte	-107
 2274 0772 95       		.byte	-107
 2275 0773 95       		.byte	-107
 2276 0774 95       		.byte	-107
 2277 0775 94       		.byte	-108
 2278 0776 94       		.byte	-108
 2279 0777 94       		.byte	-108
 2280 0778 94       		.byte	-108
 2281 0779 94       		.byte	-108
 2282 077a 94       		.byte	-108
 2283 077b 93       		.byte	-109
 2284 077c 93       		.byte	-109
 2285 077d 93       		.byte	-109
 2286 077e 93       		.byte	-109
 2287 077f 93       		.byte	-109
 2288 0780 92       		.byte	-110
 2289 0781 92       		.byte	-110
 2290 0782 92       		.byte	-110
 2291 0783 92       		.byte	-110
 2292 0784 92       		.byte	-110
 2293 0785 92       		.byte	-110
 2294 0786 91       		.byte	-111
 2295 0787 91       		.byte	-111
 2296 0788 91       		.byte	-111
 2297 0789 91       		.byte	-111
 2298 078a 91       		.byte	-111
 2299 078b 91       		.byte	-111
 2300 078c 90       		.byte	-112
 2301 078d 90       		.byte	-112
 2302 078e 90       		.byte	-112
 2303 078f 90       		.byte	-112
 2304 0790 90       		.byte	-112
 2305 0791 90       		.byte	-112
 2306 0792 8F       		.byte	-113
 2307 0793 8F       		.byte	-113
 2308 0794 8F       		.byte	-113
 2309 0795 8F       		.byte	-113
 2310 0796 8F       		.byte	-113
 2311 0797 8E       		.byte	-114
 2312 0798 8E       		.byte	-114
 2313 0799 8E       		.byte	-114
ARM GAS  C:\Users\JOSEAN~1\AppData\Local\Temp\ccgojhjw.s 			page 47


 2314 079a 8E       		.byte	-114
 2315 079b 8E       		.byte	-114
 2316 079c 8E       		.byte	-114
 2317 079d 8D       		.byte	-115
 2318 079e 8D       		.byte	-115
 2319 079f 8D       		.byte	-115
 2320 07a0 8D       		.byte	-115
 2321 07a1 8D       		.byte	-115
 2322 07a2 8D       		.byte	-115
 2323 07a3 8C       		.byte	-116
 2324 07a4 8C       		.byte	-116
 2325 07a5 8C       		.byte	-116
 2326 07a6 8C       		.byte	-116
 2327 07a7 8C       		.byte	-116
 2328 07a8 8C       		.byte	-116
 2329 07a9 8B       		.byte	-117
 2330 07aa 8B       		.byte	-117
 2331 07ab 8B       		.byte	-117
 2332 07ac 8B       		.byte	-117
 2333 07ad 8B       		.byte	-117
 2334 07ae 8A       		.byte	-118
 2335 07af 8A       		.byte	-118
 2336 07b0 8A       		.byte	-118
 2337 07b1 8A       		.byte	-118
 2338 07b2 8A       		.byte	-118
 2339 07b3 8A       		.byte	-118
 2340 07b4 89       		.byte	-119
 2341 07b5 89       		.byte	-119
 2342 07b6 89       		.byte	-119
 2343 07b7 89       		.byte	-119
 2344 07b8 89       		.byte	-119
 2345 07b9 89       		.byte	-119
 2346 07ba 88       		.byte	-120
 2347 07bb 88       		.byte	-120
 2348 07bc 88       		.byte	-120
 2349 07bd 88       		.byte	-120
 2350 07be 88       		.byte	-120
 2351 07bf 87       		.byte	-121
 2352 07c0 87       		.byte	-121
 2353 07c1 87       		.byte	-121
 2354 07c2 87       		.byte	-121
 2355 07c3 87       		.byte	-121
 2356 07c4 87       		.byte	-121
 2357 07c5 86       		.byte	-122
 2358 07c6 86       		.byte	-122
 2359 07c7 86       		.byte	-122
 2360 07c8 86       		.byte	-122
 2361 07c9 86       		.byte	-122
 2362 07ca 86       		.byte	-122
 2363 07cb 85       		.byte	-123
 2364 07cc 85       		.byte	-123
 2365 07cd 85       		.byte	-123
 2366 07ce 85       		.byte	-123
 2367 07cf 85       		.byte	-123
 2368 07d0 84       		.byte	-124
 2369 07d1 84       		.byte	-124
 2370 07d2 84       		.byte	-124
ARM GAS  C:\Users\JOSEAN~1\AppData\Local\Temp\ccgojhjw.s 			page 48


 2371 07d3 84       		.byte	-124
 2372 07d4 84       		.byte	-124
 2373 07d5 84       		.byte	-124
 2374 07d6 83       		.byte	-125
 2375 07d7 83       		.byte	-125
 2376 07d8 83       		.byte	-125
 2377 07d9 83       		.byte	-125
 2378 07da 83       		.byte	-125
 2379 07db 83       		.byte	-125
 2380 07dc 82       		.byte	-126
 2381 07dd 82       		.byte	-126
 2382 07de 82       		.byte	-126
 2383 07df 82       		.byte	-126
 2384 07e0 82       		.byte	-126
 2385 07e1 82       		.byte	-126
 2386 07e2 81       		.byte	-127
 2387 07e3 81       		.byte	-127
 2388 07e4 81       		.byte	-127
 2389 07e5 81       		.byte	-127
 2390 07e6 81       		.byte	-127
 2391 07e7 80       		.byte	-128
 2392 07e8 80       		.byte	-128
 2393 07e9 80       		.byte	-128
 2394 07ea 80       		.byte	-128
 2395 07eb 80       		.byte	-128
 2396 07ec 80       		.byte	-128
 2397 07ed 7F       		.byte	127
 2398 07ee 7F       		.byte	127
 2399 07ef 7F       		.byte	127
 2400 07f0 7F       		.byte	127
 2401 07f1 7F       		.byte	127
 2402 07f2 7F       		.byte	127
 2403 07f3 7E       		.byte	126
 2404 07f4 7E       		.byte	126
 2405 07f5 7E       		.byte	126
 2406 07f6 7E       		.byte	126
 2407 07f7 7E       		.byte	126
 2408 07f8 7D       		.byte	125
 2409 07f9 7D       		.byte	125
 2410 07fa 7D       		.byte	125
 2411 07fb 7D       		.byte	125
 2412 07fc 7D       		.byte	125
 2413 07fd 7D       		.byte	125
 2414 07fe 7C       		.byte	124
 2415 07ff 7C       		.byte	124
 2416 0800 7C       		.byte	124
 2417 0801 7C       		.byte	124
 2418 0802 7C       		.byte	124
 2419 0803 7C       		.byte	124
 2420 0804 7B       		.byte	123
 2421 0805 7B       		.byte	123
 2422 0806 7B       		.byte	123
 2423 0807 7B       		.byte	123
 2424 0808 7B       		.byte	123
 2425 0809 7B       		.byte	123
 2426 080a 7A       		.byte	122
 2427 080b 7A       		.byte	122
ARM GAS  C:\Users\JOSEAN~1\AppData\Local\Temp\ccgojhjw.s 			page 49


 2428 080c 7A       		.byte	122
 2429 080d 7A       		.byte	122
 2430 080e 7A       		.byte	122
 2431 080f 79       		.byte	121
 2432 0810 79       		.byte	121
 2433 0811 79       		.byte	121
 2434 0812 79       		.byte	121
 2435 0813 79       		.byte	121
 2436 0814 79       		.byte	121
 2437 0815 78       		.byte	120
 2438 0816 78       		.byte	120
 2439 0817 78       		.byte	120
 2440 0818 78       		.byte	120
 2441 0819 78       		.byte	120
 2442 081a 78       		.byte	120
 2443 081b 77       		.byte	119
 2444 081c 77       		.byte	119
 2445 081d 77       		.byte	119
 2446 081e 77       		.byte	119
 2447 081f 77       		.byte	119
 2448 0820 77       		.byte	119
 2449 0821 76       		.byte	118
 2450 0822 76       		.byte	118
 2451 0823 76       		.byte	118
 2452 0824 76       		.byte	118
 2453 0825 76       		.byte	118
 2454 0826 75       		.byte	117
 2455 0827 75       		.byte	117
 2456 0828 75       		.byte	117
 2457 0829 75       		.byte	117
 2458 082a 75       		.byte	117
 2459 082b 75       		.byte	117
 2460 082c 74       		.byte	116
 2461 082d 74       		.byte	116
 2462 082e 74       		.byte	116
 2463 082f 74       		.byte	116
 2464 0830 74       		.byte	116
 2465 0831 74       		.byte	116
 2466 0832 73       		.byte	115
 2467 0833 73       		.byte	115
 2468 0834 73       		.byte	115
 2469 0835 73       		.byte	115
 2470 0836 73       		.byte	115
 2471 0837 73       		.byte	115
 2472 0838 72       		.byte	114
 2473 0839 72       		.byte	114
 2474 083a 72       		.byte	114
 2475 083b 72       		.byte	114
 2476 083c 72       		.byte	114
 2477 083d 72       		.byte	114
 2478 083e 71       		.byte	113
 2479 083f 71       		.byte	113
 2480 0840 71       		.byte	113
 2481 0841 71       		.byte	113
 2482 0842 71       		.byte	113
 2483 0843 70       		.byte	112
 2484 0844 70       		.byte	112
ARM GAS  C:\Users\JOSEAN~1\AppData\Local\Temp\ccgojhjw.s 			page 50


 2485 0845 70       		.byte	112
 2486 0846 70       		.byte	112
 2487 0847 70       		.byte	112
 2488 0848 70       		.byte	112
 2489 0849 6F       		.byte	111
 2490 084a 6F       		.byte	111
 2491 084b 6F       		.byte	111
 2492 084c 6F       		.byte	111
 2493 084d 6F       		.byte	111
 2494 084e 6F       		.byte	111
 2495 084f 6E       		.byte	110
 2496 0850 6E       		.byte	110
 2497 0851 6E       		.byte	110
 2498 0852 6E       		.byte	110
 2499 0853 6E       		.byte	110
 2500 0854 6E       		.byte	110
 2501 0855 6D       		.byte	109
 2502 0856 6D       		.byte	109
 2503 0857 6D       		.byte	109
 2504 0858 6D       		.byte	109
 2505 0859 6D       		.byte	109
 2506 085a 6D       		.byte	109
 2507 085b 6C       		.byte	108
 2508 085c 6C       		.byte	108
 2509 085d 6C       		.byte	108
 2510 085e 6C       		.byte	108
 2511 085f 6C       		.byte	108
 2512 0860 6B       		.byte	107
 2513 0861 6B       		.byte	107
 2514 0862 6B       		.byte	107
 2515 0863 6B       		.byte	107
 2516 0864 6B       		.byte	107
 2517 0865 6B       		.byte	107
 2518 0866 6A       		.byte	106
 2519 0867 6A       		.byte	106
 2520 0868 6A       		.byte	106
 2521 0869 6A       		.byte	106
 2522 086a 6A       		.byte	106
 2523 086b 6A       		.byte	106
 2524 086c 69       		.byte	105
 2525 086d 69       		.byte	105
 2526 086e 69       		.byte	105
 2527 086f 69       		.byte	105
 2528 0870 69       		.byte	105
 2529 0871 69       		.byte	105
 2530 0872 68       		.byte	104
 2531 0873 68       		.byte	104
 2532 0874 68       		.byte	104
 2533 0875 68       		.byte	104
 2534 0876 68       		.byte	104
 2535 0877 68       		.byte	104
 2536 0878 67       		.byte	103
 2537 0879 67       		.byte	103
 2538 087a 67       		.byte	103
 2539 087b 67       		.byte	103
 2540 087c 67       		.byte	103
 2541 087d 67       		.byte	103
ARM GAS  C:\Users\JOSEAN~1\AppData\Local\Temp\ccgojhjw.s 			page 51


 2542 087e 66       		.byte	102
 2543 087f 66       		.byte	102
 2544 0880 66       		.byte	102
 2545 0881 66       		.byte	102
 2546 0882 66       		.byte	102
 2547 0883 66       		.byte	102
 2548 0884 65       		.byte	101
 2549 0885 65       		.byte	101
 2550 0886 65       		.byte	101
 2551 0887 65       		.byte	101
 2552 0888 65       		.byte	101
 2553 0889 65       		.byte	101
 2554 088a 64       		.byte	100
 2555 088b 64       		.byte	100
 2556 088c 64       		.byte	100
 2557 088d 64       		.byte	100
 2558 088e 64       		.byte	100
 2559 088f 64       		.byte	100
 2560 0890 63       		.byte	99
 2561 0891 63       		.byte	99
 2562 0892 63       		.byte	99
 2563 0893 63       		.byte	99
 2564 0894 63       		.byte	99
 2565 0895 63       		.byte	99
 2566 0896 62       		.byte	98
 2567 0897 62       		.byte	98
 2568 0898 62       		.byte	98
 2569 0899 62       		.byte	98
 2570 089a 62       		.byte	98
 2571 089b 62       		.byte	98
 2572 089c 61       		.byte	97
 2573 089d 61       		.byte	97
 2574 089e 61       		.byte	97
 2575 089f 61       		.byte	97
 2576 08a0 61       		.byte	97
 2577 08a1 61       		.byte	97
 2578 08a2 60       		.byte	96
 2579 08a3 60       		.byte	96
 2580 08a4 60       		.byte	96
 2581 08a5 60       		.byte	96
 2582 08a6 60       		.byte	96
 2583 08a7 60       		.byte	96
 2584 08a8 5F       		.byte	95
 2585 08a9 5F       		.byte	95
 2586 08aa 5F       		.byte	95
 2587 08ab 5F       		.byte	95
 2588 08ac 5F       		.byte	95
 2589 08ad 5F       		.byte	95
 2590 08ae 5E       		.byte	94
 2591 08af 5E       		.byte	94
 2592 08b0 5E       		.byte	94
 2593 08b1 5E       		.byte	94
 2594 08b2 5E       		.byte	94
 2595 08b3 5E       		.byte	94
 2596 08b4 5D       		.byte	93
 2597 08b5 5D       		.byte	93
 2598 08b6 5D       		.byte	93
ARM GAS  C:\Users\JOSEAN~1\AppData\Local\Temp\ccgojhjw.s 			page 52


 2599 08b7 5D       		.byte	93
 2600 08b8 5D       		.byte	93
 2601 08b9 5D       		.byte	93
 2602 08ba 5C       		.byte	92
 2603 08bb 5C       		.byte	92
 2604 08bc 5C       		.byte	92
 2605 08bd 5C       		.byte	92
 2606 08be 5C       		.byte	92
 2607 08bf 5C       		.byte	92
 2608 08c0 5B       		.byte	91
 2609 08c1 5B       		.byte	91
 2610 08c2 5B       		.byte	91
 2611 08c3 5B       		.byte	91
 2612 08c4 5B       		.byte	91
 2613 08c5 5B       		.byte	91
 2614 08c6 5A       		.byte	90
 2615 08c7 5A       		.byte	90
 2616 08c8 5A       		.byte	90
 2617 08c9 5A       		.byte	90
 2618 08ca 5A       		.byte	90
 2619 08cb 5A       		.byte	90
 2620 08cc 5A       		.byte	90
 2621 08cd 59       		.byte	89
 2622 08ce 59       		.byte	89
 2623 08cf 59       		.byte	89
 2624 08d0 59       		.byte	89
 2625 08d1 59       		.byte	89
 2626 08d2 59       		.byte	89
 2627 08d3 58       		.byte	88
 2628 08d4 58       		.byte	88
 2629 08d5 58       		.byte	88
 2630 08d6 58       		.byte	88
 2631 08d7 58       		.byte	88
 2632 08d8 58       		.byte	88
 2633 08d9 57       		.byte	87
 2634 08da 57       		.byte	87
 2635 08db 57       		.byte	87
 2636 08dc 57       		.byte	87
 2637 08dd 57       		.byte	87
 2638 08de 57       		.byte	87
 2639 08df 56       		.byte	86
 2640 08e0 56       		.byte	86
 2641 08e1 56       		.byte	86
 2642 08e2 56       		.byte	86
 2643 08e3 56       		.byte	86
 2644 08e4 56       		.byte	86
 2645 08e5 56       		.byte	86
 2646 08e6 55       		.byte	85
 2647 08e7 55       		.byte	85
 2648 08e8 55       		.byte	85
 2649 08e9 55       		.byte	85
 2650 08ea 55       		.byte	85
 2651 08eb 55       		.byte	85
 2652 08ec 54       		.byte	84
 2653 08ed 54       		.byte	84
 2654 08ee 54       		.byte	84
 2655 08ef 54       		.byte	84
ARM GAS  C:\Users\JOSEAN~1\AppData\Local\Temp\ccgojhjw.s 			page 53


 2656 08f0 54       		.byte	84
 2657 08f1 54       		.byte	84
 2658 08f2 53       		.byte	83
 2659 08f3 53       		.byte	83
 2660 08f4 53       		.byte	83
 2661 08f5 53       		.byte	83
 2662 08f6 53       		.byte	83
 2663 08f7 53       		.byte	83
 2664 08f8 53       		.byte	83
 2665 08f9 52       		.byte	82
 2666 08fa 52       		.byte	82
 2667 08fb 52       		.byte	82
 2668 08fc 52       		.byte	82
 2669 08fd 52       		.byte	82
 2670 08fe 52       		.byte	82
 2671 08ff 51       		.byte	81
 2672 0900 51       		.byte	81
 2673 0901 51       		.byte	81
 2674 0902 51       		.byte	81
 2675 0903 51       		.byte	81
 2676 0904 51       		.byte	81
 2677 0905 50       		.byte	80
 2678 0906 50       		.byte	80
 2679 0907 50       		.byte	80
 2680 0908 50       		.byte	80
 2681 0909 50       		.byte	80
 2682 090a 50       		.byte	80
 2683 090b 50       		.byte	80
 2684 090c 4F       		.byte	79
 2685 090d 4F       		.byte	79
 2686 090e 4F       		.byte	79
 2687 090f 4F       		.byte	79
 2688 0910 4F       		.byte	79
 2689 0911 4F       		.byte	79
 2690 0912 4E       		.byte	78
 2691 0913 4E       		.byte	78
 2692 0914 4E       		.byte	78
 2693 0915 4E       		.byte	78
 2694 0916 4E       		.byte	78
 2695 0917 4E       		.byte	78
 2696 0918 4E       		.byte	78
 2697 0919 4D       		.byte	77
 2698 091a 4D       		.byte	77
 2699 091b 4D       		.byte	77
 2700 091c 4D       		.byte	77
 2701 091d 4D       		.byte	77
 2702 091e 4D       		.byte	77
 2703 091f 4C       		.byte	76
 2704 0920 4C       		.byte	76
 2705 0921 4C       		.byte	76
 2706 0922 4C       		.byte	76
 2707 0923 4C       		.byte	76
 2708 0924 4C       		.byte	76
 2709 0925 4C       		.byte	76
 2710 0926 4B       		.byte	75
 2711 0927 4B       		.byte	75
 2712 0928 4B       		.byte	75
ARM GAS  C:\Users\JOSEAN~1\AppData\Local\Temp\ccgojhjw.s 			page 54


 2713 0929 4B       		.byte	75
 2714 092a 4B       		.byte	75
 2715 092b 4B       		.byte	75
 2716 092c 4B       		.byte	75
 2717 092d 4A       		.byte	74
 2718 092e 4A       		.byte	74
 2719 092f 4A       		.byte	74
 2720 0930 4A       		.byte	74
 2721 0931 4A       		.byte	74
 2722 0932 4A       		.byte	74
 2723 0933 49       		.byte	73
 2724 0934 49       		.byte	73
 2725 0935 49       		.byte	73
 2726 0936 49       		.byte	73
 2727 0937 49       		.byte	73
 2728 0938 49       		.byte	73
 2729 0939 49       		.byte	73
 2730 093a 48       		.byte	72
 2731 093b 48       		.byte	72
 2732 093c 48       		.byte	72
 2733 093d 48       		.byte	72
 2734 093e 48       		.byte	72
 2735 093f 48       		.byte	72
 2736 0940 48       		.byte	72
 2737 0941 47       		.byte	71
 2738 0942 47       		.byte	71
 2739 0943 47       		.byte	71
 2740 0944 47       		.byte	71
 2741 0945 47       		.byte	71
 2742 0946 47       		.byte	71
 2743 0947 47       		.byte	71
 2744 0948 46       		.byte	70
 2745 0949 46       		.byte	70
 2746 094a 46       		.byte	70
 2747 094b 46       		.byte	70
 2748 094c 46       		.byte	70
 2749 094d 46       		.byte	70
 2750 094e 46       		.byte	70
 2751 094f 45       		.byte	69
 2752 0950 45       		.byte	69
 2753 0951 45       		.byte	69
 2754 0952 45       		.byte	69
 2755 0953 45       		.byte	69
 2756 0954 45       		.byte	69
 2757 0955 45       		.byte	69
 2758 0956 44       		.byte	68
 2759 0957 44       		.byte	68
 2760 0958 44       		.byte	68
 2761 0959 44       		.byte	68
 2762 095a 44       		.byte	68
 2763 095b 44       		.byte	68
 2764 095c 44       		.byte	68
 2765 095d 43       		.byte	67
 2766 095e 43       		.byte	67
 2767 095f 43       		.byte	67
 2768 0960 43       		.byte	67
 2769 0961 43       		.byte	67
ARM GAS  C:\Users\JOSEAN~1\AppData\Local\Temp\ccgojhjw.s 			page 55


 2770 0962 43       		.byte	67
 2771 0963 43       		.byte	67
 2772 0964 42       		.byte	66
 2773 0965 42       		.byte	66
 2774 0966 42       		.byte	66
 2775 0967 42       		.byte	66
 2776 0968 42       		.byte	66
 2777 0969 42       		.byte	66
 2778 096a 42       		.byte	66
 2779 096b 41       		.byte	65
 2780 096c 41       		.byte	65
 2781 096d 41       		.byte	65
 2782 096e 41       		.byte	65
 2783 096f 41       		.byte	65
 2784 0970 41       		.byte	65
 2785 0971 41       		.byte	65
 2786 0972 40       		.byte	64
 2787 0973 40       		.byte	64
 2788 0974 40       		.byte	64
 2789 0975 40       		.byte	64
 2790 0976 40       		.byte	64
 2791 0977 40       		.byte	64
 2792 0978 40       		.byte	64
 2793 0979 3F       		.byte	63
 2794 097a 3F       		.byte	63
 2795 097b 3F       		.byte	63
 2796 097c 3F       		.byte	63
 2797 097d 3F       		.byte	63
 2798 097e 3F       		.byte	63
 2799 097f 3F       		.byte	63
 2800 0980 3F       		.byte	63
 2801 0981 3E       		.byte	62
 2802 0982 3E       		.byte	62
 2803 0983 3E       		.byte	62
 2804 0984 3E       		.byte	62
 2805 0985 3E       		.byte	62
 2806 0986 3E       		.byte	62
 2807 0987 3E       		.byte	62
 2808 0988 3D       		.byte	61
 2809 0989 3D       		.byte	61
 2810 098a 3D       		.byte	61
 2811 098b 3D       		.byte	61
 2812 098c 3D       		.byte	61
 2813 098d 3D       		.byte	61
 2814 098e 3D       		.byte	61
 2815 098f 3C       		.byte	60
 2816 0990 3C       		.byte	60
 2817 0991 3C       		.byte	60
 2818 0992 3C       		.byte	60
 2819 0993 3C       		.byte	60
 2820 0994 3C       		.byte	60
 2821 0995 3C       		.byte	60
 2822 0996 3C       		.byte	60
 2823 0997 3B       		.byte	59
 2824 0998 3B       		.byte	59
 2825 0999 3B       		.byte	59
 2826 099a 3B       		.byte	59
ARM GAS  C:\Users\JOSEAN~1\AppData\Local\Temp\ccgojhjw.s 			page 56


 2827 099b 3B       		.byte	59
 2828 099c 3B       		.byte	59
 2829 099d 3B       		.byte	59
 2830 099e 3B       		.byte	59
 2831 099f 3A       		.byte	58
 2832 09a0 3A       		.byte	58
 2833 09a1 3A       		.byte	58
 2834 09a2 3A       		.byte	58
 2835 09a3 3A       		.byte	58
 2836 09a4 3A       		.byte	58
 2837 09a5 3A       		.byte	58
 2838 09a6 39       		.byte	57
 2839 09a7 39       		.byte	57
 2840 09a8 39       		.byte	57
 2841 09a9 39       		.byte	57
 2842 09aa 39       		.byte	57
 2843 09ab 39       		.byte	57
 2844 09ac 39       		.byte	57
 2845 09ad 39       		.byte	57
 2846 09ae 38       		.byte	56
 2847 09af 38       		.byte	56
 2848 09b0 38       		.byte	56
 2849 09b1 38       		.byte	56
 2850 09b2 38       		.byte	56
 2851 09b3 38       		.byte	56
 2852 09b4 38       		.byte	56
 2853 09b5 38       		.byte	56
 2854 09b6 37       		.byte	55
 2855 09b7 37       		.byte	55
 2856 09b8 37       		.byte	55
 2857 09b9 37       		.byte	55
 2858 09ba 37       		.byte	55
 2859 09bb 37       		.byte	55
 2860 09bc 37       		.byte	55
 2861 09bd 37       		.byte	55
 2862 09be 36       		.byte	54
 2863 09bf 36       		.byte	54
 2864 09c0 36       		.byte	54
 2865 09c1 36       		.byte	54
 2866 09c2 36       		.byte	54
 2867 09c3 36       		.byte	54
 2868 09c4 36       		.byte	54
 2869 09c5 36       		.byte	54
 2870 09c6 35       		.byte	53
 2871 09c7 35       		.byte	53
 2872 09c8 35       		.byte	53
 2873 09c9 35       		.byte	53
 2874 09ca 35       		.byte	53
 2875 09cb 35       		.byte	53
 2876 09cc 35       		.byte	53
 2877 09cd 35       		.byte	53
 2878 09ce 34       		.byte	52
 2879 09cf 34       		.byte	52
 2880 09d0 34       		.byte	52
 2881 09d1 34       		.byte	52
 2882 09d2 34       		.byte	52
 2883 09d3 34       		.byte	52
ARM GAS  C:\Users\JOSEAN~1\AppData\Local\Temp\ccgojhjw.s 			page 57


 2884 09d4 34       		.byte	52
 2885 09d5 34       		.byte	52
 2886 09d6 33       		.byte	51
 2887 09d7 33       		.byte	51
 2888 09d8 33       		.byte	51
 2889 09d9 33       		.byte	51
 2890 09da 33       		.byte	51
 2891 09db 33       		.byte	51
 2892 09dc 33       		.byte	51
 2893 09dd 33       		.byte	51
 2894 09de 33       		.byte	51
 2895 09df 32       		.byte	50
 2896 09e0 32       		.byte	50
 2897 09e1 32       		.byte	50
 2898 09e2 32       		.byte	50
 2899 09e3 32       		.byte	50
 2900 09e4 32       		.byte	50
 2901 09e5 32       		.byte	50
 2902 09e6 32       		.byte	50
 2903 09e7 31       		.byte	49
 2904 09e8 31       		.byte	49
 2905 09e9 31       		.byte	49
 2906 09ea 31       		.byte	49
 2907 09eb 31       		.byte	49
 2908 09ec 31       		.byte	49
 2909 09ed 31       		.byte	49
 2910 09ee 31       		.byte	49
 2911 09ef 31       		.byte	49
 2912 09f0 30       		.byte	48
 2913 09f1 30       		.byte	48
 2914 09f2 30       		.byte	48
 2915 09f3 30       		.byte	48
 2916 09f4 30       		.byte	48
 2917 09f5 30       		.byte	48
 2918 09f6 30       		.byte	48
 2919 09f7 30       		.byte	48
 2920 09f8 2F       		.byte	47
 2921 09f9 2F       		.byte	47
 2922 09fa 2F       		.byte	47
 2923 09fb 2F       		.byte	47
 2924 09fc 2F       		.byte	47
 2925 09fd 2F       		.byte	47
 2926 09fe 2F       		.byte	47
 2927 09ff 2F       		.byte	47
 2928 0a00 2F       		.byte	47
 2929 0a01 2E       		.byte	46
 2930 0a02 2E       		.byte	46
 2931 0a03 2E       		.byte	46
 2932 0a04 2E       		.byte	46
 2933 0a05 2E       		.byte	46
 2934 0a06 2E       		.byte	46
 2935 0a07 2E       		.byte	46
 2936 0a08 2E       		.byte	46
 2937 0a09 2E       		.byte	46
 2938 0a0a 2D       		.byte	45
 2939 0a0b 2D       		.byte	45
 2940 0a0c 2D       		.byte	45
ARM GAS  C:\Users\JOSEAN~1\AppData\Local\Temp\ccgojhjw.s 			page 58


 2941 0a0d 2D       		.byte	45
 2942 0a0e 2D       		.byte	45
 2943 0a0f 2D       		.byte	45
 2944 0a10 2D       		.byte	45
 2945 0a11 2D       		.byte	45
 2946 0a12 2D       		.byte	45
 2947 0a13 2D       		.byte	45
 2948 0a14 2C       		.byte	44
 2949 0a15 2C       		.byte	44
 2950 0a16 2C       		.byte	44
 2951 0a17 2C       		.byte	44
 2952 0a18 2C       		.byte	44
 2953 0a19 2C       		.byte	44
 2954 0a1a 2C       		.byte	44
 2955 0a1b 2C       		.byte	44
 2956 0a1c 2C       		.byte	44
 2957 0a1d 2B       		.byte	43
 2958 0a1e 2B       		.byte	43
 2959 0a1f 2B       		.byte	43
 2960 0a20 2B       		.byte	43
 2961 0a21 2B       		.byte	43
 2962 0a22 2B       		.byte	43
 2963 0a23 2B       		.byte	43
 2964 0a24 2B       		.byte	43
 2965 0a25 2B       		.byte	43
 2966 0a26 2B       		.byte	43
 2967 0a27 2A       		.byte	42
 2968 0a28 2A       		.byte	42
 2969 0a29 2A       		.byte	42
 2970 0a2a 2A       		.byte	42
 2971 0a2b 2A       		.byte	42
 2972 0a2c 2A       		.byte	42
 2973 0a2d 2A       		.byte	42
 2974 0a2e 2A       		.byte	42
 2975 0a2f 2A       		.byte	42
 2976 0a30 29       		.byte	41
 2977 0a31 29       		.byte	41
 2978 0a32 29       		.byte	41
 2979 0a33 29       		.byte	41
 2980 0a34 29       		.byte	41
 2981 0a35 29       		.byte	41
 2982 0a36 29       		.byte	41
 2983 0a37 29       		.byte	41
 2984 0a38 29       		.byte	41
 2985 0a39 29       		.byte	41
 2986 0a3a 28       		.byte	40
 2987 0a3b 28       		.byte	40
 2988 0a3c 28       		.byte	40
 2989 0a3d 28       		.byte	40
 2990 0a3e 28       		.byte	40
 2991 0a3f 28       		.byte	40
 2992 0a40 28       		.byte	40
 2993 0a41 28       		.byte	40
 2994 0a42 28       		.byte	40
 2995 0a43 28       		.byte	40
 2996 0a44 28       		.byte	40
 2997 0a45 27       		.byte	39
ARM GAS  C:\Users\JOSEAN~1\AppData\Local\Temp\ccgojhjw.s 			page 59


 2998 0a46 27       		.byte	39
 2999 0a47 27       		.byte	39
 3000 0a48 27       		.byte	39
 3001 0a49 27       		.byte	39
 3002 0a4a 27       		.byte	39
 3003 0a4b 27       		.byte	39
 3004 0a4c 27       		.byte	39
 3005 0a4d 27       		.byte	39
 3006 0a4e 27       		.byte	39
 3007 0a4f 26       		.byte	38
 3008 0a50 26       		.byte	38
 3009 0a51 26       		.byte	38
 3010 0a52 26       		.byte	38
 3011 0a53 26       		.byte	38
 3012 0a54 26       		.byte	38
 3013 0a55 26       		.byte	38
 3014 0a56 26       		.byte	38
 3015 0a57 26       		.byte	38
 3016 0a58 26       		.byte	38
 3017 0a59 26       		.byte	38
 3018 0a5a 25       		.byte	37
 3019 0a5b 25       		.byte	37
 3020 0a5c 25       		.byte	37
 3021 0a5d 25       		.byte	37
 3022 0a5e 25       		.byte	37
 3023 0a5f 25       		.byte	37
 3024 0a60 25       		.byte	37
 3025 0a61 25       		.byte	37
 3026 0a62 25       		.byte	37
 3027 0a63 25       		.byte	37
 3028 0a64 25       		.byte	37
 3029 0a65 24       		.byte	36
 3030 0a66 24       		.byte	36
 3031 0a67 24       		.byte	36
 3032 0a68 24       		.byte	36
 3033 0a69 24       		.byte	36
 3034 0a6a 24       		.byte	36
 3035 0a6b 24       		.byte	36
 3036 0a6c 24       		.byte	36
 3037 0a6d 24       		.byte	36
 3038 0a6e 24       		.byte	36
 3039 0a6f 24       		.byte	36
 3040 0a70 23       		.byte	35
 3041 0a71 23       		.byte	35
 3042 0a72 23       		.byte	35
 3043 0a73 23       		.byte	35
 3044 0a74 23       		.byte	35
 3045 0a75 23       		.byte	35
 3046 0a76 23       		.byte	35
 3047 0a77 23       		.byte	35
 3048 0a78 23       		.byte	35
 3049 0a79 23       		.byte	35
 3050 0a7a 23       		.byte	35
 3051 0a7b 23       		.byte	35
 3052 0a7c 22       		.byte	34
 3053 0a7d 22       		.byte	34
 3054 0a7e 22       		.byte	34
ARM GAS  C:\Users\JOSEAN~1\AppData\Local\Temp\ccgojhjw.s 			page 60


 3055 0a7f 22       		.byte	34
 3056 0a80 22       		.byte	34
 3057 0a81 22       		.byte	34
 3058 0a82 22       		.byte	34
 3059 0a83 22       		.byte	34
 3060 0a84 22       		.byte	34
 3061 0a85 22       		.byte	34
 3062 0a86 22       		.byte	34
 3063 0a87 22       		.byte	34
 3064 0a88 21       		.byte	33
 3065 0a89 21       		.byte	33
 3066 0a8a 21       		.byte	33
 3067 0a8b 21       		.byte	33
 3068 0a8c 21       		.byte	33
 3069 0a8d 21       		.byte	33
 3070 0a8e 21       		.byte	33
 3071 0a8f 21       		.byte	33
 3072 0a90 21       		.byte	33
 3073 0a91 21       		.byte	33
 3074 0a92 21       		.byte	33
 3075 0a93 21       		.byte	33
 3076 0a94 21       		.byte	33
 3077 0a95 20       		.byte	32
 3078 0a96 20       		.byte	32
 3079 0a97 20       		.byte	32
 3080 0a98 20       		.byte	32
 3081 0a99 20       		.byte	32
 3082 0a9a 20       		.byte	32
 3083 0a9b 20       		.byte	32
 3084 0a9c 20       		.byte	32
 3085 0a9d 20       		.byte	32
 3086 0a9e 20       		.byte	32
 3087 0a9f 20       		.byte	32
 3088 0aa0 20       		.byte	32
 3089 0aa1 20       		.byte	32
 3090 0aa2 1F       		.byte	31
 3091 0aa3 1F       		.byte	31
 3092 0aa4 1F       		.byte	31
 3093 0aa5 1F       		.byte	31
 3094 0aa6 1F       		.byte	31
 3095 0aa7 1F       		.byte	31
 3096 0aa8 1F       		.byte	31
 3097 0aa9 1F       		.byte	31
 3098 0aaa 1F       		.byte	31
 3099 0aab 1F       		.byte	31
 3100 0aac 1F       		.byte	31
 3101 0aad 1F       		.byte	31
 3102 0aae 1F       		.byte	31
 3103 0aaf 1F       		.byte	31
 3104 0ab0 1E       		.byte	30
 3105 0ab1 1E       		.byte	30
 3106 0ab2 1E       		.byte	30
 3107 0ab3 1E       		.byte	30
 3108 0ab4 1E       		.byte	30
 3109 0ab5 1E       		.byte	30
 3110 0ab6 1E       		.byte	30
 3111 0ab7 1E       		.byte	30
ARM GAS  C:\Users\JOSEAN~1\AppData\Local\Temp\ccgojhjw.s 			page 61


 3112 0ab8 1E       		.byte	30
 3113 0ab9 1E       		.byte	30
 3114 0aba 1E       		.byte	30
 3115 0abb 1E       		.byte	30
 3116 0abc 1E       		.byte	30
 3117 0abd 1E       		.byte	30
 3118 0abe 1D       		.byte	29
 3119 0abf 1D       		.byte	29
 3120 0ac0 1D       		.byte	29
 3121 0ac1 1D       		.byte	29
 3122 0ac2 1D       		.byte	29
 3123 0ac3 1D       		.byte	29
 3124 0ac4 1D       		.byte	29
 3125 0ac5 1D       		.byte	29
 3126 0ac6 1D       		.byte	29
 3127 0ac7 1D       		.byte	29
 3128 0ac8 1D       		.byte	29
 3129 0ac9 1D       		.byte	29
 3130 0aca 1D       		.byte	29
 3131 0acb 1D       		.byte	29
 3132 0acc 1D       		.byte	29
 3133 0acd 1D       		.byte	29
 3134 0ace 1C       		.byte	28
 3135 0acf 1C       		.byte	28
 3136 0ad0 1C       		.byte	28
 3137 0ad1 1C       		.byte	28
 3138 0ad2 1C       		.byte	28
 3139 0ad3 1C       		.byte	28
 3140 0ad4 1C       		.byte	28
 3141 0ad5 1C       		.byte	28
 3142 0ad6 1C       		.byte	28
 3143 0ad7 1C       		.byte	28
 3144 0ad8 1C       		.byte	28
 3145 0ad9 1C       		.byte	28
 3146 0ada 1C       		.byte	28
 3147 0adb 1C       		.byte	28
 3148 0adc 1C       		.byte	28
 3149 0add 1C       		.byte	28
 3150 0ade 1B       		.byte	27
 3151 0adf 1B       		.byte	27
 3152 0ae0 1B       		.byte	27
 3153 0ae1 1B       		.byte	27
 3154 0ae2 1B       		.byte	27
 3155 0ae3 1B       		.byte	27
 3156 0ae4 1B       		.byte	27
 3157 0ae5 1B       		.byte	27
 3158 0ae6 1B       		.byte	27
 3159 0ae7 1B       		.byte	27
 3160 0ae8 1B       		.byte	27
 3161 0ae9 1B       		.byte	27
 3162 0aea 1B       		.byte	27
 3163 0aeb 1B       		.byte	27
 3164 0aec 1B       		.byte	27
 3165 0aed 1B       		.byte	27
 3166 0aee 1B       		.byte	27
 3167 0aef 1B       		.byte	27
 3168 0af0 1A       		.byte	26
ARM GAS  C:\Users\JOSEAN~1\AppData\Local\Temp\ccgojhjw.s 			page 62


 3169 0af1 1A       		.byte	26
 3170 0af2 1A       		.byte	26
 3171 0af3 1A       		.byte	26
 3172 0af4 1A       		.byte	26
 3173 0af5 1A       		.byte	26
 3174 0af6 1A       		.byte	26
 3175 0af7 1A       		.byte	26
 3176 0af8 1A       		.byte	26
 3177 0af9 1A       		.byte	26
 3178 0afa 1A       		.byte	26
 3179 0afb 1A       		.byte	26
 3180 0afc 1A       		.byte	26
 3181 0afd 1A       		.byte	26
 3182 0afe 1A       		.byte	26
 3183 0aff 1A       		.byte	26
 3184 0b00 1A       		.byte	26
 3185 0b01 1A       		.byte	26
 3186 0b02 1A       		.byte	26
 3187 0b03 19       		.byte	25
 3188 0b04 19       		.byte	25
 3189 0b05 19       		.byte	25
 3190 0b06 19       		.byte	25
 3191 0b07 19       		.byte	25
 3192 0b08 19       		.byte	25
 3193 0b09 19       		.byte	25
 3194 0b0a 19       		.byte	25
 3195 0b0b 19       		.byte	25
 3196 0b0c 19       		.byte	25
 3197 0b0d 19       		.byte	25
 3198 0b0e 19       		.byte	25
 3199 0b0f 19       		.byte	25
 3200 0b10 19       		.byte	25
 3201 0b11 19       		.byte	25
 3202 0b12 19       		.byte	25
 3203 0b13 19       		.byte	25
 3204 0b14 19       		.byte	25
 3205 0b15 19       		.byte	25
 3206 0b16 19       		.byte	25
 3207 0b17 19       		.byte	25
 3208 0b18 19       		.byte	25
 3209 0b19 18       		.byte	24
 3210 0b1a 18       		.byte	24
 3211 0b1b 18       		.byte	24
 3212 0b1c 18       		.byte	24
 3213 0b1d 18       		.byte	24
 3214 0b1e 18       		.byte	24
 3215 0b1f 18       		.byte	24
 3216 0b20 18       		.byte	24
 3217 0b21 18       		.byte	24
 3218 0b22 18       		.byte	24
 3219 0b23 18       		.byte	24
 3220 0b24 18       		.byte	24
 3221 0b25 18       		.byte	24
 3222 0b26 18       		.byte	24
 3223 0b27 18       		.byte	24
 3224 0b28 18       		.byte	24
 3225 0b29 18       		.byte	24
ARM GAS  C:\Users\JOSEAN~1\AppData\Local\Temp\ccgojhjw.s 			page 63


 3226 0b2a 18       		.byte	24
 3227 0b2b 18       		.byte	24
 3228 0b2c 18       		.byte	24
 3229 0b2d 18       		.byte	24
 3230 0b2e 18       		.byte	24
 3231 0b2f 18       		.byte	24
 3232 0b30 18       		.byte	24
 3233 0b31 17       		.byte	23
 3234 0b32 17       		.byte	23
 3235 0b33 17       		.byte	23
 3236 0b34 17       		.byte	23
 3237 0b35 17       		.byte	23
 3238 0b36 17       		.byte	23
 3239 0b37 17       		.byte	23
 3240 0b38 17       		.byte	23
 3241 0b39 17       		.byte	23
 3242 0b3a 17       		.byte	23
 3243 0b3b 17       		.byte	23
 3244 0b3c 17       		.byte	23
 3245 0b3d 17       		.byte	23
 3246 0b3e 17       		.byte	23
 3247 0b3f 17       		.byte	23
 3248 0b40 17       		.byte	23
 3249 0b41 17       		.byte	23
 3250 0b42 17       		.byte	23
 3251 0b43 17       		.byte	23
 3252 0b44 17       		.byte	23
 3253 0b45 17       		.byte	23
 3254 0b46 17       		.byte	23
 3255 0b47 17       		.byte	23
 3256 0b48 17       		.byte	23
 3257 0b49 17       		.byte	23
 3258 0b4a 17       		.byte	23
 3259 0b4b 17       		.byte	23
 3260 0b4c 17       		.byte	23
 3261 0b4d 17       		.byte	23
 3262 0b4e 17       		.byte	23
 3263 0b4f 17       		.byte	23
 3264 0b50 16       		.byte	22
 3265 0b51 16       		.byte	22
 3266 0b52 16       		.byte	22
 3267 0b53 16       		.byte	22
 3268 0b54 16       		.byte	22
 3269 0b55 16       		.byte	22
 3270 0b56 16       		.byte	22
 3271 0b57 16       		.byte	22
 3272 0b58 16       		.byte	22
 3273 0b59 16       		.byte	22
 3274 0b5a 16       		.byte	22
 3275 0b5b 16       		.byte	22
 3276 0b5c 16       		.byte	22
 3277 0b5d 16       		.byte	22
 3278 0b5e 16       		.byte	22
 3279 0b5f 16       		.byte	22
 3280 0b60 16       		.byte	22
 3281 0b61 16       		.byte	22
 3282 0b62 16       		.byte	22
ARM GAS  C:\Users\JOSEAN~1\AppData\Local\Temp\ccgojhjw.s 			page 64


 3283 0b63 16       		.byte	22
 3284 0b64 16       		.byte	22
 3285 0b65 16       		.byte	22
 3286 0b66 16       		.byte	22
 3287 0b67 16       		.byte	22
 3288 0b68 16       		.byte	22
 3289 0b69 16       		.byte	22
 3290 0b6a 16       		.byte	22
 3291 0b6b 16       		.byte	22
 3292 0b6c 16       		.byte	22
 3293 0b6d 16       		.byte	22
 3294 0b6e 16       		.byte	22
 3295 0b6f 16       		.byte	22
 3296 0b70 16       		.byte	22
 3297 0b71 16       		.byte	22
 3298 0b72 16       		.byte	22
 3299 0b73 16       		.byte	22
 3300 0b74 16       		.byte	22
 3301 0b75 16       		.byte	22
 3302 0b76 16       		.byte	22
 3303 0b77 16       		.byte	22
 3304 0b78 16       		.byte	22
 3305 0b79 16       		.byte	22
 3306 0b7a 16       		.byte	22
 3307 0b7b 16       		.byte	22
 3308 0b7c 15       		.byte	21
 3309 0b7d 15       		.byte	21
 3310 0b7e 15       		.byte	21
 3311 0b7f 15       		.byte	21
 3312 0b80 15       		.byte	21
 3313 0b81 15       		.byte	21
 3314 0b82 15       		.byte	21
 3315 0b83 15       		.byte	21
 3316 0b84 15       		.byte	21
 3317 0b85 15       		.byte	21
 3318 0b86 15       		.byte	21
 3319 0b87 15       		.byte	21
 3320 0b88 15       		.byte	21
 3321 0b89 15       		.byte	21
 3322 0b8a 15       		.byte	21
 3323 0b8b 15       		.byte	21
 3324 0b8c 15       		.byte	21
 3325 0b8d 15       		.byte	21
 3326 0b8e 15       		.byte	21
 3327 0b8f 15       		.byte	21
 3328 0b90 15       		.byte	21
 3329 0b91 15       		.byte	21
 3330 0b92 15       		.byte	21
 3331 0b93 15       		.byte	21
 3332 0b94 15       		.byte	21
 3333 0b95 15       		.byte	21
 3334 0b96 15       		.byte	21
 3335 0b97 15       		.byte	21
 3336 0b98 15       		.byte	21
 3337 0b99 15       		.byte	21
 3338 0b9a 15       		.byte	21
 3339 0b9b 15       		.byte	21
ARM GAS  C:\Users\JOSEAN~1\AppData\Local\Temp\ccgojhjw.s 			page 65


 3340 0b9c 15       		.byte	21
 3341 0b9d 15       		.byte	21
 3342 0b9e 15       		.byte	21
 3343 0b9f 15       		.byte	21
 3344 0ba0 15       		.byte	21
 3345 0ba1 15       		.byte	21
 3346 0ba2 15       		.byte	21
 3347 0ba3 15       		.byte	21
 3348 0ba4 15       		.byte	21
 3349 0ba5 15       		.byte	21
 3350 0ba6 15       		.byte	21
 3351 0ba7 15       		.byte	21
 3352 0ba8 15       		.byte	21
 3353 0ba9 15       		.byte	21
 3354 0baa 15       		.byte	21
 3355 0bab 15       		.byte	21
 3356 0bac 15       		.byte	21
 3357 0bad 15       		.byte	21
 3358 0bae 15       		.byte	21
 3359 0baf 15       		.byte	21
 3360 0bb0 15       		.byte	21
 3361 0bb1 15       		.byte	21
 3362 0bb2 15       		.byte	21
 3363 0bb3 15       		.byte	21
 3364 0bb4 15       		.byte	21
 3365 0bb5 15       		.byte	21
 3366 0bb6 15       		.byte	21
 3367 0bb7 15       		.byte	21
 3368 0bb8 15       		.byte	21
 3369 0bb9 15       		.byte	21
 3370 0bba 15       		.byte	21
 3371 0bbb 15       		.byte	21
 3372 0bbc 15       		.byte	21
 3373 0bbd 15       		.byte	21
 3374 0bbe 15       		.byte	21
 3375 0bbf 15       		.byte	21
 3376 0bc0 15       		.byte	21
 3377 0bc1 15       		.byte	21
 3378 0bc2 15       		.byte	21
 3379 0bc3 15       		.byte	21
 3380 0bc4 15       		.byte	21
 3381 0bc5 15       		.byte	21
 3382 0bc6 15       		.byte	21
 3383 0bc7 15       		.byte	21
 3384 0bc8 15       		.byte	21
 3385 0bc9 15       		.byte	21
 3386 0bca 15       		.byte	21
 3387 0bcb 15       		.byte	21
 3388 0bcc 15       		.byte	21
 3389 0bcd 15       		.byte	21
 3390 0bce 15       		.byte	21
 3391 0bcf 15       		.byte	21
 3392 0bd0 15       		.byte	21
 3393 0bd1 15       		.byte	21
 3394 0bd2 15       		.byte	21
 3395 0bd3 15       		.byte	21
 3396 0bd4 15       		.byte	21
ARM GAS  C:\Users\JOSEAN~1\AppData\Local\Temp\ccgojhjw.s 			page 66


 3397 0bd5 15       		.byte	21
 3398 0bd6 15       		.byte	21
 3399 0bd7 15       		.byte	21
 3400 0bd8 15       		.byte	21
 3401 0bd9 15       		.byte	21
 3402 0bda 15       		.byte	21
 3403 0bdb 15       		.byte	21
 3404 0bdc 15       		.byte	21
 3405 0bdd 15       		.byte	21
 3406 0bde 15       		.byte	21
 3407 0bdf 15       		.byte	21
 3408 0be0 15       		.byte	21
 3409 0be1 15       		.byte	21
 3410 0be2 15       		.byte	21
 3411 0be3 15       		.byte	21
 3412 0be4 15       		.byte	21
 3413 0be5 15       		.byte	21
 3414 0be6 15       		.byte	21
 3415 0be7 15       		.byte	21
 3416 0be8 15       		.byte	21
 3417 0be9 15       		.byte	21
 3418 0bea 15       		.byte	21
 3419 0beb 15       		.byte	21
 3420 0bec 15       		.byte	21
 3421 0bed 15       		.byte	21
 3422 0bee 15       		.byte	21
 3423 0bef 15       		.byte	21
 3424 0bf0 15       		.byte	21
 3425 0bf1 15       		.byte	21
 3426 0bf2 15       		.byte	21
 3427 0bf3 15       		.byte	21
 3428 0bf4 15       		.byte	21
 3429 0bf5 16       		.byte	22
 3430 0bf6 16       		.byte	22
 3431 0bf7 16       		.byte	22
 3432 0bf8 16       		.byte	22
 3433 0bf9 16       		.byte	22
 3434 0bfa 16       		.byte	22
 3435 0bfb 16       		.byte	22
 3436 0bfc 16       		.byte	22
 3437 0bfd 16       		.byte	22
 3438 0bfe 16       		.byte	22
 3439 0bff 16       		.byte	22
 3440 0c00 16       		.byte	22
 3441 0c01 16       		.byte	22
 3442 0c02 16       		.byte	22
 3443 0c03 16       		.byte	22
 3444 0c04 16       		.byte	22
 3445 0c05 16       		.byte	22
 3446 0c06 16       		.byte	22
 3447 0c07 16       		.byte	22
 3448 0c08 16       		.byte	22
 3449 0c09 16       		.byte	22
 3450 0c0a 16       		.byte	22
 3451 0c0b 16       		.byte	22
 3452 0c0c 16       		.byte	22
 3453 0c0d 16       		.byte	22
ARM GAS  C:\Users\JOSEAN~1\AppData\Local\Temp\ccgojhjw.s 			page 67


 3454 0c0e 16       		.byte	22
 3455 0c0f 16       		.byte	22
 3456 0c10 16       		.byte	22
 3457 0c11 16       		.byte	22
 3458 0c12 16       		.byte	22
 3459 0c13 16       		.byte	22
 3460 0c14 16       		.byte	22
 3461 0c15 16       		.byte	22
 3462 0c16 16       		.byte	22
 3463 0c17 16       		.byte	22
 3464 0c18 16       		.byte	22
 3465 0c19 16       		.byte	22
 3466 0c1a 16       		.byte	22
 3467 0c1b 16       		.byte	22
 3468 0c1c 16       		.byte	22
 3469 0c1d 16       		.byte	22
 3470 0c1e 16       		.byte	22
 3471 0c1f 16       		.byte	22
 3472 0c20 16       		.byte	22
 3473 0c21 17       		.byte	23
 3474 0c22 17       		.byte	23
 3475 0c23 17       		.byte	23
 3476 0c24 17       		.byte	23
 3477 0c25 17       		.byte	23
 3478 0c26 17       		.byte	23
 3479 0c27 17       		.byte	23
 3480 0c28 17       		.byte	23
 3481 0c29 17       		.byte	23
 3482 0c2a 17       		.byte	23
 3483 0c2b 17       		.byte	23
 3484 0c2c 17       		.byte	23
 3485 0c2d 17       		.byte	23
 3486 0c2e 17       		.byte	23
 3487 0c2f 17       		.byte	23
 3488 0c30 17       		.byte	23
 3489 0c31 17       		.byte	23
 3490 0c32 17       		.byte	23
 3491 0c33 17       		.byte	23
 3492 0c34 17       		.byte	23
 3493 0c35 17       		.byte	23
 3494 0c36 17       		.byte	23
 3495 0c37 17       		.byte	23
 3496 0c38 17       		.byte	23
 3497 0c39 17       		.byte	23
 3498 0c3a 17       		.byte	23
 3499 0c3b 17       		.byte	23
 3500 0c3c 17       		.byte	23
 3501 0c3d 17       		.byte	23
 3502 0c3e 17       		.byte	23
 3503 0c3f 17       		.byte	23
 3504 0c40 18       		.byte	24
 3505 0c41 18       		.byte	24
 3506 0c42 18       		.byte	24
 3507 0c43 18       		.byte	24
 3508 0c44 18       		.byte	24
 3509 0c45 18       		.byte	24
 3510 0c46 18       		.byte	24
ARM GAS  C:\Users\JOSEAN~1\AppData\Local\Temp\ccgojhjw.s 			page 68


 3511 0c47 18       		.byte	24
 3512 0c48 18       		.byte	24
 3513 0c49 18       		.byte	24
 3514 0c4a 18       		.byte	24
 3515 0c4b 18       		.byte	24
 3516 0c4c 18       		.byte	24
 3517 0c4d 18       		.byte	24
 3518 0c4e 18       		.byte	24
 3519 0c4f 18       		.byte	24
 3520 0c50 18       		.byte	24
 3521 0c51 18       		.byte	24
 3522 0c52 18       		.byte	24
 3523 0c53 18       		.byte	24
 3524 0c54 18       		.byte	24
 3525 0c55 18       		.byte	24
 3526 0c56 18       		.byte	24
 3527 0c57 18       		.byte	24
 3528 0c58 19       		.byte	25
 3529 0c59 19       		.byte	25
 3530 0c5a 19       		.byte	25
 3531 0c5b 19       		.byte	25
 3532 0c5c 19       		.byte	25
 3533 0c5d 19       		.byte	25
 3534 0c5e 19       		.byte	25
 3535 0c5f 19       		.byte	25
 3536 0c60 19       		.byte	25
 3537 0c61 19       		.byte	25
 3538 0c62 19       		.byte	25
 3539 0c63 19       		.byte	25
 3540 0c64 19       		.byte	25
 3541 0c65 19       		.byte	25
 3542 0c66 19       		.byte	25
 3543 0c67 19       		.byte	25
 3544 0c68 19       		.byte	25
 3545 0c69 19       		.byte	25
 3546 0c6a 19       		.byte	25
 3547 0c6b 19       		.byte	25
 3548 0c6c 19       		.byte	25
 3549 0c6d 19       		.byte	25
 3550 0c6e 1A       		.byte	26
 3551 0c6f 1A       		.byte	26
 3552 0c70 1A       		.byte	26
 3553 0c71 1A       		.byte	26
 3554 0c72 1A       		.byte	26
 3555 0c73 1A       		.byte	26
 3556 0c74 1A       		.byte	26
 3557 0c75 1A       		.byte	26
 3558 0c76 1A       		.byte	26
 3559 0c77 1A       		.byte	26
 3560 0c78 1A       		.byte	26
 3561 0c79 1A       		.byte	26
 3562 0c7a 1A       		.byte	26
 3563 0c7b 1A       		.byte	26
 3564 0c7c 1A       		.byte	26
 3565 0c7d 1A       		.byte	26
 3566 0c7e 1A       		.byte	26
 3567 0c7f 1A       		.byte	26
ARM GAS  C:\Users\JOSEAN~1\AppData\Local\Temp\ccgojhjw.s 			page 69


 3568 0c80 1A       		.byte	26
 3569 0c81 1B       		.byte	27
 3570 0c82 1B       		.byte	27
 3571 0c83 1B       		.byte	27
 3572 0c84 1B       		.byte	27
 3573 0c85 1B       		.byte	27
 3574 0c86 1B       		.byte	27
 3575 0c87 1B       		.byte	27
 3576 0c88 1B       		.byte	27
 3577 0c89 1B       		.byte	27
 3578 0c8a 1B       		.byte	27
 3579 0c8b 1B       		.byte	27
 3580 0c8c 1B       		.byte	27
 3581 0c8d 1B       		.byte	27
 3582 0c8e 1B       		.byte	27
 3583 0c8f 1B       		.byte	27
 3584 0c90 1B       		.byte	27
 3585 0c91 1B       		.byte	27
 3586 0c92 1B       		.byte	27
 3587 0c93 1C       		.byte	28
 3588 0c94 1C       		.byte	28
 3589 0c95 1C       		.byte	28
 3590 0c96 1C       		.byte	28
 3591 0c97 1C       		.byte	28
 3592 0c98 1C       		.byte	28
 3593 0c99 1C       		.byte	28
 3594 0c9a 1C       		.byte	28
 3595 0c9b 1C       		.byte	28
 3596 0c9c 1C       		.byte	28
 3597 0c9d 1C       		.byte	28
 3598 0c9e 1C       		.byte	28
 3599 0c9f 1C       		.byte	28
 3600 0ca0 1C       		.byte	28
 3601 0ca1 1C       		.byte	28
 3602 0ca2 1C       		.byte	28
 3603 0ca3 1D       		.byte	29
 3604 0ca4 1D       		.byte	29
 3605 0ca5 1D       		.byte	29
 3606 0ca6 1D       		.byte	29
 3607 0ca7 1D       		.byte	29
 3608 0ca8 1D       		.byte	29
 3609 0ca9 1D       		.byte	29
 3610 0caa 1D       		.byte	29
 3611 0cab 1D       		.byte	29
 3612 0cac 1D       		.byte	29
 3613 0cad 1D       		.byte	29
 3614 0cae 1D       		.byte	29
 3615 0caf 1D       		.byte	29
 3616 0cb0 1D       		.byte	29
 3617 0cb1 1D       		.byte	29
 3618 0cb2 1D       		.byte	29
 3619 0cb3 1E       		.byte	30
 3620 0cb4 1E       		.byte	30
 3621 0cb5 1E       		.byte	30
 3622 0cb6 1E       		.byte	30
 3623 0cb7 1E       		.byte	30
 3624 0cb8 1E       		.byte	30
ARM GAS  C:\Users\JOSEAN~1\AppData\Local\Temp\ccgojhjw.s 			page 70


 3625 0cb9 1E       		.byte	30
 3626 0cba 1E       		.byte	30
 3627 0cbb 1E       		.byte	30
 3628 0cbc 1E       		.byte	30
 3629 0cbd 1E       		.byte	30
 3630 0cbe 1E       		.byte	30
 3631 0cbf 1E       		.byte	30
 3632 0cc0 1E       		.byte	30
 3633 0cc1 1F       		.byte	31
 3634 0cc2 1F       		.byte	31
 3635 0cc3 1F       		.byte	31
 3636 0cc4 1F       		.byte	31
 3637 0cc5 1F       		.byte	31
 3638 0cc6 1F       		.byte	31
 3639 0cc7 1F       		.byte	31
 3640 0cc8 1F       		.byte	31
 3641 0cc9 1F       		.byte	31
 3642 0cca 1F       		.byte	31
 3643 0ccb 1F       		.byte	31
 3644 0ccc 1F       		.byte	31
 3645 0ccd 1F       		.byte	31
 3646 0cce 1F       		.byte	31
 3647 0ccf 20       		.byte	32
 3648 0cd0 20       		.byte	32
 3649 0cd1 20       		.byte	32
 3650 0cd2 20       		.byte	32
 3651 0cd3 20       		.byte	32
 3652 0cd4 20       		.byte	32
 3653 0cd5 20       		.byte	32
 3654 0cd6 20       		.byte	32
 3655 0cd7 20       		.byte	32
 3656 0cd8 20       		.byte	32
 3657 0cd9 20       		.byte	32
 3658 0cda 20       		.byte	32
 3659 0cdb 20       		.byte	32
 3660 0cdc 21       		.byte	33
 3661 0cdd 21       		.byte	33
 3662 0cde 21       		.byte	33
 3663 0cdf 21       		.byte	33
 3664 0ce0 21       		.byte	33
 3665 0ce1 21       		.byte	33
 3666 0ce2 21       		.byte	33
 3667 0ce3 21       		.byte	33
 3668 0ce4 21       		.byte	33
 3669 0ce5 21       		.byte	33
 3670 0ce6 21       		.byte	33
 3671 0ce7 21       		.byte	33
 3672 0ce8 21       		.byte	33
 3673 0ce9 22       		.byte	34
 3674 0cea 22       		.byte	34
 3675 0ceb 22       		.byte	34
 3676 0cec 22       		.byte	34
 3677 0ced 22       		.byte	34
 3678 0cee 22       		.byte	34
 3679 0cef 22       		.byte	34
 3680 0cf0 22       		.byte	34
 3681 0cf1 22       		.byte	34
ARM GAS  C:\Users\JOSEAN~1\AppData\Local\Temp\ccgojhjw.s 			page 71


 3682 0cf2 22       		.byte	34
 3683 0cf3 22       		.byte	34
 3684 0cf4 22       		.byte	34
 3685 0cf5 23       		.byte	35
 3686 0cf6 23       		.byte	35
 3687 0cf7 23       		.byte	35
 3688 0cf8 23       		.byte	35
 3689 0cf9 23       		.byte	35
 3690 0cfa 23       		.byte	35
 3691 0cfb 23       		.byte	35
 3692 0cfc 23       		.byte	35
 3693 0cfd 23       		.byte	35
 3694 0cfe 23       		.byte	35
 3695 0cff 23       		.byte	35
 3696 0d00 23       		.byte	35
 3697 0d01 24       		.byte	36
 3698 0d02 24       		.byte	36
 3699 0d03 24       		.byte	36
 3700 0d04 24       		.byte	36
 3701 0d05 24       		.byte	36
 3702 0d06 24       		.byte	36
 3703 0d07 24       		.byte	36
 3704 0d08 24       		.byte	36
 3705 0d09 24       		.byte	36
 3706 0d0a 24       		.byte	36
 3707 0d0b 24       		.byte	36
 3708 0d0c 25       		.byte	37
 3709 0d0d 25       		.byte	37
 3710 0d0e 25       		.byte	37
 3711 0d0f 25       		.byte	37
 3712 0d10 25       		.byte	37
 3713 0d11 25       		.byte	37
 3714 0d12 25       		.byte	37
 3715 0d13 25       		.byte	37
 3716 0d14 25       		.byte	37
 3717 0d15 25       		.byte	37
 3718 0d16 25       		.byte	37
 3719 0d17 26       		.byte	38
 3720 0d18 26       		.byte	38
 3721 0d19 26       		.byte	38
 3722 0d1a 26       		.byte	38
 3723 0d1b 26       		.byte	38
 3724 0d1c 26       		.byte	38
 3725 0d1d 26       		.byte	38
 3726 0d1e 26       		.byte	38
 3727 0d1f 26       		.byte	38
 3728 0d20 26       		.byte	38
 3729 0d21 26       		.byte	38
 3730 0d22 27       		.byte	39
 3731 0d23 27       		.byte	39
 3732 0d24 27       		.byte	39
 3733 0d25 27       		.byte	39
 3734 0d26 27       		.byte	39
 3735 0d27 27       		.byte	39
 3736 0d28 27       		.byte	39
 3737 0d29 27       		.byte	39
 3738 0d2a 27       		.byte	39
ARM GAS  C:\Users\JOSEAN~1\AppData\Local\Temp\ccgojhjw.s 			page 72


 3739 0d2b 27       		.byte	39
 3740 0d2c 28       		.byte	40
 3741 0d2d 28       		.byte	40
 3742 0d2e 28       		.byte	40
 3743 0d2f 28       		.byte	40
 3744 0d30 28       		.byte	40
 3745 0d31 28       		.byte	40
 3746 0d32 28       		.byte	40
 3747 0d33 28       		.byte	40
 3748 0d34 28       		.byte	40
 3749 0d35 28       		.byte	40
 3750 0d36 28       		.byte	40
 3751 0d37 29       		.byte	41
 3752 0d38 29       		.byte	41
 3753 0d39 29       		.byte	41
 3754 0d3a 29       		.byte	41
 3755 0d3b 29       		.byte	41
 3756 0d3c 29       		.byte	41
 3757 0d3d 29       		.byte	41
 3758 0d3e 29       		.byte	41
 3759 0d3f 29       		.byte	41
 3760 0d40 29       		.byte	41
 3761 0d41 2A       		.byte	42
 3762 0d42 2A       		.byte	42
 3763 0d43 2A       		.byte	42
 3764 0d44 2A       		.byte	42
 3765 0d45 2A       		.byte	42
 3766 0d46 2A       		.byte	42
 3767 0d47 2A       		.byte	42
 3768 0d48 2A       		.byte	42
 3769 0d49 2A       		.byte	42
 3770 0d4a 2B       		.byte	43
 3771 0d4b 2B       		.byte	43
 3772 0d4c 2B       		.byte	43
 3773 0d4d 2B       		.byte	43
 3774 0d4e 2B       		.byte	43
 3775 0d4f 2B       		.byte	43
 3776 0d50 2B       		.byte	43
 3777 0d51 2B       		.byte	43
 3778 0d52 2B       		.byte	43
 3779 0d53 2B       		.byte	43
 3780 0d54 2C       		.byte	44
 3781 0d55 2C       		.byte	44
 3782 0d56 2C       		.byte	44
 3783 0d57 2C       		.byte	44
 3784 0d58 2C       		.byte	44
 3785 0d59 2C       		.byte	44
 3786 0d5a 2C       		.byte	44
 3787 0d5b 2C       		.byte	44
 3788 0d5c 2C       		.byte	44
 3789 0d5d 2D       		.byte	45
 3790 0d5e 2D       		.byte	45
 3791 0d5f 2D       		.byte	45
 3792 0d60 2D       		.byte	45
 3793 0d61 2D       		.byte	45
 3794 0d62 2D       		.byte	45
 3795 0d63 2D       		.byte	45
ARM GAS  C:\Users\JOSEAN~1\AppData\Local\Temp\ccgojhjw.s 			page 73


 3796 0d64 2D       		.byte	45
 3797 0d65 2D       		.byte	45
 3798 0d66 2D       		.byte	45
 3799 0d67 2E       		.byte	46
 3800 0d68 2E       		.byte	46
 3801 0d69 2E       		.byte	46
 3802 0d6a 2E       		.byte	46
 3803 0d6b 2E       		.byte	46
 3804 0d6c 2E       		.byte	46
 3805 0d6d 2E       		.byte	46
 3806 0d6e 2E       		.byte	46
 3807 0d6f 2E       		.byte	46
 3808 0d70 2F       		.byte	47
 3809 0d71 2F       		.byte	47
 3810 0d72 2F       		.byte	47
 3811 0d73 2F       		.byte	47
 3812 0d74 2F       		.byte	47
 3813 0d75 2F       		.byte	47
 3814 0d76 2F       		.byte	47
 3815 0d77 2F       		.byte	47
 3816 0d78 2F       		.byte	47
 3817 0d79 30       		.byte	48
 3818 0d7a 30       		.byte	48
 3819 0d7b 30       		.byte	48
 3820 0d7c 30       		.byte	48
 3821 0d7d 30       		.byte	48
 3822 0d7e 30       		.byte	48
 3823 0d7f 30       		.byte	48
 3824 0d80 30       		.byte	48
 3825 0d81 31       		.byte	49
 3826 0d82 31       		.byte	49
 3827 0d83 31       		.byte	49
 3828 0d84 31       		.byte	49
 3829 0d85 31       		.byte	49
 3830 0d86 31       		.byte	49
 3831 0d87 31       		.byte	49
 3832 0d88 31       		.byte	49
 3833 0d89 31       		.byte	49
 3834 0d8a 32       		.byte	50
 3835 0d8b 32       		.byte	50
 3836 0d8c 32       		.byte	50
 3837 0d8d 32       		.byte	50
 3838 0d8e 32       		.byte	50
 3839 0d8f 32       		.byte	50
 3840 0d90 32       		.byte	50
 3841 0d91 32       		.byte	50
 3842 0d92 33       		.byte	51
 3843 0d93 33       		.byte	51
 3844 0d94 33       		.byte	51
 3845 0d95 33       		.byte	51
 3846 0d96 33       		.byte	51
 3847 0d97 33       		.byte	51
 3848 0d98 33       		.byte	51
 3849 0d99 33       		.byte	51
 3850 0d9a 33       		.byte	51
 3851 0d9b 34       		.byte	52
 3852 0d9c 34       		.byte	52
ARM GAS  C:\Users\JOSEAN~1\AppData\Local\Temp\ccgojhjw.s 			page 74


 3853 0d9d 34       		.byte	52
 3854 0d9e 34       		.byte	52
 3855 0d9f 34       		.byte	52
 3856 0da0 34       		.byte	52
 3857 0da1 34       		.byte	52
 3858 0da2 34       		.byte	52
 3859 0da3 35       		.byte	53
 3860 0da4 35       		.byte	53
 3861 0da5 35       		.byte	53
 3862 0da6 35       		.byte	53
 3863 0da7 35       		.byte	53
 3864 0da8 35       		.byte	53
 3865 0da9 35       		.byte	53
 3866 0daa 35       		.byte	53
 3867 0dab 36       		.byte	54
 3868 0dac 36       		.byte	54
 3869 0dad 36       		.byte	54
 3870 0dae 36       		.byte	54
 3871 0daf 36       		.byte	54
 3872 0db0 36       		.byte	54
 3873 0db1 36       		.byte	54
 3874 0db2 36       		.byte	54
 3875 0db3 37       		.byte	55
 3876 0db4 37       		.byte	55
 3877 0db5 37       		.byte	55
 3878 0db6 37       		.byte	55
 3879 0db7 37       		.byte	55
 3880 0db8 37       		.byte	55
 3881 0db9 37       		.byte	55
 3882 0dba 37       		.byte	55
 3883 0dbb 38       		.byte	56
 3884 0dbc 38       		.byte	56
 3885 0dbd 38       		.byte	56
 3886 0dbe 38       		.byte	56
 3887 0dbf 38       		.byte	56
 3888 0dc0 38       		.byte	56
 3889 0dc1 38       		.byte	56
 3890 0dc2 38       		.byte	56
 3891 0dc3 39       		.byte	57
 3892 0dc4 39       		.byte	57
 3893 0dc5 39       		.byte	57
 3894 0dc6 39       		.byte	57
 3895 0dc7 39       		.byte	57
 3896 0dc8 39       		.byte	57
 3897 0dc9 39       		.byte	57
 3898 0dca 39       		.byte	57
 3899 0dcb 3A       		.byte	58
 3900 0dcc 3A       		.byte	58
 3901 0dcd 3A       		.byte	58
 3902 0dce 3A       		.byte	58
 3903 0dcf 3A       		.byte	58
 3904 0dd0 3A       		.byte	58
 3905 0dd1 3A       		.byte	58
 3906 0dd2 3B       		.byte	59
 3907 0dd3 3B       		.byte	59
 3908 0dd4 3B       		.byte	59
 3909 0dd5 3B       		.byte	59
ARM GAS  C:\Users\JOSEAN~1\AppData\Local\Temp\ccgojhjw.s 			page 75


 3910 0dd6 3B       		.byte	59
 3911 0dd7 3B       		.byte	59
 3912 0dd8 3B       		.byte	59
 3913 0dd9 3B       		.byte	59
 3914 0dda 3C       		.byte	60
 3915 0ddb 3C       		.byte	60
 3916 0ddc 3C       		.byte	60
 3917 0ddd 3C       		.byte	60
 3918 0dde 3C       		.byte	60
 3919 0ddf 3C       		.byte	60
 3920 0de0 3C       		.byte	60
 3921 0de1 3C       		.byte	60
 3922 0de2 3D       		.byte	61
 3923 0de3 3D       		.byte	61
 3924 0de4 3D       		.byte	61
 3925 0de5 3D       		.byte	61
 3926 0de6 3D       		.byte	61
 3927 0de7 3D       		.byte	61
 3928 0de8 3D       		.byte	61
 3929 0de9 3E       		.byte	62
 3930 0dea 3E       		.byte	62
 3931 0deb 3E       		.byte	62
 3932 0dec 3E       		.byte	62
 3933 0ded 3E       		.byte	62
 3934 0dee 3E       		.byte	62
 3935 0def 3E       		.byte	62
 3936 0df0 3F       		.byte	63
 3937 0df1 3F       		.byte	63
 3938 0df2 3F       		.byte	63
 3939 0df3 3F       		.byte	63
 3940 0df4 3F       		.byte	63
 3941 0df5 3F       		.byte	63
 3942 0df6 3F       		.byte	63
 3943 0df7 3F       		.byte	63
 3944 0df8 40       		.byte	64
 3945 0df9 40       		.byte	64
 3946 0dfa 40       		.byte	64
 3947 0dfb 40       		.byte	64
 3948 0dfc 40       		.byte	64
 3949 0dfd 40       		.byte	64
 3950 0dfe 40       		.byte	64
 3951 0dff 41       		.byte	65
 3952 0e00 41       		.byte	65
 3953 0e01 41       		.byte	65
 3954 0e02 41       		.byte	65
 3955 0e03 41       		.byte	65
 3956 0e04 41       		.byte	65
 3957 0e05 41       		.byte	65
 3958 0e06 42       		.byte	66
 3959 0e07 42       		.byte	66
 3960 0e08 42       		.byte	66
 3961 0e09 42       		.byte	66
 3962 0e0a 42       		.byte	66
 3963 0e0b 42       		.byte	66
 3964 0e0c 42       		.byte	66
 3965 0e0d 43       		.byte	67
 3966 0e0e 43       		.byte	67
ARM GAS  C:\Users\JOSEAN~1\AppData\Local\Temp\ccgojhjw.s 			page 76


 3967 0e0f 43       		.byte	67
 3968 0e10 43       		.byte	67
 3969 0e11 43       		.byte	67
 3970 0e12 43       		.byte	67
 3971 0e13 43       		.byte	67
 3972 0e14 44       		.byte	68
 3973 0e15 44       		.byte	68
 3974 0e16 44       		.byte	68
 3975 0e17 44       		.byte	68
 3976 0e18 44       		.byte	68
 3977 0e19 44       		.byte	68
 3978 0e1a 44       		.byte	68
 3979 0e1b 45       		.byte	69
 3980 0e1c 45       		.byte	69
 3981 0e1d 45       		.byte	69
 3982 0e1e 45       		.byte	69
 3983 0e1f 45       		.byte	69
 3984 0e20 45       		.byte	69
 3985 0e21 45       		.byte	69
 3986 0e22 46       		.byte	70
 3987 0e23 46       		.byte	70
 3988 0e24 46       		.byte	70
 3989 0e25 46       		.byte	70
 3990 0e26 46       		.byte	70
 3991 0e27 46       		.byte	70
 3992 0e28 46       		.byte	70
 3993 0e29 47       		.byte	71
 3994 0e2a 47       		.byte	71
 3995 0e2b 47       		.byte	71
 3996 0e2c 47       		.byte	71
 3997 0e2d 47       		.byte	71
 3998 0e2e 47       		.byte	71
 3999 0e2f 47       		.byte	71
 4000 0e30 48       		.byte	72
 4001 0e31 48       		.byte	72
 4002 0e32 48       		.byte	72
 4003 0e33 48       		.byte	72
 4004 0e34 48       		.byte	72
 4005 0e35 48       		.byte	72
 4006 0e36 48       		.byte	72
 4007 0e37 49       		.byte	73
 4008 0e38 49       		.byte	73
 4009 0e39 49       		.byte	73
 4010 0e3a 49       		.byte	73
 4011 0e3b 49       		.byte	73
 4012 0e3c 49       		.byte	73
 4013 0e3d 49       		.byte	73
 4014 0e3e 4A       		.byte	74
 4015 0e3f 4A       		.byte	74
 4016 0e40 4A       		.byte	74
 4017 0e41 4A       		.byte	74
 4018 0e42 4A       		.byte	74
 4019 0e43 4A       		.byte	74
 4020 0e44 4B       		.byte	75
 4021 0e45 4B       		.byte	75
 4022 0e46 4B       		.byte	75
 4023 0e47 4B       		.byte	75
ARM GAS  C:\Users\JOSEAN~1\AppData\Local\Temp\ccgojhjw.s 			page 77


 4024 0e48 4B       		.byte	75
 4025 0e49 4B       		.byte	75
 4026 0e4a 4B       		.byte	75
 4027 0e4b 4C       		.byte	76
 4028 0e4c 4C       		.byte	76
 4029 0e4d 4C       		.byte	76
 4030 0e4e 4C       		.byte	76
 4031 0e4f 4C       		.byte	76
 4032 0e50 4C       		.byte	76
 4033 0e51 4C       		.byte	76
 4034 0e52 4D       		.byte	77
 4035 0e53 4D       		.byte	77
 4036 0e54 4D       		.byte	77
 4037 0e55 4D       		.byte	77
 4038 0e56 4D       		.byte	77
 4039 0e57 4D       		.byte	77
 4040 0e58 4E       		.byte	78
 4041 0e59 4E       		.byte	78
 4042 0e5a 4E       		.byte	78
 4043 0e5b 4E       		.byte	78
 4044 0e5c 4E       		.byte	78
 4045 0e5d 4E       		.byte	78
 4046 0e5e 4E       		.byte	78
 4047 0e5f 4F       		.byte	79
 4048 0e60 4F       		.byte	79
 4049 0e61 4F       		.byte	79
 4050 0e62 4F       		.byte	79
 4051 0e63 4F       		.byte	79
 4052 0e64 4F       		.byte	79
 4053 0e65 50       		.byte	80
 4054 0e66 50       		.byte	80
 4055 0e67 50       		.byte	80
 4056 0e68 50       		.byte	80
 4057 0e69 50       		.byte	80
 4058 0e6a 50       		.byte	80
 4059 0e6b 50       		.byte	80
 4060 0e6c 51       		.byte	81
 4061 0e6d 51       		.byte	81
 4062 0e6e 51       		.byte	81
 4063 0e6f 51       		.byte	81
 4064 0e70 51       		.byte	81
 4065 0e71 51       		.byte	81
 4066 0e72 52       		.byte	82
 4067 0e73 52       		.byte	82
 4068 0e74 52       		.byte	82
 4069 0e75 52       		.byte	82
 4070 0e76 52       		.byte	82
 4071 0e77 52       		.byte	82
 4072 0e78 53       		.byte	83
 4073 0e79 53       		.byte	83
 4074 0e7a 53       		.byte	83
 4075 0e7b 53       		.byte	83
 4076 0e7c 53       		.byte	83
 4077 0e7d 53       		.byte	83
 4078 0e7e 53       		.byte	83
 4079 0e7f 54       		.byte	84
 4080 0e80 54       		.byte	84
ARM GAS  C:\Users\JOSEAN~1\AppData\Local\Temp\ccgojhjw.s 			page 78


 4081 0e81 54       		.byte	84
 4082 0e82 54       		.byte	84
 4083 0e83 54       		.byte	84
 4084 0e84 54       		.byte	84
 4085 0e85 55       		.byte	85
 4086 0e86 55       		.byte	85
 4087 0e87 55       		.byte	85
 4088 0e88 55       		.byte	85
 4089 0e89 55       		.byte	85
 4090 0e8a 55       		.byte	85
 4091 0e8b 56       		.byte	86
 4092 0e8c 56       		.byte	86
 4093 0e8d 56       		.byte	86
 4094 0e8e 56       		.byte	86
 4095 0e8f 56       		.byte	86
 4096 0e90 56       		.byte	86
 4097 0e91 56       		.byte	86
 4098 0e92 57       		.byte	87
 4099 0e93 57       		.byte	87
 4100 0e94 57       		.byte	87
 4101 0e95 57       		.byte	87
 4102 0e96 57       		.byte	87
 4103 0e97 57       		.byte	87
 4104 0e98 58       		.byte	88
 4105 0e99 58       		.byte	88
 4106 0e9a 58       		.byte	88
 4107 0e9b 58       		.byte	88
 4108 0e9c 58       		.byte	88
 4109 0e9d 58       		.byte	88
 4110 0e9e 59       		.byte	89
 4111 0e9f 59       		.byte	89
 4112 0ea0 59       		.byte	89
 4113 0ea1 59       		.byte	89
 4114 0ea2 59       		.byte	89
 4115 0ea3 59       		.byte	89
 4116 0ea4 5A       		.byte	90
 4117 0ea5 5A       		.byte	90
 4118 0ea6 5A       		.byte	90
 4119 0ea7 5A       		.byte	90
 4120 0ea8 5A       		.byte	90
 4121 0ea9 5A       		.byte	90
 4122 0eaa 5A       		.byte	90
 4123 0eab 5B       		.byte	91
 4124 0eac 5B       		.byte	91
 4125 0ead 5B       		.byte	91
 4126 0eae 5B       		.byte	91
 4127 0eaf 5B       		.byte	91
 4128 0eb0 5B       		.byte	91
 4129 0eb1 5C       		.byte	92
 4130 0eb2 5C       		.byte	92
 4131 0eb3 5C       		.byte	92
 4132 0eb4 5C       		.byte	92
 4133 0eb5 5C       		.byte	92
 4134 0eb6 5C       		.byte	92
 4135 0eb7 5D       		.byte	93
 4136 0eb8 5D       		.byte	93
 4137 0eb9 5D       		.byte	93
ARM GAS  C:\Users\JOSEAN~1\AppData\Local\Temp\ccgojhjw.s 			page 79


 4138 0eba 5D       		.byte	93
 4139 0ebb 5D       		.byte	93
 4140 0ebc 5D       		.byte	93
 4141 0ebd 5E       		.byte	94
 4142 0ebe 5E       		.byte	94
 4143 0ebf 5E       		.byte	94
 4144 0ec0 5E       		.byte	94
 4145 0ec1 5E       		.byte	94
 4146 0ec2 5E       		.byte	94
 4147 0ec3 5F       		.byte	95
 4148 0ec4 5F       		.byte	95
 4149 0ec5 5F       		.byte	95
 4150 0ec6 5F       		.byte	95
 4151 0ec7 5F       		.byte	95
 4152 0ec8 5F       		.byte	95
 4153 0ec9 60       		.byte	96
 4154 0eca 60       		.byte	96
 4155 0ecb 60       		.byte	96
 4156 0ecc 60       		.byte	96
 4157 0ecd 60       		.byte	96
 4158 0ece 60       		.byte	96
 4159 0ecf 61       		.byte	97
 4160 0ed0 61       		.byte	97
 4161 0ed1 61       		.byte	97
 4162 0ed2 61       		.byte	97
 4163 0ed3 61       		.byte	97
 4164 0ed4 61       		.byte	97
 4165 0ed5 62       		.byte	98
 4166 0ed6 62       		.byte	98
 4167 0ed7 62       		.byte	98
 4168 0ed8 62       		.byte	98
 4169 0ed9 62       		.byte	98
 4170 0eda 62       		.byte	98
 4171 0edb 63       		.byte	99
 4172 0edc 63       		.byte	99
 4173 0edd 63       		.byte	99
 4174 0ede 63       		.byte	99
 4175 0edf 63       		.byte	99
 4176 0ee0 63       		.byte	99
 4177 0ee1 64       		.byte	100
 4178 0ee2 64       		.byte	100
 4179 0ee3 64       		.byte	100
 4180 0ee4 64       		.byte	100
 4181 0ee5 64       		.byte	100
 4182 0ee6 64       		.byte	100
 4183 0ee7 65       		.byte	101
 4184 0ee8 65       		.byte	101
 4185 0ee9 65       		.byte	101
 4186 0eea 65       		.byte	101
 4187 0eeb 65       		.byte	101
 4188 0eec 65       		.byte	101
 4189 0eed 66       		.byte	102
 4190 0eee 66       		.byte	102
 4191 0eef 66       		.byte	102
 4192 0ef0 66       		.byte	102
 4193 0ef1 66       		.byte	102
 4194 0ef2 66       		.byte	102
ARM GAS  C:\Users\JOSEAN~1\AppData\Local\Temp\ccgojhjw.s 			page 80


 4195 0ef3 67       		.byte	103
 4196 0ef4 67       		.byte	103
 4197 0ef5 67       		.byte	103
 4198 0ef6 67       		.byte	103
 4199 0ef7 67       		.byte	103
 4200 0ef8 67       		.byte	103
 4201 0ef9 68       		.byte	104
 4202 0efa 68       		.byte	104
 4203 0efb 68       		.byte	104
 4204 0efc 68       		.byte	104
 4205 0efd 68       		.byte	104
 4206 0efe 68       		.byte	104
 4207 0eff 69       		.byte	105
 4208 0f00 69       		.byte	105
 4209 0f01 69       		.byte	105
 4210 0f02 69       		.byte	105
 4211 0f03 69       		.byte	105
 4212 0f04 69       		.byte	105
 4213 0f05 6A       		.byte	106
 4214 0f06 6A       		.byte	106
 4215 0f07 6A       		.byte	106
 4216 0f08 6A       		.byte	106
 4217 0f09 6A       		.byte	106
 4218 0f0a 6A       		.byte	106
 4219 0f0b 6B       		.byte	107
 4220 0f0c 6B       		.byte	107
 4221 0f0d 6B       		.byte	107
 4222 0f0e 6B       		.byte	107
 4223 0f0f 6B       		.byte	107
 4224 0f10 6B       		.byte	107
 4225 0f11 6C       		.byte	108
 4226 0f12 6C       		.byte	108
 4227 0f13 6C       		.byte	108
 4228 0f14 6C       		.byte	108
 4229 0f15 6C       		.byte	108
 4230 0f16 6D       		.byte	109
 4231 0f17 6D       		.byte	109
 4232 0f18 6D       		.byte	109
 4233 0f19 6D       		.byte	109
 4234 0f1a 6D       		.byte	109
 4235 0f1b 6D       		.byte	109
 4236 0f1c 6E       		.byte	110
 4237 0f1d 6E       		.byte	110
 4238 0f1e 6E       		.byte	110
 4239 0f1f 6E       		.byte	110
 4240 0f20 6E       		.byte	110
 4241 0f21 6E       		.byte	110
 4242 0f22 6F       		.byte	111
 4243 0f23 6F       		.byte	111
 4244 0f24 6F       		.byte	111
 4245 0f25 6F       		.byte	111
 4246 0f26 6F       		.byte	111
 4247 0f27 6F       		.byte	111
 4248 0f28 70       		.byte	112
 4249 0f29 70       		.byte	112
 4250 0f2a 70       		.byte	112
 4251 0f2b 70       		.byte	112
ARM GAS  C:\Users\JOSEAN~1\AppData\Local\Temp\ccgojhjw.s 			page 81


 4252 0f2c 70       		.byte	112
 4253 0f2d 70       		.byte	112
 4254 0f2e 71       		.byte	113
 4255 0f2f 71       		.byte	113
 4256 0f30 71       		.byte	113
 4257 0f31 71       		.byte	113
 4258 0f32 71       		.byte	113
 4259 0f33 72       		.byte	114
 4260 0f34 72       		.byte	114
 4261 0f35 72       		.byte	114
 4262 0f36 72       		.byte	114
 4263 0f37 72       		.byte	114
 4264 0f38 72       		.byte	114
 4265 0f39 73       		.byte	115
 4266 0f3a 73       		.byte	115
 4267 0f3b 73       		.byte	115
 4268 0f3c 73       		.byte	115
 4269 0f3d 73       		.byte	115
 4270 0f3e 73       		.byte	115
 4271 0f3f 74       		.byte	116
 4272 0f40 74       		.byte	116
 4273 0f41 74       		.byte	116
 4274 0f42 74       		.byte	116
 4275 0f43 74       		.byte	116
 4276 0f44 74       		.byte	116
 4277 0f45 75       		.byte	117
 4278 0f46 75       		.byte	117
 4279 0f47 75       		.byte	117
 4280 0f48 75       		.byte	117
 4281 0f49 75       		.byte	117
 4282 0f4a 75       		.byte	117
 4283 0f4b 76       		.byte	118
 4284 0f4c 76       		.byte	118
 4285 0f4d 76       		.byte	118
 4286 0f4e 76       		.byte	118
 4287 0f4f 76       		.byte	118
 4288 0f50 77       		.byte	119
 4289 0f51 77       		.byte	119
 4290 0f52 77       		.byte	119
 4291 0f53 77       		.byte	119
 4292 0f54 77       		.byte	119
 4293 0f55 77       		.byte	119
 4294 0f56 78       		.byte	120
 4295 0f57 78       		.byte	120
 4296 0f58 78       		.byte	120
 4297 0f59 78       		.byte	120
 4298 0f5a 78       		.byte	120
 4299 0f5b 78       		.byte	120
 4300 0f5c 79       		.byte	121
 4301 0f5d 79       		.byte	121
 4302 0f5e 79       		.byte	121
 4303 0f5f 79       		.byte	121
 4304 0f60 79       		.byte	121
 4305 0f61 79       		.byte	121
 4306 0f62 7A       		.byte	122
 4307 0f63 7A       		.byte	122
 4308 0f64 7A       		.byte	122
ARM GAS  C:\Users\JOSEAN~1\AppData\Local\Temp\ccgojhjw.s 			page 82


 4309 0f65 7A       		.byte	122
 4310 0f66 7A       		.byte	122
 4311 0f67 7B       		.byte	123
 4312 0f68 7B       		.byte	123
 4313 0f69 7B       		.byte	123
 4314 0f6a 7B       		.byte	123
 4315 0f6b 7B       		.byte	123
 4316 0f6c 7B       		.byte	123
 4317 0f6d 7C       		.byte	124
 4318 0f6e 7C       		.byte	124
 4319 0f6f 7C       		.byte	124
 4320 0f70 7C       		.byte	124
 4321 0f71 7C       		.byte	124
 4322 0f72 7C       		.byte	124
 4323 0f73 7D       		.byte	125
 4324 0f74 7D       		.byte	125
 4325 0f75 7D       		.byte	125
 4326 0f76 7D       		.byte	125
 4327 0f77 7D       		.byte	125
 4328 0f78 7D       		.byte	125
 4329 0f79 7E       		.byte	126
 4330 0f7a 7E       		.byte	126
 4331 0f7b 7E       		.byte	126
 4332 0f7c 7E       		.byte	126
 4333 0f7d 7E       		.byte	126
 4334 0f7e 7F       		.byte	127
 4335 0f7f 7F       		.byte	127
 4336 0f80 7F       		.byte	127
 4337 0f81 7F       		.byte	127
 4338 0f82 7F       		.byte	127
 4339 0f83 7F       		.byte	127
 4340 0f84 80       		.byte	-128
 4341 0f85 80       		.byte	-128
 4342 0f86 80       		.byte	-128
 4343 0f87 80       		.byte	-128
 4344 0f88 80       		.byte	-128
 4345 0f89 80       		.byte	-128
 4346 0f8a 81       		.byte	-127
 4347 0f8b 81       		.byte	-127
 4348 0f8c 81       		.byte	-127
 4349 0f8d 81       		.byte	-127
 4350 0f8e 81       		.byte	-127
 4351 0f8f 82       		.byte	-126
 4352 0f90 82       		.byte	-126
 4353 0f91 82       		.byte	-126
 4354 0f92 82       		.byte	-126
 4355 0f93 82       		.byte	-126
 4356 0f94 82       		.byte	-126
 4357 0f95 83       		.byte	-125
 4358 0f96 83       		.byte	-125
 4359 0f97 83       		.byte	-125
 4360 0f98 83       		.byte	-125
 4361 0f99 83       		.byte	-125
 4362 0f9a 83       		.byte	-125
 4363 0f9b 84       		.byte	-124
 4364 0f9c 84       		.byte	-124
 4365 0f9d 84       		.byte	-124
ARM GAS  C:\Users\JOSEAN~1\AppData\Local\Temp\ccgojhjw.s 			page 83


 4366 0f9e 84       		.byte	-124
 4367 0f9f 84       		.byte	-124
 4368              		.type	WaveDAC8_1_wave2, %object
 4369              		.size	WaveDAC8_1_wave2, 100
 4370              	WaveDAC8_1_wave2:
 4371 0fa0 80       		.byte	-128
 4372 0fa1 84       		.byte	-124
 4373 0fa2 8A       		.byte	-118
 4374 0fa3 8F       		.byte	-113
 4375 0fa4 94       		.byte	-108
 4376 0fa5 98       		.byte	-104
 4377 0fa6 9E       		.byte	-98
 4378 0fa7 A2       		.byte	-94
 4379 0fa8 A8       		.byte	-88
 4380 0fa9 AC       		.byte	-84
 4381 0faa B2       		.byte	-78
 4382 0fab B6       		.byte	-74
 4383 0fac BC       		.byte	-68
 4384 0fad C0       		.byte	-64
 4385 0fae C6       		.byte	-58
 4386 0faf CA       		.byte	-54
 4387 0fb0 D0       		.byte	-48
 4388 0fb1 D5       		.byte	-43
 4389 0fb2 DA       		.byte	-38
 4390 0fb3 DE       		.byte	-34
 4391 0fb4 E4       		.byte	-28
 4392 0fb5 E8       		.byte	-24
 4393 0fb6 EE       		.byte	-18
 4394 0fb7 F2       		.byte	-14
 4395 0fb8 F8       		.byte	-8
 4396 0fb9 FC       		.byte	-4
 4397 0fba F8       		.byte	-8
 4398 0fbb F2       		.byte	-14
 4399 0fbc EE       		.byte	-18
 4400 0fbd E8       		.byte	-24
 4401 0fbe E4       		.byte	-28
 4402 0fbf DE       		.byte	-34
 4403 0fc0 DA       		.byte	-38
 4404 0fc1 D4       		.byte	-44
 4405 0fc2 D0       		.byte	-48
 4406 0fc3 CA       		.byte	-54
 4407 0fc4 C6       		.byte	-58
 4408 0fc5 C0       		.byte	-64
 4409 0fc6 BC       		.byte	-68
 4410 0fc7 B6       		.byte	-74
 4411 0fc8 B2       		.byte	-78
 4412 0fc9 AD       		.byte	-83
 4413 0fca A8       		.byte	-88
 4414 0fcb A2       		.byte	-94
 4415 0fcc 9E       		.byte	-98
 4416 0fcd 98       		.byte	-104
 4417 0fce 94       		.byte	-108
 4418 0fcf 8F       		.byte	-113
 4419 0fd0 8A       		.byte	-118
 4420 0fd1 84       		.byte	-124
 4421 0fd2 80       		.byte	-128
 4422 0fd3 7A       		.byte	122
ARM GAS  C:\Users\JOSEAN~1\AppData\Local\Temp\ccgojhjw.s 			page 84


 4423 0fd4 76       		.byte	118
 4424 0fd5 70       		.byte	112
 4425 0fd6 6B       		.byte	107
 4426 0fd7 66       		.byte	102
 4427 0fd8 61       		.byte	97
 4428 0fd9 5D       		.byte	93
 4429 0fda 58       		.byte	88
 4430 0fdb 53       		.byte	83
 4431 0fdc 4E       		.byte	78
 4432 0fdd 49       		.byte	73
 4433 0fde 44       		.byte	68
 4434 0fdf 3E       		.byte	62
 4435 0fe0 39       		.byte	57
 4436 0fe1 34       		.byte	52
 4437 0fe2 2F       		.byte	47
 4438 0fe3 2A       		.byte	42
 4439 0fe4 25       		.byte	37
 4440 0fe5 21       		.byte	33
 4441 0fe6 1C       		.byte	28
 4442 0fe7 17       		.byte	23
 4443 0fe8 12       		.byte	18
 4444 0fe9 0D       		.byte	13
 4445 0fea 08       		.byte	8
 4446 0feb 03       		.byte	3
 4447 0fec 08       		.byte	8
 4448 0fed 0D       		.byte	13
 4449 0fee 12       		.byte	18
 4450 0fef 17       		.byte	23
 4451 0ff0 1C       		.byte	28
 4452 0ff1 21       		.byte	33
 4453 0ff2 25       		.byte	37
 4454 0ff3 2A       		.byte	42
 4455 0ff4 2F       		.byte	47
 4456 0ff5 34       		.byte	52
 4457 0ff6 39       		.byte	57
 4458 0ff7 3E       		.byte	62
 4459 0ff8 44       		.byte	68
 4460 0ff9 49       		.byte	73
 4461 0ffa 4E       		.byte	78
 4462 0ffb 53       		.byte	83
 4463 0ffc 58       		.byte	88
 4464 0ffd 5D       		.byte	93
 4465 0ffe 61       		.byte	97
 4466 0fff 66       		.byte	102
 4467 1000 6B       		.byte	107
 4468 1001 70       		.byte	112
 4469 1002 76       		.byte	118
 4470 1003 7A       		.byte	122
 4471              		.bss
 4472              		.set	.LANCHOR0,. + 0
 4473              		.type	WaveDAC8_1_Wave1Chan, %object
 4474              		.size	WaveDAC8_1_Wave1Chan, 1
 4475              	WaveDAC8_1_Wave1Chan:
 4476 0000 00       		.space	1
 4477              		.type	WaveDAC8_1_Wave2Chan, %object
 4478              		.size	WaveDAC8_1_Wave2Chan, 1
 4479              	WaveDAC8_1_Wave2Chan:
ARM GAS  C:\Users\JOSEAN~1\AppData\Local\Temp\ccgojhjw.s 			page 85


 4480 0001 00       		.space	1
 4481              		.type	WaveDAC8_1_Wave1TD, %object
 4482              		.size	WaveDAC8_1_Wave1TD, 1
 4483              	WaveDAC8_1_Wave1TD:
 4484 0002 00       		.space	1
 4485              		.type	WaveDAC8_1_Wave2TD, %object
 4486              		.size	WaveDAC8_1_Wave2TD, 1
 4487              	WaveDAC8_1_Wave2TD:
 4488 0003 00       		.space	1
 4489              		.type	WaveDAC8_1_initVar, %object
 4490              		.size	WaveDAC8_1_initVar, 1
 4491              	WaveDAC8_1_initVar:
 4492 0004 00       		.space	1
 4493              		.text
 4494              	.Letext0:
 4495              		.file 2 "Generated_Source\\PSoC5\\cytypes.h"
 4496              		.file 3 "Generated_Source\\PSoC5/WaveDAC8_1_VDAC8.h"
 4497              		.file 4 "Generated_Source\\PSoC5/WaveDAC8_1_BuffAmp.h"
 4498              		.file 5 "Generated_Source\\PSoC5/CYDMAC.H"
 4499              		.file 6 "Generated_Source\\PSoC5/WaveDAC8_1_DacClk.h"
 4500              		.file 7 "Generated_Source\\PSoC5/WaveDAC8_1_Wave1_DMA_dma.h"
 4501              		.file 8 "Generated_Source\\PSoC5/WaveDAC8_1_Wave2_DMA_dma.h"
