ARM GAS  C:\Users\JOSEAN~1\AppData\Local\Temp\ccLtFbKz.s 			page 1


   1              		.syntax unified
   2              		.cpu cortex-m3
   3              		.fpu softvfp
   4              		.eabi_attribute 20, 1
   5              		.eabi_attribute 21, 1
   6              		.eabi_attribute 23, 3
   7              		.eabi_attribute 24, 1
   8              		.eabi_attribute 25, 1
   9              		.eabi_attribute 26, 1
  10              		.eabi_attribute 30, 6
  11              		.eabi_attribute 34, 1
  12              		.eabi_attribute 18, 4
  13              		.thumb
  14              		.file	"cymetadata.c"
  15              		.text
  16              	.Ltext0:
  17              		.cfi_sections	.debug_frame
  18              		.global	cy_meta_configecc
  19              		.section	.cyconfigecc,"a",%progbits
  20              		.align	2
  21              		.type	cy_meta_configecc, %object
  22              		.size	cy_meta_configecc, 172
  23              	cy_meta_configecc:
  24 0000 05       		.byte	5
  25 0001 52       		.byte	82
  26 0002 00       		.byte	0
  27 0003 40       		.byte	64
  28 0004 0B       		.byte	11
  29 0005 02       		.byte	2
  30 0006 01       		.byte	1
  31 0007 40       		.byte	64
  32 0008 09       		.byte	9
  33 0009 03       		.byte	3
  34 000a 01       		.byte	1
  35 000b 40       		.byte	64
  36 000c 06       		.byte	6
  37 000d 05       		.byte	5
  38 000e 01       		.byte	1
  39 000f 40       		.byte	64
  40 0010 03       		.byte	3
  41 0011 0B       		.byte	11
  42 0012 01       		.byte	1
  43 0013 40       		.byte	64
  44 0014 07       		.byte	7
  45 0015 41       		.byte	65
  46 0016 01       		.byte	1
  47 0017 40       		.byte	64
  48 0018 03       		.byte	3
  49 0019 42       		.byte	66
  50 001a 01       		.byte	1
  51 001b 40       		.byte	64
  52 001c 06       		.byte	6
  53 001d 45       		.byte	69
  54 001e 01       		.byte	1
  55 001f 40       		.byte	64
  56 0020 05       		.byte	5
  57 0021 46       		.byte	70
ARM GAS  C:\Users\JOSEAN~1\AppData\Local\Temp\ccLtFbKz.s 			page 2


  58 0022 01       		.byte	1
  59 0023 40       		.byte	64
  60 0024 00       		.byte	0
  61 0025 01       		.byte	1
  62 0026 01       		.byte	1
  63 0027 01       		.byte	1
  64 0028 04       		.byte	4
  65 0029 06       		.byte	6
  66 002a 11       		.byte	17
  67 002b 02       		.byte	2
  68 002c 14       		.byte	20
  69 002d 18       		.byte	24
  70 002e 86       		.byte	-122
  71 002f 04       		.byte	4
  72 0030 9C       		.byte	-100
  73 0031 02       		.byte	2
  74 0032 9E       		.byte	-98
  75 0033 01       		.byte	1
  76 0034 A4       		.byte	-92
  77 0035 01       		.byte	1
  78 0036 A6       		.byte	-90
  79 0037 02       		.byte	2
  80 0038 AA       		.byte	-86
  81 0039 04       		.byte	4
  82 003a B2       		.byte	-78
  83 003b 03       		.byte	3
  84 003c B6       		.byte	-74
  85 003d 04       		.byte	4
  86 003e BE       		.byte	-66
  87 003f 44       		.byte	68
  88 0040 D8       		.byte	-40
  89 0041 04       		.byte	4
  90 0042 DF       		.byte	-33
  91 0043 01       		.byte	1
  92 0044 00       		.byte	0
  93 0045 08       		.byte	8
  94 0046 0B       		.byte	11
  95 0047 01       		.byte	1
  96 0048 13       		.byte	19
  97 0049 28       		.byte	40
  98 004a 18       		.byte	24
  99 004b 02       		.byte	2
 100 004c 1B       		.byte	27
 101 004d 08       		.byte	8
 102 004e 83       		.byte	-125
 103 004f 01       		.byte	1
 104 0050 C0       		.byte	-64
 105 0051 04       		.byte	4
 106 0052 C2       		.byte	-62
 107 0053 01       		.byte	1
 108 0054 C4       		.byte	-60
 109 0055 06       		.byte	6
 110 0056 AF       		.byte	-81
 111 0057 08       		.byte	8
 112 0058 B0       		.byte	-80
 113 0059 04       		.byte	4
 114 005a B3       		.byte	-77
ARM GAS  C:\Users\JOSEAN~1\AppData\Local\Temp\ccLtFbKz.s 			page 3


 115 005b 08       		.byte	8
 116 005c B4       		.byte	-76
 117 005d 01       		.byte	1
 118 005e B7       		.byte	-73
 119 005f 20       		.byte	32
 120 0060 EC       		.byte	-20
 121 0061 80       		.byte	-128
 122 0062 E8       		.byte	-24
 123 0063 40       		.byte	64
 124 0064 EA       		.byte	-22
 125 0065 20       		.byte	32
 126 0066 EE       		.byte	-18
 127 0067 10       		.byte	16
 128 0068 02       		.byte	2
 129 0069 02       		.byte	2
 130 006a 06       		.byte	6
 131 006b 40       		.byte	64
 132 006c 5E       		.byte	94
 133 006d 80       		.byte	-128
 134 006e 82       		.byte	-126
 135 006f 02       		.byte	2
 136 0070 C0       		.byte	-64
 137 0071 60       		.byte	96
 138 0072 D6       		.byte	-42
 139 0073 20       		.byte	32
 140 0074 E0       		.byte	-32
 141 0075 80       		.byte	-128
 142 0076 AE       		.byte	-82
 143 0077 40       		.byte	64
 144 0078 B2       		.byte	-78
 145 0079 40       		.byte	64
 146 007a EE       		.byte	-18
 147 007b 40       		.byte	64
 148 007c 04       		.byte	4
 149 007d 80       		.byte	-128
 150 007e 0B       		.byte	11
 151 007f 20       		.byte	32
 152 0080 50       		.byte	80
 153 0081 01       		.byte	1
 154 0082 C0       		.byte	-64
 155 0083 01       		.byte	1
 156 0084 C2       		.byte	-62
 157 0085 08       		.byte	8
 158 0086 D4       		.byte	-44
 159 0087 01       		.byte	1
 160 0088 B3       		.byte	-77
 161 0089 10       		.byte	16
 162 008a B4       		.byte	-76
 163 008b 41       		.byte	65
 164 008c E8       		.byte	-24
 165 008d 02       		.byte	2
 166 008e EA       		.byte	-22
 167 008f 04       		.byte	4
 168 0090 EE       		.byte	-18
 169 0091 08       		.byte	8
 170 0092 00       		.byte	0
 171 0093 00       		.byte	0
ARM GAS  C:\Users\JOSEAN~1\AppData\Local\Temp\ccLtFbKz.s 			page 4


 172 0094 01       		.byte	1
 173 0095 00       		.byte	0
 174 0096 06       		.byte	6
 175 0097 01       		.byte	1
 176 0098 01       		.byte	1
 177 0099 00       		.byte	0
 178 009a 01       		.byte	1
 179 009b 00       		.byte	0
 180 009c 00       		.byte	0
 181 009d 00       		.byte	0
 182 009e 00       		.byte	0
 183 009f 00       		.byte	0
 184 00a0 18       		.byte	24
 185 00a1 00       		.byte	0
 186 00a2 00       		.byte	0
 187 00a3 1A       		.byte	26
 188 00a4 02       		.byte	2
 189 00a5 00       		.byte	0
 190 00a6 02       		.byte	2
 191 00a7 00       		.byte	0
 192 00a8 00       		.byte	0
 193 00a9 00       		.byte	0
 194 00aa 00       		.byte	0
 195 00ab 00       		.byte	0
 196              		.global	cy_meta_custnvl
 197              		.section	.cycustnvl,"a",%progbits
 198              		.align	2
 199              		.type	cy_meta_custnvl, %object
 200              		.size	cy_meta_custnvl, 4
 201              	cy_meta_custnvl:
 202 0000 00       		.byte	0
 203 0001 00       		.byte	0
 204 0002 40       		.byte	64
 205 0003 05       		.byte	5
 206              		.global	cy_meta_wonvl
 207              		.section	.cywolatch,"a",%progbits
 208              		.align	2
 209              		.type	cy_meta_wonvl, %object
 210              		.size	cy_meta_wonvl, 4
 211              	cy_meta_wonvl:
 212 0000 BC       		.byte	-68
 213 0001 90       		.byte	-112
 214 0002 AC       		.byte	-84
 215 0003 AF       		.byte	-81
 216              		.global	cy_meta_flashprotect
 217              		.section	.cyflashprotect,"a",%progbits
 218              		.align	2
 219              		.type	cy_meta_flashprotect, %object
 220              		.size	cy_meta_flashprotect, 256
 221              	cy_meta_flashprotect:
 222 0000 00000000 		.space	256
 222      00000000 
 222      00000000 
 222      00000000 
 222      00000000 
 223              		.global	cy_metadata
 224              		.section	.cymeta,"a",%progbits
ARM GAS  C:\Users\JOSEAN~1\AppData\Local\Temp\ccLtFbKz.s 			page 5


 225              		.align	2
 226              		.type	cy_metadata, %object
 227              		.size	cy_metadata, 12
 228              	cy_metadata:
 229 0000 00       		.byte	0
 230 0001 01       		.byte	1
 231 0002 2E       		.byte	46
 232 0003 16       		.byte	22
 233 0004 10       		.byte	16
 234 0005 69       		.byte	105
 235 0006 00       		.byte	0
 236 0007 01       		.byte	1
 237 0008 00       		.byte	0
 238 0009 00       		.byte	0
 239 000a 00       		.byte	0
 240 000b 00       		.byte	0
 241              		.text
 242              	.Letext0:
 243              		.file 1 ".\\Generated_Source\\PSoC5\\cymetadata.c"
 244              		.file 2 ".\\Generated_Source\\PSoC5\\cytypes.h"
