ARM GAS  C:\Users\JOSEAN~1\AppData\Local\Temp\ccwwiPJS.s 			page 1


   1              		.syntax unified
   2              		.cpu cortex-m3
   3              		.fpu softvfp
   4              		.eabi_attribute 20, 1
   5              		.eabi_attribute 21, 1
   6              		.eabi_attribute 23, 3
   7              		.eabi_attribute 24, 1
   8              		.eabi_attribute 25, 1
   9              		.eabi_attribute 26, 1
  10              		.eabi_attribute 30, 1
  11              		.eabi_attribute 34, 1
  12              		.eabi_attribute 18, 4
  13              		.thumb
  14              		.syntax unified
  15              		.file	"main.c"
  16              		.text
  17              	.Ltext0:
  18              		.cfi_sections	.debug_frame
  19              		.global	__aeabi_f2d
  20              		.global	__aeabi_i2d
  21              		.global	__aeabi_d2uiz
  22              		.global	__aeabi_i2f
  23              		.global	__aeabi_ui2f
  24              		.global	__aeabi_fmul
  25              		.global	__aeabi_fdiv
  26              		.global	__aeabi_dmul
  27              		.section	.text.main,"ax",%progbits
  28              		.align	2
  29              		.global	main
  30              		.thumb
  31              		.thumb_func
  32              		.type	main, %function
  33              	main:
  34              	.LFB64:
  35              		.file 1 "main.c"
   1:main.c        **** /* ========================================
   2:main.c        ****  *
   3:main.c        ****  * Copyright YOUR COMPANY, THE YEAR
   4:main.c        ****  * All Rights Reserved
   5:main.c        ****  * UNPUBLISHED, LICENSED SOFTWARE.
   6:main.c        ****  *
   7:main.c        ****  * CONFIDENTIAL AND PROPRIETARY INFORMATION
   8:main.c        ****  * WHICH IS THE PROPERTY OF your company.
   9:main.c        ****  *
  10:main.c        ****  * ========================================
  11:main.c        **** */
  12:main.c        **** #include "project.h"
  13:main.c        **** #include "stdio.h" //Para sprintf
  14:main.c        **** #include "math.h" //Hay que incluirla tb en el linker
  15:main.c        **** //Creator -> Project -> Build Settings -> Linker  the "Additional Libraries" to "m" 
  16:main.c        **** 
  17:main.c        **** #define MAX_PWM_PERIOD (uint16)(pow(2,PWM_Resolution)-1) //Máximo n bits del período del PWM
  18:main.c        **** #define MAX_POT_LECTURE (uint16)(pow(2,ADC_SAR_DEFAULT_RESOLUTION)-1) //Máximo n bits de lectura e
  19:main.c        **** #define PERIOD_CLOCK (float)(1/24e6) //Período de la señal de reloj principal
  20:main.c        **** 
  21:main.c        **** float dutyPWM; //Duty cycle, de 0% a 100%
  22:main.c        **** uint32 periodPWM; //Period del PWM, de 0 a 255
ARM GAS  C:\Users\JOSEAN~1\AppData\Local\Temp\ccwwiPJS.s 			page 2


  23:main.c        **** uint16 freqPWM; //Frecuencia, de 0-65535Hz
  24:main.c        **** 
  25:main.c        **** int16 data[ADC_NUMBER_OF_CHANNELS];
  26:main.c        **** float volts[ADC_NUMBER_OF_CHANNELS];
  27:main.c        **** 
  28:main.c        **** char str[100]; //String para la representación
  29:main.c        **** 
  30:main.c        **** uint16 countH; //Cuenta realizada por el contador que mide el estado en alto
  31:main.c        **** uint16 countL; //Cuenta realizada por el contador que mide el estado en bajo
  32:main.c        **** 
  33:main.c        **** float period_calc; //Variable para almacenar el período calculado
  34:main.c        **** float freq; //Frecuencia calculada
  35:main.c        **** float duty; //Variable para almacenar el tiempo en alto
  36:main.c        **** float duty_perc; //Variable para convertir el duty en porcentaje
  37:main.c        **** 
  38:main.c        **** int main(void)
  39:main.c        **** {    
  36              		.loc 1 39 0
  37              		.cfi_startproc
  38              		@ args = 0, pretend = 0, frame = 0
  39              		@ frame_needed = 0, uses_anonymous_args = 0
  40 0000 2DE9F043 		push	{r4, r5, r6, r7, r8, r9, lr}
  41              		.cfi_def_cfa_offset 28
  42              		.cfi_offset 4, -28
  43              		.cfi_offset 5, -24
  44              		.cfi_offset 6, -20
  45              		.cfi_offset 7, -16
  46              		.cfi_offset 8, -12
  47              		.cfi_offset 9, -8
  48              		.cfi_offset 14, -4
  49 0004 87B0     		sub	sp, sp, #28
  50              		.cfi_def_cfa_offset 56
  40:main.c        ****     CyGlobalIntEnable; /* Enable global interrupts. */
  51              		.loc 1 40 0
  52              		.syntax unified
  53              	@ 40 "main.c" 1
  54 0006 62B6     		CPSIE   i
  55              	@ 0 "" 2
  41:main.c        ****  
  42:main.c        ****     /* INICIALIZACIÓN COMPONENTES */
  43:main.c        ****     UART_Start();
  56              		.loc 1 43 0
  57              		.thumb
  58              		.syntax unified
  59 0008 FFF7FEFF 		bl	UART_Start
  60              	.LVL0:
  44:main.c        ****     ADC_Start();
  61              		.loc 1 44 0
  62 000c FFF7FEFF 		bl	ADC_Start
  63              	.LVL1:
  45:main.c        ****     PWM_Start();
  64              		.loc 1 45 0
  65 0010 FFF7FEFF 		bl	PWM_Start
  66              	.LVL2:
  46:main.c        ****     CounterH_Start();
  67              		.loc 1 46 0
  68 0014 FFF7FEFF 		bl	CounterH_Start
ARM GAS  C:\Users\JOSEAN~1\AppData\Local\Temp\ccwwiPJS.s 			page 3


  69              	.LVL3:
  47:main.c        ****     CounterL_Start();
  70              		.loc 1 47 0
  71 0018 FFF7FEFF 		bl	CounterL_Start
  72              	.LVL4:
  73              	.L4:
  48:main.c        ****     
  49:main.c        ****     for(;;)
  50:main.c        ****     {
  51:main.c        ****         /**************** LEER POTENCIÓMETROS Y GENERAR SEÑAL *****************/
  52:main.c        ****         
  53:main.c        ****             ADC_StartConvert(); //Empieza la conversión del ADC
  74              		.loc 1 53 0
  75 001c FFF7FEFF 		bl	ADC_StartConvert
  76              	.LVL5:
  54:main.c        ****             ADC_IsEndConversion(ADC_WAIT_FOR_RESULT); //Espera a que se termine
  77              		.loc 1 54 0
  78 0020 0020     		movs	r0, #0
  79 0022 FFF7FEFF 		bl	ADC_IsEndConversion
  80              	.LVL6:
  81              	.LBB2:
  55:main.c        ****             for (uint i = 0; i < ADC_NUMBER_OF_CHANNELS ; i++){ //Leemos los canales del ADC
  82              		.loc 1 55 0
  83 0026 0024     		movs	r4, #0
  84 0028 23E0     		b	.L2
  85              	.LVL7:
  86              	.L3:
  56:main.c        ****                 data[i] = ADC_GetResult16(i); //Almacenamos cada uno en la variable data
  87              		.loc 1 56 0 discriminator 3
  88 002a A0B2     		uxth	r0, r4
  89 002c FFF7FEFF 		bl	ADC_GetResult16
  90              	.LVL8:
  91 0030 0346     		mov	r3, r0
  92 0032 6F4E     		ldr	r6, .L6+16
  93 0034 26F81400 		strh	r0, [r6, r4, lsl #1]	@ movhi
  57:main.c        ****                 sprintf(str, "Data%d: %d bits\n",i,data[i]);  //Creamos un string para representarl
  94              		.loc 1 57 0 discriminator 3
  95 0038 6E4D     		ldr	r5, .L6+20
  96 003a 2246     		mov	r2, r4
  97 003c 6E49     		ldr	r1, .L6+24
  98 003e 2846     		mov	r0, r5
  99 0040 FFF7FEFF 		bl	sprintf
 100              	.LVL9:
  58:main.c        ****                 UART_PutString(str); //Representamos el string
 101              		.loc 1 58 0 discriminator 3
 102 0044 2846     		mov	r0, r5
 103 0046 FFF7FEFF 		bl	UART_PutString
 104              	.LVL10:
  59:main.c        ****                 volts[i] = ADC_CountsTo_Volts(data[i]); //Lo mismo hacemos pero convirtiendo el nbi
 105              		.loc 1 59 0 discriminator 3
 106 004a 36F91400 		ldrsh	r0, [r6, r4, lsl #1]
 107 004e FFF7FEFF 		bl	ADC_CountsTo_Volts
 108              	.LVL11:
 109 0052 6A4B     		ldr	r3, .L6+28
 110 0054 43F82400 		str	r0, [r3, r4, lsl #2]	@ float
  60:main.c        ****                 sprintf(str, "Volts%d: %0.02f V\n",i,volts[i]);
 111              		.loc 1 60 0 discriminator 3
ARM GAS  C:\Users\JOSEAN~1\AppData\Local\Temp\ccwwiPJS.s 			page 4


 112 0058 FFF7FEFF 		bl	__aeabi_f2d
 113              	.LVL12:
 114 005c CDE90001 		strd	r0, [sp]
 115 0060 2246     		mov	r2, r4
 116 0062 6749     		ldr	r1, .L6+32
 117 0064 2846     		mov	r0, r5
 118 0066 FFF7FEFF 		bl	sprintf
 119              	.LVL13:
  61:main.c        ****                 UART_PutString(str);
 120              		.loc 1 61 0 discriminator 3
 121 006a 2846     		mov	r0, r5
 122 006c FFF7FEFF 		bl	UART_PutString
 123              	.LVL14:
  55:main.c        ****                 data[i] = ADC_GetResult16(i); //Almacenamos cada uno en la variable data
 124              		.loc 1 55 0 discriminator 3
 125 0070 0134     		adds	r4, r4, #1
 126              	.LVL15:
 127              	.L2:
  55:main.c        ****                 data[i] = ADC_GetResult16(i); //Almacenamos cada uno en la variable data
 128              		.loc 1 55 0 is_stmt 0 discriminator 1
 129 0072 012C     		cmp	r4, #1
 130 0074 D9D9     		bls	.L3
 131              	.LBE2:
  62:main.c        ****             }
  63:main.c        ****             /* Necesitamos mostrar el duty como un %, ya que se debe aplicar al período, para que 
  64:main.c        ****              * nunca se dé el caso de que el duty sea mayor que el período */
  65:main.c        ****             periodPWM = round(MAX_PWM_PERIOD-MAX_PWM_PERIOD*(MAX_POT_LECTURE-data[0])/MAX_POT_LECTU
 132              		.loc 1 65 0 is_stmt 1
 133 0076 5E4E     		ldr	r6, .L6+16
 134 0078 B6F90030 		ldrsh	r3, [r6]
 135 007c 40F6FF74 		movw	r4, #4095
 136              	.LVL16:
 137 0080 E31A     		subs	r3, r4, r3
 138 0082 C3EB0323 		rsb	r3, r3, r3, lsl #8
 139 0086 5F4D     		ldr	r5, .L6+36
 140 0088 85FB0320 		smull	r2, r0, r5, r3
 141 008c 1844     		add	r0, r0, r3
 142 008e DB17     		asrs	r3, r3, #31
 143 0090 C3EBE020 		rsb	r0, r3, r0, asr #11
 144 0094 C0F1FF00 		rsb	r0, r0, #255
 145 0098 FFF7FEFF 		bl	__aeabi_i2d
 146              	.LVL17:
 147 009c FFF7FEFF 		bl	round
 148              	.LVL18:
 149 00a0 FFF7FEFF 		bl	__aeabi_d2uiz
 150              	.LVL19:
 151 00a4 8046     		mov	r8, r0
 152 00a6 584F     		ldr	r7, .L6+40
 153 00a8 3860     		str	r0, [r7]
  66:main.c        ****             dutyPWM = data[1]*100/MAX_POT_LECTURE; //Duty en tanto por ciento %
 154              		.loc 1 66 0
 155 00aa B6F90200 		ldrsh	r0, [r6, #2]
 156 00ae 6423     		movs	r3, #100
 157 00b0 03FB00F3 		mul	r3, r3, r0
 158 00b4 85FB0320 		smull	r2, r0, r5, r3
 159 00b8 1844     		add	r0, r0, r3
 160 00ba DB17     		asrs	r3, r3, #31
ARM GAS  C:\Users\JOSEAN~1\AppData\Local\Temp\ccwwiPJS.s 			page 5


 161 00bc C3EBE020 		rsb	r0, r3, r0, asr #11
 162 00c0 FFF7FEFF 		bl	__aeabi_i2f
 163              	.LVL20:
 164 00c4 514E     		ldr	r6, .L6+44
 165 00c6 3060     		str	r0, [r6]	@ float
  67:main.c        ****             sprintf(str, "Period: %lu, Duty: %0.2f%% PWM max: %d, Pot Max: %d\n\n",periodPWM,dutyPW
 166              		.loc 1 67 0
 167 00c8 4A4D     		ldr	r5, .L6+20
 168 00ca 0394     		str	r4, [sp, #12]
 169 00cc FF23     		movs	r3, #255
 170 00ce 0293     		str	r3, [sp, #8]
 171 00d0 FFF7FEFF 		bl	__aeabi_f2d
 172              	.LVL21:
 173 00d4 CDE90001 		strd	r0, [sp]
 174 00d8 4246     		mov	r2, r8
 175 00da 4D49     		ldr	r1, .L6+48
 176 00dc 2846     		mov	r0, r5
 177 00de FFF7FEFF 		bl	sprintf
 178              	.LVL22:
  68:main.c        ****             UART_PutString(str);
 179              		.loc 1 68 0
 180 00e2 2846     		mov	r0, r5
 181 00e4 FFF7FEFF 		bl	UART_PutString
 182              	.LVL23:
  69:main.c        **** 
  70:main.c        ****             /* Modificamos el PWM en función de la lectura de los potenciómetros */
  71:main.c        ****             PWM_WritePeriod(periodPWM); //Escribimos el período
 183              		.loc 1 71 0
 184 00e8 3878     		ldrb	r0, [r7]	@ zero_extendqisi2
 185 00ea FFF7FEFF 		bl	PWM_WritePeriod
 186              	.LVL24:
  72:main.c        ****             PWM_WriteCompare(round(periodPWM*dutyPWM/100)); //Escribimos el nuevo duty cycle
 187              		.loc 1 72 0
 188 00ee 3868     		ldr	r0, [r7]
 189 00f0 FFF7FEFF 		bl	__aeabi_ui2f
 190              	.LVL25:
 191 00f4 3168     		ldr	r1, [r6]	@ float
 192 00f6 FFF7FEFF 		bl	__aeabi_fmul
 193              	.LVL26:
 194 00fa 4649     		ldr	r1, .L6+52
 195 00fc FFF7FEFF 		bl	__aeabi_fdiv
 196              	.LVL27:
 197 0100 FFF7FEFF 		bl	__aeabi_f2d
 198              	.LVL28:
 199 0104 FFF7FEFF 		bl	round
 200              	.LVL29:
 201 0108 FFF7FEFF 		bl	__aeabi_d2uiz
 202              	.LVL30:
 203 010c C0B2     		uxtb	r0, r0
 204 010e FFF7FEFF 		bl	PWM_WriteCompare
 205              	.LVL31:
  73:main.c        ****             
  74:main.c        ****             
  75:main.c        ****        /********************** CALCULAR PERÍODO Y DUTY CYCLE ***********************************/
  76:main.c        ****             
  77:main.c        ****             //Leemos el valor de las capturas, nos dará un número del 0 al 65536
  78:main.c        ****             countH = CounterH_ReadCapture();
ARM GAS  C:\Users\JOSEAN~1\AppData\Local\Temp\ccwwiPJS.s 			page 6


 206              		.loc 1 78 0
 207 0112 FFF7FEFF 		bl	CounterH_ReadCapture
 208              	.LVL32:
 209 0116 404C     		ldr	r4, .L6+56
 210 0118 2080     		strh	r0, [r4]	@ movhi
  79:main.c        ****             countL = CounterL_ReadCapture();
 211              		.loc 1 79 0
 212 011a FFF7FEFF 		bl	CounterL_ReadCapture
 213              	.LVL33:
 214 011e 3F4B     		ldr	r3, .L6+60
 215 0120 1880     		strh	r0, [r3]	@ movhi
  80:main.c        ****             
  81:main.c        ****             //El período será la suma de los dos, y el duty sólo el de high
  82:main.c        ****             period_calc = (countH+countL)*2*PERIOD_CLOCK;
 216              		.loc 1 82 0
 217 0122 2688     		ldrh	r6, [r4]
 218 0124 3044     		add	r0, r0, r6
 219 0126 4000     		lsls	r0, r0, #1
 220 0128 FFF7FEFF 		bl	__aeabi_i2f
 221              	.LVL34:
 222 012c 3C49     		ldr	r1, .L6+64
 223 012e FFF7FEFF 		bl	__aeabi_fmul
 224              	.LVL35:
 225 0132 0446     		mov	r4, r0
 226 0134 DFF80481 		ldr	r8, .L6+92
 227 0138 C8F80000 		str	r0, [r8]	@ float
  83:main.c        ****             freq = 1/period_calc;
 228              		.loc 1 83 0
 229 013c 0146     		mov	r1, r0
 230 013e 4FF07E50 		mov	r0, #1065353216
 231 0142 FFF7FEFF 		bl	__aeabi_fdiv
 232              	.LVL36:
 233 0146 374F     		ldr	r7, .L6+68
 234 0148 3860     		str	r0, [r7]	@ float
  84:main.c        ****             /* Cada bit equivale a un período de Count, que equivale a su vez a dos ciclos  *
  85:main.c        ****              * de reloj global de 24 Mhz.                                                   *
  86:main.c        ****              * count tiene una frecuencia de la mitad, 12 Mhz                               *
  87:main.c        ****              */
  88:main.c        ****             duty = countH*2*PERIOD_CLOCK; //Tiempo que está en alto en us
 235              		.loc 1 88 0
 236 014a 7000     		lsls	r0, r6, #1
 237 014c FFF7FEFF 		bl	__aeabi_i2f
 238              	.LVL37:
 239 0150 3349     		ldr	r1, .L6+64
 240 0152 FFF7FEFF 		bl	__aeabi_fmul
 241              	.LVL38:
 242 0156 344E     		ldr	r6, .L6+72
 243 0158 3060     		str	r0, [r6]	@ float
  89:main.c        ****             duty_perc = duty*100/period_calc;
 244              		.loc 1 89 0
 245 015a 2E49     		ldr	r1, .L6+52
 246 015c FFF7FEFF 		bl	__aeabi_fmul
 247              	.LVL39:
 248 0160 2146     		mov	r1, r4
 249 0162 FFF7FEFF 		bl	__aeabi_fdiv
 250              	.LVL40:
 251 0166 314C     		ldr	r4, .L6+76
ARM GAS  C:\Users\JOSEAN~1\AppData\Local\Temp\ccwwiPJS.s 			page 7


 252 0168 2060     		str	r0, [r4]	@ float
  90:main.c        ****             
  91:main.c        ****             UART_PutString("MEDICIONES\n");
 253              		.loc 1 91 0
 254 016a 3148     		ldr	r0, .L6+80
 255 016c FFF7FEFF 		bl	UART_PutString
 256              	.LVL41:
  92:main.c        ****             sprintf(str, "Periodo calc: %0.2f us, Duty: %0.3fus \nFrecuencia: %0.2fkHz, Duty perc: 
 257              		.loc 1 92 0
 258 0170 D8F80000 		ldr	r0, [r8]	@ float
 259 0174 FFF7FEFF 		bl	__aeabi_f2d
 260              	.LVL42:
 261 0178 19A3     		adr	r3, .L6
 262 017a D3E90023 		ldrd	r2, [r3]
 263 017e FFF7FEFF 		bl	__aeabi_dmul
 264              	.LVL43:
 265 0182 8046     		mov	r8, r0
 266 0184 8946     		mov	r9, r1
 267 0186 2068     		ldr	r0, [r4]	@ float
 268 0188 FFF7FEFF 		bl	__aeabi_f2d
 269              	.LVL44:
 270 018c CDE90401 		strd	r0, [sp, #16]
 271 0190 3868     		ldr	r0, [r7]	@ float
 272 0192 FFF7FEFF 		bl	__aeabi_f2d
 273              	.LVL45:
 274 0196 14A3     		adr	r3, .L6+8
 275 0198 D3E90023 		ldrd	r2, [r3]
 276 019c FFF7FEFF 		bl	__aeabi_dmul
 277              	.LVL46:
 278 01a0 CDE90201 		strd	r0, [sp, #8]
 279 01a4 3068     		ldr	r0, [r6]	@ float
 280 01a6 FFF7FEFF 		bl	__aeabi_f2d
 281              	.LVL47:
 282 01aa 0DA3     		adr	r3, .L6
 283 01ac D3E90023 		ldrd	r2, [r3]
 284 01b0 FFF7FEFF 		bl	__aeabi_dmul
 285              	.LVL48:
 286 01b4 CDE90001 		strd	r0, [sp]
 287 01b8 4246     		mov	r2, r8
 288 01ba 4B46     		mov	r3, r9
 289 01bc 1D49     		ldr	r1, .L6+84
 290 01be 2846     		mov	r0, r5
 291 01c0 FFF7FEFF 		bl	sprintf
 292              	.LVL49:
  93:main.c        ****             UART_PutString(str);
 293              		.loc 1 93 0
 294 01c4 2846     		mov	r0, r5
 295 01c6 FFF7FEFF 		bl	UART_PutString
 296              	.LVL50:
  94:main.c        ****             UART_PutString("******************************\n");
 297              		.loc 1 94 0
 298 01ca 1B48     		ldr	r0, .L6+88
 299 01cc FFF7FEFF 		bl	UART_PutString
 300              	.LVL51:
  95:main.c        ****             CyDelay(3000);          
 301              		.loc 1 95 0
 302 01d0 40F6B830 		movw	r0, #3000
ARM GAS  C:\Users\JOSEAN~1\AppData\Local\Temp\ccwwiPJS.s 			page 8


 303 01d4 FFF7FEFF 		bl	CyDelay
 304              	.LVL52:
  96:main.c        ****     }
 305              		.loc 1 96 0
 306 01d8 20E7     		b	.L4
 307              	.L7:
 308 01da 00BFAFF3 		.align	3
 308      0080
 309              	.L6:
 310 01e0 00000000 		.word	0
 311 01e4 80842E41 		.word	1093567616
 312 01e8 FCA9F1D2 		.word	-755914244
 313 01ec 4D62503F 		.word	1062232653
 314 01f0 00000000 		.word	data
 315 01f4 00000000 		.word	str
 316 01f8 00000000 		.word	.LC0
 317 01fc 00000000 		.word	volts
 318 0200 14000000 		.word	.LC1
 319 0204 81000880 		.word	-2146959231
 320 0208 00000000 		.word	periodPWM
 321 020c 00000000 		.word	dutyPWM
 322 0210 28000000 		.word	.LC2
 323 0214 0000C842 		.word	1120403456
 324 0218 00000000 		.word	countH
 325 021c 00000000 		.word	countL
 326 0220 FCF43233 		.word	858977532
 327 0224 00000000 		.word	freq
 328 0228 00000000 		.word	duty
 329 022c 00000000 		.word	duty_perc
 330 0230 60000000 		.word	.LC3
 331 0234 6C000000 		.word	.LC4
 332 0238 C0000000 		.word	.LC5
 333 023c 00000000 		.word	period_calc
 334              		.cfi_endproc
 335              	.LFE64:
 336              		.size	main, .-main
 337              		.comm	duty_perc,4,4
 338              		.comm	duty,4,4
 339              		.comm	freq,4,4
 340              		.comm	period_calc,4,4
 341              		.comm	countL,2,2
 342              		.comm	countH,2,2
 343              		.comm	str,100,4
 344              		.comm	volts,8,4
 345              		.comm	data,4,4
 346              		.comm	freqPWM,2,2
 347              		.comm	periodPWM,4,4
 348              		.comm	dutyPWM,4,4
 349              		.section	.rodata.str1.4,"aMS",%progbits,1
 350              		.align	2
 351              	.LC0:
 352 0000 44617461 		.ascii	"Data%d: %d bits\012\000"
 352      25643A20 
 352      25642062 
 352      6974730A 
 352      00
 353 0011 000000   		.space	3
ARM GAS  C:\Users\JOSEAN~1\AppData\Local\Temp\ccwwiPJS.s 			page 9


 354              	.LC1:
 355 0014 566F6C74 		.ascii	"Volts%d: %0.02f V\012\000"
 355      7325643A 
 355      2025302E 
 355      30326620 
 355      560A00
 356 0027 00       		.space	1
 357              	.LC2:
 358 0028 50657269 		.ascii	"Period: %lu, Duty: %0.2f%% PWM max: %d, Pot Max: %d"
 358      6F643A20 
 358      256C752C 
 358      20447574 
 358      793A2025 
 359 005b 0A0A00   		.ascii	"\012\012\000"
 360 005e 0000     		.space	2
 361              	.LC3:
 362 0060 4D454449 		.ascii	"MEDICIONES\012\000"
 362      43494F4E 
 362      45530A00 
 363              	.LC4:
 364 006c 50657269 		.ascii	"Periodo calc: %0.2f us, Duty: %0.3fus \012Frecuenci"
 364      6F646F20 
 364      63616C63 
 364      3A202530 
 364      2E326620 
 365 009c 613A2025 		.ascii	"a: %0.2fkHz, Duty perc: %0.2f%%\012\000"
 365      302E3266 
 365      6B487A2C 
 365      20447574 
 365      79207065 
 366 00bd 000000   		.space	3
 367              	.LC5:
 368 00c0 2A2A2A2A 		.ascii	"******************************\012\000"
 368      2A2A2A2A 
 368      2A2A2A2A 
 368      2A2A2A2A 
 368      2A2A2A2A 
 369              		.text
 370              	.Letext0:
 371              		.file 2 "c:\\program files (x86)\\cypress\\psoc creator\\4.2\\psoc creator\\import\\gnu\\arm\\5.4.
 372              		.file 3 "c:\\program files (x86)\\cypress\\psoc creator\\4.2\\psoc creator\\import\\gnu\\arm\\5.4.
 373              		.file 4 "Generated_Source\\PSoC5/cytypes.h"
 374              		.file 5 "c:\\program files (x86)\\cypress\\psoc creator\\4.2\\psoc creator\\import\\gnu\\arm\\5.4.
 375              		.file 6 "Generated_Source\\PSoC5/core_cm3.h"
 376              		.file 7 "Generated_Source\\PSoC5/ADC.h"
 377              		.file 8 "c:\\program files (x86)\\cypress\\psoc creator\\4.2\\psoc creator\\import\\gnu\\arm\\5.4.
 378              		.file 9 "Generated_Source\\PSoC5/UART.h"
 379              		.file 10 "Generated_Source\\PSoC5/PWM.h"
 380              		.file 11 "Generated_Source\\PSoC5/CounterH.h"
 381              		.file 12 "Generated_Source\\PSoC5/CounterL.h"
 382              		.file 13 "c:\\program files (x86)\\cypress\\psoc creator\\4.2\\psoc creator\\import\\gnu\\arm\\5.4
 383              		.file 14 "Generated_Source\\PSoC5/CyLib.h"
