ARM GAS  C:\Users\JOSEAN~1\AppData\Local\Temp\ccaaOiVu.s 			page 1


   1              		.syntax unified
   2              		.cpu cortex-m3
   3              		.fpu softvfp
   4              		.eabi_attribute 20, 1
   5              		.eabi_attribute 21, 1
   6              		.eabi_attribute 23, 3
   7              		.eabi_attribute 24, 1
   8              		.eabi_attribute 25, 1
   9              		.eabi_attribute 26, 1
  10              		.eabi_attribute 30, 6
  11              		.eabi_attribute 34, 1
  12              		.eabi_attribute 18, 4
  13              		.thumb
  14              		.file	"cymetadata.c"
  15              		.text
  16              	.Ltext0:
  17              		.cfi_sections	.debug_frame
  18              		.global	cy_meta_configecc
  19              		.section	.cyconfigecc,"a",%progbits
  20              		.align	2
  21              		.type	cy_meta_configecc, %object
  22              		.size	cy_meta_configecc, 280
  23              	cy_meta_configecc:
  24 0000 01       		.byte	1
  25 0001 4F       		.byte	79
  26 0002 00       		.byte	0
  27 0003 40       		.byte	64
  28 0004 03       		.byte	3
  29 0005 52       		.byte	82
  30 0006 00       		.byte	0
  31 0007 40       		.byte	64
  32 0008 01       		.byte	1
  33 0009 65       		.byte	101
  34 000a 00       		.byte	0
  35 000b 40       		.byte	64
  36 000c 2F       		.byte	47
  37 000d 14       		.byte	20
  38 000e 01       		.byte	1
  39 000f 40       		.byte	64
  40 0010 21       		.byte	33
  41 0011 15       		.byte	21
  42 0012 01       		.byte	1
  43 0013 40       		.byte	64
  44 0014 04       		.byte	4
  45 0015 40       		.byte	64
  46 0016 01       		.byte	1
  47 0017 40       		.byte	64
  48 0018 03       		.byte	3
  49 0019 41       		.byte	65
  50 001a 01       		.byte	1
  51 001b 40       		.byte	64
  52 001c 03       		.byte	3
  53 001d 42       		.byte	66
  54 001e 01       		.byte	1
  55 001f 40       		.byte	64
  56 0020 01       		.byte	1
  57 0021 43       		.byte	67
ARM GAS  C:\Users\JOSEAN~1\AppData\Local\Temp\ccaaOiVu.s 			page 2


  58 0022 01       		.byte	1
  59 0023 40       		.byte	64
  60 0024 03       		.byte	3
  61 0025 48       		.byte	72
  62 0026 01       		.byte	1
  63 0027 40       		.byte	64
  64 0028 05       		.byte	5
  65 0029 49       		.byte	73
  66 002a 01       		.byte	1
  67 002b 40       		.byte	64
  68 002c 02       		.byte	2
  69 002d 50       		.byte	80
  70 002e 01       		.byte	1
  71 002f 40       		.byte	64
  72 0030 01       		.byte	1
  73 0031 51       		.byte	81
  74 0032 01       		.byte	1
  75 0033 40       		.byte	64
  76 0034 0A       		.byte	10
  77 0035 36       		.byte	54
  78 0036 00       		.byte	0
  79 0037 02       		.byte	2
  80 0038 01       		.byte	1
  81 0039 02       		.byte	2
  82 003a 04       		.byte	4
  83 003b 01       		.byte	1
  84 003c 85       		.byte	-123
  85 003d 0F       		.byte	15
  86 003e 38       		.byte	56
  87 003f 80       		.byte	-128
  88 0040 3E       		.byte	62
  89 0041 40       		.byte	64
  90 0042 58       		.byte	88
  91 0043 04       		.byte	4
  92 0044 5F       		.byte	95
  93 0045 01       		.byte	1
  94 0046 8A       		.byte	-118
  95 0047 04       		.byte	4
  96 0048 8B       		.byte	-117
  97 0049 06       		.byte	6
  98 004a 94       		.byte	-108
  99 004b 01       		.byte	1
 100 004c 9A       		.byte	-102
 101 004d 07       		.byte	7
 102 004e 9D       		.byte	-99
 103 004f 04       		.byte	4
 104 0050 A7       		.byte	-89
 105 0051 01       		.byte	1
 106 0052 AE       		.byte	-82
 107 0053 08       		.byte	8
 108 0054 AF       		.byte	-81
 109 0055 01       		.byte	1
 110 0056 B0       		.byte	-80
 111 0057 01       		.byte	1
 112 0058 B2       		.byte	-78
 113 0059 02       		.byte	2
 114 005a B3       		.byte	-77
ARM GAS  C:\Users\JOSEAN~1\AppData\Local\Temp\ccaaOiVu.s 			page 3


 115 005b 04       		.byte	4
 116 005c B4       		.byte	-76
 117 005d 08       		.byte	8
 118 005e B5       		.byte	-75
 119 005f 01       		.byte	1
 120 0060 B6       		.byte	-74
 121 0061 04       		.byte	4
 122 0062 B7       		.byte	-73
 123 0063 02       		.byte	2
 124 0064 BF       		.byte	-65
 125 0065 10       		.byte	16
 126 0066 C0       		.byte	-64
 127 0067 20       		.byte	32
 128 0068 C1       		.byte	-63
 129 0069 05       		.byte	5
 130 006a C5       		.byte	-59
 131 006b D1       		.byte	-47
 132 006c C6       		.byte	-58
 133 006d 52       		.byte	82
 134 006e C8       		.byte	-56
 135 006f 0F       		.byte	15
 136 0070 C9       		.byte	-55
 137 0071 FF       		.byte	-1
 138 0072 CA       		.byte	-54
 139 0073 FF       		.byte	-1
 140 0074 CB       		.byte	-53
 141 0075 FF       		.byte	-1
 142 0076 CD       		.byte	-51
 143 0077 A0       		.byte	-96
 144 0078 CF       		.byte	-49
 145 0079 04       		.byte	4
 146 007a D0       		.byte	-48
 147 007b 18       		.byte	24
 148 007c D2       		.byte	-46
 149 007d 80       		.byte	-128
 150 007e D4       		.byte	-44
 151 007f 07       		.byte	7
 152 0080 D8       		.byte	-40
 153 0081 04       		.byte	4
 154 0082 D9       		.byte	-39
 155 0083 04       		.byte	4
 156 0084 DA       		.byte	-38
 157 0085 04       		.byte	4
 158 0086 DB       		.byte	-37
 159 0087 04       		.byte	4
 160 0088 DF       		.byte	-33
 161 0089 01       		.byte	1
 162 008a E0       		.byte	-32
 163 008b 40       		.byte	64
 164 008c E2       		.byte	-30
 165 008d C0       		.byte	-64
 166 008e E4       		.byte	-28
 167 008f 40       		.byte	64
 168 0090 E5       		.byte	-27
 169 0091 40       		.byte	64
 170 0092 E6       		.byte	-26
 171 0093 C0       		.byte	-64
ARM GAS  C:\Users\JOSEAN~1\AppData\Local\Temp\ccaaOiVu.s 			page 4


 172 0094 E8       		.byte	-24
 173 0095 C0       		.byte	-64
 174 0096 EA       		.byte	-22
 175 0097 C0       		.byte	-64
 176 0098 EC       		.byte	-20
 177 0099 C0       		.byte	-64
 178 009a EE       		.byte	-18
 179 009b C0       		.byte	-64
 180 009c 05       		.byte	5
 181 009d 10       		.byte	16
 182 009e 0E       		.byte	14
 183 009f 20       		.byte	32
 184 00a0 0F       		.byte	15
 185 00a1 08       		.byte	8
 186 00a2 17       		.byte	23
 187 00a3 40       		.byte	64
 188 00a4 1A       		.byte	26
 189 00a5 01       		.byte	1
 190 00a6 1D       		.byte	29
 191 00a7 B0       		.byte	-80
 192 00a8 1E       		.byte	30
 193 00a9 60       		.byte	96
 194 00aa 1F       		.byte	31
 195 00ab 20       		.byte	32
 196 00ac 26       		.byte	38
 197 00ad 80       		.byte	-128
 198 00ae 27       		.byte	39
 199 00af 28       		.byte	40
 200 00b0 2E       		.byte	46
 201 00b1 80       		.byte	-128
 202 00b2 2F       		.byte	47
 203 00b3 20       		.byte	32
 204 00b4 36       		.byte	54
 205 00b5 80       		.byte	-128
 206 00b6 3F       		.byte	63
 207 00b7 20       		.byte	32
 208 00b8 45       		.byte	69
 209 00b9 20       		.byte	32
 210 00ba 4F       		.byte	79
 211 00bb 89       		.byte	-119
 212 00bc 56       		.byte	86
 213 00bd 80       		.byte	-128
 214 00be 57       		.byte	87
 215 00bf 50       		.byte	80
 216 00c0 5E       		.byte	94
 217 00c1 40       		.byte	64
 218 00c2 5F       		.byte	95
 219 00c3 29       		.byte	41
 220 00c4 77       		.byte	119
 221 00c5 40       		.byte	64
 222 00c6 86       		.byte	-122
 223 00c7 01       		.byte	1
 224 00c8 89       		.byte	-119
 225 00c9 80       		.byte	-128
 226 00ca C0       		.byte	-64
 227 00cb 40       		.byte	64
 228 00cc C2       		.byte	-62
ARM GAS  C:\Users\JOSEAN~1\AppData\Local\Temp\ccaaOiVu.s 			page 5


 229 00cd 60       		.byte	96
 230 00ce C4       		.byte	-60
 231 00cf 80       		.byte	-128
 232 00d0 CA       		.byte	-54
 233 00d1 50       		.byte	80
 234 00d2 CC       		.byte	-52
 235 00d3 10       		.byte	16
 236 00d4 CE       		.byte	-50
 237 00d5 20       		.byte	32
 238 00d6 D0       		.byte	-48
 239 00d7 20       		.byte	32
 240 00d8 D2       		.byte	-46
 241 00d9 10       		.byte	16
 242 00da D6       		.byte	-42
 243 00db F0       		.byte	-16
 244 00dc E2       		.byte	-30
 245 00dd 20       		.byte	32
 246 00de 32       		.byte	50
 247 00df 20       		.byte	32
 248 00e0 36       		.byte	54
 249 00e1 80       		.byte	-128
 250 00e2 7A       		.byte	122
 251 00e3 60       		.byte	96
 252 00e4 CC       		.byte	-52
 253 00e5 30       		.byte	48
 254 00e6 5E       		.byte	94
 255 00e7 80       		.byte	-128
 256 00e8 A6       		.byte	-90
 257 00e9 C0       		.byte	-64
 258 00ea D6       		.byte	-42
 259 00eb 20       		.byte	32
 260 00ec 12       		.byte	18
 261 00ed 80       		.byte	-128
 262 00ee A6       		.byte	-90
 263 00ef C0       		.byte	-64
 264 00f0 C4       		.byte	-60
 265 00f1 10       		.byte	16
 266 00f2 A6       		.byte	-90
 267 00f3 40       		.byte	64
 268 00f4 67       		.byte	103
 269 00f5 10       		.byte	16
 270 00f6 A6       		.byte	-90
 271 00f7 40       		.byte	64
 272 00f8 D8       		.byte	-40
 273 00f9 80       		.byte	-128
 274 00fa 87       		.byte	-121
 275 00fb 10       		.byte	16
 276 00fc 8A       		.byte	-118
 277 00fd 40       		.byte	64
 278 00fe 97       		.byte	-105
 279 00ff 10       		.byte	16
 280 0100 A6       		.byte	-90
 281 0101 40       		.byte	64
 282 0102 E2       		.byte	-30
 283 0103 10       		.byte	16
 284 0104 10       		.byte	16
 285 0105 01       		.byte	1
ARM GAS  C:\Users\JOSEAN~1\AppData\Local\Temp\ccaaOiVu.s 			page 6


 286 0106 1A       		.byte	26
 287 0107 01       		.byte	1
 288 0108 00       		.byte	0
 289 0109 0B       		.byte	11
 290 010a 00       		.byte	0
 291 010b 00       		.byte	0
 292 010c 01       		.byte	1
 293 010d 00       		.byte	0
 294 010e 00       		.byte	0
 295 010f 07       		.byte	7
 296 0110 06       		.byte	6
 297 0111 00       		.byte	0
 298 0112 02       		.byte	2
 299 0113 00       		.byte	0
 300 0114 00       		.byte	0
 301 0115 00       		.byte	0
 302 0116 00       		.byte	0
 303 0117 00       		.byte	0
 304              		.global	cy_meta_custnvl
 305              		.section	.cycustnvl,"a",%progbits
 306              		.align	2
 307              		.type	cy_meta_custnvl, %object
 308              		.size	cy_meta_custnvl, 4
 309              	cy_meta_custnvl:
 310 0000 00       		.byte	0
 311 0001 00       		.byte	0
 312 0002 40       		.byte	64
 313 0003 05       		.byte	5
 314              		.global	cy_meta_wonvl
 315              		.section	.cywolatch,"a",%progbits
 316              		.align	2
 317              		.type	cy_meta_wonvl, %object
 318              		.size	cy_meta_wonvl, 4
 319              	cy_meta_wonvl:
 320 0000 BC       		.byte	-68
 321 0001 90       		.byte	-112
 322 0002 AC       		.byte	-84
 323 0003 AF       		.byte	-81
 324              		.global	cy_meta_flashprotect
 325              		.section	.cyflashprotect,"a",%progbits
 326              		.align	2
 327              		.type	cy_meta_flashprotect, %object
 328              		.size	cy_meta_flashprotect, 256
 329              	cy_meta_flashprotect:
 330 0000 00000000 		.space	256
 330      00000000 
 330      00000000 
 330      00000000 
 330      00000000 
 331              		.global	cy_metadata
 332              		.section	.cymeta,"a",%progbits
 333              		.align	2
 334              		.type	cy_metadata, %object
 335              		.size	cy_metadata, 12
 336              	cy_metadata:
 337 0000 00       		.byte	0
 338 0001 01       		.byte	1
ARM GAS  C:\Users\JOSEAN~1\AppData\Local\Temp\ccaaOiVu.s 			page 7


 339 0002 2E       		.byte	46
 340 0003 16       		.byte	22
 341 0004 10       		.byte	16
 342 0005 69       		.byte	105
 343 0006 00       		.byte	0
 344 0007 01       		.byte	1
 345 0008 00       		.byte	0
 346 0009 00       		.byte	0
 347 000a 00       		.byte	0
 348 000b 00       		.byte	0
 349              		.text
 350              	.Letext0:
 351              		.file 1 ".\\Generated_Source\\PSoC5\\cymetadata.c"
 352              		.file 2 ".\\Generated_Source\\PSoC5\\cytypes.h"
