ARM GAS  C:\Users\JOSEAN~1\AppData\Local\Temp\ccRHXDy2.s 			page 1


   1              		.syntax unified
   2              		.cpu cortex-m3
   3              		.fpu softvfp
   4              		.eabi_attribute 20, 1
   5              		.eabi_attribute 21, 1
   6              		.eabi_attribute 23, 3
   7              		.eabi_attribute 24, 1
   8              		.eabi_attribute 25, 1
   9              		.eabi_attribute 26, 1
  10              		.eabi_attribute 30, 6
  11              		.eabi_attribute 34, 1
  12              		.eabi_attribute 18, 4
  13              		.thumb
  14              		.file	"cymetadata.c"
  15              		.text
  16              	.Ltext0:
  17              		.cfi_sections	.debug_frame
  18              		.global	cy_meta_configecc
  19              		.section	.cyconfigecc,"a",%progbits
  20              		.align	2
  21              		.type	cy_meta_configecc, %object
  22              		.size	cy_meta_configecc, 8
  23              	cy_meta_configecc:
  24 0000 00       		.byte	0
  25 0001 02       		.byte	2
  26 0002 02       		.byte	2
  27 0003 00       		.byte	0
  28 0004 00       		.byte	0
  29 0005 00       		.byte	0
  30 0006 00       		.byte	0
  31 0007 00       		.byte	0
  32              		.global	cy_meta_custnvl
  33              		.section	.cycustnvl,"a",%progbits
  34              		.align	2
  35              		.type	cy_meta_custnvl, %object
  36              		.size	cy_meta_custnvl, 4
  37              	cy_meta_custnvl:
  38 0000 00       		.byte	0
  39 0001 00       		.byte	0
  40 0002 40       		.byte	64
  41 0003 05       		.byte	5
  42              		.global	cy_meta_wonvl
  43              		.section	.cywolatch,"a",%progbits
  44              		.align	2
  45              		.type	cy_meta_wonvl, %object
  46              		.size	cy_meta_wonvl, 4
  47              	cy_meta_wonvl:
  48 0000 BC       		.byte	-68
  49 0001 90       		.byte	-112
  50 0002 AC       		.byte	-84
  51 0003 AF       		.byte	-81
  52              		.global	cy_meta_flashprotect
  53              		.section	.cyflashprotect,"a",%progbits
  54              		.align	2
  55              		.type	cy_meta_flashprotect, %object
  56              		.size	cy_meta_flashprotect, 256
  57              	cy_meta_flashprotect:
ARM GAS  C:\Users\JOSEAN~1\AppData\Local\Temp\ccRHXDy2.s 			page 2


  58 0000 00000000 		.space	256
  58      00000000 
  58      00000000 
  58      00000000 
  58      00000000 
  59              		.global	cy_metadata
  60              		.section	.cymeta,"a",%progbits
  61              		.align	2
  62              		.type	cy_metadata, %object
  63              		.size	cy_metadata, 12
  64              	cy_metadata:
  65 0000 00       		.byte	0
  66 0001 01       		.byte	1
  67 0002 2E       		.byte	46
  68 0003 16       		.byte	22
  69 0004 10       		.byte	16
  70 0005 69       		.byte	105
  71 0006 00       		.byte	0
  72 0007 01       		.byte	1
  73 0008 00       		.byte	0
  74 0009 00       		.byte	0
  75 000a 00       		.byte	0
  76 000b 00       		.byte	0
  77              		.text
  78              	.Letext0:
  79              		.file 1 ".\\Generated_Source\\PSoC5\\cymetadata.c"
  80              		.file 2 ".\\Generated_Source\\PSoC5\\cytypes.h"
